{
	"contracts/PatientDataManagement.sol": {
		"PatientDataManagement": {
			"abi": [
				{
					"inputs": [
						{
							"internalType": "address",
							"name": "_rewardTokenAddress",
							"type": "address"
						},
						{
							"internalType": "uint256",
							"name": "_initialRewardAmount",
							"type": "uint256"
						}
					],
					"stateMutability": "nonpayable",
					"type": "constructor"
				},
				{
					"anonymous": false,
					"inputs": [
						{
							"indexed": true,
							"internalType": "address",
							"name": "patient",
							"type": "address"
						},
						{
							"indexed": true,
							"internalType": "address",
							"name": "accessor",
							"type": "address"
						},
						{
							"indexed": false,
							"internalType": "bool",
							"name": "isGranted",
							"type": "bool"
						}
					],
					"name": "AccessUpdated",
					"type": "event"
				},
				{
					"anonymous": false,
					"inputs": [
						{
							"indexed": true,
							"internalType": "address",
							"name": "patient",
							"type": "address"
						},
						{
							"indexed": false,
							"internalType": "uint256",
							"name": "timestamp",
							"type": "uint256"
						},
						{
							"indexed": false,
							"internalType": "uint256",
							"name": "glucoseLevel",
							"type": "uint256"
						},
						{
							"indexed": false,
							"internalType": "bytes32",
							"name": "medicationHash",
							"type": "bytes32"
						},
						{
							"indexed": false,
							"internalType": "bytes32",
							"name": "mealsHash",
							"type": "bytes32"
						},
						{
							"indexed": false,
							"internalType": "bytes32",
							"name": "exerciseHash",
							"type": "bytes32"
						}
					],
					"name": "DataLogged",
					"type": "event"
				},
				{
					"anonymous": false,
					"inputs": [
						{
							"indexed": true,
							"internalType": "address",
							"name": "accessor",
							"type": "address"
						},
						{
							"indexed": false,
							"internalType": "bool",
							"name": "isGranted",
							"type": "bool"
						}
					],
					"name": "EmergencyAccessUpdated",
					"type": "event"
				},
				{
					"anonymous": false,
					"inputs": [
						{
							"indexed": true,
							"internalType": "address",
							"name": "patient",
							"type": "address"
						},
						{
							"indexed": false,
							"internalType": "uint256",
							"name": "amount",
							"type": "uint256"
						}
					],
					"name": "RewardIssued",
					"type": "event"
				},
				{
					"inputs": [
						{
							"internalType": "uint256",
							"name": "_index",
							"type": "uint256"
						}
					],
					"name": "deleteHealthData",
					"outputs": [],
					"stateMutability": "nonpayable",
					"type": "function"
				},
				{
					"inputs": [
						{
							"internalType": "address",
							"name": "_patient",
							"type": "address"
						},
						{
							"internalType": "uint256",
							"name": "_startTime",
							"type": "uint256"
						},
						{
							"internalType": "uint256",
							"name": "_endTime",
							"type": "uint256"
						}
					],
					"name": "getAverageGlucoseLevel",
					"outputs": [
						{
							"internalType": "uint256",
							"name": "",
							"type": "uint256"
						}
					],
					"stateMutability": "view",
					"type": "function"
				},
				{
					"inputs": [
						{
							"internalType": "address",
							"name": "_accessor",
							"type": "address"
						}
					],
					"name": "grantEmergencyAccess",
					"outputs": [],
					"stateMutability": "nonpayable",
					"type": "function"
				},
				{
					"inputs": [
						{
							"internalType": "uint256",
							"name": "_glucoseLevel",
							"type": "uint256"
						},
						{
							"internalType": "bytes32",
							"name": "_medicationHash",
							"type": "bytes32"
						},
						{
							"internalType": "bytes32",
							"name": "_mealsHash",
							"type": "bytes32"
						},
						{
							"internalType": "bytes32",
							"name": "_exerciseHash",
							"type": "bytes32"
						}
					],
					"name": "logHealthData",
					"outputs": [],
					"stateMutability": "nonpayable",
					"type": "function"
				},
				{
					"inputs": [
						{
							"internalType": "address",
							"name": "_accessor",
							"type": "address"
						}
					],
					"name": "revokeEmergencyAccess",
					"outputs": [],
					"stateMutability": "nonpayable",
					"type": "function"
				},
				{
					"inputs": [
						{
							"internalType": "uint256",
							"name": "_newRewardAmount",
							"type": "uint256"
						}
					],
					"name": "setRewardAmount",
					"outputs": [],
					"stateMutability": "nonpayable",
					"type": "function"
				},
				{
					"inputs": [
						{
							"internalType": "address",
							"name": "_accessor",
							"type": "address"
						},
						{
							"internalType": "bool",
							"name": "_isGranted",
							"type": "bool"
						}
					],
					"name": "updateAccess",
					"outputs": [],
					"stateMutability": "nonpayable",
					"type": "function"
				},
				{
					"inputs": [
						{
							"internalType": "address",
							"name": "_patient",
							"type": "address"
						}
					],
					"name": "viewHealthData",
					"outputs": [
						{
							"components": [
								{
									"internalType": "uint256",
									"name": "timestamp",
									"type": "uint256"
								},
								{
									"internalType": "uint256",
									"name": "glucoseLevel",
									"type": "uint256"
								},
								{
									"internalType": "bytes32",
									"name": "medicationHash",
									"type": "bytes32"
								},
								{
									"internalType": "bytes32",
									"name": "mealsHash",
									"type": "bytes32"
								},
								{
									"internalType": "bytes32",
									"name": "exerciseHash",
									"type": "bytes32"
								}
							],
							"internalType": "struct PatientDataManagement.HealthData[]",
							"name": "",
							"type": "tuple[]"
						}
					],
					"stateMutability": "view",
					"type": "function"
				}
			],
			"devdoc": {
				"kind": "dev",
				"methods": {},
				"version": 1
			},
			"evm": {
				"assembly": "    /* \"contracts/PatientDataManagement.sol\":99:4242  contract PatientDataManagement {... */\n  mstore(0x40, 0x80)\n    /* \"contracts/PatientDataManagement.sol\":1294:1505  constructor(address _rewardTokenAddress, uint256 _initialRewardAmount) {... */\n  callvalue\n  dup1\n  iszero\n  tag_1\n  jumpi\n  0x00\n  dup1\n  revert\ntag_1:\n  pop\n  mload(0x40)\n  sub(codesize, bytecodeSize)\n  dup1\n  bytecodeSize\n  dup4\n  codecopy\n  dup2\n  dup2\n  add\n  0x40\n  mstore\n  dup2\n  add\n  swap1\n  tag_2\n  swap2\n  swap1\n  tag_3\n  jump\t// in\ntag_2:\n    /* \"contracts/PatientDataManagement.sol\":1402:1421  _rewardTokenAddress */\n  dup2\n    /* \"contracts/PatientDataManagement.sol\":1376:1387  rewardToken */\n  0x03\n  0x00\n    /* \"contracts/PatientDataManagement.sol\":1376:1422  rewardToken = RewardToken(_rewardTokenAddress) */\n  0x0100\n  exp\n  dup2\n  sload\n  dup2\n  0xffffffffffffffffffffffffffffffffffffffff\n  mul\n  not\n  and\n  swap1\n  dup4\n  0xffffffffffffffffffffffffffffffffffffffff\n  and\n  mul\n  or\n  swap1\n  sstore\n  pop\n    /* \"contracts/PatientDataManagement.sol\":1441:1451  msg.sender */\n  caller\n    /* \"contracts/PatientDataManagement.sol\":1433:1438  owner */\n  0x05\n  0x00\n    /* \"contracts/PatientDataManagement.sol\":1433:1451  owner = msg.sender */\n  0x0100\n  exp\n  dup2\n  sload\n  dup2\n  0xffffffffffffffffffffffffffffffffffffffff\n  mul\n  not\n  and\n  swap1\n  dup4\n  0xffffffffffffffffffffffffffffffffffffffff\n  and\n  mul\n  or\n  swap1\n  sstore\n  pop\n    /* \"contracts/PatientDataManagement.sol\":1477:1497  _initialRewardAmount */\n  dup1\n    /* \"contracts/PatientDataManagement.sol\":1462:1474  rewardAmount */\n  0x04\n    /* \"contracts/PatientDataManagement.sol\":1462:1497  rewardAmount = _initialRewardAmount */\n  dup2\n  swap1\n  sstore\n  pop\n    /* \"contracts/PatientDataManagement.sol\":1294:1505  constructor(address _rewardTokenAddress, uint256 _initialRewardAmount) {... */\n  pop\n  pop\n    /* \"contracts/PatientDataManagement.sol\":99:4242  contract PatientDataManagement {... */\n  jump(tag_6)\n    /* \"#utility.yul\":88:205   */\ntag_8:\n    /* \"#utility.yul\":197:198   */\n  0x00\n    /* \"#utility.yul\":194:195   */\n  dup1\n    /* \"#utility.yul\":187:199   */\n  revert\n    /* \"#utility.yul\":334:460   */\ntag_10:\n    /* \"#utility.yul\":371:378   */\n  0x00\n    /* \"#utility.yul\":411:453   */\n  0xffffffffffffffffffffffffffffffffffffffff\n    /* \"#utility.yul\":404:409   */\n  dup3\n    /* \"#utility.yul\":400:454   */\n  and\n    /* \"#utility.yul\":389:454   */\n  swap1\n  pop\n    /* \"#utility.yul\":334:460   */\n  swap2\n  swap1\n  pop\n  jump\t// out\n    /* \"#utility.yul\":466:562   */\ntag_11:\n    /* \"#utility.yul\":503:510   */\n  0x00\n    /* \"#utility.yul\":532:556   */\n  tag_23\n    /* \"#utility.yul\":550:555   */\n  dup3\n    /* \"#utility.yul\":532:556   */\n  tag_10\n  jump\t// in\ntag_23:\n    /* \"#utility.yul\":521:556   */\n  swap1\n  pop\n    /* \"#utility.yul\":466:562   */\n  swap2\n  swap1\n  pop\n  jump\t// out\n    /* \"#utility.yul\":568:690   */\ntag_12:\n    /* \"#utility.yul\":641:665   */\n  tag_25\n    /* \"#utility.yul\":659:664   */\n  dup2\n    /* \"#utility.yul\":641:665   */\n  tag_11\n  jump\t// in\ntag_25:\n    /* \"#utility.yul\":634:639   */\n  dup2\n    /* \"#utility.yul\":631:666   */\n  eq\n    /* \"#utility.yul\":621:684   */\n  tag_26\n  jumpi\n    /* \"#utility.yul\":680:681   */\n  0x00\n    /* \"#utility.yul\":677:678   */\n  dup1\n    /* \"#utility.yul\":670:682   */\n  revert\n    /* \"#utility.yul\":621:684   */\ntag_26:\n    /* \"#utility.yul\":568:690   */\n  pop\n  jump\t// out\n    /* \"#utility.yul\":696:839   */\ntag_13:\n    /* \"#utility.yul\":753:758   */\n  0x00\n    /* \"#utility.yul\":784:790   */\n  dup2\n    /* \"#utility.yul\":778:791   */\n  mload\n    /* \"#utility.yul\":769:791   */\n  swap1\n  pop\n    /* \"#utility.yul\":800:833   */\n  tag_28\n    /* \"#utility.yul\":827:832   */\n  dup2\n    /* \"#utility.yul\":800:833   */\n  tag_12\n  jump\t// in\ntag_28:\n    /* \"#utility.yul\":696:839   */\n  swap3\n  swap2\n  pop\n  pop\n  jump\t// out\n    /* \"#utility.yul\":845:922   */\ntag_14:\n    /* \"#utility.yul\":882:889   */\n  0x00\n    /* \"#utility.yul\":911:916   */\n  dup2\n    /* \"#utility.yul\":900:916   */\n  swap1\n  pop\n    /* \"#utility.yul\":845:922   */\n  swap2\n  swap1\n  pop\n  jump\t// out\n    /* \"#utility.yul\":928:1050   */\ntag_15:\n    /* \"#utility.yul\":1001:1025   */\n  tag_31\n    /* \"#utility.yul\":1019:1024   */\n  dup2\n    /* \"#utility.yul\":1001:1025   */\n  tag_14\n  jump\t// in\ntag_31:\n    /* \"#utility.yul\":994:999   */\n  dup2\n    /* \"#utility.yul\":991:1026   */\n  eq\n    /* \"#utility.yul\":981:1044   */\n  tag_32\n  jumpi\n    /* \"#utility.yul\":1040:1041   */\n  0x00\n    /* \"#utility.yul\":1037:1038   */\n  dup1\n    /* \"#utility.yul\":1030:1042   */\n  revert\n    /* \"#utility.yul\":981:1044   */\ntag_32:\n    /* \"#utility.yul\":928:1050   */\n  pop\n  jump\t// out\n    /* \"#utility.yul\":1056:1199   */\ntag_16:\n    /* \"#utility.yul\":1113:1118   */\n  0x00\n    /* \"#utility.yul\":1144:1150   */\n  dup2\n    /* \"#utility.yul\":1138:1151   */\n  mload\n    /* \"#utility.yul\":1129:1151   */\n  swap1\n  pop\n    /* \"#utility.yul\":1160:1193   */\n  tag_34\n    /* \"#utility.yul\":1187:1192   */\n  dup2\n    /* \"#utility.yul\":1160:1193   */\n  tag_15\n  jump\t// in\ntag_34:\n    /* \"#utility.yul\":1056:1199   */\n  swap3\n  swap2\n  pop\n  pop\n  jump\t// out\n    /* \"#utility.yul\":1205:1712   */\ntag_3:\n    /* \"#utility.yul\":1284:1290   */\n  0x00\n    /* \"#utility.yul\":1292:1298   */\n  dup1\n    /* \"#utility.yul\":1341:1343   */\n  0x40\n    /* \"#utility.yul\":1329:1338   */\n  dup4\n    /* \"#utility.yul\":1320:1327   */\n  dup6\n    /* \"#utility.yul\":1316:1339   */\n  sub\n    /* \"#utility.yul\":1312:1344   */\n  slt\n    /* \"#utility.yul\":1309:1428   */\n  iszero\n  tag_36\n  jumpi\n    /* \"#utility.yul\":1347:1426   */\n  tag_37\n  tag_8\n  jump\t// in\ntag_37:\n    /* \"#utility.yul\":1309:1428   */\ntag_36:\n    /* \"#utility.yul\":1467:1468   */\n  0x00\n    /* \"#utility.yul\":1492:1556   */\n  tag_38\n    /* \"#utility.yul\":1548:1555   */\n  dup6\n    /* \"#utility.yul\":1539:1545   */\n  dup3\n    /* \"#utility.yul\":1528:1537   */\n  dup7\n    /* \"#utility.yul\":1524:1546   */\n  add\n    /* \"#utility.yul\":1492:1556   */\n  tag_13\n  jump\t// in\ntag_38:\n    /* \"#utility.yul\":1482:1556   */\n  swap3\n  pop\n    /* \"#utility.yul\":1438:1566   */\n  pop\n    /* \"#utility.yul\":1605:1607   */\n  0x20\n    /* \"#utility.yul\":1631:1695   */\n  tag_39\n    /* \"#utility.yul\":1687:1694   */\n  dup6\n    /* \"#utility.yul\":1678:1684   */\n  dup3\n    /* \"#utility.yul\":1667:1676   */\n  dup7\n    /* \"#utility.yul\":1663:1685   */\n  add\n    /* \"#utility.yul\":1631:1695   */\n  tag_16\n  jump\t// in\ntag_39:\n    /* \"#utility.yul\":1621:1695   */\n  swap2\n  pop\n    /* \"#utility.yul\":1576:1705   */\n  pop\n    /* \"#utility.yul\":1205:1712   */\n  swap3\n  pop\n  swap3\n  swap1\n  pop\n  jump\t// out\n    /* \"contracts/PatientDataManagement.sol\":99:4242  contract PatientDataManagement {... */\ntag_6:\n  dataSize(sub_0)\n  dup1\n  dataOffset(sub_0)\n  0x00\n  codecopy\n  0x00\n  return\nstop\n\nsub_0: assembly {\n        /* \"contracts/PatientDataManagement.sol\":99:4242  contract PatientDataManagement {... */\n      mstore(0x40, 0x80)\n      callvalue\n      dup1\n      iszero\n      tag_1\n      jumpi\n      0x00\n      dup1\n      revert\n    tag_1:\n      pop\n      jumpi(tag_2, lt(calldatasize, 0x04))\n      shr(0xe0, calldataload(0x00))\n      dup1\n      0x9951664e\n      gt\n      tag_11\n      jumpi\n      dup1\n      0x9951664e\n      eq\n      tag_7\n      jumpi\n      dup1\n      0xa8a65a78\n      eq\n      tag_8\n      jumpi\n      dup1\n      0xaabc4280\n      eq\n      tag_9\n      jumpi\n      dup1\n      0xd0ad1398\n      eq\n      tag_10\n      jumpi\n      jump(tag_2)\n    tag_11:\n      dup1\n      0x05c17521\n      eq\n      tag_3\n      jumpi\n      dup1\n      0x0c66f928\n      eq\n      tag_4\n      jumpi\n      dup1\n      0x213156cc\n      eq\n      tag_5\n      jumpi\n      dup1\n      0x73b492ff\n      eq\n      tag_6\n      jumpi\n    tag_2:\n      0x00\n      dup1\n      revert\n        /* \"contracts/PatientDataManagement.sol\":2874:3186  function viewHealthData(address _patient) public view returns (HealthData[] memory) {... */\n    tag_3:\n      tag_12\n      0x04\n      dup1\n      calldatasize\n      sub\n      dup2\n      add\n      swap1\n      tag_13\n      swap2\n      swap1\n      tag_14\n      jump\t// in\n    tag_13:\n      tag_15\n      jump\t// in\n    tag_12:\n      mload(0x40)\n      tag_16\n      swap2\n      swap1\n      tag_17\n      jump\t// in\n    tag_16:\n      mload(0x40)\n      dup1\n      swap2\n      sub\n      swap1\n      return\n        /* \"contracts/PatientDataManagement.sol\":2270:2495  function updateAccess(address _accessor, bool _isGranted) public onlyPatient(msg.sender) {... */\n    tag_4:\n      tag_18\n      0x04\n      dup1\n      calldatasize\n      sub\n      dup2\n      add\n      swap1\n      tag_19\n      swap2\n      swap1\n      tag_20\n      jump\t// in\n    tag_19:\n      tag_21\n      jump\t// in\n    tag_18:\n      stop\n        /* \"contracts/PatientDataManagement.sol\":1513:2262  function logHealthData(... */\n    tag_5:\n      tag_22\n      0x04\n      dup1\n      calldatasize\n      sub\n      dup2\n      add\n      swap1\n      tag_23\n      swap2\n      swap1\n      tag_24\n      jump\t// in\n    tag_23:\n      tag_25\n      jump\t// in\n    tag_22:\n      stop\n        /* \"contracts/PatientDataManagement.sol\":2687:2866  function revokeEmergencyAccess(address _accessor) public onlyOwner {... */\n    tag_6:\n      tag_26\n      0x04\n      dup1\n      calldatasize\n      sub\n      dup2\n      add\n      swap1\n      tag_27\n      swap2\n      swap1\n      tag_14\n      jump\t// in\n    tag_27:\n      tag_28\n      jump\t// in\n    tag_26:\n      stop\n        /* \"contracts/PatientDataManagement.sol\":3510:4239  function getAverageGlucoseLevel(address _patient, uint256 _startTime, uint256 _endTime) public view returns (uint256) {... */\n    tag_7:\n      tag_29\n      0x04\n      dup1\n      calldatasize\n      sub\n      dup2\n      add\n      swap1\n      tag_30\n      swap2\n      swap1\n      tag_31\n      jump\t// in\n    tag_30:\n      tag_32\n      jump\t// in\n    tag_29:\n      mload(0x40)\n      tag_33\n      swap2\n      swap1\n      tag_34\n      jump\t// in\n    tag_33:\n      mload(0x40)\n      dup1\n      swap2\n      sub\n      swap1\n      return\n        /* \"contracts/PatientDataManagement.sol\":3384:3502  function setRewardAmount(uint256 _newRewardAmount) public onlyOwner {... */\n    tag_8:\n      tag_35\n      0x04\n      dup1\n      calldatasize\n      sub\n      dup2\n      add\n      swap1\n      tag_36\n      swap2\n      swap1\n      tag_37\n      jump\t// in\n    tag_36:\n      tag_38\n      jump\t// in\n    tag_35:\n      stop\n        /* \"contracts/PatientDataManagement.sol\":2503:2679  function grantEmergencyAccess(address _accessor) public onlyOwner {... */\n    tag_9:\n      tag_39\n      0x04\n      dup1\n      calldatasize\n      sub\n      dup2\n      add\n      swap1\n      tag_40\n      swap2\n      swap1\n      tag_14\n      jump\t// in\n    tag_40:\n      tag_41\n      jump\t// in\n    tag_39:\n      stop\n        /* \"contracts/PatientDataManagement.sol\":3194:3376  function deleteHealthData(uint256 _index) public {... */\n    tag_10:\n      tag_42\n      0x04\n      dup1\n      calldatasize\n      sub\n      dup2\n      add\n      swap1\n      tag_43\n      swap2\n      swap1\n      tag_37\n      jump\t// in\n    tag_43:\n      tag_44\n      jump\t// in\n    tag_42:\n      stop\n        /* \"contracts/PatientDataManagement.sol\":2874:3186  function viewHealthData(address _patient) public view returns (HealthData[] memory) {... */\n    tag_15:\n        /* \"contracts/PatientDataManagement.sol\":2937:2956  HealthData[] memory */\n      0x60\n        /* \"contracts/PatientDataManagement.sol\":3003:3013  msg.sender */\n      caller\n        /* \"contracts/PatientDataManagement.sol\":2991:3013  _patient == msg.sender */\n      0xffffffffffffffffffffffffffffffffffffffff\n      and\n        /* \"contracts/PatientDataManagement.sol\":2991:2999  _patient */\n      dup3\n        /* \"contracts/PatientDataManagement.sol\":2991:3013  _patient == msg.sender */\n      0xffffffffffffffffffffffffffffffffffffffff\n      and\n      eq\n        /* \"contracts/PatientDataManagement.sol\":2991:3056  _patient == msg.sender || accessPermissions[_patient][msg.sender] */\n      dup1\n      tag_46\n      jumpi\n      pop\n        /* \"contracts/PatientDataManagement.sol\":3017:3034  accessPermissions */\n      0x01\n        /* \"contracts/PatientDataManagement.sol\":3017:3044  accessPermissions[_patient] */\n      0x00\n        /* \"contracts/PatientDataManagement.sol\":3035:3043  _patient */\n      dup4\n        /* \"contracts/PatientDataManagement.sol\":3017:3044  accessPermissions[_patient] */\n      0xffffffffffffffffffffffffffffffffffffffff\n      and\n      0xffffffffffffffffffffffffffffffffffffffff\n      and\n      dup2\n      mstore\n      0x20\n      add\n      swap1\n      dup2\n      mstore\n      0x20\n      add\n      0x00\n      keccak256\n        /* \"contracts/PatientDataManagement.sol\":3017:3056  accessPermissions[_patient][msg.sender] */\n      0x00\n        /* \"contracts/PatientDataManagement.sol\":3045:3055  msg.sender */\n      caller\n        /* \"contracts/PatientDataManagement.sol\":3017:3056  accessPermissions[_patient][msg.sender] */\n      0xffffffffffffffffffffffffffffffffffffffff\n      and\n      0xffffffffffffffffffffffffffffffffffffffff\n      and\n      dup2\n      mstore\n      0x20\n      add\n      swap1\n      dup2\n      mstore\n      0x20\n      add\n      0x00\n      keccak256\n      0x00\n      swap1\n      sload\n      swap1\n      0x0100\n      exp\n      swap1\n      div\n      0xff\n      and\n        /* \"contracts/PatientDataManagement.sol\":2991:3056  _patient == msg.sender || accessPermissions[_patient][msg.sender] */\n    tag_46:\n        /* \"contracts/PatientDataManagement.sol\":2991:3090  _patient == msg.sender || accessPermissions[_patient][msg.sender] || emergencyAccessors[msg.sender] */\n      dup1\n      tag_47\n      jumpi\n      pop\n        /* \"contracts/PatientDataManagement.sol\":3060:3078  emergencyAccessors */\n      0x02\n        /* \"contracts/PatientDataManagement.sol\":3060:3090  emergencyAccessors[msg.sender] */\n      0x00\n        /* \"contracts/PatientDataManagement.sol\":3079:3089  msg.sender */\n      caller\n        /* \"contracts/PatientDataManagement.sol\":3060:3090  emergencyAccessors[msg.sender] */\n      0xffffffffffffffffffffffffffffffffffffffff\n      and\n      0xffffffffffffffffffffffffffffffffffffffff\n      and\n      dup2\n      mstore\n      0x20\n      add\n      swap1\n      dup2\n      mstore\n      0x20\n      add\n      0x00\n      keccak256\n      0x00\n      swap1\n      sload\n      swap1\n      0x0100\n      exp\n      swap1\n      div\n      0xff\n      and\n        /* \"contracts/PatientDataManagement.sol\":2991:3090  _patient == msg.sender || accessPermissions[_patient][msg.sender] || emergencyAccessors[msg.sender] */\n    tag_47:\n        /* \"contracts/PatientDataManagement.sol\":2969:3139  require(... */\n      tag_48\n      jumpi\n      mload(0x40)\n      0x08c379a000000000000000000000000000000000000000000000000000000000\n      dup2\n      mstore\n      0x04\n      add\n      tag_49\n      swap1\n      tag_50\n      jump\t// in\n    tag_49:\n      mload(0x40)\n      dup1\n      swap2\n      sub\n      swap1\n      revert\n    tag_48:\n        /* \"contracts/PatientDataManagement.sol\":3157:3168  patientData */\n      0x00\n        /* \"contracts/PatientDataManagement.sol\":3157:3178  patientData[_patient] */\n      dup1\n        /* \"contracts/PatientDataManagement.sol\":3169:3177  _patient */\n      dup4\n        /* \"contracts/PatientDataManagement.sol\":3157:3178  patientData[_patient] */\n      0xffffffffffffffffffffffffffffffffffffffff\n      and\n      0xffffffffffffffffffffffffffffffffffffffff\n      and\n      dup2\n      mstore\n      0x20\n      add\n      swap1\n      dup2\n      mstore\n      0x20\n      add\n      0x00\n      keccak256\n        /* \"contracts/PatientDataManagement.sol\":3150:3178  return patientData[_patient] */\n      dup1\n      sload\n      dup1\n      0x20\n      mul\n      0x20\n      add\n      mload(0x40)\n      swap1\n      dup2\n      add\n      0x40\n      mstore\n      dup1\n      swap3\n      swap2\n      swap1\n      dup2\n      dup2\n      mstore\n      0x20\n      add\n      0x00\n      swap1\n    tag_51:\n      dup3\n      dup3\n      lt\n      iszero\n      tag_52\n      jumpi\n      dup4\n      dup3\n      swap1\n      0x00\n      mstore\n      keccak256(0x00, 0x20)\n      swap1\n      0x05\n      mul\n      add\n      mload(0x40)\n      dup1\n      0xa0\n      add\n      0x40\n      mstore\n      swap1\n      dup2\n      0x00\n      dup3\n      add\n      sload\n      dup2\n      mstore\n      0x20\n      add\n      0x01\n      dup3\n      add\n      sload\n      dup2\n      mstore\n      0x20\n      add\n      0x02\n      dup3\n      add\n      sload\n      dup2\n      mstore\n      0x20\n      add\n      0x03\n      dup3\n      add\n      sload\n      dup2\n      mstore\n      0x20\n      add\n      0x04\n      dup3\n      add\n      sload\n      dup2\n      mstore\n      pop\n      pop\n      dup2\n      mstore\n      0x20\n      add\n      swap1\n      0x01\n      add\n      swap1\n      jump(tag_51)\n    tag_52:\n      pop\n      pop\n      pop\n      pop\n      swap1\n      pop\n        /* \"contracts/PatientDataManagement.sol\":2874:3186  function viewHealthData(address _patient) public view returns (HealthData[] memory) {... */\n      swap2\n      swap1\n      pop\n      jump\t// out\n        /* \"contracts/PatientDataManagement.sol\":2270:2495  function updateAccess(address _accessor, bool _isGranted) public onlyPatient(msg.sender) {... */\n    tag_21:\n        /* \"contracts/PatientDataManagement.sol\":2347:2357  msg.sender */\n      caller\n        /* \"contracts/PatientDataManagement.sol\":1081:1091  msg.sender */\n      caller\n        /* \"contracts/PatientDataManagement.sol\":1069:1091  _patient == msg.sender */\n      0xffffffffffffffffffffffffffffffffffffffff\n      and\n        /* \"contracts/PatientDataManagement.sol\":1069:1077  _patient */\n      dup2\n        /* \"contracts/PatientDataManagement.sol\":1069:1091  _patient == msg.sender */\n      0xffffffffffffffffffffffffffffffffffffffff\n      and\n      eq\n        /* \"contracts/PatientDataManagement.sol\":1061:1136  require(_patient == msg.sender, \"Only the patient can perform this action\") */\n      tag_55\n      jumpi\n      mload(0x40)\n      0x08c379a000000000000000000000000000000000000000000000000000000000\n      dup2\n      mstore\n      0x04\n      add\n      tag_56\n      swap1\n      tag_57\n      jump\t// in\n    tag_56:\n      mload(0x40)\n      dup1\n      swap2\n      sub\n      swap1\n      revert\n    tag_55:\n        /* \"contracts/PatientDataManagement.sol\":2413:2423  _isGranted */\n      dup2\n        /* \"contracts/PatientDataManagement.sol\":2370:2387  accessPermissions */\n      0x01\n        /* \"contracts/PatientDataManagement.sol\":2370:2399  accessPermissions[msg.sender] */\n      0x00\n        /* \"contracts/PatientDataManagement.sol\":2388:2398  msg.sender */\n      caller\n        /* \"contracts/PatientDataManagement.sol\":2370:2399  accessPermissions[msg.sender] */\n      0xffffffffffffffffffffffffffffffffffffffff\n      and\n      0xffffffffffffffffffffffffffffffffffffffff\n      and\n      dup2\n      mstore\n      0x20\n      add\n      swap1\n      dup2\n      mstore\n      0x20\n      add\n      0x00\n      keccak256\n        /* \"contracts/PatientDataManagement.sol\":2370:2410  accessPermissions[msg.sender][_accessor] */\n      0x00\n        /* \"contracts/PatientDataManagement.sol\":2400:2409  _accessor */\n      dup6\n        /* \"contracts/PatientDataManagement.sol\":2370:2410  accessPermissions[msg.sender][_accessor] */\n      0xffffffffffffffffffffffffffffffffffffffff\n      and\n      0xffffffffffffffffffffffffffffffffffffffff\n      and\n      dup2\n      mstore\n      0x20\n      add\n      swap1\n      dup2\n      mstore\n      0x20\n      add\n      0x00\n      keccak256\n      0x00\n        /* \"contracts/PatientDataManagement.sol\":2370:2423  accessPermissions[msg.sender][_accessor] = _isGranted */\n      0x0100\n      exp\n      dup2\n      sload\n      dup2\n      0xff\n      mul\n      not\n      and\n      swap1\n      dup4\n      iszero\n      iszero\n      mul\n      or\n      swap1\n      sstore\n      pop\n        /* \"contracts/PatientDataManagement.sol\":2465:2474  _accessor */\n      dup3\n        /* \"contracts/PatientDataManagement.sol\":2439:2487  AccessUpdated(msg.sender, _accessor, _isGranted) */\n      0xffffffffffffffffffffffffffffffffffffffff\n      and\n        /* \"contracts/PatientDataManagement.sol\":2453:2463  msg.sender */\n      caller\n        /* \"contracts/PatientDataManagement.sol\":2439:2487  AccessUpdated(msg.sender, _accessor, _isGranted) */\n      0xffffffffffffffffffffffffffffffffffffffff\n      and\n      0x5b273ba4eb5db97af8506cc6e94cd82ed91395089a5c5012479f42b23d8248ee\n        /* \"contracts/PatientDataManagement.sol\":2476:2486  _isGranted */\n      dup5\n        /* \"contracts/PatientDataManagement.sol\":2439:2487  AccessUpdated(msg.sender, _accessor, _isGranted) */\n      mload(0x40)\n      tag_59\n      swap2\n      swap1\n      tag_60\n      jump\t// in\n    tag_59:\n      mload(0x40)\n      dup1\n      swap2\n      sub\n      swap1\n      log3\n        /* \"contracts/PatientDataManagement.sol\":2270:2495  function updateAccess(address _accessor, bool _isGranted) public onlyPatient(msg.sender) {... */\n      pop\n      pop\n      pop\n      jump\t// out\n        /* \"contracts/PatientDataManagement.sol\":1513:2262  function logHealthData(... */\n    tag_25:\n        /* \"contracts/PatientDataManagement.sol\":1688:1713  HealthData memory newData */\n      0x00\n        /* \"contracts/PatientDataManagement.sol\":1716:1946  HealthData({... */\n      mload(0x40)\n      dup1\n      0xa0\n      add\n      0x40\n      mstore\n      dup1\n        /* \"contracts/PatientDataManagement.sol\":1753:1768  block.timestamp */\n      timestamp\n        /* \"contracts/PatientDataManagement.sol\":1716:1946  HealthData({... */\n      dup2\n      mstore\n      0x20\n      add\n        /* \"contracts/PatientDataManagement.sol\":1797:1810  _glucoseLevel */\n      dup7\n        /* \"contracts/PatientDataManagement.sol\":1716:1946  HealthData({... */\n      dup2\n      mstore\n      0x20\n      add\n        /* \"contracts/PatientDataManagement.sol\":1841:1856  _medicationHash */\n      dup6\n        /* \"contracts/PatientDataManagement.sol\":1716:1946  HealthData({... */\n      dup2\n      mstore\n      0x20\n      add\n        /* \"contracts/PatientDataManagement.sol\":1882:1892  _mealsHash */\n      dup5\n        /* \"contracts/PatientDataManagement.sol\":1716:1946  HealthData({... */\n      dup2\n      mstore\n      0x20\n      add\n        /* \"contracts/PatientDataManagement.sol\":1921:1934  _exerciseHash */\n      dup4\n        /* \"contracts/PatientDataManagement.sol\":1716:1946  HealthData({... */\n      dup2\n      mstore\n      pop\n        /* \"contracts/PatientDataManagement.sol\":1688:1946  HealthData memory newData = HealthData({... */\n      swap1\n      pop\n        /* \"contracts/PatientDataManagement.sol\":1957:1968  patientData */\n      0x00\n        /* \"contracts/PatientDataManagement.sol\":1957:1980  patientData[msg.sender] */\n      dup1\n        /* \"contracts/PatientDataManagement.sol\":1969:1979  msg.sender */\n      caller\n        /* \"contracts/PatientDataManagement.sol\":1957:1980  patientData[msg.sender] */\n      0xffffffffffffffffffffffffffffffffffffffff\n      and\n      0xffffffffffffffffffffffffffffffffffffffff\n      and\n      dup2\n      mstore\n      0x20\n      add\n      swap1\n      dup2\n      mstore\n      0x20\n      add\n      0x00\n      keccak256\n        /* \"contracts/PatientDataManagement.sol\":1986:1993  newData */\n      dup2\n        /* \"contracts/PatientDataManagement.sol\":1957:1994  patientData[msg.sender].push(newData) */\n      swap1\n      dup1\n      0x01\n      dup2\n      sload\n      add\n      dup1\n      dup3\n      sstore\n      dup1\n      swap2\n      pop\n      pop\n      0x01\n      swap1\n      sub\n      swap1\n      0x00\n      mstore\n      keccak256(0x00, 0x20)\n      swap1\n      0x05\n      mul\n      add\n      0x00\n      swap1\n      swap2\n      swap1\n      swap2\n      swap1\n      swap2\n      pop\n      0x00\n      dup3\n      add\n      mload\n      dup2\n      0x00\n      add\n      sstore\n      0x20\n      dup3\n      add\n      mload\n      dup2\n      0x01\n      add\n      sstore\n      0x40\n      dup3\n      add\n      mload\n      dup2\n      0x02\n      add\n      sstore\n      0x60\n      dup3\n      add\n      mload\n      dup2\n      0x03\n      add\n      sstore\n      0x80\n      dup3\n      add\n      mload\n      dup2\n      0x04\n      add\n      sstore\n      pop\n      pop\n        /* \"contracts/PatientDataManagement.sol\":2013:2024  rewardToken */\n      0x03\n      0x00\n      swap1\n      sload\n      swap1\n      0x0100\n      exp\n      swap1\n      div\n      0xffffffffffffffffffffffffffffffffffffffff\n      and\n        /* \"contracts/PatientDataManagement.sol\":2013:2033  rewardToken.transfer */\n      0xffffffffffffffffffffffffffffffffffffffff\n      and\n      0xa9059cbb\n        /* \"contracts/PatientDataManagement.sol\":2034:2044  msg.sender */\n      caller\n        /* \"contracts/PatientDataManagement.sol\":2046:2058  rewardAmount */\n      sload(0x04)\n        /* \"contracts/PatientDataManagement.sol\":2013:2059  rewardToken.transfer(msg.sender, rewardAmount) */\n      mload(0x40)\n      dup4\n      0xffffffff\n      and\n      0xe0\n      shl\n      dup2\n      mstore\n      0x04\n      add\n      tag_63\n      swap3\n      swap2\n      swap1\n      tag_64\n      jump\t// in\n    tag_63:\n      0x20\n      mload(0x40)\n      dup1\n      dup4\n      sub\n      dup2\n      0x00\n      dup8\n      gas\n      call\n      iszero\n      dup1\n      iszero\n      tag_66\n      jumpi\n      returndatasize\n      0x00\n      dup1\n      returndatacopy\n      revert(0x00, returndatasize)\n    tag_66:\n      pop\n      pop\n      pop\n      pop\n      mload(0x40)\n      returndatasize\n      not(0x1f)\n      0x1f\n      dup3\n      add\n      and\n      dup3\n      add\n      dup1\n      0x40\n      mstore\n      pop\n      dup2\n      add\n      swap1\n      tag_67\n      swap2\n      swap1\n      tag_68\n      jump\t// in\n    tag_67:\n        /* \"contracts/PatientDataManagement.sol\":2005:2086  require(rewardToken.transfer(msg.sender, rewardAmount), \"Reward transfer failed\") */\n      tag_69\n      jumpi\n      mload(0x40)\n      0x08c379a000000000000000000000000000000000000000000000000000000000\n      dup2\n      mstore\n      0x04\n      add\n      tag_70\n      swap1\n      tag_71\n      jump\t// in\n    tag_70:\n      mload(0x40)\n      dup1\n      swap2\n      sub\n      swap1\n      revert\n    tag_69:\n        /* \"contracts/PatientDataManagement.sol\":2115:2125  msg.sender */\n      caller\n        /* \"contracts/PatientDataManagement.sol\":2102:2140  RewardIssued(msg.sender, rewardAmount) */\n      0xffffffffffffffffffffffffffffffffffffffff\n      and\n      0xf9b6ec770c96c3a6f9225bf3a8463a8ad03e884448af07b4ecd4d19d628946ee\n        /* \"contracts/PatientDataManagement.sol\":2127:2139  rewardAmount */\n      sload(0x04)\n        /* \"contracts/PatientDataManagement.sol\":2102:2140  RewardIssued(msg.sender, rewardAmount) */\n      mload(0x40)\n      tag_72\n      swap2\n      swap1\n      tag_34\n      jump\t// in\n    tag_72:\n      mload(0x40)\n      dup1\n      swap2\n      sub\n      swap1\n      log2\n        /* \"contracts/PatientDataManagement.sol\":2167:2177  msg.sender */\n      caller\n        /* \"contracts/PatientDataManagement.sol\":2156:2254  DataLogged(msg.sender, block.timestamp, _glucoseLevel, _medicationHash, _mealsHash, _exerciseHash) */\n      0xffffffffffffffffffffffffffffffffffffffff\n      and\n      0xe3b524e09af637da904f489285231e36fe28049d1739ea6147b9edbb73bfec78\n        /* \"contracts/PatientDataManagement.sol\":2179:2194  block.timestamp */\n      timestamp\n        /* \"contracts/PatientDataManagement.sol\":2196:2209  _glucoseLevel */\n      dup8\n        /* \"contracts/PatientDataManagement.sol\":2211:2226  _medicationHash */\n      dup8\n        /* \"contracts/PatientDataManagement.sol\":2228:2238  _mealsHash */\n      dup8\n        /* \"contracts/PatientDataManagement.sol\":2240:2253  _exerciseHash */\n      dup8\n        /* \"contracts/PatientDataManagement.sol\":2156:2254  DataLogged(msg.sender, block.timestamp, _glucoseLevel, _medicationHash, _mealsHash, _exerciseHash) */\n      mload(0x40)\n      tag_73\n      swap6\n      swap5\n      swap4\n      swap3\n      swap2\n      swap1\n      tag_74\n      jump\t// in\n    tag_73:\n      mload(0x40)\n      dup1\n      swap2\n      sub\n      swap1\n      log2\n        /* \"contracts/PatientDataManagement.sol\":1677:2262  {... */\n      pop\n        /* \"contracts/PatientDataManagement.sol\":1513:2262  function logHealthData(... */\n      pop\n      pop\n      pop\n      pop\n      jump\t// out\n        /* \"contracts/PatientDataManagement.sol\":2687:2866  function revokeEmergencyAccess(address _accessor) public onlyOwner {... */\n    tag_28:\n        /* \"contracts/PatientDataManagement.sol\":1218:1223  owner */\n      0x05\n      0x00\n      swap1\n      sload\n      swap1\n      0x0100\n      exp\n      swap1\n      div\n      0xffffffffffffffffffffffffffffffffffffffff\n      and\n        /* \"contracts/PatientDataManagement.sol\":1204:1223  msg.sender == owner */\n      0xffffffffffffffffffffffffffffffffffffffff\n      and\n        /* \"contracts/PatientDataManagement.sol\":1204:1214  msg.sender */\n      caller\n        /* \"contracts/PatientDataManagement.sol\":1204:1223  msg.sender == owner */\n      0xffffffffffffffffffffffffffffffffffffffff\n      and\n      eq\n        /* \"contracts/PatientDataManagement.sol\":1196:1266  require(msg.sender == owner, \"Only the owner can perform this action\") */\n      tag_76\n      jumpi\n      mload(0x40)\n      0x08c379a000000000000000000000000000000000000000000000000000000000\n      dup2\n      mstore\n      0x04\n      add\n      tag_77\n      swap1\n      tag_78\n      jump\t// in\n    tag_77:\n      mload(0x40)\n      dup1\n      swap2\n      sub\n      swap1\n      revert\n    tag_76:\n        /* \"contracts/PatientDataManagement.sol\":2797:2802  false */\n      0x00\n        /* \"contracts/PatientDataManagement.sol\":2765:2783  emergencyAccessors */\n      0x02\n        /* \"contracts/PatientDataManagement.sol\":2765:2794  emergencyAccessors[_accessor] */\n      0x00\n        /* \"contracts/PatientDataManagement.sol\":2784:2793  _accessor */\n      dup4\n        /* \"contracts/PatientDataManagement.sol\":2765:2794  emergencyAccessors[_accessor] */\n      0xffffffffffffffffffffffffffffffffffffffff\n      and\n      0xffffffffffffffffffffffffffffffffffffffff\n      and\n      dup2\n      mstore\n      0x20\n      add\n      swap1\n      dup2\n      mstore\n      0x20\n      add\n      0x00\n      keccak256\n      0x00\n        /* \"contracts/PatientDataManagement.sol\":2765:2802  emergencyAccessors[_accessor] = false */\n      0x0100\n      exp\n      dup2\n      sload\n      dup2\n      0xff\n      mul\n      not\n      and\n      swap1\n      dup4\n      iszero\n      iszero\n      mul\n      or\n      swap1\n      sstore\n      pop\n        /* \"contracts/PatientDataManagement.sol\":2841:2850  _accessor */\n      dup1\n        /* \"contracts/PatientDataManagement.sol\":2818:2858  EmergencyAccessUpdated(_accessor, false) */\n      0xffffffffffffffffffffffffffffffffffffffff\n      and\n      0x1f3dde93c44f27a9f416923b22c0dcd76b3ef122dbe77b19fc161a9dc0f2f100\n        /* \"contracts/PatientDataManagement.sol\":2852:2857  false */\n      0x00\n        /* \"contracts/PatientDataManagement.sol\":2818:2858  EmergencyAccessUpdated(_accessor, false) */\n      mload(0x40)\n      tag_80\n      swap2\n      swap1\n      tag_60\n      jump\t// in\n    tag_80:\n      mload(0x40)\n      dup1\n      swap2\n      sub\n      swap1\n      log2\n        /* \"contracts/PatientDataManagement.sol\":2687:2866  function revokeEmergencyAccess(address _accessor) public onlyOwner {... */\n      pop\n      jump\t// out\n        /* \"contracts/PatientDataManagement.sol\":3510:4239  function getAverageGlucoseLevel(address _patient, uint256 _startTime, uint256 _endTime) public view returns (uint256) {... */\n    tag_32:\n        /* \"contracts/PatientDataManagement.sol\":3619:3626  uint256 */\n      0x00\n        /* \"contracts/PatientDataManagement.sol\":3673:3683  msg.sender */\n      caller\n        /* \"contracts/PatientDataManagement.sol\":3661:3683  _patient == msg.sender */\n      0xffffffffffffffffffffffffffffffffffffffff\n      and\n        /* \"contracts/PatientDataManagement.sol\":3661:3669  _patient */\n      dup5\n        /* \"contracts/PatientDataManagement.sol\":3661:3683  _patient == msg.sender */\n      0xffffffffffffffffffffffffffffffffffffffff\n      and\n      eq\n        /* \"contracts/PatientDataManagement.sol\":3661:3726  _patient == msg.sender || accessPermissions[_patient][msg.sender] */\n      dup1\n      tag_82\n      jumpi\n      pop\n        /* \"contracts/PatientDataManagement.sol\":3687:3704  accessPermissions */\n      0x01\n        /* \"contracts/PatientDataManagement.sol\":3687:3714  accessPermissions[_patient] */\n      0x00\n        /* \"contracts/PatientDataManagement.sol\":3705:3713  _patient */\n      dup6\n        /* \"contracts/PatientDataManagement.sol\":3687:3714  accessPermissions[_patient] */\n      0xffffffffffffffffffffffffffffffffffffffff\n      and\n      0xffffffffffffffffffffffffffffffffffffffff\n      and\n      dup2\n      mstore\n      0x20\n      add\n      swap1\n      dup2\n      mstore\n      0x20\n      add\n      0x00\n      keccak256\n        /* \"contracts/PatientDataManagement.sol\":3687:3726  accessPermissions[_patient][msg.sender] */\n      0x00\n        /* \"contracts/PatientDataManagement.sol\":3715:3725  msg.sender */\n      caller\n        /* \"contracts/PatientDataManagement.sol\":3687:3726  accessPermissions[_patient][msg.sender] */\n      0xffffffffffffffffffffffffffffffffffffffff\n      and\n      0xffffffffffffffffffffffffffffffffffffffff\n      and\n      dup2\n      mstore\n      0x20\n      add\n      swap1\n      dup2\n      mstore\n      0x20\n      add\n      0x00\n      keccak256\n      0x00\n      swap1\n      sload\n      swap1\n      0x0100\n      exp\n      swap1\n      div\n      0xff\n      and\n        /* \"contracts/PatientDataManagement.sol\":3661:3726  _patient == msg.sender || accessPermissions[_patient][msg.sender] */\n    tag_82:\n        /* \"contracts/PatientDataManagement.sol\":3639:3775  require(... */\n      tag_83\n      jumpi\n      mload(0x40)\n      0x08c379a000000000000000000000000000000000000000000000000000000000\n      dup2\n      mstore\n      0x04\n      add\n      tag_84\n      swap1\n      tag_50\n      jump\t// in\n    tag_84:\n      mload(0x40)\n      dup1\n      swap2\n      sub\n      swap1\n      revert\n    tag_83:\n        /* \"contracts/PatientDataManagement.sol\":3786:3799  uint256 total */\n      0x00\n        /* \"contracts/PatientDataManagement.sol\":3814:3827  uint256 count */\n      dup1\n        /* \"contracts/PatientDataManagement.sol\":3847:3856  uint256 i */\n      0x00\n        /* \"contracts/PatientDataManagement.sol\":3842:4138  for (uint256 i = 0; i < patientData[_patient].length; i++) {... */\n    tag_85:\n        /* \"contracts/PatientDataManagement.sol\":3866:3877  patientData */\n      0x00\n        /* \"contracts/PatientDataManagement.sol\":3866:3887  patientData[_patient] */\n      dup1\n        /* \"contracts/PatientDataManagement.sol\":3878:3886  _patient */\n      dup9\n        /* \"contracts/PatientDataManagement.sol\":3866:3887  patientData[_patient] */\n      0xffffffffffffffffffffffffffffffffffffffff\n      and\n      0xffffffffffffffffffffffffffffffffffffffff\n      and\n      dup2\n      mstore\n      0x20\n      add\n      swap1\n      dup2\n      mstore\n      0x20\n      add\n      0x00\n      keccak256\n        /* \"contracts/PatientDataManagement.sol\":3866:3894  patientData[_patient].length */\n      dup1\n      sload\n      swap1\n      pop\n        /* \"contracts/PatientDataManagement.sol\":3862:3863  i */\n      dup2\n        /* \"contracts/PatientDataManagement.sol\":3862:3894  i < patientData[_patient].length */\n      lt\n        /* \"contracts/PatientDataManagement.sol\":3842:4138  for (uint256 i = 0; i < patientData[_patient].length; i++) {... */\n      iszero\n      tag_86\n      jumpi\n        /* \"contracts/PatientDataManagement.sol\":3958:3968  _startTime */\n      dup6\n        /* \"contracts/PatientDataManagement.sol\":3920:3931  patientData */\n      0x00\n        /* \"contracts/PatientDataManagement.sol\":3920:3941  patientData[_patient] */\n      dup1\n        /* \"contracts/PatientDataManagement.sol\":3932:3940  _patient */\n      dup10\n        /* \"contracts/PatientDataManagement.sol\":3920:3941  patientData[_patient] */\n      0xffffffffffffffffffffffffffffffffffffffff\n      and\n      0xffffffffffffffffffffffffffffffffffffffff\n      and\n      dup2\n      mstore\n      0x20\n      add\n      swap1\n      dup2\n      mstore\n      0x20\n      add\n      0x00\n      keccak256\n        /* \"contracts/PatientDataManagement.sol\":3942:3943  i */\n      dup3\n        /* \"contracts/PatientDataManagement.sol\":3920:3944  patientData[_patient][i] */\n      dup2\n      sload\n      dup2\n      lt\n      tag_88\n      jumpi\n      tag_89\n      tag_90\n      jump\t// in\n    tag_89:\n    tag_88:\n      swap1\n      0x00\n      mstore\n      keccak256(0x00, 0x20)\n      swap1\n      0x05\n      mul\n      add\n        /* \"contracts/PatientDataManagement.sol\":3920:3954  patientData[_patient][i].timestamp */\n      0x00\n      add\n      sload\n        /* \"contracts/PatientDataManagement.sol\":3920:3968  patientData[_patient][i].timestamp >= _startTime */\n      lt\n      iszero\n        /* \"contracts/PatientDataManagement.sol\":3920:4018  patientData[_patient][i].timestamp >= _startTime && patientData[_patient][i].timestamp <= _endTime */\n      dup1\n      iszero\n      tag_92\n      jumpi\n      pop\n        /* \"contracts/PatientDataManagement.sol\":4010:4018  _endTime */\n      dup5\n        /* \"contracts/PatientDataManagement.sol\":3972:3983  patientData */\n      0x00\n        /* \"contracts/PatientDataManagement.sol\":3972:3993  patientData[_patient] */\n      dup1\n        /* \"contracts/PatientDataManagement.sol\":3984:3992  _patient */\n      dup10\n        /* \"contracts/PatientDataManagement.sol\":3972:3993  patientData[_patient] */\n      0xffffffffffffffffffffffffffffffffffffffff\n      and\n      0xffffffffffffffffffffffffffffffffffffffff\n      and\n      dup2\n      mstore\n      0x20\n      add\n      swap1\n      dup2\n      mstore\n      0x20\n      add\n      0x00\n      keccak256\n        /* \"contracts/PatientDataManagement.sol\":3994:3995  i */\n      dup3\n        /* \"contracts/PatientDataManagement.sol\":3972:3996  patientData[_patient][i] */\n      dup2\n      sload\n      dup2\n      lt\n      tag_93\n      jumpi\n      tag_94\n      tag_90\n      jump\t// in\n    tag_94:\n    tag_93:\n      swap1\n      0x00\n      mstore\n      keccak256(0x00, 0x20)\n      swap1\n      0x05\n      mul\n      add\n        /* \"contracts/PatientDataManagement.sol\":3972:4006  patientData[_patient][i].timestamp */\n      0x00\n      add\n      sload\n        /* \"contracts/PatientDataManagement.sol\":3972:4018  patientData[_patient][i].timestamp <= _endTime */\n      gt\n      iszero\n        /* \"contracts/PatientDataManagement.sol\":3920:4018  patientData[_patient][i].timestamp >= _startTime && patientData[_patient][i].timestamp <= _endTime */\n    tag_92:\n        /* \"contracts/PatientDataManagement.sol\":3916:4127  if (patientData[_patient][i].timestamp >= _startTime && patientData[_patient][i].timestamp <= _endTime) {... */\n      iszero\n      tag_96\n      jumpi\n        /* \"contracts/PatientDataManagement.sol\":4048:4059  patientData */\n      0x00\n        /* \"contracts/PatientDataManagement.sol\":4048:4069  patientData[_patient] */\n      dup1\n        /* \"contracts/PatientDataManagement.sol\":4060:4068  _patient */\n      dup9\n        /* \"contracts/PatientDataManagement.sol\":4048:4069  patientData[_patient] */\n      0xffffffffffffffffffffffffffffffffffffffff\n      and\n      0xffffffffffffffffffffffffffffffffffffffff\n      and\n      dup2\n      mstore\n      0x20\n      add\n      swap1\n      dup2\n      mstore\n      0x20\n      add\n      0x00\n      keccak256\n        /* \"contracts/PatientDataManagement.sol\":4070:4071  i */\n      dup2\n        /* \"contracts/PatientDataManagement.sol\":4048:4072  patientData[_patient][i] */\n      dup2\n      sload\n      dup2\n      lt\n      tag_97\n      jumpi\n      tag_98\n      tag_90\n      jump\t// in\n    tag_98:\n    tag_97:\n      swap1\n      0x00\n      mstore\n      keccak256(0x00, 0x20)\n      swap1\n      0x05\n      mul\n      add\n        /* \"contracts/PatientDataManagement.sol\":4048:4085  patientData[_patient][i].glucoseLevel */\n      0x01\n      add\n      sload\n        /* \"contracts/PatientDataManagement.sol\":4039:4085  total += patientData[_patient][i].glucoseLevel */\n      dup4\n      tag_100\n      swap2\n      swap1\n      tag_101\n      jump\t// in\n    tag_100:\n      swap3\n      pop\n        /* \"contracts/PatientDataManagement.sol\":4104:4111  count++ */\n      dup2\n      dup1\n      tag_102\n      swap1\n      tag_103\n      jump\t// in\n    tag_102:\n      swap3\n      pop\n      pop\n        /* \"contracts/PatientDataManagement.sol\":3916:4127  if (patientData[_patient][i].timestamp >= _startTime && patientData[_patient][i].timestamp <= _endTime) {... */\n    tag_96:\n        /* \"contracts/PatientDataManagement.sol\":3896:3899  i++ */\n      dup1\n      dup1\n      0x01\n      add\n      swap2\n      pop\n      pop\n        /* \"contracts/PatientDataManagement.sol\":3842:4138  for (uint256 i = 0; i < patientData[_patient].length; i++) {... */\n      jump(tag_85)\n    tag_86:\n      pop\n        /* \"contracts/PatientDataManagement.sol\":4164:4165  0 */\n      0x00\n        /* \"contracts/PatientDataManagement.sol\":4156:4161  count */\n      dup2\n        /* \"contracts/PatientDataManagement.sol\":4156:4165  count > 0 */\n      gt\n        /* \"contracts/PatientDataManagement.sol\":4148:4200  require(count > 0, \"No data in the specified range\") */\n      tag_104\n      jumpi\n      mload(0x40)\n      0x08c379a000000000000000000000000000000000000000000000000000000000\n      dup2\n      mstore\n      0x04\n      add\n      tag_105\n      swap1\n      tag_106\n      jump\t// in\n    tag_105:\n      mload(0x40)\n      dup1\n      swap2\n      sub\n      swap1\n      revert\n    tag_104:\n        /* \"contracts/PatientDataManagement.sol\":4226:4231  count */\n      dup1\n        /* \"contracts/PatientDataManagement.sol\":4218:4223  total */\n      dup3\n        /* \"contracts/PatientDataManagement.sol\":4218:4231  total / count */\n      tag_107\n      swap2\n      swap1\n      tag_108\n      jump\t// in\n    tag_107:\n        /* \"contracts/PatientDataManagement.sol\":4211:4231  return total / count */\n      swap3\n      pop\n      pop\n      pop\n        /* \"contracts/PatientDataManagement.sol\":3510:4239  function getAverageGlucoseLevel(address _patient, uint256 _startTime, uint256 _endTime) public view returns (uint256) {... */\n      swap4\n      swap3\n      pop\n      pop\n      pop\n      jump\t// out\n        /* \"contracts/PatientDataManagement.sol\":3384:3502  function setRewardAmount(uint256 _newRewardAmount) public onlyOwner {... */\n    tag_38:\n        /* \"contracts/PatientDataManagement.sol\":1218:1223  owner */\n      0x05\n      0x00\n      swap1\n      sload\n      swap1\n      0x0100\n      exp\n      swap1\n      div\n      0xffffffffffffffffffffffffffffffffffffffff\n      and\n        /* \"contracts/PatientDataManagement.sol\":1204:1223  msg.sender == owner */\n      0xffffffffffffffffffffffffffffffffffffffff\n      and\n        /* \"contracts/PatientDataManagement.sol\":1204:1214  msg.sender */\n      caller\n        /* \"contracts/PatientDataManagement.sol\":1204:1223  msg.sender == owner */\n      0xffffffffffffffffffffffffffffffffffffffff\n      and\n      eq\n        /* \"contracts/PatientDataManagement.sol\":1196:1266  require(msg.sender == owner, \"Only the owner can perform this action\") */\n      tag_110\n      jumpi\n      mload(0x40)\n      0x08c379a000000000000000000000000000000000000000000000000000000000\n      dup2\n      mstore\n      0x04\n      add\n      tag_111\n      swap1\n      tag_78\n      jump\t// in\n    tag_111:\n      mload(0x40)\n      dup1\n      swap2\n      sub\n      swap1\n      revert\n    tag_110:\n        /* \"contracts/PatientDataManagement.sol\":3478:3494  _newRewardAmount */\n      dup1\n        /* \"contracts/PatientDataManagement.sol\":3463:3475  rewardAmount */\n      0x04\n        /* \"contracts/PatientDataManagement.sol\":3463:3494  rewardAmount = _newRewardAmount */\n      dup2\n      swap1\n      sstore\n      pop\n        /* \"contracts/PatientDataManagement.sol\":3384:3502  function setRewardAmount(uint256 _newRewardAmount) public onlyOwner {... */\n      pop\n      jump\t// out\n        /* \"contracts/PatientDataManagement.sol\":2503:2679  function grantEmergencyAccess(address _accessor) public onlyOwner {... */\n    tag_41:\n        /* \"contracts/PatientDataManagement.sol\":1218:1223  owner */\n      0x05\n      0x00\n      swap1\n      sload\n      swap1\n      0x0100\n      exp\n      swap1\n      div\n      0xffffffffffffffffffffffffffffffffffffffff\n      and\n        /* \"contracts/PatientDataManagement.sol\":1204:1223  msg.sender == owner */\n      0xffffffffffffffffffffffffffffffffffffffff\n      and\n        /* \"contracts/PatientDataManagement.sol\":1204:1214  msg.sender */\n      caller\n        /* \"contracts/PatientDataManagement.sol\":1204:1223  msg.sender == owner */\n      0xffffffffffffffffffffffffffffffffffffffff\n      and\n      eq\n        /* \"contracts/PatientDataManagement.sol\":1196:1266  require(msg.sender == owner, \"Only the owner can perform this action\") */\n      tag_114\n      jumpi\n      mload(0x40)\n      0x08c379a000000000000000000000000000000000000000000000000000000000\n      dup2\n      mstore\n      0x04\n      add\n      tag_115\n      swap1\n      tag_78\n      jump\t// in\n    tag_115:\n      mload(0x40)\n      dup1\n      swap2\n      sub\n      swap1\n      revert\n    tag_114:\n        /* \"contracts/PatientDataManagement.sol\":2612:2616  true */\n      0x01\n        /* \"contracts/PatientDataManagement.sol\":2580:2598  emergencyAccessors */\n      0x02\n        /* \"contracts/PatientDataManagement.sol\":2580:2609  emergencyAccessors[_accessor] */\n      0x00\n        /* \"contracts/PatientDataManagement.sol\":2599:2608  _accessor */\n      dup4\n        /* \"contracts/PatientDataManagement.sol\":2580:2609  emergencyAccessors[_accessor] */\n      0xffffffffffffffffffffffffffffffffffffffff\n      and\n      0xffffffffffffffffffffffffffffffffffffffff\n      and\n      dup2\n      mstore\n      0x20\n      add\n      swap1\n      dup2\n      mstore\n      0x20\n      add\n      0x00\n      keccak256\n      0x00\n        /* \"contracts/PatientDataManagement.sol\":2580:2616  emergencyAccessors[_accessor] = true */\n      0x0100\n      exp\n      dup2\n      sload\n      dup2\n      0xff\n      mul\n      not\n      and\n      swap1\n      dup4\n      iszero\n      iszero\n      mul\n      or\n      swap1\n      sstore\n      pop\n        /* \"contracts/PatientDataManagement.sol\":2655:2664  _accessor */\n      dup1\n        /* \"contracts/PatientDataManagement.sol\":2632:2671  EmergencyAccessUpdated(_accessor, true) */\n      0xffffffffffffffffffffffffffffffffffffffff\n      and\n      0x1f3dde93c44f27a9f416923b22c0dcd76b3ef122dbe77b19fc161a9dc0f2f100\n        /* \"contracts/PatientDataManagement.sol\":2666:2670  true */\n      0x01\n        /* \"contracts/PatientDataManagement.sol\":2632:2671  EmergencyAccessUpdated(_accessor, true) */\n      mload(0x40)\n      tag_117\n      swap2\n      swap1\n      tag_60\n      jump\t// in\n    tag_117:\n      mload(0x40)\n      dup1\n      swap2\n      sub\n      swap1\n      log2\n        /* \"contracts/PatientDataManagement.sol\":2503:2679  function grantEmergencyAccess(address _accessor) public onlyOwner {... */\n      pop\n      jump\t// out\n        /* \"contracts/PatientDataManagement.sol\":3194:3376  function deleteHealthData(uint256 _index) public {... */\n    tag_44:\n        /* \"contracts/PatientDataManagement.sol\":3271:3282  patientData */\n      0x00\n        /* \"contracts/PatientDataManagement.sol\":3271:3294  patientData[msg.sender] */\n      dup1\n        /* \"contracts/PatientDataManagement.sol\":3283:3293  msg.sender */\n      caller\n        /* \"contracts/PatientDataManagement.sol\":3271:3294  patientData[msg.sender] */\n      0xffffffffffffffffffffffffffffffffffffffff\n      and\n      0xffffffffffffffffffffffffffffffffffffffff\n      and\n      dup2\n      mstore\n      0x20\n      add\n      swap1\n      dup2\n      mstore\n      0x20\n      add\n      0x00\n      keccak256\n        /* \"contracts/PatientDataManagement.sol\":3271:3301  patientData[msg.sender].length */\n      dup1\n      sload\n      swap1\n      pop\n        /* \"contracts/PatientDataManagement.sol\":3262:3268  _index */\n      dup2\n        /* \"contracts/PatientDataManagement.sol\":3262:3301  _index < patientData[msg.sender].length */\n      lt\n        /* \"contracts/PatientDataManagement.sol\":3254:3319  require(_index < patientData[msg.sender].length, \"Invalid index\") */\n      tag_119\n      jumpi\n      mload(0x40)\n      0x08c379a000000000000000000000000000000000000000000000000000000000\n      dup2\n      mstore\n      0x04\n      add\n      tag_120\n      swap1\n      tag_121\n      jump\t// in\n    tag_120:\n      mload(0x40)\n      dup1\n      swap2\n      sub\n      swap1\n      revert\n    tag_119:\n        /* \"contracts/PatientDataManagement.sol\":3337:3348  patientData */\n      0x00\n        /* \"contracts/PatientDataManagement.sol\":3337:3360  patientData[msg.sender] */\n      dup1\n        /* \"contracts/PatientDataManagement.sol\":3349:3359  msg.sender */\n      caller\n        /* \"contracts/PatientDataManagement.sol\":3337:3360  patientData[msg.sender] */\n      0xffffffffffffffffffffffffffffffffffffffff\n      and\n      0xffffffffffffffffffffffffffffffffffffffff\n      and\n      dup2\n      mstore\n      0x20\n      add\n      swap1\n      dup2\n      mstore\n      0x20\n      add\n      0x00\n      keccak256\n        /* \"contracts/PatientDataManagement.sol\":3361:3367  _index */\n      dup2\n        /* \"contracts/PatientDataManagement.sol\":3337:3368  patientData[msg.sender][_index] */\n      dup2\n      sload\n      dup2\n      lt\n      tag_122\n      jumpi\n      tag_123\n      tag_90\n      jump\t// in\n    tag_123:\n    tag_122:\n      swap1\n      0x00\n      mstore\n      keccak256(0x00, 0x20)\n      swap1\n      0x05\n      mul\n      add\n      0x00\n        /* \"contracts/PatientDataManagement.sol\":3330:3368  delete patientData[msg.sender][_index] */\n      dup1\n      dup3\n      add\n      0x00\n      swap1\n      sstore\n      0x01\n      dup3\n      add\n      0x00\n      swap1\n      sstore\n      0x02\n      dup3\n      add\n      0x00\n      swap1\n      sstore\n      0x03\n      dup3\n      add\n      0x00\n      swap1\n      sstore\n      0x04\n      dup3\n      add\n      0x00\n      swap1\n      sstore\n      pop\n      pop\n        /* \"contracts/PatientDataManagement.sol\":3194:3376  function deleteHealthData(uint256 _index) public {... */\n      pop\n      jump\t// out\n        /* \"#utility.yul\":88:205   */\n    tag_126:\n        /* \"#utility.yul\":197:198   */\n      0x00\n        /* \"#utility.yul\":194:195   */\n      dup1\n        /* \"#utility.yul\":187:199   */\n      revert\n        /* \"#utility.yul\":334:460   */\n    tag_128:\n        /* \"#utility.yul\":371:378   */\n      0x00\n        /* \"#utility.yul\":411:453   */\n      0xffffffffffffffffffffffffffffffffffffffff\n        /* \"#utility.yul\":404:409   */\n      dup3\n        /* \"#utility.yul\":400:454   */\n      and\n        /* \"#utility.yul\":389:454   */\n      swap1\n      pop\n        /* \"#utility.yul\":334:460   */\n      swap2\n      swap1\n      pop\n      jump\t// out\n        /* \"#utility.yul\":466:562   */\n    tag_129:\n        /* \"#utility.yul\":503:510   */\n      0x00\n        /* \"#utility.yul\":532:556   */\n      tag_176\n        /* \"#utility.yul\":550:555   */\n      dup3\n        /* \"#utility.yul\":532:556   */\n      tag_128\n      jump\t// in\n    tag_176:\n        /* \"#utility.yul\":521:556   */\n      swap1\n      pop\n        /* \"#utility.yul\":466:562   */\n      swap2\n      swap1\n      pop\n      jump\t// out\n        /* \"#utility.yul\":568:690   */\n    tag_130:\n        /* \"#utility.yul\":641:665   */\n      tag_178\n        /* \"#utility.yul\":659:664   */\n      dup2\n        /* \"#utility.yul\":641:665   */\n      tag_129\n      jump\t// in\n    tag_178:\n        /* \"#utility.yul\":634:639   */\n      dup2\n        /* \"#utility.yul\":631:666   */\n      eq\n        /* \"#utility.yul\":621:684   */\n      tag_179\n      jumpi\n        /* \"#utility.yul\":680:681   */\n      0x00\n        /* \"#utility.yul\":677:678   */\n      dup1\n        /* \"#utility.yul\":670:682   */\n      revert\n        /* \"#utility.yul\":621:684   */\n    tag_179:\n        /* \"#utility.yul\":568:690   */\n      pop\n      jump\t// out\n        /* \"#utility.yul\":696:835   */\n    tag_131:\n        /* \"#utility.yul\":742:747   */\n      0x00\n        /* \"#utility.yul\":780:786   */\n      dup2\n        /* \"#utility.yul\":767:787   */\n      calldataload\n        /* \"#utility.yul\":758:787   */\n      swap1\n      pop\n        /* \"#utility.yul\":796:829   */\n      tag_181\n        /* \"#utility.yul\":823:828   */\n      dup2\n        /* \"#utility.yul\":796:829   */\n      tag_130\n      jump\t// in\n    tag_181:\n        /* \"#utility.yul\":696:835   */\n      swap3\n      swap2\n      pop\n      pop\n      jump\t// out\n        /* \"#utility.yul\":841:1170   */\n    tag_14:\n        /* \"#utility.yul\":900:906   */\n      0x00\n        /* \"#utility.yul\":949:951   */\n      0x20\n        /* \"#utility.yul\":937:946   */\n      dup3\n        /* \"#utility.yul\":928:935   */\n      dup5\n        /* \"#utility.yul\":924:947   */\n      sub\n        /* \"#utility.yul\":920:952   */\n      slt\n        /* \"#utility.yul\":917:1036   */\n      iszero\n      tag_183\n      jumpi\n        /* \"#utility.yul\":955:1034   */\n      tag_184\n      tag_126\n      jump\t// in\n    tag_184:\n        /* \"#utility.yul\":917:1036   */\n    tag_183:\n        /* \"#utility.yul\":1075:1076   */\n      0x00\n        /* \"#utility.yul\":1100:1153   */\n      tag_185\n        /* \"#utility.yul\":1145:1152   */\n      dup5\n        /* \"#utility.yul\":1136:1142   */\n      dup3\n        /* \"#utility.yul\":1125:1134   */\n      dup6\n        /* \"#utility.yul\":1121:1143   */\n      add\n        /* \"#utility.yul\":1100:1153   */\n      tag_131\n      jump\t// in\n    tag_185:\n        /* \"#utility.yul\":1090:1153   */\n      swap2\n      pop\n        /* \"#utility.yul\":1046:1163   */\n      pop\n        /* \"#utility.yul\":841:1170   */\n      swap3\n      swap2\n      pop\n      pop\n      jump\t// out\n        /* \"#utility.yul\":1176:1317   */\n    tag_132:\n        /* \"#utility.yul\":1270:1276   */\n      0x00\n        /* \"#utility.yul\":1304:1309   */\n      dup2\n        /* \"#utility.yul\":1298:1310   */\n      mload\n        /* \"#utility.yul\":1288:1310   */\n      swap1\n      pop\n        /* \"#utility.yul\":1176:1317   */\n      swap2\n      swap1\n      pop\n      jump\t// out\n        /* \"#utility.yul\":1323:1534   */\n    tag_133:\n        /* \"#utility.yul\":1449:1460   */\n      0x00\n        /* \"#utility.yul\":1483:1489   */\n      dup3\n        /* \"#utility.yul\":1478:1481   */\n      dup3\n        /* \"#utility.yul\":1471:1490   */\n      mstore\n        /* \"#utility.yul\":1523:1527   */\n      0x20\n        /* \"#utility.yul\":1518:1521   */\n      dup3\n        /* \"#utility.yul\":1514:1528   */\n      add\n        /* \"#utility.yul\":1499:1528   */\n      swap1\n      pop\n        /* \"#utility.yul\":1323:1534   */\n      swap3\n      swap2\n      pop\n      pop\n      jump\t// out\n        /* \"#utility.yul\":1540:1699   */\n    tag_134:\n        /* \"#utility.yul\":1634:1638   */\n      0x00\n        /* \"#utility.yul\":1657:1660   */\n      dup2\n        /* \"#utility.yul\":1649:1660   */\n      swap1\n      pop\n        /* \"#utility.yul\":1687:1691   */\n      0x20\n        /* \"#utility.yul\":1682:1685   */\n      dup3\n        /* \"#utility.yul\":1678:1692   */\n      add\n        /* \"#utility.yul\":1670:1692   */\n      swap1\n      pop\n        /* \"#utility.yul\":1540:1699   */\n      swap2\n      swap1\n      pop\n      jump\t// out\n        /* \"#utility.yul\":1705:1782   */\n    tag_135:\n        /* \"#utility.yul\":1742:1749   */\n      0x00\n        /* \"#utility.yul\":1771:1776   */\n      dup2\n        /* \"#utility.yul\":1760:1776   */\n      swap1\n      pop\n        /* \"#utility.yul\":1705:1782   */\n      swap2\n      swap1\n      pop\n      jump\t// out\n        /* \"#utility.yul\":1788:1896   */\n    tag_136:\n        /* \"#utility.yul\":1865:1889   */\n      tag_191\n        /* \"#utility.yul\":1883:1888   */\n      dup2\n        /* \"#utility.yul\":1865:1889   */\n      tag_135\n      jump\t// in\n    tag_191:\n        /* \"#utility.yul\":1860:1863   */\n      dup3\n        /* \"#utility.yul\":1853:1890   */\n      mstore\n        /* \"#utility.yul\":1788:1896   */\n      pop\n      pop\n      jump\t// out\n        /* \"#utility.yul\":1902:1979   */\n    tag_137:\n        /* \"#utility.yul\":1939:1946   */\n      0x00\n        /* \"#utility.yul\":1968:1973   */\n      dup2\n        /* \"#utility.yul\":1957:1973   */\n      swap1\n      pop\n        /* \"#utility.yul\":1902:1979   */\n      swap2\n      swap1\n      pop\n      jump\t// out\n        /* \"#utility.yul\":1985:2093   */\n    tag_138:\n        /* \"#utility.yul\":2062:2086   */\n      tag_194\n        /* \"#utility.yul\":2080:2085   */\n      dup2\n        /* \"#utility.yul\":2062:2086   */\n      tag_137\n      jump\t// in\n    tag_194:\n        /* \"#utility.yul\":2057:2060   */\n      dup3\n        /* \"#utility.yul\":2050:2087   */\n      mstore\n        /* \"#utility.yul\":1985:2093   */\n      pop\n      pop\n      jump\t// out\n        /* \"#utility.yul\":2189:3248   */\n    tag_139:\n        /* \"#utility.yul\":2330:2334   */\n      0xa0\n        /* \"#utility.yul\":2325:2328   */\n      dup3\n        /* \"#utility.yul\":2321:2335   */\n      add\n        /* \"#utility.yul\":2422:2426   */\n      0x00\n        /* \"#utility.yul\":2415:2420   */\n      dup3\n        /* \"#utility.yul\":2411:2427   */\n      add\n        /* \"#utility.yul\":2405:2428   */\n      mload\n        /* \"#utility.yul\":2441:2504   */\n      tag_196\n        /* \"#utility.yul\":2498:2502   */\n      0x00\n        /* \"#utility.yul\":2493:2496   */\n      dup6\n        /* \"#utility.yul\":2489:2503   */\n      add\n        /* \"#utility.yul\":2475:2487   */\n      dup3\n        /* \"#utility.yul\":2441:2504   */\n      tag_136\n      jump\t// in\n    tag_196:\n        /* \"#utility.yul\":2345:2514   */\n      pop\n        /* \"#utility.yul\":2604:2608   */\n      0x20\n        /* \"#utility.yul\":2597:2602   */\n      dup3\n        /* \"#utility.yul\":2593:2609   */\n      add\n        /* \"#utility.yul\":2587:2610   */\n      mload\n        /* \"#utility.yul\":2623:2686   */\n      tag_197\n        /* \"#utility.yul\":2680:2684   */\n      0x20\n        /* \"#utility.yul\":2675:2678   */\n      dup6\n        /* \"#utility.yul\":2671:2685   */\n      add\n        /* \"#utility.yul\":2657:2669   */\n      dup3\n        /* \"#utility.yul\":2623:2686   */\n      tag_136\n      jump\t// in\n    tag_197:\n        /* \"#utility.yul\":2524:2696   */\n      pop\n        /* \"#utility.yul\":2788:2792   */\n      0x40\n        /* \"#utility.yul\":2781:2786   */\n      dup3\n        /* \"#utility.yul\":2777:2793   */\n      add\n        /* \"#utility.yul\":2771:2794   */\n      mload\n        /* \"#utility.yul\":2807:2870   */\n      tag_198\n        /* \"#utility.yul\":2864:2868   */\n      0x40\n        /* \"#utility.yul\":2859:2862   */\n      dup6\n        /* \"#utility.yul\":2855:2869   */\n      add\n        /* \"#utility.yul\":2841:2853   */\n      dup3\n        /* \"#utility.yul\":2807:2870   */\n      tag_138\n      jump\t// in\n    tag_198:\n        /* \"#utility.yul\":2706:2880   */\n      pop\n        /* \"#utility.yul\":2967:2971   */\n      0x60\n        /* \"#utility.yul\":2960:2965   */\n      dup3\n        /* \"#utility.yul\":2956:2972   */\n      add\n        /* \"#utility.yul\":2950:2973   */\n      mload\n        /* \"#utility.yul\":2986:3049   */\n      tag_199\n        /* \"#utility.yul\":3043:3047   */\n      0x60\n        /* \"#utility.yul\":3038:3041   */\n      dup6\n        /* \"#utility.yul\":3034:3048   */\n      add\n        /* \"#utility.yul\":3020:3032   */\n      dup3\n        /* \"#utility.yul\":2986:3049   */\n      tag_138\n      jump\t// in\n    tag_199:\n        /* \"#utility.yul\":2890:3059   */\n      pop\n        /* \"#utility.yul\":3149:3153   */\n      0x80\n        /* \"#utility.yul\":3142:3147   */\n      dup3\n        /* \"#utility.yul\":3138:3154   */\n      add\n        /* \"#utility.yul\":3132:3155   */\n      mload\n        /* \"#utility.yul\":3168:3231   */\n      tag_200\n        /* \"#utility.yul\":3225:3229   */\n      0x80\n        /* \"#utility.yul\":3220:3223   */\n      dup6\n        /* \"#utility.yul\":3216:3230   */\n      add\n        /* \"#utility.yul\":3202:3214   */\n      dup3\n        /* \"#utility.yul\":3168:3231   */\n      tag_138\n      jump\t// in\n    tag_200:\n        /* \"#utility.yul\":3069:3241   */\n      pop\n        /* \"#utility.yul\":2299:3248   */\n      pop\n        /* \"#utility.yul\":2189:3248   */\n      pop\n      pop\n      jump\t// out\n        /* \"#utility.yul\":3254:3541   */\n    tag_140:\n        /* \"#utility.yul\":3377:3387   */\n      0x00\n        /* \"#utility.yul\":3398:3498   */\n      tag_202\n        /* \"#utility.yul\":3494:3497   */\n      dup4\n        /* \"#utility.yul\":3486:3492   */\n      dup4\n        /* \"#utility.yul\":3398:3498   */\n      tag_139\n      jump\t// in\n    tag_202:\n        /* \"#utility.yul\":3530:3534   */\n      0xa0\n        /* \"#utility.yul\":3525:3528   */\n      dup4\n        /* \"#utility.yul\":3521:3535   */\n      add\n        /* \"#utility.yul\":3507:3535   */\n      swap1\n      pop\n        /* \"#utility.yul\":3254:3541   */\n      swap3\n      swap2\n      pop\n      pop\n      jump\t// out\n        /* \"#utility.yul\":3547:3687   */\n    tag_141:\n        /* \"#utility.yul\":3644:3648   */\n      0x00\n        /* \"#utility.yul\":3676:3680   */\n      0x20\n        /* \"#utility.yul\":3671:3674   */\n      dup3\n        /* \"#utility.yul\":3667:3681   */\n      add\n        /* \"#utility.yul\":3659:3681   */\n      swap1\n      pop\n        /* \"#utility.yul\":3547:3687   */\n      swap2\n      swap1\n      pop\n      jump\t// out\n        /* \"#utility.yul\":3787:4735   */\n    tag_142:\n        /* \"#utility.yul\":3960:3963   */\n      0x00\n        /* \"#utility.yul\":3989:4070   */\n      tag_205\n        /* \"#utility.yul\":4064:4069   */\n      dup3\n        /* \"#utility.yul\":3989:4070   */\n      tag_132\n      jump\t// in\n    tag_205:\n        /* \"#utility.yul\":4086:4199   */\n      tag_206\n        /* \"#utility.yul\":4192:4198   */\n      dup2\n        /* \"#utility.yul\":4187:4190   */\n      dup6\n        /* \"#utility.yul\":4086:4199   */\n      tag_133\n      jump\t// in\n    tag_206:\n        /* \"#utility.yul\":4079:4199   */\n      swap4\n      pop\n        /* \"#utility.yul\":4223:4306   */\n      tag_207\n        /* \"#utility.yul\":4300:4305   */\n      dup4\n        /* \"#utility.yul\":4223:4306   */\n      tag_134\n      jump\t// in\n    tag_207:\n        /* \"#utility.yul\":4329:4336   */\n      dup1\n        /* \"#utility.yul\":4360:4361   */\n      0x00\n        /* \"#utility.yul\":4345:4710   */\n    tag_208:\n        /* \"#utility.yul\":4370:4376   */\n      dup4\n        /* \"#utility.yul\":4367:4368   */\n      dup2\n        /* \"#utility.yul\":4364:4377   */\n      lt\n        /* \"#utility.yul\":4345:4710   */\n      iszero\n      tag_210\n      jumpi\n        /* \"#utility.yul\":4446:4452   */\n      dup2\n        /* \"#utility.yul\":4440:4453   */\n      mload\n        /* \"#utility.yul\":4473:4590   */\n      tag_211\n        /* \"#utility.yul\":4586:4589   */\n      dup9\n        /* \"#utility.yul\":4571:4584   */\n      dup3\n        /* \"#utility.yul\":4473:4590   */\n      tag_140\n      jump\t// in\n    tag_211:\n        /* \"#utility.yul\":4466:4590   */\n      swap8\n      pop\n        /* \"#utility.yul\":4613:4700   */\n      tag_212\n        /* \"#utility.yul\":4693:4699   */\n      dup4\n        /* \"#utility.yul\":4613:4700   */\n      tag_141\n      jump\t// in\n    tag_212:\n        /* \"#utility.yul\":4603:4700   */\n      swap3\n      pop\n        /* \"#utility.yul\":4405:4710   */\n      pop\n        /* \"#utility.yul\":4392:4393   */\n      0x01\n        /* \"#utility.yul\":4389:4390   */\n      dup2\n        /* \"#utility.yul\":4385:4394   */\n      add\n        /* \"#utility.yul\":4380:4394   */\n      swap1\n      pop\n        /* \"#utility.yul\":4345:4710   */\n      jump(tag_208)\n    tag_210:\n        /* \"#utility.yul\":4349:4363   */\n      pop\n        /* \"#utility.yul\":4726:4729   */\n      dup6\n        /* \"#utility.yul\":4719:4729   */\n      swap4\n      pop\n        /* \"#utility.yul\":3965:4735   */\n      pop\n      pop\n      pop\n        /* \"#utility.yul\":3787:4735   */\n      swap3\n      swap2\n      pop\n      pop\n      jump\t// out\n        /* \"#utility.yul\":4741:5222   */\n    tag_17:\n        /* \"#utility.yul\":4938:4942   */\n      0x00\n        /* \"#utility.yul\":4976:4978   */\n      0x20\n        /* \"#utility.yul\":4965:4974   */\n      dup3\n        /* \"#utility.yul\":4961:4979   */\n      add\n        /* \"#utility.yul\":4953:4979   */\n      swap1\n      pop\n        /* \"#utility.yul\":5025:5034   */\n      dup2\n        /* \"#utility.yul\":5019:5023   */\n      dup2\n        /* \"#utility.yul\":5015:5035   */\n      sub\n        /* \"#utility.yul\":5011:5012   */\n      0x00\n        /* \"#utility.yul\":5000:5009   */\n      dup4\n        /* \"#utility.yul\":4996:5013   */\n      add\n        /* \"#utility.yul\":4989:5036   */\n      mstore\n        /* \"#utility.yul\":5053:5215   */\n      tag_214\n        /* \"#utility.yul\":5210:5214   */\n      dup2\n        /* \"#utility.yul\":5201:5207   */\n      dup5\n        /* \"#utility.yul\":5053:5215   */\n      tag_142\n      jump\t// in\n    tag_214:\n        /* \"#utility.yul\":5045:5215   */\n      swap1\n      pop\n        /* \"#utility.yul\":4741:5222   */\n      swap3\n      swap2\n      pop\n      pop\n      jump\t// out\n        /* \"#utility.yul\":5228:5318   */\n    tag_143:\n        /* \"#utility.yul\":5262:5269   */\n      0x00\n        /* \"#utility.yul\":5305:5310   */\n      dup2\n        /* \"#utility.yul\":5298:5311   */\n      iszero\n        /* \"#utility.yul\":5291:5312   */\n      iszero\n        /* \"#utility.yul\":5280:5312   */\n      swap1\n      pop\n        /* \"#utility.yul\":5228:5318   */\n      swap2\n      swap1\n      pop\n      jump\t// out\n        /* \"#utility.yul\":5324:5440   */\n    tag_144:\n        /* \"#utility.yul\":5394:5415   */\n      tag_217\n        /* \"#utility.yul\":5409:5414   */\n      dup2\n        /* \"#utility.yul\":5394:5415   */\n      tag_143\n      jump\t// in\n    tag_217:\n        /* \"#utility.yul\":5387:5392   */\n      dup2\n        /* \"#utility.yul\":5384:5416   */\n      eq\n        /* \"#utility.yul\":5374:5434   */\n      tag_218\n      jumpi\n        /* \"#utility.yul\":5430:5431   */\n      0x00\n        /* \"#utility.yul\":5427:5428   */\n      dup1\n        /* \"#utility.yul\":5420:5432   */\n      revert\n        /* \"#utility.yul\":5374:5434   */\n    tag_218:\n        /* \"#utility.yul\":5324:5440   */\n      pop\n      jump\t// out\n        /* \"#utility.yul\":5446:5579   */\n    tag_145:\n        /* \"#utility.yul\":5489:5494   */\n      0x00\n        /* \"#utility.yul\":5527:5533   */\n      dup2\n        /* \"#utility.yul\":5514:5534   */\n      calldataload\n        /* \"#utility.yul\":5505:5534   */\n      swap1\n      pop\n        /* \"#utility.yul\":5543:5573   */\n      tag_220\n        /* \"#utility.yul\":5567:5572   */\n      dup2\n        /* \"#utility.yul\":5543:5573   */\n      tag_144\n      jump\t// in\n    tag_220:\n        /* \"#utility.yul\":5446:5579   */\n      swap3\n      swap2\n      pop\n      pop\n      jump\t// out\n        /* \"#utility.yul\":5585:6053   */\n    tag_20:\n        /* \"#utility.yul\":5650:5656   */\n      0x00\n        /* \"#utility.yul\":5658:5664   */\n      dup1\n        /* \"#utility.yul\":5707:5709   */\n      0x40\n        /* \"#utility.yul\":5695:5704   */\n      dup4\n        /* \"#utility.yul\":5686:5693   */\n      dup6\n        /* \"#utility.yul\":5682:5705   */\n      sub\n        /* \"#utility.yul\":5678:5710   */\n      slt\n        /* \"#utility.yul\":5675:5794   */\n      iszero\n      tag_222\n      jumpi\n        /* \"#utility.yul\":5713:5792   */\n      tag_223\n      tag_126\n      jump\t// in\n    tag_223:\n        /* \"#utility.yul\":5675:5794   */\n    tag_222:\n        /* \"#utility.yul\":5833:5834   */\n      0x00\n        /* \"#utility.yul\":5858:5911   */\n      tag_224\n        /* \"#utility.yul\":5903:5910   */\n      dup6\n        /* \"#utility.yul\":5894:5900   */\n      dup3\n        /* \"#utility.yul\":5883:5892   */\n      dup7\n        /* \"#utility.yul\":5879:5901   */\n      add\n        /* \"#utility.yul\":5858:5911   */\n      tag_131\n      jump\t// in\n    tag_224:\n        /* \"#utility.yul\":5848:5911   */\n      swap3\n      pop\n        /* \"#utility.yul\":5804:5921   */\n      pop\n        /* \"#utility.yul\":5960:5962   */\n      0x20\n        /* \"#utility.yul\":5986:6036   */\n      tag_225\n        /* \"#utility.yul\":6028:6035   */\n      dup6\n        /* \"#utility.yul\":6019:6025   */\n      dup3\n        /* \"#utility.yul\":6008:6017   */\n      dup7\n        /* \"#utility.yul\":6004:6026   */\n      add\n        /* \"#utility.yul\":5986:6036   */\n      tag_145\n      jump\t// in\n    tag_225:\n        /* \"#utility.yul\":5976:6036   */\n      swap2\n      pop\n        /* \"#utility.yul\":5931:6046   */\n      pop\n        /* \"#utility.yul\":5585:6053   */\n      swap3\n      pop\n      swap3\n      swap1\n      pop\n      jump\t// out\n        /* \"#utility.yul\":6059:6181   */\n    tag_146:\n        /* \"#utility.yul\":6132:6156   */\n      tag_227\n        /* \"#utility.yul\":6150:6155   */\n      dup2\n        /* \"#utility.yul\":6132:6156   */\n      tag_135\n      jump\t// in\n    tag_227:\n        /* \"#utility.yul\":6125:6130   */\n      dup2\n        /* \"#utility.yul\":6122:6157   */\n      eq\n        /* \"#utility.yul\":6112:6175   */\n      tag_228\n      jumpi\n        /* \"#utility.yul\":6171:6172   */\n      0x00\n        /* \"#utility.yul\":6168:6169   */\n      dup1\n        /* \"#utility.yul\":6161:6173   */\n      revert\n        /* \"#utility.yul\":6112:6175   */\n    tag_228:\n        /* \"#utility.yul\":6059:6181   */\n      pop\n      jump\t// out\n        /* \"#utility.yul\":6187:6326   */\n    tag_147:\n        /* \"#utility.yul\":6233:6238   */\n      0x00\n        /* \"#utility.yul\":6271:6277   */\n      dup2\n        /* \"#utility.yul\":6258:6278   */\n      calldataload\n        /* \"#utility.yul\":6249:6278   */\n      swap1\n      pop\n        /* \"#utility.yul\":6287:6320   */\n      tag_230\n        /* \"#utility.yul\":6314:6319   */\n      dup2\n        /* \"#utility.yul\":6287:6320   */\n      tag_146\n      jump\t// in\n    tag_230:\n        /* \"#utility.yul\":6187:6326   */\n      swap3\n      swap2\n      pop\n      pop\n      jump\t// out\n        /* \"#utility.yul\":6332:6454   */\n    tag_148:\n        /* \"#utility.yul\":6405:6429   */\n      tag_232\n        /* \"#utility.yul\":6423:6428   */\n      dup2\n        /* \"#utility.yul\":6405:6429   */\n      tag_137\n      jump\t// in\n    tag_232:\n        /* \"#utility.yul\":6398:6403   */\n      dup2\n        /* \"#utility.yul\":6395:6430   */\n      eq\n        /* \"#utility.yul\":6385:6448   */\n      tag_233\n      jumpi\n        /* \"#utility.yul\":6444:6445   */\n      0x00\n        /* \"#utility.yul\":6441:6442   */\n      dup1\n        /* \"#utility.yul\":6434:6446   */\n      revert\n        /* \"#utility.yul\":6385:6448   */\n    tag_233:\n        /* \"#utility.yul\":6332:6454   */\n      pop\n      jump\t// out\n        /* \"#utility.yul\":6460:6599   */\n    tag_149:\n        /* \"#utility.yul\":6506:6511   */\n      0x00\n        /* \"#utility.yul\":6544:6550   */\n      dup2\n        /* \"#utility.yul\":6531:6551   */\n      calldataload\n        /* \"#utility.yul\":6522:6551   */\n      swap1\n      pop\n        /* \"#utility.yul\":6560:6593   */\n      tag_235\n        /* \"#utility.yul\":6587:6592   */\n      dup2\n        /* \"#utility.yul\":6560:6593   */\n      tag_148\n      jump\t// in\n    tag_235:\n        /* \"#utility.yul\":6460:6599   */\n      swap3\n      swap2\n      pop\n      pop\n      jump\t// out\n        /* \"#utility.yul\":6605:7370   */\n    tag_24:\n        /* \"#utility.yul\":6691:6697   */\n      0x00\n        /* \"#utility.yul\":6699:6705   */\n      dup1\n        /* \"#utility.yul\":6707:6713   */\n      0x00\n        /* \"#utility.yul\":6715:6721   */\n      dup1\n        /* \"#utility.yul\":6764:6767   */\n      0x80\n        /* \"#utility.yul\":6752:6761   */\n      dup6\n        /* \"#utility.yul\":6743:6750   */\n      dup8\n        /* \"#utility.yul\":6739:6762   */\n      sub\n        /* \"#utility.yul\":6735:6768   */\n      slt\n        /* \"#utility.yul\":6732:6852   */\n      iszero\n      tag_237\n      jumpi\n        /* \"#utility.yul\":6771:6850   */\n      tag_238\n      tag_126\n      jump\t// in\n    tag_238:\n        /* \"#utility.yul\":6732:6852   */\n    tag_237:\n        /* \"#utility.yul\":6891:6892   */\n      0x00\n        /* \"#utility.yul\":6916:6969   */\n      tag_239\n        /* \"#utility.yul\":6961:6968   */\n      dup8\n        /* \"#utility.yul\":6952:6958   */\n      dup3\n        /* \"#utility.yul\":6941:6950   */\n      dup9\n        /* \"#utility.yul\":6937:6959   */\n      add\n        /* \"#utility.yul\":6916:6969   */\n      tag_147\n      jump\t// in\n    tag_239:\n        /* \"#utility.yul\":6906:6969   */\n      swap5\n      pop\n        /* \"#utility.yul\":6862:6979   */\n      pop\n        /* \"#utility.yul\":7018:7020   */\n      0x20\n        /* \"#utility.yul\":7044:7097   */\n      tag_240\n        /* \"#utility.yul\":7089:7096   */\n      dup8\n        /* \"#utility.yul\":7080:7086   */\n      dup3\n        /* \"#utility.yul\":7069:7078   */\n      dup9\n        /* \"#utility.yul\":7065:7087   */\n      add\n        /* \"#utility.yul\":7044:7097   */\n      tag_149\n      jump\t// in\n    tag_240:\n        /* \"#utility.yul\":7034:7097   */\n      swap4\n      pop\n        /* \"#utility.yul\":6989:7107   */\n      pop\n        /* \"#utility.yul\":7146:7148   */\n      0x40\n        /* \"#utility.yul\":7172:7225   */\n      tag_241\n        /* \"#utility.yul\":7217:7224   */\n      dup8\n        /* \"#utility.yul\":7208:7214   */\n      dup3\n        /* \"#utility.yul\":7197:7206   */\n      dup9\n        /* \"#utility.yul\":7193:7215   */\n      add\n        /* \"#utility.yul\":7172:7225   */\n      tag_149\n      jump\t// in\n    tag_241:\n        /* \"#utility.yul\":7162:7225   */\n      swap3\n      pop\n        /* \"#utility.yul\":7117:7235   */\n      pop\n        /* \"#utility.yul\":7274:7276   */\n      0x60\n        /* \"#utility.yul\":7300:7353   */\n      tag_242\n        /* \"#utility.yul\":7345:7352   */\n      dup8\n        /* \"#utility.yul\":7336:7342   */\n      dup3\n        /* \"#utility.yul\":7325:7334   */\n      dup9\n        /* \"#utility.yul\":7321:7343   */\n      add\n        /* \"#utility.yul\":7300:7353   */\n      tag_149\n      jump\t// in\n    tag_242:\n        /* \"#utility.yul\":7290:7353   */\n      swap2\n      pop\n        /* \"#utility.yul\":7245:7363   */\n      pop\n        /* \"#utility.yul\":6605:7370   */\n      swap3\n      swap6\n      swap2\n      swap5\n      pop\n      swap3\n      pop\n      jump\t// out\n        /* \"#utility.yul\":7376:7995   */\n    tag_31:\n        /* \"#utility.yul\":7453:7459   */\n      0x00\n        /* \"#utility.yul\":7461:7467   */\n      dup1\n        /* \"#utility.yul\":7469:7475   */\n      0x00\n        /* \"#utility.yul\":7518:7520   */\n      0x60\n        /* \"#utility.yul\":7506:7515   */\n      dup5\n        /* \"#utility.yul\":7497:7504   */\n      dup7\n        /* \"#utility.yul\":7493:7516   */\n      sub\n        /* \"#utility.yul\":7489:7521   */\n      slt\n        /* \"#utility.yul\":7486:7605   */\n      iszero\n      tag_244\n      jumpi\n        /* \"#utility.yul\":7524:7603   */\n      tag_245\n      tag_126\n      jump\t// in\n    tag_245:\n        /* \"#utility.yul\":7486:7605   */\n    tag_244:\n        /* \"#utility.yul\":7644:7645   */\n      0x00\n        /* \"#utility.yul\":7669:7722   */\n      tag_246\n        /* \"#utility.yul\":7714:7721   */\n      dup7\n        /* \"#utility.yul\":7705:7711   */\n      dup3\n        /* \"#utility.yul\":7694:7703   */\n      dup8\n        /* \"#utility.yul\":7690:7712   */\n      add\n        /* \"#utility.yul\":7669:7722   */\n      tag_131\n      jump\t// in\n    tag_246:\n        /* \"#utility.yul\":7659:7722   */\n      swap4\n      pop\n        /* \"#utility.yul\":7615:7732   */\n      pop\n        /* \"#utility.yul\":7771:7773   */\n      0x20\n        /* \"#utility.yul\":7797:7850   */\n      tag_247\n        /* \"#utility.yul\":7842:7849   */\n      dup7\n        /* \"#utility.yul\":7833:7839   */\n      dup3\n        /* \"#utility.yul\":7822:7831   */\n      dup8\n        /* \"#utility.yul\":7818:7840   */\n      add\n        /* \"#utility.yul\":7797:7850   */\n      tag_147\n      jump\t// in\n    tag_247:\n        /* \"#utility.yul\":7787:7850   */\n      swap3\n      pop\n        /* \"#utility.yul\":7742:7860   */\n      pop\n        /* \"#utility.yul\":7899:7901   */\n      0x40\n        /* \"#utility.yul\":7925:7978   */\n      tag_248\n        /* \"#utility.yul\":7970:7977   */\n      dup7\n        /* \"#utility.yul\":7961:7967   */\n      dup3\n        /* \"#utility.yul\":7950:7959   */\n      dup8\n        /* \"#utility.yul\":7946:7968   */\n      add\n        /* \"#utility.yul\":7925:7978   */\n      tag_147\n      jump\t// in\n    tag_248:\n        /* \"#utility.yul\":7915:7978   */\n      swap2\n      pop\n        /* \"#utility.yul\":7870:7988   */\n      pop\n        /* \"#utility.yul\":7376:7995   */\n      swap3\n      pop\n      swap3\n      pop\n      swap3\n      jump\t// out\n        /* \"#utility.yul\":8001:8119   */\n    tag_150:\n        /* \"#utility.yul\":8088:8112   */\n      tag_250\n        /* \"#utility.yul\":8106:8111   */\n      dup2\n        /* \"#utility.yul\":8088:8112   */\n      tag_135\n      jump\t// in\n    tag_250:\n        /* \"#utility.yul\":8083:8086   */\n      dup3\n        /* \"#utility.yul\":8076:8113   */\n      mstore\n        /* \"#utility.yul\":8001:8119   */\n      pop\n      pop\n      jump\t// out\n        /* \"#utility.yul\":8125:8347   */\n    tag_34:\n        /* \"#utility.yul\":8218:8222   */\n      0x00\n        /* \"#utility.yul\":8256:8258   */\n      0x20\n        /* \"#utility.yul\":8245:8254   */\n      dup3\n        /* \"#utility.yul\":8241:8259   */\n      add\n        /* \"#utility.yul\":8233:8259   */\n      swap1\n      pop\n        /* \"#utility.yul\":8269:8340   */\n      tag_252\n        /* \"#utility.yul\":8337:8338   */\n      0x00\n        /* \"#utility.yul\":8326:8335   */\n      dup4\n        /* \"#utility.yul\":8322:8339   */\n      add\n        /* \"#utility.yul\":8313:8319   */\n      dup5\n        /* \"#utility.yul\":8269:8340   */\n      tag_150\n      jump\t// in\n    tag_252:\n        /* \"#utility.yul\":8125:8347   */\n      swap3\n      swap2\n      pop\n      pop\n      jump\t// out\n        /* \"#utility.yul\":8353:8682   */\n    tag_37:\n        /* \"#utility.yul\":8412:8418   */\n      0x00\n        /* \"#utility.yul\":8461:8463   */\n      0x20\n        /* \"#utility.yul\":8449:8458   */\n      dup3\n        /* \"#utility.yul\":8440:8447   */\n      dup5\n        /* \"#utility.yul\":8436:8459   */\n      sub\n        /* \"#utility.yul\":8432:8464   */\n      slt\n        /* \"#utility.yul\":8429:8548   */\n      iszero\n      tag_254\n      jumpi\n        /* \"#utility.yul\":8467:8546   */\n      tag_255\n      tag_126\n      jump\t// in\n    tag_255:\n        /* \"#utility.yul\":8429:8548   */\n    tag_254:\n        /* \"#utility.yul\":8587:8588   */\n      0x00\n        /* \"#utility.yul\":8612:8665   */\n      tag_256\n        /* \"#utility.yul\":8657:8664   */\n      dup5\n        /* \"#utility.yul\":8648:8654   */\n      dup3\n        /* \"#utility.yul\":8637:8646   */\n      dup6\n        /* \"#utility.yul\":8633:8655   */\n      add\n        /* \"#utility.yul\":8612:8665   */\n      tag_147\n      jump\t// in\n    tag_256:\n        /* \"#utility.yul\":8602:8665   */\n      swap2\n      pop\n        /* \"#utility.yul\":8558:8675   */\n      pop\n        /* \"#utility.yul\":8353:8682   */\n      swap3\n      swap2\n      pop\n      pop\n      jump\t// out\n        /* \"#utility.yul\":8688:8857   */\n    tag_151:\n        /* \"#utility.yul\":8772:8783   */\n      0x00\n        /* \"#utility.yul\":8806:8812   */\n      dup3\n        /* \"#utility.yul\":8801:8804   */\n      dup3\n        /* \"#utility.yul\":8794:8813   */\n      mstore\n        /* \"#utility.yul\":8846:8850   */\n      0x20\n        /* \"#utility.yul\":8841:8844   */\n      dup3\n        /* \"#utility.yul\":8837:8851   */\n      add\n        /* \"#utility.yul\":8822:8851   */\n      swap1\n      pop\n        /* \"#utility.yul\":8688:8857   */\n      swap3\n      swap2\n      pop\n      pop\n      jump\t// out\n        /* \"#utility.yul\":8863:9034   */\n    tag_152:\n        /* \"#utility.yul\":9003:9026   */\n      0x416363657373206e6f7420617574686f72697a65640000000000000000000000\n        /* \"#utility.yul\":8999:9000   */\n      0x00\n        /* \"#utility.yul\":8991:8997   */\n      dup3\n        /* \"#utility.yul\":8987:9001   */\n      add\n        /* \"#utility.yul\":8980:9027   */\n      mstore\n        /* \"#utility.yul\":8863:9034   */\n      pop\n      jump\t// out\n        /* \"#utility.yul\":9040:9406   */\n    tag_153:\n        /* \"#utility.yul\":9182:9185   */\n      0x00\n        /* \"#utility.yul\":9203:9270   */\n      tag_260\n        /* \"#utility.yul\":9267:9269   */\n      0x15\n        /* \"#utility.yul\":9262:9265   */\n      dup4\n        /* \"#utility.yul\":9203:9270   */\n      tag_151\n      jump\t// in\n    tag_260:\n        /* \"#utility.yul\":9196:9270   */\n      swap2\n      pop\n        /* \"#utility.yul\":9279:9372   */\n      tag_261\n        /* \"#utility.yul\":9368:9371   */\n      dup3\n        /* \"#utility.yul\":9279:9372   */\n      tag_152\n      jump\t// in\n    tag_261:\n        /* \"#utility.yul\":9397:9399   */\n      0x20\n        /* \"#utility.yul\":9392:9395   */\n      dup3\n        /* \"#utility.yul\":9388:9400   */\n      add\n        /* \"#utility.yul\":9381:9400   */\n      swap1\n      pop\n        /* \"#utility.yul\":9040:9406   */\n      swap2\n      swap1\n      pop\n      jump\t// out\n        /* \"#utility.yul\":9412:9831   */\n    tag_50:\n        /* \"#utility.yul\":9578:9582   */\n      0x00\n        /* \"#utility.yul\":9616:9618   */\n      0x20\n        /* \"#utility.yul\":9605:9614   */\n      dup3\n        /* \"#utility.yul\":9601:9619   */\n      add\n        /* \"#utility.yul\":9593:9619   */\n      swap1\n      pop\n        /* \"#utility.yul\":9665:9674   */\n      dup2\n        /* \"#utility.yul\":9659:9663   */\n      dup2\n        /* \"#utility.yul\":9655:9675   */\n      sub\n        /* \"#utility.yul\":9651:9652   */\n      0x00\n        /* \"#utility.yul\":9640:9649   */\n      dup4\n        /* \"#utility.yul\":9636:9653   */\n      add\n        /* \"#utility.yul\":9629:9676   */\n      mstore\n        /* \"#utility.yul\":9693:9824   */\n      tag_263\n        /* \"#utility.yul\":9819:9823   */\n      dup2\n        /* \"#utility.yul\":9693:9824   */\n      tag_153\n      jump\t// in\n    tag_263:\n        /* \"#utility.yul\":9685:9824   */\n      swap1\n      pop\n        /* \"#utility.yul\":9412:9831   */\n      swap2\n      swap1\n      pop\n      jump\t// out\n        /* \"#utility.yul\":9837:10064   */\n    tag_154:\n        /* \"#utility.yul\":9977:10011   */\n      0x4f6e6c79207468652070617469656e742063616e20706572666f726d20746869\n        /* \"#utility.yul\":9973:9974   */\n      0x00\n        /* \"#utility.yul\":9965:9971   */\n      dup3\n        /* \"#utility.yul\":9961:9975   */\n      add\n        /* \"#utility.yul\":9954:10012   */\n      mstore\n        /* \"#utility.yul\":10046:10056   */\n      0x7320616374696f6e000000000000000000000000000000000000000000000000\n        /* \"#utility.yul\":10041:10043   */\n      0x20\n        /* \"#utility.yul\":10033:10039   */\n      dup3\n        /* \"#utility.yul\":10029:10044   */\n      add\n        /* \"#utility.yul\":10022:10057   */\n      mstore\n        /* \"#utility.yul\":9837:10064   */\n      pop\n      jump\t// out\n        /* \"#utility.yul\":10070:10436   */\n    tag_155:\n        /* \"#utility.yul\":10212:10215   */\n      0x00\n        /* \"#utility.yul\":10233:10300   */\n      tag_266\n        /* \"#utility.yul\":10297:10299   */\n      0x28\n        /* \"#utility.yul\":10292:10295   */\n      dup4\n        /* \"#utility.yul\":10233:10300   */\n      tag_151\n      jump\t// in\n    tag_266:\n        /* \"#utility.yul\":10226:10300   */\n      swap2\n      pop\n        /* \"#utility.yul\":10309:10402   */\n      tag_267\n        /* \"#utility.yul\":10398:10401   */\n      dup3\n        /* \"#utility.yul\":10309:10402   */\n      tag_154\n      jump\t// in\n    tag_267:\n        /* \"#utility.yul\":10427:10429   */\n      0x40\n        /* \"#utility.yul\":10422:10425   */\n      dup3\n        /* \"#utility.yul\":10418:10430   */\n      add\n        /* \"#utility.yul\":10411:10430   */\n      swap1\n      pop\n        /* \"#utility.yul\":10070:10436   */\n      swap2\n      swap1\n      pop\n      jump\t// out\n        /* \"#utility.yul\":10442:10861   */\n    tag_57:\n        /* \"#utility.yul\":10608:10612   */\n      0x00\n        /* \"#utility.yul\":10646:10648   */\n      0x20\n        /* \"#utility.yul\":10635:10644   */\n      dup3\n        /* \"#utility.yul\":10631:10649   */\n      add\n        /* \"#utility.yul\":10623:10649   */\n      swap1\n      pop\n        /* \"#utility.yul\":10695:10704   */\n      dup2\n        /* \"#utility.yul\":10689:10693   */\n      dup2\n        /* \"#utility.yul\":10685:10705   */\n      sub\n        /* \"#utility.yul\":10681:10682   */\n      0x00\n        /* \"#utility.yul\":10670:10679   */\n      dup4\n        /* \"#utility.yul\":10666:10683   */\n      add\n        /* \"#utility.yul\":10659:10706   */\n      mstore\n        /* \"#utility.yul\":10723:10854   */\n      tag_269\n        /* \"#utility.yul\":10849:10853   */\n      dup2\n        /* \"#utility.yul\":10723:10854   */\n      tag_155\n      jump\t// in\n    tag_269:\n        /* \"#utility.yul\":10715:10854   */\n      swap1\n      pop\n        /* \"#utility.yul\":10442:10861   */\n      swap2\n      swap1\n      pop\n      jump\t// out\n        /* \"#utility.yul\":10867:10976   */\n    tag_156:\n        /* \"#utility.yul\":10948:10969   */\n      tag_271\n        /* \"#utility.yul\":10963:10968   */\n      dup2\n        /* \"#utility.yul\":10948:10969   */\n      tag_143\n      jump\t// in\n    tag_271:\n        /* \"#utility.yul\":10943:10946   */\n      dup3\n        /* \"#utility.yul\":10936:10970   */\n      mstore\n        /* \"#utility.yul\":10867:10976   */\n      pop\n      pop\n      jump\t// out\n        /* \"#utility.yul\":10982:11192   */\n    tag_60:\n        /* \"#utility.yul\":11069:11073   */\n      0x00\n        /* \"#utility.yul\":11107:11109   */\n      0x20\n        /* \"#utility.yul\":11096:11105   */\n      dup3\n        /* \"#utility.yul\":11092:11110   */\n      add\n        /* \"#utility.yul\":11084:11110   */\n      swap1\n      pop\n        /* \"#utility.yul\":11120:11185   */\n      tag_273\n        /* \"#utility.yul\":11182:11183   */\n      0x00\n        /* \"#utility.yul\":11171:11180   */\n      dup4\n        /* \"#utility.yul\":11167:11184   */\n      add\n        /* \"#utility.yul\":11158:11164   */\n      dup5\n        /* \"#utility.yul\":11120:11185   */\n      tag_156\n      jump\t// in\n    tag_273:\n        /* \"#utility.yul\":10982:11192   */\n      swap3\n      swap2\n      pop\n      pop\n      jump\t// out\n        /* \"#utility.yul\":11198:11316   */\n    tag_157:\n        /* \"#utility.yul\":11285:11309   */\n      tag_275\n        /* \"#utility.yul\":11303:11308   */\n      dup2\n        /* \"#utility.yul\":11285:11309   */\n      tag_129\n      jump\t// in\n    tag_275:\n        /* \"#utility.yul\":11280:11283   */\n      dup3\n        /* \"#utility.yul\":11273:11310   */\n      mstore\n        /* \"#utility.yul\":11198:11316   */\n      pop\n      pop\n      jump\t// out\n        /* \"#utility.yul\":11322:11654   */\n    tag_64:\n        /* \"#utility.yul\":11443:11447   */\n      0x00\n        /* \"#utility.yul\":11481:11483   */\n      0x40\n        /* \"#utility.yul\":11470:11479   */\n      dup3\n        /* \"#utility.yul\":11466:11484   */\n      add\n        /* \"#utility.yul\":11458:11484   */\n      swap1\n      pop\n        /* \"#utility.yul\":11494:11565   */\n      tag_277\n        /* \"#utility.yul\":11562:11563   */\n      0x00\n        /* \"#utility.yul\":11551:11560   */\n      dup4\n        /* \"#utility.yul\":11547:11564   */\n      add\n        /* \"#utility.yul\":11538:11544   */\n      dup6\n        /* \"#utility.yul\":11494:11565   */\n      tag_157\n      jump\t// in\n    tag_277:\n        /* \"#utility.yul\":11575:11647   */\n      tag_278\n        /* \"#utility.yul\":11643:11645   */\n      0x20\n        /* \"#utility.yul\":11632:11641   */\n      dup4\n        /* \"#utility.yul\":11628:11646   */\n      add\n        /* \"#utility.yul\":11619:11625   */\n      dup5\n        /* \"#utility.yul\":11575:11647   */\n      tag_150\n      jump\t// in\n    tag_278:\n        /* \"#utility.yul\":11322:11654   */\n      swap4\n      swap3\n      pop\n      pop\n      pop\n      jump\t// out\n        /* \"#utility.yul\":11660:11797   */\n    tag_158:\n        /* \"#utility.yul\":11714:11719   */\n      0x00\n        /* \"#utility.yul\":11745:11751   */\n      dup2\n        /* \"#utility.yul\":11739:11752   */\n      mload\n        /* \"#utility.yul\":11730:11752   */\n      swap1\n      pop\n        /* \"#utility.yul\":11761:11791   */\n      tag_280\n        /* \"#utility.yul\":11785:11790   */\n      dup2\n        /* \"#utility.yul\":11761:11791   */\n      tag_144\n      jump\t// in\n    tag_280:\n        /* \"#utility.yul\":11660:11797   */\n      swap3\n      swap2\n      pop\n      pop\n      jump\t// out\n        /* \"#utility.yul\":11803:12148   */\n    tag_68:\n        /* \"#utility.yul\":11870:11876   */\n      0x00\n        /* \"#utility.yul\":11919:11921   */\n      0x20\n        /* \"#utility.yul\":11907:11916   */\n      dup3\n        /* \"#utility.yul\":11898:11905   */\n      dup5\n        /* \"#utility.yul\":11894:11917   */\n      sub\n        /* \"#utility.yul\":11890:11922   */\n      slt\n        /* \"#utility.yul\":11887:12006   */\n      iszero\n      tag_282\n      jumpi\n        /* \"#utility.yul\":11925:12004   */\n      tag_283\n      tag_126\n      jump\t// in\n    tag_283:\n        /* \"#utility.yul\":11887:12006   */\n    tag_282:\n        /* \"#utility.yul\":12045:12046   */\n      0x00\n        /* \"#utility.yul\":12070:12131   */\n      tag_284\n        /* \"#utility.yul\":12123:12130   */\n      dup5\n        /* \"#utility.yul\":12114:12120   */\n      dup3\n        /* \"#utility.yul\":12103:12112   */\n      dup6\n        /* \"#utility.yul\":12099:12121   */\n      add\n        /* \"#utility.yul\":12070:12131   */\n      tag_158\n      jump\t// in\n    tag_284:\n        /* \"#utility.yul\":12060:12131   */\n      swap2\n      pop\n        /* \"#utility.yul\":12016:12141   */\n      pop\n        /* \"#utility.yul\":11803:12148   */\n      swap3\n      swap2\n      pop\n      pop\n      jump\t// out\n        /* \"#utility.yul\":12154:12326   */\n    tag_159:\n        /* \"#utility.yul\":12294:12318   */\n      0x526577617264207472616e73666572206661696c656400000000000000000000\n        /* \"#utility.yul\":12290:12291   */\n      0x00\n        /* \"#utility.yul\":12282:12288   */\n      dup3\n        /* \"#utility.yul\":12278:12292   */\n      add\n        /* \"#utility.yul\":12271:12319   */\n      mstore\n        /* \"#utility.yul\":12154:12326   */\n      pop\n      jump\t// out\n        /* \"#utility.yul\":12332:12698   */\n    tag_160:\n        /* \"#utility.yul\":12474:12477   */\n      0x00\n        /* \"#utility.yul\":12495:12562   */\n      tag_287\n        /* \"#utility.yul\":12559:12561   */\n      0x16\n        /* \"#utility.yul\":12554:12557   */\n      dup4\n        /* \"#utility.yul\":12495:12562   */\n      tag_151\n      jump\t// in\n    tag_287:\n        /* \"#utility.yul\":12488:12562   */\n      swap2\n      pop\n        /* \"#utility.yul\":12571:12664   */\n      tag_288\n        /* \"#utility.yul\":12660:12663   */\n      dup3\n        /* \"#utility.yul\":12571:12664   */\n      tag_159\n      jump\t// in\n    tag_288:\n        /* \"#utility.yul\":12689:12691   */\n      0x20\n        /* \"#utility.yul\":12684:12687   */\n      dup3\n        /* \"#utility.yul\":12680:12692   */\n      add\n        /* \"#utility.yul\":12673:12692   */\n      swap1\n      pop\n        /* \"#utility.yul\":12332:12698   */\n      swap2\n      swap1\n      pop\n      jump\t// out\n        /* \"#utility.yul\":12704:13123   */\n    tag_71:\n        /* \"#utility.yul\":12870:12874   */\n      0x00\n        /* \"#utility.yul\":12908:12910   */\n      0x20\n        /* \"#utility.yul\":12897:12906   */\n      dup3\n        /* \"#utility.yul\":12893:12911   */\n      add\n        /* \"#utility.yul\":12885:12911   */\n      swap1\n      pop\n        /* \"#utility.yul\":12957:12966   */\n      dup2\n        /* \"#utility.yul\":12951:12955   */\n      dup2\n        /* \"#utility.yul\":12947:12967   */\n      sub\n        /* \"#utility.yul\":12943:12944   */\n      0x00\n        /* \"#utility.yul\":12932:12941   */\n      dup4\n        /* \"#utility.yul\":12928:12945   */\n      add\n        /* \"#utility.yul\":12921:12968   */\n      mstore\n        /* \"#utility.yul\":12985:13116   */\n      tag_290\n        /* \"#utility.yul\":13111:13115   */\n      dup2\n        /* \"#utility.yul\":12985:13116   */\n      tag_160\n      jump\t// in\n    tag_290:\n        /* \"#utility.yul\":12977:13116   */\n      swap1\n      pop\n        /* \"#utility.yul\":12704:13123   */\n      swap2\n      swap1\n      pop\n      jump\t// out\n        /* \"#utility.yul\":13129:13247   */\n    tag_161:\n        /* \"#utility.yul\":13216:13240   */\n      tag_292\n        /* \"#utility.yul\":13234:13239   */\n      dup2\n        /* \"#utility.yul\":13216:13240   */\n      tag_137\n      jump\t// in\n    tag_292:\n        /* \"#utility.yul\":13211:13214   */\n      dup3\n        /* \"#utility.yul\":13204:13241   */\n      mstore\n        /* \"#utility.yul\":13129:13247   */\n      pop\n      pop\n      jump\t// out\n        /* \"#utility.yul\":13253:13917   */\n    tag_74:\n        /* \"#utility.yul\":13458:13462   */\n      0x00\n        /* \"#utility.yul\":13496:13499   */\n      0xa0\n        /* \"#utility.yul\":13485:13494   */\n      dup3\n        /* \"#utility.yul\":13481:13500   */\n      add\n        /* \"#utility.yul\":13473:13500   */\n      swap1\n      pop\n        /* \"#utility.yul\":13510:13581   */\n      tag_294\n        /* \"#utility.yul\":13578:13579   */\n      0x00\n        /* \"#utility.yul\":13567:13576   */\n      dup4\n        /* \"#utility.yul\":13563:13580   */\n      add\n        /* \"#utility.yul\":13554:13560   */\n      dup9\n        /* \"#utility.yul\":13510:13581   */\n      tag_150\n      jump\t// in\n    tag_294:\n        /* \"#utility.yul\":13591:13663   */\n      tag_295\n        /* \"#utility.yul\":13659:13661   */\n      0x20\n        /* \"#utility.yul\":13648:13657   */\n      dup4\n        /* \"#utility.yul\":13644:13662   */\n      add\n        /* \"#utility.yul\":13635:13641   */\n      dup8\n        /* \"#utility.yul\":13591:13663   */\n      tag_150\n      jump\t// in\n    tag_295:\n        /* \"#utility.yul\":13673:13745   */\n      tag_296\n        /* \"#utility.yul\":13741:13743   */\n      0x40\n        /* \"#utility.yul\":13730:13739   */\n      dup4\n        /* \"#utility.yul\":13726:13744   */\n      add\n        /* \"#utility.yul\":13717:13723   */\n      dup7\n        /* \"#utility.yul\":13673:13745   */\n      tag_161\n      jump\t// in\n    tag_296:\n        /* \"#utility.yul\":13755:13827   */\n      tag_297\n        /* \"#utility.yul\":13823:13825   */\n      0x60\n        /* \"#utility.yul\":13812:13821   */\n      dup4\n        /* \"#utility.yul\":13808:13826   */\n      add\n        /* \"#utility.yul\":13799:13805   */\n      dup6\n        /* \"#utility.yul\":13755:13827   */\n      tag_161\n      jump\t// in\n    tag_297:\n        /* \"#utility.yul\":13837:13910   */\n      tag_298\n        /* \"#utility.yul\":13905:13908   */\n      0x80\n        /* \"#utility.yul\":13894:13903   */\n      dup4\n        /* \"#utility.yul\":13890:13909   */\n      add\n        /* \"#utility.yul\":13881:13887   */\n      dup5\n        /* \"#utility.yul\":13837:13910   */\n      tag_161\n      jump\t// in\n    tag_298:\n        /* \"#utility.yul\":13253:13917   */\n      swap7\n      swap6\n      pop\n      pop\n      pop\n      pop\n      pop\n      pop\n      jump\t// out\n        /* \"#utility.yul\":13923:14148   */\n    tag_162:\n        /* \"#utility.yul\":14063:14097   */\n      0x4f6e6c7920746865206f776e65722063616e20706572666f726d207468697320\n        /* \"#utility.yul\":14059:14060   */\n      0x00\n        /* \"#utility.yul\":14051:14057   */\n      dup3\n        /* \"#utility.yul\":14047:14061   */\n      add\n        /* \"#utility.yul\":14040:14098   */\n      mstore\n        /* \"#utility.yul\":14132:14140   */\n      0x616374696f6e0000000000000000000000000000000000000000000000000000\n        /* \"#utility.yul\":14127:14129   */\n      0x20\n        /* \"#utility.yul\":14119:14125   */\n      dup3\n        /* \"#utility.yul\":14115:14130   */\n      add\n        /* \"#utility.yul\":14108:14141   */\n      mstore\n        /* \"#utility.yul\":13923:14148   */\n      pop\n      jump\t// out\n        /* \"#utility.yul\":14154:14520   */\n    tag_163:\n        /* \"#utility.yul\":14296:14299   */\n      0x00\n        /* \"#utility.yul\":14317:14384   */\n      tag_301\n        /* \"#utility.yul\":14381:14383   */\n      0x26\n        /* \"#utility.yul\":14376:14379   */\n      dup4\n        /* \"#utility.yul\":14317:14384   */\n      tag_151\n      jump\t// in\n    tag_301:\n        /* \"#utility.yul\":14310:14384   */\n      swap2\n      pop\n        /* \"#utility.yul\":14393:14486   */\n      tag_302\n        /* \"#utility.yul\":14482:14485   */\n      dup3\n        /* \"#utility.yul\":14393:14486   */\n      tag_162\n      jump\t// in\n    tag_302:\n        /* \"#utility.yul\":14511:14513   */\n      0x40\n        /* \"#utility.yul\":14506:14509   */\n      dup3\n        /* \"#utility.yul\":14502:14514   */\n      add\n        /* \"#utility.yul\":14495:14514   */\n      swap1\n      pop\n        /* \"#utility.yul\":14154:14520   */\n      swap2\n      swap1\n      pop\n      jump\t// out\n        /* \"#utility.yul\":14526:14945   */\n    tag_78:\n        /* \"#utility.yul\":14692:14696   */\n      0x00\n        /* \"#utility.yul\":14730:14732   */\n      0x20\n        /* \"#utility.yul\":14719:14728   */\n      dup3\n        /* \"#utility.yul\":14715:14733   */\n      add\n        /* \"#utility.yul\":14707:14733   */\n      swap1\n      pop\n        /* \"#utility.yul\":14779:14788   */\n      dup2\n        /* \"#utility.yul\":14773:14777   */\n      dup2\n        /* \"#utility.yul\":14769:14789   */\n      sub\n        /* \"#utility.yul\":14765:14766   */\n      0x00\n        /* \"#utility.yul\":14754:14763   */\n      dup4\n        /* \"#utility.yul\":14750:14767   */\n      add\n        /* \"#utility.yul\":14743:14790   */\n      mstore\n        /* \"#utility.yul\":14807:14938   */\n      tag_304\n        /* \"#utility.yul\":14933:14937   */\n      dup2\n        /* \"#utility.yul\":14807:14938   */\n      tag_163\n      jump\t// in\n    tag_304:\n        /* \"#utility.yul\":14799:14938   */\n      swap1\n      pop\n        /* \"#utility.yul\":14526:14945   */\n      swap2\n      swap1\n      pop\n      jump\t// out\n        /* \"#utility.yul\":14951:15131   */\n    tag_90:\n        /* \"#utility.yul\":14999:15076   */\n      0x4e487b7100000000000000000000000000000000000000000000000000000000\n        /* \"#utility.yul\":14996:14997   */\n      0x00\n        /* \"#utility.yul\":14989:15077   */\n      mstore\n        /* \"#utility.yul\":15096:15100   */\n      0x32\n        /* \"#utility.yul\":15093:15094   */\n      0x04\n        /* \"#utility.yul\":15086:15101   */\n      mstore\n        /* \"#utility.yul\":15120:15124   */\n      0x24\n        /* \"#utility.yul\":15117:15118   */\n      0x00\n        /* \"#utility.yul\":15110:15125   */\n      revert\n        /* \"#utility.yul\":15137:15317   */\n    tag_164:\n        /* \"#utility.yul\":15185:15262   */\n      0x4e487b7100000000000000000000000000000000000000000000000000000000\n        /* \"#utility.yul\":15182:15183   */\n      0x00\n        /* \"#utility.yul\":15175:15263   */\n      mstore\n        /* \"#utility.yul\":15282:15286   */\n      0x11\n        /* \"#utility.yul\":15279:15280   */\n      0x04\n        /* \"#utility.yul\":15272:15287   */\n      mstore\n        /* \"#utility.yul\":15306:15310   */\n      0x24\n        /* \"#utility.yul\":15303:15304   */\n      0x00\n        /* \"#utility.yul\":15296:15311   */\n      revert\n        /* \"#utility.yul\":15323:15514   */\n    tag_101:\n        /* \"#utility.yul\":15363:15366   */\n      0x00\n        /* \"#utility.yul\":15382:15402   */\n      tag_308\n        /* \"#utility.yul\":15400:15401   */\n      dup3\n        /* \"#utility.yul\":15382:15402   */\n      tag_135\n      jump\t// in\n    tag_308:\n        /* \"#utility.yul\":15377:15402   */\n      swap2\n      pop\n        /* \"#utility.yul\":15416:15436   */\n      tag_309\n        /* \"#utility.yul\":15434:15435   */\n      dup4\n        /* \"#utility.yul\":15416:15436   */\n      tag_135\n      jump\t// in\n    tag_309:\n        /* \"#utility.yul\":15411:15436   */\n      swap3\n      pop\n        /* \"#utility.yul\":15459:15460   */\n      dup3\n        /* \"#utility.yul\":15456:15457   */\n      dup3\n        /* \"#utility.yul\":15452:15461   */\n      add\n        /* \"#utility.yul\":15445:15461   */\n      swap1\n      pop\n        /* \"#utility.yul\":15480:15483   */\n      dup1\n        /* \"#utility.yul\":15477:15478   */\n      dup3\n        /* \"#utility.yul\":15474:15484   */\n      gt\n        /* \"#utility.yul\":15471:15507   */\n      iszero\n      tag_310\n      jumpi\n        /* \"#utility.yul\":15487:15505   */\n      tag_311\n      tag_164\n      jump\t// in\n    tag_311:\n        /* \"#utility.yul\":15471:15507   */\n    tag_310:\n        /* \"#utility.yul\":15323:15514   */\n      swap3\n      swap2\n      pop\n      pop\n      jump\t// out\n        /* \"#utility.yul\":15520:15753   */\n    tag_103:\n        /* \"#utility.yul\":15559:15562   */\n      0x00\n        /* \"#utility.yul\":15582:15606   */\n      tag_313\n        /* \"#utility.yul\":15600:15605   */\n      dup3\n        /* \"#utility.yul\":15582:15606   */\n      tag_135\n      jump\t// in\n    tag_313:\n        /* \"#utility.yul\":15573:15606   */\n      swap2\n      pop\n        /* \"#utility.yul\":15628:15694   */\n      0xffffffffffffffffffffffffffffffffffffffffffffffffffffffffffffffff\n        /* \"#utility.yul\":15621:15626   */\n      dup3\n        /* \"#utility.yul\":15618:15695   */\n      sub\n        /* \"#utility.yul\":15615:15718   */\n      tag_314\n      jumpi\n        /* \"#utility.yul\":15698:15716   */\n      tag_315\n      tag_164\n      jump\t// in\n    tag_315:\n        /* \"#utility.yul\":15615:15718   */\n    tag_314:\n        /* \"#utility.yul\":15745:15746   */\n      0x01\n        /* \"#utility.yul\":15738:15743   */\n      dup3\n        /* \"#utility.yul\":15734:15747   */\n      add\n        /* \"#utility.yul\":15727:15747   */\n      swap1\n      pop\n        /* \"#utility.yul\":15520:15753   */\n      swap2\n      swap1\n      pop\n      jump\t// out\n        /* \"#utility.yul\":15759:15939   */\n    tag_165:\n        /* \"#utility.yul\":15899:15931   */\n      0x4e6f206461746120696e20746865207370656369666965642072616e67650000\n        /* \"#utility.yul\":15895:15896   */\n      0x00\n        /* \"#utility.yul\":15887:15893   */\n      dup3\n        /* \"#utility.yul\":15883:15897   */\n      add\n        /* \"#utility.yul\":15876:15932   */\n      mstore\n        /* \"#utility.yul\":15759:15939   */\n      pop\n      jump\t// out\n        /* \"#utility.yul\":15945:16311   */\n    tag_166:\n        /* \"#utility.yul\":16087:16090   */\n      0x00\n        /* \"#utility.yul\":16108:16175   */\n      tag_318\n        /* \"#utility.yul\":16172:16174   */\n      0x1e\n        /* \"#utility.yul\":16167:16170   */\n      dup4\n        /* \"#utility.yul\":16108:16175   */\n      tag_151\n      jump\t// in\n    tag_318:\n        /* \"#utility.yul\":16101:16175   */\n      swap2\n      pop\n        /* \"#utility.yul\":16184:16277   */\n      tag_319\n        /* \"#utility.yul\":16273:16276   */\n      dup3\n        /* \"#utility.yul\":16184:16277   */\n      tag_165\n      jump\t// in\n    tag_319:\n        /* \"#utility.yul\":16302:16304   */\n      0x20\n        /* \"#utility.yul\":16297:16300   */\n      dup3\n        /* \"#utility.yul\":16293:16305   */\n      add\n        /* \"#utility.yul\":16286:16305   */\n      swap1\n      pop\n        /* \"#utility.yul\":15945:16311   */\n      swap2\n      swap1\n      pop\n      jump\t// out\n        /* \"#utility.yul\":16317:16736   */\n    tag_106:\n        /* \"#utility.yul\":16483:16487   */\n      0x00\n        /* \"#utility.yul\":16521:16523   */\n      0x20\n        /* \"#utility.yul\":16510:16519   */\n      dup3\n        /* \"#utility.yul\":16506:16524   */\n      add\n        /* \"#utility.yul\":16498:16524   */\n      swap1\n      pop\n        /* \"#utility.yul\":16570:16579   */\n      dup2\n        /* \"#utility.yul\":16564:16568   */\n      dup2\n        /* \"#utility.yul\":16560:16580   */\n      sub\n        /* \"#utility.yul\":16556:16557   */\n      0x00\n        /* \"#utility.yul\":16545:16554   */\n      dup4\n        /* \"#utility.yul\":16541:16558   */\n      add\n        /* \"#utility.yul\":16534:16581   */\n      mstore\n        /* \"#utility.yul\":16598:16729   */\n      tag_321\n        /* \"#utility.yul\":16724:16728   */\n      dup2\n        /* \"#utility.yul\":16598:16729   */\n      tag_166\n      jump\t// in\n    tag_321:\n        /* \"#utility.yul\":16590:16729   */\n      swap1\n      pop\n        /* \"#utility.yul\":16317:16736   */\n      swap2\n      swap1\n      pop\n      jump\t// out\n        /* \"#utility.yul\":16742:16922   */\n    tag_167:\n        /* \"#utility.yul\":16790:16867   */\n      0x4e487b7100000000000000000000000000000000000000000000000000000000\n        /* \"#utility.yul\":16787:16788   */\n      0x00\n        /* \"#utility.yul\":16780:16868   */\n      mstore\n        /* \"#utility.yul\":16887:16891   */\n      0x12\n        /* \"#utility.yul\":16884:16885   */\n      0x04\n        /* \"#utility.yul\":16877:16892   */\n      mstore\n        /* \"#utility.yul\":16911:16915   */\n      0x24\n        /* \"#utility.yul\":16908:16909   */\n      0x00\n        /* \"#utility.yul\":16901:16916   */\n      revert\n        /* \"#utility.yul\":16928:17113   */\n    tag_108:\n        /* \"#utility.yul\":16968:16969   */\n      0x00\n        /* \"#utility.yul\":16985:17005   */\n      tag_324\n        /* \"#utility.yul\":17003:17004   */\n      dup3\n        /* \"#utility.yul\":16985:17005   */\n      tag_135\n      jump\t// in\n    tag_324:\n        /* \"#utility.yul\":16980:17005   */\n      swap2\n      pop\n        /* \"#utility.yul\":17019:17039   */\n      tag_325\n        /* \"#utility.yul\":17037:17038   */\n      dup4\n        /* \"#utility.yul\":17019:17039   */\n      tag_135\n      jump\t// in\n    tag_325:\n        /* \"#utility.yul\":17014:17039   */\n      swap3\n      pop\n        /* \"#utility.yul\":17058:17059   */\n      dup3\n        /* \"#utility.yul\":17048:17083   */\n      tag_326\n      jumpi\n        /* \"#utility.yul\":17063:17081   */\n      tag_327\n      tag_167\n      jump\t// in\n    tag_327:\n        /* \"#utility.yul\":17048:17083   */\n    tag_326:\n        /* \"#utility.yul\":17105:17106   */\n      dup3\n        /* \"#utility.yul\":17102:17103   */\n      dup3\n        /* \"#utility.yul\":17098:17107   */\n      div\n        /* \"#utility.yul\":17093:17107   */\n      swap1\n      pop\n        /* \"#utility.yul\":16928:17113   */\n      swap3\n      swap2\n      pop\n      pop\n      jump\t// out\n        /* \"#utility.yul\":17119:17282   */\n    tag_168:\n        /* \"#utility.yul\":17259:17274   */\n      0x496e76616c696420696e64657800000000000000000000000000000000000000\n        /* \"#utility.yul\":17255:17256   */\n      0x00\n        /* \"#utility.yul\":17247:17253   */\n      dup3\n        /* \"#utility.yul\":17243:17257   */\n      add\n        /* \"#utility.yul\":17236:17275   */\n      mstore\n        /* \"#utility.yul\":17119:17282   */\n      pop\n      jump\t// out\n        /* \"#utility.yul\":17288:17654   */\n    tag_169:\n        /* \"#utility.yul\":17430:17433   */\n      0x00\n        /* \"#utility.yul\":17451:17518   */\n      tag_330\n        /* \"#utility.yul\":17515:17517   */\n      0x0d\n        /* \"#utility.yul\":17510:17513   */\n      dup4\n        /* \"#utility.yul\":17451:17518   */\n      tag_151\n      jump\t// in\n    tag_330:\n        /* \"#utility.yul\":17444:17518   */\n      swap2\n      pop\n        /* \"#utility.yul\":17527:17620   */\n      tag_331\n        /* \"#utility.yul\":17616:17619   */\n      dup3\n        /* \"#utility.yul\":17527:17620   */\n      tag_168\n      jump\t// in\n    tag_331:\n        /* \"#utility.yul\":17645:17647   */\n      0x20\n        /* \"#utility.yul\":17640:17643   */\n      dup3\n        /* \"#utility.yul\":17636:17648   */\n      add\n        /* \"#utility.yul\":17629:17648   */\n      swap1\n      pop\n        /* \"#utility.yul\":17288:17654   */\n      swap2\n      swap1\n      pop\n      jump\t// out\n        /* \"#utility.yul\":17660:18079   */\n    tag_121:\n        /* \"#utility.yul\":17826:17830   */\n      0x00\n        /* \"#utility.yul\":17864:17866   */\n      0x20\n        /* \"#utility.yul\":17853:17862   */\n      dup3\n        /* \"#utility.yul\":17849:17867   */\n      add\n        /* \"#utility.yul\":17841:17867   */\n      swap1\n      pop\n        /* \"#utility.yul\":17913:17922   */\n      dup2\n        /* \"#utility.yul\":17907:17911   */\n      dup2\n        /* \"#utility.yul\":17903:17923   */\n      sub\n        /* \"#utility.yul\":17899:17900   */\n      0x00\n        /* \"#utility.yul\":17888:17897   */\n      dup4\n        /* \"#utility.yul\":17884:17901   */\n      add\n        /* \"#utility.yul\":17877:17924   */\n      mstore\n        /* \"#utility.yul\":17941:18072   */\n      tag_333\n        /* \"#utility.yul\":18067:18071   */\n      dup2\n        /* \"#utility.yul\":17941:18072   */\n      tag_169\n      jump\t// in\n    tag_333:\n        /* \"#utility.yul\":17933:18072   */\n      swap1\n      pop\n        /* \"#utility.yul\":17660:18079   */\n      swap2\n      swap1\n      pop\n      jump\t// out\n\n    auxdata: 0xa264697066735822122085c33dc876d3763b978b570fc0ff3630304ee49db56227a3df847f3d0708e45964736f6c634300081a0033\n}\n",
				"bytecode": {
					"linkReferences": {},
					"object": "608060405234801561000f575f80fd5b506040516118d13803806118d183398181016040528101906100319190610150565b8160035f6101000a81548173ffffffffffffffffffffffffffffffffffffffff021916908373ffffffffffffffffffffffffffffffffffffffff1602179055503360055f6101000a81548173ffffffffffffffffffffffffffffffffffffffff021916908373ffffffffffffffffffffffffffffffffffffffff16021790555080600481905550505061018e565b5f80fd5b5f73ffffffffffffffffffffffffffffffffffffffff82169050919050565b5f6100ec826100c3565b9050919050565b6100fc816100e2565b8114610106575f80fd5b50565b5f81519050610117816100f3565b92915050565b5f819050919050565b61012f8161011d565b8114610139575f80fd5b50565b5f8151905061014a81610126565b92915050565b5f8060408385031215610166576101656100bf565b5b5f61017385828601610109565b92505060206101848582860161013c565b9150509250929050565b6117368061019b5f395ff3fe608060405234801561000f575f80fd5b5060043610610086575f3560e01c80639951664e116100595780639951664e1461010e578063a8a65a781461013e578063aabc42801461015a578063d0ad13981461017657610086565b806305c175211461008a5780630c66f928146100ba578063213156cc146100d657806373b492ff146100f2575b5f80fd5b6100a4600480360381019061009f9190610eaf565b610192565b6040516100b19190611018565b60405180910390f35b6100d460048036038101906100cf919061106d565b6103a6565b005b6100f060048036038101906100eb91906110ff565b61050e565b005b61010c60048036038101906101079190610eaf565b610757565b005b61012860048036038101906101239190611163565b61088b565b60405161013591906111c2565b60405180910390f35b610158600480360381019061015391906111db565b610b7f565b005b610174600480360381019061016f9190610eaf565b610c18565b005b610190600480360381019061018b91906111db565b610d4e565b005b60603373ffffffffffffffffffffffffffffffffffffffff168273ffffffffffffffffffffffffffffffffffffffff16148061024f575060015f8373ffffffffffffffffffffffffffffffffffffffff1673ffffffffffffffffffffffffffffffffffffffff1681526020019081526020015f205f3373ffffffffffffffffffffffffffffffffffffffff1673ffffffffffffffffffffffffffffffffffffffff1681526020019081526020015f205f9054906101000a900460ff165b806102a0575060025f3373ffffffffffffffffffffffffffffffffffffffff1673ffffffffffffffffffffffffffffffffffffffff1681526020019081526020015f205f9054906101000a900460ff165b6102df576040517f08c379a00000000000000000000000000000000000000000000000000000000081526004016102d690611260565b60405180910390fd5b5f808373ffffffffffffffffffffffffffffffffffffffff1673ffffffffffffffffffffffffffffffffffffffff1681526020019081526020015f20805480602002602001604051908101604052809291908181526020015f905b8282101561039b578382905f5260205f2090600502016040518060a00160405290815f82015481526020016001820154815260200160028201548152602001600382015481526020016004820154815250508152602001906001019061033a565b505050509050919050565b333373ffffffffffffffffffffffffffffffffffffffff168173ffffffffffffffffffffffffffffffffffffffff1614610415576040517f08c379a000000000000000000000000000000000000000000000000000000000815260040161040c906112ee565b60405180910390fd5b8160015f3373ffffffffffffffffffffffffffffffffffffffff1673ffffffffffffffffffffffffffffffffffffffff1681526020019081526020015f205f8573ffffffffffffffffffffffffffffffffffffffff1673ffffffffffffffffffffffffffffffffffffffff1681526020019081526020015f205f6101000a81548160ff0219169083151502179055508273ffffffffffffffffffffffffffffffffffffffff163373ffffffffffffffffffffffffffffffffffffffff167f5b273ba4eb5db97af8506cc6e94cd82ed91395089a5c5012479f42b23d8248ee84604051610501919061131b565b60405180910390a3505050565b5f6040518060a001604052804281526020018681526020018581526020018481526020018381525090505f803373ffffffffffffffffffffffffffffffffffffffff1673ffffffffffffffffffffffffffffffffffffffff1681526020019081526020015f2081908060018154018082558091505060019003905f5260205f2090600502015f909190919091505f820151815f015560208201518160010155604082015181600201556060820151816003015560808201518160040155505060035f9054906101000a900473ffffffffffffffffffffffffffffffffffffffff1673ffffffffffffffffffffffffffffffffffffffff1663a9059cbb336004546040518363ffffffff1660e01b815260040161062b929190611343565b6020604051808303815f875af1158015610647573d5f803e3d5ffd5b505050506040513d601f19601f8201168201806040525081019061066b919061137e565b6106aa576040517f08c379a00000000000000000000000000000000000000000000000000000000081526004016106a1906113f3565b60405180910390fd5b3373ffffffffffffffffffffffffffffffffffffffff167ff9b6ec770c96c3a6f9225bf3a8463a8ad03e884448af07b4ecd4d19d628946ee6004546040516106f291906111c2565b60405180910390a23373ffffffffffffffffffffffffffffffffffffffff167fe3b524e09af637da904f489285231e36fe28049d1739ea6147b9edbb73bfec784287878787604051610748959493929190611420565b60405180910390a25050505050565b60055f9054906101000a900473ffffffffffffffffffffffffffffffffffffffff1673ffffffffffffffffffffffffffffffffffffffff163373ffffffffffffffffffffffffffffffffffffffff16146107e6576040517f08c379a00000000000000000000000000000000000000000000000000000000081526004016107dd906114e1565b60405180910390fd5b5f60025f8373ffffffffffffffffffffffffffffffffffffffff1673ffffffffffffffffffffffffffffffffffffffff1681526020019081526020015f205f6101000a81548160ff0219169083151502179055508073ffffffffffffffffffffffffffffffffffffffff167f1f3dde93c44f27a9f416923b22c0dcd76b3ef122dbe77b19fc161a9dc0f2f1005f604051610880919061131b565b60405180910390a250565b5f3373ffffffffffffffffffffffffffffffffffffffff168473ffffffffffffffffffffffffffffffffffffffff161480610947575060015f8573ffffffffffffffffffffffffffffffffffffffff1673ffffffffffffffffffffffffffffffffffffffff1681526020019081526020015f205f3373ffffffffffffffffffffffffffffffffffffffff1673ffffffffffffffffffffffffffffffffffffffff1681526020019081526020015f205f9054906101000a900460ff165b610986576040517f08c379a000000000000000000000000000000000000000000000000000000000815260040161097d90611260565b60405180910390fd5b5f805f5b5f808873ffffffffffffffffffffffffffffffffffffffff1673ffffffffffffffffffffffffffffffffffffffff1681526020019081526020015f2080549050811015610b2557855f808973ffffffffffffffffffffffffffffffffffffffff1673ffffffffffffffffffffffffffffffffffffffff1681526020019081526020015f208281548110610a2057610a1f6114ff565b5b905f5260205f2090600502015f015410158015610a995750845f808973ffffffffffffffffffffffffffffffffffffffff1673ffffffffffffffffffffffffffffffffffffffff1681526020019081526020015f208281548110610a8757610a866114ff565b5b905f5260205f2090600502015f015411155b15610b18575f808873ffffffffffffffffffffffffffffffffffffffff1673ffffffffffffffffffffffffffffffffffffffff1681526020019081526020015f208181548110610aec57610aeb6114ff565b5b905f5260205f2090600502016001015483610b079190611559565b92508180610b149061158c565b9250505b808060010191505061098a565b505f8111610b68576040517f08c379a0000000000000000000000000000000000000000000000000000000008152600401610b5f9061161d565b60405180910390fd5b8082610b749190611668565b925050509392505050565b60055f9054906101000a900473ffffffffffffffffffffffffffffffffffffffff1673ffffffffffffffffffffffffffffffffffffffff163373ffffffffffffffffffffffffffffffffffffffff1614610c0e576040517f08c379a0000000000000000000000000000000000000000000000000000000008152600401610c05906114e1565b60405180910390fd5b8060048190555050565b60055f9054906101000a900473ffffffffffffffffffffffffffffffffffffffff1673ffffffffffffffffffffffffffffffffffffffff163373ffffffffffffffffffffffffffffffffffffffff1614610ca7576040517f08c379a0000000000000000000000000000000000000000000000000000000008152600401610c9e906114e1565b60405180910390fd5b600160025f8373ffffffffffffffffffffffffffffffffffffffff1673ffffffffffffffffffffffffffffffffffffffff1681526020019081526020015f205f6101000a81548160ff0219169083151502179055508073ffffffffffffffffffffffffffffffffffffffff167f1f3dde93c44f27a9f416923b22c0dcd76b3ef122dbe77b19fc161a9dc0f2f1006001604051610d43919061131b565b60405180910390a250565b5f803373ffffffffffffffffffffffffffffffffffffffff1673ffffffffffffffffffffffffffffffffffffffff1681526020019081526020015f20805490508110610dcf576040517f08c379a0000000000000000000000000000000000000000000000000000000008152600401610dc6906116e2565b60405180910390fd5b5f803373ffffffffffffffffffffffffffffffffffffffff1673ffffffffffffffffffffffffffffffffffffffff1681526020019081526020015f208181548110610e1d57610e1c6114ff565b5b905f5260205f2090600502015f8082015f9055600182015f9055600282015f9055600382015f9055600482015f9055505050565b5f80fd5b5f73ffffffffffffffffffffffffffffffffffffffff82169050919050565b5f610e7e82610e55565b9050919050565b610e8e81610e74565b8114610e98575f80fd5b50565b5f81359050610ea981610e85565b92915050565b5f60208284031215610ec457610ec3610e51565b5b5f610ed184828501610e9b565b91505092915050565b5f81519050919050565b5f82825260208201905092915050565b5f819050602082019050919050565b5f819050919050565b610f1581610f03565b82525050565b5f819050919050565b610f2d81610f1b565b82525050565b60a082015f820151610f475f850182610f0c565b506020820151610f5a6020850182610f0c565b506040820151610f6d6040850182610f24565b506060820151610f806060850182610f24565b506080820151610f936080850182610f24565b50505050565b5f610fa48383610f33565b60a08301905092915050565b5f602082019050919050565b5f610fc682610eda565b610fd08185610ee4565b9350610fdb83610ef4565b805f5b8381101561100b578151610ff28882610f99565b9750610ffd83610fb0565b925050600181019050610fde565b5085935050505092915050565b5f6020820190508181035f8301526110308184610fbc565b905092915050565b5f8115159050919050565b61104c81611038565b8114611056575f80fd5b50565b5f8135905061106781611043565b92915050565b5f806040838503121561108357611082610e51565b5b5f61109085828601610e9b565b92505060206110a185828601611059565b9150509250929050565b6110b481610f03565b81146110be575f80fd5b50565b5f813590506110cf816110ab565b92915050565b6110de81610f1b565b81146110e8575f80fd5b50565b5f813590506110f9816110d5565b92915050565b5f805f806080858703121561111757611116610e51565b5b5f611124878288016110c1565b9450506020611135878288016110eb565b9350506040611146878288016110eb565b9250506060611157878288016110eb565b91505092959194509250565b5f805f6060848603121561117a57611179610e51565b5b5f61118786828701610e9b565b9350506020611198868287016110c1565b92505060406111a9868287016110c1565b9150509250925092565b6111bc81610f03565b82525050565b5f6020820190506111d55f8301846111b3565b92915050565b5f602082840312156111f0576111ef610e51565b5b5f6111fd848285016110c1565b91505092915050565b5f82825260208201905092915050565b7f416363657373206e6f7420617574686f72697a656400000000000000000000005f82015250565b5f61124a601583611206565b915061125582611216565b602082019050919050565b5f6020820190508181035f8301526112778161123e565b9050919050565b7f4f6e6c79207468652070617469656e742063616e20706572666f726d207468695f8201527f7320616374696f6e000000000000000000000000000000000000000000000000602082015250565b5f6112d8602883611206565b91506112e38261127e565b604082019050919050565b5f6020820190508181035f830152611305816112cc565b9050919050565b61131581611038565b82525050565b5f60208201905061132e5f83018461130c565b92915050565b61133d81610e74565b82525050565b5f6040820190506113565f830185611334565b61136360208301846111b3565b9392505050565b5f8151905061137881611043565b92915050565b5f6020828403121561139357611392610e51565b5b5f6113a08482850161136a565b91505092915050565b7f526577617264207472616e73666572206661696c6564000000000000000000005f82015250565b5f6113dd601683611206565b91506113e8826113a9565b602082019050919050565b5f6020820190508181035f83015261140a816113d1565b9050919050565b61141a81610f1b565b82525050565b5f60a0820190506114335f8301886111b3565b61144060208301876111b3565b61144d6040830186611411565b61145a6060830185611411565b6114676080830184611411565b9695505050505050565b7f4f6e6c7920746865206f776e65722063616e20706572666f726d2074686973205f8201527f616374696f6e0000000000000000000000000000000000000000000000000000602082015250565b5f6114cb602683611206565b91506114d682611471565b604082019050919050565b5f6020820190508181035f8301526114f8816114bf565b9050919050565b7f4e487b71000000000000000000000000000000000000000000000000000000005f52603260045260245ffd5b7f4e487b71000000000000000000000000000000000000000000000000000000005f52601160045260245ffd5b5f61156382610f03565b915061156e83610f03565b92508282019050808211156115865761158561152c565b5b92915050565b5f61159682610f03565b91507fffffffffffffffffffffffffffffffffffffffffffffffffffffffffffffffff82036115c8576115c761152c565b5b600182019050919050565b7f4e6f206461746120696e20746865207370656369666965642072616e676500005f82015250565b5f611607601e83611206565b9150611612826115d3565b602082019050919050565b5f6020820190508181035f830152611634816115fb565b9050919050565b7f4e487b71000000000000000000000000000000000000000000000000000000005f52601260045260245ffd5b5f61167282610f03565b915061167d83610f03565b92508261168d5761168c61163b565b5b828204905092915050565b7f496e76616c696420696e646578000000000000000000000000000000000000005f82015250565b5f6116cc600d83611206565b91506116d782611698565b602082019050919050565b5f6020820190508181035f8301526116f9816116c0565b905091905056fea264697066735822122085c33dc876d3763b978b570fc0ff3630304ee49db56227a3df847f3d0708e45964736f6c634300081a0033",
					"opcodes": "PUSH1 0x80 PUSH1 0x40 MSTORE CALLVALUE DUP1 ISZERO PUSH2 0xF JUMPI PUSH0 DUP1 REVERT JUMPDEST POP PUSH1 0x40 MLOAD PUSH2 0x18D1 CODESIZE SUB DUP1 PUSH2 0x18D1 DUP4 CODECOPY DUP2 DUP2 ADD PUSH1 0x40 MSTORE DUP2 ADD SWAP1 PUSH2 0x31 SWAP2 SWAP1 PUSH2 0x150 JUMP JUMPDEST DUP2 PUSH1 0x3 PUSH0 PUSH2 0x100 EXP DUP2 SLOAD DUP2 PUSH20 0xFFFFFFFFFFFFFFFFFFFFFFFFFFFFFFFFFFFFFFFF MUL NOT AND SWAP1 DUP4 PUSH20 0xFFFFFFFFFFFFFFFFFFFFFFFFFFFFFFFFFFFFFFFF AND MUL OR SWAP1 SSTORE POP CALLER PUSH1 0x5 PUSH0 PUSH2 0x100 EXP DUP2 SLOAD DUP2 PUSH20 0xFFFFFFFFFFFFFFFFFFFFFFFFFFFFFFFFFFFFFFFF MUL NOT AND SWAP1 DUP4 PUSH20 0xFFFFFFFFFFFFFFFFFFFFFFFFFFFFFFFFFFFFFFFF AND MUL OR SWAP1 SSTORE POP DUP1 PUSH1 0x4 DUP2 SWAP1 SSTORE POP POP POP PUSH2 0x18E JUMP JUMPDEST PUSH0 DUP1 REVERT JUMPDEST PUSH0 PUSH20 0xFFFFFFFFFFFFFFFFFFFFFFFFFFFFFFFFFFFFFFFF DUP3 AND SWAP1 POP SWAP2 SWAP1 POP JUMP JUMPDEST PUSH0 PUSH2 0xEC DUP3 PUSH2 0xC3 JUMP JUMPDEST SWAP1 POP SWAP2 SWAP1 POP JUMP JUMPDEST PUSH2 0xFC DUP2 PUSH2 0xE2 JUMP JUMPDEST DUP2 EQ PUSH2 0x106 JUMPI PUSH0 DUP1 REVERT JUMPDEST POP JUMP JUMPDEST PUSH0 DUP2 MLOAD SWAP1 POP PUSH2 0x117 DUP2 PUSH2 0xF3 JUMP JUMPDEST SWAP3 SWAP2 POP POP JUMP JUMPDEST PUSH0 DUP2 SWAP1 POP SWAP2 SWAP1 POP JUMP JUMPDEST PUSH2 0x12F DUP2 PUSH2 0x11D JUMP JUMPDEST DUP2 EQ PUSH2 0x139 JUMPI PUSH0 DUP1 REVERT JUMPDEST POP JUMP JUMPDEST PUSH0 DUP2 MLOAD SWAP1 POP PUSH2 0x14A DUP2 PUSH2 0x126 JUMP JUMPDEST SWAP3 SWAP2 POP POP JUMP JUMPDEST PUSH0 DUP1 PUSH1 0x40 DUP4 DUP6 SUB SLT ISZERO PUSH2 0x166 JUMPI PUSH2 0x165 PUSH2 0xBF JUMP JUMPDEST JUMPDEST PUSH0 PUSH2 0x173 DUP6 DUP3 DUP7 ADD PUSH2 0x109 JUMP JUMPDEST SWAP3 POP POP PUSH1 0x20 PUSH2 0x184 DUP6 DUP3 DUP7 ADD PUSH2 0x13C JUMP JUMPDEST SWAP2 POP POP SWAP3 POP SWAP3 SWAP1 POP JUMP JUMPDEST PUSH2 0x1736 DUP1 PUSH2 0x19B PUSH0 CODECOPY PUSH0 RETURN INVALID PUSH1 0x80 PUSH1 0x40 MSTORE CALLVALUE DUP1 ISZERO PUSH2 0xF JUMPI PUSH0 DUP1 REVERT JUMPDEST POP PUSH1 0x4 CALLDATASIZE LT PUSH2 0x86 JUMPI PUSH0 CALLDATALOAD PUSH1 0xE0 SHR DUP1 PUSH4 0x9951664E GT PUSH2 0x59 JUMPI DUP1 PUSH4 0x9951664E EQ PUSH2 0x10E JUMPI DUP1 PUSH4 0xA8A65A78 EQ PUSH2 0x13E JUMPI DUP1 PUSH4 0xAABC4280 EQ PUSH2 0x15A JUMPI DUP1 PUSH4 0xD0AD1398 EQ PUSH2 0x176 JUMPI PUSH2 0x86 JUMP JUMPDEST DUP1 PUSH4 0x5C17521 EQ PUSH2 0x8A JUMPI DUP1 PUSH4 0xC66F928 EQ PUSH2 0xBA JUMPI DUP1 PUSH4 0x213156CC EQ PUSH2 0xD6 JUMPI DUP1 PUSH4 0x73B492FF EQ PUSH2 0xF2 JUMPI JUMPDEST PUSH0 DUP1 REVERT JUMPDEST PUSH2 0xA4 PUSH1 0x4 DUP1 CALLDATASIZE SUB DUP2 ADD SWAP1 PUSH2 0x9F SWAP2 SWAP1 PUSH2 0xEAF JUMP JUMPDEST PUSH2 0x192 JUMP JUMPDEST PUSH1 0x40 MLOAD PUSH2 0xB1 SWAP2 SWAP1 PUSH2 0x1018 JUMP JUMPDEST PUSH1 0x40 MLOAD DUP1 SWAP2 SUB SWAP1 RETURN JUMPDEST PUSH2 0xD4 PUSH1 0x4 DUP1 CALLDATASIZE SUB DUP2 ADD SWAP1 PUSH2 0xCF SWAP2 SWAP1 PUSH2 0x106D JUMP JUMPDEST PUSH2 0x3A6 JUMP JUMPDEST STOP JUMPDEST PUSH2 0xF0 PUSH1 0x4 DUP1 CALLDATASIZE SUB DUP2 ADD SWAP1 PUSH2 0xEB SWAP2 SWAP1 PUSH2 0x10FF JUMP JUMPDEST PUSH2 0x50E JUMP JUMPDEST STOP JUMPDEST PUSH2 0x10C PUSH1 0x4 DUP1 CALLDATASIZE SUB DUP2 ADD SWAP1 PUSH2 0x107 SWAP2 SWAP1 PUSH2 0xEAF JUMP JUMPDEST PUSH2 0x757 JUMP JUMPDEST STOP JUMPDEST PUSH2 0x128 PUSH1 0x4 DUP1 CALLDATASIZE SUB DUP2 ADD SWAP1 PUSH2 0x123 SWAP2 SWAP1 PUSH2 0x1163 JUMP JUMPDEST PUSH2 0x88B JUMP JUMPDEST PUSH1 0x40 MLOAD PUSH2 0x135 SWAP2 SWAP1 PUSH2 0x11C2 JUMP JUMPDEST PUSH1 0x40 MLOAD DUP1 SWAP2 SUB SWAP1 RETURN JUMPDEST PUSH2 0x158 PUSH1 0x4 DUP1 CALLDATASIZE SUB DUP2 ADD SWAP1 PUSH2 0x153 SWAP2 SWAP1 PUSH2 0x11DB JUMP JUMPDEST PUSH2 0xB7F JUMP JUMPDEST STOP JUMPDEST PUSH2 0x174 PUSH1 0x4 DUP1 CALLDATASIZE SUB DUP2 ADD SWAP1 PUSH2 0x16F SWAP2 SWAP1 PUSH2 0xEAF JUMP JUMPDEST PUSH2 0xC18 JUMP JUMPDEST STOP JUMPDEST PUSH2 0x190 PUSH1 0x4 DUP1 CALLDATASIZE SUB DUP2 ADD SWAP1 PUSH2 0x18B SWAP2 SWAP1 PUSH2 0x11DB JUMP JUMPDEST PUSH2 0xD4E JUMP JUMPDEST STOP JUMPDEST PUSH1 0x60 CALLER PUSH20 0xFFFFFFFFFFFFFFFFFFFFFFFFFFFFFFFFFFFFFFFF AND DUP3 PUSH20 0xFFFFFFFFFFFFFFFFFFFFFFFFFFFFFFFFFFFFFFFF AND EQ DUP1 PUSH2 0x24F JUMPI POP PUSH1 0x1 PUSH0 DUP4 PUSH20 0xFFFFFFFFFFFFFFFFFFFFFFFFFFFFFFFFFFFFFFFF AND PUSH20 0xFFFFFFFFFFFFFFFFFFFFFFFFFFFFFFFFFFFFFFFF AND DUP2 MSTORE PUSH1 0x20 ADD SWAP1 DUP2 MSTORE PUSH1 0x20 ADD PUSH0 KECCAK256 PUSH0 CALLER PUSH20 0xFFFFFFFFFFFFFFFFFFFFFFFFFFFFFFFFFFFFFFFF AND PUSH20 0xFFFFFFFFFFFFFFFFFFFFFFFFFFFFFFFFFFFFFFFF AND DUP2 MSTORE PUSH1 0x20 ADD SWAP1 DUP2 MSTORE PUSH1 0x20 ADD PUSH0 KECCAK256 PUSH0 SWAP1 SLOAD SWAP1 PUSH2 0x100 EXP SWAP1 DIV PUSH1 0xFF AND JUMPDEST DUP1 PUSH2 0x2A0 JUMPI POP PUSH1 0x2 PUSH0 CALLER PUSH20 0xFFFFFFFFFFFFFFFFFFFFFFFFFFFFFFFFFFFFFFFF AND PUSH20 0xFFFFFFFFFFFFFFFFFFFFFFFFFFFFFFFFFFFFFFFF AND DUP2 MSTORE PUSH1 0x20 ADD SWAP1 DUP2 MSTORE PUSH1 0x20 ADD PUSH0 KECCAK256 PUSH0 SWAP1 SLOAD SWAP1 PUSH2 0x100 EXP SWAP1 DIV PUSH1 0xFF AND JUMPDEST PUSH2 0x2DF JUMPI PUSH1 0x40 MLOAD PUSH32 0x8C379A000000000000000000000000000000000000000000000000000000000 DUP2 MSTORE PUSH1 0x4 ADD PUSH2 0x2D6 SWAP1 PUSH2 0x1260 JUMP JUMPDEST PUSH1 0x40 MLOAD DUP1 SWAP2 SUB SWAP1 REVERT JUMPDEST PUSH0 DUP1 DUP4 PUSH20 0xFFFFFFFFFFFFFFFFFFFFFFFFFFFFFFFFFFFFFFFF AND PUSH20 0xFFFFFFFFFFFFFFFFFFFFFFFFFFFFFFFFFFFFFFFF AND DUP2 MSTORE PUSH1 0x20 ADD SWAP1 DUP2 MSTORE PUSH1 0x20 ADD PUSH0 KECCAK256 DUP1 SLOAD DUP1 PUSH1 0x20 MUL PUSH1 0x20 ADD PUSH1 0x40 MLOAD SWAP1 DUP2 ADD PUSH1 0x40 MSTORE DUP1 SWAP3 SWAP2 SWAP1 DUP2 DUP2 MSTORE PUSH1 0x20 ADD PUSH0 SWAP1 JUMPDEST DUP3 DUP3 LT ISZERO PUSH2 0x39B JUMPI DUP4 DUP3 SWAP1 PUSH0 MSTORE PUSH1 0x20 PUSH0 KECCAK256 SWAP1 PUSH1 0x5 MUL ADD PUSH1 0x40 MLOAD DUP1 PUSH1 0xA0 ADD PUSH1 0x40 MSTORE SWAP1 DUP2 PUSH0 DUP3 ADD SLOAD DUP2 MSTORE PUSH1 0x20 ADD PUSH1 0x1 DUP3 ADD SLOAD DUP2 MSTORE PUSH1 0x20 ADD PUSH1 0x2 DUP3 ADD SLOAD DUP2 MSTORE PUSH1 0x20 ADD PUSH1 0x3 DUP3 ADD SLOAD DUP2 MSTORE PUSH1 0x20 ADD PUSH1 0x4 DUP3 ADD SLOAD DUP2 MSTORE POP POP DUP2 MSTORE PUSH1 0x20 ADD SWAP1 PUSH1 0x1 ADD SWAP1 PUSH2 0x33A JUMP JUMPDEST POP POP POP POP SWAP1 POP SWAP2 SWAP1 POP JUMP JUMPDEST CALLER CALLER PUSH20 0xFFFFFFFFFFFFFFFFFFFFFFFFFFFFFFFFFFFFFFFF AND DUP2 PUSH20 0xFFFFFFFFFFFFFFFFFFFFFFFFFFFFFFFFFFFFFFFF AND EQ PUSH2 0x415 JUMPI PUSH1 0x40 MLOAD PUSH32 0x8C379A000000000000000000000000000000000000000000000000000000000 DUP2 MSTORE PUSH1 0x4 ADD PUSH2 0x40C SWAP1 PUSH2 0x12EE JUMP JUMPDEST PUSH1 0x40 MLOAD DUP1 SWAP2 SUB SWAP1 REVERT JUMPDEST DUP2 PUSH1 0x1 PUSH0 CALLER PUSH20 0xFFFFFFFFFFFFFFFFFFFFFFFFFFFFFFFFFFFFFFFF AND PUSH20 0xFFFFFFFFFFFFFFFFFFFFFFFFFFFFFFFFFFFFFFFF AND DUP2 MSTORE PUSH1 0x20 ADD SWAP1 DUP2 MSTORE PUSH1 0x20 ADD PUSH0 KECCAK256 PUSH0 DUP6 PUSH20 0xFFFFFFFFFFFFFFFFFFFFFFFFFFFFFFFFFFFFFFFF AND PUSH20 0xFFFFFFFFFFFFFFFFFFFFFFFFFFFFFFFFFFFFFFFF AND DUP2 MSTORE PUSH1 0x20 ADD SWAP1 DUP2 MSTORE PUSH1 0x20 ADD PUSH0 KECCAK256 PUSH0 PUSH2 0x100 EXP DUP2 SLOAD DUP2 PUSH1 0xFF MUL NOT AND SWAP1 DUP4 ISZERO ISZERO MUL OR SWAP1 SSTORE POP DUP3 PUSH20 0xFFFFFFFFFFFFFFFFFFFFFFFFFFFFFFFFFFFFFFFF AND CALLER PUSH20 0xFFFFFFFFFFFFFFFFFFFFFFFFFFFFFFFFFFFFFFFF AND PUSH32 0x5B273BA4EB5DB97AF8506CC6E94CD82ED91395089A5C5012479F42B23D8248EE DUP5 PUSH1 0x40 MLOAD PUSH2 0x501 SWAP2 SWAP1 PUSH2 0x131B JUMP JUMPDEST PUSH1 0x40 MLOAD DUP1 SWAP2 SUB SWAP1 LOG3 POP POP POP JUMP JUMPDEST PUSH0 PUSH1 0x40 MLOAD DUP1 PUSH1 0xA0 ADD PUSH1 0x40 MSTORE DUP1 TIMESTAMP DUP2 MSTORE PUSH1 0x20 ADD DUP7 DUP2 MSTORE PUSH1 0x20 ADD DUP6 DUP2 MSTORE PUSH1 0x20 ADD DUP5 DUP2 MSTORE PUSH1 0x20 ADD DUP4 DUP2 MSTORE POP SWAP1 POP PUSH0 DUP1 CALLER PUSH20 0xFFFFFFFFFFFFFFFFFFFFFFFFFFFFFFFFFFFFFFFF AND PUSH20 0xFFFFFFFFFFFFFFFFFFFFFFFFFFFFFFFFFFFFFFFF AND DUP2 MSTORE PUSH1 0x20 ADD SWAP1 DUP2 MSTORE PUSH1 0x20 ADD PUSH0 KECCAK256 DUP2 SWAP1 DUP1 PUSH1 0x1 DUP2 SLOAD ADD DUP1 DUP3 SSTORE DUP1 SWAP2 POP POP PUSH1 0x1 SWAP1 SUB SWAP1 PUSH0 MSTORE PUSH1 0x20 PUSH0 KECCAK256 SWAP1 PUSH1 0x5 MUL ADD PUSH0 SWAP1 SWAP2 SWAP1 SWAP2 SWAP1 SWAP2 POP PUSH0 DUP3 ADD MLOAD DUP2 PUSH0 ADD SSTORE PUSH1 0x20 DUP3 ADD MLOAD DUP2 PUSH1 0x1 ADD SSTORE PUSH1 0x40 DUP3 ADD MLOAD DUP2 PUSH1 0x2 ADD SSTORE PUSH1 0x60 DUP3 ADD MLOAD DUP2 PUSH1 0x3 ADD SSTORE PUSH1 0x80 DUP3 ADD MLOAD DUP2 PUSH1 0x4 ADD SSTORE POP POP PUSH1 0x3 PUSH0 SWAP1 SLOAD SWAP1 PUSH2 0x100 EXP SWAP1 DIV PUSH20 0xFFFFFFFFFFFFFFFFFFFFFFFFFFFFFFFFFFFFFFFF AND PUSH20 0xFFFFFFFFFFFFFFFFFFFFFFFFFFFFFFFFFFFFFFFF AND PUSH4 0xA9059CBB CALLER PUSH1 0x4 SLOAD PUSH1 0x40 MLOAD DUP4 PUSH4 0xFFFFFFFF AND PUSH1 0xE0 SHL DUP2 MSTORE PUSH1 0x4 ADD PUSH2 0x62B SWAP3 SWAP2 SWAP1 PUSH2 0x1343 JUMP JUMPDEST PUSH1 0x20 PUSH1 0x40 MLOAD DUP1 DUP4 SUB DUP2 PUSH0 DUP8 GAS CALL ISZERO DUP1 ISZERO PUSH2 0x647 JUMPI RETURNDATASIZE PUSH0 DUP1 RETURNDATACOPY RETURNDATASIZE PUSH0 REVERT JUMPDEST POP POP POP POP PUSH1 0x40 MLOAD RETURNDATASIZE PUSH1 0x1F NOT PUSH1 0x1F DUP3 ADD AND DUP3 ADD DUP1 PUSH1 0x40 MSTORE POP DUP2 ADD SWAP1 PUSH2 0x66B SWAP2 SWAP1 PUSH2 0x137E JUMP JUMPDEST PUSH2 0x6AA JUMPI PUSH1 0x40 MLOAD PUSH32 0x8C379A000000000000000000000000000000000000000000000000000000000 DUP2 MSTORE PUSH1 0x4 ADD PUSH2 0x6A1 SWAP1 PUSH2 0x13F3 JUMP JUMPDEST PUSH1 0x40 MLOAD DUP1 SWAP2 SUB SWAP1 REVERT JUMPDEST CALLER PUSH20 0xFFFFFFFFFFFFFFFFFFFFFFFFFFFFFFFFFFFFFFFF AND PUSH32 0xF9B6EC770C96C3A6F9225BF3A8463A8AD03E884448AF07B4ECD4D19D628946EE PUSH1 0x4 SLOAD PUSH1 0x40 MLOAD PUSH2 0x6F2 SWAP2 SWAP1 PUSH2 0x11C2 JUMP JUMPDEST PUSH1 0x40 MLOAD DUP1 SWAP2 SUB SWAP1 LOG2 CALLER PUSH20 0xFFFFFFFFFFFFFFFFFFFFFFFFFFFFFFFFFFFFFFFF AND PUSH32 0xE3B524E09AF637DA904F489285231E36FE28049D1739EA6147B9EDBB73BFEC78 TIMESTAMP DUP8 DUP8 DUP8 DUP8 PUSH1 0x40 MLOAD PUSH2 0x748 SWAP6 SWAP5 SWAP4 SWAP3 SWAP2 SWAP1 PUSH2 0x1420 JUMP JUMPDEST PUSH1 0x40 MLOAD DUP1 SWAP2 SUB SWAP1 LOG2 POP POP POP POP POP JUMP JUMPDEST PUSH1 0x5 PUSH0 SWAP1 SLOAD SWAP1 PUSH2 0x100 EXP SWAP1 DIV PUSH20 0xFFFFFFFFFFFFFFFFFFFFFFFFFFFFFFFFFFFFFFFF AND PUSH20 0xFFFFFFFFFFFFFFFFFFFFFFFFFFFFFFFFFFFFFFFF AND CALLER PUSH20 0xFFFFFFFFFFFFFFFFFFFFFFFFFFFFFFFFFFFFFFFF AND EQ PUSH2 0x7E6 JUMPI PUSH1 0x40 MLOAD PUSH32 0x8C379A000000000000000000000000000000000000000000000000000000000 DUP2 MSTORE PUSH1 0x4 ADD PUSH2 0x7DD SWAP1 PUSH2 0x14E1 JUMP JUMPDEST PUSH1 0x40 MLOAD DUP1 SWAP2 SUB SWAP1 REVERT JUMPDEST PUSH0 PUSH1 0x2 PUSH0 DUP4 PUSH20 0xFFFFFFFFFFFFFFFFFFFFFFFFFFFFFFFFFFFFFFFF AND PUSH20 0xFFFFFFFFFFFFFFFFFFFFFFFFFFFFFFFFFFFFFFFF AND DUP2 MSTORE PUSH1 0x20 ADD SWAP1 DUP2 MSTORE PUSH1 0x20 ADD PUSH0 KECCAK256 PUSH0 PUSH2 0x100 EXP DUP2 SLOAD DUP2 PUSH1 0xFF MUL NOT AND SWAP1 DUP4 ISZERO ISZERO MUL OR SWAP1 SSTORE POP DUP1 PUSH20 0xFFFFFFFFFFFFFFFFFFFFFFFFFFFFFFFFFFFFFFFF AND PUSH32 0x1F3DDE93C44F27A9F416923B22C0DCD76B3EF122DBE77B19FC161A9DC0F2F100 PUSH0 PUSH1 0x40 MLOAD PUSH2 0x880 SWAP2 SWAP1 PUSH2 0x131B JUMP JUMPDEST PUSH1 0x40 MLOAD DUP1 SWAP2 SUB SWAP1 LOG2 POP JUMP JUMPDEST PUSH0 CALLER PUSH20 0xFFFFFFFFFFFFFFFFFFFFFFFFFFFFFFFFFFFFFFFF AND DUP5 PUSH20 0xFFFFFFFFFFFFFFFFFFFFFFFFFFFFFFFFFFFFFFFF AND EQ DUP1 PUSH2 0x947 JUMPI POP PUSH1 0x1 PUSH0 DUP6 PUSH20 0xFFFFFFFFFFFFFFFFFFFFFFFFFFFFFFFFFFFFFFFF AND PUSH20 0xFFFFFFFFFFFFFFFFFFFFFFFFFFFFFFFFFFFFFFFF AND DUP2 MSTORE PUSH1 0x20 ADD SWAP1 DUP2 MSTORE PUSH1 0x20 ADD PUSH0 KECCAK256 PUSH0 CALLER PUSH20 0xFFFFFFFFFFFFFFFFFFFFFFFFFFFFFFFFFFFFFFFF AND PUSH20 0xFFFFFFFFFFFFFFFFFFFFFFFFFFFFFFFFFFFFFFFF AND DUP2 MSTORE PUSH1 0x20 ADD SWAP1 DUP2 MSTORE PUSH1 0x20 ADD PUSH0 KECCAK256 PUSH0 SWAP1 SLOAD SWAP1 PUSH2 0x100 EXP SWAP1 DIV PUSH1 0xFF AND JUMPDEST PUSH2 0x986 JUMPI PUSH1 0x40 MLOAD PUSH32 0x8C379A000000000000000000000000000000000000000000000000000000000 DUP2 MSTORE PUSH1 0x4 ADD PUSH2 0x97D SWAP1 PUSH2 0x1260 JUMP JUMPDEST PUSH1 0x40 MLOAD DUP1 SWAP2 SUB SWAP1 REVERT JUMPDEST PUSH0 DUP1 PUSH0 JUMPDEST PUSH0 DUP1 DUP9 PUSH20 0xFFFFFFFFFFFFFFFFFFFFFFFFFFFFFFFFFFFFFFFF AND PUSH20 0xFFFFFFFFFFFFFFFFFFFFFFFFFFFFFFFFFFFFFFFF AND DUP2 MSTORE PUSH1 0x20 ADD SWAP1 DUP2 MSTORE PUSH1 0x20 ADD PUSH0 KECCAK256 DUP1 SLOAD SWAP1 POP DUP2 LT ISZERO PUSH2 0xB25 JUMPI DUP6 PUSH0 DUP1 DUP10 PUSH20 0xFFFFFFFFFFFFFFFFFFFFFFFFFFFFFFFFFFFFFFFF AND PUSH20 0xFFFFFFFFFFFFFFFFFFFFFFFFFFFFFFFFFFFFFFFF AND DUP2 MSTORE PUSH1 0x20 ADD SWAP1 DUP2 MSTORE PUSH1 0x20 ADD PUSH0 KECCAK256 DUP3 DUP2 SLOAD DUP2 LT PUSH2 0xA20 JUMPI PUSH2 0xA1F PUSH2 0x14FF JUMP JUMPDEST JUMPDEST SWAP1 PUSH0 MSTORE PUSH1 0x20 PUSH0 KECCAK256 SWAP1 PUSH1 0x5 MUL ADD PUSH0 ADD SLOAD LT ISZERO DUP1 ISZERO PUSH2 0xA99 JUMPI POP DUP5 PUSH0 DUP1 DUP10 PUSH20 0xFFFFFFFFFFFFFFFFFFFFFFFFFFFFFFFFFFFFFFFF AND PUSH20 0xFFFFFFFFFFFFFFFFFFFFFFFFFFFFFFFFFFFFFFFF AND DUP2 MSTORE PUSH1 0x20 ADD SWAP1 DUP2 MSTORE PUSH1 0x20 ADD PUSH0 KECCAK256 DUP3 DUP2 SLOAD DUP2 LT PUSH2 0xA87 JUMPI PUSH2 0xA86 PUSH2 0x14FF JUMP JUMPDEST JUMPDEST SWAP1 PUSH0 MSTORE PUSH1 0x20 PUSH0 KECCAK256 SWAP1 PUSH1 0x5 MUL ADD PUSH0 ADD SLOAD GT ISZERO JUMPDEST ISZERO PUSH2 0xB18 JUMPI PUSH0 DUP1 DUP9 PUSH20 0xFFFFFFFFFFFFFFFFFFFFFFFFFFFFFFFFFFFFFFFF AND PUSH20 0xFFFFFFFFFFFFFFFFFFFFFFFFFFFFFFFFFFFFFFFF AND DUP2 MSTORE PUSH1 0x20 ADD SWAP1 DUP2 MSTORE PUSH1 0x20 ADD PUSH0 KECCAK256 DUP2 DUP2 SLOAD DUP2 LT PUSH2 0xAEC JUMPI PUSH2 0xAEB PUSH2 0x14FF JUMP JUMPDEST JUMPDEST SWAP1 PUSH0 MSTORE PUSH1 0x20 PUSH0 KECCAK256 SWAP1 PUSH1 0x5 MUL ADD PUSH1 0x1 ADD SLOAD DUP4 PUSH2 0xB07 SWAP2 SWAP1 PUSH2 0x1559 JUMP JUMPDEST SWAP3 POP DUP2 DUP1 PUSH2 0xB14 SWAP1 PUSH2 0x158C JUMP JUMPDEST SWAP3 POP POP JUMPDEST DUP1 DUP1 PUSH1 0x1 ADD SWAP2 POP POP PUSH2 0x98A JUMP JUMPDEST POP PUSH0 DUP2 GT PUSH2 0xB68 JUMPI PUSH1 0x40 MLOAD PUSH32 0x8C379A000000000000000000000000000000000000000000000000000000000 DUP2 MSTORE PUSH1 0x4 ADD PUSH2 0xB5F SWAP1 PUSH2 0x161D JUMP JUMPDEST PUSH1 0x40 MLOAD DUP1 SWAP2 SUB SWAP1 REVERT JUMPDEST DUP1 DUP3 PUSH2 0xB74 SWAP2 SWAP1 PUSH2 0x1668 JUMP JUMPDEST SWAP3 POP POP POP SWAP4 SWAP3 POP POP POP JUMP JUMPDEST PUSH1 0x5 PUSH0 SWAP1 SLOAD SWAP1 PUSH2 0x100 EXP SWAP1 DIV PUSH20 0xFFFFFFFFFFFFFFFFFFFFFFFFFFFFFFFFFFFFFFFF AND PUSH20 0xFFFFFFFFFFFFFFFFFFFFFFFFFFFFFFFFFFFFFFFF AND CALLER PUSH20 0xFFFFFFFFFFFFFFFFFFFFFFFFFFFFFFFFFFFFFFFF AND EQ PUSH2 0xC0E JUMPI PUSH1 0x40 MLOAD PUSH32 0x8C379A000000000000000000000000000000000000000000000000000000000 DUP2 MSTORE PUSH1 0x4 ADD PUSH2 0xC05 SWAP1 PUSH2 0x14E1 JUMP JUMPDEST PUSH1 0x40 MLOAD DUP1 SWAP2 SUB SWAP1 REVERT JUMPDEST DUP1 PUSH1 0x4 DUP2 SWAP1 SSTORE POP POP JUMP JUMPDEST PUSH1 0x5 PUSH0 SWAP1 SLOAD SWAP1 PUSH2 0x100 EXP SWAP1 DIV PUSH20 0xFFFFFFFFFFFFFFFFFFFFFFFFFFFFFFFFFFFFFFFF AND PUSH20 0xFFFFFFFFFFFFFFFFFFFFFFFFFFFFFFFFFFFFFFFF AND CALLER PUSH20 0xFFFFFFFFFFFFFFFFFFFFFFFFFFFFFFFFFFFFFFFF AND EQ PUSH2 0xCA7 JUMPI PUSH1 0x40 MLOAD PUSH32 0x8C379A000000000000000000000000000000000000000000000000000000000 DUP2 MSTORE PUSH1 0x4 ADD PUSH2 0xC9E SWAP1 PUSH2 0x14E1 JUMP JUMPDEST PUSH1 0x40 MLOAD DUP1 SWAP2 SUB SWAP1 REVERT JUMPDEST PUSH1 0x1 PUSH1 0x2 PUSH0 DUP4 PUSH20 0xFFFFFFFFFFFFFFFFFFFFFFFFFFFFFFFFFFFFFFFF AND PUSH20 0xFFFFFFFFFFFFFFFFFFFFFFFFFFFFFFFFFFFFFFFF AND DUP2 MSTORE PUSH1 0x20 ADD SWAP1 DUP2 MSTORE PUSH1 0x20 ADD PUSH0 KECCAK256 PUSH0 PUSH2 0x100 EXP DUP2 SLOAD DUP2 PUSH1 0xFF MUL NOT AND SWAP1 DUP4 ISZERO ISZERO MUL OR SWAP1 SSTORE POP DUP1 PUSH20 0xFFFFFFFFFFFFFFFFFFFFFFFFFFFFFFFFFFFFFFFF AND PUSH32 0x1F3DDE93C44F27A9F416923B22C0DCD76B3EF122DBE77B19FC161A9DC0F2F100 PUSH1 0x1 PUSH1 0x40 MLOAD PUSH2 0xD43 SWAP2 SWAP1 PUSH2 0x131B JUMP JUMPDEST PUSH1 0x40 MLOAD DUP1 SWAP2 SUB SWAP1 LOG2 POP JUMP JUMPDEST PUSH0 DUP1 CALLER PUSH20 0xFFFFFFFFFFFFFFFFFFFFFFFFFFFFFFFFFFFFFFFF AND PUSH20 0xFFFFFFFFFFFFFFFFFFFFFFFFFFFFFFFFFFFFFFFF AND DUP2 MSTORE PUSH1 0x20 ADD SWAP1 DUP2 MSTORE PUSH1 0x20 ADD PUSH0 KECCAK256 DUP1 SLOAD SWAP1 POP DUP2 LT PUSH2 0xDCF JUMPI PUSH1 0x40 MLOAD PUSH32 0x8C379A000000000000000000000000000000000000000000000000000000000 DUP2 MSTORE PUSH1 0x4 ADD PUSH2 0xDC6 SWAP1 PUSH2 0x16E2 JUMP JUMPDEST PUSH1 0x40 MLOAD DUP1 SWAP2 SUB SWAP1 REVERT JUMPDEST PUSH0 DUP1 CALLER PUSH20 0xFFFFFFFFFFFFFFFFFFFFFFFFFFFFFFFFFFFFFFFF AND PUSH20 0xFFFFFFFFFFFFFFFFFFFFFFFFFFFFFFFFFFFFFFFF AND DUP2 MSTORE PUSH1 0x20 ADD SWAP1 DUP2 MSTORE PUSH1 0x20 ADD PUSH0 KECCAK256 DUP2 DUP2 SLOAD DUP2 LT PUSH2 0xE1D JUMPI PUSH2 0xE1C PUSH2 0x14FF JUMP JUMPDEST JUMPDEST SWAP1 PUSH0 MSTORE PUSH1 0x20 PUSH0 KECCAK256 SWAP1 PUSH1 0x5 MUL ADD PUSH0 DUP1 DUP3 ADD PUSH0 SWAP1 SSTORE PUSH1 0x1 DUP3 ADD PUSH0 SWAP1 SSTORE PUSH1 0x2 DUP3 ADD PUSH0 SWAP1 SSTORE PUSH1 0x3 DUP3 ADD PUSH0 SWAP1 SSTORE PUSH1 0x4 DUP3 ADD PUSH0 SWAP1 SSTORE POP POP POP JUMP JUMPDEST PUSH0 DUP1 REVERT JUMPDEST PUSH0 PUSH20 0xFFFFFFFFFFFFFFFFFFFFFFFFFFFFFFFFFFFFFFFF DUP3 AND SWAP1 POP SWAP2 SWAP1 POP JUMP JUMPDEST PUSH0 PUSH2 0xE7E DUP3 PUSH2 0xE55 JUMP JUMPDEST SWAP1 POP SWAP2 SWAP1 POP JUMP JUMPDEST PUSH2 0xE8E DUP2 PUSH2 0xE74 JUMP JUMPDEST DUP2 EQ PUSH2 0xE98 JUMPI PUSH0 DUP1 REVERT JUMPDEST POP JUMP JUMPDEST PUSH0 DUP2 CALLDATALOAD SWAP1 POP PUSH2 0xEA9 DUP2 PUSH2 0xE85 JUMP JUMPDEST SWAP3 SWAP2 POP POP JUMP JUMPDEST PUSH0 PUSH1 0x20 DUP3 DUP5 SUB SLT ISZERO PUSH2 0xEC4 JUMPI PUSH2 0xEC3 PUSH2 0xE51 JUMP JUMPDEST JUMPDEST PUSH0 PUSH2 0xED1 DUP5 DUP3 DUP6 ADD PUSH2 0xE9B JUMP JUMPDEST SWAP2 POP POP SWAP3 SWAP2 POP POP JUMP JUMPDEST PUSH0 DUP2 MLOAD SWAP1 POP SWAP2 SWAP1 POP JUMP JUMPDEST PUSH0 DUP3 DUP3 MSTORE PUSH1 0x20 DUP3 ADD SWAP1 POP SWAP3 SWAP2 POP POP JUMP JUMPDEST PUSH0 DUP2 SWAP1 POP PUSH1 0x20 DUP3 ADD SWAP1 POP SWAP2 SWAP1 POP JUMP JUMPDEST PUSH0 DUP2 SWAP1 POP SWAP2 SWAP1 POP JUMP JUMPDEST PUSH2 0xF15 DUP2 PUSH2 0xF03 JUMP JUMPDEST DUP3 MSTORE POP POP JUMP JUMPDEST PUSH0 DUP2 SWAP1 POP SWAP2 SWAP1 POP JUMP JUMPDEST PUSH2 0xF2D DUP2 PUSH2 0xF1B JUMP JUMPDEST DUP3 MSTORE POP POP JUMP JUMPDEST PUSH1 0xA0 DUP3 ADD PUSH0 DUP3 ADD MLOAD PUSH2 0xF47 PUSH0 DUP6 ADD DUP3 PUSH2 0xF0C JUMP JUMPDEST POP PUSH1 0x20 DUP3 ADD MLOAD PUSH2 0xF5A PUSH1 0x20 DUP6 ADD DUP3 PUSH2 0xF0C JUMP JUMPDEST POP PUSH1 0x40 DUP3 ADD MLOAD PUSH2 0xF6D PUSH1 0x40 DUP6 ADD DUP3 PUSH2 0xF24 JUMP JUMPDEST POP PUSH1 0x60 DUP3 ADD MLOAD PUSH2 0xF80 PUSH1 0x60 DUP6 ADD DUP3 PUSH2 0xF24 JUMP JUMPDEST POP PUSH1 0x80 DUP3 ADD MLOAD PUSH2 0xF93 PUSH1 0x80 DUP6 ADD DUP3 PUSH2 0xF24 JUMP JUMPDEST POP POP POP POP JUMP JUMPDEST PUSH0 PUSH2 0xFA4 DUP4 DUP4 PUSH2 0xF33 JUMP JUMPDEST PUSH1 0xA0 DUP4 ADD SWAP1 POP SWAP3 SWAP2 POP POP JUMP JUMPDEST PUSH0 PUSH1 0x20 DUP3 ADD SWAP1 POP SWAP2 SWAP1 POP JUMP JUMPDEST PUSH0 PUSH2 0xFC6 DUP3 PUSH2 0xEDA JUMP JUMPDEST PUSH2 0xFD0 DUP2 DUP6 PUSH2 0xEE4 JUMP JUMPDEST SWAP4 POP PUSH2 0xFDB DUP4 PUSH2 0xEF4 JUMP JUMPDEST DUP1 PUSH0 JUMPDEST DUP4 DUP2 LT ISZERO PUSH2 0x100B JUMPI DUP2 MLOAD PUSH2 0xFF2 DUP9 DUP3 PUSH2 0xF99 JUMP JUMPDEST SWAP8 POP PUSH2 0xFFD DUP4 PUSH2 0xFB0 JUMP JUMPDEST SWAP3 POP POP PUSH1 0x1 DUP2 ADD SWAP1 POP PUSH2 0xFDE JUMP JUMPDEST POP DUP6 SWAP4 POP POP POP POP SWAP3 SWAP2 POP POP JUMP JUMPDEST PUSH0 PUSH1 0x20 DUP3 ADD SWAP1 POP DUP2 DUP2 SUB PUSH0 DUP4 ADD MSTORE PUSH2 0x1030 DUP2 DUP5 PUSH2 0xFBC JUMP JUMPDEST SWAP1 POP SWAP3 SWAP2 POP POP JUMP JUMPDEST PUSH0 DUP2 ISZERO ISZERO SWAP1 POP SWAP2 SWAP1 POP JUMP JUMPDEST PUSH2 0x104C DUP2 PUSH2 0x1038 JUMP JUMPDEST DUP2 EQ PUSH2 0x1056 JUMPI PUSH0 DUP1 REVERT JUMPDEST POP JUMP JUMPDEST PUSH0 DUP2 CALLDATALOAD SWAP1 POP PUSH2 0x1067 DUP2 PUSH2 0x1043 JUMP JUMPDEST SWAP3 SWAP2 POP POP JUMP JUMPDEST PUSH0 DUP1 PUSH1 0x40 DUP4 DUP6 SUB SLT ISZERO PUSH2 0x1083 JUMPI PUSH2 0x1082 PUSH2 0xE51 JUMP JUMPDEST JUMPDEST PUSH0 PUSH2 0x1090 DUP6 DUP3 DUP7 ADD PUSH2 0xE9B JUMP JUMPDEST SWAP3 POP POP PUSH1 0x20 PUSH2 0x10A1 DUP6 DUP3 DUP7 ADD PUSH2 0x1059 JUMP JUMPDEST SWAP2 POP POP SWAP3 POP SWAP3 SWAP1 POP JUMP JUMPDEST PUSH2 0x10B4 DUP2 PUSH2 0xF03 JUMP JUMPDEST DUP2 EQ PUSH2 0x10BE JUMPI PUSH0 DUP1 REVERT JUMPDEST POP JUMP JUMPDEST PUSH0 DUP2 CALLDATALOAD SWAP1 POP PUSH2 0x10CF DUP2 PUSH2 0x10AB JUMP JUMPDEST SWAP3 SWAP2 POP POP JUMP JUMPDEST PUSH2 0x10DE DUP2 PUSH2 0xF1B JUMP JUMPDEST DUP2 EQ PUSH2 0x10E8 JUMPI PUSH0 DUP1 REVERT JUMPDEST POP JUMP JUMPDEST PUSH0 DUP2 CALLDATALOAD SWAP1 POP PUSH2 0x10F9 DUP2 PUSH2 0x10D5 JUMP JUMPDEST SWAP3 SWAP2 POP POP JUMP JUMPDEST PUSH0 DUP1 PUSH0 DUP1 PUSH1 0x80 DUP6 DUP8 SUB SLT ISZERO PUSH2 0x1117 JUMPI PUSH2 0x1116 PUSH2 0xE51 JUMP JUMPDEST JUMPDEST PUSH0 PUSH2 0x1124 DUP8 DUP3 DUP9 ADD PUSH2 0x10C1 JUMP JUMPDEST SWAP5 POP POP PUSH1 0x20 PUSH2 0x1135 DUP8 DUP3 DUP9 ADD PUSH2 0x10EB JUMP JUMPDEST SWAP4 POP POP PUSH1 0x40 PUSH2 0x1146 DUP8 DUP3 DUP9 ADD PUSH2 0x10EB JUMP JUMPDEST SWAP3 POP POP PUSH1 0x60 PUSH2 0x1157 DUP8 DUP3 DUP9 ADD PUSH2 0x10EB JUMP JUMPDEST SWAP2 POP POP SWAP3 SWAP6 SWAP2 SWAP5 POP SWAP3 POP JUMP JUMPDEST PUSH0 DUP1 PUSH0 PUSH1 0x60 DUP5 DUP7 SUB SLT ISZERO PUSH2 0x117A JUMPI PUSH2 0x1179 PUSH2 0xE51 JUMP JUMPDEST JUMPDEST PUSH0 PUSH2 0x1187 DUP7 DUP3 DUP8 ADD PUSH2 0xE9B JUMP JUMPDEST SWAP4 POP POP PUSH1 0x20 PUSH2 0x1198 DUP7 DUP3 DUP8 ADD PUSH2 0x10C1 JUMP JUMPDEST SWAP3 POP POP PUSH1 0x40 PUSH2 0x11A9 DUP7 DUP3 DUP8 ADD PUSH2 0x10C1 JUMP JUMPDEST SWAP2 POP POP SWAP3 POP SWAP3 POP SWAP3 JUMP JUMPDEST PUSH2 0x11BC DUP2 PUSH2 0xF03 JUMP JUMPDEST DUP3 MSTORE POP POP JUMP JUMPDEST PUSH0 PUSH1 0x20 DUP3 ADD SWAP1 POP PUSH2 0x11D5 PUSH0 DUP4 ADD DUP5 PUSH2 0x11B3 JUMP JUMPDEST SWAP3 SWAP2 POP POP JUMP JUMPDEST PUSH0 PUSH1 0x20 DUP3 DUP5 SUB SLT ISZERO PUSH2 0x11F0 JUMPI PUSH2 0x11EF PUSH2 0xE51 JUMP JUMPDEST JUMPDEST PUSH0 PUSH2 0x11FD DUP5 DUP3 DUP6 ADD PUSH2 0x10C1 JUMP JUMPDEST SWAP2 POP POP SWAP3 SWAP2 POP POP JUMP JUMPDEST PUSH0 DUP3 DUP3 MSTORE PUSH1 0x20 DUP3 ADD SWAP1 POP SWAP3 SWAP2 POP POP JUMP JUMPDEST PUSH32 0x416363657373206E6F7420617574686F72697A65640000000000000000000000 PUSH0 DUP3 ADD MSTORE POP JUMP JUMPDEST PUSH0 PUSH2 0x124A PUSH1 0x15 DUP4 PUSH2 0x1206 JUMP JUMPDEST SWAP2 POP PUSH2 0x1255 DUP3 PUSH2 0x1216 JUMP JUMPDEST PUSH1 0x20 DUP3 ADD SWAP1 POP SWAP2 SWAP1 POP JUMP JUMPDEST PUSH0 PUSH1 0x20 DUP3 ADD SWAP1 POP DUP2 DUP2 SUB PUSH0 DUP4 ADD MSTORE PUSH2 0x1277 DUP2 PUSH2 0x123E JUMP JUMPDEST SWAP1 POP SWAP2 SWAP1 POP JUMP JUMPDEST PUSH32 0x4F6E6C79207468652070617469656E742063616E20706572666F726D20746869 PUSH0 DUP3 ADD MSTORE PUSH32 0x7320616374696F6E000000000000000000000000000000000000000000000000 PUSH1 0x20 DUP3 ADD MSTORE POP JUMP JUMPDEST PUSH0 PUSH2 0x12D8 PUSH1 0x28 DUP4 PUSH2 0x1206 JUMP JUMPDEST SWAP2 POP PUSH2 0x12E3 DUP3 PUSH2 0x127E JUMP JUMPDEST PUSH1 0x40 DUP3 ADD SWAP1 POP SWAP2 SWAP1 POP JUMP JUMPDEST PUSH0 PUSH1 0x20 DUP3 ADD SWAP1 POP DUP2 DUP2 SUB PUSH0 DUP4 ADD MSTORE PUSH2 0x1305 DUP2 PUSH2 0x12CC JUMP JUMPDEST SWAP1 POP SWAP2 SWAP1 POP JUMP JUMPDEST PUSH2 0x1315 DUP2 PUSH2 0x1038 JUMP JUMPDEST DUP3 MSTORE POP POP JUMP JUMPDEST PUSH0 PUSH1 0x20 DUP3 ADD SWAP1 POP PUSH2 0x132E PUSH0 DUP4 ADD DUP5 PUSH2 0x130C JUMP JUMPDEST SWAP3 SWAP2 POP POP JUMP JUMPDEST PUSH2 0x133D DUP2 PUSH2 0xE74 JUMP JUMPDEST DUP3 MSTORE POP POP JUMP JUMPDEST PUSH0 PUSH1 0x40 DUP3 ADD SWAP1 POP PUSH2 0x1356 PUSH0 DUP4 ADD DUP6 PUSH2 0x1334 JUMP JUMPDEST PUSH2 0x1363 PUSH1 0x20 DUP4 ADD DUP5 PUSH2 0x11B3 JUMP JUMPDEST SWAP4 SWAP3 POP POP POP JUMP JUMPDEST PUSH0 DUP2 MLOAD SWAP1 POP PUSH2 0x1378 DUP2 PUSH2 0x1043 JUMP JUMPDEST SWAP3 SWAP2 POP POP JUMP JUMPDEST PUSH0 PUSH1 0x20 DUP3 DUP5 SUB SLT ISZERO PUSH2 0x1393 JUMPI PUSH2 0x1392 PUSH2 0xE51 JUMP JUMPDEST JUMPDEST PUSH0 PUSH2 0x13A0 DUP5 DUP3 DUP6 ADD PUSH2 0x136A JUMP JUMPDEST SWAP2 POP POP SWAP3 SWAP2 POP POP JUMP JUMPDEST PUSH32 0x526577617264207472616E73666572206661696C656400000000000000000000 PUSH0 DUP3 ADD MSTORE POP JUMP JUMPDEST PUSH0 PUSH2 0x13DD PUSH1 0x16 DUP4 PUSH2 0x1206 JUMP JUMPDEST SWAP2 POP PUSH2 0x13E8 DUP3 PUSH2 0x13A9 JUMP JUMPDEST PUSH1 0x20 DUP3 ADD SWAP1 POP SWAP2 SWAP1 POP JUMP JUMPDEST PUSH0 PUSH1 0x20 DUP3 ADD SWAP1 POP DUP2 DUP2 SUB PUSH0 DUP4 ADD MSTORE PUSH2 0x140A DUP2 PUSH2 0x13D1 JUMP JUMPDEST SWAP1 POP SWAP2 SWAP1 POP JUMP JUMPDEST PUSH2 0x141A DUP2 PUSH2 0xF1B JUMP JUMPDEST DUP3 MSTORE POP POP JUMP JUMPDEST PUSH0 PUSH1 0xA0 DUP3 ADD SWAP1 POP PUSH2 0x1433 PUSH0 DUP4 ADD DUP9 PUSH2 0x11B3 JUMP JUMPDEST PUSH2 0x1440 PUSH1 0x20 DUP4 ADD DUP8 PUSH2 0x11B3 JUMP JUMPDEST PUSH2 0x144D PUSH1 0x40 DUP4 ADD DUP7 PUSH2 0x1411 JUMP JUMPDEST PUSH2 0x145A PUSH1 0x60 DUP4 ADD DUP6 PUSH2 0x1411 JUMP JUMPDEST PUSH2 0x1467 PUSH1 0x80 DUP4 ADD DUP5 PUSH2 0x1411 JUMP JUMPDEST SWAP7 SWAP6 POP POP POP POP POP POP JUMP JUMPDEST PUSH32 0x4F6E6C7920746865206F776E65722063616E20706572666F726D207468697320 PUSH0 DUP3 ADD MSTORE PUSH32 0x616374696F6E0000000000000000000000000000000000000000000000000000 PUSH1 0x20 DUP3 ADD MSTORE POP JUMP JUMPDEST PUSH0 PUSH2 0x14CB PUSH1 0x26 DUP4 PUSH2 0x1206 JUMP JUMPDEST SWAP2 POP PUSH2 0x14D6 DUP3 PUSH2 0x1471 JUMP JUMPDEST PUSH1 0x40 DUP3 ADD SWAP1 POP SWAP2 SWAP1 POP JUMP JUMPDEST PUSH0 PUSH1 0x20 DUP3 ADD SWAP1 POP DUP2 DUP2 SUB PUSH0 DUP4 ADD MSTORE PUSH2 0x14F8 DUP2 PUSH2 0x14BF JUMP JUMPDEST SWAP1 POP SWAP2 SWAP1 POP JUMP JUMPDEST PUSH32 0x4E487B7100000000000000000000000000000000000000000000000000000000 PUSH0 MSTORE PUSH1 0x32 PUSH1 0x4 MSTORE PUSH1 0x24 PUSH0 REVERT JUMPDEST PUSH32 0x4E487B7100000000000000000000000000000000000000000000000000000000 PUSH0 MSTORE PUSH1 0x11 PUSH1 0x4 MSTORE PUSH1 0x24 PUSH0 REVERT JUMPDEST PUSH0 PUSH2 0x1563 DUP3 PUSH2 0xF03 JUMP JUMPDEST SWAP2 POP PUSH2 0x156E DUP4 PUSH2 0xF03 JUMP JUMPDEST SWAP3 POP DUP3 DUP3 ADD SWAP1 POP DUP1 DUP3 GT ISZERO PUSH2 0x1586 JUMPI PUSH2 0x1585 PUSH2 0x152C JUMP JUMPDEST JUMPDEST SWAP3 SWAP2 POP POP JUMP JUMPDEST PUSH0 PUSH2 0x1596 DUP3 PUSH2 0xF03 JUMP JUMPDEST SWAP2 POP PUSH32 0xFFFFFFFFFFFFFFFFFFFFFFFFFFFFFFFFFFFFFFFFFFFFFFFFFFFFFFFFFFFFFFFF DUP3 SUB PUSH2 0x15C8 JUMPI PUSH2 0x15C7 PUSH2 0x152C JUMP JUMPDEST JUMPDEST PUSH1 0x1 DUP3 ADD SWAP1 POP SWAP2 SWAP1 POP JUMP JUMPDEST PUSH32 0x4E6F206461746120696E20746865207370656369666965642072616E67650000 PUSH0 DUP3 ADD MSTORE POP JUMP JUMPDEST PUSH0 PUSH2 0x1607 PUSH1 0x1E DUP4 PUSH2 0x1206 JUMP JUMPDEST SWAP2 POP PUSH2 0x1612 DUP3 PUSH2 0x15D3 JUMP JUMPDEST PUSH1 0x20 DUP3 ADD SWAP1 POP SWAP2 SWAP1 POP JUMP JUMPDEST PUSH0 PUSH1 0x20 DUP3 ADD SWAP1 POP DUP2 DUP2 SUB PUSH0 DUP4 ADD MSTORE PUSH2 0x1634 DUP2 PUSH2 0x15FB JUMP JUMPDEST SWAP1 POP SWAP2 SWAP1 POP JUMP JUMPDEST PUSH32 0x4E487B7100000000000000000000000000000000000000000000000000000000 PUSH0 MSTORE PUSH1 0x12 PUSH1 0x4 MSTORE PUSH1 0x24 PUSH0 REVERT JUMPDEST PUSH0 PUSH2 0x1672 DUP3 PUSH2 0xF03 JUMP JUMPDEST SWAP2 POP PUSH2 0x167D DUP4 PUSH2 0xF03 JUMP JUMPDEST SWAP3 POP DUP3 PUSH2 0x168D JUMPI PUSH2 0x168C PUSH2 0x163B JUMP JUMPDEST JUMPDEST DUP3 DUP3 DIV SWAP1 POP SWAP3 SWAP2 POP POP JUMP JUMPDEST PUSH32 0x496E76616C696420696E64657800000000000000000000000000000000000000 PUSH0 DUP3 ADD MSTORE POP JUMP JUMPDEST PUSH0 PUSH2 0x16CC PUSH1 0xD DUP4 PUSH2 0x1206 JUMP JUMPDEST SWAP2 POP PUSH2 0x16D7 DUP3 PUSH2 0x1698 JUMP JUMPDEST PUSH1 0x20 DUP3 ADD SWAP1 POP SWAP2 SWAP1 POP JUMP JUMPDEST PUSH0 PUSH1 0x20 DUP3 ADD SWAP1 POP DUP2 DUP2 SUB PUSH0 DUP4 ADD MSTORE PUSH2 0x16F9 DUP2 PUSH2 0x16C0 JUMP JUMPDEST SWAP1 POP SWAP2 SWAP1 POP JUMP INVALID LOG2 PUSH5 0x6970667358 0x22 SLT KECCAK256 DUP6 0xC3 RETURNDATASIZE 0xC8 PUSH23 0xD3763B978B570FC0FF3630304EE49DB56227A3DF847F3D SMOD ADDMOD 0xE4 MSIZE PUSH5 0x736F6C6343 STOP ADDMOD BYTE STOP CALLER "
				},
				"gasEstimates": {
					"creation": {
						"codeDepositCost": "1188400",
						"executionCost": "infinite",
						"totalCost": "infinite"
					},
					"external": {
						"deleteHealthData(uint256)": "30040",
						"getAverageGlucoseLevel(address,uint256,uint256)": "infinite",
						"grantEmergencyAccess(address)": "28594",
						"logHealthData(uint256,bytes32,bytes32,bytes32)": "infinite",
						"revokeEmergencyAccess(address)": "28615",
						"setRewardAmount(uint256)": "24706",
						"updateAccess(address,bool)": "infinite",
						"viewHealthData(address)": "infinite"
					}
				},
				"methodIdentifiers": {
					"deleteHealthData(uint256)": "d0ad1398",
					"getAverageGlucoseLevel(address,uint256,uint256)": "9951664e",
					"grantEmergencyAccess(address)": "aabc4280",
					"logHealthData(uint256,bytes32,bytes32,bytes32)": "213156cc",
					"revokeEmergencyAccess(address)": "73b492ff",
					"setRewardAmount(uint256)": "a8a65a78",
					"updateAccess(address,bool)": "0c66f928",
					"viewHealthData(address)": "05c17521"
				}
			},
			"storageLayout": {
				"storage": [
					{
						"astId": 805,
						"contract": "contracts/PatientDataManagement.sol:PatientDataManagement",
						"label": "patientData",
						"offset": 0,
						"slot": "0",
						"type": "t_mapping(t_address,t_array(t_struct(HealthData)799_storage)dyn_storage)"
					},
					{
						"astId": 811,
						"contract": "contracts/PatientDataManagement.sol:PatientDataManagement",
						"label": "accessPermissions",
						"offset": 0,
						"slot": "1",
						"type": "t_mapping(t_address,t_mapping(t_address,t_bool))"
					},
					{
						"astId": 815,
						"contract": "contracts/PatientDataManagement.sol:PatientDataManagement",
						"label": "emergencyAccessors",
						"offset": 0,
						"slot": "2",
						"type": "t_mapping(t_address,t_bool)"
					},
					{
						"astId": 818,
						"contract": "contracts/PatientDataManagement.sol:PatientDataManagement",
						"label": "rewardToken",
						"offset": 0,
						"slot": "3",
						"type": "t_contract(RewardToken)1221"
					},
					{
						"astId": 820,
						"contract": "contracts/PatientDataManagement.sol:PatientDataManagement",
						"label": "rewardAmount",
						"offset": 0,
						"slot": "4",
						"type": "t_uint256"
					},
					{
						"astId": 822,
						"contract": "contracts/PatientDataManagement.sol:PatientDataManagement",
						"label": "owner",
						"offset": 0,
						"slot": "5",
						"type": "t_address"
					}
				],
				"types": {
					"t_address": {
						"encoding": "inplace",
						"label": "address",
						"numberOfBytes": "20"
					},
					"t_array(t_struct(HealthData)799_storage)dyn_storage": {
						"base": "t_struct(HealthData)799_storage",
						"encoding": "dynamic_array",
						"label": "struct PatientDataManagement.HealthData[]",
						"numberOfBytes": "32"
					},
					"t_bool": {
						"encoding": "inplace",
						"label": "bool",
						"numberOfBytes": "1"
					},
					"t_bytes32": {
						"encoding": "inplace",
						"label": "bytes32",
						"numberOfBytes": "32"
					},
					"t_contract(RewardToken)1221": {
						"encoding": "inplace",
						"label": "contract RewardToken",
						"numberOfBytes": "20"
					},
					"t_mapping(t_address,t_array(t_struct(HealthData)799_storage)dyn_storage)": {
						"encoding": "mapping",
						"key": "t_address",
						"label": "mapping(address => struct PatientDataManagement.HealthData[])",
						"numberOfBytes": "32",
						"value": "t_array(t_struct(HealthData)799_storage)dyn_storage"
					},
					"t_mapping(t_address,t_bool)": {
						"encoding": "mapping",
						"key": "t_address",
						"label": "mapping(address => bool)",
						"numberOfBytes": "32",
						"value": "t_bool"
					},
					"t_mapping(t_address,t_mapping(t_address,t_bool))": {
						"encoding": "mapping",
						"key": "t_address",
						"label": "mapping(address => mapping(address => bool))",
						"numberOfBytes": "32",
						"value": "t_mapping(t_address,t_bool)"
					},
					"t_struct(HealthData)799_storage": {
						"encoding": "inplace",
						"label": "struct PatientDataManagement.HealthData",
						"members": [
							{
								"astId": 790,
								"contract": "contracts/PatientDataManagement.sol:PatientDataManagement",
								"label": "timestamp",
								"offset": 0,
								"slot": "0",
								"type": "t_uint256"
							},
							{
								"astId": 792,
								"contract": "contracts/PatientDataManagement.sol:PatientDataManagement",
								"label": "glucoseLevel",
								"offset": 0,
								"slot": "1",
								"type": "t_uint256"
							},
							{
								"astId": 794,
								"contract": "contracts/PatientDataManagement.sol:PatientDataManagement",
								"label": "medicationHash",
								"offset": 0,
								"slot": "2",
								"type": "t_bytes32"
							},
							{
								"astId": 796,
								"contract": "contracts/PatientDataManagement.sol:PatientDataManagement",
								"label": "mealsHash",
								"offset": 0,
								"slot": "3",
								"type": "t_bytes32"
							},
							{
								"astId": 798,
								"contract": "contracts/PatientDataManagement.sol:PatientDataManagement",
								"label": "exerciseHash",
								"offset": 0,
								"slot": "4",
								"type": "t_bytes32"
							}
						],
						"numberOfBytes": "160"
					},
					"t_uint256": {
						"encoding": "inplace",
						"label": "uint256",
						"numberOfBytes": "32"
					}
				}
			},
			"userdoc": {
				"kind": "user",
				"methods": {},
				"version": 1
			}
		}
	}
}