{
	"contracts/BookStore.sol": {
		"Bookstore": {
			"abi": [
				{
					"inputs": [],
					"stateMutability": "nonpayable",
					"type": "constructor"
				},
				{
					"inputs": [
						{
							"internalType": "uint256",
							"name": "_bookId",
							"type": "uint256"
						},
						{
							"internalType": "string",
							"name": "_title",
							"type": "string"
						},
						{
							"internalType": "string",
							"name": "_author",
							"type": "string"
						},
						{
							"internalType": "uint256",
							"name": "_price",
							"type": "uint256"
						},
						{
							"internalType": "uint256",
							"name": "_stock",
							"type": "uint256"
						}
					],
					"name": "addBook",
					"outputs": [],
					"stateMutability": "nonpayable",
					"type": "function"
				},
				{
					"inputs": [],
					"name": "bookCount",
					"outputs": [
						{
							"internalType": "uint256",
							"name": "",
							"type": "uint256"
						}
					],
					"stateMutability": "view",
					"type": "function"
				},
				{
					"inputs": [
						{
							"internalType": "uint256",
							"name": "",
							"type": "uint256"
						}
					],
					"name": "books",
					"outputs": [
						{
							"internalType": "uint256",
							"name": "bookId",
							"type": "uint256"
						},
						{
							"internalType": "string",
							"name": "title",
							"type": "string"
						},
						{
							"internalType": "string",
							"name": "author",
							"type": "string"
						},
						{
							"internalType": "uint256",
							"name": "price",
							"type": "uint256"
						},
						{
							"internalType": "uint256",
							"name": "stock",
							"type": "uint256"
						},
						{
							"internalType": "bool",
							"name": "isAvailable",
							"type": "bool"
						}
					],
					"stateMutability": "view",
					"type": "function"
				},
				{
					"inputs": [],
					"name": "getAllBooks",
					"outputs": [
						{
							"components": [
								{
									"internalType": "uint256",
									"name": "bookId",
									"type": "uint256"
								},
								{
									"internalType": "string",
									"name": "title",
									"type": "string"
								},
								{
									"internalType": "string",
									"name": "author",
									"type": "string"
								},
								{
									"internalType": "uint256",
									"name": "price",
									"type": "uint256"
								},
								{
									"internalType": "uint256",
									"name": "stock",
									"type": "uint256"
								},
								{
									"internalType": "bool",
									"name": "isAvailable",
									"type": "bool"
								}
							],
							"internalType": "struct Bookstore.Book[]",
							"name": "",
							"type": "tuple[]"
						}
					],
					"stateMutability": "view",
					"type": "function"
				},
				{
					"inputs": [
						{
							"internalType": "uint256",
							"name": "_bookId",
							"type": "uint256"
						}
					],
					"name": "getBookDetails",
					"outputs": [
						{
							"internalType": "uint256",
							"name": "",
							"type": "uint256"
						},
						{
							"internalType": "string",
							"name": "",
							"type": "string"
						},
						{
							"internalType": "string",
							"name": "",
							"type": "string"
						},
						{
							"internalType": "uint256",
							"name": "",
							"type": "uint256"
						},
						{
							"internalType": "uint256",
							"name": "",
							"type": "uint256"
						},
						{
							"internalType": "bool",
							"name": "",
							"type": "bool"
						}
					],
					"stateMutability": "view",
					"type": "function"
				},
				{
					"inputs": [],
					"name": "getOwnerBalance",
					"outputs": [
						{
							"internalType": "uint256",
							"name": "",
							"type": "uint256"
						}
					],
					"stateMutability": "view",
					"type": "function"
				},
				{
					"inputs": [],
					"name": "owner",
					"outputs": [
						{
							"internalType": "address",
							"name": "",
							"type": "address"
						}
					],
					"stateMutability": "view",
					"type": "function"
				},
				{
					"inputs": [
						{
							"internalType": "uint256",
							"name": "_bookId",
							"type": "uint256"
						}
					],
					"name": "purchaseBook",
					"outputs": [],
					"stateMutability": "payable",
					"type": "function"
				},
				{
					"inputs": [],
					"name": "removeAllBooks",
					"outputs": [],
					"stateMutability": "nonpayable",
					"type": "function"
				},
				{
					"inputs": [
						{
							"internalType": "uint256",
							"name": "_bookId",
							"type": "uint256"
						}
					],
					"name": "removeBook",
					"outputs": [],
					"stateMutability": "nonpayable",
					"type": "function"
				},
				{
					"inputs": [],
					"name": "totalBooksSold",
					"outputs": [
						{
							"internalType": "uint256",
							"name": "",
							"type": "uint256"
						}
					],
					"stateMutability": "view",
					"type": "function"
				},
				{
					"inputs": [
						{
							"internalType": "uint256",
							"name": "_bookId",
							"type": "uint256"
						},
						{
							"internalType": "uint256",
							"name": "_newStock",
							"type": "uint256"
						}
					],
					"name": "updateStock",
					"outputs": [],
					"stateMutability": "nonpayable",
					"type": "function"
				}
			],
			"devdoc": {
				"kind": "dev",
				"methods": {},
				"version": 1
			},
			"evm": {
				"assembly": "    /* \"contracts/BookStore.sol\":60:3796  contract Bookstore {... */\n  mstore(0x40, 0x80)\n    /* \"contracts/BookStore.sol\":387:388  0 */\n  0x00\n    /* \"contracts/BookStore.sol\":360:388  uint256 public bookCount = 0 */\n  0x01\n  sstore\n    /* \"contracts/BookStore.sol\":497:498  0 */\n  0x00\n    /* \"contracts/BookStore.sol\":465:498  uint256 public totalBooksSold = 0 */\n  0x02\n  sstore\n    /* \"contracts/BookStore.sol\":666:717  constructor() {... */\n  callvalue\n  dup1\n  iszero\n  tag_1\n  jumpi\n  0x00\n  dup1\n  revert\ntag_1:\n  pop\n    /* \"contracts/BookStore.sol\":699:709  msg.sender */\n  caller\n    /* \"contracts/BookStore.sol\":691:696  owner */\n  0x03\n  0x00\n    /* \"contracts/BookStore.sol\":691:709  owner = msg.sender */\n  0x0100\n  exp\n  dup2\n  sload\n  dup2\n  0xffffffffffffffffffffffffffffffffffffffff\n  mul\n  not\n  and\n  swap1\n  dup4\n  0xffffffffffffffffffffffffffffffffffffffff\n  and\n  mul\n  or\n  swap1\n  sstore\n  pop\n    /* \"contracts/BookStore.sol\":60:3796  contract Bookstore {... */\n  dataSize(sub_0)\n  dup1\n  dataOffset(sub_0)\n  0x00\n  codecopy\n  0x00\n  return\nstop\n\nsub_0: assembly {\n        /* \"contracts/BookStore.sol\":60:3796  contract Bookstore {... */\n      mstore(0x40, 0x80)\n      jumpi(tag_1, lt(calldatasize, 0x04))\n      shr(0xe0, calldataload(0x00))\n      dup1\n      0x8da5cb5b\n      gt\n      tag_14\n      jumpi\n      dup1\n      0x8da5cb5b\n      eq\n      tag_8\n      jumpi\n      dup1\n      0x8ef17fc3\n      eq\n      tag_9\n      jumpi\n      dup1\n      0x9dfc3dd1\n      eq\n      tag_10\n      jumpi\n      dup1\n      0xb905ad78\n      eq\n      tag_11\n      jumpi\n      dup1\n      0xbec0d799\n      eq\n      tag_12\n      jumpi\n      dup1\n      0xf733719c\n      eq\n      tag_13\n      jumpi\n      jump(tag_1)\n    tag_14:\n      dup1\n      0x1c555f47\n      eq\n      tag_2\n      jumpi\n      dup1\n      0x354528e8\n      eq\n      tag_3\n      jumpi\n      dup1\n      0x3899637f\n      eq\n      tag_4\n      jumpi\n      dup1\n      0x590791f2\n      eq\n      tag_5\n      jumpi\n      dup1\n      0x68744046\n      eq\n      tag_6\n      jumpi\n      dup1\n      0x74ff4818\n      eq\n      tag_7\n      jumpi\n    tag_1:\n      0x00\n      dup1\n      revert\n        /* \"contracts/BookStore.sol\":1740:2250  function purchaseBook(uint256 _bookId) public payable {... */\n    tag_2:\n      tag_15\n      0x04\n      dup1\n      calldatasize\n      sub\n      dup2\n      add\n      swap1\n      tag_16\n      swap2\n      swap1\n      tag_17\n      jump\t// in\n    tag_16:\n      tag_18\n      jump\t// in\n    tag_15:\n      stop\n        /* \"contracts/BookStore.sol\":2695:3063  function getAllBooks() public view returns (Book[] memory) {... */\n    tag_3:\n      callvalue\n      dup1\n      iszero\n      tag_19\n      jumpi\n      0x00\n      dup1\n      revert\n    tag_19:\n      pop\n      tag_20\n      tag_21\n      jump\t// in\n    tag_20:\n      mload(0x40)\n      tag_22\n      swap2\n      swap1\n      tag_23\n      jump\t// in\n    tag_22:\n      mload(0x40)\n      dup1\n      swap2\n      sub\n      swap1\n      return\n        /* \"contracts/BookStore.sol\":465:498  uint256 public totalBooksSold = 0 */\n    tag_4:\n      callvalue\n      dup1\n      iszero\n      tag_24\n      jumpi\n      0x00\n      dup1\n      revert\n    tag_24:\n      pop\n      tag_25\n      tag_26\n      jump\t// in\n    tag_25:\n      mload(0x40)\n      tag_27\n      swap2\n      swap1\n      tag_28\n      jump\t// in\n    tag_27:\n      mload(0x40)\n      dup1\n      swap2\n      sub\n      swap1\n      return\n        /* \"contracts/BookStore.sol\":3688:3793  function getOwnerBalance() public view returns (uint256) {... */\n    tag_5:\n      callvalue\n      dup1\n      iszero\n      tag_29\n      jumpi\n      0x00\n      dup1\n      revert\n    tag_29:\n      pop\n      tag_30\n      tag_31\n      jump\t// in\n    tag_30:\n      mload(0x40)\n      tag_32\n      swap2\n      swap1\n      tag_28\n      jump\t// in\n    tag_32:\n      mload(0x40)\n      dup1\n      swap2\n      sub\n      swap1\n      return\n        /* \"contracts/BookStore.sol\":316:353  mapping(uint256 => Book) public books */\n    tag_6:\n      callvalue\n      dup1\n      iszero\n      tag_33\n      jumpi\n      0x00\n      dup1\n      revert\n    tag_33:\n      pop\n      tag_34\n      0x04\n      dup1\n      calldatasize\n      sub\n      dup2\n      add\n      swap1\n      tag_35\n      swap2\n      swap1\n      tag_17\n      jump\t// in\n    tag_35:\n      tag_36\n      jump\t// in\n    tag_34:\n      mload(0x40)\n      tag_37\n      swap7\n      swap6\n      swap5\n      swap4\n      swap3\n      swap2\n      swap1\n      tag_38\n      jump\t// in\n    tag_37:\n      mload(0x40)\n      dup1\n      swap2\n      sub\n      swap1\n      return\n        /* \"contracts/BookStore.sol\":2304:2653  function getBookDetails(uint256 _bookId) public view returns (uint256, string memory, string memory, uint256, uint256, bool) {... */\n    tag_7:\n      callvalue\n      dup1\n      iszero\n      tag_39\n      jumpi\n      0x00\n      dup1\n      revert\n    tag_39:\n      pop\n      tag_40\n      0x04\n      dup1\n      calldatasize\n      sub\n      dup2\n      add\n      swap1\n      tag_41\n      swap2\n      swap1\n      tag_17\n      jump\t// in\n    tag_41:\n      tag_42\n      jump\t// in\n    tag_40:\n      mload(0x40)\n      tag_43\n      swap7\n      swap6\n      swap5\n      swap4\n      swap3\n      swap2\n      swap1\n      tag_38\n      jump\t// in\n    tag_43:\n      mload(0x40)\n      dup1\n      swap2\n      sub\n      swap1\n      return\n        /* \"contracts/BookStore.sol\":505:525  address public owner */\n    tag_8:\n      callvalue\n      dup1\n      iszero\n      tag_44\n      jumpi\n      0x00\n      dup1\n      revert\n    tag_44:\n      pop\n      tag_45\n      tag_46\n      jump\t// in\n    tag_45:\n      mload(0x40)\n      tag_47\n      swap2\n      swap1\n      tag_48\n      jump\t// in\n    tag_47:\n      mload(0x40)\n      dup1\n      swap2\n      sub\n      swap1\n      return\n        /* \"contracts/BookStore.sol\":3416:3634  function removeAllBooks() public onlyOwner {... */\n    tag_9:\n      callvalue\n      dup1\n      iszero\n      tag_49\n      jumpi\n      0x00\n      dup1\n      revert\n    tag_49:\n      pop\n      tag_50\n      tag_51\n      jump\t// in\n    tag_50:\n      stop\n        /* \"contracts/BookStore.sol\":1354:1696  function updateStock(uint256 _bookId, uint256 _newStock) public onlyOwner {... */\n    tag_10:\n      callvalue\n      dup1\n      iszero\n      tag_52\n      jumpi\n      0x00\n      dup1\n      revert\n    tag_52:\n      pop\n      tag_53\n      0x04\n      dup1\n      calldatasize\n      sub\n      dup2\n      add\n      swap1\n      tag_54\n      swap2\n      swap1\n      tag_55\n      jump\t// in\n    tag_54:\n      tag_56\n      jump\t// in\n    tag_53:\n      stop\n        /* \"contracts/BookStore.sol\":360:388  uint256 public bookCount = 0 */\n    tag_11:\n      callvalue\n      dup1\n      iszero\n      tag_57\n      jumpi\n      0x00\n      dup1\n      revert\n    tag_57:\n      pop\n      tag_58\n      tag_59\n      jump\t// in\n    tag_58:\n      mload(0x40)\n      tag_60\n      swap2\n      swap1\n      tag_28\n      jump\t// in\n    tag_60:\n      mload(0x40)\n      dup1\n      swap2\n      sub\n      swap1\n      return\n        /* \"contracts/BookStore.sol\":3114:3371  function removeBook(uint256 _bookId) public onlyOwner {... */\n    tag_12:\n      callvalue\n      dup1\n      iszero\n      tag_61\n      jumpi\n      0x00\n      dup1\n      revert\n    tag_61:\n      pop\n      tag_62\n      0x04\n      dup1\n      calldatasize\n      sub\n      dup2\n      add\n      swap1\n      tag_63\n      swap2\n      swap1\n      tag_17\n      jump\t// in\n    tag_63:\n      tag_64\n      jump\t// in\n    tag_62:\n      stop\n        /* \"contracts/BookStore.sol\":783:1299  function addBook(uint256 _bookId, string memory _title, string memory _author, uint256 _price, uint256 _stock) public onlyOwner {... */\n    tag_13:\n      callvalue\n      dup1\n      iszero\n      tag_65\n      jumpi\n      0x00\n      dup1\n      revert\n    tag_65:\n      pop\n      tag_66\n      0x04\n      dup1\n      calldatasize\n      sub\n      dup2\n      add\n      swap1\n      tag_67\n      swap2\n      swap1\n      tag_68\n      jump\t// in\n    tag_67:\n      tag_69\n      jump\t// in\n    tag_66:\n      stop\n        /* \"contracts/BookStore.sol\":1740:2250  function purchaseBook(uint256 _bookId) public payable {... */\n    tag_18:\n        /* \"contracts/BookStore.sol\":1823:1824  0 */\n      0x00\n        /* \"contracts/BookStore.sol\":1813:1820  _bookId */\n      dup2\n        /* \"contracts/BookStore.sol\":1813:1824  _bookId > 0 */\n      gt\n        /* \"contracts/BookStore.sol\":1813:1848  _bookId > 0 && _bookId <= bookCount */\n      dup1\n      iszero\n      tag_71\n      jumpi\n      pop\n        /* \"contracts/BookStore.sol\":1839:1848  bookCount */\n      sload(0x01)\n        /* \"contracts/BookStore.sol\":1828:1835  _bookId */\n      dup2\n        /* \"contracts/BookStore.sol\":1828:1848  _bookId <= bookCount */\n      gt\n      iszero\n        /* \"contracts/BookStore.sol\":1813:1848  _bookId > 0 && _bookId <= bookCount */\n    tag_71:\n        /* \"contracts/BookStore.sol\":1805:1868  require(_bookId > 0 && _bookId <= bookCount, \"Invalid book ID\") */\n      tag_72\n      jumpi\n      mload(0x40)\n      0x08c379a000000000000000000000000000000000000000000000000000000000\n      dup2\n      mstore\n      0x04\n      add\n      tag_73\n      swap1\n      tag_74\n      jump\t// in\n    tag_73:\n      mload(0x40)\n      dup1\n      swap2\n      sub\n      swap1\n      revert\n    tag_72:\n        /* \"contracts/BookStore.sol\":1879:1896  Book storage book */\n      0x00\n        /* \"contracts/BookStore.sol\":1899:1904  books */\n      dup1\n        /* \"contracts/BookStore.sol\":1899:1913  books[_bookId] */\n      0x00\n        /* \"contracts/BookStore.sol\":1905:1912  _bookId */\n      dup4\n        /* \"contracts/BookStore.sol\":1899:1913  books[_bookId] */\n      dup2\n      mstore\n      0x20\n      add\n      swap1\n      dup2\n      mstore\n      0x20\n      add\n      0x00\n      keccak256\n        /* \"contracts/BookStore.sol\":1879:1913  Book storage book = books[_bookId] */\n      swap1\n      pop\n        /* \"contracts/BookStore.sol\":1932:1936  book */\n      dup1\n        /* \"contracts/BookStore.sol\":1932:1948  book.isAvailable */\n      0x05\n      add\n      0x00\n      swap1\n      sload\n      swap1\n      0x0100\n      exp\n      swap1\n      div\n      0xff\n      and\n        /* \"contracts/BookStore.sol\":1924:1974  require(book.isAvailable, \"Book is not available\") */\n      tag_75\n      jumpi\n      mload(0x40)\n      0x08c379a000000000000000000000000000000000000000000000000000000000\n      dup2\n      mstore\n      0x04\n      add\n      tag_76\n      swap1\n      tag_77\n      jump\t// in\n    tag_76:\n      mload(0x40)\n      dup1\n      swap2\n      sub\n      swap1\n      revert\n    tag_75:\n        /* \"contracts/BookStore.sol\":2006:2007  0 */\n      0x00\n        /* \"contracts/BookStore.sol\":1993:1997  book */\n      dup2\n        /* \"contracts/BookStore.sol\":1993:2003  book.stock */\n      0x04\n      add\n      sload\n        /* \"contracts/BookStore.sol\":1993:2007  book.stock > 0 */\n      gt\n        /* \"contracts/BookStore.sol\":1985:2029  require(book.stock > 0, \"Book out of stock\") */\n      tag_78\n      jumpi\n      mload(0x40)\n      0x08c379a000000000000000000000000000000000000000000000000000000000\n      dup2\n      mstore\n      0x04\n      add\n      tag_79\n      swap1\n      tag_80\n      jump\t// in\n    tag_79:\n      mload(0x40)\n      dup1\n      swap2\n      sub\n      swap1\n      revert\n    tag_78:\n        /* \"contracts/BookStore.sol\":2061:2065  book */\n      dup1\n        /* \"contracts/BookStore.sol\":2061:2071  book.price */\n      0x03\n      add\n      sload\n        /* \"contracts/BookStore.sol\":2048:2057  msg.value */\n      callvalue\n        /* \"contracts/BookStore.sol\":2048:2071  msg.value == book.price */\n      eq\n        /* \"contracts/BookStore.sol\":2040:2100  require(msg.value == book.price, \"Incorrect payment amount\") */\n      tag_81\n      jumpi\n      mload(0x40)\n      0x08c379a000000000000000000000000000000000000000000000000000000000\n      dup2\n      mstore\n      0x04\n      add\n      tag_82\n      swap1\n      tag_83\n      jump\t// in\n    tag_82:\n      mload(0x40)\n      dup1\n      swap2\n      sub\n      swap1\n      revert\n    tag_81:\n        /* \"contracts/BookStore.sol\":2113:2117  book */\n      dup1\n        /* \"contracts/BookStore.sol\":2113:2123  book.stock */\n      0x04\n      add\n      0x00\n        /* \"contracts/BookStore.sol\":2113:2125  book.stock-- */\n      dup2\n      sload\n      dup1\n      swap3\n      swap2\n      swap1\n      tag_84\n      swap1\n      tag_85\n      jump\t// in\n    tag_84:\n      swap2\n      swap1\n      pop\n      sstore\n      pop\n        /* \"contracts/BookStore.sol\":2136:2150  totalBooksSold */\n      0x02\n      0x00\n        /* \"contracts/BookStore.sol\":2136:2152  totalBooksSold++ */\n      dup2\n      sload\n      dup1\n      swap3\n      swap2\n      swap1\n      tag_86\n      swap1\n      tag_87\n      jump\t// in\n    tag_86:\n      swap2\n      swap1\n      pop\n      sstore\n      pop\n        /* \"contracts/BookStore.sol\":2216:2221  owner */\n      0x03\n      0x00\n      swap1\n      sload\n      swap1\n      0x0100\n      exp\n      swap1\n      div\n      0xffffffffffffffffffffffffffffffffffffffff\n      and\n        /* \"contracts/BookStore.sol\":2208:2231  payable(owner).transfer */\n      0xffffffffffffffffffffffffffffffffffffffff\n      and\n        /* \"contracts/BookStore.sol\":2208:2242  payable(owner).transfer(msg.value) */\n      0x08fc\n        /* \"contracts/BookStore.sol\":2232:2241  msg.value */\n      callvalue\n        /* \"contracts/BookStore.sol\":2208:2242  payable(owner).transfer(msg.value) */\n      swap1\n      dup2\n      iszero\n      mul\n      swap1\n      mload(0x40)\n      0x00\n      mload(0x40)\n      dup1\n      dup4\n      sub\n      dup2\n      dup6\n      dup9\n      dup9\n      call\n      swap4\n      pop\n      pop\n      pop\n      pop\n      iszero\n      dup1\n      iszero\n      tag_89\n      jumpi\n      returndatasize\n      0x00\n      dup1\n      returndatacopy\n      revert(0x00, returndatasize)\n    tag_89:\n      pop\n        /* \"contracts/BookStore.sol\":1794:2250  {... */\n      pop\n        /* \"contracts/BookStore.sol\":1740:2250  function purchaseBook(uint256 _bookId) public payable {... */\n      pop\n      jump\t// out\n        /* \"contracts/BookStore.sol\":2695:3063  function getAllBooks() public view returns (Book[] memory) {... */\n    tag_21:\n        /* \"contracts/BookStore.sol\":2739:2752  Book[] memory */\n      0x60\n        /* \"contracts/BookStore.sol\":2765:2787  Book[] memory allBooks */\n      0x00\n        /* \"contracts/BookStore.sol\":2801:2810  bookCount */\n      sload(0x01)\n        /* \"contracts/BookStore.sol\":2790:2811  new Book[](bookCount) */\n      0xffffffffffffffff\n      dup2\n      gt\n      iszero\n      tag_91\n      jumpi\n      tag_92\n      tag_93\n      jump\t// in\n    tag_92:\n    tag_91:\n      mload(0x40)\n      swap1\n      dup1\n      dup3\n      mstore\n      dup1\n      0x20\n      mul\n      0x20\n      add\n      dup3\n      add\n      0x40\n      mstore\n      dup1\n      iszero\n      tag_94\n      jumpi\n      dup2\n      0x20\n      add\n    tag_95:\n      tag_96\n      tag_97\n      jump\t// in\n    tag_96:\n      dup2\n      mstore\n      0x20\n      add\n      swap1\n      0x01\n      swap1\n      sub\n      swap1\n      dup2\n      tag_95\n      jumpi\n      swap1\n      pop\n    tag_94:\n      pop\n        /* \"contracts/BookStore.sol\":2765:2811  Book[] memory allBooks = new Book[](bookCount) */\n      swap1\n      pop\n        /* \"contracts/BookStore.sol\":2822:2835  uint256 index */\n      0x00\n        /* \"contracts/BookStore.sol\":2855:2864  uint256 i */\n      dup1\n        /* \"contracts/BookStore.sol\":2867:2868  1 */\n      0x01\n        /* \"contracts/BookStore.sol\":2855:2868  uint256 i = 1 */\n      swap1\n      pop\n        /* \"contracts/BookStore.sol\":2850:3030  for (uint256 i = 1; i <= bookCount; i++) {... */\n    tag_98:\n        /* \"contracts/BookStore.sol\":2875:2884  bookCount */\n      sload(0x01)\n        /* \"contracts/BookStore.sol\":2870:2871  i */\n      dup2\n        /* \"contracts/BookStore.sol\":2870:2884  i <= bookCount */\n      gt\n        /* \"contracts/BookStore.sol\":2850:3030  for (uint256 i = 1; i <= bookCount; i++) {... */\n      tag_99\n      jumpi\n        /* \"contracts/BookStore.sol\":2929:2930  0 */\n      0x00\n        /* \"contracts/BookStore.sol\":2910:2915  books */\n      dup1\n        /* \"contracts/BookStore.sol\":2910:2918  books[i] */\n      0x00\n        /* \"contracts/BookStore.sol\":2916:2917  i */\n      dup4\n        /* \"contracts/BookStore.sol\":2910:2918  books[i] */\n      dup2\n      mstore\n      0x20\n      add\n      swap1\n      dup2\n      mstore\n      0x20\n      add\n      0x00\n      keccak256\n        /* \"contracts/BookStore.sol\":2910:2925  books[i].bookId */\n      0x00\n      add\n      sload\n        /* \"contracts/BookStore.sol\":2910:2930  books[i].bookId != 0 */\n      eq\n        /* \"contracts/BookStore.sol\":2906:3019  if (books[i].bookId != 0) {... */\n      tag_101\n      jumpi\n        /* \"contracts/BookStore.sol\":2969:2974  books */\n      0x00\n        /* \"contracts/BookStore.sol\":2969:2977  books[i] */\n      dup1\n        /* \"contracts/BookStore.sol\":2975:2976  i */\n      dup3\n        /* \"contracts/BookStore.sol\":2969:2977  books[i] */\n      dup2\n      mstore\n      0x20\n      add\n      swap1\n      dup2\n      mstore\n      0x20\n      add\n      0x00\n      keccak256\n        /* \"contracts/BookStore.sol\":2951:2977  allBooks[index] = books[i] */\n      mload(0x40)\n      dup1\n      0xc0\n      add\n      0x40\n      mstore\n      swap1\n      dup2\n      0x00\n      dup3\n      add\n      sload\n      dup2\n      mstore\n      0x20\n      add\n      0x01\n      dup3\n      add\n      dup1\n      sload\n      tag_102\n      swap1\n      tag_103\n      jump\t// in\n    tag_102:\n      dup1\n      0x1f\n      add\n      0x20\n      dup1\n      swap2\n      div\n      mul\n      0x20\n      add\n      mload(0x40)\n      swap1\n      dup2\n      add\n      0x40\n      mstore\n      dup1\n      swap3\n      swap2\n      swap1\n      dup2\n      dup2\n      mstore\n      0x20\n      add\n      dup3\n      dup1\n      sload\n      tag_104\n      swap1\n      tag_103\n      jump\t// in\n    tag_104:\n      dup1\n      iszero\n      tag_105\n      jumpi\n      dup1\n      0x1f\n      lt\n      tag_106\n      jumpi\n      0x0100\n      dup1\n      dup4\n      sload\n      div\n      mul\n      dup4\n      mstore\n      swap2\n      0x20\n      add\n      swap2\n      jump(tag_105)\n    tag_106:\n      dup3\n      add\n      swap2\n      swap1\n      0x00\n      mstore\n      keccak256(0x00, 0x20)\n      swap1\n    tag_107:\n      dup2\n      sload\n      dup2\n      mstore\n      swap1\n      0x01\n      add\n      swap1\n      0x20\n      add\n      dup1\n      dup4\n      gt\n      tag_107\n      jumpi\n      dup3\n      swap1\n      sub\n      0x1f\n      and\n      dup3\n      add\n      swap2\n    tag_105:\n      pop\n      pop\n      pop\n      pop\n      pop\n      dup2\n      mstore\n      0x20\n      add\n      0x02\n      dup3\n      add\n      dup1\n      sload\n      tag_108\n      swap1\n      tag_103\n      jump\t// in\n    tag_108:\n      dup1\n      0x1f\n      add\n      0x20\n      dup1\n      swap2\n      div\n      mul\n      0x20\n      add\n      mload(0x40)\n      swap1\n      dup2\n      add\n      0x40\n      mstore\n      dup1\n      swap3\n      swap2\n      swap1\n      dup2\n      dup2\n      mstore\n      0x20\n      add\n      dup3\n      dup1\n      sload\n      tag_109\n      swap1\n      tag_103\n      jump\t// in\n    tag_109:\n      dup1\n      iszero\n      tag_110\n      jumpi\n      dup1\n      0x1f\n      lt\n      tag_111\n      jumpi\n      0x0100\n      dup1\n      dup4\n      sload\n      div\n      mul\n      dup4\n      mstore\n      swap2\n      0x20\n      add\n      swap2\n      jump(tag_110)\n    tag_111:\n      dup3\n      add\n      swap2\n      swap1\n      0x00\n      mstore\n      keccak256(0x00, 0x20)\n      swap1\n    tag_112:\n      dup2\n      sload\n      dup2\n      mstore\n      swap1\n      0x01\n      add\n      swap1\n      0x20\n      add\n      dup1\n      dup4\n      gt\n      tag_112\n      jumpi\n      dup3\n      swap1\n      sub\n      0x1f\n      and\n      dup3\n      add\n      swap2\n    tag_110:\n      pop\n      pop\n      pop\n      pop\n      pop\n      dup2\n      mstore\n      0x20\n      add\n      0x03\n      dup3\n      add\n      sload\n      dup2\n      mstore\n      0x20\n      add\n      0x04\n      dup3\n      add\n      sload\n      dup2\n      mstore\n      0x20\n      add\n      0x05\n      dup3\n      add\n      0x00\n      swap1\n      sload\n      swap1\n      0x0100\n      exp\n      swap1\n      div\n      0xff\n      and\n      iszero\n      iszero\n      iszero\n      iszero\n      dup2\n      mstore\n      pop\n      pop\n        /* \"contracts/BookStore.sol\":2951:2959  allBooks */\n      dup4\n        /* \"contracts/BookStore.sol\":2960:2965  index */\n      dup4\n        /* \"contracts/BookStore.sol\":2951:2966  allBooks[index] */\n      dup2\n      mload\n      dup2\n      lt\n      tag_113\n      jumpi\n      tag_114\n      tag_115\n      jump\t// in\n    tag_114:\n    tag_113:\n      0x20\n      mul\n      0x20\n      add\n      add\n        /* \"contracts/BookStore.sol\":2951:2977  allBooks[index] = books[i] */\n      dup2\n      swap1\n      mstore\n      pop\n        /* \"contracts/BookStore.sol\":2996:3003  index++ */\n      dup2\n      dup1\n      tag_116\n      swap1\n      tag_87\n      jump\t// in\n    tag_116:\n      swap3\n      pop\n      pop\n        /* \"contracts/BookStore.sol\":2906:3019  if (books[i].bookId != 0) {... */\n    tag_101:\n        /* \"contracts/BookStore.sol\":2886:2889  i++ */\n      dup1\n      dup1\n      tag_117\n      swap1\n      tag_87\n      jump\t// in\n    tag_117:\n      swap2\n      pop\n      pop\n        /* \"contracts/BookStore.sol\":2850:3030  for (uint256 i = 1; i <= bookCount; i++) {... */\n      jump(tag_98)\n    tag_99:\n      pop\n        /* \"contracts/BookStore.sol\":3047:3055  allBooks */\n      dup2\n        /* \"contracts/BookStore.sol\":3040:3055  return allBooks */\n      swap3\n      pop\n      pop\n      pop\n        /* \"contracts/BookStore.sol\":2695:3063  function getAllBooks() public view returns (Book[] memory) {... */\n      swap1\n      jump\t// out\n        /* \"contracts/BookStore.sol\":465:498  uint256 public totalBooksSold = 0 */\n    tag_26:\n      sload(0x02)\n      dup2\n      jump\t// out\n        /* \"contracts/BookStore.sol\":3688:3793  function getOwnerBalance() public view returns (uint256) {... */\n    tag_31:\n        /* \"contracts/BookStore.sol\":3736:3743  uint256 */\n      0x00\n        /* \"contracts/BookStore.sol\":3771:3776  owner */\n      0x03\n      0x00\n      swap1\n      sload\n      swap1\n      0x0100\n      exp\n      swap1\n      div\n      0xffffffffffffffffffffffffffffffffffffffff\n      and\n        /* \"contracts/BookStore.sol\":3763:3785  address(owner).balance */\n      0xffffffffffffffffffffffffffffffffffffffff\n      and\n      balance\n        /* \"contracts/BookStore.sol\":3756:3785  return address(owner).balance */\n      swap1\n      pop\n        /* \"contracts/BookStore.sol\":3688:3793  function getOwnerBalance() public view returns (uint256) {... */\n      swap1\n      jump\t// out\n        /* \"contracts/BookStore.sol\":316:353  mapping(uint256 => Book) public books */\n    tag_36:\n      mstore(0x20, 0x00)\n      dup1\n      0x00\n      mstore\n      keccak256(0x00, 0x40)\n      0x00\n      swap2\n      pop\n      swap1\n      pop\n      dup1\n      0x00\n      add\n      sload\n      swap1\n      dup1\n      0x01\n      add\n      dup1\n      sload\n      tag_119\n      swap1\n      tag_103\n      jump\t// in\n    tag_119:\n      dup1\n      0x1f\n      add\n      0x20\n      dup1\n      swap2\n      div\n      mul\n      0x20\n      add\n      mload(0x40)\n      swap1\n      dup2\n      add\n      0x40\n      mstore\n      dup1\n      swap3\n      swap2\n      swap1\n      dup2\n      dup2\n      mstore\n      0x20\n      add\n      dup3\n      dup1\n      sload\n      tag_120\n      swap1\n      tag_103\n      jump\t// in\n    tag_120:\n      dup1\n      iszero\n      tag_121\n      jumpi\n      dup1\n      0x1f\n      lt\n      tag_122\n      jumpi\n      0x0100\n      dup1\n      dup4\n      sload\n      div\n      mul\n      dup4\n      mstore\n      swap2\n      0x20\n      add\n      swap2\n      jump(tag_121)\n    tag_122:\n      dup3\n      add\n      swap2\n      swap1\n      0x00\n      mstore\n      keccak256(0x00, 0x20)\n      swap1\n    tag_123:\n      dup2\n      sload\n      dup2\n      mstore\n      swap1\n      0x01\n      add\n      swap1\n      0x20\n      add\n      dup1\n      dup4\n      gt\n      tag_123\n      jumpi\n      dup3\n      swap1\n      sub\n      0x1f\n      and\n      dup3\n      add\n      swap2\n    tag_121:\n      pop\n      pop\n      pop\n      pop\n      pop\n      swap1\n      dup1\n      0x02\n      add\n      dup1\n      sload\n      tag_124\n      swap1\n      tag_103\n      jump\t// in\n    tag_124:\n      dup1\n      0x1f\n      add\n      0x20\n      dup1\n      swap2\n      div\n      mul\n      0x20\n      add\n      mload(0x40)\n      swap1\n      dup2\n      add\n      0x40\n      mstore\n      dup1\n      swap3\n      swap2\n      swap1\n      dup2\n      dup2\n      mstore\n      0x20\n      add\n      dup3\n      dup1\n      sload\n      tag_125\n      swap1\n      tag_103\n      jump\t// in\n    tag_125:\n      dup1\n      iszero\n      tag_126\n      jumpi\n      dup1\n      0x1f\n      lt\n      tag_127\n      jumpi\n      0x0100\n      dup1\n      dup4\n      sload\n      div\n      mul\n      dup4\n      mstore\n      swap2\n      0x20\n      add\n      swap2\n      jump(tag_126)\n    tag_127:\n      dup3\n      add\n      swap2\n      swap1\n      0x00\n      mstore\n      keccak256(0x00, 0x20)\n      swap1\n    tag_128:\n      dup2\n      sload\n      dup2\n      mstore\n      swap1\n      0x01\n      add\n      swap1\n      0x20\n      add\n      dup1\n      dup4\n      gt\n      tag_128\n      jumpi\n      dup3\n      swap1\n      sub\n      0x1f\n      and\n      dup3\n      add\n      swap2\n    tag_126:\n      pop\n      pop\n      pop\n      pop\n      pop\n      swap1\n      dup1\n      0x03\n      add\n      sload\n      swap1\n      dup1\n      0x04\n      add\n      sload\n      swap1\n      dup1\n      0x05\n      add\n      0x00\n      swap1\n      sload\n      swap1\n      0x0100\n      exp\n      swap1\n      div\n      0xff\n      and\n      swap1\n      pop\n      dup7\n      jump\t// out\n        /* \"contracts/BookStore.sol\":2304:2653  function getBookDetails(uint256 _bookId) public view returns (uint256, string memory, string memory, uint256, uint256, bool) {... */\n    tag_42:\n        /* \"contracts/BookStore.sol\":2366:2373  uint256 */\n      0x00\n        /* \"contracts/BookStore.sol\":2375:2388  string memory */\n      0x60\n        /* \"contracts/BookStore.sol\":2390:2403  string memory */\n      dup1\n        /* \"contracts/BookStore.sol\":2405:2412  uint256 */\n      0x00\n        /* \"contracts/BookStore.sol\":2414:2421  uint256 */\n      dup1\n        /* \"contracts/BookStore.sol\":2423:2427  bool */\n      0x00\n        /* \"contracts/BookStore.sol\":2458:2459  0 */\n      dup1\n        /* \"contracts/BookStore.sol\":2448:2455  _bookId */\n      dup8\n        /* \"contracts/BookStore.sol\":2448:2459  _bookId > 0 */\n      gt\n        /* \"contracts/BookStore.sol\":2448:2483  _bookId > 0 && _bookId <= bookCount */\n      dup1\n      iszero\n      tag_130\n      jumpi\n      pop\n        /* \"contracts/BookStore.sol\":2474:2483  bookCount */\n      sload(0x01)\n        /* \"contracts/BookStore.sol\":2463:2470  _bookId */\n      dup8\n        /* \"contracts/BookStore.sol\":2463:2483  _bookId <= bookCount */\n      gt\n      iszero\n        /* \"contracts/BookStore.sol\":2448:2483  _bookId > 0 && _bookId <= bookCount */\n    tag_130:\n        /* \"contracts/BookStore.sol\":2440:2503  require(_bookId > 0 && _bookId <= bookCount, \"Invalid book ID\") */\n      tag_131\n      jumpi\n      mload(0x40)\n      0x08c379a000000000000000000000000000000000000000000000000000000000\n      dup2\n      mstore\n      0x04\n      add\n      tag_132\n      swap1\n      tag_74\n      jump\t// in\n    tag_132:\n      mload(0x40)\n      dup1\n      swap2\n      sub\n      swap1\n      revert\n    tag_131:\n        /* \"contracts/BookStore.sol\":2514:2530  Book memory book */\n      0x00\n        /* \"contracts/BookStore.sol\":2533:2538  books */\n      dup1\n        /* \"contracts/BookStore.sol\":2533:2547  books[_bookId] */\n      0x00\n        /* \"contracts/BookStore.sol\":2539:2546  _bookId */\n      dup10\n        /* \"contracts/BookStore.sol\":2533:2547  books[_bookId] */\n      dup2\n      mstore\n      0x20\n      add\n      swap1\n      dup2\n      mstore\n      0x20\n      add\n      0x00\n      keccak256\n        /* \"contracts/BookStore.sol\":2514:2547  Book memory book = books[_bookId] */\n      mload(0x40)\n      dup1\n      0xc0\n      add\n      0x40\n      mstore\n      swap1\n      dup2\n      0x00\n      dup3\n      add\n      sload\n      dup2\n      mstore\n      0x20\n      add\n      0x01\n      dup3\n      add\n      dup1\n      sload\n      tag_133\n      swap1\n      tag_103\n      jump\t// in\n    tag_133:\n      dup1\n      0x1f\n      add\n      0x20\n      dup1\n      swap2\n      div\n      mul\n      0x20\n      add\n      mload(0x40)\n      swap1\n      dup2\n      add\n      0x40\n      mstore\n      dup1\n      swap3\n      swap2\n      swap1\n      dup2\n      dup2\n      mstore\n      0x20\n      add\n      dup3\n      dup1\n      sload\n      tag_134\n      swap1\n      tag_103\n      jump\t// in\n    tag_134:\n      dup1\n      iszero\n      tag_135\n      jumpi\n      dup1\n      0x1f\n      lt\n      tag_136\n      jumpi\n      0x0100\n      dup1\n      dup4\n      sload\n      div\n      mul\n      dup4\n      mstore\n      swap2\n      0x20\n      add\n      swap2\n      jump(tag_135)\n    tag_136:\n      dup3\n      add\n      swap2\n      swap1\n      0x00\n      mstore\n      keccak256(0x00, 0x20)\n      swap1\n    tag_137:\n      dup2\n      sload\n      dup2\n      mstore\n      swap1\n      0x01\n      add\n      swap1\n      0x20\n      add\n      dup1\n      dup4\n      gt\n      tag_137\n      jumpi\n      dup3\n      swap1\n      sub\n      0x1f\n      and\n      dup3\n      add\n      swap2\n    tag_135:\n      pop\n      pop\n      pop\n      pop\n      pop\n      dup2\n      mstore\n      0x20\n      add\n      0x02\n      dup3\n      add\n      dup1\n      sload\n      tag_138\n      swap1\n      tag_103\n      jump\t// in\n    tag_138:\n      dup1\n      0x1f\n      add\n      0x20\n      dup1\n      swap2\n      div\n      mul\n      0x20\n      add\n      mload(0x40)\n      swap1\n      dup2\n      add\n      0x40\n      mstore\n      dup1\n      swap3\n      swap2\n      swap1\n      dup2\n      dup2\n      mstore\n      0x20\n      add\n      dup3\n      dup1\n      sload\n      tag_139\n      swap1\n      tag_103\n      jump\t// in\n    tag_139:\n      dup1\n      iszero\n      tag_140\n      jumpi\n      dup1\n      0x1f\n      lt\n      tag_141\n      jumpi\n      0x0100\n      dup1\n      dup4\n      sload\n      div\n      mul\n      dup4\n      mstore\n      swap2\n      0x20\n      add\n      swap2\n      jump(tag_140)\n    tag_141:\n      dup3\n      add\n      swap2\n      swap1\n      0x00\n      mstore\n      keccak256(0x00, 0x20)\n      swap1\n    tag_142:\n      dup2\n      sload\n      dup2\n      mstore\n      swap1\n      0x01\n      add\n      swap1\n      0x20\n      add\n      dup1\n      dup4\n      gt\n      tag_142\n      jumpi\n      dup3\n      swap1\n      sub\n      0x1f\n      and\n      dup3\n      add\n      swap2\n    tag_140:\n      pop\n      pop\n      pop\n      pop\n      pop\n      dup2\n      mstore\n      0x20\n      add\n      0x03\n      dup3\n      add\n      sload\n      dup2\n      mstore\n      0x20\n      add\n      0x04\n      dup3\n      add\n      sload\n      dup2\n      mstore\n      0x20\n      add\n      0x05\n      dup3\n      add\n      0x00\n      swap1\n      sload\n      swap1\n      0x0100\n      exp\n      swap1\n      div\n      0xff\n      and\n      iszero\n      iszero\n      iszero\n      iszero\n      dup2\n      mstore\n      pop\n      pop\n      swap1\n      pop\n        /* \"contracts/BookStore.sol\":2566:2570  book */\n      dup1\n        /* \"contracts/BookStore.sol\":2566:2577  book.bookId */\n      0x00\n      add\n      mload\n        /* \"contracts/BookStore.sol\":2579:2583  book */\n      dup2\n        /* \"contracts/BookStore.sol\":2579:2589  book.title */\n      0x20\n      add\n      mload\n        /* \"contracts/BookStore.sol\":2591:2595  book */\n      dup3\n        /* \"contracts/BookStore.sol\":2591:2602  book.author */\n      0x40\n      add\n      mload\n        /* \"contracts/BookStore.sol\":2604:2608  book */\n      dup4\n        /* \"contracts/BookStore.sol\":2604:2614  book.price */\n      0x60\n      add\n      mload\n        /* \"contracts/BookStore.sol\":2616:2620  book */\n      dup5\n        /* \"contracts/BookStore.sol\":2616:2626  book.stock */\n      0x80\n      add\n      mload\n        /* \"contracts/BookStore.sol\":2628:2632  book */\n      dup6\n        /* \"contracts/BookStore.sol\":2628:2644  book.isAvailable */\n      0xa0\n      add\n      mload\n        /* \"contracts/BookStore.sol\":2558:2645  return (book.bookId, book.title, book.author, book.price, book.stock, book.isAvailable) */\n      swap7\n      pop\n      swap7\n      pop\n      swap7\n      pop\n      swap7\n      pop\n      swap7\n      pop\n      swap7\n      pop\n      pop\n        /* \"contracts/BookStore.sol\":2304:2653  function getBookDetails(uint256 _bookId) public view returns (uint256, string memory, string memory, uint256, uint256, bool) {... */\n      swap2\n      swap4\n      swap6\n      pop\n      swap2\n      swap4\n      swap6\n      jump\t// out\n        /* \"contracts/BookStore.sol\":505:525  address public owner */\n    tag_46:\n      0x03\n      0x00\n      swap1\n      sload\n      swap1\n      0x0100\n      exp\n      swap1\n      div\n      0xffffffffffffffffffffffffffffffffffffffff\n      and\n      dup2\n      jump\t// out\n        /* \"contracts/BookStore.sol\":3416:3634  function removeAllBooks() public onlyOwner {... */\n    tag_51:\n        /* \"contracts/BookStore.sol\":589:594  owner */\n      0x03\n      0x00\n      swap1\n      sload\n      swap1\n      0x0100\n      exp\n      swap1\n      div\n      0xffffffffffffffffffffffffffffffffffffffff\n      and\n        /* \"contracts/BookStore.sol\":575:594  msg.sender == owner */\n      0xffffffffffffffffffffffffffffffffffffffff\n      and\n        /* \"contracts/BookStore.sol\":575:585  msg.sender */\n      caller\n        /* \"contracts/BookStore.sol\":575:594  msg.sender == owner */\n      0xffffffffffffffffffffffffffffffffffffffff\n      and\n      eq\n        /* \"contracts/BookStore.sol\":567:637  require(msg.sender == owner, \"Only the owner can perform this action\") */\n      tag_144\n      jumpi\n      mload(0x40)\n      0x08c379a000000000000000000000000000000000000000000000000000000000\n      dup2\n      mstore\n      0x04\n      add\n      tag_145\n      swap1\n      tag_146\n      jump\t// in\n    tag_145:\n      mload(0x40)\n      dup1\n      swap2\n      sub\n      swap1\n      revert\n    tag_144:\n        /* \"contracts/BookStore.sol\":3475:3484  uint256 i */\n      0x00\n        /* \"contracts/BookStore.sol\":3487:3488  1 */\n      0x01\n        /* \"contracts/BookStore.sol\":3475:3488  uint256 i = 1 */\n      swap1\n      pop\n        /* \"contracts/BookStore.sol\":3470:3627  for (uint256 i = 1; i <= bookCount; i++) {... */\n    tag_148:\n        /* \"contracts/BookStore.sol\":3495:3504  bookCount */\n      sload(0x01)\n        /* \"contracts/BookStore.sol\":3490:3491  i */\n      dup2\n        /* \"contracts/BookStore.sol\":3490:3504  i <= bookCount */\n      gt\n        /* \"contracts/BookStore.sol\":3470:3627  for (uint256 i = 1; i <= bookCount; i++) {... */\n      tag_149\n      jumpi\n        /* \"contracts/BookStore.sol\":3530:3535  books */\n      0x00\n        /* \"contracts/BookStore.sol\":3530:3538  books[i] */\n      dup1\n        /* \"contracts/BookStore.sol\":3536:3537  i */\n      dup3\n        /* \"contracts/BookStore.sol\":3530:3538  books[i] */\n      dup2\n      mstore\n      0x20\n      add\n      swap1\n      dup2\n      mstore\n      0x20\n      add\n      0x00\n      keccak256\n        /* \"contracts/BookStore.sol\":3530:3550  books[i].isAvailable */\n      0x05\n      add\n      0x00\n      swap1\n      sload\n      swap1\n      0x0100\n      exp\n      swap1\n      div\n      0xff\n      and\n        /* \"contracts/BookStore.sol\":3526:3616  if (books[i].isAvailable) {... */\n      iszero\n      tag_151\n      jumpi\n        /* \"contracts/BookStore.sol\":3594:3599  false */\n      0x00\n        /* \"contracts/BookStore.sol\":3571:3576  books */\n      dup1\n        /* \"contracts/BookStore.sol\":3571:3579  books[i] */\n      0x00\n        /* \"contracts/BookStore.sol\":3577:3578  i */\n      dup4\n        /* \"contracts/BookStore.sol\":3571:3579  books[i] */\n      dup2\n      mstore\n      0x20\n      add\n      swap1\n      dup2\n      mstore\n      0x20\n      add\n      0x00\n      keccak256\n        /* \"contracts/BookStore.sol\":3571:3591  books[i].isAvailable */\n      0x05\n      add\n      0x00\n        /* \"contracts/BookStore.sol\":3571:3599  books[i].isAvailable = false */\n      0x0100\n      exp\n      dup2\n      sload\n      dup2\n      0xff\n      mul\n      not\n      and\n      swap1\n      dup4\n      iszero\n      iszero\n      mul\n      or\n      swap1\n      sstore\n      pop\n        /* \"contracts/BookStore.sol\":3526:3616  if (books[i].isAvailable) {... */\n    tag_151:\n        /* \"contracts/BookStore.sol\":3506:3509  i++ */\n      dup1\n      dup1\n      tag_152\n      swap1\n      tag_87\n      jump\t// in\n    tag_152:\n      swap2\n      pop\n      pop\n        /* \"contracts/BookStore.sol\":3470:3627  for (uint256 i = 1; i <= bookCount; i++) {... */\n      jump(tag_148)\n    tag_149:\n      pop\n        /* \"contracts/BookStore.sol\":3416:3634  function removeAllBooks() public onlyOwner {... */\n      jump\t// out\n        /* \"contracts/BookStore.sol\":1354:1696  function updateStock(uint256 _bookId, uint256 _newStock) public onlyOwner {... */\n    tag_56:\n        /* \"contracts/BookStore.sol\":589:594  owner */\n      0x03\n      0x00\n      swap1\n      sload\n      swap1\n      0x0100\n      exp\n      swap1\n      div\n      0xffffffffffffffffffffffffffffffffffffffff\n      and\n        /* \"contracts/BookStore.sol\":575:594  msg.sender == owner */\n      0xffffffffffffffffffffffffffffffffffffffff\n      and\n        /* \"contracts/BookStore.sol\":575:585  msg.sender */\n      caller\n        /* \"contracts/BookStore.sol\":575:594  msg.sender == owner */\n      0xffffffffffffffffffffffffffffffffffffffff\n      and\n      eq\n        /* \"contracts/BookStore.sol\":567:637  require(msg.sender == owner, \"Only the owner can perform this action\") */\n      tag_154\n      jumpi\n      mload(0x40)\n      0x08c379a000000000000000000000000000000000000000000000000000000000\n      dup2\n      mstore\n      0x04\n      add\n      tag_155\n      swap1\n      tag_146\n      jump\t// in\n    tag_155:\n      mload(0x40)\n      dup1\n      swap2\n      sub\n      swap1\n      revert\n    tag_154:\n        /* \"contracts/BookStore.sol\":1457:1458  0 */\n      0x00\n        /* \"contracts/BookStore.sol\":1447:1454  _bookId */\n      dup3\n        /* \"contracts/BookStore.sol\":1447:1458  _bookId > 0 */\n      gt\n        /* \"contracts/BookStore.sol\":1447:1482  _bookId > 0 && _bookId <= bookCount */\n      dup1\n      iszero\n      tag_157\n      jumpi\n      pop\n        /* \"contracts/BookStore.sol\":1473:1482  bookCount */\n      sload(0x01)\n        /* \"contracts/BookStore.sol\":1462:1469  _bookId */\n      dup3\n        /* \"contracts/BookStore.sol\":1462:1482  _bookId <= bookCount */\n      gt\n      iszero\n        /* \"contracts/BookStore.sol\":1447:1482  _bookId > 0 && _bookId <= bookCount */\n    tag_157:\n        /* \"contracts/BookStore.sol\":1439:1502  require(_bookId > 0 && _bookId <= bookCount, \"Invalid book ID\") */\n      tag_158\n      jumpi\n      mload(0x40)\n      0x08c379a000000000000000000000000000000000000000000000000000000000\n      dup2\n      mstore\n      0x04\n      add\n      tag_159\n      swap1\n      tag_74\n      jump\t// in\n    tag_159:\n      mload(0x40)\n      dup1\n      swap2\n      sub\n      swap1\n      revert\n    tag_158:\n        /* \"contracts/BookStore.sol\":1533:1534  0 */\n      0x00\n        /* \"contracts/BookStore.sol\":1521:1530  _newStock */\n      dup2\n        /* \"contracts/BookStore.sol\":1521:1534  _newStock > 0 */\n      gt\n        /* \"contracts/BookStore.sol\":1513:1572  require(_newStock > 0, \"Stock should be greater than zero\") */\n      tag_160\n      jumpi\n      mload(0x40)\n      0x08c379a000000000000000000000000000000000000000000000000000000000\n      dup2\n      mstore\n      0x04\n      add\n      tag_161\n      swap1\n      tag_162\n      jump\t// in\n    tag_161:\n      mload(0x40)\n      dup1\n      swap2\n      sub\n      swap1\n      revert\n    tag_160:\n        /* \"contracts/BookStore.sol\":1591:1596  books */\n      0x00\n        /* \"contracts/BookStore.sol\":1591:1605  books[_bookId] */\n      dup1\n        /* \"contracts/BookStore.sol\":1597:1604  _bookId */\n      dup4\n        /* \"contracts/BookStore.sol\":1591:1605  books[_bookId] */\n      dup2\n      mstore\n      0x20\n      add\n      swap1\n      dup2\n      mstore\n      0x20\n      add\n      0x00\n      keccak256\n        /* \"contracts/BookStore.sol\":1591:1617  books[_bookId].isAvailable */\n      0x05\n      add\n      0x00\n      swap1\n      sload\n      swap1\n      0x0100\n      exp\n      swap1\n      div\n      0xff\n      and\n        /* \"contracts/BookStore.sol\":1583:1643  require(books[_bookId].isAvailable, \"Book is not available\") */\n      tag_163\n      jumpi\n      mload(0x40)\n      0x08c379a000000000000000000000000000000000000000000000000000000000\n      dup2\n      mstore\n      0x04\n      add\n      tag_164\n      swap1\n      tag_77\n      jump\t// in\n    tag_164:\n      mload(0x40)\n      dup1\n      swap2\n      sub\n      swap1\n      revert\n    tag_163:\n        /* \"contracts/BookStore.sol\":1679:1688  _newStock */\n      dup1\n        /* \"contracts/BookStore.sol\":1656:1661  books */\n      0x00\n        /* \"contracts/BookStore.sol\":1656:1670  books[_bookId] */\n      dup1\n        /* \"contracts/BookStore.sol\":1662:1669  _bookId */\n      dup5\n        /* \"contracts/BookStore.sol\":1656:1670  books[_bookId] */\n      dup2\n      mstore\n      0x20\n      add\n      swap1\n      dup2\n      mstore\n      0x20\n      add\n      0x00\n      keccak256\n        /* \"contracts/BookStore.sol\":1656:1676  books[_bookId].stock */\n      0x04\n      add\n        /* \"contracts/BookStore.sol\":1656:1688  books[_bookId].stock = _newStock */\n      dup2\n      swap1\n      sstore\n      pop\n        /* \"contracts/BookStore.sol\":1354:1696  function updateStock(uint256 _bookId, uint256 _newStock) public onlyOwner {... */\n      pop\n      pop\n      jump\t// out\n        /* \"contracts/BookStore.sol\":360:388  uint256 public bookCount = 0 */\n    tag_59:\n      sload(0x01)\n      dup2\n      jump\t// out\n        /* \"contracts/BookStore.sol\":3114:3371  function removeBook(uint256 _bookId) public onlyOwner {... */\n    tag_64:\n        /* \"contracts/BookStore.sol\":589:594  owner */\n      0x03\n      0x00\n      swap1\n      sload\n      swap1\n      0x0100\n      exp\n      swap1\n      div\n      0xffffffffffffffffffffffffffffffffffffffff\n      and\n        /* \"contracts/BookStore.sol\":575:594  msg.sender == owner */\n      0xffffffffffffffffffffffffffffffffffffffff\n      and\n        /* \"contracts/BookStore.sol\":575:585  msg.sender */\n      caller\n        /* \"contracts/BookStore.sol\":575:594  msg.sender == owner */\n      0xffffffffffffffffffffffffffffffffffffffff\n      and\n      eq\n        /* \"contracts/BookStore.sol\":567:637  require(msg.sender == owner, \"Only the owner can perform this action\") */\n      tag_166\n      jumpi\n      mload(0x40)\n      0x08c379a000000000000000000000000000000000000000000000000000000000\n      dup2\n      mstore\n      0x04\n      add\n      tag_167\n      swap1\n      tag_146\n      jump\t// in\n    tag_167:\n      mload(0x40)\n      dup1\n      swap2\n      sub\n      swap1\n      revert\n    tag_166:\n        /* \"contracts/BookStore.sol\":3197:3198  0 */\n      0x00\n        /* \"contracts/BookStore.sol\":3187:3194  _bookId */\n      dup2\n        /* \"contracts/BookStore.sol\":3187:3198  _bookId > 0 */\n      gt\n        /* \"contracts/BookStore.sol\":3187:3222  _bookId > 0 && _bookId <= bookCount */\n      dup1\n      iszero\n      tag_169\n      jumpi\n      pop\n        /* \"contracts/BookStore.sol\":3213:3222  bookCount */\n      sload(0x01)\n        /* \"contracts/BookStore.sol\":3202:3209  _bookId */\n      dup2\n        /* \"contracts/BookStore.sol\":3202:3222  _bookId <= bookCount */\n      gt\n      iszero\n        /* \"contracts/BookStore.sol\":3187:3222  _bookId > 0 && _bookId <= bookCount */\n    tag_169:\n        /* \"contracts/BookStore.sol\":3179:3242  require(_bookId > 0 && _bookId <= bookCount, \"Invalid book ID\") */\n      tag_170\n      jumpi\n      mload(0x40)\n      0x08c379a000000000000000000000000000000000000000000000000000000000\n      dup2\n      mstore\n      0x04\n      add\n      tag_171\n      swap1\n      tag_74\n      jump\t// in\n    tag_171:\n      mload(0x40)\n      dup1\n      swap2\n      sub\n      swap1\n      revert\n    tag_170:\n        /* \"contracts/BookStore.sol\":3261:3266  books */\n      0x00\n        /* \"contracts/BookStore.sol\":3261:3275  books[_bookId] */\n      dup1\n        /* \"contracts/BookStore.sol\":3267:3274  _bookId */\n      dup3\n        /* \"contracts/BookStore.sol\":3261:3275  books[_bookId] */\n      dup2\n      mstore\n      0x20\n      add\n      swap1\n      dup2\n      mstore\n      0x20\n      add\n      0x00\n      keccak256\n        /* \"contracts/BookStore.sol\":3261:3287  books[_bookId].isAvailable */\n      0x05\n      add\n      0x00\n      swap1\n      sload\n      swap1\n      0x0100\n      exp\n      swap1\n      div\n      0xff\n      and\n        /* \"contracts/BookStore.sol\":3253:3315  require(books[_bookId].isAvailable, \"Book is already removed\") */\n      tag_172\n      jumpi\n      mload(0x40)\n      0x08c379a000000000000000000000000000000000000000000000000000000000\n      dup2\n      mstore\n      0x04\n      add\n      tag_173\n      swap1\n      tag_174\n      jump\t// in\n    tag_173:\n      mload(0x40)\n      dup1\n      swap2\n      sub\n      swap1\n      revert\n    tag_172:\n        /* \"contracts/BookStore.sol\":3357:3362  false */\n      0x00\n        /* \"contracts/BookStore.sol\":3328:3333  books */\n      dup1\n        /* \"contracts/BookStore.sol\":3328:3342  books[_bookId] */\n      0x00\n        /* \"contracts/BookStore.sol\":3334:3341  _bookId */\n      dup4\n        /* \"contracts/BookStore.sol\":3328:3342  books[_bookId] */\n      dup2\n      mstore\n      0x20\n      add\n      swap1\n      dup2\n      mstore\n      0x20\n      add\n      0x00\n      keccak256\n        /* \"contracts/BookStore.sol\":3328:3354  books[_bookId].isAvailable */\n      0x05\n      add\n      0x00\n        /* \"contracts/BookStore.sol\":3328:3362  books[_bookId].isAvailable = false */\n      0x0100\n      exp\n      dup2\n      sload\n      dup2\n      0xff\n      mul\n      not\n      and\n      swap1\n      dup4\n      iszero\n      iszero\n      mul\n      or\n      swap1\n      sstore\n      pop\n        /* \"contracts/BookStore.sol\":3114:3371  function removeBook(uint256 _bookId) public onlyOwner {... */\n      pop\n      jump\t// out\n        /* \"contracts/BookStore.sol\":783:1299  function addBook(uint256 _bookId, string memory _title, string memory _author, uint256 _price, uint256 _stock) public onlyOwner {... */\n    tag_69:\n        /* \"contracts/BookStore.sol\":589:594  owner */\n      0x03\n      0x00\n      swap1\n      sload\n      swap1\n      0x0100\n      exp\n      swap1\n      div\n      0xffffffffffffffffffffffffffffffffffffffff\n      and\n        /* \"contracts/BookStore.sol\":575:594  msg.sender == owner */\n      0xffffffffffffffffffffffffffffffffffffffff\n      and\n        /* \"contracts/BookStore.sol\":575:585  msg.sender */\n      caller\n        /* \"contracts/BookStore.sol\":575:594  msg.sender == owner */\n      0xffffffffffffffffffffffffffffffffffffffff\n      and\n      eq\n        /* \"contracts/BookStore.sol\":567:637  require(msg.sender == owner, \"Only the owner can perform this action\") */\n      tag_176\n      jumpi\n      mload(0x40)\n      0x08c379a000000000000000000000000000000000000000000000000000000000\n      dup2\n      mstore\n      0x04\n      add\n      tag_177\n      swap1\n      tag_146\n      jump\t// in\n    tag_177:\n      mload(0x40)\n      dup1\n      swap2\n      sub\n      swap1\n      revert\n    tag_176:\n        /* \"contracts/BookStore.sol\":940:941  0 */\n      0x00\n        /* \"contracts/BookStore.sol\":930:937  _bookId */\n      dup6\n        /* \"contracts/BookStore.sol\":930:941  _bookId > 0 */\n      gt\n        /* \"contracts/BookStore.sol\":922:981  require(_bookId > 0, \"Book ID should be greater than zero\") */\n      tag_179\n      jumpi\n      mload(0x40)\n      0x08c379a000000000000000000000000000000000000000000000000000000000\n      dup2\n      mstore\n      0x04\n      add\n      tag_180\n      swap1\n      tag_181\n      jump\t// in\n    tag_180:\n      mload(0x40)\n      dup1\n      swap2\n      sub\n      swap1\n      revert\n    tag_179:\n        /* \"contracts/BookStore.sol\":1009:1010  0 */\n      0x00\n        /* \"contracts/BookStore.sol\":1000:1006  _price */\n      dup3\n        /* \"contracts/BookStore.sol\":1000:1010  _price > 0 */\n      gt\n        /* \"contracts/BookStore.sol\":992:1048  require(_price > 0, \"Price should be greater than zero\") */\n      tag_182\n      jumpi\n      mload(0x40)\n      0x08c379a000000000000000000000000000000000000000000000000000000000\n      dup2\n      mstore\n      0x04\n      add\n      tag_183\n      swap1\n      tag_184\n      jump\t// in\n    tag_183:\n      mload(0x40)\n      dup1\n      swap2\n      sub\n      swap1\n      revert\n    tag_182:\n        /* \"contracts/BookStore.sol\":1076:1077  0 */\n      0x00\n        /* \"contracts/BookStore.sol\":1067:1073  _stock */\n      dup2\n        /* \"contracts/BookStore.sol\":1067:1077  _stock > 0 */\n      gt\n        /* \"contracts/BookStore.sol\":1059:1115  require(_stock > 0, \"Stock should be greater than zero\") */\n      tag_185\n      jumpi\n      mload(0x40)\n      0x08c379a000000000000000000000000000000000000000000000000000000000\n      dup2\n      mstore\n      0x04\n      add\n      tag_186\n      swap1\n      tag_162\n      jump\t// in\n    tag_186:\n      mload(0x40)\n      dup1\n      swap2\n      sub\n      swap1\n      revert\n    tag_185:\n        /* \"contracts/BookStore.sol\":1159:1160  0 */\n      0x00\n        /* \"contracts/BookStore.sol\":1134:1139  books */\n      dup1\n        /* \"contracts/BookStore.sol\":1134:1148  books[_bookId] */\n      0x00\n        /* \"contracts/BookStore.sol\":1140:1147  _bookId */\n      dup8\n        /* \"contracts/BookStore.sol\":1134:1148  books[_bookId] */\n      dup2\n      mstore\n      0x20\n      add\n      swap1\n      dup2\n      mstore\n      0x20\n      add\n      0x00\n      keccak256\n        /* \"contracts/BookStore.sol\":1134:1155  books[_bookId].bookId */\n      0x00\n      add\n      sload\n        /* \"contracts/BookStore.sol\":1134:1160  books[_bookId].bookId == 0 */\n      eq\n        /* \"contracts/BookStore.sol\":1126:1187  require(books[_bookId].bookId == 0, \"Book ID already exists\") */\n      tag_187\n      jumpi\n      mload(0x40)\n      0x08c379a000000000000000000000000000000000000000000000000000000000\n      dup2\n      mstore\n      0x04\n      add\n      tag_188\n      swap1\n      tag_189\n      jump\t// in\n    tag_188:\n      mload(0x40)\n      dup1\n      swap2\n      sub\n      swap1\n      revert\n    tag_187:\n        /* \"contracts/BookStore.sol\":1217:1269  Book(_bookId, _title, _author, _price, _stock, true) */\n      mload(0x40)\n      dup1\n      0xc0\n      add\n      0x40\n      mstore\n      dup1\n        /* \"contracts/BookStore.sol\":1222:1229  _bookId */\n      dup7\n        /* \"contracts/BookStore.sol\":1217:1269  Book(_bookId, _title, _author, _price, _stock, true) */\n      dup2\n      mstore\n      0x20\n      add\n        /* \"contracts/BookStore.sol\":1231:1237  _title */\n      dup6\n        /* \"contracts/BookStore.sol\":1217:1269  Book(_bookId, _title, _author, _price, _stock, true) */\n      dup2\n      mstore\n      0x20\n      add\n        /* \"contracts/BookStore.sol\":1239:1246  _author */\n      dup5\n        /* \"contracts/BookStore.sol\":1217:1269  Book(_bookId, _title, _author, _price, _stock, true) */\n      dup2\n      mstore\n      0x20\n      add\n        /* \"contracts/BookStore.sol\":1248:1254  _price */\n      dup4\n        /* \"contracts/BookStore.sol\":1217:1269  Book(_bookId, _title, _author, _price, _stock, true) */\n      dup2\n      mstore\n      0x20\n      add\n        /* \"contracts/BookStore.sol\":1256:1262  _stock */\n      dup3\n        /* \"contracts/BookStore.sol\":1217:1269  Book(_bookId, _title, _author, _price, _stock, true) */\n      dup2\n      mstore\n      0x20\n      add\n        /* \"contracts/BookStore.sol\":1264:1268  true */\n      0x01\n        /* \"contracts/BookStore.sol\":1217:1269  Book(_bookId, _title, _author, _price, _stock, true) */\n      iszero\n      iszero\n      dup2\n      mstore\n      pop\n        /* \"contracts/BookStore.sol\":1200:1205  books */\n      0x00\n        /* \"contracts/BookStore.sol\":1200:1214  books[_bookId] */\n      dup1\n        /* \"contracts/BookStore.sol\":1206:1213  _bookId */\n      dup8\n        /* \"contracts/BookStore.sol\":1200:1214  books[_bookId] */\n      dup2\n      mstore\n      0x20\n      add\n      swap1\n      dup2\n      mstore\n      0x20\n      add\n      0x00\n      keccak256\n        /* \"contracts/BookStore.sol\":1200:1269  books[_bookId] = Book(_bookId, _title, _author, _price, _stock, true) */\n      0x00\n      dup3\n      add\n      mload\n      dup2\n      0x00\n      add\n      sstore\n      0x20\n      dup3\n      add\n      mload\n      dup2\n      0x01\n      add\n      swap1\n      dup2\n      tag_190\n      swap2\n      swap1\n      tag_191\n      jump\t// in\n    tag_190:\n      pop\n      0x40\n      dup3\n      add\n      mload\n      dup2\n      0x02\n      add\n      swap1\n      dup2\n      tag_192\n      swap2\n      swap1\n      tag_191\n      jump\t// in\n    tag_192:\n      pop\n      0x60\n      dup3\n      add\n      mload\n      dup2\n      0x03\n      add\n      sstore\n      0x80\n      dup3\n      add\n      mload\n      dup2\n      0x04\n      add\n      sstore\n      0xa0\n      dup3\n      add\n      mload\n      dup2\n      0x05\n      add\n      exp(0x0100, 0x00)\n      dup2\n      sload\n      dup2\n      0xff\n      mul\n      not\n      and\n      swap1\n      dup4\n      iszero\n      iszero\n      mul\n      or\n      swap1\n      sstore\n      pop\n      swap1\n      pop\n      pop\n        /* \"contracts/BookStore.sol\":1280:1289  bookCount */\n      0x01\n      0x00\n        /* \"contracts/BookStore.sol\":1280:1291  bookCount++ */\n      dup2\n      sload\n      dup1\n      swap3\n      swap2\n      swap1\n      tag_193\n      swap1\n      tag_87\n      jump\t// in\n    tag_193:\n      swap2\n      swap1\n      pop\n      sstore\n      pop\n        /* \"contracts/BookStore.sol\":783:1299  function addBook(uint256 _bookId, string memory _title, string memory _author, uint256 _price, uint256 _stock) public onlyOwner {... */\n      pop\n      pop\n      pop\n      pop\n      pop\n      jump\t// out\n    tag_97:\n      mload(0x40)\n      dup1\n      0xc0\n      add\n      0x40\n      mstore\n      dup1\n      0x00\n      dup2\n      mstore\n      0x20\n      add\n      0x60\n      dup2\n      mstore\n      0x20\n      add\n      0x60\n      dup2\n      mstore\n      0x20\n      add\n      0x00\n      dup2\n      mstore\n      0x20\n      add\n      0x00\n      dup2\n      mstore\n      0x20\n      add\n      iszero(iszero(0x00))\n      dup2\n      mstore\n      pop\n      swap1\n      jump\t// out\n        /* \"#utility.yul\":7:82   */\n    tag_194:\n        /* \"#utility.yul\":40:46   */\n      0x00\n        /* \"#utility.yul\":73:75   */\n      0x40\n        /* \"#utility.yul\":67:76   */\n      mload\n        /* \"#utility.yul\":57:76   */\n      swap1\n      pop\n        /* \"#utility.yul\":7:82   */\n      swap1\n      jump\t// out\n        /* \"#utility.yul\":88:205   */\n    tag_195:\n        /* \"#utility.yul\":197:198   */\n      0x00\n        /* \"#utility.yul\":194:195   */\n      dup1\n        /* \"#utility.yul\":187:199   */\n      revert\n        /* \"#utility.yul\":211:328   */\n    tag_196:\n        /* \"#utility.yul\":320:321   */\n      0x00\n        /* \"#utility.yul\":317:318   */\n      dup1\n        /* \"#utility.yul\":310:322   */\n      revert\n        /* \"#utility.yul\":334:411   */\n    tag_197:\n        /* \"#utility.yul\":371:378   */\n      0x00\n        /* \"#utility.yul\":400:405   */\n      dup2\n        /* \"#utility.yul\":389:405   */\n      swap1\n      pop\n        /* \"#utility.yul\":334:411   */\n      swap2\n      swap1\n      pop\n      jump\t// out\n        /* \"#utility.yul\":417:539   */\n    tag_198:\n        /* \"#utility.yul\":490:514   */\n      tag_273\n        /* \"#utility.yul\":508:513   */\n      dup2\n        /* \"#utility.yul\":490:514   */\n      tag_197\n      jump\t// in\n    tag_273:\n        /* \"#utility.yul\":483:488   */\n      dup2\n        /* \"#utility.yul\":480:515   */\n      eq\n        /* \"#utility.yul\":470:533   */\n      tag_274\n      jumpi\n        /* \"#utility.yul\":529:530   */\n      0x00\n        /* \"#utility.yul\":526:527   */\n      dup1\n        /* \"#utility.yul\":519:531   */\n      revert\n        /* \"#utility.yul\":470:533   */\n    tag_274:\n        /* \"#utility.yul\":417:539   */\n      pop\n      jump\t// out\n        /* \"#utility.yul\":545:684   */\n    tag_199:\n        /* \"#utility.yul\":591:596   */\n      0x00\n        /* \"#utility.yul\":629:635   */\n      dup2\n        /* \"#utility.yul\":616:636   */\n      calldataload\n        /* \"#utility.yul\":607:636   */\n      swap1\n      pop\n        /* \"#utility.yul\":645:678   */\n      tag_276\n        /* \"#utility.yul\":672:677   */\n      dup2\n        /* \"#utility.yul\":645:678   */\n      tag_198\n      jump\t// in\n    tag_276:\n        /* \"#utility.yul\":545:684   */\n      swap3\n      swap2\n      pop\n      pop\n      jump\t// out\n        /* \"#utility.yul\":690:1019   */\n    tag_17:\n        /* \"#utility.yul\":749:755   */\n      0x00\n        /* \"#utility.yul\":798:800   */\n      0x20\n        /* \"#utility.yul\":786:795   */\n      dup3\n        /* \"#utility.yul\":777:784   */\n      dup5\n        /* \"#utility.yul\":773:796   */\n      sub\n        /* \"#utility.yul\":769:801   */\n      slt\n        /* \"#utility.yul\":766:885   */\n      iszero\n      tag_278\n      jumpi\n        /* \"#utility.yul\":804:883   */\n      tag_279\n      tag_195\n      jump\t// in\n    tag_279:\n        /* \"#utility.yul\":766:885   */\n    tag_278:\n        /* \"#utility.yul\":924:925   */\n      0x00\n        /* \"#utility.yul\":949:1002   */\n      tag_280\n        /* \"#utility.yul\":994:1001   */\n      dup5\n        /* \"#utility.yul\":985:991   */\n      dup3\n        /* \"#utility.yul\":974:983   */\n      dup6\n        /* \"#utility.yul\":970:992   */\n      add\n        /* \"#utility.yul\":949:1002   */\n      tag_199\n      jump\t// in\n    tag_280:\n        /* \"#utility.yul\":939:1002   */\n      swap2\n      pop\n        /* \"#utility.yul\":895:1012   */\n      pop\n        /* \"#utility.yul\":690:1019   */\n      swap3\n      swap2\n      pop\n      pop\n      jump\t// out\n        /* \"#utility.yul\":1025:1159   */\n    tag_200:\n        /* \"#utility.yul\":1112:1118   */\n      0x00\n        /* \"#utility.yul\":1146:1151   */\n      dup2\n        /* \"#utility.yul\":1140:1152   */\n      mload\n        /* \"#utility.yul\":1130:1152   */\n      swap1\n      pop\n        /* \"#utility.yul\":1025:1159   */\n      swap2\n      swap1\n      pop\n      jump\t// out\n        /* \"#utility.yul\":1165:1369   */\n    tag_201:\n        /* \"#utility.yul\":1284:1295   */\n      0x00\n        /* \"#utility.yul\":1318:1324   */\n      dup3\n        /* \"#utility.yul\":1313:1316   */\n      dup3\n        /* \"#utility.yul\":1306:1325   */\n      mstore\n        /* \"#utility.yul\":1358:1362   */\n      0x20\n        /* \"#utility.yul\":1353:1356   */\n      dup3\n        /* \"#utility.yul\":1349:1363   */\n      add\n        /* \"#utility.yul\":1334:1363   */\n      swap1\n      pop\n        /* \"#utility.yul\":1165:1369   */\n      swap3\n      swap2\n      pop\n      pop\n      jump\t// out\n        /* \"#utility.yul\":1375:1527   */\n    tag_202:\n        /* \"#utility.yul\":1462:1466   */\n      0x00\n        /* \"#utility.yul\":1485:1488   */\n      dup2\n        /* \"#utility.yul\":1477:1488   */\n      swap1\n      pop\n        /* \"#utility.yul\":1515:1519   */\n      0x20\n        /* \"#utility.yul\":1510:1513   */\n      dup3\n        /* \"#utility.yul\":1506:1520   */\n      add\n        /* \"#utility.yul\":1498:1520   */\n      swap1\n      pop\n        /* \"#utility.yul\":1375:1527   */\n      swap2\n      swap1\n      pop\n      jump\t// out\n        /* \"#utility.yul\":1533:1641   */\n    tag_203:\n        /* \"#utility.yul\":1610:1634   */\n      tag_285\n        /* \"#utility.yul\":1628:1633   */\n      dup2\n        /* \"#utility.yul\":1610:1634   */\n      tag_197\n      jump\t// in\n    tag_285:\n        /* \"#utility.yul\":1605:1608   */\n      dup3\n        /* \"#utility.yul\":1598:1635   */\n      mstore\n        /* \"#utility.yul\":1533:1641   */\n      pop\n      pop\n      jump\t// out\n        /* \"#utility.yul\":1647:1746   */\n    tag_204:\n        /* \"#utility.yul\":1699:1705   */\n      0x00\n        /* \"#utility.yul\":1733:1738   */\n      dup2\n        /* \"#utility.yul\":1727:1739   */\n      mload\n        /* \"#utility.yul\":1717:1739   */\n      swap1\n      pop\n        /* \"#utility.yul\":1647:1746   */\n      swap2\n      swap1\n      pop\n      jump\t// out\n        /* \"#utility.yul\":1752:1911   */\n    tag_205:\n        /* \"#utility.yul\":1826:1837   */\n      0x00\n        /* \"#utility.yul\":1860:1866   */\n      dup3\n        /* \"#utility.yul\":1855:1858   */\n      dup3\n        /* \"#utility.yul\":1848:1867   */\n      mstore\n        /* \"#utility.yul\":1900:1904   */\n      0x20\n        /* \"#utility.yul\":1895:1898   */\n      dup3\n        /* \"#utility.yul\":1891:1905   */\n      add\n        /* \"#utility.yul\":1876:1905   */\n      swap1\n      pop\n        /* \"#utility.yul\":1752:1911   */\n      swap3\n      swap2\n      pop\n      pop\n      jump\t// out\n        /* \"#utility.yul\":1917:2056   */\n    tag_206:\n        /* \"#utility.yul\":2006:2012   */\n      dup3\n        /* \"#utility.yul\":2001:2004   */\n      dup2\n        /* \"#utility.yul\":1996:1999   */\n      dup4\n        /* \"#utility.yul\":1990:2013   */\n      mcopy\n        /* \"#utility.yul\":2047:2048   */\n      0x00\n        /* \"#utility.yul\":2038:2044   */\n      dup4\n        /* \"#utility.yul\":2033:2036   */\n      dup4\n        /* \"#utility.yul\":2029:2045   */\n      add\n        /* \"#utility.yul\":2022:2049   */\n      mstore\n        /* \"#utility.yul\":1917:2056   */\n      pop\n      pop\n      pop\n      jump\t// out\n        /* \"#utility.yul\":2062:2164   */\n    tag_207:\n        /* \"#utility.yul\":2103:2109   */\n      0x00\n        /* \"#utility.yul\":2154:2156   */\n      0x1f\n        /* \"#utility.yul\":2150:2157   */\n      not\n        /* \"#utility.yul\":2145:2147   */\n      0x1f\n        /* \"#utility.yul\":2138:2143   */\n      dup4\n        /* \"#utility.yul\":2134:2148   */\n      add\n        /* \"#utility.yul\":2130:2158   */\n      and\n        /* \"#utility.yul\":2120:2158   */\n      swap1\n      pop\n        /* \"#utility.yul\":2062:2164   */\n      swap2\n      swap1\n      pop\n      jump\t// out\n        /* \"#utility.yul\":2170:2527   */\n    tag_208:\n        /* \"#utility.yul\":2248:2251   */\n      0x00\n        /* \"#utility.yul\":2276:2315   */\n      tag_291\n        /* \"#utility.yul\":2309:2314   */\n      dup3\n        /* \"#utility.yul\":2276:2315   */\n      tag_204\n      jump\t// in\n    tag_291:\n        /* \"#utility.yul\":2331:2392   */\n      tag_292\n        /* \"#utility.yul\":2385:2391   */\n      dup2\n        /* \"#utility.yul\":2380:2383   */\n      dup6\n        /* \"#utility.yul\":2331:2392   */\n      tag_205\n      jump\t// in\n    tag_292:\n        /* \"#utility.yul\":2324:2392   */\n      swap4\n      pop\n        /* \"#utility.yul\":2401:2466   */\n      tag_293\n        /* \"#utility.yul\":2459:2465   */\n      dup2\n        /* \"#utility.yul\":2454:2457   */\n      dup6\n        /* \"#utility.yul\":2447:2451   */\n      0x20\n        /* \"#utility.yul\":2440:2445   */\n      dup7\n        /* \"#utility.yul\":2436:2452   */\n      add\n        /* \"#utility.yul\":2401:2466   */\n      tag_206\n      jump\t// in\n    tag_293:\n        /* \"#utility.yul\":2491:2520   */\n      tag_294\n        /* \"#utility.yul\":2513:2519   */\n      dup2\n        /* \"#utility.yul\":2491:2520   */\n      tag_207\n      jump\t// in\n    tag_294:\n        /* \"#utility.yul\":2486:2489   */\n      dup5\n        /* \"#utility.yul\":2482:2521   */\n      add\n        /* \"#utility.yul\":2475:2521   */\n      swap2\n      pop\n        /* \"#utility.yul\":2252:2527   */\n      pop\n        /* \"#utility.yul\":2170:2527   */\n      swap3\n      swap2\n      pop\n      pop\n      jump\t// out\n        /* \"#utility.yul\":2533:2623   */\n    tag_209:\n        /* \"#utility.yul\":2567:2574   */\n      0x00\n        /* \"#utility.yul\":2610:2615   */\n      dup2\n        /* \"#utility.yul\":2603:2616   */\n      iszero\n        /* \"#utility.yul\":2596:2617   */\n      iszero\n        /* \"#utility.yul\":2585:2617   */\n      swap1\n      pop\n        /* \"#utility.yul\":2533:2623   */\n      swap2\n      swap1\n      pop\n      jump\t// out\n        /* \"#utility.yul\":2629:2728   */\n    tag_210:\n        /* \"#utility.yul\":2700:2721   */\n      tag_297\n        /* \"#utility.yul\":2715:2720   */\n      dup2\n        /* \"#utility.yul\":2700:2721   */\n      tag_209\n      jump\t// in\n    tag_297:\n        /* \"#utility.yul\":2695:2698   */\n      dup3\n        /* \"#utility.yul\":2688:2722   */\n      mstore\n        /* \"#utility.yul\":2629:2728   */\n      pop\n      pop\n      jump\t// out\n        /* \"#utility.yul\":2788:4149   */\n    tag_211:\n        /* \"#utility.yul\":2887:2890   */\n      0x00\n        /* \"#utility.yul\":2923:2927   */\n      0xc0\n        /* \"#utility.yul\":2918:2921   */\n      dup4\n        /* \"#utility.yul\":2914:2928   */\n      add\n        /* \"#utility.yul\":3012:3016   */\n      0x00\n        /* \"#utility.yul\":3005:3010   */\n      dup4\n        /* \"#utility.yul\":3001:3017   */\n      add\n        /* \"#utility.yul\":2995:3018   */\n      mload\n        /* \"#utility.yul\":3031:3094   */\n      tag_299\n        /* \"#utility.yul\":3088:3092   */\n      0x00\n        /* \"#utility.yul\":3083:3086   */\n      dup7\n        /* \"#utility.yul\":3079:3093   */\n      add\n        /* \"#utility.yul\":3065:3077   */\n      dup3\n        /* \"#utility.yul\":3031:3094   */\n      tag_203\n      jump\t// in\n    tag_299:\n        /* \"#utility.yul\":2938:3104   */\n      pop\n        /* \"#utility.yul\":3187:3191   */\n      0x20\n        /* \"#utility.yul\":3180:3185   */\n      dup4\n        /* \"#utility.yul\":3176:3192   */\n      add\n        /* \"#utility.yul\":3170:3193   */\n      mload\n        /* \"#utility.yul\":3240:3243   */\n      dup5\n        /* \"#utility.yul\":3234:3238   */\n      dup3\n        /* \"#utility.yul\":3230:3244   */\n      sub\n        /* \"#utility.yul\":3223:3227   */\n      0x20\n        /* \"#utility.yul\":3218:3221   */\n      dup7\n        /* \"#utility.yul\":3214:3228   */\n      add\n        /* \"#utility.yul\":3207:3245   */\n      mstore\n        /* \"#utility.yul\":3266:3339   */\n      tag_300\n        /* \"#utility.yul\":3334:3338   */\n      dup3\n        /* \"#utility.yul\":3320:3332   */\n      dup3\n        /* \"#utility.yul\":3266:3339   */\n      tag_208\n      jump\t// in\n    tag_300:\n        /* \"#utility.yul\":3258:3339   */\n      swap2\n      pop\n        /* \"#utility.yul\":3114:3350   */\n      pop\n        /* \"#utility.yul\":3434:3438   */\n      0x40\n        /* \"#utility.yul\":3427:3432   */\n      dup4\n        /* \"#utility.yul\":3423:3439   */\n      add\n        /* \"#utility.yul\":3417:3440   */\n      mload\n        /* \"#utility.yul\":3487:3490   */\n      dup5\n        /* \"#utility.yul\":3481:3485   */\n      dup3\n        /* \"#utility.yul\":3477:3491   */\n      sub\n        /* \"#utility.yul\":3470:3474   */\n      0x40\n        /* \"#utility.yul\":3465:3468   */\n      dup7\n        /* \"#utility.yul\":3461:3475   */\n      add\n        /* \"#utility.yul\":3454:3492   */\n      mstore\n        /* \"#utility.yul\":3513:3586   */\n      tag_301\n        /* \"#utility.yul\":3581:3585   */\n      dup3\n        /* \"#utility.yul\":3567:3579   */\n      dup3\n        /* \"#utility.yul\":3513:3586   */\n      tag_208\n      jump\t// in\n    tag_301:\n        /* \"#utility.yul\":3505:3586   */\n      swap2\n      pop\n        /* \"#utility.yul\":3360:3597   */\n      pop\n        /* \"#utility.yul\":3680:3684   */\n      0x60\n        /* \"#utility.yul\":3673:3678   */\n      dup4\n        /* \"#utility.yul\":3669:3685   */\n      add\n        /* \"#utility.yul\":3663:3686   */\n      mload\n        /* \"#utility.yul\":3699:3762   */\n      tag_302\n        /* \"#utility.yul\":3756:3760   */\n      0x60\n        /* \"#utility.yul\":3751:3754   */\n      dup7\n        /* \"#utility.yul\":3747:3761   */\n      add\n        /* \"#utility.yul\":3733:3745   */\n      dup3\n        /* \"#utility.yul\":3699:3762   */\n      tag_203\n      jump\t// in\n    tag_302:\n        /* \"#utility.yul\":3607:3772   */\n      pop\n        /* \"#utility.yul\":3855:3859   */\n      0x80\n        /* \"#utility.yul\":3848:3853   */\n      dup4\n        /* \"#utility.yul\":3844:3860   */\n      add\n        /* \"#utility.yul\":3838:3861   */\n      mload\n        /* \"#utility.yul\":3874:3937   */\n      tag_303\n        /* \"#utility.yul\":3931:3935   */\n      0x80\n        /* \"#utility.yul\":3926:3929   */\n      dup7\n        /* \"#utility.yul\":3922:3936   */\n      add\n        /* \"#utility.yul\":3908:3920   */\n      dup3\n        /* \"#utility.yul\":3874:3937   */\n      tag_203\n      jump\t// in\n    tag_303:\n        /* \"#utility.yul\":3782:3947   */\n      pop\n        /* \"#utility.yul\":4036:4040   */\n      0xa0\n        /* \"#utility.yul\":4029:4034   */\n      dup4\n        /* \"#utility.yul\":4025:4041   */\n      add\n        /* \"#utility.yul\":4019:4042   */\n      mload\n        /* \"#utility.yul\":4055:4112   */\n      tag_304\n        /* \"#utility.yul\":4106:4110   */\n      0xa0\n        /* \"#utility.yul\":4101:4104   */\n      dup7\n        /* \"#utility.yul\":4097:4111   */\n      add\n        /* \"#utility.yul\":4083:4095   */\n      dup3\n        /* \"#utility.yul\":4055:4112   */\n      tag_210\n      jump\t// in\n    tag_304:\n        /* \"#utility.yul\":3957:4122   */\n      pop\n        /* \"#utility.yul\":4139:4143   */\n      dup1\n        /* \"#utility.yul\":4132:4143   */\n      swap2\n      pop\n        /* \"#utility.yul\":2892:4149   */\n      pop\n        /* \"#utility.yul\":2788:4149   */\n      swap3\n      swap2\n      pop\n      pop\n      jump\t// out\n        /* \"#utility.yul\":4155:4391   */\n    tag_212:\n        /* \"#utility.yul\":4264:4274   */\n      0x00\n        /* \"#utility.yul\":4299:4385   */\n      tag_306\n        /* \"#utility.yul\":4381:4384   */\n      dup4\n        /* \"#utility.yul\":4373:4379   */\n      dup4\n        /* \"#utility.yul\":4299:4385   */\n      tag_211\n      jump\t// in\n    tag_306:\n        /* \"#utility.yul\":4285:4385   */\n      swap1\n      pop\n        /* \"#utility.yul\":4155:4391   */\n      swap3\n      swap2\n      pop\n      pop\n      jump\t// out\n        /* \"#utility.yul\":4397:4530   */\n    tag_213:\n        /* \"#utility.yul\":4487:4491   */\n      0x00\n        /* \"#utility.yul\":4519:4523   */\n      0x20\n        /* \"#utility.yul\":4514:4517   */\n      dup3\n        /* \"#utility.yul\":4510:4524   */\n      add\n        /* \"#utility.yul\":4502:4524   */\n      swap1\n      pop\n        /* \"#utility.yul\":4397:4530   */\n      swap2\n      swap1\n      pop\n      jump\t// out\n        /* \"#utility.yul\":4594:5665   */\n    tag_214:\n        /* \"#utility.yul\":4753:4756   */\n      0x00\n        /* \"#utility.yul\":4782:4856   */\n      tag_309\n        /* \"#utility.yul\":4850:4855   */\n      dup3\n        /* \"#utility.yul\":4782:4856   */\n      tag_200\n      jump\t// in\n    tag_309:\n        /* \"#utility.yul\":4872:4978   */\n      tag_310\n        /* \"#utility.yul\":4971:4977   */\n      dup2\n        /* \"#utility.yul\":4966:4969   */\n      dup6\n        /* \"#utility.yul\":4872:4978   */\n      tag_201\n      jump\t// in\n    tag_310:\n        /* \"#utility.yul\":4865:4978   */\n      swap4\n      pop\n        /* \"#utility.yul\":5004:5007   */\n      dup4\n        /* \"#utility.yul\":5049:5053   */\n      0x20\n        /* \"#utility.yul\":5041:5047   */\n      dup3\n        /* \"#utility.yul\":5037:5054   */\n      mul\n        /* \"#utility.yul\":5032:5035   */\n      dup6\n        /* \"#utility.yul\":5028:5055   */\n      add\n        /* \"#utility.yul\":5079:5155   */\n      tag_311\n        /* \"#utility.yul\":5149:5154   */\n      dup6\n        /* \"#utility.yul\":5079:5155   */\n      tag_202\n      jump\t// in\n    tag_311:\n        /* \"#utility.yul\":5178:5185   */\n      dup1\n        /* \"#utility.yul\":5209:5210   */\n      0x00\n        /* \"#utility.yul\":5194:5620   */\n    tag_312:\n        /* \"#utility.yul\":5219:5225   */\n      dup6\n        /* \"#utility.yul\":5216:5217   */\n      dup2\n        /* \"#utility.yul\":5213:5226   */\n      lt\n        /* \"#utility.yul\":5194:5620   */\n      iszero\n      tag_314\n      jumpi\n        /* \"#utility.yul\":5290:5299   */\n      dup5\n        /* \"#utility.yul\":5284:5288   */\n      dup5\n        /* \"#utility.yul\":5280:5300   */\n      sub\n        /* \"#utility.yul\":5275:5278   */\n      dup10\n        /* \"#utility.yul\":5268:5301   */\n      mstore\n        /* \"#utility.yul\":5341:5347   */\n      dup2\n        /* \"#utility.yul\":5335:5348   */\n      mload\n        /* \"#utility.yul\":5369:5473   */\n      tag_315\n        /* \"#utility.yul\":5468:5472   */\n      dup6\n        /* \"#utility.yul\":5453:5466   */\n      dup3\n        /* \"#utility.yul\":5369:5473   */\n      tag_212\n      jump\t// in\n    tag_315:\n        /* \"#utility.yul\":5361:5473   */\n      swap5\n      pop\n        /* \"#utility.yul\":5496:5576   */\n      tag_316\n        /* \"#utility.yul\":5569:5575   */\n      dup4\n        /* \"#utility.yul\":5496:5576   */\n      tag_213\n      jump\t// in\n    tag_316:\n        /* \"#utility.yul\":5486:5576   */\n      swap3\n      pop\n        /* \"#utility.yul\":5605:5609   */\n      0x20\n        /* \"#utility.yul\":5600:5603   */\n      dup11\n        /* \"#utility.yul\":5596:5610   */\n      add\n        /* \"#utility.yul\":5589:5610   */\n      swap10\n      pop\n        /* \"#utility.yul\":5254:5620   */\n      pop\n        /* \"#utility.yul\":5241:5242   */\n      0x01\n        /* \"#utility.yul\":5238:5239   */\n      dup2\n        /* \"#utility.yul\":5234:5243   */\n      add\n        /* \"#utility.yul\":5229:5243   */\n      swap1\n      pop\n        /* \"#utility.yul\":5194:5620   */\n      jump(tag_312)\n    tag_314:\n        /* \"#utility.yul\":5198:5212   */\n      pop\n        /* \"#utility.yul\":5636:5640   */\n      dup3\n        /* \"#utility.yul\":5629:5640   */\n      swap8\n      pop\n        /* \"#utility.yul\":5656:5659   */\n      dup8\n        /* \"#utility.yul\":5649:5659   */\n      swap6\n      pop\n        /* \"#utility.yul\":4758:5665   */\n      pop\n      pop\n      pop\n      pop\n      pop\n        /* \"#utility.yul\":4594:5665   */\n      swap3\n      swap2\n      pop\n      pop\n      jump\t// out\n        /* \"#utility.yul\":5671:6124   */\n    tag_23:\n        /* \"#utility.yul\":5854:5858   */\n      0x00\n        /* \"#utility.yul\":5892:5894   */\n      0x20\n        /* \"#utility.yul\":5881:5890   */\n      dup3\n        /* \"#utility.yul\":5877:5895   */\n      add\n        /* \"#utility.yul\":5869:5895   */\n      swap1\n      pop\n        /* \"#utility.yul\":5941:5950   */\n      dup2\n        /* \"#utility.yul\":5935:5939   */\n      dup2\n        /* \"#utility.yul\":5931:5951   */\n      sub\n        /* \"#utility.yul\":5927:5928   */\n      0x00\n        /* \"#utility.yul\":5916:5925   */\n      dup4\n        /* \"#utility.yul\":5912:5929   */\n      add\n        /* \"#utility.yul\":5905:5952   */\n      mstore\n        /* \"#utility.yul\":5969:6117   */\n      tag_318\n        /* \"#utility.yul\":6112:6116   */\n      dup2\n        /* \"#utility.yul\":6103:6109   */\n      dup5\n        /* \"#utility.yul\":5969:6117   */\n      tag_214\n      jump\t// in\n    tag_318:\n        /* \"#utility.yul\":5961:6117   */\n      swap1\n      pop\n        /* \"#utility.yul\":5671:6124   */\n      swap3\n      swap2\n      pop\n      pop\n      jump\t// out\n        /* \"#utility.yul\":6130:6248   */\n    tag_215:\n        /* \"#utility.yul\":6217:6241   */\n      tag_320\n        /* \"#utility.yul\":6235:6240   */\n      dup2\n        /* \"#utility.yul\":6217:6241   */\n      tag_197\n      jump\t// in\n    tag_320:\n        /* \"#utility.yul\":6212:6215   */\n      dup3\n        /* \"#utility.yul\":6205:6242   */\n      mstore\n        /* \"#utility.yul\":6130:6248   */\n      pop\n      pop\n      jump\t// out\n        /* \"#utility.yul\":6254:6476   */\n    tag_28:\n        /* \"#utility.yul\":6347:6351   */\n      0x00\n        /* \"#utility.yul\":6385:6387   */\n      0x20\n        /* \"#utility.yul\":6374:6383   */\n      dup3\n        /* \"#utility.yul\":6370:6388   */\n      add\n        /* \"#utility.yul\":6362:6388   */\n      swap1\n      pop\n        /* \"#utility.yul\":6398:6469   */\n      tag_322\n        /* \"#utility.yul\":6466:6467   */\n      0x00\n        /* \"#utility.yul\":6455:6464   */\n      dup4\n        /* \"#utility.yul\":6451:6468   */\n      add\n        /* \"#utility.yul\":6442:6448   */\n      dup5\n        /* \"#utility.yul\":6398:6469   */\n      tag_215\n      jump\t// in\n    tag_322:\n        /* \"#utility.yul\":6254:6476   */\n      swap3\n      swap2\n      pop\n      pop\n      jump\t// out\n        /* \"#utility.yul\":6482:6651   */\n    tag_216:\n        /* \"#utility.yul\":6566:6577   */\n      0x00\n        /* \"#utility.yul\":6600:6606   */\n      dup3\n        /* \"#utility.yul\":6595:6598   */\n      dup3\n        /* \"#utility.yul\":6588:6607   */\n      mstore\n        /* \"#utility.yul\":6640:6644   */\n      0x20\n        /* \"#utility.yul\":6635:6638   */\n      dup3\n        /* \"#utility.yul\":6631:6645   */\n      add\n        /* \"#utility.yul\":6616:6645   */\n      swap1\n      pop\n        /* \"#utility.yul\":6482:6651   */\n      swap3\n      swap2\n      pop\n      pop\n      jump\t// out\n        /* \"#utility.yul\":6657:7034   */\n    tag_217:\n        /* \"#utility.yul\":6745:6748   */\n      0x00\n        /* \"#utility.yul\":6773:6812   */\n      tag_325\n        /* \"#utility.yul\":6806:6811   */\n      dup3\n        /* \"#utility.yul\":6773:6812   */\n      tag_204\n      jump\t// in\n    tag_325:\n        /* \"#utility.yul\":6828:6899   */\n      tag_326\n        /* \"#utility.yul\":6892:6898   */\n      dup2\n        /* \"#utility.yul\":6887:6890   */\n      dup6\n        /* \"#utility.yul\":6828:6899   */\n      tag_216\n      jump\t// in\n    tag_326:\n        /* \"#utility.yul\":6821:6899   */\n      swap4\n      pop\n        /* \"#utility.yul\":6908:6973   */\n      tag_327\n        /* \"#utility.yul\":6966:6972   */\n      dup2\n        /* \"#utility.yul\":6961:6964   */\n      dup6\n        /* \"#utility.yul\":6954:6958   */\n      0x20\n        /* \"#utility.yul\":6947:6952   */\n      dup7\n        /* \"#utility.yul\":6943:6959   */\n      add\n        /* \"#utility.yul\":6908:6973   */\n      tag_206\n      jump\t// in\n    tag_327:\n        /* \"#utility.yul\":6998:7027   */\n      tag_328\n        /* \"#utility.yul\":7020:7026   */\n      dup2\n        /* \"#utility.yul\":6998:7027   */\n      tag_207\n      jump\t// in\n    tag_328:\n        /* \"#utility.yul\":6993:6996   */\n      dup5\n        /* \"#utility.yul\":6989:7028   */\n      add\n        /* \"#utility.yul\":6982:7028   */\n      swap2\n      pop\n        /* \"#utility.yul\":6749:7034   */\n      pop\n        /* \"#utility.yul\":6657:7034   */\n      swap3\n      swap2\n      pop\n      pop\n      jump\t// out\n        /* \"#utility.yul\":7040:7149   */\n    tag_218:\n        /* \"#utility.yul\":7121:7142   */\n      tag_330\n        /* \"#utility.yul\":7136:7141   */\n      dup2\n        /* \"#utility.yul\":7121:7142   */\n      tag_209\n      jump\t// in\n    tag_330:\n        /* \"#utility.yul\":7116:7119   */\n      dup3\n        /* \"#utility.yul\":7109:7143   */\n      mstore\n        /* \"#utility.yul\":7040:7149   */\n      pop\n      pop\n      jump\t// out\n        /* \"#utility.yul\":7155:8100   */\n    tag_38:\n        /* \"#utility.yul\":7422:7426   */\n      0x00\n        /* \"#utility.yul\":7460:7463   */\n      0xc0\n        /* \"#utility.yul\":7449:7458   */\n      dup3\n        /* \"#utility.yul\":7445:7464   */\n      add\n        /* \"#utility.yul\":7437:7464   */\n      swap1\n      pop\n        /* \"#utility.yul\":7474:7545   */\n      tag_332\n        /* \"#utility.yul\":7542:7543   */\n      0x00\n        /* \"#utility.yul\":7531:7540   */\n      dup4\n        /* \"#utility.yul\":7527:7544   */\n      add\n        /* \"#utility.yul\":7518:7524   */\n      dup10\n        /* \"#utility.yul\":7474:7545   */\n      tag_215\n      jump\t// in\n    tag_332:\n        /* \"#utility.yul\":7592:7601   */\n      dup2\n        /* \"#utility.yul\":7586:7590   */\n      dup2\n        /* \"#utility.yul\":7582:7602   */\n      sub\n        /* \"#utility.yul\":7577:7579   */\n      0x20\n        /* \"#utility.yul\":7566:7575   */\n      dup4\n        /* \"#utility.yul\":7562:7580   */\n      add\n        /* \"#utility.yul\":7555:7603   */\n      mstore\n        /* \"#utility.yul\":7620:7698   */\n      tag_333\n        /* \"#utility.yul\":7693:7697   */\n      dup2\n        /* \"#utility.yul\":7684:7690   */\n      dup9\n        /* \"#utility.yul\":7620:7698   */\n      tag_217\n      jump\t// in\n    tag_333:\n        /* \"#utility.yul\":7612:7698   */\n      swap1\n      pop\n        /* \"#utility.yul\":7745:7754   */\n      dup2\n        /* \"#utility.yul\":7739:7743   */\n      dup2\n        /* \"#utility.yul\":7735:7755   */\n      sub\n        /* \"#utility.yul\":7730:7732   */\n      0x40\n        /* \"#utility.yul\":7719:7728   */\n      dup4\n        /* \"#utility.yul\":7715:7733   */\n      add\n        /* \"#utility.yul\":7708:7756   */\n      mstore\n        /* \"#utility.yul\":7773:7851   */\n      tag_334\n        /* \"#utility.yul\":7846:7850   */\n      dup2\n        /* \"#utility.yul\":7837:7843   */\n      dup8\n        /* \"#utility.yul\":7773:7851   */\n      tag_217\n      jump\t// in\n    tag_334:\n        /* \"#utility.yul\":7765:7851   */\n      swap1\n      pop\n        /* \"#utility.yul\":7861:7933   */\n      tag_335\n        /* \"#utility.yul\":7929:7931   */\n      0x60\n        /* \"#utility.yul\":7918:7927   */\n      dup4\n        /* \"#utility.yul\":7914:7932   */\n      add\n        /* \"#utility.yul\":7905:7911   */\n      dup7\n        /* \"#utility.yul\":7861:7933   */\n      tag_215\n      jump\t// in\n    tag_335:\n        /* \"#utility.yul\":7943:8016   */\n      tag_336\n        /* \"#utility.yul\":8011:8014   */\n      0x80\n        /* \"#utility.yul\":8000:8009   */\n      dup4\n        /* \"#utility.yul\":7996:8015   */\n      add\n        /* \"#utility.yul\":7987:7993   */\n      dup6\n        /* \"#utility.yul\":7943:8016   */\n      tag_215\n      jump\t// in\n    tag_336:\n        /* \"#utility.yul\":8026:8093   */\n      tag_337\n        /* \"#utility.yul\":8088:8091   */\n      0xa0\n        /* \"#utility.yul\":8077:8086   */\n      dup4\n        /* \"#utility.yul\":8073:8092   */\n      add\n        /* \"#utility.yul\":8064:8070   */\n      dup5\n        /* \"#utility.yul\":8026:8093   */\n      tag_218\n      jump\t// in\n    tag_337:\n        /* \"#utility.yul\":7155:8100   */\n      swap8\n      swap7\n      pop\n      pop\n      pop\n      pop\n      pop\n      pop\n      pop\n      jump\t// out\n        /* \"#utility.yul\":8106:8232   */\n    tag_219:\n        /* \"#utility.yul\":8143:8150   */\n      0x00\n        /* \"#utility.yul\":8183:8225   */\n      0xffffffffffffffffffffffffffffffffffffffff\n        /* \"#utility.yul\":8176:8181   */\n      dup3\n        /* \"#utility.yul\":8172:8226   */\n      and\n        /* \"#utility.yul\":8161:8226   */\n      swap1\n      pop\n        /* \"#utility.yul\":8106:8232   */\n      swap2\n      swap1\n      pop\n      jump\t// out\n        /* \"#utility.yul\":8238:8334   */\n    tag_220:\n        /* \"#utility.yul\":8275:8282   */\n      0x00\n        /* \"#utility.yul\":8304:8328   */\n      tag_340\n        /* \"#utility.yul\":8322:8327   */\n      dup3\n        /* \"#utility.yul\":8304:8328   */\n      tag_219\n      jump\t// in\n    tag_340:\n        /* \"#utility.yul\":8293:8328   */\n      swap1\n      pop\n        /* \"#utility.yul\":8238:8334   */\n      swap2\n      swap1\n      pop\n      jump\t// out\n        /* \"#utility.yul\":8340:8458   */\n    tag_221:\n        /* \"#utility.yul\":8427:8451   */\n      tag_342\n        /* \"#utility.yul\":8445:8450   */\n      dup2\n        /* \"#utility.yul\":8427:8451   */\n      tag_220\n      jump\t// in\n    tag_342:\n        /* \"#utility.yul\":8422:8425   */\n      dup3\n        /* \"#utility.yul\":8415:8452   */\n      mstore\n        /* \"#utility.yul\":8340:8458   */\n      pop\n      pop\n      jump\t// out\n        /* \"#utility.yul\":8464:8686   */\n    tag_48:\n        /* \"#utility.yul\":8557:8561   */\n      0x00\n        /* \"#utility.yul\":8595:8597   */\n      0x20\n        /* \"#utility.yul\":8584:8593   */\n      dup3\n        /* \"#utility.yul\":8580:8598   */\n      add\n        /* \"#utility.yul\":8572:8598   */\n      swap1\n      pop\n        /* \"#utility.yul\":8608:8679   */\n      tag_344\n        /* \"#utility.yul\":8676:8677   */\n      0x00\n        /* \"#utility.yul\":8665:8674   */\n      dup4\n        /* \"#utility.yul\":8661:8678   */\n      add\n        /* \"#utility.yul\":8652:8658   */\n      dup5\n        /* \"#utility.yul\":8608:8679   */\n      tag_221\n      jump\t// in\n    tag_344:\n        /* \"#utility.yul\":8464:8686   */\n      swap3\n      swap2\n      pop\n      pop\n      jump\t// out\n        /* \"#utility.yul\":8692:9166   */\n    tag_55:\n        /* \"#utility.yul\":8760:8766   */\n      0x00\n        /* \"#utility.yul\":8768:8774   */\n      dup1\n        /* \"#utility.yul\":8817:8819   */\n      0x40\n        /* \"#utility.yul\":8805:8814   */\n      dup4\n        /* \"#utility.yul\":8796:8803   */\n      dup6\n        /* \"#utility.yul\":8792:8815   */\n      sub\n        /* \"#utility.yul\":8788:8820   */\n      slt\n        /* \"#utility.yul\":8785:8904   */\n      iszero\n      tag_346\n      jumpi\n        /* \"#utility.yul\":8823:8902   */\n      tag_347\n      tag_195\n      jump\t// in\n    tag_347:\n        /* \"#utility.yul\":8785:8904   */\n    tag_346:\n        /* \"#utility.yul\":8943:8944   */\n      0x00\n        /* \"#utility.yul\":8968:9021   */\n      tag_348\n        /* \"#utility.yul\":9013:9020   */\n      dup6\n        /* \"#utility.yul\":9004:9010   */\n      dup3\n        /* \"#utility.yul\":8993:9002   */\n      dup7\n        /* \"#utility.yul\":8989:9011   */\n      add\n        /* \"#utility.yul\":8968:9021   */\n      tag_199\n      jump\t// in\n    tag_348:\n        /* \"#utility.yul\":8958:9021   */\n      swap3\n      pop\n        /* \"#utility.yul\":8914:9031   */\n      pop\n        /* \"#utility.yul\":9070:9072   */\n      0x20\n        /* \"#utility.yul\":9096:9149   */\n      tag_349\n        /* \"#utility.yul\":9141:9148   */\n      dup6\n        /* \"#utility.yul\":9132:9138   */\n      dup3\n        /* \"#utility.yul\":9121:9130   */\n      dup7\n        /* \"#utility.yul\":9117:9139   */\n      add\n        /* \"#utility.yul\":9096:9149   */\n      tag_199\n      jump\t// in\n    tag_349:\n        /* \"#utility.yul\":9086:9149   */\n      swap2\n      pop\n        /* \"#utility.yul\":9041:9159   */\n      pop\n        /* \"#utility.yul\":8692:9166   */\n      swap3\n      pop\n      swap3\n      swap1\n      pop\n      jump\t// out\n        /* \"#utility.yul\":9172:9289   */\n    tag_222:\n        /* \"#utility.yul\":9281:9282   */\n      0x00\n        /* \"#utility.yul\":9278:9279   */\n      dup1\n        /* \"#utility.yul\":9271:9283   */\n      revert\n        /* \"#utility.yul\":9295:9412   */\n    tag_223:\n        /* \"#utility.yul\":9404:9405   */\n      0x00\n        /* \"#utility.yul\":9401:9402   */\n      dup1\n        /* \"#utility.yul\":9394:9406   */\n      revert\n        /* \"#utility.yul\":9418:9598   */\n    tag_93:\n        /* \"#utility.yul\":9466:9543   */\n      0x4e487b7100000000000000000000000000000000000000000000000000000000\n        /* \"#utility.yul\":9463:9464   */\n      0x00\n        /* \"#utility.yul\":9456:9544   */\n      mstore\n        /* \"#utility.yul\":9563:9567   */\n      0x41\n        /* \"#utility.yul\":9560:9561   */\n      0x04\n        /* \"#utility.yul\":9553:9568   */\n      mstore\n        /* \"#utility.yul\":9587:9591   */\n      0x24\n        /* \"#utility.yul\":9584:9585   */\n      0x00\n        /* \"#utility.yul\":9577:9592   */\n      revert\n        /* \"#utility.yul\":9604:9885   */\n    tag_224:\n        /* \"#utility.yul\":9687:9714   */\n      tag_354\n        /* \"#utility.yul\":9709:9713   */\n      dup3\n        /* \"#utility.yul\":9687:9714   */\n      tag_207\n      jump\t// in\n    tag_354:\n        /* \"#utility.yul\":9679:9685   */\n      dup2\n        /* \"#utility.yul\":9675:9715   */\n      add\n        /* \"#utility.yul\":9817:9823   */\n      dup2\n        /* \"#utility.yul\":9805:9815   */\n      dup2\n        /* \"#utility.yul\":9802:9824   */\n      lt\n        /* \"#utility.yul\":9781:9799   */\n      0xffffffffffffffff\n        /* \"#utility.yul\":9769:9779   */\n      dup3\n        /* \"#utility.yul\":9766:9800   */\n      gt\n        /* \"#utility.yul\":9763:9825   */\n      or\n        /* \"#utility.yul\":9760:9848   */\n      iszero\n      tag_355\n      jumpi\n        /* \"#utility.yul\":9828:9846   */\n      tag_356\n      tag_93\n      jump\t// in\n    tag_356:\n        /* \"#utility.yul\":9760:9848   */\n    tag_355:\n        /* \"#utility.yul\":9868:9878   */\n      dup1\n        /* \"#utility.yul\":9864:9866   */\n      0x40\n        /* \"#utility.yul\":9857:9879   */\n      mstore\n        /* \"#utility.yul\":9647:9885   */\n      pop\n        /* \"#utility.yul\":9604:9885   */\n      pop\n      pop\n      jump\t// out\n        /* \"#utility.yul\":9891:10020   */\n    tag_225:\n        /* \"#utility.yul\":9925:9931   */\n      0x00\n        /* \"#utility.yul\":9952:9972   */\n      tag_358\n      tag_194\n      jump\t// in\n    tag_358:\n        /* \"#utility.yul\":9942:9972   */\n      swap1\n      pop\n        /* \"#utility.yul\":9981:10014   */\n      tag_359\n        /* \"#utility.yul\":10009:10013   */\n      dup3\n        /* \"#utility.yul\":10001:10007   */\n      dup3\n        /* \"#utility.yul\":9981:10014   */\n      tag_224\n      jump\t// in\n    tag_359:\n        /* \"#utility.yul\":9891:10020   */\n      swap2\n      swap1\n      pop\n      jump\t// out\n        /* \"#utility.yul\":10026:10334   */\n    tag_226:\n        /* \"#utility.yul\":10088:10092   */\n      0x00\n        /* \"#utility.yul\":10178:10196   */\n      0xffffffffffffffff\n        /* \"#utility.yul\":10170:10176   */\n      dup3\n        /* \"#utility.yul\":10167:10197   */\n      gt\n        /* \"#utility.yul\":10164:10220   */\n      iszero\n      tag_361\n      jumpi\n        /* \"#utility.yul\":10200:10218   */\n      tag_362\n      tag_93\n      jump\t// in\n    tag_362:\n        /* \"#utility.yul\":10164:10220   */\n    tag_361:\n        /* \"#utility.yul\":10238:10267   */\n      tag_363\n        /* \"#utility.yul\":10260:10266   */\n      dup3\n        /* \"#utility.yul\":10238:10267   */\n      tag_207\n      jump\t// in\n    tag_363:\n        /* \"#utility.yul\":10230:10267   */\n      swap1\n      pop\n        /* \"#utility.yul\":10322:10326   */\n      0x20\n        /* \"#utility.yul\":10316:10320   */\n      dup2\n        /* \"#utility.yul\":10312:10327   */\n      add\n        /* \"#utility.yul\":10304:10327   */\n      swap1\n      pop\n        /* \"#utility.yul\":10026:10334   */\n      swap2\n      swap1\n      pop\n      jump\t// out\n        /* \"#utility.yul\":10340:10488   */\n    tag_227:\n        /* \"#utility.yul\":10438:10444   */\n      dup3\n        /* \"#utility.yul\":10433:10436   */\n      dup2\n        /* \"#utility.yul\":10428:10431   */\n      dup4\n        /* \"#utility.yul\":10415:10445   */\n      calldatacopy\n        /* \"#utility.yul\":10479:10480   */\n      0x00\n        /* \"#utility.yul\":10470:10476   */\n      dup4\n        /* \"#utility.yul\":10465:10468   */\n      dup4\n        /* \"#utility.yul\":10461:10477   */\n      add\n        /* \"#utility.yul\":10454:10481   */\n      mstore\n        /* \"#utility.yul\":10340:10488   */\n      pop\n      pop\n      pop\n      jump\t// out\n        /* \"#utility.yul\":10494:10919   */\n    tag_228:\n        /* \"#utility.yul\":10572:10577   */\n      0x00\n        /* \"#utility.yul\":10597:10663   */\n      tag_366\n        /* \"#utility.yul\":10613:10662   */\n      tag_367\n        /* \"#utility.yul\":10655:10661   */\n      dup5\n        /* \"#utility.yul\":10613:10662   */\n      tag_226\n      jump\t// in\n    tag_367:\n        /* \"#utility.yul\":10597:10663   */\n      tag_225\n      jump\t// in\n    tag_366:\n        /* \"#utility.yul\":10588:10663   */\n      swap1\n      pop\n        /* \"#utility.yul\":10686:10692   */\n      dup3\n        /* \"#utility.yul\":10679:10684   */\n      dup2\n        /* \"#utility.yul\":10672:10693   */\n      mstore\n        /* \"#utility.yul\":10724:10728   */\n      0x20\n        /* \"#utility.yul\":10717:10722   */\n      dup2\n        /* \"#utility.yul\":10713:10729   */\n      add\n        /* \"#utility.yul\":10762:10765   */\n      dup5\n        /* \"#utility.yul\":10753:10759   */\n      dup5\n        /* \"#utility.yul\":10748:10751   */\n      dup5\n        /* \"#utility.yul\":10744:10760   */\n      add\n        /* \"#utility.yul\":10741:10766   */\n      gt\n        /* \"#utility.yul\":10738:10850   */\n      iszero\n      tag_368\n      jumpi\n        /* \"#utility.yul\":10769:10848   */\n      tag_369\n      tag_223\n      jump\t// in\n    tag_369:\n        /* \"#utility.yul\":10738:10850   */\n    tag_368:\n        /* \"#utility.yul\":10859:10913   */\n      tag_370\n        /* \"#utility.yul\":10906:10912   */\n      dup5\n        /* \"#utility.yul\":10901:10904   */\n      dup3\n        /* \"#utility.yul\":10896:10899   */\n      dup6\n        /* \"#utility.yul\":10859:10913   */\n      tag_227\n      jump\t// in\n    tag_370:\n        /* \"#utility.yul\":10578:10919   */\n      pop\n        /* \"#utility.yul\":10494:10919   */\n      swap4\n      swap3\n      pop\n      pop\n      pop\n      jump\t// out\n        /* \"#utility.yul\":10939:11279   */\n    tag_229:\n        /* \"#utility.yul\":10995:11000   */\n      0x00\n        /* \"#utility.yul\":11044:11047   */\n      dup3\n        /* \"#utility.yul\":11037:11041   */\n      0x1f\n        /* \"#utility.yul\":11029:11035   */\n      dup4\n        /* \"#utility.yul\":11025:11042   */\n      add\n        /* \"#utility.yul\":11021:11048   */\n      slt\n        /* \"#utility.yul\":11011:11133   */\n      tag_372\n      jumpi\n        /* \"#utility.yul\":11052:11131   */\n      tag_373\n      tag_222\n      jump\t// in\n    tag_373:\n        /* \"#utility.yul\":11011:11133   */\n    tag_372:\n        /* \"#utility.yul\":11169:11175   */\n      dup2\n        /* \"#utility.yul\":11156:11176   */\n      calldataload\n        /* \"#utility.yul\":11194:11273   */\n      tag_374\n        /* \"#utility.yul\":11269:11272   */\n      dup5\n        /* \"#utility.yul\":11261:11267   */\n      dup3\n        /* \"#utility.yul\":11254:11258   */\n      0x20\n        /* \"#utility.yul\":11246:11252   */\n      dup7\n        /* \"#utility.yul\":11242:11259   */\n      add\n        /* \"#utility.yul\":11194:11273   */\n      tag_228\n      jump\t// in\n    tag_374:\n        /* \"#utility.yul\":11185:11273   */\n      swap2\n      pop\n        /* \"#utility.yul\":11001:11279   */\n      pop\n        /* \"#utility.yul\":10939:11279   */\n      swap3\n      swap2\n      pop\n      pop\n      jump\t// out\n        /* \"#utility.yul\":11285:12556   */\n    tag_68:\n        /* \"#utility.yul\":11400:11406   */\n      0x00\n        /* \"#utility.yul\":11408:11414   */\n      dup1\n        /* \"#utility.yul\":11416:11422   */\n      0x00\n        /* \"#utility.yul\":11424:11430   */\n      dup1\n        /* \"#utility.yul\":11432:11438   */\n      0x00\n        /* \"#utility.yul\":11481:11484   */\n      0xa0\n        /* \"#utility.yul\":11469:11478   */\n      dup7\n        /* \"#utility.yul\":11460:11467   */\n      dup9\n        /* \"#utility.yul\":11456:11479   */\n      sub\n        /* \"#utility.yul\":11452:11485   */\n      slt\n        /* \"#utility.yul\":11449:11569   */\n      iszero\n      tag_376\n      jumpi\n        /* \"#utility.yul\":11488:11567   */\n      tag_377\n      tag_195\n      jump\t// in\n    tag_377:\n        /* \"#utility.yul\":11449:11569   */\n    tag_376:\n        /* \"#utility.yul\":11608:11609   */\n      0x00\n        /* \"#utility.yul\":11633:11686   */\n      tag_378\n        /* \"#utility.yul\":11678:11685   */\n      dup9\n        /* \"#utility.yul\":11669:11675   */\n      dup3\n        /* \"#utility.yul\":11658:11667   */\n      dup10\n        /* \"#utility.yul\":11654:11676   */\n      add\n        /* \"#utility.yul\":11633:11686   */\n      tag_199\n      jump\t// in\n    tag_378:\n        /* \"#utility.yul\":11623:11686   */\n      swap6\n      pop\n        /* \"#utility.yul\":11579:11696   */\n      pop\n        /* \"#utility.yul\":11763:11765   */\n      0x20\n        /* \"#utility.yul\":11752:11761   */\n      dup7\n        /* \"#utility.yul\":11748:11766   */\n      add\n        /* \"#utility.yul\":11735:11767   */\n      calldataload\n        /* \"#utility.yul\":11794:11812   */\n      0xffffffffffffffff\n        /* \"#utility.yul\":11786:11792   */\n      dup2\n        /* \"#utility.yul\":11783:11813   */\n      gt\n        /* \"#utility.yul\":11780:11897   */\n      iszero\n      tag_379\n      jumpi\n        /* \"#utility.yul\":11816:11895   */\n      tag_380\n      tag_196\n      jump\t// in\n    tag_380:\n        /* \"#utility.yul\":11780:11897   */\n    tag_379:\n        /* \"#utility.yul\":11921:11984   */\n      tag_381\n        /* \"#utility.yul\":11976:11983   */\n      dup9\n        /* \"#utility.yul\":11967:11973   */\n      dup3\n        /* \"#utility.yul\":11956:11965   */\n      dup10\n        /* \"#utility.yul\":11952:11974   */\n      add\n        /* \"#utility.yul\":11921:11984   */\n      tag_229\n      jump\t// in\n    tag_381:\n        /* \"#utility.yul\":11911:11984   */\n      swap5\n      pop\n        /* \"#utility.yul\":11706:11994   */\n      pop\n        /* \"#utility.yul\":12061:12063   */\n      0x40\n        /* \"#utility.yul\":12050:12059   */\n      dup7\n        /* \"#utility.yul\":12046:12064   */\n      add\n        /* \"#utility.yul\":12033:12065   */\n      calldataload\n        /* \"#utility.yul\":12092:12110   */\n      0xffffffffffffffff\n        /* \"#utility.yul\":12084:12090   */\n      dup2\n        /* \"#utility.yul\":12081:12111   */\n      gt\n        /* \"#utility.yul\":12078:12195   */\n      iszero\n      tag_382\n      jumpi\n        /* \"#utility.yul\":12114:12193   */\n      tag_383\n      tag_196\n      jump\t// in\n    tag_383:\n        /* \"#utility.yul\":12078:12195   */\n    tag_382:\n        /* \"#utility.yul\":12219:12282   */\n      tag_384\n        /* \"#utility.yul\":12274:12281   */\n      dup9\n        /* \"#utility.yul\":12265:12271   */\n      dup3\n        /* \"#utility.yul\":12254:12263   */\n      dup10\n        /* \"#utility.yul\":12250:12272   */\n      add\n        /* \"#utility.yul\":12219:12282   */\n      tag_229\n      jump\t// in\n    tag_384:\n        /* \"#utility.yul\":12209:12282   */\n      swap4\n      pop\n        /* \"#utility.yul\":12004:12292   */\n      pop\n        /* \"#utility.yul\":12331:12333   */\n      0x60\n        /* \"#utility.yul\":12357:12410   */\n      tag_385\n        /* \"#utility.yul\":12402:12409   */\n      dup9\n        /* \"#utility.yul\":12393:12399   */\n      dup3\n        /* \"#utility.yul\":12382:12391   */\n      dup10\n        /* \"#utility.yul\":12378:12400   */\n      add\n        /* \"#utility.yul\":12357:12410   */\n      tag_199\n      jump\t// in\n    tag_385:\n        /* \"#utility.yul\":12347:12410   */\n      swap3\n      pop\n        /* \"#utility.yul\":12302:12420   */\n      pop\n        /* \"#utility.yul\":12459:12462   */\n      0x80\n        /* \"#utility.yul\":12486:12539   */\n      tag_386\n        /* \"#utility.yul\":12531:12538   */\n      dup9\n        /* \"#utility.yul\":12522:12528   */\n      dup3\n        /* \"#utility.yul\":12511:12520   */\n      dup10\n        /* \"#utility.yul\":12507:12529   */\n      add\n        /* \"#utility.yul\":12486:12539   */\n      tag_199\n      jump\t// in\n    tag_386:\n        /* \"#utility.yul\":12476:12539   */\n      swap2\n      pop\n        /* \"#utility.yul\":12430:12549   */\n      pop\n        /* \"#utility.yul\":11285:12556   */\n      swap3\n      swap6\n      pop\n      swap3\n      swap6\n      swap1\n      swap4\n      pop\n      jump\t// out\n        /* \"#utility.yul\":12562:12727   */\n    tag_230:\n        /* \"#utility.yul\":12702:12719   */\n      0x496e76616c696420626f6f6b2049440000000000000000000000000000000000\n        /* \"#utility.yul\":12698:12699   */\n      0x00\n        /* \"#utility.yul\":12690:12696   */\n      dup3\n        /* \"#utility.yul\":12686:12700   */\n      add\n        /* \"#utility.yul\":12679:12720   */\n      mstore\n        /* \"#utility.yul\":12562:12727   */\n      pop\n      jump\t// out\n        /* \"#utility.yul\":12733:13099   */\n    tag_231:\n        /* \"#utility.yul\":12875:12878   */\n      0x00\n        /* \"#utility.yul\":12896:12963   */\n      tag_389\n        /* \"#utility.yul\":12960:12962   */\n      0x0f\n        /* \"#utility.yul\":12955:12958   */\n      dup4\n        /* \"#utility.yul\":12896:12963   */\n      tag_216\n      jump\t// in\n    tag_389:\n        /* \"#utility.yul\":12889:12963   */\n      swap2\n      pop\n        /* \"#utility.yul\":12972:13065   */\n      tag_390\n        /* \"#utility.yul\":13061:13064   */\n      dup3\n        /* \"#utility.yul\":12972:13065   */\n      tag_230\n      jump\t// in\n    tag_390:\n        /* \"#utility.yul\":13090:13092   */\n      0x20\n        /* \"#utility.yul\":13085:13088   */\n      dup3\n        /* \"#utility.yul\":13081:13093   */\n      add\n        /* \"#utility.yul\":13074:13093   */\n      swap1\n      pop\n        /* \"#utility.yul\":12733:13099   */\n      swap2\n      swap1\n      pop\n      jump\t// out\n        /* \"#utility.yul\":13105:13524   */\n    tag_74:\n        /* \"#utility.yul\":13271:13275   */\n      0x00\n        /* \"#utility.yul\":13309:13311   */\n      0x20\n        /* \"#utility.yul\":13298:13307   */\n      dup3\n        /* \"#utility.yul\":13294:13312   */\n      add\n        /* \"#utility.yul\":13286:13312   */\n      swap1\n      pop\n        /* \"#utility.yul\":13358:13367   */\n      dup2\n        /* \"#utility.yul\":13352:13356   */\n      dup2\n        /* \"#utility.yul\":13348:13368   */\n      sub\n        /* \"#utility.yul\":13344:13345   */\n      0x00\n        /* \"#utility.yul\":13333:13342   */\n      dup4\n        /* \"#utility.yul\":13329:13346   */\n      add\n        /* \"#utility.yul\":13322:13369   */\n      mstore\n        /* \"#utility.yul\":13386:13517   */\n      tag_392\n        /* \"#utility.yul\":13512:13516   */\n      dup2\n        /* \"#utility.yul\":13386:13517   */\n      tag_231\n      jump\t// in\n    tag_392:\n        /* \"#utility.yul\":13378:13517   */\n      swap1\n      pop\n        /* \"#utility.yul\":13105:13524   */\n      swap2\n      swap1\n      pop\n      jump\t// out\n        /* \"#utility.yul\":13530:13701   */\n    tag_232:\n        /* \"#utility.yul\":13670:13693   */\n      0x426f6f6b206973206e6f7420617661696c61626c650000000000000000000000\n        /* \"#utility.yul\":13666:13667   */\n      0x00\n        /* \"#utility.yul\":13658:13664   */\n      dup3\n        /* \"#utility.yul\":13654:13668   */\n      add\n        /* \"#utility.yul\":13647:13694   */\n      mstore\n        /* \"#utility.yul\":13530:13701   */\n      pop\n      jump\t// out\n        /* \"#utility.yul\":13707:14073   */\n    tag_233:\n        /* \"#utility.yul\":13849:13852   */\n      0x00\n        /* \"#utility.yul\":13870:13937   */\n      tag_395\n        /* \"#utility.yul\":13934:13936   */\n      0x15\n        /* \"#utility.yul\":13929:13932   */\n      dup4\n        /* \"#utility.yul\":13870:13937   */\n      tag_216\n      jump\t// in\n    tag_395:\n        /* \"#utility.yul\":13863:13937   */\n      swap2\n      pop\n        /* \"#utility.yul\":13946:14039   */\n      tag_396\n        /* \"#utility.yul\":14035:14038   */\n      dup3\n        /* \"#utility.yul\":13946:14039   */\n      tag_232\n      jump\t// in\n    tag_396:\n        /* \"#utility.yul\":14064:14066   */\n      0x20\n        /* \"#utility.yul\":14059:14062   */\n      dup3\n        /* \"#utility.yul\":14055:14067   */\n      add\n        /* \"#utility.yul\":14048:14067   */\n      swap1\n      pop\n        /* \"#utility.yul\":13707:14073   */\n      swap2\n      swap1\n      pop\n      jump\t// out\n        /* \"#utility.yul\":14079:14498   */\n    tag_77:\n        /* \"#utility.yul\":14245:14249   */\n      0x00\n        /* \"#utility.yul\":14283:14285   */\n      0x20\n        /* \"#utility.yul\":14272:14281   */\n      dup3\n        /* \"#utility.yul\":14268:14286   */\n      add\n        /* \"#utility.yul\":14260:14286   */\n      swap1\n      pop\n        /* \"#utility.yul\":14332:14341   */\n      dup2\n        /* \"#utility.yul\":14326:14330   */\n      dup2\n        /* \"#utility.yul\":14322:14342   */\n      sub\n        /* \"#utility.yul\":14318:14319   */\n      0x00\n        /* \"#utility.yul\":14307:14316   */\n      dup4\n        /* \"#utility.yul\":14303:14320   */\n      add\n        /* \"#utility.yul\":14296:14343   */\n      mstore\n        /* \"#utility.yul\":14360:14491   */\n      tag_398\n        /* \"#utility.yul\":14486:14490   */\n      dup2\n        /* \"#utility.yul\":14360:14491   */\n      tag_233\n      jump\t// in\n    tag_398:\n        /* \"#utility.yul\":14352:14491   */\n      swap1\n      pop\n        /* \"#utility.yul\":14079:14498   */\n      swap2\n      swap1\n      pop\n      jump\t// out\n        /* \"#utility.yul\":14504:14671   */\n    tag_234:\n        /* \"#utility.yul\":14644:14663   */\n      0x426f6f6b206f7574206f662073746f636b000000000000000000000000000000\n        /* \"#utility.yul\":14640:14641   */\n      0x00\n        /* \"#utility.yul\":14632:14638   */\n      dup3\n        /* \"#utility.yul\":14628:14642   */\n      add\n        /* \"#utility.yul\":14621:14664   */\n      mstore\n        /* \"#utility.yul\":14504:14671   */\n      pop\n      jump\t// out\n        /* \"#utility.yul\":14677:15043   */\n    tag_235:\n        /* \"#utility.yul\":14819:14822   */\n      0x00\n        /* \"#utility.yul\":14840:14907   */\n      tag_401\n        /* \"#utility.yul\":14904:14906   */\n      0x11\n        /* \"#utility.yul\":14899:14902   */\n      dup4\n        /* \"#utility.yul\":14840:14907   */\n      tag_216\n      jump\t// in\n    tag_401:\n        /* \"#utility.yul\":14833:14907   */\n      swap2\n      pop\n        /* \"#utility.yul\":14916:15009   */\n      tag_402\n        /* \"#utility.yul\":15005:15008   */\n      dup3\n        /* \"#utility.yul\":14916:15009   */\n      tag_234\n      jump\t// in\n    tag_402:\n        /* \"#utility.yul\":15034:15036   */\n      0x20\n        /* \"#utility.yul\":15029:15032   */\n      dup3\n        /* \"#utility.yul\":15025:15037   */\n      add\n        /* \"#utility.yul\":15018:15037   */\n      swap1\n      pop\n        /* \"#utility.yul\":14677:15043   */\n      swap2\n      swap1\n      pop\n      jump\t// out\n        /* \"#utility.yul\":15049:15468   */\n    tag_80:\n        /* \"#utility.yul\":15215:15219   */\n      0x00\n        /* \"#utility.yul\":15253:15255   */\n      0x20\n        /* \"#utility.yul\":15242:15251   */\n      dup3\n        /* \"#utility.yul\":15238:15256   */\n      add\n        /* \"#utility.yul\":15230:15256   */\n      swap1\n      pop\n        /* \"#utility.yul\":15302:15311   */\n      dup2\n        /* \"#utility.yul\":15296:15300   */\n      dup2\n        /* \"#utility.yul\":15292:15312   */\n      sub\n        /* \"#utility.yul\":15288:15289   */\n      0x00\n        /* \"#utility.yul\":15277:15286   */\n      dup4\n        /* \"#utility.yul\":15273:15290   */\n      add\n        /* \"#utility.yul\":15266:15313   */\n      mstore\n        /* \"#utility.yul\":15330:15461   */\n      tag_404\n        /* \"#utility.yul\":15456:15460   */\n      dup2\n        /* \"#utility.yul\":15330:15461   */\n      tag_235\n      jump\t// in\n    tag_404:\n        /* \"#utility.yul\":15322:15461   */\n      swap1\n      pop\n        /* \"#utility.yul\":15049:15468   */\n      swap2\n      swap1\n      pop\n      jump\t// out\n        /* \"#utility.yul\":15474:15648   */\n    tag_236:\n        /* \"#utility.yul\":15614:15640   */\n      0x496e636f7272656374207061796d656e7420616d6f756e740000000000000000\n        /* \"#utility.yul\":15610:15611   */\n      0x00\n        /* \"#utility.yul\":15602:15608   */\n      dup3\n        /* \"#utility.yul\":15598:15612   */\n      add\n        /* \"#utility.yul\":15591:15641   */\n      mstore\n        /* \"#utility.yul\":15474:15648   */\n      pop\n      jump\t// out\n        /* \"#utility.yul\":15654:16020   */\n    tag_237:\n        /* \"#utility.yul\":15796:15799   */\n      0x00\n        /* \"#utility.yul\":15817:15884   */\n      tag_407\n        /* \"#utility.yul\":15881:15883   */\n      0x18\n        /* \"#utility.yul\":15876:15879   */\n      dup4\n        /* \"#utility.yul\":15817:15884   */\n      tag_216\n      jump\t// in\n    tag_407:\n        /* \"#utility.yul\":15810:15884   */\n      swap2\n      pop\n        /* \"#utility.yul\":15893:15986   */\n      tag_408\n        /* \"#utility.yul\":15982:15985   */\n      dup3\n        /* \"#utility.yul\":15893:15986   */\n      tag_236\n      jump\t// in\n    tag_408:\n        /* \"#utility.yul\":16011:16013   */\n      0x20\n        /* \"#utility.yul\":16006:16009   */\n      dup3\n        /* \"#utility.yul\":16002:16014   */\n      add\n        /* \"#utility.yul\":15995:16014   */\n      swap1\n      pop\n        /* \"#utility.yul\":15654:16020   */\n      swap2\n      swap1\n      pop\n      jump\t// out\n        /* \"#utility.yul\":16026:16445   */\n    tag_83:\n        /* \"#utility.yul\":16192:16196   */\n      0x00\n        /* \"#utility.yul\":16230:16232   */\n      0x20\n        /* \"#utility.yul\":16219:16228   */\n      dup3\n        /* \"#utility.yul\":16215:16233   */\n      add\n        /* \"#utility.yul\":16207:16233   */\n      swap1\n      pop\n        /* \"#utility.yul\":16279:16288   */\n      dup2\n        /* \"#utility.yul\":16273:16277   */\n      dup2\n        /* \"#utility.yul\":16269:16289   */\n      sub\n        /* \"#utility.yul\":16265:16266   */\n      0x00\n        /* \"#utility.yul\":16254:16263   */\n      dup4\n        /* \"#utility.yul\":16250:16267   */\n      add\n        /* \"#utility.yul\":16243:16290   */\n      mstore\n        /* \"#utility.yul\":16307:16438   */\n      tag_410\n        /* \"#utility.yul\":16433:16437   */\n      dup2\n        /* \"#utility.yul\":16307:16438   */\n      tag_237\n      jump\t// in\n    tag_410:\n        /* \"#utility.yul\":16299:16438   */\n      swap1\n      pop\n        /* \"#utility.yul\":16026:16445   */\n      swap2\n      swap1\n      pop\n      jump\t// out\n        /* \"#utility.yul\":16451:16631   */\n    tag_238:\n        /* \"#utility.yul\":16499:16576   */\n      0x4e487b7100000000000000000000000000000000000000000000000000000000\n        /* \"#utility.yul\":16496:16497   */\n      0x00\n        /* \"#utility.yul\":16489:16577   */\n      mstore\n        /* \"#utility.yul\":16596:16600   */\n      0x11\n        /* \"#utility.yul\":16593:16594   */\n      0x04\n        /* \"#utility.yul\":16586:16601   */\n      mstore\n        /* \"#utility.yul\":16620:16624   */\n      0x24\n        /* \"#utility.yul\":16617:16618   */\n      0x00\n        /* \"#utility.yul\":16610:16625   */\n      revert\n        /* \"#utility.yul\":16637:16808   */\n    tag_85:\n        /* \"#utility.yul\":16676:16679   */\n      0x00\n        /* \"#utility.yul\":16699:16723   */\n      tag_413\n        /* \"#utility.yul\":16717:16722   */\n      dup3\n        /* \"#utility.yul\":16699:16723   */\n      tag_197\n      jump\t// in\n    tag_413:\n        /* \"#utility.yul\":16690:16723   */\n      swap2\n      pop\n        /* \"#utility.yul\":16745:16749   */\n      0x00\n        /* \"#utility.yul\":16738:16743   */\n      dup3\n        /* \"#utility.yul\":16735:16750   */\n      sub\n        /* \"#utility.yul\":16732:16773   */\n      tag_414\n      jumpi\n        /* \"#utility.yul\":16753:16771   */\n      tag_415\n      tag_238\n      jump\t// in\n    tag_415:\n        /* \"#utility.yul\":16732:16773   */\n    tag_414:\n        /* \"#utility.yul\":16800:16801   */\n      0x01\n        /* \"#utility.yul\":16793:16798   */\n      dup3\n        /* \"#utility.yul\":16789:16802   */\n      sub\n        /* \"#utility.yul\":16782:16802   */\n      swap1\n      pop\n        /* \"#utility.yul\":16637:16808   */\n      swap2\n      swap1\n      pop\n      jump\t// out\n        /* \"#utility.yul\":16814:17047   */\n    tag_87:\n        /* \"#utility.yul\":16853:16856   */\n      0x00\n        /* \"#utility.yul\":16876:16900   */\n      tag_417\n        /* \"#utility.yul\":16894:16899   */\n      dup3\n        /* \"#utility.yul\":16876:16900   */\n      tag_197\n      jump\t// in\n    tag_417:\n        /* \"#utility.yul\":16867:16900   */\n      swap2\n      pop\n        /* \"#utility.yul\":16922:16988   */\n      0xffffffffffffffffffffffffffffffffffffffffffffffffffffffffffffffff\n        /* \"#utility.yul\":16915:16920   */\n      dup3\n        /* \"#utility.yul\":16912:16989   */\n      sub\n        /* \"#utility.yul\":16909:17012   */\n      tag_418\n      jumpi\n        /* \"#utility.yul\":16992:17010   */\n      tag_419\n      tag_238\n      jump\t// in\n    tag_419:\n        /* \"#utility.yul\":16909:17012   */\n    tag_418:\n        /* \"#utility.yul\":17039:17040   */\n      0x01\n        /* \"#utility.yul\":17032:17037   */\n      dup3\n        /* \"#utility.yul\":17028:17041   */\n      add\n        /* \"#utility.yul\":17021:17041   */\n      swap1\n      pop\n        /* \"#utility.yul\":16814:17047   */\n      swap2\n      swap1\n      pop\n      jump\t// out\n        /* \"#utility.yul\":17053:17233   */\n    tag_239:\n        /* \"#utility.yul\":17101:17178   */\n      0x4e487b7100000000000000000000000000000000000000000000000000000000\n        /* \"#utility.yul\":17098:17099   */\n      0x00\n        /* \"#utility.yul\":17091:17179   */\n      mstore\n        /* \"#utility.yul\":17198:17202   */\n      0x22\n        /* \"#utility.yul\":17195:17196   */\n      0x04\n        /* \"#utility.yul\":17188:17203   */\n      mstore\n        /* \"#utility.yul\":17222:17226   */\n      0x24\n        /* \"#utility.yul\":17219:17220   */\n      0x00\n        /* \"#utility.yul\":17212:17227   */\n      revert\n        /* \"#utility.yul\":17239:17559   */\n    tag_103:\n        /* \"#utility.yul\":17283:17289   */\n      0x00\n        /* \"#utility.yul\":17320:17321   */\n      0x02\n        /* \"#utility.yul\":17314:17318   */\n      dup3\n        /* \"#utility.yul\":17310:17322   */\n      div\n        /* \"#utility.yul\":17300:17322   */\n      swap1\n      pop\n        /* \"#utility.yul\":17367:17368   */\n      0x01\n        /* \"#utility.yul\":17361:17365   */\n      dup3\n        /* \"#utility.yul\":17357:17369   */\n      and\n        /* \"#utility.yul\":17388:17406   */\n      dup1\n        /* \"#utility.yul\":17378:17459   */\n      tag_422\n      jumpi\n        /* \"#utility.yul\":17444:17448   */\n      0x7f\n        /* \"#utility.yul\":17436:17442   */\n      dup3\n        /* \"#utility.yul\":17432:17449   */\n      and\n        /* \"#utility.yul\":17422:17449   */\n      swap2\n      pop\n        /* \"#utility.yul\":17378:17459   */\n    tag_422:\n        /* \"#utility.yul\":17506:17508   */\n      0x20\n        /* \"#utility.yul\":17498:17504   */\n      dup3\n        /* \"#utility.yul\":17495:17509   */\n      lt\n        /* \"#utility.yul\":17475:17493   */\n      dup2\n        /* \"#utility.yul\":17472:17510   */\n      sub\n        /* \"#utility.yul\":17469:17553   */\n      tag_423\n      jumpi\n        /* \"#utility.yul\":17525:17543   */\n      tag_424\n      tag_239\n      jump\t// in\n    tag_424:\n        /* \"#utility.yul\":17469:17553   */\n    tag_423:\n        /* \"#utility.yul\":17290:17559   */\n      pop\n        /* \"#utility.yul\":17239:17559   */\n      swap2\n      swap1\n      pop\n      jump\t// out\n        /* \"#utility.yul\":17565:17745   */\n    tag_115:\n        /* \"#utility.yul\":17613:17690   */\n      0x4e487b7100000000000000000000000000000000000000000000000000000000\n        /* \"#utility.yul\":17610:17611   */\n      0x00\n        /* \"#utility.yul\":17603:17691   */\n      mstore\n        /* \"#utility.yul\":17710:17714   */\n      0x32\n        /* \"#utility.yul\":17707:17708   */\n      0x04\n        /* \"#utility.yul\":17700:17715   */\n      mstore\n        /* \"#utility.yul\":17734:17738   */\n      0x24\n        /* \"#utility.yul\":17731:17732   */\n      0x00\n        /* \"#utility.yul\":17724:17739   */\n      revert\n        /* \"#utility.yul\":17751:17976   */\n    tag_240:\n        /* \"#utility.yul\":17891:17925   */\n      0x4f6e6c7920746865206f776e65722063616e20706572666f726d207468697320\n        /* \"#utility.yul\":17887:17888   */\n      0x00\n        /* \"#utility.yul\":17879:17885   */\n      dup3\n        /* \"#utility.yul\":17875:17889   */\n      add\n        /* \"#utility.yul\":17868:17926   */\n      mstore\n        /* \"#utility.yul\":17960:17968   */\n      0x616374696f6e0000000000000000000000000000000000000000000000000000\n        /* \"#utility.yul\":17955:17957   */\n      0x20\n        /* \"#utility.yul\":17947:17953   */\n      dup3\n        /* \"#utility.yul\":17943:17958   */\n      add\n        /* \"#utility.yul\":17936:17969   */\n      mstore\n        /* \"#utility.yul\":17751:17976   */\n      pop\n      jump\t// out\n        /* \"#utility.yul\":17982:18348   */\n    tag_241:\n        /* \"#utility.yul\":18124:18127   */\n      0x00\n        /* \"#utility.yul\":18145:18212   */\n      tag_428\n        /* \"#utility.yul\":18209:18211   */\n      0x26\n        /* \"#utility.yul\":18204:18207   */\n      dup4\n        /* \"#utility.yul\":18145:18212   */\n      tag_216\n      jump\t// in\n    tag_428:\n        /* \"#utility.yul\":18138:18212   */\n      swap2\n      pop\n        /* \"#utility.yul\":18221:18314   */\n      tag_429\n        /* \"#utility.yul\":18310:18313   */\n      dup3\n        /* \"#utility.yul\":18221:18314   */\n      tag_240\n      jump\t// in\n    tag_429:\n        /* \"#utility.yul\":18339:18341   */\n      0x40\n        /* \"#utility.yul\":18334:18337   */\n      dup3\n        /* \"#utility.yul\":18330:18342   */\n      add\n        /* \"#utility.yul\":18323:18342   */\n      swap1\n      pop\n        /* \"#utility.yul\":17982:18348   */\n      swap2\n      swap1\n      pop\n      jump\t// out\n        /* \"#utility.yul\":18354:18773   */\n    tag_146:\n        /* \"#utility.yul\":18520:18524   */\n      0x00\n        /* \"#utility.yul\":18558:18560   */\n      0x20\n        /* \"#utility.yul\":18547:18556   */\n      dup3\n        /* \"#utility.yul\":18543:18561   */\n      add\n        /* \"#utility.yul\":18535:18561   */\n      swap1\n      pop\n        /* \"#utility.yul\":18607:18616   */\n      dup2\n        /* \"#utility.yul\":18601:18605   */\n      dup2\n        /* \"#utility.yul\":18597:18617   */\n      sub\n        /* \"#utility.yul\":18593:18594   */\n      0x00\n        /* \"#utility.yul\":18582:18591   */\n      dup4\n        /* \"#utility.yul\":18578:18595   */\n      add\n        /* \"#utility.yul\":18571:18618   */\n      mstore\n        /* \"#utility.yul\":18635:18766   */\n      tag_431\n        /* \"#utility.yul\":18761:18765   */\n      dup2\n        /* \"#utility.yul\":18635:18766   */\n      tag_241\n      jump\t// in\n    tag_431:\n        /* \"#utility.yul\":18627:18766   */\n      swap1\n      pop\n        /* \"#utility.yul\":18354:18773   */\n      swap2\n      swap1\n      pop\n      jump\t// out\n        /* \"#utility.yul\":18779:18999   */\n    tag_242:\n        /* \"#utility.yul\":18919:18953   */\n      0x53746f636b2073686f756c642062652067726561746572207468616e207a6572\n        /* \"#utility.yul\":18915:18916   */\n      0x00\n        /* \"#utility.yul\":18907:18913   */\n      dup3\n        /* \"#utility.yul\":18903:18917   */\n      add\n        /* \"#utility.yul\":18896:18954   */\n      mstore\n        /* \"#utility.yul\":18988:18991   */\n      0x6f00000000000000000000000000000000000000000000000000000000000000\n        /* \"#utility.yul\":18983:18985   */\n      0x20\n        /* \"#utility.yul\":18975:18981   */\n      dup3\n        /* \"#utility.yul\":18971:18986   */\n      add\n        /* \"#utility.yul\":18964:18992   */\n      mstore\n        /* \"#utility.yul\":18779:18999   */\n      pop\n      jump\t// out\n        /* \"#utility.yul\":19005:19371   */\n    tag_243:\n        /* \"#utility.yul\":19147:19150   */\n      0x00\n        /* \"#utility.yul\":19168:19235   */\n      tag_434\n        /* \"#utility.yul\":19232:19234   */\n      0x21\n        /* \"#utility.yul\":19227:19230   */\n      dup4\n        /* \"#utility.yul\":19168:19235   */\n      tag_216\n      jump\t// in\n    tag_434:\n        /* \"#utility.yul\":19161:19235   */\n      swap2\n      pop\n        /* \"#utility.yul\":19244:19337   */\n      tag_435\n        /* \"#utility.yul\":19333:19336   */\n      dup3\n        /* \"#utility.yul\":19244:19337   */\n      tag_242\n      jump\t// in\n    tag_435:\n        /* \"#utility.yul\":19362:19364   */\n      0x40\n        /* \"#utility.yul\":19357:19360   */\n      dup3\n        /* \"#utility.yul\":19353:19365   */\n      add\n        /* \"#utility.yul\":19346:19365   */\n      swap1\n      pop\n        /* \"#utility.yul\":19005:19371   */\n      swap2\n      swap1\n      pop\n      jump\t// out\n        /* \"#utility.yul\":19377:19796   */\n    tag_162:\n        /* \"#utility.yul\":19543:19547   */\n      0x00\n        /* \"#utility.yul\":19581:19583   */\n      0x20\n        /* \"#utility.yul\":19570:19579   */\n      dup3\n        /* \"#utility.yul\":19566:19584   */\n      add\n        /* \"#utility.yul\":19558:19584   */\n      swap1\n      pop\n        /* \"#utility.yul\":19630:19639   */\n      dup2\n        /* \"#utility.yul\":19624:19628   */\n      dup2\n        /* \"#utility.yul\":19620:19640   */\n      sub\n        /* \"#utility.yul\":19616:19617   */\n      0x00\n        /* \"#utility.yul\":19605:19614   */\n      dup4\n        /* \"#utility.yul\":19601:19618   */\n      add\n        /* \"#utility.yul\":19594:19641   */\n      mstore\n        /* \"#utility.yul\":19658:19789   */\n      tag_437\n        /* \"#utility.yul\":19784:19788   */\n      dup2\n        /* \"#utility.yul\":19658:19789   */\n      tag_243\n      jump\t// in\n    tag_437:\n        /* \"#utility.yul\":19650:19789   */\n      swap1\n      pop\n        /* \"#utility.yul\":19377:19796   */\n      swap2\n      swap1\n      pop\n      jump\t// out\n        /* \"#utility.yul\":19802:19975   */\n    tag_244:\n        /* \"#utility.yul\":19942:19967   */\n      0x426f6f6b20697320616c72656164792072656d6f766564000000000000000000\n        /* \"#utility.yul\":19938:19939   */\n      0x00\n        /* \"#utility.yul\":19930:19936   */\n      dup3\n        /* \"#utility.yul\":19926:19940   */\n      add\n        /* \"#utility.yul\":19919:19968   */\n      mstore\n        /* \"#utility.yul\":19802:19975   */\n      pop\n      jump\t// out\n        /* \"#utility.yul\":19981:20347   */\n    tag_245:\n        /* \"#utility.yul\":20123:20126   */\n      0x00\n        /* \"#utility.yul\":20144:20211   */\n      tag_440\n        /* \"#utility.yul\":20208:20210   */\n      0x17\n        /* \"#utility.yul\":20203:20206   */\n      dup4\n        /* \"#utility.yul\":20144:20211   */\n      tag_216\n      jump\t// in\n    tag_440:\n        /* \"#utility.yul\":20137:20211   */\n      swap2\n      pop\n        /* \"#utility.yul\":20220:20313   */\n      tag_441\n        /* \"#utility.yul\":20309:20312   */\n      dup3\n        /* \"#utility.yul\":20220:20313   */\n      tag_244\n      jump\t// in\n    tag_441:\n        /* \"#utility.yul\":20338:20340   */\n      0x20\n        /* \"#utility.yul\":20333:20336   */\n      dup3\n        /* \"#utility.yul\":20329:20341   */\n      add\n        /* \"#utility.yul\":20322:20341   */\n      swap1\n      pop\n        /* \"#utility.yul\":19981:20347   */\n      swap2\n      swap1\n      pop\n      jump\t// out\n        /* \"#utility.yul\":20353:20772   */\n    tag_174:\n        /* \"#utility.yul\":20519:20523   */\n      0x00\n        /* \"#utility.yul\":20557:20559   */\n      0x20\n        /* \"#utility.yul\":20546:20555   */\n      dup3\n        /* \"#utility.yul\":20542:20560   */\n      add\n        /* \"#utility.yul\":20534:20560   */\n      swap1\n      pop\n        /* \"#utility.yul\":20606:20615   */\n      dup2\n        /* \"#utility.yul\":20600:20604   */\n      dup2\n        /* \"#utility.yul\":20596:20616   */\n      sub\n        /* \"#utility.yul\":20592:20593   */\n      0x00\n        /* \"#utility.yul\":20581:20590   */\n      dup4\n        /* \"#utility.yul\":20577:20594   */\n      add\n        /* \"#utility.yul\":20570:20617   */\n      mstore\n        /* \"#utility.yul\":20634:20765   */\n      tag_443\n        /* \"#utility.yul\":20760:20764   */\n      dup2\n        /* \"#utility.yul\":20634:20765   */\n      tag_245\n      jump\t// in\n    tag_443:\n        /* \"#utility.yul\":20626:20765   */\n      swap1\n      pop\n        /* \"#utility.yul\":20353:20772   */\n      swap2\n      swap1\n      pop\n      jump\t// out\n        /* \"#utility.yul\":20778:21000   */\n    tag_246:\n        /* \"#utility.yul\":20918:20952   */\n      0x426f6f6b2049442073686f756c642062652067726561746572207468616e207a\n        /* \"#utility.yul\":20914:20915   */\n      0x00\n        /* \"#utility.yul\":20906:20912   */\n      dup3\n        /* \"#utility.yul\":20902:20916   */\n      add\n        /* \"#utility.yul\":20895:20953   */\n      mstore\n        /* \"#utility.yul\":20987:20992   */\n      0x65726f0000000000000000000000000000000000000000000000000000000000\n        /* \"#utility.yul\":20982:20984   */\n      0x20\n        /* \"#utility.yul\":20974:20980   */\n      dup3\n        /* \"#utility.yul\":20970:20985   */\n      add\n        /* \"#utility.yul\":20963:20993   */\n      mstore\n        /* \"#utility.yul\":20778:21000   */\n      pop\n      jump\t// out\n        /* \"#utility.yul\":21006:21372   */\n    tag_247:\n        /* \"#utility.yul\":21148:21151   */\n      0x00\n        /* \"#utility.yul\":21169:21236   */\n      tag_446\n        /* \"#utility.yul\":21233:21235   */\n      0x23\n        /* \"#utility.yul\":21228:21231   */\n      dup4\n        /* \"#utility.yul\":21169:21236   */\n      tag_216\n      jump\t// in\n    tag_446:\n        /* \"#utility.yul\":21162:21236   */\n      swap2\n      pop\n        /* \"#utility.yul\":21245:21338   */\n      tag_447\n        /* \"#utility.yul\":21334:21337   */\n      dup3\n        /* \"#utility.yul\":21245:21338   */\n      tag_246\n      jump\t// in\n    tag_447:\n        /* \"#utility.yul\":21363:21365   */\n      0x40\n        /* \"#utility.yul\":21358:21361   */\n      dup3\n        /* \"#utility.yul\":21354:21366   */\n      add\n        /* \"#utility.yul\":21347:21366   */\n      swap1\n      pop\n        /* \"#utility.yul\":21006:21372   */\n      swap2\n      swap1\n      pop\n      jump\t// out\n        /* \"#utility.yul\":21378:21797   */\n    tag_181:\n        /* \"#utility.yul\":21544:21548   */\n      0x00\n        /* \"#utility.yul\":21582:21584   */\n      0x20\n        /* \"#utility.yul\":21571:21580   */\n      dup3\n        /* \"#utility.yul\":21567:21585   */\n      add\n        /* \"#utility.yul\":21559:21585   */\n      swap1\n      pop\n        /* \"#utility.yul\":21631:21640   */\n      dup2\n        /* \"#utility.yul\":21625:21629   */\n      dup2\n        /* \"#utility.yul\":21621:21641   */\n      sub\n        /* \"#utility.yul\":21617:21618   */\n      0x00\n        /* \"#utility.yul\":21606:21615   */\n      dup4\n        /* \"#utility.yul\":21602:21619   */\n      add\n        /* \"#utility.yul\":21595:21642   */\n      mstore\n        /* \"#utility.yul\":21659:21790   */\n      tag_449\n        /* \"#utility.yul\":21785:21789   */\n      dup2\n        /* \"#utility.yul\":21659:21790   */\n      tag_247\n      jump\t// in\n    tag_449:\n        /* \"#utility.yul\":21651:21790   */\n      swap1\n      pop\n        /* \"#utility.yul\":21378:21797   */\n      swap2\n      swap1\n      pop\n      jump\t// out\n        /* \"#utility.yul\":21803:22023   */\n    tag_248:\n        /* \"#utility.yul\":21943:21977   */\n      0x50726963652073686f756c642062652067726561746572207468616e207a6572\n        /* \"#utility.yul\":21939:21940   */\n      0x00\n        /* \"#utility.yul\":21931:21937   */\n      dup3\n        /* \"#utility.yul\":21927:21941   */\n      add\n        /* \"#utility.yul\":21920:21978   */\n      mstore\n        /* \"#utility.yul\":22012:22015   */\n      0x6f00000000000000000000000000000000000000000000000000000000000000\n        /* \"#utility.yul\":22007:22009   */\n      0x20\n        /* \"#utility.yul\":21999:22005   */\n      dup3\n        /* \"#utility.yul\":21995:22010   */\n      add\n        /* \"#utility.yul\":21988:22016   */\n      mstore\n        /* \"#utility.yul\":21803:22023   */\n      pop\n      jump\t// out\n        /* \"#utility.yul\":22029:22395   */\n    tag_249:\n        /* \"#utility.yul\":22171:22174   */\n      0x00\n        /* \"#utility.yul\":22192:22259   */\n      tag_452\n        /* \"#utility.yul\":22256:22258   */\n      0x21\n        /* \"#utility.yul\":22251:22254   */\n      dup4\n        /* \"#utility.yul\":22192:22259   */\n      tag_216\n      jump\t// in\n    tag_452:\n        /* \"#utility.yul\":22185:22259   */\n      swap2\n      pop\n        /* \"#utility.yul\":22268:22361   */\n      tag_453\n        /* \"#utility.yul\":22357:22360   */\n      dup3\n        /* \"#utility.yul\":22268:22361   */\n      tag_248\n      jump\t// in\n    tag_453:\n        /* \"#utility.yul\":22386:22388   */\n      0x40\n        /* \"#utility.yul\":22381:22384   */\n      dup3\n        /* \"#utility.yul\":22377:22389   */\n      add\n        /* \"#utility.yul\":22370:22389   */\n      swap1\n      pop\n        /* \"#utility.yul\":22029:22395   */\n      swap2\n      swap1\n      pop\n      jump\t// out\n        /* \"#utility.yul\":22401:22820   */\n    tag_184:\n        /* \"#utility.yul\":22567:22571   */\n      0x00\n        /* \"#utility.yul\":22605:22607   */\n      0x20\n        /* \"#utility.yul\":22594:22603   */\n      dup3\n        /* \"#utility.yul\":22590:22608   */\n      add\n        /* \"#utility.yul\":22582:22608   */\n      swap1\n      pop\n        /* \"#utility.yul\":22654:22663   */\n      dup2\n        /* \"#utility.yul\":22648:22652   */\n      dup2\n        /* \"#utility.yul\":22644:22664   */\n      sub\n        /* \"#utility.yul\":22640:22641   */\n      0x00\n        /* \"#utility.yul\":22629:22638   */\n      dup4\n        /* \"#utility.yul\":22625:22642   */\n      add\n        /* \"#utility.yul\":22618:22665   */\n      mstore\n        /* \"#utility.yul\":22682:22813   */\n      tag_455\n        /* \"#utility.yul\":22808:22812   */\n      dup2\n        /* \"#utility.yul\":22682:22813   */\n      tag_249\n      jump\t// in\n    tag_455:\n        /* \"#utility.yul\":22674:22813   */\n      swap1\n      pop\n        /* \"#utility.yul\":22401:22820   */\n      swap2\n      swap1\n      pop\n      jump\t// out\n        /* \"#utility.yul\":22826:22998   */\n    tag_250:\n        /* \"#utility.yul\":22966:22990   */\n      0x426f6f6b20494420616c72656164792065786973747300000000000000000000\n        /* \"#utility.yul\":22962:22963   */\n      0x00\n        /* \"#utility.yul\":22954:22960   */\n      dup3\n        /* \"#utility.yul\":22950:22964   */\n      add\n        /* \"#utility.yul\":22943:22991   */\n      mstore\n        /* \"#utility.yul\":22826:22998   */\n      pop\n      jump\t// out\n        /* \"#utility.yul\":23004:23370   */\n    tag_251:\n        /* \"#utility.yul\":23146:23149   */\n      0x00\n        /* \"#utility.yul\":23167:23234   */\n      tag_458\n        /* \"#utility.yul\":23231:23233   */\n      0x16\n        /* \"#utility.yul\":23226:23229   */\n      dup4\n        /* \"#utility.yul\":23167:23234   */\n      tag_216\n      jump\t// in\n    tag_458:\n        /* \"#utility.yul\":23160:23234   */\n      swap2\n      pop\n        /* \"#utility.yul\":23243:23336   */\n      tag_459\n        /* \"#utility.yul\":23332:23335   */\n      dup3\n        /* \"#utility.yul\":23243:23336   */\n      tag_250\n      jump\t// in\n    tag_459:\n        /* \"#utility.yul\":23361:23363   */\n      0x20\n        /* \"#utility.yul\":23356:23359   */\n      dup3\n        /* \"#utility.yul\":23352:23364   */\n      add\n        /* \"#utility.yul\":23345:23364   */\n      swap1\n      pop\n        /* \"#utility.yul\":23004:23370   */\n      swap2\n      swap1\n      pop\n      jump\t// out\n        /* \"#utility.yul\":23376:23795   */\n    tag_189:\n        /* \"#utility.yul\":23542:23546   */\n      0x00\n        /* \"#utility.yul\":23580:23582   */\n      0x20\n        /* \"#utility.yul\":23569:23578   */\n      dup3\n        /* \"#utility.yul\":23565:23583   */\n      add\n        /* \"#utility.yul\":23557:23583   */\n      swap1\n      pop\n        /* \"#utility.yul\":23629:23638   */\n      dup2\n        /* \"#utility.yul\":23623:23627   */\n      dup2\n        /* \"#utility.yul\":23619:23639   */\n      sub\n        /* \"#utility.yul\":23615:23616   */\n      0x00\n        /* \"#utility.yul\":23604:23613   */\n      dup4\n        /* \"#utility.yul\":23600:23617   */\n      add\n        /* \"#utility.yul\":23593:23640   */\n      mstore\n        /* \"#utility.yul\":23657:23788   */\n      tag_461\n        /* \"#utility.yul\":23783:23787   */\n      dup2\n        /* \"#utility.yul\":23657:23788   */\n      tag_251\n      jump\t// in\n    tag_461:\n        /* \"#utility.yul\":23649:23788   */\n      swap1\n      pop\n        /* \"#utility.yul\":23376:23795   */\n      swap2\n      swap1\n      pop\n      jump\t// out\n        /* \"#utility.yul\":23801:23942   */\n    tag_252:\n        /* \"#utility.yul\":23850:23854   */\n      0x00\n        /* \"#utility.yul\":23873:23876   */\n      dup2\n        /* \"#utility.yul\":23865:23876   */\n      swap1\n      pop\n        /* \"#utility.yul\":23896:23899   */\n      dup2\n        /* \"#utility.yul\":23893:23894   */\n      0x00\n        /* \"#utility.yul\":23886:23900   */\n      mstore\n        /* \"#utility.yul\":23930:23934   */\n      0x20\n        /* \"#utility.yul\":23927:23928   */\n      0x00\n        /* \"#utility.yul\":23917:23935   */\n      keccak256\n        /* \"#utility.yul\":23909:23935   */\n      swap1\n      pop\n        /* \"#utility.yul\":23801:23942   */\n      swap2\n      swap1\n      pop\n      jump\t// out\n        /* \"#utility.yul\":23948:24041   */\n    tag_253:\n        /* \"#utility.yul\":23985:23991   */\n      0x00\n        /* \"#utility.yul\":24032:24034   */\n      0x20\n        /* \"#utility.yul\":24027:24029   */\n      0x1f\n        /* \"#utility.yul\":24020:24025   */\n      dup4\n        /* \"#utility.yul\":24016:24030   */\n      add\n        /* \"#utility.yul\":24012:24035   */\n      div\n        /* \"#utility.yul\":24002:24035   */\n      swap1\n      pop\n        /* \"#utility.yul\":23948:24041   */\n      swap2\n      swap1\n      pop\n      jump\t// out\n        /* \"#utility.yul\":24047:24154   */\n    tag_254:\n        /* \"#utility.yul\":24091:24099   */\n      0x00\n        /* \"#utility.yul\":24141:24146   */\n      dup3\n        /* \"#utility.yul\":24135:24139   */\n      dup3\n        /* \"#utility.yul\":24131:24147   */\n      shl\n        /* \"#utility.yul\":24110:24147   */\n      swap1\n      pop\n        /* \"#utility.yul\":24047:24154   */\n      swap3\n      swap2\n      pop\n      pop\n      jump\t// out\n        /* \"#utility.yul\":24160:24553   */\n    tag_255:\n        /* \"#utility.yul\":24229:24235   */\n      0x00\n        /* \"#utility.yul\":24279:24280   */\n      0x08\n        /* \"#utility.yul\":24267:24277   */\n      dup4\n        /* \"#utility.yul\":24263:24281   */\n      mul\n        /* \"#utility.yul\":24302:24399   */\n      tag_466\n        /* \"#utility.yul\":24332:24398   */\n      0xffffffffffffffffffffffffffffffffffffffffffffffffffffffffffffffff\n        /* \"#utility.yul\":24321:24330   */\n      dup3\n        /* \"#utility.yul\":24302:24399   */\n      tag_254\n      jump\t// in\n    tag_466:\n        /* \"#utility.yul\":24420:24459   */\n      tag_467\n        /* \"#utility.yul\":24450:24458   */\n      dup7\n        /* \"#utility.yul\":24439:24448   */\n      dup4\n        /* \"#utility.yul\":24420:24459   */\n      tag_254\n      jump\t// in\n    tag_467:\n        /* \"#utility.yul\":24408:24459   */\n      swap6\n      pop\n        /* \"#utility.yul\":24492:24496   */\n      dup1\n        /* \"#utility.yul\":24488:24497   */\n      not\n        /* \"#utility.yul\":24481:24486   */\n      dup5\n        /* \"#utility.yul\":24477:24498   */\n      and\n        /* \"#utility.yul\":24468:24498   */\n      swap4\n      pop\n        /* \"#utility.yul\":24541:24545   */\n      dup1\n        /* \"#utility.yul\":24531:24539   */\n      dup7\n        /* \"#utility.yul\":24527:24546   */\n      and\n        /* \"#utility.yul\":24520:24525   */\n      dup5\n        /* \"#utility.yul\":24517:24547   */\n      or\n        /* \"#utility.yul\":24507:24547   */\n      swap3\n      pop\n        /* \"#utility.yul\":24236:24553   */\n      pop\n      pop\n        /* \"#utility.yul\":24160:24553   */\n      swap4\n      swap3\n      pop\n      pop\n      pop\n      jump\t// out\n        /* \"#utility.yul\":24559:24619   */\n    tag_256:\n        /* \"#utility.yul\":24587:24590   */\n      0x00\n        /* \"#utility.yul\":24608:24613   */\n      dup2\n        /* \"#utility.yul\":24601:24613   */\n      swap1\n      pop\n        /* \"#utility.yul\":24559:24619   */\n      swap2\n      swap1\n      pop\n      jump\t// out\n        /* \"#utility.yul\":24625:24767   */\n    tag_257:\n        /* \"#utility.yul\":24675:24684   */\n      0x00\n        /* \"#utility.yul\":24708:24761   */\n      tag_470\n        /* \"#utility.yul\":24726:24760   */\n      tag_471\n        /* \"#utility.yul\":24735:24759   */\n      tag_472\n        /* \"#utility.yul\":24753:24758   */\n      dup5\n        /* \"#utility.yul\":24735:24759   */\n      tag_197\n      jump\t// in\n    tag_472:\n        /* \"#utility.yul\":24726:24760   */\n      tag_256\n      jump\t// in\n    tag_471:\n        /* \"#utility.yul\":24708:24761   */\n      tag_197\n      jump\t// in\n    tag_470:\n        /* \"#utility.yul\":24695:24761   */\n      swap1\n      pop\n        /* \"#utility.yul\":24625:24767   */\n      swap2\n      swap1\n      pop\n      jump\t// out\n        /* \"#utility.yul\":24773:24848   */\n    tag_258:\n        /* \"#utility.yul\":24816:24819   */\n      0x00\n        /* \"#utility.yul\":24837:24842   */\n      dup2\n        /* \"#utility.yul\":24830:24842   */\n      swap1\n      pop\n        /* \"#utility.yul\":24773:24848   */\n      swap2\n      swap1\n      pop\n      jump\t// out\n        /* \"#utility.yul\":24854:25123   */\n    tag_259:\n        /* \"#utility.yul\":24964:25003   */\n      tag_475\n        /* \"#utility.yul\":24995:25002   */\n      dup4\n        /* \"#utility.yul\":24964:25003   */\n      tag_257\n      jump\t// in\n    tag_475:\n        /* \"#utility.yul\":25025:25116   */\n      tag_476\n        /* \"#utility.yul\":25074:25115   */\n      tag_477\n        /* \"#utility.yul\":25098:25114   */\n      dup3\n        /* \"#utility.yul\":25074:25115   */\n      tag_258\n      jump\t// in\n    tag_477:\n        /* \"#utility.yul\":25066:25072   */\n      dup5\n        /* \"#utility.yul\":25059:25063   */\n      dup5\n        /* \"#utility.yul\":25053:25064   */\n      sload\n        /* \"#utility.yul\":25025:25116   */\n      tag_255\n      jump\t// in\n    tag_476:\n        /* \"#utility.yul\":25019:25023   */\n      dup3\n        /* \"#utility.yul\":25012:25117   */\n      sstore\n        /* \"#utility.yul\":24930:25123   */\n      pop\n        /* \"#utility.yul\":24854:25123   */\n      pop\n      pop\n      pop\n      jump\t// out\n        /* \"#utility.yul\":25129:25202   */\n    tag_260:\n        /* \"#utility.yul\":25174:25177   */\n      0x00\n        /* \"#utility.yul\":25129:25202   */\n      swap1\n      jump\t// out\n        /* \"#utility.yul\":25208:25397   */\n    tag_261:\n        /* \"#utility.yul\":25285:25317   */\n      tag_480\n      tag_260\n      jump\t// in\n    tag_480:\n        /* \"#utility.yul\":25326:25391   */\n      tag_481\n        /* \"#utility.yul\":25384:25390   */\n      dup2\n        /* \"#utility.yul\":25376:25382   */\n      dup5\n        /* \"#utility.yul\":25370:25374   */\n      dup5\n        /* \"#utility.yul\":25326:25391   */\n      tag_259\n      jump\t// in\n    tag_481:\n        /* \"#utility.yul\":25261:25397   */\n      pop\n        /* \"#utility.yul\":25208:25397   */\n      pop\n      pop\n      jump\t// out\n        /* \"#utility.yul\":25403:25589   */\n    tag_262:\n        /* \"#utility.yul\":25463:25583   */\n    tag_483:\n        /* \"#utility.yul\":25480:25483   */\n      dup2\n        /* \"#utility.yul\":25473:25478   */\n      dup2\n        /* \"#utility.yul\":25470:25484   */\n      lt\n        /* \"#utility.yul\":25463:25583   */\n      iszero\n      tag_485\n      jumpi\n        /* \"#utility.yul\":25534:25573   */\n      tag_486\n        /* \"#utility.yul\":25571:25572   */\n      0x00\n        /* \"#utility.yul\":25564:25569   */\n      dup3\n        /* \"#utility.yul\":25534:25573   */\n      tag_261\n      jump\t// in\n    tag_486:\n        /* \"#utility.yul\":25507:25508   */\n      0x01\n        /* \"#utility.yul\":25500:25505   */\n      dup2\n        /* \"#utility.yul\":25496:25509   */\n      add\n        /* \"#utility.yul\":25487:25509   */\n      swap1\n      pop\n        /* \"#utility.yul\":25463:25583   */\n      jump(tag_483)\n    tag_485:\n        /* \"#utility.yul\":25403:25589   */\n      pop\n      pop\n      jump\t// out\n        /* \"#utility.yul\":25595:26138   */\n    tag_263:\n        /* \"#utility.yul\":25696:25698   */\n      0x1f\n        /* \"#utility.yul\":25691:25694   */\n      dup3\n        /* \"#utility.yul\":25688:25699   */\n      gt\n        /* \"#utility.yul\":25685:26131   */\n      iszero\n      tag_488\n      jumpi\n        /* \"#utility.yul\":25730:25768   */\n      tag_489\n        /* \"#utility.yul\":25762:25767   */\n      dup2\n        /* \"#utility.yul\":25730:25768   */\n      tag_252\n      jump\t// in\n    tag_489:\n        /* \"#utility.yul\":25814:25843   */\n      tag_490\n        /* \"#utility.yul\":25832:25842   */\n      dup5\n        /* \"#utility.yul\":25814:25843   */\n      tag_253\n      jump\t// in\n    tag_490:\n        /* \"#utility.yul\":25804:25812   */\n      dup2\n        /* \"#utility.yul\":25800:25844   */\n      add\n        /* \"#utility.yul\":25997:25999   */\n      0x20\n        /* \"#utility.yul\":25985:25995   */\n      dup6\n        /* \"#utility.yul\":25982:26000   */\n      lt\n        /* \"#utility.yul\":25979:26028   */\n      iszero\n      tag_491\n      jumpi\n        /* \"#utility.yul\":26018:26026   */\n      dup2\n        /* \"#utility.yul\":26003:26026   */\n      swap1\n      pop\n        /* \"#utility.yul\":25979:26028   */\n    tag_491:\n        /* \"#utility.yul\":26041:26121   */\n      tag_492\n        /* \"#utility.yul\":26097:26119   */\n      tag_493\n        /* \"#utility.yul\":26115:26118   */\n      dup6\n        /* \"#utility.yul\":26097:26119   */\n      tag_253\n      jump\t// in\n    tag_493:\n        /* \"#utility.yul\":26087:26095   */\n      dup4\n        /* \"#utility.yul\":26083:26120   */\n      add\n        /* \"#utility.yul\":26070:26081   */\n      dup3\n        /* \"#utility.yul\":26041:26121   */\n      tag_262\n      jump\t// in\n    tag_492:\n        /* \"#utility.yul\":25700:26131   */\n      pop\n      pop\n        /* \"#utility.yul\":25685:26131   */\n    tag_488:\n        /* \"#utility.yul\":25595:26138   */\n      pop\n      pop\n      pop\n      jump\t// out\n        /* \"#utility.yul\":26144:26261   */\n    tag_264:\n        /* \"#utility.yul\":26198:26206   */\n      0x00\n        /* \"#utility.yul\":26248:26253   */\n      dup3\n        /* \"#utility.yul\":26242:26246   */\n      dup3\n        /* \"#utility.yul\":26238:26254   */\n      shr\n        /* \"#utility.yul\":26217:26254   */\n      swap1\n      pop\n        /* \"#utility.yul\":26144:26261   */\n      swap3\n      swap2\n      pop\n      pop\n      jump\t// out\n        /* \"#utility.yul\":26267:26436   */\n    tag_265:\n        /* \"#utility.yul\":26311:26317   */\n      0x00\n        /* \"#utility.yul\":26344:26395   */\n      tag_496\n        /* \"#utility.yul\":26392:26393   */\n      0x00\n        /* \"#utility.yul\":26388:26394   */\n      not\n        /* \"#utility.yul\":26380:26385   */\n      dup5\n        /* \"#utility.yul\":26377:26378   */\n      0x08\n        /* \"#utility.yul\":26373:26386   */\n      mul\n        /* \"#utility.yul\":26344:26395   */\n      tag_264\n      jump\t// in\n    tag_496:\n        /* \"#utility.yul\":26340:26396   */\n      not\n        /* \"#utility.yul\":26425:26429   */\n      dup1\n        /* \"#utility.yul\":26419:26423   */\n      dup4\n        /* \"#utility.yul\":26415:26430   */\n      and\n        /* \"#utility.yul\":26405:26430   */\n      swap2\n      pop\n        /* \"#utility.yul\":26318:26436   */\n      pop\n        /* \"#utility.yul\":26267:26436   */\n      swap3\n      swap2\n      pop\n      pop\n      jump\t// out\n        /* \"#utility.yul\":26441:26736   */\n    tag_266:\n        /* \"#utility.yul\":26517:26521   */\n      0x00\n        /* \"#utility.yul\":26663:26692   */\n      tag_498\n        /* \"#utility.yul\":26688:26691   */\n      dup4\n        /* \"#utility.yul\":26682:26686   */\n      dup4\n        /* \"#utility.yul\":26663:26692   */\n      tag_265\n      jump\t// in\n    tag_498:\n        /* \"#utility.yul\":26655:26692   */\n      swap2\n      pop\n        /* \"#utility.yul\":26725:26728   */\n      dup3\n        /* \"#utility.yul\":26722:26723   */\n      0x02\n        /* \"#utility.yul\":26718:26729   */\n      mul\n        /* \"#utility.yul\":26712:26716   */\n      dup3\n        /* \"#utility.yul\":26709:26730   */\n      or\n        /* \"#utility.yul\":26701:26730   */\n      swap1\n      pop\n        /* \"#utility.yul\":26441:26736   */\n      swap3\n      swap2\n      pop\n      pop\n      jump\t// out\n        /* \"#utility.yul\":26741:28136   */\n    tag_191:\n        /* \"#utility.yul\":26858:26895   */\n      tag_500\n        /* \"#utility.yul\":26891:26894   */\n      dup3\n        /* \"#utility.yul\":26858:26895   */\n      tag_204\n      jump\t// in\n    tag_500:\n        /* \"#utility.yul\":26960:26978   */\n      0xffffffffffffffff\n        /* \"#utility.yul\":26952:26958   */\n      dup2\n        /* \"#utility.yul\":26949:26979   */\n      gt\n        /* \"#utility.yul\":26946:27002   */\n      iszero\n      tag_501\n      jumpi\n        /* \"#utility.yul\":26982:27000   */\n      tag_502\n      tag_93\n      jump\t// in\n    tag_502:\n        /* \"#utility.yul\":26946:27002   */\n    tag_501:\n        /* \"#utility.yul\":27026:27064   */\n      tag_503\n        /* \"#utility.yul\":27058:27062   */\n      dup3\n        /* \"#utility.yul\":27052:27063   */\n      sload\n        /* \"#utility.yul\":27026:27064   */\n      tag_103\n      jump\t// in\n    tag_503:\n        /* \"#utility.yul\":27111:27178   */\n      tag_504\n        /* \"#utility.yul\":27171:27177   */\n      dup3\n        /* \"#utility.yul\":27163:27169   */\n      dup3\n        /* \"#utility.yul\":27157:27161   */\n      dup6\n        /* \"#utility.yul\":27111:27178   */\n      tag_263\n      jump\t// in\n    tag_504:\n        /* \"#utility.yul\":27205:27206   */\n      0x00\n        /* \"#utility.yul\":27229:27233   */\n      0x20\n        /* \"#utility.yul\":27216:27233   */\n      swap1\n      pop\n        /* \"#utility.yul\":27261:27263   */\n      0x1f\n        /* \"#utility.yul\":27253:27259   */\n      dup4\n        /* \"#utility.yul\":27250:27264   */\n      gt\n        /* \"#utility.yul\":27278:27279   */\n      0x01\n        /* \"#utility.yul\":27273:27891   */\n      dup2\n      eq\n      tag_506\n      jumpi\n        /* \"#utility.yul\":27935:27936   */\n      0x00\n        /* \"#utility.yul\":27952:27958   */\n      dup5\n        /* \"#utility.yul\":27949:28026   */\n      iszero\n      tag_507\n      jumpi\n        /* \"#utility.yul\":28001:28010   */\n      dup3\n        /* \"#utility.yul\":27996:27999   */\n      dup8\n        /* \"#utility.yul\":27992:28011   */\n      add\n        /* \"#utility.yul\":27986:28012   */\n      mload\n        /* \"#utility.yul\":27977:28012   */\n      swap1\n      pop\n        /* \"#utility.yul\":27949:28026   */\n    tag_507:\n        /* \"#utility.yul\":28052:28119   */\n      tag_508\n        /* \"#utility.yul\":28112:28118   */\n      dup6\n        /* \"#utility.yul\":28105:28110   */\n      dup3\n        /* \"#utility.yul\":28052:28119   */\n      tag_266\n      jump\t// in\n    tag_508:\n        /* \"#utility.yul\":28046:28050   */\n      dup7\n        /* \"#utility.yul\":28039:28120   */\n      sstore\n        /* \"#utility.yul\":27908:28130   */\n      pop\n        /* \"#utility.yul\":27243:28130   */\n      jump(tag_505)\n        /* \"#utility.yul\":27273:27891   */\n    tag_506:\n        /* \"#utility.yul\":27325:27329   */\n      0x1f\n        /* \"#utility.yul\":27321:27330   */\n      not\n        /* \"#utility.yul\":27313:27319   */\n      dup5\n        /* \"#utility.yul\":27309:27331   */\n      and\n        /* \"#utility.yul\":27359:27396   */\n      tag_509\n        /* \"#utility.yul\":27391:27395   */\n      dup7\n        /* \"#utility.yul\":27359:27396   */\n      tag_252\n      jump\t// in\n    tag_509:\n        /* \"#utility.yul\":27418:27419   */\n      0x00\n        /* \"#utility.yul\":27432:27640   */\n    tag_510:\n        /* \"#utility.yul\":27446:27453   */\n      dup3\n        /* \"#utility.yul\":27443:27444   */\n      dup2\n        /* \"#utility.yul\":27440:27454   */\n      lt\n        /* \"#utility.yul\":27432:27640   */\n      iszero\n      tag_512\n      jumpi\n        /* \"#utility.yul\":27525:27534   */\n      dup5\n        /* \"#utility.yul\":27520:27523   */\n      dup10\n        /* \"#utility.yul\":27516:27535   */\n      add\n        /* \"#utility.yul\":27510:27536   */\n      mload\n        /* \"#utility.yul\":27502:27508   */\n      dup3\n        /* \"#utility.yul\":27495:27537   */\n      sstore\n        /* \"#utility.yul\":27576:27577   */\n      0x01\n        /* \"#utility.yul\":27568:27574   */\n      dup3\n        /* \"#utility.yul\":27564:27578   */\n      add\n        /* \"#utility.yul\":27554:27578   */\n      swap2\n      pop\n        /* \"#utility.yul\":27623:27625   */\n      0x20\n        /* \"#utility.yul\":27612:27621   */\n      dup6\n        /* \"#utility.yul\":27608:27626   */\n      add\n        /* \"#utility.yul\":27595:27626   */\n      swap5\n      pop\n        /* \"#utility.yul\":27469:27473   */\n      0x20\n        /* \"#utility.yul\":27466:27467   */\n      dup2\n        /* \"#utility.yul\":27462:27474   */\n      add\n        /* \"#utility.yul\":27457:27474   */\n      swap1\n      pop\n        /* \"#utility.yul\":27432:27640   */\n      jump(tag_510)\n    tag_512:\n        /* \"#utility.yul\":27668:27674   */\n      dup7\n        /* \"#utility.yul\":27659:27666   */\n      dup4\n        /* \"#utility.yul\":27656:27675   */\n      lt\n        /* \"#utility.yul\":27653:27832   */\n      iszero\n      tag_513\n      jumpi\n        /* \"#utility.yul\":27726:27735   */\n      dup5\n        /* \"#utility.yul\":27721:27724   */\n      dup10\n        /* \"#utility.yul\":27717:27736   */\n      add\n        /* \"#utility.yul\":27711:27737   */\n      mload\n        /* \"#utility.yul\":27769:27817   */\n      tag_514\n        /* \"#utility.yul\":27811:27815   */\n      0x1f\n        /* \"#utility.yul\":27803:27809   */\n      dup10\n        /* \"#utility.yul\":27799:27816   */\n      and\n        /* \"#utility.yul\":27788:27797   */\n      dup3\n        /* \"#utility.yul\":27769:27817   */\n      tag_265\n      jump\t// in\n    tag_514:\n        /* \"#utility.yul\":27761:27767   */\n      dup4\n        /* \"#utility.yul\":27754:27818   */\n      sstore\n        /* \"#utility.yul\":27676:27832   */\n      pop\n        /* \"#utility.yul\":27653:27832   */\n    tag_513:\n        /* \"#utility.yul\":27878:27879   */\n      0x01\n        /* \"#utility.yul\":27874:27875   */\n      0x02\n        /* \"#utility.yul\":27866:27872   */\n      dup9\n        /* \"#utility.yul\":27862:27876   */\n      mul\n        /* \"#utility.yul\":27858:27880   */\n      add\n        /* \"#utility.yul\":27852:27856   */\n      dup9\n        /* \"#utility.yul\":27845:27881   */\n      sstore\n        /* \"#utility.yul\":27280:27891   */\n      pop\n      pop\n      pop\n        /* \"#utility.yul\":27243:28130   */\n    tag_505:\n      pop\n        /* \"#utility.yul\":26833:28136   */\n      pop\n      pop\n      pop\n        /* \"#utility.yul\":26741:28136   */\n      pop\n      pop\n      jump\t// out\n\n    auxdata: 0xa2646970667358221220acdd72db9eda320fd0be126d31393dd93fe482b03f875609ac17d20e18776e8a64736f6c634300081a0033\n}\n",
				"bytecode": {
					"linkReferences": {},
					"object": "60806040525f6001555f6002553480156016575f80fd5b503360035f6101000a81548173ffffffffffffffffffffffffffffffffffffffff021916908373ffffffffffffffffffffffffffffffffffffffff160217905550611f69806100645f395ff3fe6080604052600436106100a6575f3560e01c80638da5cb5b116100635780638da5cb5b146101c65780638ef17fc3146101f05780639dfc3dd114610206578063b905ad781461022e578063bec0d79914610258578063f733719c14610280576100a6565b80631c555f47146100aa578063354528e8146100c65780633899637f146100f0578063590791f21461011a578063687440461461014457806374ff481814610185575b5f80fd5b6100c460048036038101906100bf9190611171565b6102a8565b005b3480156100d1575f80fd5b506100da610480565b6040516100e7919061137d565b60405180910390f35b3480156100fb575f80fd5b506101046106bf565b60405161011191906113ac565b60405180910390f35b348015610125575f80fd5b5061012e6106c5565b60405161013b91906113ac565b60405180910390f35b34801561014f575f80fd5b5061016a60048036038101906101659190611171565b610704565b60405161017c9695949392919061141c565b60405180910390f35b348015610190575f80fd5b506101ab60048036038101906101a69190611171565b610853565b6040516101bd9695949392919061141c565b60405180910390f35b3480156101d1575f80fd5b506101da610a52565b6040516101e791906114c8565b60405180910390f35b3480156101fb575f80fd5b50610204610a77565b005b348015610211575f80fd5b5061022c600480360381019061022791906114e1565b610b7b565b005b348015610239575f80fd5b50610242610d17565b60405161024f91906113ac565b60405180910390f35b348015610263575f80fd5b5061027e60048036038101906102799190611171565b610d1d565b005b34801561028b575f80fd5b506102a660048036038101906102a1919061164b565b610e88565b005b5f811180156102b957506001548111155b6102f8576040517f08c379a00000000000000000000000000000000000000000000000000000000081526004016102ef90611744565b60405180910390fd5b5f805f8381526020019081526020015f209050806005015f9054906101000a900460ff1661035b576040517f08c379a0000000000000000000000000000000000000000000000000000000008152600401610352906117ac565b60405180910390fd5b5f8160040154116103a1576040517f08c379a000000000000000000000000000000000000000000000000000000000815260040161039890611814565b60405180910390fd5b806003015434146103e7576040517f08c379a00000000000000000000000000000000000000000000000000000000081526004016103de9061187c565b60405180910390fd5b806004015f8154809291906103fb906118c7565b919050555060025f815480929190610412906118ee565b919050555060035f9054906101000a900473ffffffffffffffffffffffffffffffffffffffff1673ffffffffffffffffffffffffffffffffffffffff166108fc3490811502906040515f60405180830381858888f1935050505015801561047b573d5f803e3d5ffd5b505050565b60605f60015467ffffffffffffffff81111561049f5761049e611527565b5b6040519080825280602002602001820160405280156104d857816020015b6104c56110f9565b8152602001906001900390816104bd5790505b5090505f80600190505b60015481116106b6575f805f8381526020019081526020015f205f0154146106a3575f808281526020019081526020015f206040518060c00160405290815f820154815260200160018201805461053890611962565b80601f016020809104026020016040519081016040528092919081815260200182805461056490611962565b80156105af5780601f10610586576101008083540402835291602001916105af565b820191905f5260205f20905b81548152906001019060200180831161059257829003601f168201915b505050505081526020016002820180546105c890611962565b80601f01602080910402602001604051908101604052809291908181526020018280546105f490611962565b801561063f5780601f106106165761010080835404028352916020019161063f565b820191905f5260205f20905b81548152906001019060200180831161062257829003601f168201915b505050505081526020016003820154815260200160048201548152602001600582015f9054906101000a900460ff16151515158152505083838151811061068957610688611992565b5b6020026020010181905250818061069f906118ee565b9250505b80806106ae906118ee565b9150506104e2565b50819250505090565b60025481565b5f60035f9054906101000a900473ffffffffffffffffffffffffffffffffffffffff1673ffffffffffffffffffffffffffffffffffffffff1631905090565b5f602052805f5260405f205f91509050805f01549080600101805461072890611962565b80601f016020809104026020016040519081016040528092919081815260200182805461075490611962565b801561079f5780601f106107765761010080835404028352916020019161079f565b820191905f5260205f20905b81548152906001019060200180831161078257829003601f168201915b5050505050908060020180546107b490611962565b80601f01602080910402602001604051908101604052809291908181526020018280546107e090611962565b801561082b5780601f106108025761010080835404028352916020019161082b565b820191905f5260205f20905b81548152906001019060200180831161080e57829003601f168201915b505050505090806003015490806004015490806005015f9054906101000a900460ff16905086565b5f6060805f805f808711801561086b57506001548711155b6108aa576040517f08c379a00000000000000000000000000000000000000000000000000000000081526004016108a190611744565b60405180910390fd5b5f805f8981526020019081526020015f206040518060c00160405290815f82015481526020016001820180546108df90611962565b80601f016020809104026020016040519081016040528092919081815260200182805461090b90611962565b80156109565780601f1061092d57610100808354040283529160200191610956565b820191905f5260205f20905b81548152906001019060200180831161093957829003601f168201915b5050505050815260200160028201805461096f90611962565b80601f016020809104026020016040519081016040528092919081815260200182805461099b90611962565b80156109e65780601f106109bd576101008083540402835291602001916109e6565b820191905f5260205f20905b8154815290600101906020018083116109c957829003601f168201915b505050505081526020016003820154815260200160048201548152602001600582015f9054906101000a900460ff1615151515815250509050805f015181602001518260400151836060015184608001518560a001519650965096509650965096505091939550919395565b60035f9054906101000a900473ffffffffffffffffffffffffffffffffffffffff1681565b60035f9054906101000a900473ffffffffffffffffffffffffffffffffffffffff1673ffffffffffffffffffffffffffffffffffffffff163373ffffffffffffffffffffffffffffffffffffffff1614610b06576040517f08c379a0000000000000000000000000000000000000000000000000000000008152600401610afd90611a2f565b60405180910390fd5b5f600190505b6001548111610b78575f808281526020019081526020015f206005015f9054906101000a900460ff1615610b65575f805f8381526020019081526020015f206005015f6101000a81548160ff0219169083151502179055505b8080610b70906118ee565b915050610b0c565b50565b60035f9054906101000a900473ffffffffffffffffffffffffffffffffffffffff1673ffffffffffffffffffffffffffffffffffffffff163373ffffffffffffffffffffffffffffffffffffffff1614610c0a576040517f08c379a0000000000000000000000000000000000000000000000000000000008152600401610c0190611a2f565b60405180910390fd5b5f82118015610c1b57506001548211155b610c5a576040517f08c379a0000000000000000000000000000000000000000000000000000000008152600401610c5190611744565b60405180910390fd5b5f8111610c9c576040517f08c379a0000000000000000000000000000000000000000000000000000000008152600401610c9390611abd565b60405180910390fd5b5f808381526020019081526020015f206005015f9054906101000a900460ff16610cfb576040517f08c379a0000000000000000000000000000000000000000000000000000000008152600401610cf2906117ac565b60405180910390fd5b805f808481526020019081526020015f20600401819055505050565b60015481565b60035f9054906101000a900473ffffffffffffffffffffffffffffffffffffffff1673ffffffffffffffffffffffffffffffffffffffff163373ffffffffffffffffffffffffffffffffffffffff1614610dac576040517f08c379a0000000000000000000000000000000000000000000000000000000008152600401610da390611a2f565b60405180910390fd5b5f81118015610dbd57506001548111155b610dfc576040517f08c379a0000000000000000000000000000000000000000000000000000000008152600401610df390611744565b60405180910390fd5b5f808281526020019081526020015f206005015f9054906101000a900460ff16610e5b576040517f08c379a0000000000000000000000000000000000000000000000000000000008152600401610e5290611b25565b60405180910390fd5b5f805f8381526020019081526020015f206005015f6101000a81548160ff02191690831515021790555050565b60035f9054906101000a900473ffffffffffffffffffffffffffffffffffffffff1673ffffffffffffffffffffffffffffffffffffffff163373ffffffffffffffffffffffffffffffffffffffff1614610f17576040517f08c379a0000000000000000000000000000000000000000000000000000000008152600401610f0e90611a2f565b60405180910390fd5b5f8511610f59576040517f08c379a0000000000000000000000000000000000000000000000000000000008152600401610f5090611bb3565b60405180910390fd5b5f8211610f9b576040517f08c379a0000000000000000000000000000000000000000000000000000000008152600401610f9290611c41565b60405180910390fd5b5f8111610fdd576040517f08c379a0000000000000000000000000000000000000000000000000000000008152600401610fd490611abd565b60405180910390fd5b5f805f8781526020019081526020015f205f015414611031576040517f08c379a000000000000000000000000000000000000000000000000000000000815260040161102890611ca9565b60405180910390fd5b6040518060c00160405280868152602001858152602001848152602001838152602001828152602001600115158152505f808781526020019081526020015f205f820151815f0155602082015181600101908161108e9190611e64565b5060408201518160020190816110a49190611e64565b50606082015181600301556080820151816004015560a0820151816005015f6101000a81548160ff02191690831515021790555090505060015f8154809291906110ed906118ee565b91905055505050505050565b6040518060c001604052805f815260200160608152602001606081526020015f81526020015f81526020015f151581525090565b5f604051905090565b5f80fd5b5f80fd5b5f819050919050565b6111508161113e565b811461115a575f80fd5b50565b5f8135905061116b81611147565b92915050565b5f6020828403121561118657611185611136565b5b5f6111938482850161115d565b91505092915050565b5f81519050919050565b5f82825260208201905092915050565b5f819050602082019050919050565b6111ce8161113e565b82525050565b5f81519050919050565b5f82825260208201905092915050565b8281835e5f83830152505050565b5f601f19601f8301169050919050565b5f611216826111d4565b61122081856111de565b93506112308185602086016111ee565b611239816111fc565b840191505092915050565b5f8115159050919050565b61125881611244565b82525050565b5f60c083015f8301516112735f8601826111c5565b506020830151848203602086015261128b828261120c565b915050604083015184820360408601526112a5828261120c565b91505060608301516112ba60608601826111c5565b5060808301516112cd60808601826111c5565b5060a08301516112e060a086018261124f565b508091505092915050565b5f6112f6838361125e565b905092915050565b5f602082019050919050565b5f6113148261119c565b61131e81856111a6565b935083602082028501611330856111b6565b805f5b8581101561136b578484038952815161134c85826112eb565b9450611357836112fe565b925060208a01995050600181019050611333565b50829750879550505050505092915050565b5f6020820190508181035f830152611395818461130a565b905092915050565b6113a68161113e565b82525050565b5f6020820190506113bf5f83018461139d565b92915050565b5f82825260208201905092915050565b5f6113df826111d4565b6113e981856113c5565b93506113f98185602086016111ee565b611402816111fc565b840191505092915050565b61141681611244565b82525050565b5f60c08201905061142f5f83018961139d565b818103602083015261144181886113d5565b9050818103604083015261145581876113d5565b9050611464606083018661139d565b611471608083018561139d565b61147e60a083018461140d565b979650505050505050565b5f73ffffffffffffffffffffffffffffffffffffffff82169050919050565b5f6114b282611489565b9050919050565b6114c2816114a8565b82525050565b5f6020820190506114db5f8301846114b9565b92915050565b5f80604083850312156114f7576114f6611136565b5b5f6115048582860161115d565b92505060206115158582860161115d565b9150509250929050565b5f80fd5b5f80fd5b7f4e487b71000000000000000000000000000000000000000000000000000000005f52604160045260245ffd5b61155d826111fc565b810181811067ffffffffffffffff8211171561157c5761157b611527565b5b80604052505050565b5f61158e61112d565b905061159a8282611554565b919050565b5f67ffffffffffffffff8211156115b9576115b8611527565b5b6115c2826111fc565b9050602081019050919050565b828183375f83830152505050565b5f6115ef6115ea8461159f565b611585565b90508281526020810184848401111561160b5761160a611523565b5b6116168482856115cf565b509392505050565b5f82601f8301126116325761163161151f565b5b81356116428482602086016115dd565b91505092915050565b5f805f805f60a0868803121561166457611663611136565b5b5f6116718882890161115d565b955050602086013567ffffffffffffffff8111156116925761169161113a565b5b61169e8882890161161e565b945050604086013567ffffffffffffffff8111156116bf576116be61113a565b5b6116cb8882890161161e565b93505060606116dc8882890161115d565b92505060806116ed8882890161115d565b9150509295509295909350565b7f496e76616c696420626f6f6b20494400000000000000000000000000000000005f82015250565b5f61172e600f836113c5565b9150611739826116fa565b602082019050919050565b5f6020820190508181035f83015261175b81611722565b9050919050565b7f426f6f6b206973206e6f7420617661696c61626c6500000000000000000000005f82015250565b5f6117966015836113c5565b91506117a182611762565b602082019050919050565b5f6020820190508181035f8301526117c38161178a565b9050919050565b7f426f6f6b206f7574206f662073746f636b0000000000000000000000000000005f82015250565b5f6117fe6011836113c5565b9150611809826117ca565b602082019050919050565b5f6020820190508181035f83015261182b816117f2565b9050919050565b7f496e636f7272656374207061796d656e7420616d6f756e7400000000000000005f82015250565b5f6118666018836113c5565b915061187182611832565b602082019050919050565b5f6020820190508181035f8301526118938161185a565b9050919050565b7f4e487b71000000000000000000000000000000000000000000000000000000005f52601160045260245ffd5b5f6118d18261113e565b91505f82036118e3576118e261189a565b5b600182039050919050565b5f6118f88261113e565b91507fffffffffffffffffffffffffffffffffffffffffffffffffffffffffffffffff820361192a5761192961189a565b5b600182019050919050565b7f4e487b71000000000000000000000000000000000000000000000000000000005f52602260045260245ffd5b5f600282049050600182168061197957607f821691505b60208210810361198c5761198b611935565b5b50919050565b7f4e487b71000000000000000000000000000000000000000000000000000000005f52603260045260245ffd5b7f4f6e6c7920746865206f776e65722063616e20706572666f726d2074686973205f8201527f616374696f6e0000000000000000000000000000000000000000000000000000602082015250565b5f611a196026836113c5565b9150611a24826119bf565b604082019050919050565b5f6020820190508181035f830152611a4681611a0d565b9050919050565b7f53746f636b2073686f756c642062652067726561746572207468616e207a65725f8201527f6f00000000000000000000000000000000000000000000000000000000000000602082015250565b5f611aa76021836113c5565b9150611ab282611a4d565b604082019050919050565b5f6020820190508181035f830152611ad481611a9b565b9050919050565b7f426f6f6b20697320616c72656164792072656d6f7665640000000000000000005f82015250565b5f611b0f6017836113c5565b9150611b1a82611adb565b602082019050919050565b5f6020820190508181035f830152611b3c81611b03565b9050919050565b7f426f6f6b2049442073686f756c642062652067726561746572207468616e207a5f8201527f65726f0000000000000000000000000000000000000000000000000000000000602082015250565b5f611b9d6023836113c5565b9150611ba882611b43565b604082019050919050565b5f6020820190508181035f830152611bca81611b91565b9050919050565b7f50726963652073686f756c642062652067726561746572207468616e207a65725f8201527f6f00000000000000000000000000000000000000000000000000000000000000602082015250565b5f611c2b6021836113c5565b9150611c3682611bd1565b604082019050919050565b5f6020820190508181035f830152611c5881611c1f565b9050919050565b7f426f6f6b20494420616c726561647920657869737473000000000000000000005f82015250565b5f611c936016836113c5565b9150611c9e82611c5f565b602082019050919050565b5f6020820190508181035f830152611cc081611c87565b9050919050565b5f819050815f5260205f209050919050565b5f6020601f8301049050919050565b5f82821b905092915050565b5f60088302611d237fffffffffffffffffffffffffffffffffffffffffffffffffffffffffffffffff82611ce8565b611d2d8683611ce8565b95508019841693508086168417925050509392505050565b5f819050919050565b5f611d68611d63611d5e8461113e565b611d45565b61113e565b9050919050565b5f819050919050565b611d8183611d4e565b611d95611d8d82611d6f565b848454611cf4565b825550505050565b5f90565b611da9611d9d565b611db4818484611d78565b505050565b5b81811015611dd757611dcc5f82611da1565b600181019050611dba565b5050565b601f821115611e1c57611ded81611cc7565b611df684611cd9565b81016020851015611e05578190505b611e19611e1185611cd9565b830182611db9565b50505b505050565b5f82821c905092915050565b5f611e3c5f1984600802611e21565b1980831691505092915050565b5f611e548383611e2d565b9150826002028217905092915050565b611e6d826111d4565b67ffffffffffffffff811115611e8657611e85611527565b5b611e908254611962565b611e9b828285611ddb565b5f60209050601f831160018114611ecc575f8415611eba578287015190505b611ec48582611e49565b865550611f2b565b601f198416611eda86611cc7565b5f5b82811015611f0157848901518255600182019150602085019450602081019050611edc565b86831015611f1e5784890151611f1a601f891682611e2d565b8355505b6001600288020188555050505b50505050505056fea2646970667358221220acdd72db9eda320fd0be126d31393dd93fe482b03f875609ac17d20e18776e8a64736f6c634300081a0033",
					"opcodes": "PUSH1 0x80 PUSH1 0x40 MSTORE PUSH0 PUSH1 0x1 SSTORE PUSH0 PUSH1 0x2 SSTORE CALLVALUE DUP1 ISZERO PUSH1 0x16 JUMPI PUSH0 DUP1 REVERT JUMPDEST POP CALLER PUSH1 0x3 PUSH0 PUSH2 0x100 EXP DUP2 SLOAD DUP2 PUSH20 0xFFFFFFFFFFFFFFFFFFFFFFFFFFFFFFFFFFFFFFFF MUL NOT AND SWAP1 DUP4 PUSH20 0xFFFFFFFFFFFFFFFFFFFFFFFFFFFFFFFFFFFFFFFF AND MUL OR SWAP1 SSTORE POP PUSH2 0x1F69 DUP1 PUSH2 0x64 PUSH0 CODECOPY PUSH0 RETURN INVALID PUSH1 0x80 PUSH1 0x40 MSTORE PUSH1 0x4 CALLDATASIZE LT PUSH2 0xA6 JUMPI PUSH0 CALLDATALOAD PUSH1 0xE0 SHR DUP1 PUSH4 0x8DA5CB5B GT PUSH2 0x63 JUMPI DUP1 PUSH4 0x8DA5CB5B EQ PUSH2 0x1C6 JUMPI DUP1 PUSH4 0x8EF17FC3 EQ PUSH2 0x1F0 JUMPI DUP1 PUSH4 0x9DFC3DD1 EQ PUSH2 0x206 JUMPI DUP1 PUSH4 0xB905AD78 EQ PUSH2 0x22E JUMPI DUP1 PUSH4 0xBEC0D799 EQ PUSH2 0x258 JUMPI DUP1 PUSH4 0xF733719C EQ PUSH2 0x280 JUMPI PUSH2 0xA6 JUMP JUMPDEST DUP1 PUSH4 0x1C555F47 EQ PUSH2 0xAA JUMPI DUP1 PUSH4 0x354528E8 EQ PUSH2 0xC6 JUMPI DUP1 PUSH4 0x3899637F EQ PUSH2 0xF0 JUMPI DUP1 PUSH4 0x590791F2 EQ PUSH2 0x11A JUMPI DUP1 PUSH4 0x68744046 EQ PUSH2 0x144 JUMPI DUP1 PUSH4 0x74FF4818 EQ PUSH2 0x185 JUMPI JUMPDEST PUSH0 DUP1 REVERT JUMPDEST PUSH2 0xC4 PUSH1 0x4 DUP1 CALLDATASIZE SUB DUP2 ADD SWAP1 PUSH2 0xBF SWAP2 SWAP1 PUSH2 0x1171 JUMP JUMPDEST PUSH2 0x2A8 JUMP JUMPDEST STOP JUMPDEST CALLVALUE DUP1 ISZERO PUSH2 0xD1 JUMPI PUSH0 DUP1 REVERT JUMPDEST POP PUSH2 0xDA PUSH2 0x480 JUMP JUMPDEST PUSH1 0x40 MLOAD PUSH2 0xE7 SWAP2 SWAP1 PUSH2 0x137D JUMP JUMPDEST PUSH1 0x40 MLOAD DUP1 SWAP2 SUB SWAP1 RETURN JUMPDEST CALLVALUE DUP1 ISZERO PUSH2 0xFB JUMPI PUSH0 DUP1 REVERT JUMPDEST POP PUSH2 0x104 PUSH2 0x6BF JUMP JUMPDEST PUSH1 0x40 MLOAD PUSH2 0x111 SWAP2 SWAP1 PUSH2 0x13AC JUMP JUMPDEST PUSH1 0x40 MLOAD DUP1 SWAP2 SUB SWAP1 RETURN JUMPDEST CALLVALUE DUP1 ISZERO PUSH2 0x125 JUMPI PUSH0 DUP1 REVERT JUMPDEST POP PUSH2 0x12E PUSH2 0x6C5 JUMP JUMPDEST PUSH1 0x40 MLOAD PUSH2 0x13B SWAP2 SWAP1 PUSH2 0x13AC JUMP JUMPDEST PUSH1 0x40 MLOAD DUP1 SWAP2 SUB SWAP1 RETURN JUMPDEST CALLVALUE DUP1 ISZERO PUSH2 0x14F JUMPI PUSH0 DUP1 REVERT JUMPDEST POP PUSH2 0x16A PUSH1 0x4 DUP1 CALLDATASIZE SUB DUP2 ADD SWAP1 PUSH2 0x165 SWAP2 SWAP1 PUSH2 0x1171 JUMP JUMPDEST PUSH2 0x704 JUMP JUMPDEST PUSH1 0x40 MLOAD PUSH2 0x17C SWAP7 SWAP6 SWAP5 SWAP4 SWAP3 SWAP2 SWAP1 PUSH2 0x141C JUMP JUMPDEST PUSH1 0x40 MLOAD DUP1 SWAP2 SUB SWAP1 RETURN JUMPDEST CALLVALUE DUP1 ISZERO PUSH2 0x190 JUMPI PUSH0 DUP1 REVERT JUMPDEST POP PUSH2 0x1AB PUSH1 0x4 DUP1 CALLDATASIZE SUB DUP2 ADD SWAP1 PUSH2 0x1A6 SWAP2 SWAP1 PUSH2 0x1171 JUMP JUMPDEST PUSH2 0x853 JUMP JUMPDEST PUSH1 0x40 MLOAD PUSH2 0x1BD SWAP7 SWAP6 SWAP5 SWAP4 SWAP3 SWAP2 SWAP1 PUSH2 0x141C JUMP JUMPDEST PUSH1 0x40 MLOAD DUP1 SWAP2 SUB SWAP1 RETURN JUMPDEST CALLVALUE DUP1 ISZERO PUSH2 0x1D1 JUMPI PUSH0 DUP1 REVERT JUMPDEST POP PUSH2 0x1DA PUSH2 0xA52 JUMP JUMPDEST PUSH1 0x40 MLOAD PUSH2 0x1E7 SWAP2 SWAP1 PUSH2 0x14C8 JUMP JUMPDEST PUSH1 0x40 MLOAD DUP1 SWAP2 SUB SWAP1 RETURN JUMPDEST CALLVALUE DUP1 ISZERO PUSH2 0x1FB JUMPI PUSH0 DUP1 REVERT JUMPDEST POP PUSH2 0x204 PUSH2 0xA77 JUMP JUMPDEST STOP JUMPDEST CALLVALUE DUP1 ISZERO PUSH2 0x211 JUMPI PUSH0 DUP1 REVERT JUMPDEST POP PUSH2 0x22C PUSH1 0x4 DUP1 CALLDATASIZE SUB DUP2 ADD SWAP1 PUSH2 0x227 SWAP2 SWAP1 PUSH2 0x14E1 JUMP JUMPDEST PUSH2 0xB7B JUMP JUMPDEST STOP JUMPDEST CALLVALUE DUP1 ISZERO PUSH2 0x239 JUMPI PUSH0 DUP1 REVERT JUMPDEST POP PUSH2 0x242 PUSH2 0xD17 JUMP JUMPDEST PUSH1 0x40 MLOAD PUSH2 0x24F SWAP2 SWAP1 PUSH2 0x13AC JUMP JUMPDEST PUSH1 0x40 MLOAD DUP1 SWAP2 SUB SWAP1 RETURN JUMPDEST CALLVALUE DUP1 ISZERO PUSH2 0x263 JUMPI PUSH0 DUP1 REVERT JUMPDEST POP PUSH2 0x27E PUSH1 0x4 DUP1 CALLDATASIZE SUB DUP2 ADD SWAP1 PUSH2 0x279 SWAP2 SWAP1 PUSH2 0x1171 JUMP JUMPDEST PUSH2 0xD1D JUMP JUMPDEST STOP JUMPDEST CALLVALUE DUP1 ISZERO PUSH2 0x28B JUMPI PUSH0 DUP1 REVERT JUMPDEST POP PUSH2 0x2A6 PUSH1 0x4 DUP1 CALLDATASIZE SUB DUP2 ADD SWAP1 PUSH2 0x2A1 SWAP2 SWAP1 PUSH2 0x164B JUMP JUMPDEST PUSH2 0xE88 JUMP JUMPDEST STOP JUMPDEST PUSH0 DUP2 GT DUP1 ISZERO PUSH2 0x2B9 JUMPI POP PUSH1 0x1 SLOAD DUP2 GT ISZERO JUMPDEST PUSH2 0x2F8 JUMPI PUSH1 0x40 MLOAD PUSH32 0x8C379A000000000000000000000000000000000000000000000000000000000 DUP2 MSTORE PUSH1 0x4 ADD PUSH2 0x2EF SWAP1 PUSH2 0x1744 JUMP JUMPDEST PUSH1 0x40 MLOAD DUP1 SWAP2 SUB SWAP1 REVERT JUMPDEST PUSH0 DUP1 PUSH0 DUP4 DUP2 MSTORE PUSH1 0x20 ADD SWAP1 DUP2 MSTORE PUSH1 0x20 ADD PUSH0 KECCAK256 SWAP1 POP DUP1 PUSH1 0x5 ADD PUSH0 SWAP1 SLOAD SWAP1 PUSH2 0x100 EXP SWAP1 DIV PUSH1 0xFF AND PUSH2 0x35B JUMPI PUSH1 0x40 MLOAD PUSH32 0x8C379A000000000000000000000000000000000000000000000000000000000 DUP2 MSTORE PUSH1 0x4 ADD PUSH2 0x352 SWAP1 PUSH2 0x17AC JUMP JUMPDEST PUSH1 0x40 MLOAD DUP1 SWAP2 SUB SWAP1 REVERT JUMPDEST PUSH0 DUP2 PUSH1 0x4 ADD SLOAD GT PUSH2 0x3A1 JUMPI PUSH1 0x40 MLOAD PUSH32 0x8C379A000000000000000000000000000000000000000000000000000000000 DUP2 MSTORE PUSH1 0x4 ADD PUSH2 0x398 SWAP1 PUSH2 0x1814 JUMP JUMPDEST PUSH1 0x40 MLOAD DUP1 SWAP2 SUB SWAP1 REVERT JUMPDEST DUP1 PUSH1 0x3 ADD SLOAD CALLVALUE EQ PUSH2 0x3E7 JUMPI PUSH1 0x40 MLOAD PUSH32 0x8C379A000000000000000000000000000000000000000000000000000000000 DUP2 MSTORE PUSH1 0x4 ADD PUSH2 0x3DE SWAP1 PUSH2 0x187C JUMP JUMPDEST PUSH1 0x40 MLOAD DUP1 SWAP2 SUB SWAP1 REVERT JUMPDEST DUP1 PUSH1 0x4 ADD PUSH0 DUP2 SLOAD DUP1 SWAP3 SWAP2 SWAP1 PUSH2 0x3FB SWAP1 PUSH2 0x18C7 JUMP JUMPDEST SWAP2 SWAP1 POP SSTORE POP PUSH1 0x2 PUSH0 DUP2 SLOAD DUP1 SWAP3 SWAP2 SWAP1 PUSH2 0x412 SWAP1 PUSH2 0x18EE JUMP JUMPDEST SWAP2 SWAP1 POP SSTORE POP PUSH1 0x3 PUSH0 SWAP1 SLOAD SWAP1 PUSH2 0x100 EXP SWAP1 DIV PUSH20 0xFFFFFFFFFFFFFFFFFFFFFFFFFFFFFFFFFFFFFFFF AND PUSH20 0xFFFFFFFFFFFFFFFFFFFFFFFFFFFFFFFFFFFFFFFF AND PUSH2 0x8FC CALLVALUE SWAP1 DUP2 ISZERO MUL SWAP1 PUSH1 0x40 MLOAD PUSH0 PUSH1 0x40 MLOAD DUP1 DUP4 SUB DUP2 DUP6 DUP9 DUP9 CALL SWAP4 POP POP POP POP ISZERO DUP1 ISZERO PUSH2 0x47B JUMPI RETURNDATASIZE PUSH0 DUP1 RETURNDATACOPY RETURNDATASIZE PUSH0 REVERT JUMPDEST POP POP POP JUMP JUMPDEST PUSH1 0x60 PUSH0 PUSH1 0x1 SLOAD PUSH8 0xFFFFFFFFFFFFFFFF DUP2 GT ISZERO PUSH2 0x49F JUMPI PUSH2 0x49E PUSH2 0x1527 JUMP JUMPDEST JUMPDEST PUSH1 0x40 MLOAD SWAP1 DUP1 DUP3 MSTORE DUP1 PUSH1 0x20 MUL PUSH1 0x20 ADD DUP3 ADD PUSH1 0x40 MSTORE DUP1 ISZERO PUSH2 0x4D8 JUMPI DUP2 PUSH1 0x20 ADD JUMPDEST PUSH2 0x4C5 PUSH2 0x10F9 JUMP JUMPDEST DUP2 MSTORE PUSH1 0x20 ADD SWAP1 PUSH1 0x1 SWAP1 SUB SWAP1 DUP2 PUSH2 0x4BD JUMPI SWAP1 POP JUMPDEST POP SWAP1 POP PUSH0 DUP1 PUSH1 0x1 SWAP1 POP JUMPDEST PUSH1 0x1 SLOAD DUP2 GT PUSH2 0x6B6 JUMPI PUSH0 DUP1 PUSH0 DUP4 DUP2 MSTORE PUSH1 0x20 ADD SWAP1 DUP2 MSTORE PUSH1 0x20 ADD PUSH0 KECCAK256 PUSH0 ADD SLOAD EQ PUSH2 0x6A3 JUMPI PUSH0 DUP1 DUP3 DUP2 MSTORE PUSH1 0x20 ADD SWAP1 DUP2 MSTORE PUSH1 0x20 ADD PUSH0 KECCAK256 PUSH1 0x40 MLOAD DUP1 PUSH1 0xC0 ADD PUSH1 0x40 MSTORE SWAP1 DUP2 PUSH0 DUP3 ADD SLOAD DUP2 MSTORE PUSH1 0x20 ADD PUSH1 0x1 DUP3 ADD DUP1 SLOAD PUSH2 0x538 SWAP1 PUSH2 0x1962 JUMP JUMPDEST DUP1 PUSH1 0x1F ADD PUSH1 0x20 DUP1 SWAP2 DIV MUL PUSH1 0x20 ADD PUSH1 0x40 MLOAD SWAP1 DUP2 ADD PUSH1 0x40 MSTORE DUP1 SWAP3 SWAP2 SWAP1 DUP2 DUP2 MSTORE PUSH1 0x20 ADD DUP3 DUP1 SLOAD PUSH2 0x564 SWAP1 PUSH2 0x1962 JUMP JUMPDEST DUP1 ISZERO PUSH2 0x5AF JUMPI DUP1 PUSH1 0x1F LT PUSH2 0x586 JUMPI PUSH2 0x100 DUP1 DUP4 SLOAD DIV MUL DUP4 MSTORE SWAP2 PUSH1 0x20 ADD SWAP2 PUSH2 0x5AF JUMP JUMPDEST DUP3 ADD SWAP2 SWAP1 PUSH0 MSTORE PUSH1 0x20 PUSH0 KECCAK256 SWAP1 JUMPDEST DUP2 SLOAD DUP2 MSTORE SWAP1 PUSH1 0x1 ADD SWAP1 PUSH1 0x20 ADD DUP1 DUP4 GT PUSH2 0x592 JUMPI DUP3 SWAP1 SUB PUSH1 0x1F AND DUP3 ADD SWAP2 JUMPDEST POP POP POP POP POP DUP2 MSTORE PUSH1 0x20 ADD PUSH1 0x2 DUP3 ADD DUP1 SLOAD PUSH2 0x5C8 SWAP1 PUSH2 0x1962 JUMP JUMPDEST DUP1 PUSH1 0x1F ADD PUSH1 0x20 DUP1 SWAP2 DIV MUL PUSH1 0x20 ADD PUSH1 0x40 MLOAD SWAP1 DUP2 ADD PUSH1 0x40 MSTORE DUP1 SWAP3 SWAP2 SWAP1 DUP2 DUP2 MSTORE PUSH1 0x20 ADD DUP3 DUP1 SLOAD PUSH2 0x5F4 SWAP1 PUSH2 0x1962 JUMP JUMPDEST DUP1 ISZERO PUSH2 0x63F JUMPI DUP1 PUSH1 0x1F LT PUSH2 0x616 JUMPI PUSH2 0x100 DUP1 DUP4 SLOAD DIV MUL DUP4 MSTORE SWAP2 PUSH1 0x20 ADD SWAP2 PUSH2 0x63F JUMP JUMPDEST DUP3 ADD SWAP2 SWAP1 PUSH0 MSTORE PUSH1 0x20 PUSH0 KECCAK256 SWAP1 JUMPDEST DUP2 SLOAD DUP2 MSTORE SWAP1 PUSH1 0x1 ADD SWAP1 PUSH1 0x20 ADD DUP1 DUP4 GT PUSH2 0x622 JUMPI DUP3 SWAP1 SUB PUSH1 0x1F AND DUP3 ADD SWAP2 JUMPDEST POP POP POP POP POP DUP2 MSTORE PUSH1 0x20 ADD PUSH1 0x3 DUP3 ADD SLOAD DUP2 MSTORE PUSH1 0x20 ADD PUSH1 0x4 DUP3 ADD SLOAD DUP2 MSTORE PUSH1 0x20 ADD PUSH1 0x5 DUP3 ADD PUSH0 SWAP1 SLOAD SWAP1 PUSH2 0x100 EXP SWAP1 DIV PUSH1 0xFF AND ISZERO ISZERO ISZERO ISZERO DUP2 MSTORE POP POP DUP4 DUP4 DUP2 MLOAD DUP2 LT PUSH2 0x689 JUMPI PUSH2 0x688 PUSH2 0x1992 JUMP JUMPDEST JUMPDEST PUSH1 0x20 MUL PUSH1 0x20 ADD ADD DUP2 SWAP1 MSTORE POP DUP2 DUP1 PUSH2 0x69F SWAP1 PUSH2 0x18EE JUMP JUMPDEST SWAP3 POP POP JUMPDEST DUP1 DUP1 PUSH2 0x6AE SWAP1 PUSH2 0x18EE JUMP JUMPDEST SWAP2 POP POP PUSH2 0x4E2 JUMP JUMPDEST POP DUP2 SWAP3 POP POP POP SWAP1 JUMP JUMPDEST PUSH1 0x2 SLOAD DUP2 JUMP JUMPDEST PUSH0 PUSH1 0x3 PUSH0 SWAP1 SLOAD SWAP1 PUSH2 0x100 EXP SWAP1 DIV PUSH20 0xFFFFFFFFFFFFFFFFFFFFFFFFFFFFFFFFFFFFFFFF AND PUSH20 0xFFFFFFFFFFFFFFFFFFFFFFFFFFFFFFFFFFFFFFFF AND BALANCE SWAP1 POP SWAP1 JUMP JUMPDEST PUSH0 PUSH1 0x20 MSTORE DUP1 PUSH0 MSTORE PUSH1 0x40 PUSH0 KECCAK256 PUSH0 SWAP2 POP SWAP1 POP DUP1 PUSH0 ADD SLOAD SWAP1 DUP1 PUSH1 0x1 ADD DUP1 SLOAD PUSH2 0x728 SWAP1 PUSH2 0x1962 JUMP JUMPDEST DUP1 PUSH1 0x1F ADD PUSH1 0x20 DUP1 SWAP2 DIV MUL PUSH1 0x20 ADD PUSH1 0x40 MLOAD SWAP1 DUP2 ADD PUSH1 0x40 MSTORE DUP1 SWAP3 SWAP2 SWAP1 DUP2 DUP2 MSTORE PUSH1 0x20 ADD DUP3 DUP1 SLOAD PUSH2 0x754 SWAP1 PUSH2 0x1962 JUMP JUMPDEST DUP1 ISZERO PUSH2 0x79F JUMPI DUP1 PUSH1 0x1F LT PUSH2 0x776 JUMPI PUSH2 0x100 DUP1 DUP4 SLOAD DIV MUL DUP4 MSTORE SWAP2 PUSH1 0x20 ADD SWAP2 PUSH2 0x79F JUMP JUMPDEST DUP3 ADD SWAP2 SWAP1 PUSH0 MSTORE PUSH1 0x20 PUSH0 KECCAK256 SWAP1 JUMPDEST DUP2 SLOAD DUP2 MSTORE SWAP1 PUSH1 0x1 ADD SWAP1 PUSH1 0x20 ADD DUP1 DUP4 GT PUSH2 0x782 JUMPI DUP3 SWAP1 SUB PUSH1 0x1F AND DUP3 ADD SWAP2 JUMPDEST POP POP POP POP POP SWAP1 DUP1 PUSH1 0x2 ADD DUP1 SLOAD PUSH2 0x7B4 SWAP1 PUSH2 0x1962 JUMP JUMPDEST DUP1 PUSH1 0x1F ADD PUSH1 0x20 DUP1 SWAP2 DIV MUL PUSH1 0x20 ADD PUSH1 0x40 MLOAD SWAP1 DUP2 ADD PUSH1 0x40 MSTORE DUP1 SWAP3 SWAP2 SWAP1 DUP2 DUP2 MSTORE PUSH1 0x20 ADD DUP3 DUP1 SLOAD PUSH2 0x7E0 SWAP1 PUSH2 0x1962 JUMP JUMPDEST DUP1 ISZERO PUSH2 0x82B JUMPI DUP1 PUSH1 0x1F LT PUSH2 0x802 JUMPI PUSH2 0x100 DUP1 DUP4 SLOAD DIV MUL DUP4 MSTORE SWAP2 PUSH1 0x20 ADD SWAP2 PUSH2 0x82B JUMP JUMPDEST DUP3 ADD SWAP2 SWAP1 PUSH0 MSTORE PUSH1 0x20 PUSH0 KECCAK256 SWAP1 JUMPDEST DUP2 SLOAD DUP2 MSTORE SWAP1 PUSH1 0x1 ADD SWAP1 PUSH1 0x20 ADD DUP1 DUP4 GT PUSH2 0x80E JUMPI DUP3 SWAP1 SUB PUSH1 0x1F AND DUP3 ADD SWAP2 JUMPDEST POP POP POP POP POP SWAP1 DUP1 PUSH1 0x3 ADD SLOAD SWAP1 DUP1 PUSH1 0x4 ADD SLOAD SWAP1 DUP1 PUSH1 0x5 ADD PUSH0 SWAP1 SLOAD SWAP1 PUSH2 0x100 EXP SWAP1 DIV PUSH1 0xFF AND SWAP1 POP DUP7 JUMP JUMPDEST PUSH0 PUSH1 0x60 DUP1 PUSH0 DUP1 PUSH0 DUP1 DUP8 GT DUP1 ISZERO PUSH2 0x86B JUMPI POP PUSH1 0x1 SLOAD DUP8 GT ISZERO JUMPDEST PUSH2 0x8AA JUMPI PUSH1 0x40 MLOAD PUSH32 0x8C379A000000000000000000000000000000000000000000000000000000000 DUP2 MSTORE PUSH1 0x4 ADD PUSH2 0x8A1 SWAP1 PUSH2 0x1744 JUMP JUMPDEST PUSH1 0x40 MLOAD DUP1 SWAP2 SUB SWAP1 REVERT JUMPDEST PUSH0 DUP1 PUSH0 DUP10 DUP2 MSTORE PUSH1 0x20 ADD SWAP1 DUP2 MSTORE PUSH1 0x20 ADD PUSH0 KECCAK256 PUSH1 0x40 MLOAD DUP1 PUSH1 0xC0 ADD PUSH1 0x40 MSTORE SWAP1 DUP2 PUSH0 DUP3 ADD SLOAD DUP2 MSTORE PUSH1 0x20 ADD PUSH1 0x1 DUP3 ADD DUP1 SLOAD PUSH2 0x8DF SWAP1 PUSH2 0x1962 JUMP JUMPDEST DUP1 PUSH1 0x1F ADD PUSH1 0x20 DUP1 SWAP2 DIV MUL PUSH1 0x20 ADD PUSH1 0x40 MLOAD SWAP1 DUP2 ADD PUSH1 0x40 MSTORE DUP1 SWAP3 SWAP2 SWAP1 DUP2 DUP2 MSTORE PUSH1 0x20 ADD DUP3 DUP1 SLOAD PUSH2 0x90B SWAP1 PUSH2 0x1962 JUMP JUMPDEST DUP1 ISZERO PUSH2 0x956 JUMPI DUP1 PUSH1 0x1F LT PUSH2 0x92D JUMPI PUSH2 0x100 DUP1 DUP4 SLOAD DIV MUL DUP4 MSTORE SWAP2 PUSH1 0x20 ADD SWAP2 PUSH2 0x956 JUMP JUMPDEST DUP3 ADD SWAP2 SWAP1 PUSH0 MSTORE PUSH1 0x20 PUSH0 KECCAK256 SWAP1 JUMPDEST DUP2 SLOAD DUP2 MSTORE SWAP1 PUSH1 0x1 ADD SWAP1 PUSH1 0x20 ADD DUP1 DUP4 GT PUSH2 0x939 JUMPI DUP3 SWAP1 SUB PUSH1 0x1F AND DUP3 ADD SWAP2 JUMPDEST POP POP POP POP POP DUP2 MSTORE PUSH1 0x20 ADD PUSH1 0x2 DUP3 ADD DUP1 SLOAD PUSH2 0x96F SWAP1 PUSH2 0x1962 JUMP JUMPDEST DUP1 PUSH1 0x1F ADD PUSH1 0x20 DUP1 SWAP2 DIV MUL PUSH1 0x20 ADD PUSH1 0x40 MLOAD SWAP1 DUP2 ADD PUSH1 0x40 MSTORE DUP1 SWAP3 SWAP2 SWAP1 DUP2 DUP2 MSTORE PUSH1 0x20 ADD DUP3 DUP1 SLOAD PUSH2 0x99B SWAP1 PUSH2 0x1962 JUMP JUMPDEST DUP1 ISZERO PUSH2 0x9E6 JUMPI DUP1 PUSH1 0x1F LT PUSH2 0x9BD JUMPI PUSH2 0x100 DUP1 DUP4 SLOAD DIV MUL DUP4 MSTORE SWAP2 PUSH1 0x20 ADD SWAP2 PUSH2 0x9E6 JUMP JUMPDEST DUP3 ADD SWAP2 SWAP1 PUSH0 MSTORE PUSH1 0x20 PUSH0 KECCAK256 SWAP1 JUMPDEST DUP2 SLOAD DUP2 MSTORE SWAP1 PUSH1 0x1 ADD SWAP1 PUSH1 0x20 ADD DUP1 DUP4 GT PUSH2 0x9C9 JUMPI DUP3 SWAP1 SUB PUSH1 0x1F AND DUP3 ADD SWAP2 JUMPDEST POP POP POP POP POP DUP2 MSTORE PUSH1 0x20 ADD PUSH1 0x3 DUP3 ADD SLOAD DUP2 MSTORE PUSH1 0x20 ADD PUSH1 0x4 DUP3 ADD SLOAD DUP2 MSTORE PUSH1 0x20 ADD PUSH1 0x5 DUP3 ADD PUSH0 SWAP1 SLOAD SWAP1 PUSH2 0x100 EXP SWAP1 DIV PUSH1 0xFF AND ISZERO ISZERO ISZERO ISZERO DUP2 MSTORE POP POP SWAP1 POP DUP1 PUSH0 ADD MLOAD DUP2 PUSH1 0x20 ADD MLOAD DUP3 PUSH1 0x40 ADD MLOAD DUP4 PUSH1 0x60 ADD MLOAD DUP5 PUSH1 0x80 ADD MLOAD DUP6 PUSH1 0xA0 ADD MLOAD SWAP7 POP SWAP7 POP SWAP7 POP SWAP7 POP SWAP7 POP SWAP7 POP POP SWAP2 SWAP4 SWAP6 POP SWAP2 SWAP4 SWAP6 JUMP JUMPDEST PUSH1 0x3 PUSH0 SWAP1 SLOAD SWAP1 PUSH2 0x100 EXP SWAP1 DIV PUSH20 0xFFFFFFFFFFFFFFFFFFFFFFFFFFFFFFFFFFFFFFFF AND DUP2 JUMP JUMPDEST PUSH1 0x3 PUSH0 SWAP1 SLOAD SWAP1 PUSH2 0x100 EXP SWAP1 DIV PUSH20 0xFFFFFFFFFFFFFFFFFFFFFFFFFFFFFFFFFFFFFFFF AND PUSH20 0xFFFFFFFFFFFFFFFFFFFFFFFFFFFFFFFFFFFFFFFF AND CALLER PUSH20 0xFFFFFFFFFFFFFFFFFFFFFFFFFFFFFFFFFFFFFFFF AND EQ PUSH2 0xB06 JUMPI PUSH1 0x40 MLOAD PUSH32 0x8C379A000000000000000000000000000000000000000000000000000000000 DUP2 MSTORE PUSH1 0x4 ADD PUSH2 0xAFD SWAP1 PUSH2 0x1A2F JUMP JUMPDEST PUSH1 0x40 MLOAD DUP1 SWAP2 SUB SWAP1 REVERT JUMPDEST PUSH0 PUSH1 0x1 SWAP1 POP JUMPDEST PUSH1 0x1 SLOAD DUP2 GT PUSH2 0xB78 JUMPI PUSH0 DUP1 DUP3 DUP2 MSTORE PUSH1 0x20 ADD SWAP1 DUP2 MSTORE PUSH1 0x20 ADD PUSH0 KECCAK256 PUSH1 0x5 ADD PUSH0 SWAP1 SLOAD SWAP1 PUSH2 0x100 EXP SWAP1 DIV PUSH1 0xFF AND ISZERO PUSH2 0xB65 JUMPI PUSH0 DUP1 PUSH0 DUP4 DUP2 MSTORE PUSH1 0x20 ADD SWAP1 DUP2 MSTORE PUSH1 0x20 ADD PUSH0 KECCAK256 PUSH1 0x5 ADD PUSH0 PUSH2 0x100 EXP DUP2 SLOAD DUP2 PUSH1 0xFF MUL NOT AND SWAP1 DUP4 ISZERO ISZERO MUL OR SWAP1 SSTORE POP JUMPDEST DUP1 DUP1 PUSH2 0xB70 SWAP1 PUSH2 0x18EE JUMP JUMPDEST SWAP2 POP POP PUSH2 0xB0C JUMP JUMPDEST POP JUMP JUMPDEST PUSH1 0x3 PUSH0 SWAP1 SLOAD SWAP1 PUSH2 0x100 EXP SWAP1 DIV PUSH20 0xFFFFFFFFFFFFFFFFFFFFFFFFFFFFFFFFFFFFFFFF AND PUSH20 0xFFFFFFFFFFFFFFFFFFFFFFFFFFFFFFFFFFFFFFFF AND CALLER PUSH20 0xFFFFFFFFFFFFFFFFFFFFFFFFFFFFFFFFFFFFFFFF AND EQ PUSH2 0xC0A JUMPI PUSH1 0x40 MLOAD PUSH32 0x8C379A000000000000000000000000000000000000000000000000000000000 DUP2 MSTORE PUSH1 0x4 ADD PUSH2 0xC01 SWAP1 PUSH2 0x1A2F JUMP JUMPDEST PUSH1 0x40 MLOAD DUP1 SWAP2 SUB SWAP1 REVERT JUMPDEST PUSH0 DUP3 GT DUP1 ISZERO PUSH2 0xC1B JUMPI POP PUSH1 0x1 SLOAD DUP3 GT ISZERO JUMPDEST PUSH2 0xC5A JUMPI PUSH1 0x40 MLOAD PUSH32 0x8C379A000000000000000000000000000000000000000000000000000000000 DUP2 MSTORE PUSH1 0x4 ADD PUSH2 0xC51 SWAP1 PUSH2 0x1744 JUMP JUMPDEST PUSH1 0x40 MLOAD DUP1 SWAP2 SUB SWAP1 REVERT JUMPDEST PUSH0 DUP2 GT PUSH2 0xC9C JUMPI PUSH1 0x40 MLOAD PUSH32 0x8C379A000000000000000000000000000000000000000000000000000000000 DUP2 MSTORE PUSH1 0x4 ADD PUSH2 0xC93 SWAP1 PUSH2 0x1ABD JUMP JUMPDEST PUSH1 0x40 MLOAD DUP1 SWAP2 SUB SWAP1 REVERT JUMPDEST PUSH0 DUP1 DUP4 DUP2 MSTORE PUSH1 0x20 ADD SWAP1 DUP2 MSTORE PUSH1 0x20 ADD PUSH0 KECCAK256 PUSH1 0x5 ADD PUSH0 SWAP1 SLOAD SWAP1 PUSH2 0x100 EXP SWAP1 DIV PUSH1 0xFF AND PUSH2 0xCFB JUMPI PUSH1 0x40 MLOAD PUSH32 0x8C379A000000000000000000000000000000000000000000000000000000000 DUP2 MSTORE PUSH1 0x4 ADD PUSH2 0xCF2 SWAP1 PUSH2 0x17AC JUMP JUMPDEST PUSH1 0x40 MLOAD DUP1 SWAP2 SUB SWAP1 REVERT JUMPDEST DUP1 PUSH0 DUP1 DUP5 DUP2 MSTORE PUSH1 0x20 ADD SWAP1 DUP2 MSTORE PUSH1 0x20 ADD PUSH0 KECCAK256 PUSH1 0x4 ADD DUP2 SWAP1 SSTORE POP POP POP JUMP JUMPDEST PUSH1 0x1 SLOAD DUP2 JUMP JUMPDEST PUSH1 0x3 PUSH0 SWAP1 SLOAD SWAP1 PUSH2 0x100 EXP SWAP1 DIV PUSH20 0xFFFFFFFFFFFFFFFFFFFFFFFFFFFFFFFFFFFFFFFF AND PUSH20 0xFFFFFFFFFFFFFFFFFFFFFFFFFFFFFFFFFFFFFFFF AND CALLER PUSH20 0xFFFFFFFFFFFFFFFFFFFFFFFFFFFFFFFFFFFFFFFF AND EQ PUSH2 0xDAC JUMPI PUSH1 0x40 MLOAD PUSH32 0x8C379A000000000000000000000000000000000000000000000000000000000 DUP2 MSTORE PUSH1 0x4 ADD PUSH2 0xDA3 SWAP1 PUSH2 0x1A2F JUMP JUMPDEST PUSH1 0x40 MLOAD DUP1 SWAP2 SUB SWAP1 REVERT JUMPDEST PUSH0 DUP2 GT DUP1 ISZERO PUSH2 0xDBD JUMPI POP PUSH1 0x1 SLOAD DUP2 GT ISZERO JUMPDEST PUSH2 0xDFC JUMPI PUSH1 0x40 MLOAD PUSH32 0x8C379A000000000000000000000000000000000000000000000000000000000 DUP2 MSTORE PUSH1 0x4 ADD PUSH2 0xDF3 SWAP1 PUSH2 0x1744 JUMP JUMPDEST PUSH1 0x40 MLOAD DUP1 SWAP2 SUB SWAP1 REVERT JUMPDEST PUSH0 DUP1 DUP3 DUP2 MSTORE PUSH1 0x20 ADD SWAP1 DUP2 MSTORE PUSH1 0x20 ADD PUSH0 KECCAK256 PUSH1 0x5 ADD PUSH0 SWAP1 SLOAD SWAP1 PUSH2 0x100 EXP SWAP1 DIV PUSH1 0xFF AND PUSH2 0xE5B JUMPI PUSH1 0x40 MLOAD PUSH32 0x8C379A000000000000000000000000000000000000000000000000000000000 DUP2 MSTORE PUSH1 0x4 ADD PUSH2 0xE52 SWAP1 PUSH2 0x1B25 JUMP JUMPDEST PUSH1 0x40 MLOAD DUP1 SWAP2 SUB SWAP1 REVERT JUMPDEST PUSH0 DUP1 PUSH0 DUP4 DUP2 MSTORE PUSH1 0x20 ADD SWAP1 DUP2 MSTORE PUSH1 0x20 ADD PUSH0 KECCAK256 PUSH1 0x5 ADD PUSH0 PUSH2 0x100 EXP DUP2 SLOAD DUP2 PUSH1 0xFF MUL NOT AND SWAP1 DUP4 ISZERO ISZERO MUL OR SWAP1 SSTORE POP POP JUMP JUMPDEST PUSH1 0x3 PUSH0 SWAP1 SLOAD SWAP1 PUSH2 0x100 EXP SWAP1 DIV PUSH20 0xFFFFFFFFFFFFFFFFFFFFFFFFFFFFFFFFFFFFFFFF AND PUSH20 0xFFFFFFFFFFFFFFFFFFFFFFFFFFFFFFFFFFFFFFFF AND CALLER PUSH20 0xFFFFFFFFFFFFFFFFFFFFFFFFFFFFFFFFFFFFFFFF AND EQ PUSH2 0xF17 JUMPI PUSH1 0x40 MLOAD PUSH32 0x8C379A000000000000000000000000000000000000000000000000000000000 DUP2 MSTORE PUSH1 0x4 ADD PUSH2 0xF0E SWAP1 PUSH2 0x1A2F JUMP JUMPDEST PUSH1 0x40 MLOAD DUP1 SWAP2 SUB SWAP1 REVERT JUMPDEST PUSH0 DUP6 GT PUSH2 0xF59 JUMPI PUSH1 0x40 MLOAD PUSH32 0x8C379A000000000000000000000000000000000000000000000000000000000 DUP2 MSTORE PUSH1 0x4 ADD PUSH2 0xF50 SWAP1 PUSH2 0x1BB3 JUMP JUMPDEST PUSH1 0x40 MLOAD DUP1 SWAP2 SUB SWAP1 REVERT JUMPDEST PUSH0 DUP3 GT PUSH2 0xF9B JUMPI PUSH1 0x40 MLOAD PUSH32 0x8C379A000000000000000000000000000000000000000000000000000000000 DUP2 MSTORE PUSH1 0x4 ADD PUSH2 0xF92 SWAP1 PUSH2 0x1C41 JUMP JUMPDEST PUSH1 0x40 MLOAD DUP1 SWAP2 SUB SWAP1 REVERT JUMPDEST PUSH0 DUP2 GT PUSH2 0xFDD JUMPI PUSH1 0x40 MLOAD PUSH32 0x8C379A000000000000000000000000000000000000000000000000000000000 DUP2 MSTORE PUSH1 0x4 ADD PUSH2 0xFD4 SWAP1 PUSH2 0x1ABD JUMP JUMPDEST PUSH1 0x40 MLOAD DUP1 SWAP2 SUB SWAP1 REVERT JUMPDEST PUSH0 DUP1 PUSH0 DUP8 DUP2 MSTORE PUSH1 0x20 ADD SWAP1 DUP2 MSTORE PUSH1 0x20 ADD PUSH0 KECCAK256 PUSH0 ADD SLOAD EQ PUSH2 0x1031 JUMPI PUSH1 0x40 MLOAD PUSH32 0x8C379A000000000000000000000000000000000000000000000000000000000 DUP2 MSTORE PUSH1 0x4 ADD PUSH2 0x1028 SWAP1 PUSH2 0x1CA9 JUMP JUMPDEST PUSH1 0x40 MLOAD DUP1 SWAP2 SUB SWAP1 REVERT JUMPDEST PUSH1 0x40 MLOAD DUP1 PUSH1 0xC0 ADD PUSH1 0x40 MSTORE DUP1 DUP7 DUP2 MSTORE PUSH1 0x20 ADD DUP6 DUP2 MSTORE PUSH1 0x20 ADD DUP5 DUP2 MSTORE PUSH1 0x20 ADD DUP4 DUP2 MSTORE PUSH1 0x20 ADD DUP3 DUP2 MSTORE PUSH1 0x20 ADD PUSH1 0x1 ISZERO ISZERO DUP2 MSTORE POP PUSH0 DUP1 DUP8 DUP2 MSTORE PUSH1 0x20 ADD SWAP1 DUP2 MSTORE PUSH1 0x20 ADD PUSH0 KECCAK256 PUSH0 DUP3 ADD MLOAD DUP2 PUSH0 ADD SSTORE PUSH1 0x20 DUP3 ADD MLOAD DUP2 PUSH1 0x1 ADD SWAP1 DUP2 PUSH2 0x108E SWAP2 SWAP1 PUSH2 0x1E64 JUMP JUMPDEST POP PUSH1 0x40 DUP3 ADD MLOAD DUP2 PUSH1 0x2 ADD SWAP1 DUP2 PUSH2 0x10A4 SWAP2 SWAP1 PUSH2 0x1E64 JUMP JUMPDEST POP PUSH1 0x60 DUP3 ADD MLOAD DUP2 PUSH1 0x3 ADD SSTORE PUSH1 0x80 DUP3 ADD MLOAD DUP2 PUSH1 0x4 ADD SSTORE PUSH1 0xA0 DUP3 ADD MLOAD DUP2 PUSH1 0x5 ADD PUSH0 PUSH2 0x100 EXP DUP2 SLOAD DUP2 PUSH1 0xFF MUL NOT AND SWAP1 DUP4 ISZERO ISZERO MUL OR SWAP1 SSTORE POP SWAP1 POP POP PUSH1 0x1 PUSH0 DUP2 SLOAD DUP1 SWAP3 SWAP2 SWAP1 PUSH2 0x10ED SWAP1 PUSH2 0x18EE JUMP JUMPDEST SWAP2 SWAP1 POP SSTORE POP POP POP POP POP POP JUMP JUMPDEST PUSH1 0x40 MLOAD DUP1 PUSH1 0xC0 ADD PUSH1 0x40 MSTORE DUP1 PUSH0 DUP2 MSTORE PUSH1 0x20 ADD PUSH1 0x60 DUP2 MSTORE PUSH1 0x20 ADD PUSH1 0x60 DUP2 MSTORE PUSH1 0x20 ADD PUSH0 DUP2 MSTORE PUSH1 0x20 ADD PUSH0 DUP2 MSTORE PUSH1 0x20 ADD PUSH0 ISZERO ISZERO DUP2 MSTORE POP SWAP1 JUMP JUMPDEST PUSH0 PUSH1 0x40 MLOAD SWAP1 POP SWAP1 JUMP JUMPDEST PUSH0 DUP1 REVERT JUMPDEST PUSH0 DUP1 REVERT JUMPDEST PUSH0 DUP2 SWAP1 POP SWAP2 SWAP1 POP JUMP JUMPDEST PUSH2 0x1150 DUP2 PUSH2 0x113E JUMP JUMPDEST DUP2 EQ PUSH2 0x115A JUMPI PUSH0 DUP1 REVERT JUMPDEST POP JUMP JUMPDEST PUSH0 DUP2 CALLDATALOAD SWAP1 POP PUSH2 0x116B DUP2 PUSH2 0x1147 JUMP JUMPDEST SWAP3 SWAP2 POP POP JUMP JUMPDEST PUSH0 PUSH1 0x20 DUP3 DUP5 SUB SLT ISZERO PUSH2 0x1186 JUMPI PUSH2 0x1185 PUSH2 0x1136 JUMP JUMPDEST JUMPDEST PUSH0 PUSH2 0x1193 DUP5 DUP3 DUP6 ADD PUSH2 0x115D JUMP JUMPDEST SWAP2 POP POP SWAP3 SWAP2 POP POP JUMP JUMPDEST PUSH0 DUP2 MLOAD SWAP1 POP SWAP2 SWAP1 POP JUMP JUMPDEST PUSH0 DUP3 DUP3 MSTORE PUSH1 0x20 DUP3 ADD SWAP1 POP SWAP3 SWAP2 POP POP JUMP JUMPDEST PUSH0 DUP2 SWAP1 POP PUSH1 0x20 DUP3 ADD SWAP1 POP SWAP2 SWAP1 POP JUMP JUMPDEST PUSH2 0x11CE DUP2 PUSH2 0x113E JUMP JUMPDEST DUP3 MSTORE POP POP JUMP JUMPDEST PUSH0 DUP2 MLOAD SWAP1 POP SWAP2 SWAP1 POP JUMP JUMPDEST PUSH0 DUP3 DUP3 MSTORE PUSH1 0x20 DUP3 ADD SWAP1 POP SWAP3 SWAP2 POP POP JUMP JUMPDEST DUP3 DUP2 DUP4 MCOPY PUSH0 DUP4 DUP4 ADD MSTORE POP POP POP JUMP JUMPDEST PUSH0 PUSH1 0x1F NOT PUSH1 0x1F DUP4 ADD AND SWAP1 POP SWAP2 SWAP1 POP JUMP JUMPDEST PUSH0 PUSH2 0x1216 DUP3 PUSH2 0x11D4 JUMP JUMPDEST PUSH2 0x1220 DUP2 DUP6 PUSH2 0x11DE JUMP JUMPDEST SWAP4 POP PUSH2 0x1230 DUP2 DUP6 PUSH1 0x20 DUP7 ADD PUSH2 0x11EE JUMP JUMPDEST PUSH2 0x1239 DUP2 PUSH2 0x11FC JUMP JUMPDEST DUP5 ADD SWAP2 POP POP SWAP3 SWAP2 POP POP JUMP JUMPDEST PUSH0 DUP2 ISZERO ISZERO SWAP1 POP SWAP2 SWAP1 POP JUMP JUMPDEST PUSH2 0x1258 DUP2 PUSH2 0x1244 JUMP JUMPDEST DUP3 MSTORE POP POP JUMP JUMPDEST PUSH0 PUSH1 0xC0 DUP4 ADD PUSH0 DUP4 ADD MLOAD PUSH2 0x1273 PUSH0 DUP7 ADD DUP3 PUSH2 0x11C5 JUMP JUMPDEST POP PUSH1 0x20 DUP4 ADD MLOAD DUP5 DUP3 SUB PUSH1 0x20 DUP7 ADD MSTORE PUSH2 0x128B DUP3 DUP3 PUSH2 0x120C JUMP JUMPDEST SWAP2 POP POP PUSH1 0x40 DUP4 ADD MLOAD DUP5 DUP3 SUB PUSH1 0x40 DUP7 ADD MSTORE PUSH2 0x12A5 DUP3 DUP3 PUSH2 0x120C JUMP JUMPDEST SWAP2 POP POP PUSH1 0x60 DUP4 ADD MLOAD PUSH2 0x12BA PUSH1 0x60 DUP7 ADD DUP3 PUSH2 0x11C5 JUMP JUMPDEST POP PUSH1 0x80 DUP4 ADD MLOAD PUSH2 0x12CD PUSH1 0x80 DUP7 ADD DUP3 PUSH2 0x11C5 JUMP JUMPDEST POP PUSH1 0xA0 DUP4 ADD MLOAD PUSH2 0x12E0 PUSH1 0xA0 DUP7 ADD DUP3 PUSH2 0x124F JUMP JUMPDEST POP DUP1 SWAP2 POP POP SWAP3 SWAP2 POP POP JUMP JUMPDEST PUSH0 PUSH2 0x12F6 DUP4 DUP4 PUSH2 0x125E JUMP JUMPDEST SWAP1 POP SWAP3 SWAP2 POP POP JUMP JUMPDEST PUSH0 PUSH1 0x20 DUP3 ADD SWAP1 POP SWAP2 SWAP1 POP JUMP JUMPDEST PUSH0 PUSH2 0x1314 DUP3 PUSH2 0x119C JUMP JUMPDEST PUSH2 0x131E DUP2 DUP6 PUSH2 0x11A6 JUMP JUMPDEST SWAP4 POP DUP4 PUSH1 0x20 DUP3 MUL DUP6 ADD PUSH2 0x1330 DUP6 PUSH2 0x11B6 JUMP JUMPDEST DUP1 PUSH0 JUMPDEST DUP6 DUP2 LT ISZERO PUSH2 0x136B JUMPI DUP5 DUP5 SUB DUP10 MSTORE DUP2 MLOAD PUSH2 0x134C DUP6 DUP3 PUSH2 0x12EB JUMP JUMPDEST SWAP5 POP PUSH2 0x1357 DUP4 PUSH2 0x12FE JUMP JUMPDEST SWAP3 POP PUSH1 0x20 DUP11 ADD SWAP10 POP POP PUSH1 0x1 DUP2 ADD SWAP1 POP PUSH2 0x1333 JUMP JUMPDEST POP DUP3 SWAP8 POP DUP8 SWAP6 POP POP POP POP POP POP SWAP3 SWAP2 POP POP JUMP JUMPDEST PUSH0 PUSH1 0x20 DUP3 ADD SWAP1 POP DUP2 DUP2 SUB PUSH0 DUP4 ADD MSTORE PUSH2 0x1395 DUP2 DUP5 PUSH2 0x130A JUMP JUMPDEST SWAP1 POP SWAP3 SWAP2 POP POP JUMP JUMPDEST PUSH2 0x13A6 DUP2 PUSH2 0x113E JUMP JUMPDEST DUP3 MSTORE POP POP JUMP JUMPDEST PUSH0 PUSH1 0x20 DUP3 ADD SWAP1 POP PUSH2 0x13BF PUSH0 DUP4 ADD DUP5 PUSH2 0x139D JUMP JUMPDEST SWAP3 SWAP2 POP POP JUMP JUMPDEST PUSH0 DUP3 DUP3 MSTORE PUSH1 0x20 DUP3 ADD SWAP1 POP SWAP3 SWAP2 POP POP JUMP JUMPDEST PUSH0 PUSH2 0x13DF DUP3 PUSH2 0x11D4 JUMP JUMPDEST PUSH2 0x13E9 DUP2 DUP6 PUSH2 0x13C5 JUMP JUMPDEST SWAP4 POP PUSH2 0x13F9 DUP2 DUP6 PUSH1 0x20 DUP7 ADD PUSH2 0x11EE JUMP JUMPDEST PUSH2 0x1402 DUP2 PUSH2 0x11FC JUMP JUMPDEST DUP5 ADD SWAP2 POP POP SWAP3 SWAP2 POP POP JUMP JUMPDEST PUSH2 0x1416 DUP2 PUSH2 0x1244 JUMP JUMPDEST DUP3 MSTORE POP POP JUMP JUMPDEST PUSH0 PUSH1 0xC0 DUP3 ADD SWAP1 POP PUSH2 0x142F PUSH0 DUP4 ADD DUP10 PUSH2 0x139D JUMP JUMPDEST DUP2 DUP2 SUB PUSH1 0x20 DUP4 ADD MSTORE PUSH2 0x1441 DUP2 DUP9 PUSH2 0x13D5 JUMP JUMPDEST SWAP1 POP DUP2 DUP2 SUB PUSH1 0x40 DUP4 ADD MSTORE PUSH2 0x1455 DUP2 DUP8 PUSH2 0x13D5 JUMP JUMPDEST SWAP1 POP PUSH2 0x1464 PUSH1 0x60 DUP4 ADD DUP7 PUSH2 0x139D JUMP JUMPDEST PUSH2 0x1471 PUSH1 0x80 DUP4 ADD DUP6 PUSH2 0x139D JUMP JUMPDEST PUSH2 0x147E PUSH1 0xA0 DUP4 ADD DUP5 PUSH2 0x140D JUMP JUMPDEST SWAP8 SWAP7 POP POP POP POP POP POP POP JUMP JUMPDEST PUSH0 PUSH20 0xFFFFFFFFFFFFFFFFFFFFFFFFFFFFFFFFFFFFFFFF DUP3 AND SWAP1 POP SWAP2 SWAP1 POP JUMP JUMPDEST PUSH0 PUSH2 0x14B2 DUP3 PUSH2 0x1489 JUMP JUMPDEST SWAP1 POP SWAP2 SWAP1 POP JUMP JUMPDEST PUSH2 0x14C2 DUP2 PUSH2 0x14A8 JUMP JUMPDEST DUP3 MSTORE POP POP JUMP JUMPDEST PUSH0 PUSH1 0x20 DUP3 ADD SWAP1 POP PUSH2 0x14DB PUSH0 DUP4 ADD DUP5 PUSH2 0x14B9 JUMP JUMPDEST SWAP3 SWAP2 POP POP JUMP JUMPDEST PUSH0 DUP1 PUSH1 0x40 DUP4 DUP6 SUB SLT ISZERO PUSH2 0x14F7 JUMPI PUSH2 0x14F6 PUSH2 0x1136 JUMP JUMPDEST JUMPDEST PUSH0 PUSH2 0x1504 DUP6 DUP3 DUP7 ADD PUSH2 0x115D JUMP JUMPDEST SWAP3 POP POP PUSH1 0x20 PUSH2 0x1515 DUP6 DUP3 DUP7 ADD PUSH2 0x115D JUMP JUMPDEST SWAP2 POP POP SWAP3 POP SWAP3 SWAP1 POP JUMP JUMPDEST PUSH0 DUP1 REVERT JUMPDEST PUSH0 DUP1 REVERT JUMPDEST PUSH32 0x4E487B7100000000000000000000000000000000000000000000000000000000 PUSH0 MSTORE PUSH1 0x41 PUSH1 0x4 MSTORE PUSH1 0x24 PUSH0 REVERT JUMPDEST PUSH2 0x155D DUP3 PUSH2 0x11FC JUMP JUMPDEST DUP2 ADD DUP2 DUP2 LT PUSH8 0xFFFFFFFFFFFFFFFF DUP3 GT OR ISZERO PUSH2 0x157C JUMPI PUSH2 0x157B PUSH2 0x1527 JUMP JUMPDEST JUMPDEST DUP1 PUSH1 0x40 MSTORE POP POP POP JUMP JUMPDEST PUSH0 PUSH2 0x158E PUSH2 0x112D JUMP JUMPDEST SWAP1 POP PUSH2 0x159A DUP3 DUP3 PUSH2 0x1554 JUMP JUMPDEST SWAP2 SWAP1 POP JUMP JUMPDEST PUSH0 PUSH8 0xFFFFFFFFFFFFFFFF DUP3 GT ISZERO PUSH2 0x15B9 JUMPI PUSH2 0x15B8 PUSH2 0x1527 JUMP JUMPDEST JUMPDEST PUSH2 0x15C2 DUP3 PUSH2 0x11FC JUMP JUMPDEST SWAP1 POP PUSH1 0x20 DUP2 ADD SWAP1 POP SWAP2 SWAP1 POP JUMP JUMPDEST DUP3 DUP2 DUP4 CALLDATACOPY PUSH0 DUP4 DUP4 ADD MSTORE POP POP POP JUMP JUMPDEST PUSH0 PUSH2 0x15EF PUSH2 0x15EA DUP5 PUSH2 0x159F JUMP JUMPDEST PUSH2 0x1585 JUMP JUMPDEST SWAP1 POP DUP3 DUP2 MSTORE PUSH1 0x20 DUP2 ADD DUP5 DUP5 DUP5 ADD GT ISZERO PUSH2 0x160B JUMPI PUSH2 0x160A PUSH2 0x1523 JUMP JUMPDEST JUMPDEST PUSH2 0x1616 DUP5 DUP3 DUP6 PUSH2 0x15CF JUMP JUMPDEST POP SWAP4 SWAP3 POP POP POP JUMP JUMPDEST PUSH0 DUP3 PUSH1 0x1F DUP4 ADD SLT PUSH2 0x1632 JUMPI PUSH2 0x1631 PUSH2 0x151F JUMP JUMPDEST JUMPDEST DUP2 CALLDATALOAD PUSH2 0x1642 DUP5 DUP3 PUSH1 0x20 DUP7 ADD PUSH2 0x15DD JUMP JUMPDEST SWAP2 POP POP SWAP3 SWAP2 POP POP JUMP JUMPDEST PUSH0 DUP1 PUSH0 DUP1 PUSH0 PUSH1 0xA0 DUP7 DUP9 SUB SLT ISZERO PUSH2 0x1664 JUMPI PUSH2 0x1663 PUSH2 0x1136 JUMP JUMPDEST JUMPDEST PUSH0 PUSH2 0x1671 DUP9 DUP3 DUP10 ADD PUSH2 0x115D JUMP JUMPDEST SWAP6 POP POP PUSH1 0x20 DUP7 ADD CALLDATALOAD PUSH8 0xFFFFFFFFFFFFFFFF DUP2 GT ISZERO PUSH2 0x1692 JUMPI PUSH2 0x1691 PUSH2 0x113A JUMP JUMPDEST JUMPDEST PUSH2 0x169E DUP9 DUP3 DUP10 ADD PUSH2 0x161E JUMP JUMPDEST SWAP5 POP POP PUSH1 0x40 DUP7 ADD CALLDATALOAD PUSH8 0xFFFFFFFFFFFFFFFF DUP2 GT ISZERO PUSH2 0x16BF JUMPI PUSH2 0x16BE PUSH2 0x113A JUMP JUMPDEST JUMPDEST PUSH2 0x16CB DUP9 DUP3 DUP10 ADD PUSH2 0x161E JUMP JUMPDEST SWAP4 POP POP PUSH1 0x60 PUSH2 0x16DC DUP9 DUP3 DUP10 ADD PUSH2 0x115D JUMP JUMPDEST SWAP3 POP POP PUSH1 0x80 PUSH2 0x16ED DUP9 DUP3 DUP10 ADD PUSH2 0x115D JUMP JUMPDEST SWAP2 POP POP SWAP3 SWAP6 POP SWAP3 SWAP6 SWAP1 SWAP4 POP JUMP JUMPDEST PUSH32 0x496E76616C696420626F6F6B2049440000000000000000000000000000000000 PUSH0 DUP3 ADD MSTORE POP JUMP JUMPDEST PUSH0 PUSH2 0x172E PUSH1 0xF DUP4 PUSH2 0x13C5 JUMP JUMPDEST SWAP2 POP PUSH2 0x1739 DUP3 PUSH2 0x16FA JUMP JUMPDEST PUSH1 0x20 DUP3 ADD SWAP1 POP SWAP2 SWAP1 POP JUMP JUMPDEST PUSH0 PUSH1 0x20 DUP3 ADD SWAP1 POP DUP2 DUP2 SUB PUSH0 DUP4 ADD MSTORE PUSH2 0x175B DUP2 PUSH2 0x1722 JUMP JUMPDEST SWAP1 POP SWAP2 SWAP1 POP JUMP JUMPDEST PUSH32 0x426F6F6B206973206E6F7420617661696C61626C650000000000000000000000 PUSH0 DUP3 ADD MSTORE POP JUMP JUMPDEST PUSH0 PUSH2 0x1796 PUSH1 0x15 DUP4 PUSH2 0x13C5 JUMP JUMPDEST SWAP2 POP PUSH2 0x17A1 DUP3 PUSH2 0x1762 JUMP JUMPDEST PUSH1 0x20 DUP3 ADD SWAP1 POP SWAP2 SWAP1 POP JUMP JUMPDEST PUSH0 PUSH1 0x20 DUP3 ADD SWAP1 POP DUP2 DUP2 SUB PUSH0 DUP4 ADD MSTORE PUSH2 0x17C3 DUP2 PUSH2 0x178A JUMP JUMPDEST SWAP1 POP SWAP2 SWAP1 POP JUMP JUMPDEST PUSH32 0x426F6F6B206F7574206F662073746F636B000000000000000000000000000000 PUSH0 DUP3 ADD MSTORE POP JUMP JUMPDEST PUSH0 PUSH2 0x17FE PUSH1 0x11 DUP4 PUSH2 0x13C5 JUMP JUMPDEST SWAP2 POP PUSH2 0x1809 DUP3 PUSH2 0x17CA JUMP JUMPDEST PUSH1 0x20 DUP3 ADD SWAP1 POP SWAP2 SWAP1 POP JUMP JUMPDEST PUSH0 PUSH1 0x20 DUP3 ADD SWAP1 POP DUP2 DUP2 SUB PUSH0 DUP4 ADD MSTORE PUSH2 0x182B DUP2 PUSH2 0x17F2 JUMP JUMPDEST SWAP1 POP SWAP2 SWAP1 POP JUMP JUMPDEST PUSH32 0x496E636F7272656374207061796D656E7420616D6F756E740000000000000000 PUSH0 DUP3 ADD MSTORE POP JUMP JUMPDEST PUSH0 PUSH2 0x1866 PUSH1 0x18 DUP4 PUSH2 0x13C5 JUMP JUMPDEST SWAP2 POP PUSH2 0x1871 DUP3 PUSH2 0x1832 JUMP JUMPDEST PUSH1 0x20 DUP3 ADD SWAP1 POP SWAP2 SWAP1 POP JUMP JUMPDEST PUSH0 PUSH1 0x20 DUP3 ADD SWAP1 POP DUP2 DUP2 SUB PUSH0 DUP4 ADD MSTORE PUSH2 0x1893 DUP2 PUSH2 0x185A JUMP JUMPDEST SWAP1 POP SWAP2 SWAP1 POP JUMP JUMPDEST PUSH32 0x4E487B7100000000000000000000000000000000000000000000000000000000 PUSH0 MSTORE PUSH1 0x11 PUSH1 0x4 MSTORE PUSH1 0x24 PUSH0 REVERT JUMPDEST PUSH0 PUSH2 0x18D1 DUP3 PUSH2 0x113E JUMP JUMPDEST SWAP2 POP PUSH0 DUP3 SUB PUSH2 0x18E3 JUMPI PUSH2 0x18E2 PUSH2 0x189A JUMP JUMPDEST JUMPDEST PUSH1 0x1 DUP3 SUB SWAP1 POP SWAP2 SWAP1 POP JUMP JUMPDEST PUSH0 PUSH2 0x18F8 DUP3 PUSH2 0x113E JUMP JUMPDEST SWAP2 POP PUSH32 0xFFFFFFFFFFFFFFFFFFFFFFFFFFFFFFFFFFFFFFFFFFFFFFFFFFFFFFFFFFFFFFFF DUP3 SUB PUSH2 0x192A JUMPI PUSH2 0x1929 PUSH2 0x189A JUMP JUMPDEST JUMPDEST PUSH1 0x1 DUP3 ADD SWAP1 POP SWAP2 SWAP1 POP JUMP JUMPDEST PUSH32 0x4E487B7100000000000000000000000000000000000000000000000000000000 PUSH0 MSTORE PUSH1 0x22 PUSH1 0x4 MSTORE PUSH1 0x24 PUSH0 REVERT JUMPDEST PUSH0 PUSH1 0x2 DUP3 DIV SWAP1 POP PUSH1 0x1 DUP3 AND DUP1 PUSH2 0x1979 JUMPI PUSH1 0x7F DUP3 AND SWAP2 POP JUMPDEST PUSH1 0x20 DUP3 LT DUP2 SUB PUSH2 0x198C JUMPI PUSH2 0x198B PUSH2 0x1935 JUMP JUMPDEST JUMPDEST POP SWAP2 SWAP1 POP JUMP JUMPDEST PUSH32 0x4E487B7100000000000000000000000000000000000000000000000000000000 PUSH0 MSTORE PUSH1 0x32 PUSH1 0x4 MSTORE PUSH1 0x24 PUSH0 REVERT JUMPDEST PUSH32 0x4F6E6C7920746865206F776E65722063616E20706572666F726D207468697320 PUSH0 DUP3 ADD MSTORE PUSH32 0x616374696F6E0000000000000000000000000000000000000000000000000000 PUSH1 0x20 DUP3 ADD MSTORE POP JUMP JUMPDEST PUSH0 PUSH2 0x1A19 PUSH1 0x26 DUP4 PUSH2 0x13C5 JUMP JUMPDEST SWAP2 POP PUSH2 0x1A24 DUP3 PUSH2 0x19BF JUMP JUMPDEST PUSH1 0x40 DUP3 ADD SWAP1 POP SWAP2 SWAP1 POP JUMP JUMPDEST PUSH0 PUSH1 0x20 DUP3 ADD SWAP1 POP DUP2 DUP2 SUB PUSH0 DUP4 ADD MSTORE PUSH2 0x1A46 DUP2 PUSH2 0x1A0D JUMP JUMPDEST SWAP1 POP SWAP2 SWAP1 POP JUMP JUMPDEST PUSH32 0x53746F636B2073686F756C642062652067726561746572207468616E207A6572 PUSH0 DUP3 ADD MSTORE PUSH32 0x6F00000000000000000000000000000000000000000000000000000000000000 PUSH1 0x20 DUP3 ADD MSTORE POP JUMP JUMPDEST PUSH0 PUSH2 0x1AA7 PUSH1 0x21 DUP4 PUSH2 0x13C5 JUMP JUMPDEST SWAP2 POP PUSH2 0x1AB2 DUP3 PUSH2 0x1A4D JUMP JUMPDEST PUSH1 0x40 DUP3 ADD SWAP1 POP SWAP2 SWAP1 POP JUMP JUMPDEST PUSH0 PUSH1 0x20 DUP3 ADD SWAP1 POP DUP2 DUP2 SUB PUSH0 DUP4 ADD MSTORE PUSH2 0x1AD4 DUP2 PUSH2 0x1A9B JUMP JUMPDEST SWAP1 POP SWAP2 SWAP1 POP JUMP JUMPDEST PUSH32 0x426F6F6B20697320616C72656164792072656D6F766564000000000000000000 PUSH0 DUP3 ADD MSTORE POP JUMP JUMPDEST PUSH0 PUSH2 0x1B0F PUSH1 0x17 DUP4 PUSH2 0x13C5 JUMP JUMPDEST SWAP2 POP PUSH2 0x1B1A DUP3 PUSH2 0x1ADB JUMP JUMPDEST PUSH1 0x20 DUP3 ADD SWAP1 POP SWAP2 SWAP1 POP JUMP JUMPDEST PUSH0 PUSH1 0x20 DUP3 ADD SWAP1 POP DUP2 DUP2 SUB PUSH0 DUP4 ADD MSTORE PUSH2 0x1B3C DUP2 PUSH2 0x1B03 JUMP JUMPDEST SWAP1 POP SWAP2 SWAP1 POP JUMP JUMPDEST PUSH32 0x426F6F6B2049442073686F756C642062652067726561746572207468616E207A PUSH0 DUP3 ADD MSTORE PUSH32 0x65726F0000000000000000000000000000000000000000000000000000000000 PUSH1 0x20 DUP3 ADD MSTORE POP JUMP JUMPDEST PUSH0 PUSH2 0x1B9D PUSH1 0x23 DUP4 PUSH2 0x13C5 JUMP JUMPDEST SWAP2 POP PUSH2 0x1BA8 DUP3 PUSH2 0x1B43 JUMP JUMPDEST PUSH1 0x40 DUP3 ADD SWAP1 POP SWAP2 SWAP1 POP JUMP JUMPDEST PUSH0 PUSH1 0x20 DUP3 ADD SWAP1 POP DUP2 DUP2 SUB PUSH0 DUP4 ADD MSTORE PUSH2 0x1BCA DUP2 PUSH2 0x1B91 JUMP JUMPDEST SWAP1 POP SWAP2 SWAP1 POP JUMP JUMPDEST PUSH32 0x50726963652073686F756C642062652067726561746572207468616E207A6572 PUSH0 DUP3 ADD MSTORE PUSH32 0x6F00000000000000000000000000000000000000000000000000000000000000 PUSH1 0x20 DUP3 ADD MSTORE POP JUMP JUMPDEST PUSH0 PUSH2 0x1C2B PUSH1 0x21 DUP4 PUSH2 0x13C5 JUMP JUMPDEST SWAP2 POP PUSH2 0x1C36 DUP3 PUSH2 0x1BD1 JUMP JUMPDEST PUSH1 0x40 DUP3 ADD SWAP1 POP SWAP2 SWAP1 POP JUMP JUMPDEST PUSH0 PUSH1 0x20 DUP3 ADD SWAP1 POP DUP2 DUP2 SUB PUSH0 DUP4 ADD MSTORE PUSH2 0x1C58 DUP2 PUSH2 0x1C1F JUMP JUMPDEST SWAP1 POP SWAP2 SWAP1 POP JUMP JUMPDEST PUSH32 0x426F6F6B20494420616C72656164792065786973747300000000000000000000 PUSH0 DUP3 ADD MSTORE POP JUMP JUMPDEST PUSH0 PUSH2 0x1C93 PUSH1 0x16 DUP4 PUSH2 0x13C5 JUMP JUMPDEST SWAP2 POP PUSH2 0x1C9E DUP3 PUSH2 0x1C5F JUMP JUMPDEST PUSH1 0x20 DUP3 ADD SWAP1 POP SWAP2 SWAP1 POP JUMP JUMPDEST PUSH0 PUSH1 0x20 DUP3 ADD SWAP1 POP DUP2 DUP2 SUB PUSH0 DUP4 ADD MSTORE PUSH2 0x1CC0 DUP2 PUSH2 0x1C87 JUMP JUMPDEST SWAP1 POP SWAP2 SWAP1 POP JUMP JUMPDEST PUSH0 DUP2 SWAP1 POP DUP2 PUSH0 MSTORE PUSH1 0x20 PUSH0 KECCAK256 SWAP1 POP SWAP2 SWAP1 POP JUMP JUMPDEST PUSH0 PUSH1 0x20 PUSH1 0x1F DUP4 ADD DIV SWAP1 POP SWAP2 SWAP1 POP JUMP JUMPDEST PUSH0 DUP3 DUP3 SHL SWAP1 POP SWAP3 SWAP2 POP POP JUMP JUMPDEST PUSH0 PUSH1 0x8 DUP4 MUL PUSH2 0x1D23 PUSH32 0xFFFFFFFFFFFFFFFFFFFFFFFFFFFFFFFFFFFFFFFFFFFFFFFFFFFFFFFFFFFFFFFF DUP3 PUSH2 0x1CE8 JUMP JUMPDEST PUSH2 0x1D2D DUP7 DUP4 PUSH2 0x1CE8 JUMP JUMPDEST SWAP6 POP DUP1 NOT DUP5 AND SWAP4 POP DUP1 DUP7 AND DUP5 OR SWAP3 POP POP POP SWAP4 SWAP3 POP POP POP JUMP JUMPDEST PUSH0 DUP2 SWAP1 POP SWAP2 SWAP1 POP JUMP JUMPDEST PUSH0 PUSH2 0x1D68 PUSH2 0x1D63 PUSH2 0x1D5E DUP5 PUSH2 0x113E JUMP JUMPDEST PUSH2 0x1D45 JUMP JUMPDEST PUSH2 0x113E JUMP JUMPDEST SWAP1 POP SWAP2 SWAP1 POP JUMP JUMPDEST PUSH0 DUP2 SWAP1 POP SWAP2 SWAP1 POP JUMP JUMPDEST PUSH2 0x1D81 DUP4 PUSH2 0x1D4E JUMP JUMPDEST PUSH2 0x1D95 PUSH2 0x1D8D DUP3 PUSH2 0x1D6F JUMP JUMPDEST DUP5 DUP5 SLOAD PUSH2 0x1CF4 JUMP JUMPDEST DUP3 SSTORE POP POP POP POP JUMP JUMPDEST PUSH0 SWAP1 JUMP JUMPDEST PUSH2 0x1DA9 PUSH2 0x1D9D JUMP JUMPDEST PUSH2 0x1DB4 DUP2 DUP5 DUP5 PUSH2 0x1D78 JUMP JUMPDEST POP POP POP JUMP JUMPDEST JUMPDEST DUP2 DUP2 LT ISZERO PUSH2 0x1DD7 JUMPI PUSH2 0x1DCC PUSH0 DUP3 PUSH2 0x1DA1 JUMP JUMPDEST PUSH1 0x1 DUP2 ADD SWAP1 POP PUSH2 0x1DBA JUMP JUMPDEST POP POP JUMP JUMPDEST PUSH1 0x1F DUP3 GT ISZERO PUSH2 0x1E1C JUMPI PUSH2 0x1DED DUP2 PUSH2 0x1CC7 JUMP JUMPDEST PUSH2 0x1DF6 DUP5 PUSH2 0x1CD9 JUMP JUMPDEST DUP2 ADD PUSH1 0x20 DUP6 LT ISZERO PUSH2 0x1E05 JUMPI DUP2 SWAP1 POP JUMPDEST PUSH2 0x1E19 PUSH2 0x1E11 DUP6 PUSH2 0x1CD9 JUMP JUMPDEST DUP4 ADD DUP3 PUSH2 0x1DB9 JUMP JUMPDEST POP POP JUMPDEST POP POP POP JUMP JUMPDEST PUSH0 DUP3 DUP3 SHR SWAP1 POP SWAP3 SWAP2 POP POP JUMP JUMPDEST PUSH0 PUSH2 0x1E3C PUSH0 NOT DUP5 PUSH1 0x8 MUL PUSH2 0x1E21 JUMP JUMPDEST NOT DUP1 DUP4 AND SWAP2 POP POP SWAP3 SWAP2 POP POP JUMP JUMPDEST PUSH0 PUSH2 0x1E54 DUP4 DUP4 PUSH2 0x1E2D JUMP JUMPDEST SWAP2 POP DUP3 PUSH1 0x2 MUL DUP3 OR SWAP1 POP SWAP3 SWAP2 POP POP JUMP JUMPDEST PUSH2 0x1E6D DUP3 PUSH2 0x11D4 JUMP JUMPDEST PUSH8 0xFFFFFFFFFFFFFFFF DUP2 GT ISZERO PUSH2 0x1E86 JUMPI PUSH2 0x1E85 PUSH2 0x1527 JUMP JUMPDEST JUMPDEST PUSH2 0x1E90 DUP3 SLOAD PUSH2 0x1962 JUMP JUMPDEST PUSH2 0x1E9B DUP3 DUP3 DUP6 PUSH2 0x1DDB JUMP JUMPDEST PUSH0 PUSH1 0x20 SWAP1 POP PUSH1 0x1F DUP4 GT PUSH1 0x1 DUP2 EQ PUSH2 0x1ECC JUMPI PUSH0 DUP5 ISZERO PUSH2 0x1EBA JUMPI DUP3 DUP8 ADD MLOAD SWAP1 POP JUMPDEST PUSH2 0x1EC4 DUP6 DUP3 PUSH2 0x1E49 JUMP JUMPDEST DUP7 SSTORE POP PUSH2 0x1F2B JUMP JUMPDEST PUSH1 0x1F NOT DUP5 AND PUSH2 0x1EDA DUP7 PUSH2 0x1CC7 JUMP JUMPDEST PUSH0 JUMPDEST DUP3 DUP2 LT ISZERO PUSH2 0x1F01 JUMPI DUP5 DUP10 ADD MLOAD DUP3 SSTORE PUSH1 0x1 DUP3 ADD SWAP2 POP PUSH1 0x20 DUP6 ADD SWAP5 POP PUSH1 0x20 DUP2 ADD SWAP1 POP PUSH2 0x1EDC JUMP JUMPDEST DUP7 DUP4 LT ISZERO PUSH2 0x1F1E JUMPI DUP5 DUP10 ADD MLOAD PUSH2 0x1F1A PUSH1 0x1F DUP10 AND DUP3 PUSH2 0x1E2D JUMP JUMPDEST DUP4 SSTORE POP JUMPDEST PUSH1 0x1 PUSH1 0x2 DUP9 MUL ADD DUP9 SSTORE POP POP POP JUMPDEST POP POP POP POP POP POP JUMP INVALID LOG2 PUSH5 0x6970667358 0x22 SLT KECCAK256 0xAC 0xDD PUSH19 0xDB9EDA320FD0BE126D31393DD93FE482B03F87 JUMP MULMOD 0xAC OR 0xD2 0xE XOR PUSH24 0x6E8A64736F6C634300081A00330000000000000000000000 "
				},
				"gasEstimates": {
					"creation": {
						"codeDepositCost": "1608200",
						"executionCost": "35960",
						"totalCost": "1644160"
					},
					"external": {
						"addBook(uint256,string,string,uint256,uint256)": "infinite",
						"bookCount()": "2491",
						"books(uint256)": "infinite",
						"getAllBooks()": "infinite",
						"getBookDetails(uint256)": "infinite",
						"getOwnerBalance()": "5140",
						"owner()": "2508",
						"purchaseBook(uint256)": "infinite",
						"removeAllBooks()": "infinite",
						"removeBook(uint256)": "31395",
						"totalBooksSold()": "2470",
						"updateStock(uint256,uint256)": "infinite"
					}
				},
				"methodIdentifiers": {
					"addBook(uint256,string,string,uint256,uint256)": "f733719c",
					"bookCount()": "b905ad78",
					"books(uint256)": "68744046",
					"getAllBooks()": "354528e8",
					"getBookDetails(uint256)": "74ff4818",
					"getOwnerBalance()": "590791f2",
					"owner()": "8da5cb5b",
					"purchaseBook(uint256)": "1c555f47",
					"removeAllBooks()": "8ef17fc3",
					"removeBook(uint256)": "bec0d799",
					"totalBooksSold()": "3899637f",
					"updateStock(uint256,uint256)": "9dfc3dd1"
				}
			},
			"storageLayout": {
				"storage": [
					{
						"astId": 19,
						"contract": "contracts/BookStore.sol:Bookstore",
						"label": "books",
						"offset": 0,
						"slot": "0",
						"type": "t_mapping(t_uint256,t_struct(Book)14_storage)"
					},
					{
						"astId": 22,
						"contract": "contracts/BookStore.sol:Bookstore",
						"label": "bookCount",
						"offset": 0,
						"slot": "1",
						"type": "t_uint256"
					},
					{
						"astId": 25,
						"contract": "contracts/BookStore.sol:Bookstore",
						"label": "totalBooksSold",
						"offset": 0,
						"slot": "2",
						"type": "t_uint256"
					},
					{
						"astId": 27,
						"contract": "contracts/BookStore.sol:Bookstore",
						"label": "owner",
						"offset": 0,
						"slot": "3",
						"type": "t_address"
					}
				],
				"types": {
					"t_address": {
						"encoding": "inplace",
						"label": "address",
						"numberOfBytes": "20"
					},
					"t_bool": {
						"encoding": "inplace",
						"label": "bool",
						"numberOfBytes": "1"
					},
					"t_mapping(t_uint256,t_struct(Book)14_storage)": {
						"encoding": "mapping",
						"key": "t_uint256",
						"label": "mapping(uint256 => struct Bookstore.Book)",
						"numberOfBytes": "32",
						"value": "t_struct(Book)14_storage"
					},
					"t_string_storage": {
						"encoding": "bytes",
						"label": "string",
						"numberOfBytes": "32"
					},
					"t_struct(Book)14_storage": {
						"encoding": "inplace",
						"label": "struct Bookstore.Book",
						"members": [
							{
								"astId": 3,
								"contract": "contracts/BookStore.sol:Bookstore",
								"label": "bookId",
								"offset": 0,
								"slot": "0",
								"type": "t_uint256"
							},
							{
								"astId": 5,
								"contract": "contracts/BookStore.sol:Bookstore",
								"label": "title",
								"offset": 0,
								"slot": "1",
								"type": "t_string_storage"
							},
							{
								"astId": 7,
								"contract": "contracts/BookStore.sol:Bookstore",
								"label": "author",
								"offset": 0,
								"slot": "2",
								"type": "t_string_storage"
							},
							{
								"astId": 9,
								"contract": "contracts/BookStore.sol:Bookstore",
								"label": "price",
								"offset": 0,
								"slot": "3",
								"type": "t_uint256"
							},
							{
								"astId": 11,
								"contract": "contracts/BookStore.sol:Bookstore",
								"label": "stock",
								"offset": 0,
								"slot": "4",
								"type": "t_uint256"
							},
							{
								"astId": 13,
								"contract": "contracts/BookStore.sol:Bookstore",
								"label": "isAvailable",
								"offset": 0,
								"slot": "5",
								"type": "t_bool"
							}
						],
						"numberOfBytes": "192"
					},
					"t_uint256": {
						"encoding": "inplace",
						"label": "uint256",
						"numberOfBytes": "32"
					}
				}
			},
			"userdoc": {
				"kind": "user",
				"methods": {},
				"version": 1
			}
		}
	}
}