{
	"contracts/View&PureFunctions.sol": {
		"viewPure": {
			"abi": [
				{
					"inputs": [],
					"name": "addNum",
					"outputs": [
						{
							"internalType": "uint256",
							"name": "",
							"type": "uint256"
						}
					],
					"stateMutability": "pure",
					"type": "function"
				},
				{
					"inputs": [],
					"name": "changeVariable",
					"outputs": [],
					"stateMutability": "nonpayable",
					"type": "function"
				},
				{
					"inputs": [],
					"name": "getVariable",
					"outputs": [
						{
							"internalType": "uint256",
							"name": "",
							"type": "uint256"
						}
					],
					"stateMutability": "view",
					"type": "function"
				},
				{
					"inputs": [],
					"name": "removeNum",
					"outputs": [
						{
							"internalType": "uint256",
							"name": "",
							"type": "uint256"
						}
					],
					"stateMutability": "pure",
					"type": "function"
				}
			],
			"devdoc": {
				"kind": "dev",
				"methods": {},
				"version": 1
			},
			"evm": {
				"assembly": "    /* \"contracts/View&PureFunctions.sol\":59:532  contract viewPure{... */\n  mstore(0x40, 0x80)\n  callvalue\n  dup1\n  iszero\n  tag_1\n  jumpi\n  0x00\n  dup1\n  revert\ntag_1:\n  pop\n  dataSize(sub_0)\n  dup1\n  dataOffset(sub_0)\n  0x00\n  codecopy\n  0x00\n  return\nstop\n\nsub_0: assembly {\n        /* \"contracts/View&PureFunctions.sol\":59:532  contract viewPure{... */\n      mstore(0x40, 0x80)\n      callvalue\n      dup1\n      iszero\n      tag_1\n      jumpi\n      0x00\n      dup1\n      revert\n    tag_1:\n      pop\n      jumpi(tag_2, lt(calldatasize, 0x04))\n      shr(0xe0, calldataload(0x00))\n      dup1\n      0x0592a65a\n      eq\n      tag_3\n      jumpi\n      dup1\n      0x0f4ebcb3\n      eq\n      tag_4\n      jumpi\n      dup1\n      0x506ef65c\n      eq\n      tag_5\n      jumpi\n      dup1\n      0xefcfe81a\n      eq\n      tag_6\n      jumpi\n    tag_2:\n      0x00\n      dup1\n      revert\n        /* \"contracts/View&PureFunctions.sol\":100:158  function changeVariable() public {... */\n    tag_3:\n      tag_7\n      tag_8\n      jump\t// in\n    tag_7:\n      stop\n        /* \"contracts/View&PureFunctions.sol\":449:527  function removeNum() public pure returns (uint){... */\n    tag_4:\n      tag_9\n      tag_10\n      jump\t// in\n    tag_9:\n      mload(0x40)\n      tag_11\n      swap2\n      swap1\n      tag_12\n      jump\t// in\n    tag_11:\n      mload(0x40)\n      dup1\n      swap2\n      sub\n      swap1\n      return\n        /* \"contracts/View&PureFunctions.sol\":166:273  function getVariable() public view returns(uint) {//reading from the blockchain ... */\n    tag_5:\n      tag_13\n      tag_14\n      jump\t// in\n    tag_13:\n      mload(0x40)\n      tag_15\n      swap2\n      swap1\n      tag_12\n      jump\t// in\n    tag_15:\n      mload(0x40)\n      dup1\n      swap2\n      sub\n      swap1\n      return\n        /* \"contracts/View&PureFunctions.sol\":281:441  function addNum() public pure returns(uint){// doesn't read or write anything on the blockchain, doesnt take state of the contract ... */\n    tag_6:\n      tag_16\n      tag_17\n      jump\t// in\n    tag_16:\n      mload(0x40)\n      tag_18\n      swap2\n      swap1\n      tag_12\n      jump\t// in\n    tag_18:\n      mload(0x40)\n      dup1\n      swap2\n      sub\n      swap1\n      return\n        /* \"contracts/View&PureFunctions.sol\":100:158  function changeVariable() public {... */\n    tag_8:\n        /* \"contracts/View&PureFunctions.sol\":147:150  100 */\n      0x64\n        /* \"contracts/View&PureFunctions.sol\":144:145  x */\n      0x00\n        /* \"contracts/View&PureFunctions.sol\":144:150  x= 100 */\n      dup2\n      swap1\n      sstore\n      pop\n        /* \"contracts/View&PureFunctions.sol\":100:158  function changeVariable() public {... */\n      jump\t// out\n        /* \"contracts/View&PureFunctions.sol\":449:527  function removeNum() public pure returns (uint){... */\n    tag_10:\n        /* \"contracts/View&PureFunctions.sol\":491:495  uint */\n      0x00\n        /* \"contracts/View&PureFunctions.sol\":515:518  4-2 */\n      0x02\n        /* \"contracts/View&PureFunctions.sol\":507:519  return (4-2) */\n      swap1\n      pop\n        /* \"contracts/View&PureFunctions.sol\":449:527  function removeNum() public pure returns (uint){... */\n      swap1\n      jump\t// out\n        /* \"contracts/View&PureFunctions.sol\":166:273  function getVariable() public view returns(uint) {//reading from the blockchain ... */\n    tag_14:\n        /* \"contracts/View&PureFunctions.sol\":209:213  uint */\n      0x00\n        /* \"contracts/View&PureFunctions.sol\":264:265  x */\n      dup1\n      sload\n        /* \"contracts/View&PureFunctions.sol\":257:265  return x */\n      swap1\n      pop\n        /* \"contracts/View&PureFunctions.sol\":166:273  function getVariable() public view returns(uint) {//reading from the blockchain ... */\n      swap1\n      jump\t// out\n        /* \"contracts/View&PureFunctions.sol\":281:441  function addNum() public pure returns(uint){// doesn't read or write anything on the blockchain, doesnt take state of the contract ... */\n    tag_17:\n        /* \"contracts/View&PureFunctions.sol\":319:323  uint */\n      0x00\n        /* \"contracts/View&PureFunctions.sol\":429:432  1+2 */\n      0x03\n        /* \"contracts/View&PureFunctions.sol\":422:433  return(1+2) */\n      swap1\n      pop\n        /* \"contracts/View&PureFunctions.sol\":281:441  function addNum() public pure returns(uint){// doesn't read or write anything on the blockchain, doesnt take state of the contract ... */\n      swap1\n      jump\t// out\n        /* \"#utility.yul\":7:84   */\n    tag_23:\n        /* \"#utility.yul\":44:51   */\n      0x00\n        /* \"#utility.yul\":73:78   */\n      dup2\n        /* \"#utility.yul\":62:78   */\n      swap1\n      pop\n        /* \"#utility.yul\":7:84   */\n      swap2\n      swap1\n      pop\n      jump\t// out\n        /* \"#utility.yul\":90:208   */\n    tag_24:\n        /* \"#utility.yul\":177:201   */\n      tag_28\n        /* \"#utility.yul\":195:200   */\n      dup2\n        /* \"#utility.yul\":177:201   */\n      tag_23\n      jump\t// in\n    tag_28:\n        /* \"#utility.yul\":172:175   */\n      dup3\n        /* \"#utility.yul\":165:202   */\n      mstore\n        /* \"#utility.yul\":90:208   */\n      pop\n      pop\n      jump\t// out\n        /* \"#utility.yul\":214:436   */\n    tag_12:\n        /* \"#utility.yul\":307:311   */\n      0x00\n        /* \"#utility.yul\":345:347   */\n      0x20\n        /* \"#utility.yul\":334:343   */\n      dup3\n        /* \"#utility.yul\":330:348   */\n      add\n        /* \"#utility.yul\":322:348   */\n      swap1\n      pop\n        /* \"#utility.yul\":358:429   */\n      tag_30\n        /* \"#utility.yul\":426:427   */\n      0x00\n        /* \"#utility.yul\":415:424   */\n      dup4\n        /* \"#utility.yul\":411:428   */\n      add\n        /* \"#utility.yul\":402:408   */\n      dup5\n        /* \"#utility.yul\":358:429   */\n      tag_24\n      jump\t// in\n    tag_30:\n        /* \"#utility.yul\":214:436   */\n      swap3\n      swap2\n      pop\n      pop\n      jump\t// out\n\n    auxdata: 0xa2646970667358221220a6461683af4331665b604758fb337b0e69011422954f1723829d434b77cb9f5d64736f6c634300081a0033\n}\n",
				"bytecode": {
					"linkReferences": {},
					"object": "6080604052348015600e575f80fd5b506101228061001c5f395ff3fe6080604052348015600e575f80fd5b50600436106044575f3560e01c80630592a65a1460485780630f4ebcb3146050578063506ef65c14606a578063efcfe81a146084575b5f80fd5b604e609e565b005b605660a7565b6040516061919060d5565b60405180910390f35b607060af565b604051607b919060d5565b60405180910390f35b608a60b7565b6040516095919060d5565b60405180910390f35b60645f81905550565b5f6002905090565b5f8054905090565b5f6003905090565b5f819050919050565b60cf8160bf565b82525050565b5f60208201905060e65f83018460c8565b9291505056fea2646970667358221220a6461683af4331665b604758fb337b0e69011422954f1723829d434b77cb9f5d64736f6c634300081a0033",
					"opcodes": "PUSH1 0x80 PUSH1 0x40 MSTORE CALLVALUE DUP1 ISZERO PUSH1 0xE JUMPI PUSH0 DUP1 REVERT JUMPDEST POP PUSH2 0x122 DUP1 PUSH2 0x1C PUSH0 CODECOPY PUSH0 RETURN INVALID PUSH1 0x80 PUSH1 0x40 MSTORE CALLVALUE DUP1 ISZERO PUSH1 0xE JUMPI PUSH0 DUP1 REVERT JUMPDEST POP PUSH1 0x4 CALLDATASIZE LT PUSH1 0x44 JUMPI PUSH0 CALLDATALOAD PUSH1 0xE0 SHR DUP1 PUSH4 0x592A65A EQ PUSH1 0x48 JUMPI DUP1 PUSH4 0xF4EBCB3 EQ PUSH1 0x50 JUMPI DUP1 PUSH4 0x506EF65C EQ PUSH1 0x6A JUMPI DUP1 PUSH4 0xEFCFE81A EQ PUSH1 0x84 JUMPI JUMPDEST PUSH0 DUP1 REVERT JUMPDEST PUSH1 0x4E PUSH1 0x9E JUMP JUMPDEST STOP JUMPDEST PUSH1 0x56 PUSH1 0xA7 JUMP JUMPDEST PUSH1 0x40 MLOAD PUSH1 0x61 SWAP2 SWAP1 PUSH1 0xD5 JUMP JUMPDEST PUSH1 0x40 MLOAD DUP1 SWAP2 SUB SWAP1 RETURN JUMPDEST PUSH1 0x70 PUSH1 0xAF JUMP JUMPDEST PUSH1 0x40 MLOAD PUSH1 0x7B SWAP2 SWAP1 PUSH1 0xD5 JUMP JUMPDEST PUSH1 0x40 MLOAD DUP1 SWAP2 SUB SWAP1 RETURN JUMPDEST PUSH1 0x8A PUSH1 0xB7 JUMP JUMPDEST PUSH1 0x40 MLOAD PUSH1 0x95 SWAP2 SWAP1 PUSH1 0xD5 JUMP JUMPDEST PUSH1 0x40 MLOAD DUP1 SWAP2 SUB SWAP1 RETURN JUMPDEST PUSH1 0x64 PUSH0 DUP2 SWAP1 SSTORE POP JUMP JUMPDEST PUSH0 PUSH1 0x2 SWAP1 POP SWAP1 JUMP JUMPDEST PUSH0 DUP1 SLOAD SWAP1 POP SWAP1 JUMP JUMPDEST PUSH0 PUSH1 0x3 SWAP1 POP SWAP1 JUMP JUMPDEST PUSH0 DUP2 SWAP1 POP SWAP2 SWAP1 POP JUMP JUMPDEST PUSH1 0xCF DUP2 PUSH1 0xBF JUMP JUMPDEST DUP3 MSTORE POP POP JUMP JUMPDEST PUSH0 PUSH1 0x20 DUP3 ADD SWAP1 POP PUSH1 0xE6 PUSH0 DUP4 ADD DUP5 PUSH1 0xC8 JUMP JUMPDEST SWAP3 SWAP2 POP POP JUMP INVALID LOG2 PUSH5 0x6970667358 0x22 SLT KECCAK256 0xA6 CHAINID AND DUP4 0xAF NUMBER BALANCE PUSH7 0x5B604758FB337B 0xE PUSH10 0x11422954F1723829D43 0x4B PUSH24 0xCB9F5D64736F6C634300081A003300000000000000000000 "
				},
				"gasEstimates": {
					"creation": {
						"codeDepositCost": "58000",
						"executionCost": "109",
						"totalCost": "58109"
					},
					"external": {
						"addNum()": "376",
						"changeVariable()": "22234",
						"getVariable()": "2454",
						"removeNum()": "332"
					}
				},
				"methodIdentifiers": {
					"addNum()": "efcfe81a",
					"changeVariable()": "0592a65a",
					"getVariable()": "506ef65c",
					"removeNum()": "0f4ebcb3"
				}
			},
			"storageLayout": {
				"storage": [
					{
						"astId": 3,
						"contract": "contracts/View&PureFunctions.sol:viewPure",
						"label": "x",
						"offset": 0,
						"slot": "0",
						"type": "t_uint256"
					}
				],
				"types": {
					"t_uint256": {
						"encoding": "inplace",
						"label": "uint256",
						"numberOfBytes": "32"
					}
				}
			},
			"userdoc": {
				"kind": "user",
				"methods": {},
				"version": 1
			}
		}
	}
}