{
	"contracts/PatientDataRevised.sol": {
		"PatientDataManagement": {
			"abi": [
				{
					"inputs": [
						{
							"internalType": "address",
							"name": "_rewardToken",
							"type": "address"
						}
					],
					"stateMutability": "nonpayable",
					"type": "constructor"
				},
				{
					"inputs": [
						{
							"internalType": "address",
							"name": "token",
							"type": "address"
						}
					],
					"name": "SafeERC20FailedOperation",
					"type": "error"
				},
				{
					"anonymous": false,
					"inputs": [
						{
							"indexed": true,
							"internalType": "address",
							"name": "patient",
							"type": "address"
						},
						{
							"indexed": true,
							"internalType": "address",
							"name": "accessor",
							"type": "address"
						},
						{
							"indexed": false,
							"internalType": "bool",
							"name": "isGranted",
							"type": "bool"
						},
						{
							"indexed": false,
							"internalType": "uint256",
							"name": "reward",
							"type": "uint256"
						}
					],
					"name": "AccessUpdated",
					"type": "event"
				},
				{
					"anonymous": false,
					"inputs": [
						{
							"indexed": true,
							"internalType": "address",
							"name": "patient",
							"type": "address"
						},
						{
							"indexed": false,
							"internalType": "uint256",
							"name": "timestamp",
							"type": "uint256"
						},
						{
							"indexed": false,
							"internalType": "uint256",
							"name": "reward",
							"type": "uint256"
						}
					],
					"name": "DataLogged",
					"type": "event"
				},
				{
					"anonymous": false,
					"inputs": [
						{
							"indexed": true,
							"internalType": "address",
							"name": "user",
							"type": "address"
						},
						{
							"indexed": false,
							"internalType": "uint256",
							"name": "amount",
							"type": "uint256"
						}
					],
					"name": "TokensClaimed",
					"type": "event"
				},
				{
					"inputs": [],
					"name": "TOKEN_REWARD",
					"outputs": [
						{
							"internalType": "uint256",
							"name": "",
							"type": "uint256"
						}
					],
					"stateMutability": "view",
					"type": "function"
				},
				{
					"inputs": [
						{
							"internalType": "uint256",
							"name": "amount",
							"type": "uint256"
						}
					],
					"name": "claimTokens",
					"outputs": [],
					"stateMutability": "nonpayable",
					"type": "function"
				},
				{
					"inputs": [],
					"name": "contractTokenBalance",
					"outputs": [
						{
							"internalType": "uint256",
							"name": "",
							"type": "uint256"
						}
					],
					"stateMutability": "view",
					"type": "function"
				},
				{
					"inputs": [
						{
							"internalType": "uint256",
							"name": "_glucoseLevel",
							"type": "uint256"
						},
						{
							"internalType": "string",
							"name": "_medication",
							"type": "string"
						},
						{
							"internalType": "string",
							"name": "_meals",
							"type": "string"
						},
						{
							"internalType": "string",
							"name": "_exercise",
							"type": "string"
						}
					],
					"name": "logHealthData",
					"outputs": [],
					"stateMutability": "nonpayable",
					"type": "function"
				},
				{
					"inputs": [],
					"name": "rewardToken",
					"outputs": [
						{
							"internalType": "contract IERC20",
							"name": "",
							"type": "address"
						}
					],
					"stateMutability": "view",
					"type": "function"
				},
				{
					"inputs": [
						{
							"internalType": "address",
							"name": "_accessor",
							"type": "address"
						},
						{
							"internalType": "bool",
							"name": "_isGranted",
							"type": "bool"
						}
					],
					"name": "updateAccess",
					"outputs": [],
					"stateMutability": "nonpayable",
					"type": "function"
				},
				{
					"inputs": [
						{
							"internalType": "address",
							"name": "_patient",
							"type": "address"
						}
					],
					"name": "viewHealthData",
					"outputs": [
						{
							"components": [
								{
									"internalType": "uint256",
									"name": "timestamp",
									"type": "uint256"
								},
								{
									"internalType": "uint256",
									"name": "glucoseLevel",
									"type": "uint256"
								},
								{
									"internalType": "string",
									"name": "medication",
									"type": "string"
								},
								{
									"internalType": "string",
									"name": "meals",
									"type": "string"
								},
								{
									"internalType": "string",
									"name": "exercise",
									"type": "string"
								}
							],
							"internalType": "struct PatientDataManagement.HealthData[]",
							"name": "",
							"type": "tuple[]"
						}
					],
					"stateMutability": "view",
					"type": "function"
				}
			],
			"devdoc": {
				"errors": {
					"SafeERC20FailedOperation(address)": [
						{
							"details": "An operation with an ERC-20 token failed."
						}
					]
				},
				"kind": "dev",
				"methods": {},
				"version": 1
			},
			"evm": {
				"assembly": "    /* \"contracts/PatientDataRevised.sol\":187:3660  contract PatientDataManagement {... */\n  mstore(0x40, 0x80)\n    /* \"contracts/PatientDataRevised.sol\":1405:1563  constructor(address _rewardToken) {... */\n  callvalue\n  dup1\n  iszero\n  tag_1\n  jumpi\n  0x00\n  dup1\n  revert\ntag_1:\n  pop\n  mload(0x40)\n  sub(codesize, bytecodeSize)\n  dup1\n  bytecodeSize\n  dup4\n  codecopy\n  dup2\n  dup2\n  add\n  0x40\n  mstore\n  dup2\n  add\n  swap1\n  tag_2\n  swap2\n  swap1\n  tag_3\n  jump\t// in\ntag_2:\n    /* \"contracts/PatientDataRevised.sol\":1482:1483  0 */\n  0x00\n    /* \"contracts/PatientDataRevised.sol\":1458:1484  _rewardToken != address(0) */\n  0xffffffffffffffffffffffffffffffffffffffff\n  and\n    /* \"contracts/PatientDataRevised.sol\":1458:1470  _rewardToken */\n  dup2\n    /* \"contracts/PatientDataRevised.sol\":1458:1484  _rewardToken != address(0) */\n  0xffffffffffffffffffffffffffffffffffffffff\n  and\n  sub\n    /* \"contracts/PatientDataRevised.sol\":1450:1510  require(_rewardToken != address(0), \"Invalid token address\") */\n  tag_6\n  jumpi\n  mload(0x40)\n  0x08c379a000000000000000000000000000000000000000000000000000000000\n  dup2\n  mstore\n  0x04\n  add\n  tag_7\n  swap1\n  tag_8\n  jump\t// in\ntag_7:\n  mload(0x40)\n  dup1\n  swap2\n  sub\n  swap1\n  revert\ntag_6:\n    /* \"contracts/PatientDataRevised.sol\":1542:1554  _rewardToken */\n  dup1\n    /* \"contracts/PatientDataRevised.sol\":1521:1532  rewardToken */\n  0x00\n  dup1\n    /* \"contracts/PatientDataRevised.sol\":1521:1555  rewardToken = IERC20(_rewardToken) */\n  0x0100\n  exp\n  dup2\n  sload\n  dup2\n  0xffffffffffffffffffffffffffffffffffffffff\n  mul\n  not\n  and\n  swap1\n  dup4\n  0xffffffffffffffffffffffffffffffffffffffff\n  and\n  mul\n  or\n  swap1\n  sstore\n  pop\n    /* \"contracts/PatientDataRevised.sol\":1405:1563  constructor(address _rewardToken) {... */\n  pop\n    /* \"contracts/PatientDataRevised.sol\":187:3660  contract PatientDataManagement {... */\n  jump(tag_9)\n    /* \"#utility.yul\":88:205   */\ntag_11:\n    /* \"#utility.yul\":197:198   */\n  0x00\n    /* \"#utility.yul\":194:195   */\n  dup1\n    /* \"#utility.yul\":187:199   */\n  revert\n    /* \"#utility.yul\":334:460   */\ntag_13:\n    /* \"#utility.yul\":371:378   */\n  0x00\n    /* \"#utility.yul\":411:453   */\n  0xffffffffffffffffffffffffffffffffffffffff\n    /* \"#utility.yul\":404:409   */\n  dup3\n    /* \"#utility.yul\":400:454   */\n  and\n    /* \"#utility.yul\":389:454   */\n  swap1\n  pop\n    /* \"#utility.yul\":334:460   */\n  swap2\n  swap1\n  pop\n  jump\t// out\n    /* \"#utility.yul\":466:562   */\ntag_14:\n    /* \"#utility.yul\":503:510   */\n  0x00\n    /* \"#utility.yul\":532:556   */\n  tag_26\n    /* \"#utility.yul\":550:555   */\n  dup3\n    /* \"#utility.yul\":532:556   */\n  tag_13\n  jump\t// in\ntag_26:\n    /* \"#utility.yul\":521:556   */\n  swap1\n  pop\n    /* \"#utility.yul\":466:562   */\n  swap2\n  swap1\n  pop\n  jump\t// out\n    /* \"#utility.yul\":568:690   */\ntag_15:\n    /* \"#utility.yul\":641:665   */\n  tag_28\n    /* \"#utility.yul\":659:664   */\n  dup2\n    /* \"#utility.yul\":641:665   */\n  tag_14\n  jump\t// in\ntag_28:\n    /* \"#utility.yul\":634:639   */\n  dup2\n    /* \"#utility.yul\":631:666   */\n  eq\n    /* \"#utility.yul\":621:684   */\n  tag_29\n  jumpi\n    /* \"#utility.yul\":680:681   */\n  0x00\n    /* \"#utility.yul\":677:678   */\n  dup1\n    /* \"#utility.yul\":670:682   */\n  revert\n    /* \"#utility.yul\":621:684   */\ntag_29:\n    /* \"#utility.yul\":568:690   */\n  pop\n  jump\t// out\n    /* \"#utility.yul\":696:839   */\ntag_16:\n    /* \"#utility.yul\":753:758   */\n  0x00\n    /* \"#utility.yul\":784:790   */\n  dup2\n    /* \"#utility.yul\":778:791   */\n  mload\n    /* \"#utility.yul\":769:791   */\n  swap1\n  pop\n    /* \"#utility.yul\":800:833   */\n  tag_31\n    /* \"#utility.yul\":827:832   */\n  dup2\n    /* \"#utility.yul\":800:833   */\n  tag_15\n  jump\t// in\ntag_31:\n    /* \"#utility.yul\":696:839   */\n  swap3\n  swap2\n  pop\n  pop\n  jump\t// out\n    /* \"#utility.yul\":845:1196   */\ntag_3:\n    /* \"#utility.yul\":915:921   */\n  0x00\n    /* \"#utility.yul\":964:966   */\n  0x20\n    /* \"#utility.yul\":952:961   */\n  dup3\n    /* \"#utility.yul\":943:950   */\n  dup5\n    /* \"#utility.yul\":939:962   */\n  sub\n    /* \"#utility.yul\":935:967   */\n  slt\n    /* \"#utility.yul\":932:1051   */\n  iszero\n  tag_33\n  jumpi\n    /* \"#utility.yul\":970:1049   */\n  tag_34\n  tag_11\n  jump\t// in\ntag_34:\n    /* \"#utility.yul\":932:1051   */\ntag_33:\n    /* \"#utility.yul\":1090:1091   */\n  0x00\n    /* \"#utility.yul\":1115:1179   */\n  tag_35\n    /* \"#utility.yul\":1171:1178   */\n  dup5\n    /* \"#utility.yul\":1162:1168   */\n  dup3\n    /* \"#utility.yul\":1151:1160   */\n  dup6\n    /* \"#utility.yul\":1147:1169   */\n  add\n    /* \"#utility.yul\":1115:1179   */\n  tag_16\n  jump\t// in\ntag_35:\n    /* \"#utility.yul\":1105:1179   */\n  swap2\n  pop\n    /* \"#utility.yul\":1061:1189   */\n  pop\n    /* \"#utility.yul\":845:1196   */\n  swap3\n  swap2\n  pop\n  pop\n  jump\t// out\n    /* \"#utility.yul\":1202:1371   */\ntag_17:\n    /* \"#utility.yul\":1286:1297   */\n  0x00\n    /* \"#utility.yul\":1320:1326   */\n  dup3\n    /* \"#utility.yul\":1315:1318   */\n  dup3\n    /* \"#utility.yul\":1308:1327   */\n  mstore\n    /* \"#utility.yul\":1360:1364   */\n  0x20\n    /* \"#utility.yul\":1355:1358   */\n  dup3\n    /* \"#utility.yul\":1351:1365   */\n  add\n    /* \"#utility.yul\":1336:1365   */\n  swap1\n  pop\n    /* \"#utility.yul\":1202:1371   */\n  swap3\n  swap2\n  pop\n  pop\n  jump\t// out\n    /* \"#utility.yul\":1377:1548   */\ntag_18:\n    /* \"#utility.yul\":1517:1540   */\n  0x496e76616c696420746f6b656e20616464726573730000000000000000000000\n    /* \"#utility.yul\":1513:1514   */\n  0x00\n    /* \"#utility.yul\":1505:1511   */\n  dup3\n    /* \"#utility.yul\":1501:1515   */\n  add\n    /* \"#utility.yul\":1494:1541   */\n  mstore\n    /* \"#utility.yul\":1377:1548   */\n  pop\n  jump\t// out\n    /* \"#utility.yul\":1554:1920   */\ntag_19:\n    /* \"#utility.yul\":1696:1699   */\n  0x00\n    /* \"#utility.yul\":1717:1784   */\n  tag_39\n    /* \"#utility.yul\":1781:1783   */\n  0x15\n    /* \"#utility.yul\":1776:1779   */\n  dup4\n    /* \"#utility.yul\":1717:1784   */\n  tag_17\n  jump\t// in\ntag_39:\n    /* \"#utility.yul\":1710:1784   */\n  swap2\n  pop\n    /* \"#utility.yul\":1793:1886   */\n  tag_40\n    /* \"#utility.yul\":1882:1885   */\n  dup3\n    /* \"#utility.yul\":1793:1886   */\n  tag_18\n  jump\t// in\ntag_40:\n    /* \"#utility.yul\":1911:1913   */\n  0x20\n    /* \"#utility.yul\":1906:1909   */\n  dup3\n    /* \"#utility.yul\":1902:1914   */\n  add\n    /* \"#utility.yul\":1895:1914   */\n  swap1\n  pop\n    /* \"#utility.yul\":1554:1920   */\n  swap2\n  swap1\n  pop\n  jump\t// out\n    /* \"#utility.yul\":1926:2345   */\ntag_8:\n    /* \"#utility.yul\":2092:2096   */\n  0x00\n    /* \"#utility.yul\":2130:2132   */\n  0x20\n    /* \"#utility.yul\":2119:2128   */\n  dup3\n    /* \"#utility.yul\":2115:2133   */\n  add\n    /* \"#utility.yul\":2107:2133   */\n  swap1\n  pop\n    /* \"#utility.yul\":2179:2188   */\n  dup2\n    /* \"#utility.yul\":2173:2177   */\n  dup2\n    /* \"#utility.yul\":2169:2189   */\n  sub\n    /* \"#utility.yul\":2165:2166   */\n  0x00\n    /* \"#utility.yul\":2154:2163   */\n  dup4\n    /* \"#utility.yul\":2150:2167   */\n  add\n    /* \"#utility.yul\":2143:2190   */\n  mstore\n    /* \"#utility.yul\":2207:2338   */\n  tag_42\n    /* \"#utility.yul\":2333:2337   */\n  dup2\n    /* \"#utility.yul\":2207:2338   */\n  tag_19\n  jump\t// in\ntag_42:\n    /* \"#utility.yul\":2199:2338   */\n  swap1\n  pop\n    /* \"#utility.yul\":1926:2345   */\n  swap2\n  swap1\n  pop\n  jump\t// out\n    /* \"contracts/PatientDataRevised.sol\":187:3660  contract PatientDataManagement {... */\ntag_9:\n  dataSize(sub_0)\n  dup1\n  dataOffset(sub_0)\n  0x00\n  codecopy\n  0x00\n  return\nstop\n\nsub_0: assembly {\n        /* \"contracts/PatientDataRevised.sol\":187:3660  contract PatientDataManagement {... */\n      mstore(0x40, 0x80)\n      callvalue\n      dup1\n      iszero\n      tag_1\n      jumpi\n      0x00\n      dup1\n      revert\n    tag_1:\n      pop\n      jumpi(tag_2, lt(calldatasize, 0x04))\n      shr(0xe0, calldataload(0x00))\n      dup1\n      0x9e9aed62\n      gt\n      tag_10\n      jumpi\n      dup1\n      0x9e9aed62\n      eq\n      tag_6\n      jumpi\n      dup1\n      0xa94f5766\n      eq\n      tag_7\n      jumpi\n      dup1\n      0xd4ba8902\n      eq\n      tag_8\n      jumpi\n      dup1\n      0xf7c618c1\n      eq\n      tag_9\n      jumpi\n      jump(tag_2)\n    tag_10:\n      dup1\n      0x05c17521\n      eq\n      tag_3\n      jumpi\n      dup1\n      0x0c66f928\n      eq\n      tag_4\n      jumpi\n      dup1\n      0x46e04a2f\n      eq\n      tag_5\n      jumpi\n    tag_2:\n      0x00\n      dup1\n      revert\n        /* \"contracts/PatientDataRevised.sol\":2778:3056  function viewHealthData(address _patient) public view returns (HealthData[] memory) {... */\n    tag_3:\n      tag_11\n      0x04\n      dup1\n      calldatasize\n      sub\n      dup2\n      add\n      swap1\n      tag_12\n      swap2\n      swap1\n      tag_13\n      jump\t// in\n    tag_12:\n      tag_14\n      jump\t// in\n    tag_11:\n      mload(0x40)\n      tag_15\n      swap2\n      swap1\n      tag_16\n      jump\t// in\n    tag_15:\n      mload(0x40)\n      dup1\n      swap2\n      sub\n      swap1\n      return\n        /* \"contracts/PatientDataRevised.sol\":2352:2700  function updateAccess(address _accessor, bool _isGranted) public {... */\n    tag_4:\n      tag_17\n      0x04\n      dup1\n      calldatasize\n      sub\n      dup2\n      add\n      swap1\n      tag_18\n      swap2\n      swap1\n      tag_19\n      jump\t// in\n    tag_18:\n      tag_20\n      jump\t// in\n    tag_17:\n      stop\n        /* \"contracts/PatientDataRevised.sol\":3138:3461  function claimTokens(uint256 amount) public {... */\n    tag_5:\n      tag_21\n      0x04\n      dup1\n      calldatasize\n      sub\n      dup2\n      add\n      swap1\n      tag_22\n      swap2\n      swap1\n      tag_23\n      jump\t// in\n    tag_22:\n      tag_24\n      jump\t// in\n    tag_21:\n      stop\n        /* \"contracts/PatientDataRevised.sol\":3533:3657  function contractTokenBalance() public view returns (uint256) {... */\n    tag_6:\n      tag_25\n      tag_26\n      jump\t// in\n    tag_25:\n      mload(0x40)\n      tag_27\n      swap2\n      swap1\n      tag_28\n      jump\t// in\n    tag_27:\n      mload(0x40)\n      dup1\n      swap2\n      sub\n      swap1\n      return\n        /* \"contracts/PatientDataRevised.sol\":1626:2274  function logHealthData(... */\n    tag_7:\n      tag_29\n      0x04\n      dup1\n      calldatasize\n      sub\n      dup2\n      add\n      swap1\n      tag_30\n      swap2\n      swap1\n      tag_31\n      jump\t// in\n    tag_30:\n      tag_32\n      jump\t// in\n    tag_29:\n      stop\n        /* \"contracts/PatientDataRevised.sol\":351:405  uint256 public constant TOKEN_REWARD = 10 * (10 ** 18) */\n    tag_8:\n      tag_33\n      tag_34\n      jump\t// in\n    tag_33:\n      mload(0x40)\n      tag_35\n      swap2\n      swap1\n      tag_28\n      jump\t// in\n    tag_35:\n      mload(0x40)\n      dup1\n      swap2\n      sub\n      swap1\n      return\n        /* \"contracts/PatientDataRevised.sol\":284:309  IERC20 public rewardToken */\n    tag_9:\n      tag_36\n      tag_37\n      jump\t// in\n    tag_36:\n      mload(0x40)\n      tag_38\n      swap2\n      swap1\n      tag_39\n      jump\t// in\n    tag_38:\n      mload(0x40)\n      dup1\n      swap2\n      sub\n      swap1\n      return\n        /* \"contracts/PatientDataRevised.sol\":2778:3056  function viewHealthData(address _patient) public view returns (HealthData[] memory) {... */\n    tag_14:\n        /* \"contracts/PatientDataRevised.sol\":2841:2860  HealthData[] memory */\n      0x60\n        /* \"contracts/PatientDataRevised.sol\":2907:2917  msg.sender */\n      caller\n        /* \"contracts/PatientDataRevised.sol\":2895:2917  _patient == msg.sender */\n      0xffffffffffffffffffffffffffffffffffffffff\n      and\n        /* \"contracts/PatientDataRevised.sol\":2895:2903  _patient */\n      dup3\n        /* \"contracts/PatientDataRevised.sol\":2895:2917  _patient == msg.sender */\n      0xffffffffffffffffffffffffffffffffffffffff\n      and\n      eq\n        /* \"contracts/PatientDataRevised.sol\":2895:2960  _patient == msg.sender || accessPermissions[_patient][msg.sender] */\n      dup1\n      tag_41\n      jumpi\n      pop\n        /* \"contracts/PatientDataRevised.sol\":2921:2938  accessPermissions */\n      0x02\n        /* \"contracts/PatientDataRevised.sol\":2921:2948  accessPermissions[_patient] */\n      0x00\n        /* \"contracts/PatientDataRevised.sol\":2939:2947  _patient */\n      dup4\n        /* \"contracts/PatientDataRevised.sol\":2921:2948  accessPermissions[_patient] */\n      0xffffffffffffffffffffffffffffffffffffffff\n      and\n      0xffffffffffffffffffffffffffffffffffffffff\n      and\n      dup2\n      mstore\n      0x20\n      add\n      swap1\n      dup2\n      mstore\n      0x20\n      add\n      0x00\n      keccak256\n        /* \"contracts/PatientDataRevised.sol\":2921:2960  accessPermissions[_patient][msg.sender] */\n      0x00\n        /* \"contracts/PatientDataRevised.sol\":2949:2959  msg.sender */\n      caller\n        /* \"contracts/PatientDataRevised.sol\":2921:2960  accessPermissions[_patient][msg.sender] */\n      0xffffffffffffffffffffffffffffffffffffffff\n      and\n      0xffffffffffffffffffffffffffffffffffffffff\n      and\n      dup2\n      mstore\n      0x20\n      add\n      swap1\n      dup2\n      mstore\n      0x20\n      add\n      0x00\n      keccak256\n      0x00\n      swap1\n      sload\n      swap1\n      0x0100\n      exp\n      swap1\n      div\n      0xff\n      and\n        /* \"contracts/PatientDataRevised.sol\":2895:2960  _patient == msg.sender || accessPermissions[_patient][msg.sender] */\n    tag_41:\n        /* \"contracts/PatientDataRevised.sol\":2873:3009  require(... */\n      tag_42\n      jumpi\n      mload(0x40)\n      0x08c379a000000000000000000000000000000000000000000000000000000000\n      dup2\n      mstore\n      0x04\n      add\n      tag_43\n      swap1\n      tag_44\n      jump\t// in\n    tag_43:\n      mload(0x40)\n      dup1\n      swap2\n      sub\n      swap1\n      revert\n    tag_42:\n        /* \"contracts/PatientDataRevised.sol\":3027:3038  patientData */\n      0x01\n        /* \"contracts/PatientDataRevised.sol\":3027:3048  patientData[_patient] */\n      0x00\n        /* \"contracts/PatientDataRevised.sol\":3039:3047  _patient */\n      dup4\n        /* \"contracts/PatientDataRevised.sol\":3027:3048  patientData[_patient] */\n      0xffffffffffffffffffffffffffffffffffffffff\n      and\n      0xffffffffffffffffffffffffffffffffffffffff\n      and\n      dup2\n      mstore\n      0x20\n      add\n      swap1\n      dup2\n      mstore\n      0x20\n      add\n      0x00\n      keccak256\n        /* \"contracts/PatientDataRevised.sol\":3020:3048  return patientData[_patient] */\n      dup1\n      sload\n      dup1\n      0x20\n      mul\n      0x20\n      add\n      mload(0x40)\n      swap1\n      dup2\n      add\n      0x40\n      mstore\n      dup1\n      swap3\n      swap2\n      swap1\n      dup2\n      dup2\n      mstore\n      0x20\n      add\n      0x00\n      swap1\n    tag_45:\n      dup3\n      dup3\n      lt\n      iszero\n      tag_46\n      jumpi\n      dup4\n      dup3\n      swap1\n      0x00\n      mstore\n      keccak256(0x00, 0x20)\n      swap1\n      0x05\n      mul\n      add\n      mload(0x40)\n      dup1\n      0xa0\n      add\n      0x40\n      mstore\n      swap1\n      dup2\n      0x00\n      dup3\n      add\n      sload\n      dup2\n      mstore\n      0x20\n      add\n      0x01\n      dup3\n      add\n      sload\n      dup2\n      mstore\n      0x20\n      add\n      0x02\n      dup3\n      add\n      dup1\n      sload\n      tag_48\n      swap1\n      tag_49\n      jump\t// in\n    tag_48:\n      dup1\n      0x1f\n      add\n      0x20\n      dup1\n      swap2\n      div\n      mul\n      0x20\n      add\n      mload(0x40)\n      swap1\n      dup2\n      add\n      0x40\n      mstore\n      dup1\n      swap3\n      swap2\n      swap1\n      dup2\n      dup2\n      mstore\n      0x20\n      add\n      dup3\n      dup1\n      sload\n      tag_50\n      swap1\n      tag_49\n      jump\t// in\n    tag_50:\n      dup1\n      iszero\n      tag_51\n      jumpi\n      dup1\n      0x1f\n      lt\n      tag_52\n      jumpi\n      0x0100\n      dup1\n      dup4\n      sload\n      div\n      mul\n      dup4\n      mstore\n      swap2\n      0x20\n      add\n      swap2\n      jump(tag_51)\n    tag_52:\n      dup3\n      add\n      swap2\n      swap1\n      0x00\n      mstore\n      keccak256(0x00, 0x20)\n      swap1\n    tag_53:\n      dup2\n      sload\n      dup2\n      mstore\n      swap1\n      0x01\n      add\n      swap1\n      0x20\n      add\n      dup1\n      dup4\n      gt\n      tag_53\n      jumpi\n      dup3\n      swap1\n      sub\n      0x1f\n      and\n      dup3\n      add\n      swap2\n    tag_51:\n      pop\n      pop\n      pop\n      pop\n      pop\n      dup2\n      mstore\n      0x20\n      add\n      0x03\n      dup3\n      add\n      dup1\n      sload\n      tag_54\n      swap1\n      tag_49\n      jump\t// in\n    tag_54:\n      dup1\n      0x1f\n      add\n      0x20\n      dup1\n      swap2\n      div\n      mul\n      0x20\n      add\n      mload(0x40)\n      swap1\n      dup2\n      add\n      0x40\n      mstore\n      dup1\n      swap3\n      swap2\n      swap1\n      dup2\n      dup2\n      mstore\n      0x20\n      add\n      dup3\n      dup1\n      sload\n      tag_55\n      swap1\n      tag_49\n      jump\t// in\n    tag_55:\n      dup1\n      iszero\n      tag_56\n      jumpi\n      dup1\n      0x1f\n      lt\n      tag_57\n      jumpi\n      0x0100\n      dup1\n      dup4\n      sload\n      div\n      mul\n      dup4\n      mstore\n      swap2\n      0x20\n      add\n      swap2\n      jump(tag_56)\n    tag_57:\n      dup3\n      add\n      swap2\n      swap1\n      0x00\n      mstore\n      keccak256(0x00, 0x20)\n      swap1\n    tag_58:\n      dup2\n      sload\n      dup2\n      mstore\n      swap1\n      0x01\n      add\n      swap1\n      0x20\n      add\n      dup1\n      dup4\n      gt\n      tag_58\n      jumpi\n      dup3\n      swap1\n      sub\n      0x1f\n      and\n      dup3\n      add\n      swap2\n    tag_56:\n      pop\n      pop\n      pop\n      pop\n      pop\n      dup2\n      mstore\n      0x20\n      add\n      0x04\n      dup3\n      add\n      dup1\n      sload\n      tag_59\n      swap1\n      tag_49\n      jump\t// in\n    tag_59:\n      dup1\n      0x1f\n      add\n      0x20\n      dup1\n      swap2\n      div\n      mul\n      0x20\n      add\n      mload(0x40)\n      swap1\n      dup2\n      add\n      0x40\n      mstore\n      dup1\n      swap3\n      swap2\n      swap1\n      dup2\n      dup2\n      mstore\n      0x20\n      add\n      dup3\n      dup1\n      sload\n      tag_60\n      swap1\n      tag_49\n      jump\t// in\n    tag_60:\n      dup1\n      iszero\n      tag_61\n      jumpi\n      dup1\n      0x1f\n      lt\n      tag_62\n      jumpi\n      0x0100\n      dup1\n      dup4\n      sload\n      div\n      mul\n      dup4\n      mstore\n      swap2\n      0x20\n      add\n      swap2\n      jump(tag_61)\n    tag_62:\n      dup3\n      add\n      swap2\n      swap1\n      0x00\n      mstore\n      keccak256(0x00, 0x20)\n      swap1\n    tag_63:\n      dup2\n      sload\n      dup2\n      mstore\n      swap1\n      0x01\n      add\n      swap1\n      0x20\n      add\n      dup1\n      dup4\n      gt\n      tag_63\n      jumpi\n      dup3\n      swap1\n      sub\n      0x1f\n      and\n      dup3\n      add\n      swap2\n    tag_61:\n      pop\n      pop\n      pop\n      pop\n      pop\n      dup2\n      mstore\n      pop\n      pop\n      dup2\n      mstore\n      0x20\n      add\n      swap1\n      0x01\n      add\n      swap1\n      jump(tag_45)\n    tag_46:\n      pop\n      pop\n      pop\n      pop\n      swap1\n      pop\n        /* \"contracts/PatientDataRevised.sol\":2778:3056  function viewHealthData(address _patient) public view returns (HealthData[] memory) {... */\n      swap2\n      swap1\n      pop\n      jump\t// out\n        /* \"contracts/PatientDataRevised.sol\":2352:2700  function updateAccess(address _accessor, bool _isGranted) public {... */\n    tag_20:\n        /* \"contracts/PatientDataRevised.sol\":2471:2481  _isGranted */\n      dup1\n        /* \"contracts/PatientDataRevised.sol\":2428:2445  accessPermissions */\n      0x02\n        /* \"contracts/PatientDataRevised.sol\":2428:2457  accessPermissions[msg.sender] */\n      0x00\n        /* \"contracts/PatientDataRevised.sol\":2446:2456  msg.sender */\n      caller\n        /* \"contracts/PatientDataRevised.sol\":2428:2457  accessPermissions[msg.sender] */\n      0xffffffffffffffffffffffffffffffffffffffff\n      and\n      0xffffffffffffffffffffffffffffffffffffffff\n      and\n      dup2\n      mstore\n      0x20\n      add\n      swap1\n      dup2\n      mstore\n      0x20\n      add\n      0x00\n      keccak256\n        /* \"contracts/PatientDataRevised.sol\":2428:2468  accessPermissions[msg.sender][_accessor] */\n      0x00\n        /* \"contracts/PatientDataRevised.sol\":2458:2467  _accessor */\n      dup5\n        /* \"contracts/PatientDataRevised.sol\":2428:2468  accessPermissions[msg.sender][_accessor] */\n      0xffffffffffffffffffffffffffffffffffffffff\n      and\n      0xffffffffffffffffffffffffffffffffffffffff\n      and\n      dup2\n      mstore\n      0x20\n      add\n      swap1\n      dup2\n      mstore\n      0x20\n      add\n      0x00\n      keccak256\n      0x00\n        /* \"contracts/PatientDataRevised.sol\":2428:2481  accessPermissions[msg.sender][_accessor] = _isGranted */\n      0x0100\n      exp\n      dup2\n      sload\n      dup2\n      0xff\n      mul\n      not\n      and\n      swap1\n      dup4\n      iszero\n      iszero\n      mul\n      or\n      swap1\n      sstore\n      pop\n        /* \"contracts/PatientDataRevised.sol\":2562:2612  rewardToken.safeTransfer(msg.sender, TOKEN_REWARD) */\n      tag_65\n        /* \"contracts/PatientDataRevised.sol\":2587:2597  msg.sender */\n      caller\n        /* \"contracts/PatientDataRevised.sol\":390:405  10 * (10 ** 18) */\n      0x8ac7230489e80000\n        /* \"contracts/PatientDataRevised.sol\":2562:2573  rewardToken */\n      0x00\n      dup1\n      sload\n      swap1\n      0x0100\n      exp\n      swap1\n      div\n      0xffffffffffffffffffffffffffffffffffffffff\n      and\n        /* \"contracts/PatientDataRevised.sol\":2562:2586  rewardToken.safeTransfer */\n      0xffffffffffffffffffffffffffffffffffffffff\n      and\n      tag_66\n      swap1\n        /* \"contracts/PatientDataRevised.sol\":2562:2612  rewardToken.safeTransfer(msg.sender, TOKEN_REWARD) */\n      swap3\n      swap2\n      swap1\n      0xffffffff\n      and\n      jump\t// in\n    tag_65:\n        /* \"contracts/PatientDataRevised.sol\":2656:2665  _accessor */\n      dup2\n        /* \"contracts/PatientDataRevised.sol\":2630:2692  AccessUpdated(msg.sender, _accessor, _isGranted, TOKEN_REWARD) */\n      0xffffffffffffffffffffffffffffffffffffffff\n      and\n        /* \"contracts/PatientDataRevised.sol\":2644:2654  msg.sender */\n      caller\n        /* \"contracts/PatientDataRevised.sol\":2630:2692  AccessUpdated(msg.sender, _accessor, _isGranted, TOKEN_REWARD) */\n      0xffffffffffffffffffffffffffffffffffffffff\n      and\n      0x09c705c294119a93fb8ea4861ef048d5884d9504575b35eb38c7ea7705cf28b0\n        /* \"contracts/PatientDataRevised.sol\":2667:2677  _isGranted */\n      dup4\n        /* \"contracts/PatientDataRevised.sol\":390:405  10 * (10 ** 18) */\n      0x8ac7230489e80000\n        /* \"contracts/PatientDataRevised.sol\":2630:2692  AccessUpdated(msg.sender, _accessor, _isGranted, TOKEN_REWARD) */\n      mload(0x40)\n      tag_67\n      swap3\n      swap2\n      swap1\n      tag_68\n      jump\t// in\n    tag_67:\n      mload(0x40)\n      dup1\n      swap2\n      sub\n      swap1\n      log3\n        /* \"contracts/PatientDataRevised.sol\":2352:2700  function updateAccess(address _accessor, bool _isGranted) public {... */\n      pop\n      pop\n      jump\t// out\n        /* \"contracts/PatientDataRevised.sol\":3138:3461  function claimTokens(uint256 amount) public {... */\n    tag_24:\n        /* \"contracts/PatientDataRevised.sol\":3210:3211  0 */\n      0x00\n        /* \"contracts/PatientDataRevised.sol\":3201:3207  amount */\n      dup2\n        /* \"contracts/PatientDataRevised.sol\":3201:3211  amount > 0 */\n      gt\n        /* \"contracts/PatientDataRevised.sol\":3193:3248  require(amount > 0, \"Amount must be greater than zero\") */\n      tag_70\n      jumpi\n      mload(0x40)\n      0x08c379a000000000000000000000000000000000000000000000000000000000\n      dup2\n      mstore\n      0x04\n      add\n      tag_71\n      swap1\n      tag_72\n      jump\t// in\n    tag_71:\n      mload(0x40)\n      dup1\n      swap2\n      sub\n      swap1\n      revert\n    tag_70:\n        /* \"contracts/PatientDataRevised.sol\":3307:3313  amount */\n      dup1\n        /* \"contracts/PatientDataRevised.sol\":3267:3278  rewardToken */\n      0x00\n      dup1\n      sload\n      swap1\n      0x0100\n      exp\n      swap1\n      div\n      0xffffffffffffffffffffffffffffffffffffffff\n      and\n        /* \"contracts/PatientDataRevised.sol\":3267:3288  rewardToken.balanceOf */\n      0xffffffffffffffffffffffffffffffffffffffff\n      and\n      0x70a08231\n        /* \"contracts/PatientDataRevised.sol\":3297:3301  this */\n      address\n        /* \"contracts/PatientDataRevised.sol\":3267:3303  rewardToken.balanceOf(address(this)) */\n      mload(0x40)\n      dup3\n      0xffffffff\n      and\n      0xe0\n      shl\n      dup2\n      mstore\n      0x04\n      add\n      tag_73\n      swap2\n      swap1\n      tag_74\n      jump\t// in\n    tag_73:\n      0x20\n      mload(0x40)\n      dup1\n      dup4\n      sub\n      dup2\n      dup7\n      gas\n      staticcall\n      iszero\n      dup1\n      iszero\n      tag_76\n      jumpi\n      returndatasize\n      0x00\n      dup1\n      returndatacopy\n      revert(0x00, returndatasize)\n    tag_76:\n      pop\n      pop\n      pop\n      pop\n      mload(0x40)\n      returndatasize\n      not(0x1f)\n      0x1f\n      dup3\n      add\n      and\n      dup3\n      add\n      dup1\n      0x40\n      mstore\n      pop\n      dup2\n      add\n      swap1\n      tag_77\n      swap2\n      swap1\n      tag_78\n      jump\t// in\n    tag_77:\n        /* \"contracts/PatientDataRevised.sol\":3267:3313  rewardToken.balanceOf(address(this)) >= amount */\n      lt\n      iszero\n        /* \"contracts/PatientDataRevised.sol\":3259:3347  require(rewardToken.balanceOf(address(this)) >= amount, \"Insufficient contract balance\") */\n      tag_79\n      jumpi\n      mload(0x40)\n      0x08c379a000000000000000000000000000000000000000000000000000000000\n      dup2\n      mstore\n      0x04\n      add\n      tag_80\n      swap1\n      tag_81\n      jump\t// in\n    tag_80:\n      mload(0x40)\n      dup1\n      swap2\n      sub\n      swap1\n      revert\n    tag_79:\n        /* \"contracts/PatientDataRevised.sol\":3360:3404  rewardToken.safeTransfer(msg.sender, amount) */\n      tag_82\n        /* \"contracts/PatientDataRevised.sol\":3385:3395  msg.sender */\n      caller\n        /* \"contracts/PatientDataRevised.sol\":3397:3403  amount */\n      dup3\n        /* \"contracts/PatientDataRevised.sol\":3360:3371  rewardToken */\n      0x00\n      dup1\n      sload\n      swap1\n      0x0100\n      exp\n      swap1\n      div\n      0xffffffffffffffffffffffffffffffffffffffff\n      and\n        /* \"contracts/PatientDataRevised.sol\":3360:3384  rewardToken.safeTransfer */\n      0xffffffffffffffffffffffffffffffffffffffff\n      and\n      tag_66\n      swap1\n        /* \"contracts/PatientDataRevised.sol\":3360:3404  rewardToken.safeTransfer(msg.sender, amount) */\n      swap3\n      swap2\n      swap1\n      0xffffffff\n      and\n      jump\t// in\n    tag_82:\n        /* \"contracts/PatientDataRevised.sol\":3434:3444  msg.sender */\n      caller\n        /* \"contracts/PatientDataRevised.sol\":3420:3453  TokensClaimed(msg.sender, amount) */\n      0xffffffffffffffffffffffffffffffffffffffff\n      and\n      0x896e034966eaaf1adc54acc0f257056febbd300c9e47182cf761982cf1f5e430\n        /* \"contracts/PatientDataRevised.sol\":3446:3452  amount */\n      dup3\n        /* \"contracts/PatientDataRevised.sol\":3420:3453  TokensClaimed(msg.sender, amount) */\n      mload(0x40)\n      tag_83\n      swap2\n      swap1\n      tag_28\n      jump\t// in\n    tag_83:\n      mload(0x40)\n      dup1\n      swap2\n      sub\n      swap1\n      log2\n        /* \"contracts/PatientDataRevised.sol\":3138:3461  function claimTokens(uint256 amount) public {... */\n      pop\n      jump\t// out\n        /* \"contracts/PatientDataRevised.sol\":3533:3657  function contractTokenBalance() public view returns (uint256) {... */\n    tag_26:\n        /* \"contracts/PatientDataRevised.sol\":3586:3593  uint256 */\n      0x00\n        /* \"contracts/PatientDataRevised.sol\":3613:3624  rewardToken */\n      dup1\n      0x00\n      swap1\n      sload\n      swap1\n      0x0100\n      exp\n      swap1\n      div\n      0xffffffffffffffffffffffffffffffffffffffff\n      and\n        /* \"contracts/PatientDataRevised.sol\":3613:3634  rewardToken.balanceOf */\n      0xffffffffffffffffffffffffffffffffffffffff\n      and\n      0x70a08231\n        /* \"contracts/PatientDataRevised.sol\":3643:3647  this */\n      address\n        /* \"contracts/PatientDataRevised.sol\":3613:3649  rewardToken.balanceOf(address(this)) */\n      mload(0x40)\n      dup3\n      0xffffffff\n      and\n      0xe0\n      shl\n      dup2\n      mstore\n      0x04\n      add\n      tag_85\n      swap2\n      swap1\n      tag_74\n      jump\t// in\n    tag_85:\n      0x20\n      mload(0x40)\n      dup1\n      dup4\n      sub\n      dup2\n      dup7\n      gas\n      staticcall\n      iszero\n      dup1\n      iszero\n      tag_87\n      jumpi\n      returndatasize\n      0x00\n      dup1\n      returndatacopy\n      revert(0x00, returndatasize)\n    tag_87:\n      pop\n      pop\n      pop\n      pop\n      mload(0x40)\n      returndatasize\n      not(0x1f)\n      0x1f\n      dup3\n      add\n      and\n      dup3\n      add\n      dup1\n      0x40\n      mstore\n      pop\n      dup2\n      add\n      swap1\n      tag_88\n      swap2\n      swap1\n      tag_78\n      jump\t// in\n    tag_88:\n        /* \"contracts/PatientDataRevised.sol\":3606:3649  return rewardToken.balanceOf(address(this)) */\n      swap1\n      pop\n        /* \"contracts/PatientDataRevised.sol\":3533:3657  function contractTokenBalance() public view returns (uint256) {... */\n      swap1\n      jump\t// out\n        /* \"contracts/PatientDataRevised.sol\":1626:2274  function logHealthData(... */\n    tag_32:\n        /* \"contracts/PatientDataRevised.sol\":1807:1832  HealthData memory newData */\n      0x00\n        /* \"contracts/PatientDataRevised.sol\":1835:2041  HealthData({... */\n      mload(0x40)\n      dup1\n      0xa0\n      add\n      0x40\n      mstore\n      dup1\n        /* \"contracts/PatientDataRevised.sol\":1872:1887  block.timestamp */\n      timestamp\n        /* \"contracts/PatientDataRevised.sol\":1835:2041  HealthData({... */\n      dup2\n      mstore\n      0x20\n      add\n        /* \"contracts/PatientDataRevised.sol\":1916:1929  _glucoseLevel */\n      dup7\n        /* \"contracts/PatientDataRevised.sol\":1835:2041  HealthData({... */\n      dup2\n      mstore\n      0x20\n      add\n        /* \"contracts/PatientDataRevised.sol\":1956:1967  _medication */\n      dup6\n        /* \"contracts/PatientDataRevised.sol\":1835:2041  HealthData({... */\n      dup2\n      mstore\n      0x20\n      add\n        /* \"contracts/PatientDataRevised.sol\":1989:1995  _meals */\n      dup5\n        /* \"contracts/PatientDataRevised.sol\":1835:2041  HealthData({... */\n      dup2\n      mstore\n      0x20\n      add\n        /* \"contracts/PatientDataRevised.sol\":2020:2029  _exercise */\n      dup4\n        /* \"contracts/PatientDataRevised.sol\":1835:2041  HealthData({... */\n      dup2\n      mstore\n      pop\n        /* \"contracts/PatientDataRevised.sol\":1807:2041  HealthData memory newData = HealthData({... */\n      swap1\n      pop\n        /* \"contracts/PatientDataRevised.sol\":2052:2063  patientData */\n      0x01\n        /* \"contracts/PatientDataRevised.sol\":2052:2075  patientData[msg.sender] */\n      0x00\n        /* \"contracts/PatientDataRevised.sol\":2064:2074  msg.sender */\n      caller\n        /* \"contracts/PatientDataRevised.sol\":2052:2075  patientData[msg.sender] */\n      0xffffffffffffffffffffffffffffffffffffffff\n      and\n      0xffffffffffffffffffffffffffffffffffffffff\n      and\n      dup2\n      mstore\n      0x20\n      add\n      swap1\n      dup2\n      mstore\n      0x20\n      add\n      0x00\n      keccak256\n        /* \"contracts/PatientDataRevised.sol\":2081:2088  newData */\n      dup2\n        /* \"contracts/PatientDataRevised.sol\":2052:2089  patientData[msg.sender].push(newData) */\n      swap1\n      dup1\n      0x01\n      dup2\n      sload\n      add\n      dup1\n      dup3\n      sstore\n      dup1\n      swap2\n      pop\n      pop\n      0x01\n      swap1\n      sub\n      swap1\n      0x00\n      mstore\n      keccak256(0x00, 0x20)\n      swap1\n      0x05\n      mul\n      add\n      0x00\n      swap1\n      swap2\n      swap1\n      swap2\n      swap1\n      swap2\n      pop\n      0x00\n      dup3\n      add\n      mload\n      dup2\n      0x00\n      add\n      sstore\n      0x20\n      dup3\n      add\n      mload\n      dup2\n      0x01\n      add\n      sstore\n      0x40\n      dup3\n      add\n      mload\n      dup2\n      0x02\n      add\n      swap1\n      dup2\n      tag_91\n      swap2\n      swap1\n      tag_92\n      jump\t// in\n    tag_91:\n      pop\n      0x60\n      dup3\n      add\n      mload\n      dup2\n      0x03\n      add\n      swap1\n      dup2\n      tag_93\n      swap2\n      swap1\n      tag_92\n      jump\t// in\n    tag_93:\n      pop\n      0x80\n      dup3\n      add\n      mload\n      dup2\n      0x04\n      add\n      swap1\n      dup2\n      tag_94\n      swap2\n      swap1\n      tag_92\n      jump\t// in\n    tag_94:\n      pop\n      pop\n      pop\n        /* \"contracts/PatientDataRevised.sol\":2145:2195  rewardToken.safeTransfer(msg.sender, TOKEN_REWARD) */\n      tag_95\n        /* \"contracts/PatientDataRevised.sol\":2170:2180  msg.sender */\n      caller\n        /* \"contracts/PatientDataRevised.sol\":390:405  10 * (10 ** 18) */\n      0x8ac7230489e80000\n        /* \"contracts/PatientDataRevised.sol\":2145:2156  rewardToken */\n      0x00\n      dup1\n      sload\n      swap1\n      0x0100\n      exp\n      swap1\n      div\n      0xffffffffffffffffffffffffffffffffffffffff\n      and\n        /* \"contracts/PatientDataRevised.sol\":2145:2169  rewardToken.safeTransfer */\n      0xffffffffffffffffffffffffffffffffffffffff\n      and\n      tag_66\n      swap1\n        /* \"contracts/PatientDataRevised.sol\":2145:2195  rewardToken.safeTransfer(msg.sender, TOKEN_REWARD) */\n      swap3\n      swap2\n      swap1\n      0xffffffff\n      and\n      jump\t// in\n    tag_95:\n        /* \"contracts/PatientDataRevised.sol\":2224:2234  msg.sender */\n      caller\n        /* \"contracts/PatientDataRevised.sol\":2213:2266  DataLogged(msg.sender, block.timestamp, TOKEN_REWARD) */\n      0xffffffffffffffffffffffffffffffffffffffff\n      and\n      0x46b8550ac8f5f68f14d6a3540963578c9733e4ff2a4e7ca11cccdeeb0b521d67\n        /* \"contracts/PatientDataRevised.sol\":2236:2251  block.timestamp */\n      timestamp\n        /* \"contracts/PatientDataRevised.sol\":390:405  10 * (10 ** 18) */\n      0x8ac7230489e80000\n        /* \"contracts/PatientDataRevised.sol\":2213:2266  DataLogged(msg.sender, block.timestamp, TOKEN_REWARD) */\n      mload(0x40)\n      tag_96\n      swap3\n      swap2\n      swap1\n      tag_97\n      jump\t// in\n    tag_96:\n      mload(0x40)\n      dup1\n      swap2\n      sub\n      swap1\n      log2\n        /* \"contracts/PatientDataRevised.sol\":1796:2274  {... */\n      pop\n        /* \"contracts/PatientDataRevised.sol\":1626:2274  function logHealthData(... */\n      pop\n      pop\n      pop\n      pop\n      jump\t// out\n        /* \"contracts/PatientDataRevised.sol\":351:405  uint256 public constant TOKEN_REWARD = 10 * (10 ** 18) */\n    tag_34:\n        /* \"contracts/PatientDataRevised.sol\":390:405  10 * (10 ** 18) */\n      0x8ac7230489e80000\n        /* \"contracts/PatientDataRevised.sol\":351:405  uint256 public constant TOKEN_REWARD = 10 * (10 ** 18) */\n      dup2\n      jump\t// out\n        /* \"contracts/PatientDataRevised.sol\":284:309  IERC20 public rewardToken */\n    tag_37:\n      0x00\n      dup1\n      sload\n      swap1\n      0x0100\n      exp\n      swap1\n      div\n      0xffffffffffffffffffffffffffffffffffffffff\n      and\n      dup2\n      jump\t// out\n        /* \"@openzeppelin/contracts/token/ERC20/utils/SafeERC20.sol\":1219:1379  function safeTransfer(IERC20 token, address to, uint256 value) internal {... */\n    tag_66:\n        /* \"@openzeppelin/contracts/token/ERC20/utils/SafeERC20.sol\":1301:1372  _callOptionalReturn(token, abi.encodeCall(token.transfer, (to, value))) */\n      tag_99\n        /* \"@openzeppelin/contracts/token/ERC20/utils/SafeERC20.sol\":1321:1326  token */\n      dup4\n        /* \"@openzeppelin/contracts/token/ERC20/utils/SafeERC20.sol\":1343:1348  token */\n      dup5\n        /* \"@openzeppelin/contracts/token/ERC20/utils/SafeERC20.sol\":1343:1357  token.transfer */\n      0xffffffffffffffffffffffffffffffffffffffff\n      and\n      0xa9059cbb\n        /* \"@openzeppelin/contracts/token/ERC20/utils/SafeERC20.sol\":1360:1362  to */\n      dup6\n        /* \"@openzeppelin/contracts/token/ERC20/utils/SafeERC20.sol\":1364:1369  value */\n      dup6\n        /* \"@openzeppelin/contracts/token/ERC20/utils/SafeERC20.sol\":1328:1371  abi.encodeCall(token.transfer, (to, value)) */\n      add(0x24, mload(0x40))\n      tag_100\n      swap3\n      swap2\n      swap1\n      tag_101\n      jump\t// in\n    tag_100:\n      mload(0x40)\n      0x20\n      dup2\n      dup4\n      sub\n      sub\n      dup2\n      mstore\n      swap1\n      0x40\n      mstore\n      swap2\n      pop\n      0xe0\n      shl\n      0x20\n      dup3\n      add\n      dup1\n      mload\n      0xffffffffffffffffffffffffffffffffffffffffffffffffffffffff\n      dup4\n      dup2\n      dup4\n      and\n      or\n      dup4\n      mstore\n      pop\n      pop\n      pop\n      pop\n        /* \"@openzeppelin/contracts/token/ERC20/utils/SafeERC20.sol\":1301:1320  _callOptionalReturn */\n      tag_102\n        /* \"@openzeppelin/contracts/token/ERC20/utils/SafeERC20.sol\":1301:1372  _callOptionalReturn(token, abi.encodeCall(token.transfer, (to, value))) */\n      jump\t// in\n    tag_99:\n        /* \"@openzeppelin/contracts/token/ERC20/utils/SafeERC20.sol\":1219:1379  function safeTransfer(IERC20 token, address to, uint256 value) internal {... */\n      pop\n      pop\n      pop\n      jump\t// out\n        /* \"@openzeppelin/contracts/token/ERC20/utils/SafeERC20.sol\":7686:8406  function _callOptionalReturn(IERC20 token, bytes memory data) private {... */\n    tag_102:\n        /* \"@openzeppelin/contracts/token/ERC20/utils/SafeERC20.sol\":7766:7784  uint256 returnSize */\n      0x00\n        /* \"@openzeppelin/contracts/token/ERC20/utils/SafeERC20.sol\":7794:7813  uint256 returnValue */\n      dup1\n        /* \"@openzeppelin/contracts/token/ERC20/utils/SafeERC20.sol\":7932:7936  0x20 */\n      0x20\n        /* \"@openzeppelin/contracts/token/ERC20/utils/SafeERC20.sol\":7929:7930  0 */\n      0x00\n        /* \"@openzeppelin/contracts/token/ERC20/utils/SafeERC20.sol\":7922:7926  data */\n      dup5\n        /* \"@openzeppelin/contracts/token/ERC20/utils/SafeERC20.sol\":7916:7927  mload(data) */\n      mload\n        /* \"@openzeppelin/contracts/token/ERC20/utils/SafeERC20.sol\":7909:7913  0x20 */\n      0x20\n        /* \"@openzeppelin/contracts/token/ERC20/utils/SafeERC20.sol\":7903:7907  data */\n      dup7\n        /* \"@openzeppelin/contracts/token/ERC20/utils/SafeERC20.sol\":7899:7914  add(data, 0x20) */\n      add\n        /* \"@openzeppelin/contracts/token/ERC20/utils/SafeERC20.sol\":7896:7897  0 */\n      0x00\n        /* \"@openzeppelin/contracts/token/ERC20/utils/SafeERC20.sol\":7889:7894  token */\n      dup9\n        /* \"@openzeppelin/contracts/token/ERC20/utils/SafeERC20.sol\":7882:7887  gas() */\n      gas\n        /* \"@openzeppelin/contracts/token/ERC20/utils/SafeERC20.sol\":7877:7937  call(gas(), token, 0, add(data, 0x20), mload(data), 0, 0x20) */\n      call\n        /* \"@openzeppelin/contracts/token/ERC20/utils/SafeERC20.sol\":7989:7996  success */\n      dup1\n        /* \"@openzeppelin/contracts/token/ERC20/utils/SafeERC20.sol\":7979:8155  if iszero(success) {... */\n      tag_104\n      jumpi\n        /* \"@openzeppelin/contracts/token/ERC20/utils/SafeERC20.sol\":8033:8037  0x40 */\n      0x40\n        /* \"@openzeppelin/contracts/token/ERC20/utils/SafeERC20.sol\":8027:8038  mload(0x40) */\n      mload\n        /* \"@openzeppelin/contracts/token/ERC20/utils/SafeERC20.sol\":8078:8094  returndatasize() */\n      returndatasize\n        /* \"@openzeppelin/contracts/token/ERC20/utils/SafeERC20.sol\":8075:8076  0 */\n      0x00\n        /* \"@openzeppelin/contracts/token/ERC20/utils/SafeERC20.sol\":8070:8073  ptr */\n      dup3\n        /* \"@openzeppelin/contracts/token/ERC20/utils/SafeERC20.sol\":8055:8095  returndatacopy(ptr, 0, returndatasize()) */\n      returndatacopy\n        /* \"@openzeppelin/contracts/token/ERC20/utils/SafeERC20.sol\":8124:8140  returndatasize() */\n      returndatasize\n        /* \"@openzeppelin/contracts/token/ERC20/utils/SafeERC20.sol\":8119:8122  ptr */\n      dup2\n        /* \"@openzeppelin/contracts/token/ERC20/utils/SafeERC20.sol\":8112:8141  revert(ptr, returndatasize()) */\n      revert\n        /* \"@openzeppelin/contracts/token/ERC20/utils/SafeERC20.sol\":7979:8155  if iszero(success) {... */\n    tag_104:\n        /* \"@openzeppelin/contracts/token/ERC20/utils/SafeERC20.sol\":8182:8198  returndatasize() */\n      returndatasize\n        /* \"@openzeppelin/contracts/token/ERC20/utils/SafeERC20.sol\":8168:8198  returnSize := returndatasize() */\n      swap3\n      pop\n        /* \"@openzeppelin/contracts/token/ERC20/utils/SafeERC20.sol\":8232:8233  0 */\n      0x00\n        /* \"@openzeppelin/contracts/token/ERC20/utils/SafeERC20.sol\":8226:8234  mload(0) */\n      mload\n        /* \"@openzeppelin/contracts/token/ERC20/utils/SafeERC20.sol\":8211:8234  returnValue := mload(0) */\n      swap2\n      pop\n        /* \"@openzeppelin/contracts/token/ERC20/utils/SafeERC20.sol\":7848:8244  {... */\n      pop\n        /* \"@openzeppelin/contracts/token/ERC20/utils/SafeERC20.sol\":8272:8273  0 */\n      0x00\n        /* \"@openzeppelin/contracts/token/ERC20/utils/SafeERC20.sol\":8258:8268  returnSize */\n      dup3\n        /* \"@openzeppelin/contracts/token/ERC20/utils/SafeERC20.sol\":8258:8273  returnSize == 0 */\n      eq\n        /* \"@openzeppelin/contracts/token/ERC20/utils/SafeERC20.sol\":8258:8326  returnSize == 0 ? address(token).code.length == 0 : returnValue != 1 */\n      tag_105\n      jumpi\n        /* \"@openzeppelin/contracts/token/ERC20/utils/SafeERC20.sol\":8325:8326  1 */\n      0x01\n        /* \"@openzeppelin/contracts/token/ERC20/utils/SafeERC20.sol\":8310:8321  returnValue */\n      dup2\n        /* \"@openzeppelin/contracts/token/ERC20/utils/SafeERC20.sol\":8310:8326  returnValue != 1 */\n      eq\n      iszero\n        /* \"@openzeppelin/contracts/token/ERC20/utils/SafeERC20.sol\":8258:8326  returnSize == 0 ? address(token).code.length == 0 : returnValue != 1 */\n      jump(tag_106)\n    tag_105:\n        /* \"@openzeppelin/contracts/token/ERC20/utils/SafeERC20.sol\":8306:8307  0 */\n      0x00\n        /* \"@openzeppelin/contracts/token/ERC20/utils/SafeERC20.sol\":8284:8289  token */\n      dup5\n        /* \"@openzeppelin/contracts/token/ERC20/utils/SafeERC20.sol\":8276:8302  address(token).code.length */\n      0xffffffffffffffffffffffffffffffffffffffff\n      and\n      extcodesize\n        /* \"@openzeppelin/contracts/token/ERC20/utils/SafeERC20.sol\":8276:8307  address(token).code.length == 0 */\n      eq\n        /* \"@openzeppelin/contracts/token/ERC20/utils/SafeERC20.sol\":8258:8326  returnSize == 0 ? address(token).code.length == 0 : returnValue != 1 */\n    tag_106:\n        /* \"@openzeppelin/contracts/token/ERC20/utils/SafeERC20.sol\":8254:8400  if (returnSize == 0 ? address(token).code.length == 0 : returnValue != 1) {... */\n      iszero\n      tag_107\n      jumpi\n        /* \"@openzeppelin/contracts/token/ERC20/utils/SafeERC20.sol\":8382:8387  token */\n      dup4\n        /* \"@openzeppelin/contracts/token/ERC20/utils/SafeERC20.sol\":8349:8389  SafeERC20FailedOperation(address(token)) */\n      mload(0x40)\n      0x5274afe700000000000000000000000000000000000000000000000000000000\n      dup2\n      mstore\n      0x04\n      add\n      tag_108\n      swap2\n      swap1\n      tag_74\n      jump\t// in\n    tag_108:\n      mload(0x40)\n      dup1\n      swap2\n      sub\n      swap1\n      revert\n        /* \"@openzeppelin/contracts/token/ERC20/utils/SafeERC20.sol\":8254:8400  if (returnSize == 0 ? address(token).code.length == 0 : returnValue != 1) {... */\n    tag_107:\n        /* \"@openzeppelin/contracts/token/ERC20/utils/SafeERC20.sol\":7756:8406  {... */\n      pop\n      pop\n        /* \"@openzeppelin/contracts/token/ERC20/utils/SafeERC20.sol\":7686:8406  function _callOptionalReturn(IERC20 token, bytes memory data) private {... */\n      pop\n      pop\n      jump\t// out\n        /* \"#utility.yul\":7:82   */\n    tag_109:\n        /* \"#utility.yul\":40:46   */\n      0x00\n        /* \"#utility.yul\":73:75   */\n      0x40\n        /* \"#utility.yul\":67:76   */\n      mload\n        /* \"#utility.yul\":57:76   */\n      swap1\n      pop\n        /* \"#utility.yul\":7:82   */\n      swap1\n      jump\t// out\n        /* \"#utility.yul\":88:205   */\n    tag_110:\n        /* \"#utility.yul\":197:198   */\n      0x00\n        /* \"#utility.yul\":194:195   */\n      dup1\n        /* \"#utility.yul\":187:199   */\n      revert\n        /* \"#utility.yul\":211:328   */\n    tag_111:\n        /* \"#utility.yul\":320:321   */\n      0x00\n        /* \"#utility.yul\":317:318   */\n      dup1\n        /* \"#utility.yul\":310:322   */\n      revert\n        /* \"#utility.yul\":334:460   */\n    tag_112:\n        /* \"#utility.yul\":371:378   */\n      0x00\n        /* \"#utility.yul\":411:453   */\n      0xffffffffffffffffffffffffffffffffffffffff\n        /* \"#utility.yul\":404:409   */\n      dup3\n        /* \"#utility.yul\":400:454   */\n      and\n        /* \"#utility.yul\":389:454   */\n      swap1\n      pop\n        /* \"#utility.yul\":334:460   */\n      swap2\n      swap1\n      pop\n      jump\t// out\n        /* \"#utility.yul\":466:562   */\n    tag_113:\n        /* \"#utility.yul\":503:510   */\n      0x00\n        /* \"#utility.yul\":532:556   */\n      tag_181\n        /* \"#utility.yul\":550:555   */\n      dup3\n        /* \"#utility.yul\":532:556   */\n      tag_112\n      jump\t// in\n    tag_181:\n        /* \"#utility.yul\":521:556   */\n      swap1\n      pop\n        /* \"#utility.yul\":466:562   */\n      swap2\n      swap1\n      pop\n      jump\t// out\n        /* \"#utility.yul\":568:690   */\n    tag_114:\n        /* \"#utility.yul\":641:665   */\n      tag_183\n        /* \"#utility.yul\":659:664   */\n      dup2\n        /* \"#utility.yul\":641:665   */\n      tag_113\n      jump\t// in\n    tag_183:\n        /* \"#utility.yul\":634:639   */\n      dup2\n        /* \"#utility.yul\":631:666   */\n      eq\n        /* \"#utility.yul\":621:684   */\n      tag_184\n      jumpi\n        /* \"#utility.yul\":680:681   */\n      0x00\n        /* \"#utility.yul\":677:678   */\n      dup1\n        /* \"#utility.yul\":670:682   */\n      revert\n        /* \"#utility.yul\":621:684   */\n    tag_184:\n        /* \"#utility.yul\":568:690   */\n      pop\n      jump\t// out\n        /* \"#utility.yul\":696:835   */\n    tag_115:\n        /* \"#utility.yul\":742:747   */\n      0x00\n        /* \"#utility.yul\":780:786   */\n      dup2\n        /* \"#utility.yul\":767:787   */\n      calldataload\n        /* \"#utility.yul\":758:787   */\n      swap1\n      pop\n        /* \"#utility.yul\":796:829   */\n      tag_186\n        /* \"#utility.yul\":823:828   */\n      dup2\n        /* \"#utility.yul\":796:829   */\n      tag_114\n      jump\t// in\n    tag_186:\n        /* \"#utility.yul\":696:835   */\n      swap3\n      swap2\n      pop\n      pop\n      jump\t// out\n        /* \"#utility.yul\":841:1170   */\n    tag_13:\n        /* \"#utility.yul\":900:906   */\n      0x00\n        /* \"#utility.yul\":949:951   */\n      0x20\n        /* \"#utility.yul\":937:946   */\n      dup3\n        /* \"#utility.yul\":928:935   */\n      dup5\n        /* \"#utility.yul\":924:947   */\n      sub\n        /* \"#utility.yul\":920:952   */\n      slt\n        /* \"#utility.yul\":917:1036   */\n      iszero\n      tag_188\n      jumpi\n        /* \"#utility.yul\":955:1034   */\n      tag_189\n      tag_110\n      jump\t// in\n    tag_189:\n        /* \"#utility.yul\":917:1036   */\n    tag_188:\n        /* \"#utility.yul\":1075:1076   */\n      0x00\n        /* \"#utility.yul\":1100:1153   */\n      tag_190\n        /* \"#utility.yul\":1145:1152   */\n      dup5\n        /* \"#utility.yul\":1136:1142   */\n      dup3\n        /* \"#utility.yul\":1125:1134   */\n      dup6\n        /* \"#utility.yul\":1121:1143   */\n      add\n        /* \"#utility.yul\":1100:1153   */\n      tag_115\n      jump\t// in\n    tag_190:\n        /* \"#utility.yul\":1090:1153   */\n      swap2\n      pop\n        /* \"#utility.yul\":1046:1163   */\n      pop\n        /* \"#utility.yul\":841:1170   */\n      swap3\n      swap2\n      pop\n      pop\n      jump\t// out\n        /* \"#utility.yul\":1176:1317   */\n    tag_116:\n        /* \"#utility.yul\":1270:1276   */\n      0x00\n        /* \"#utility.yul\":1304:1309   */\n      dup2\n        /* \"#utility.yul\":1298:1310   */\n      mload\n        /* \"#utility.yul\":1288:1310   */\n      swap1\n      pop\n        /* \"#utility.yul\":1176:1317   */\n      swap2\n      swap1\n      pop\n      jump\t// out\n        /* \"#utility.yul\":1323:1534   */\n    tag_117:\n        /* \"#utility.yul\":1449:1460   */\n      0x00\n        /* \"#utility.yul\":1483:1489   */\n      dup3\n        /* \"#utility.yul\":1478:1481   */\n      dup3\n        /* \"#utility.yul\":1471:1490   */\n      mstore\n        /* \"#utility.yul\":1523:1527   */\n      0x20\n        /* \"#utility.yul\":1518:1521   */\n      dup3\n        /* \"#utility.yul\":1514:1528   */\n      add\n        /* \"#utility.yul\":1499:1528   */\n      swap1\n      pop\n        /* \"#utility.yul\":1323:1534   */\n      swap3\n      swap2\n      pop\n      pop\n      jump\t// out\n        /* \"#utility.yul\":1540:1699   */\n    tag_118:\n        /* \"#utility.yul\":1634:1638   */\n      0x00\n        /* \"#utility.yul\":1657:1660   */\n      dup2\n        /* \"#utility.yul\":1649:1660   */\n      swap1\n      pop\n        /* \"#utility.yul\":1687:1691   */\n      0x20\n        /* \"#utility.yul\":1682:1685   */\n      dup3\n        /* \"#utility.yul\":1678:1692   */\n      add\n        /* \"#utility.yul\":1670:1692   */\n      swap1\n      pop\n        /* \"#utility.yul\":1540:1699   */\n      swap2\n      swap1\n      pop\n      jump\t// out\n        /* \"#utility.yul\":1705:1782   */\n    tag_119:\n        /* \"#utility.yul\":1742:1749   */\n      0x00\n        /* \"#utility.yul\":1771:1776   */\n      dup2\n        /* \"#utility.yul\":1760:1776   */\n      swap1\n      pop\n        /* \"#utility.yul\":1705:1782   */\n      swap2\n      swap1\n      pop\n      jump\t// out\n        /* \"#utility.yul\":1788:1896   */\n    tag_120:\n        /* \"#utility.yul\":1865:1889   */\n      tag_196\n        /* \"#utility.yul\":1883:1888   */\n      dup2\n        /* \"#utility.yul\":1865:1889   */\n      tag_119\n      jump\t// in\n    tag_196:\n        /* \"#utility.yul\":1860:1863   */\n      dup3\n        /* \"#utility.yul\":1853:1890   */\n      mstore\n        /* \"#utility.yul\":1788:1896   */\n      pop\n      pop\n      jump\t// out\n        /* \"#utility.yul\":1902:2001   */\n    tag_121:\n        /* \"#utility.yul\":1954:1960   */\n      0x00\n        /* \"#utility.yul\":1988:1993   */\n      dup2\n        /* \"#utility.yul\":1982:1994   */\n      mload\n        /* \"#utility.yul\":1972:1994   */\n      swap1\n      pop\n        /* \"#utility.yul\":1902:2001   */\n      swap2\n      swap1\n      pop\n      jump\t// out\n        /* \"#utility.yul\":2007:2166   */\n    tag_122:\n        /* \"#utility.yul\":2081:2092   */\n      0x00\n        /* \"#utility.yul\":2115:2121   */\n      dup3\n        /* \"#utility.yul\":2110:2113   */\n      dup3\n        /* \"#utility.yul\":2103:2122   */\n      mstore\n        /* \"#utility.yul\":2155:2159   */\n      0x20\n        /* \"#utility.yul\":2150:2153   */\n      dup3\n        /* \"#utility.yul\":2146:2160   */\n      add\n        /* \"#utility.yul\":2131:2160   */\n      swap1\n      pop\n        /* \"#utility.yul\":2007:2166   */\n      swap3\n      swap2\n      pop\n      pop\n      jump\t// out\n        /* \"#utility.yul\":2172:2311   */\n    tag_123:\n        /* \"#utility.yul\":2261:2267   */\n      dup3\n        /* \"#utility.yul\":2256:2259   */\n      dup2\n        /* \"#utility.yul\":2251:2254   */\n      dup4\n        /* \"#utility.yul\":2245:2268   */\n      mcopy\n        /* \"#utility.yul\":2302:2303   */\n      0x00\n        /* \"#utility.yul\":2293:2299   */\n      dup4\n        /* \"#utility.yul\":2288:2291   */\n      dup4\n        /* \"#utility.yul\":2284:2300   */\n      add\n        /* \"#utility.yul\":2277:2304   */\n      mstore\n        /* \"#utility.yul\":2172:2311   */\n      pop\n      pop\n      pop\n      jump\t// out\n        /* \"#utility.yul\":2317:2419   */\n    tag_124:\n        /* \"#utility.yul\":2358:2364   */\n      0x00\n        /* \"#utility.yul\":2409:2411   */\n      0x1f\n        /* \"#utility.yul\":2405:2412   */\n      not\n        /* \"#utility.yul\":2400:2402   */\n      0x1f\n        /* \"#utility.yul\":2393:2398   */\n      dup4\n        /* \"#utility.yul\":2389:2403   */\n      add\n        /* \"#utility.yul\":2385:2413   */\n      and\n        /* \"#utility.yul\":2375:2413   */\n      swap1\n      pop\n        /* \"#utility.yul\":2317:2419   */\n      swap2\n      swap1\n      pop\n      jump\t// out\n        /* \"#utility.yul\":2425:2782   */\n    tag_125:\n        /* \"#utility.yul\":2503:2506   */\n      0x00\n        /* \"#utility.yul\":2531:2570   */\n      tag_202\n        /* \"#utility.yul\":2564:2569   */\n      dup3\n        /* \"#utility.yul\":2531:2570   */\n      tag_121\n      jump\t// in\n    tag_202:\n        /* \"#utility.yul\":2586:2647   */\n      tag_203\n        /* \"#utility.yul\":2640:2646   */\n      dup2\n        /* \"#utility.yul\":2635:2638   */\n      dup6\n        /* \"#utility.yul\":2586:2647   */\n      tag_122\n      jump\t// in\n    tag_203:\n        /* \"#utility.yul\":2579:2647   */\n      swap4\n      pop\n        /* \"#utility.yul\":2656:2721   */\n      tag_204\n        /* \"#utility.yul\":2714:2720   */\n      dup2\n        /* \"#utility.yul\":2709:2712   */\n      dup6\n        /* \"#utility.yul\":2702:2706   */\n      0x20\n        /* \"#utility.yul\":2695:2700   */\n      dup7\n        /* \"#utility.yul\":2691:2707   */\n      add\n        /* \"#utility.yul\":2656:2721   */\n      tag_123\n      jump\t// in\n    tag_204:\n        /* \"#utility.yul\":2746:2775   */\n      tag_205\n        /* \"#utility.yul\":2768:2774   */\n      dup2\n        /* \"#utility.yul\":2746:2775   */\n      tag_124\n      jump\t// in\n    tag_205:\n        /* \"#utility.yul\":2741:2744   */\n      dup5\n        /* \"#utility.yul\":2737:2776   */\n      add\n        /* \"#utility.yul\":2730:2776   */\n      swap2\n      pop\n        /* \"#utility.yul\":2507:2782   */\n      pop\n        /* \"#utility.yul\":2425:2782   */\n      swap3\n      swap2\n      pop\n      pop\n      jump\t// out\n        /* \"#utility.yul\":2878:4166   */\n    tag_126:\n        /* \"#utility.yul\":2991:2994   */\n      0x00\n        /* \"#utility.yul\":3027:3031   */\n      0xa0\n        /* \"#utility.yul\":3022:3025   */\n      dup4\n        /* \"#utility.yul\":3018:3032   */\n      add\n        /* \"#utility.yul\":3119:3123   */\n      0x00\n        /* \"#utility.yul\":3112:3117   */\n      dup4\n        /* \"#utility.yul\":3108:3124   */\n      add\n        /* \"#utility.yul\":3102:3125   */\n      mload\n        /* \"#utility.yul\":3138:3201   */\n      tag_207\n        /* \"#utility.yul\":3195:3199   */\n      0x00\n        /* \"#utility.yul\":3190:3193   */\n      dup7\n        /* \"#utility.yul\":3186:3200   */\n      add\n        /* \"#utility.yul\":3172:3184   */\n      dup3\n        /* \"#utility.yul\":3138:3201   */\n      tag_120\n      jump\t// in\n    tag_207:\n        /* \"#utility.yul\":3042:3211   */\n      pop\n        /* \"#utility.yul\":3301:3305   */\n      0x20\n        /* \"#utility.yul\":3294:3299   */\n      dup4\n        /* \"#utility.yul\":3290:3306   */\n      add\n        /* \"#utility.yul\":3284:3307   */\n      mload\n        /* \"#utility.yul\":3320:3383   */\n      tag_208\n        /* \"#utility.yul\":3377:3381   */\n      0x20\n        /* \"#utility.yul\":3372:3375   */\n      dup7\n        /* \"#utility.yul\":3368:3382   */\n      add\n        /* \"#utility.yul\":3354:3366   */\n      dup3\n        /* \"#utility.yul\":3320:3383   */\n      tag_120\n      jump\t// in\n    tag_208:\n        /* \"#utility.yul\":3221:3393   */\n      pop\n        /* \"#utility.yul\":3481:3485   */\n      0x40\n        /* \"#utility.yul\":3474:3479   */\n      dup4\n        /* \"#utility.yul\":3470:3486   */\n      add\n        /* \"#utility.yul\":3464:3487   */\n      mload\n        /* \"#utility.yul\":3534:3537   */\n      dup5\n        /* \"#utility.yul\":3528:3532   */\n      dup3\n        /* \"#utility.yul\":3524:3538   */\n      sub\n        /* \"#utility.yul\":3517:3521   */\n      0x40\n        /* \"#utility.yul\":3512:3515   */\n      dup7\n        /* \"#utility.yul\":3508:3522   */\n      add\n        /* \"#utility.yul\":3501:3539   */\n      mstore\n        /* \"#utility.yul\":3560:3633   */\n      tag_209\n        /* \"#utility.yul\":3628:3632   */\n      dup3\n        /* \"#utility.yul\":3614:3626   */\n      dup3\n        /* \"#utility.yul\":3560:3633   */\n      tag_125\n      jump\t// in\n    tag_209:\n        /* \"#utility.yul\":3552:3633   */\n      swap2\n      pop\n        /* \"#utility.yul\":3403:3644   */\n      pop\n        /* \"#utility.yul\":3727:3731   */\n      0x60\n        /* \"#utility.yul\":3720:3725   */\n      dup4\n        /* \"#utility.yul\":3716:3732   */\n      add\n        /* \"#utility.yul\":3710:3733   */\n      mload\n        /* \"#utility.yul\":3780:3783   */\n      dup5\n        /* \"#utility.yul\":3774:3778   */\n      dup3\n        /* \"#utility.yul\":3770:3784   */\n      sub\n        /* \"#utility.yul\":3763:3767   */\n      0x60\n        /* \"#utility.yul\":3758:3761   */\n      dup7\n        /* \"#utility.yul\":3754:3768   */\n      add\n        /* \"#utility.yul\":3747:3785   */\n      mstore\n        /* \"#utility.yul\":3806:3879   */\n      tag_210\n        /* \"#utility.yul\":3874:3878   */\n      dup3\n        /* \"#utility.yul\":3860:3872   */\n      dup3\n        /* \"#utility.yul\":3806:3879   */\n      tag_125\n      jump\t// in\n    tag_210:\n        /* \"#utility.yul\":3798:3879   */\n      swap2\n      pop\n        /* \"#utility.yul\":3654:3890   */\n      pop\n        /* \"#utility.yul\":3976:3980   */\n      0x80\n        /* \"#utility.yul\":3969:3974   */\n      dup4\n        /* \"#utility.yul\":3965:3981   */\n      add\n        /* \"#utility.yul\":3959:3982   */\n      mload\n        /* \"#utility.yul\":4029:4032   */\n      dup5\n        /* \"#utility.yul\":4023:4027   */\n      dup3\n        /* \"#utility.yul\":4019:4033   */\n      sub\n        /* \"#utility.yul\":4012:4016   */\n      0x80\n        /* \"#utility.yul\":4007:4010   */\n      dup7\n        /* \"#utility.yul\":4003:4017   */\n      add\n        /* \"#utility.yul\":3996:4034   */\n      mstore\n        /* \"#utility.yul\":4055:4128   */\n      tag_211\n        /* \"#utility.yul\":4123:4127   */\n      dup3\n        /* \"#utility.yul\":4109:4121   */\n      dup3\n        /* \"#utility.yul\":4055:4128   */\n      tag_125\n      jump\t// in\n    tag_211:\n        /* \"#utility.yul\":4047:4128   */\n      swap2\n      pop\n        /* \"#utility.yul\":3900:4139   */\n      pop\n        /* \"#utility.yul\":4156:4160   */\n      dup1\n        /* \"#utility.yul\":4149:4160   */\n      swap2\n      pop\n        /* \"#utility.yul\":2996:4166   */\n      pop\n        /* \"#utility.yul\":2878:4166   */\n      swap3\n      swap2\n      pop\n      pop\n      jump\t// out\n        /* \"#utility.yul\":4172:4436   */\n    tag_127:\n        /* \"#utility.yul\":4295:4305   */\n      0x00\n        /* \"#utility.yul\":4330:4430   */\n      tag_213\n        /* \"#utility.yul\":4426:4429   */\n      dup4\n        /* \"#utility.yul\":4418:4424   */\n      dup4\n        /* \"#utility.yul\":4330:4430   */\n      tag_126\n      jump\t// in\n    tag_213:\n        /* \"#utility.yul\":4316:4430   */\n      swap1\n      pop\n        /* \"#utility.yul\":4172:4436   */\n      swap3\n      swap2\n      pop\n      pop\n      jump\t// out\n        /* \"#utility.yul\":4442:4582   */\n    tag_128:\n        /* \"#utility.yul\":4539:4543   */\n      0x00\n        /* \"#utility.yul\":4571:4575   */\n      0x20\n        /* \"#utility.yul\":4566:4569   */\n      dup3\n        /* \"#utility.yul\":4562:4576   */\n      add\n        /* \"#utility.yul\":4554:4576   */\n      swap1\n      pop\n        /* \"#utility.yul\":4442:4582   */\n      swap2\n      swap1\n      pop\n      jump\t// out\n        /* \"#utility.yul\":4682:5809   */\n    tag_129:\n        /* \"#utility.yul\":4855:4858   */\n      0x00\n        /* \"#utility.yul\":4884:4965   */\n      tag_216\n        /* \"#utility.yul\":4959:4964   */\n      dup3\n        /* \"#utility.yul\":4884:4965   */\n      tag_116\n      jump\t// in\n    tag_216:\n        /* \"#utility.yul\":4981:5094   */\n      tag_217\n        /* \"#utility.yul\":5087:5093   */\n      dup2\n        /* \"#utility.yul\":5082:5085   */\n      dup6\n        /* \"#utility.yul\":4981:5094   */\n      tag_117\n      jump\t// in\n    tag_217:\n        /* \"#utility.yul\":4974:5094   */\n      swap4\n      pop\n        /* \"#utility.yul\":5120:5123   */\n      dup4\n        /* \"#utility.yul\":5165:5169   */\n      0x20\n        /* \"#utility.yul\":5157:5163   */\n      dup3\n        /* \"#utility.yul\":5153:5170   */\n      mul\n        /* \"#utility.yul\":5148:5151   */\n      dup6\n        /* \"#utility.yul\":5144:5171   */\n      add\n        /* \"#utility.yul\":5195:5278   */\n      tag_218\n        /* \"#utility.yul\":5272:5277   */\n      dup6\n        /* \"#utility.yul\":5195:5278   */\n      tag_118\n      jump\t// in\n    tag_218:\n        /* \"#utility.yul\":5301:5308   */\n      dup1\n        /* \"#utility.yul\":5332:5333   */\n      0x00\n        /* \"#utility.yul\":5317:5764   */\n    tag_219:\n        /* \"#utility.yul\":5342:5348   */\n      dup6\n        /* \"#utility.yul\":5339:5340   */\n      dup2\n        /* \"#utility.yul\":5336:5349   */\n      lt\n        /* \"#utility.yul\":5317:5764   */\n      iszero\n      tag_221\n      jumpi\n        /* \"#utility.yul\":5413:5422   */\n      dup5\n        /* \"#utility.yul\":5407:5411   */\n      dup5\n        /* \"#utility.yul\":5403:5423   */\n      sub\n        /* \"#utility.yul\":5398:5401   */\n      dup10\n        /* \"#utility.yul\":5391:5424   */\n      mstore\n        /* \"#utility.yul\":5464:5470   */\n      dup2\n        /* \"#utility.yul\":5458:5471   */\n      mload\n        /* \"#utility.yul\":5492:5610   */\n      tag_222\n        /* \"#utility.yul\":5605:5609   */\n      dup6\n        /* \"#utility.yul\":5590:5603   */\n      dup3\n        /* \"#utility.yul\":5492:5610   */\n      tag_127\n      jump\t// in\n    tag_222:\n        /* \"#utility.yul\":5484:5610   */\n      swap5\n      pop\n        /* \"#utility.yul\":5633:5720   */\n      tag_223\n        /* \"#utility.yul\":5713:5719   */\n      dup4\n        /* \"#utility.yul\":5633:5720   */\n      tag_128\n      jump\t// in\n    tag_223:\n        /* \"#utility.yul\":5623:5720   */\n      swap3\n      pop\n        /* \"#utility.yul\":5749:5753   */\n      0x20\n        /* \"#utility.yul\":5744:5747   */\n      dup11\n        /* \"#utility.yul\":5740:5754   */\n      add\n        /* \"#utility.yul\":5733:5754   */\n      swap10\n      pop\n        /* \"#utility.yul\":5377:5764   */\n      pop\n        /* \"#utility.yul\":5364:5365   */\n      0x01\n        /* \"#utility.yul\":5361:5362   */\n      dup2\n        /* \"#utility.yul\":5357:5366   */\n      add\n        /* \"#utility.yul\":5352:5366   */\n      swap1\n      pop\n        /* \"#utility.yul\":5317:5764   */\n      jump(tag_219)\n    tag_221:\n        /* \"#utility.yul\":5321:5335   */\n      pop\n        /* \"#utility.yul\":5780:5784   */\n      dup3\n        /* \"#utility.yul\":5773:5784   */\n      swap8\n      pop\n        /* \"#utility.yul\":5800:5803   */\n      dup8\n        /* \"#utility.yul\":5793:5803   */\n      swap6\n      pop\n        /* \"#utility.yul\":4860:5809   */\n      pop\n      pop\n      pop\n      pop\n      pop\n        /* \"#utility.yul\":4682:5809   */\n      swap3\n      swap2\n      pop\n      pop\n      jump\t// out\n        /* \"#utility.yul\":5815:6296   */\n    tag_16:\n        /* \"#utility.yul\":6012:6016   */\n      0x00\n        /* \"#utility.yul\":6050:6052   */\n      0x20\n        /* \"#utility.yul\":6039:6048   */\n      dup3\n        /* \"#utility.yul\":6035:6053   */\n      add\n        /* \"#utility.yul\":6027:6053   */\n      swap1\n      pop\n        /* \"#utility.yul\":6099:6108   */\n      dup2\n        /* \"#utility.yul\":6093:6097   */\n      dup2\n        /* \"#utility.yul\":6089:6109   */\n      sub\n        /* \"#utility.yul\":6085:6086   */\n      0x00\n        /* \"#utility.yul\":6074:6083   */\n      dup4\n        /* \"#utility.yul\":6070:6087   */\n      add\n        /* \"#utility.yul\":6063:6110   */\n      mstore\n        /* \"#utility.yul\":6127:6289   */\n      tag_225\n        /* \"#utility.yul\":6284:6288   */\n      dup2\n        /* \"#utility.yul\":6275:6281   */\n      dup5\n        /* \"#utility.yul\":6127:6289   */\n      tag_129\n      jump\t// in\n    tag_225:\n        /* \"#utility.yul\":6119:6289   */\n      swap1\n      pop\n        /* \"#utility.yul\":5815:6296   */\n      swap3\n      swap2\n      pop\n      pop\n      jump\t// out\n        /* \"#utility.yul\":6302:6392   */\n    tag_130:\n        /* \"#utility.yul\":6336:6343   */\n      0x00\n        /* \"#utility.yul\":6379:6384   */\n      dup2\n        /* \"#utility.yul\":6372:6385   */\n      iszero\n        /* \"#utility.yul\":6365:6386   */\n      iszero\n        /* \"#utility.yul\":6354:6386   */\n      swap1\n      pop\n        /* \"#utility.yul\":6302:6392   */\n      swap2\n      swap1\n      pop\n      jump\t// out\n        /* \"#utility.yul\":6398:6514   */\n    tag_131:\n        /* \"#utility.yul\":6468:6489   */\n      tag_228\n        /* \"#utility.yul\":6483:6488   */\n      dup2\n        /* \"#utility.yul\":6468:6489   */\n      tag_130\n      jump\t// in\n    tag_228:\n        /* \"#utility.yul\":6461:6466   */\n      dup2\n        /* \"#utility.yul\":6458:6490   */\n      eq\n        /* \"#utility.yul\":6448:6508   */\n      tag_229\n      jumpi\n        /* \"#utility.yul\":6504:6505   */\n      0x00\n        /* \"#utility.yul\":6501:6502   */\n      dup1\n        /* \"#utility.yul\":6494:6506   */\n      revert\n        /* \"#utility.yul\":6448:6508   */\n    tag_229:\n        /* \"#utility.yul\":6398:6514   */\n      pop\n      jump\t// out\n        /* \"#utility.yul\":6520:6653   */\n    tag_132:\n        /* \"#utility.yul\":6563:6568   */\n      0x00\n        /* \"#utility.yul\":6601:6607   */\n      dup2\n        /* \"#utility.yul\":6588:6608   */\n      calldataload\n        /* \"#utility.yul\":6579:6608   */\n      swap1\n      pop\n        /* \"#utility.yul\":6617:6647   */\n      tag_231\n        /* \"#utility.yul\":6641:6646   */\n      dup2\n        /* \"#utility.yul\":6617:6647   */\n      tag_131\n      jump\t// in\n    tag_231:\n        /* \"#utility.yul\":6520:6653   */\n      swap3\n      swap2\n      pop\n      pop\n      jump\t// out\n        /* \"#utility.yul\":6659:7127   */\n    tag_19:\n        /* \"#utility.yul\":6724:6730   */\n      0x00\n        /* \"#utility.yul\":6732:6738   */\n      dup1\n        /* \"#utility.yul\":6781:6783   */\n      0x40\n        /* \"#utility.yul\":6769:6778   */\n      dup4\n        /* \"#utility.yul\":6760:6767   */\n      dup6\n        /* \"#utility.yul\":6756:6779   */\n      sub\n        /* \"#utility.yul\":6752:6784   */\n      slt\n        /* \"#utility.yul\":6749:6868   */\n      iszero\n      tag_233\n      jumpi\n        /* \"#utility.yul\":6787:6866   */\n      tag_234\n      tag_110\n      jump\t// in\n    tag_234:\n        /* \"#utility.yul\":6749:6868   */\n    tag_233:\n        /* \"#utility.yul\":6907:6908   */\n      0x00\n        /* \"#utility.yul\":6932:6985   */\n      tag_235\n        /* \"#utility.yul\":6977:6984   */\n      dup6\n        /* \"#utility.yul\":6968:6974   */\n      dup3\n        /* \"#utility.yul\":6957:6966   */\n      dup7\n        /* \"#utility.yul\":6953:6975   */\n      add\n        /* \"#utility.yul\":6932:6985   */\n      tag_115\n      jump\t// in\n    tag_235:\n        /* \"#utility.yul\":6922:6985   */\n      swap3\n      pop\n        /* \"#utility.yul\":6878:6995   */\n      pop\n        /* \"#utility.yul\":7034:7036   */\n      0x20\n        /* \"#utility.yul\":7060:7110   */\n      tag_236\n        /* \"#utility.yul\":7102:7109   */\n      dup6\n        /* \"#utility.yul\":7093:7099   */\n      dup3\n        /* \"#utility.yul\":7082:7091   */\n      dup7\n        /* \"#utility.yul\":7078:7100   */\n      add\n        /* \"#utility.yul\":7060:7110   */\n      tag_132\n      jump\t// in\n    tag_236:\n        /* \"#utility.yul\":7050:7110   */\n      swap2\n      pop\n        /* \"#utility.yul\":7005:7120   */\n      pop\n        /* \"#utility.yul\":6659:7127   */\n      swap3\n      pop\n      swap3\n      swap1\n      pop\n      jump\t// out\n        /* \"#utility.yul\":7133:7255   */\n    tag_133:\n        /* \"#utility.yul\":7206:7230   */\n      tag_238\n        /* \"#utility.yul\":7224:7229   */\n      dup2\n        /* \"#utility.yul\":7206:7230   */\n      tag_119\n      jump\t// in\n    tag_238:\n        /* \"#utility.yul\":7199:7204   */\n      dup2\n        /* \"#utility.yul\":7196:7231   */\n      eq\n        /* \"#utility.yul\":7186:7249   */\n      tag_239\n      jumpi\n        /* \"#utility.yul\":7245:7246   */\n      0x00\n        /* \"#utility.yul\":7242:7243   */\n      dup1\n        /* \"#utility.yul\":7235:7247   */\n      revert\n        /* \"#utility.yul\":7186:7249   */\n    tag_239:\n        /* \"#utility.yul\":7133:7255   */\n      pop\n      jump\t// out\n        /* \"#utility.yul\":7261:7400   */\n    tag_134:\n        /* \"#utility.yul\":7307:7312   */\n      0x00\n        /* \"#utility.yul\":7345:7351   */\n      dup2\n        /* \"#utility.yul\":7332:7352   */\n      calldataload\n        /* \"#utility.yul\":7323:7352   */\n      swap1\n      pop\n        /* \"#utility.yul\":7361:7394   */\n      tag_241\n        /* \"#utility.yul\":7388:7393   */\n      dup2\n        /* \"#utility.yul\":7361:7394   */\n      tag_133\n      jump\t// in\n    tag_241:\n        /* \"#utility.yul\":7261:7400   */\n      swap3\n      swap2\n      pop\n      pop\n      jump\t// out\n        /* \"#utility.yul\":7406:7735   */\n    tag_23:\n        /* \"#utility.yul\":7465:7471   */\n      0x00\n        /* \"#utility.yul\":7514:7516   */\n      0x20\n        /* \"#utility.yul\":7502:7511   */\n      dup3\n        /* \"#utility.yul\":7493:7500   */\n      dup5\n        /* \"#utility.yul\":7489:7512   */\n      sub\n        /* \"#utility.yul\":7485:7517   */\n      slt\n        /* \"#utility.yul\":7482:7601   */\n      iszero\n      tag_243\n      jumpi\n        /* \"#utility.yul\":7520:7599   */\n      tag_244\n      tag_110\n      jump\t// in\n    tag_244:\n        /* \"#utility.yul\":7482:7601   */\n    tag_243:\n        /* \"#utility.yul\":7640:7641   */\n      0x00\n        /* \"#utility.yul\":7665:7718   */\n      tag_245\n        /* \"#utility.yul\":7710:7717   */\n      dup5\n        /* \"#utility.yul\":7701:7707   */\n      dup3\n        /* \"#utility.yul\":7690:7699   */\n      dup6\n        /* \"#utility.yul\":7686:7708   */\n      add\n        /* \"#utility.yul\":7665:7718   */\n      tag_134\n      jump\t// in\n    tag_245:\n        /* \"#utility.yul\":7655:7718   */\n      swap2\n      pop\n        /* \"#utility.yul\":7611:7728   */\n      pop\n        /* \"#utility.yul\":7406:7735   */\n      swap3\n      swap2\n      pop\n      pop\n      jump\t// out\n        /* \"#utility.yul\":7741:7859   */\n    tag_135:\n        /* \"#utility.yul\":7828:7852   */\n      tag_247\n        /* \"#utility.yul\":7846:7851   */\n      dup2\n        /* \"#utility.yul\":7828:7852   */\n      tag_119\n      jump\t// in\n    tag_247:\n        /* \"#utility.yul\":7823:7826   */\n      dup3\n        /* \"#utility.yul\":7816:7853   */\n      mstore\n        /* \"#utility.yul\":7741:7859   */\n      pop\n      pop\n      jump\t// out\n        /* \"#utility.yul\":7865:8087   */\n    tag_28:\n        /* \"#utility.yul\":7958:7962   */\n      0x00\n        /* \"#utility.yul\":7996:7998   */\n      0x20\n        /* \"#utility.yul\":7985:7994   */\n      dup3\n        /* \"#utility.yul\":7981:7999   */\n      add\n        /* \"#utility.yul\":7973:7999   */\n      swap1\n      pop\n        /* \"#utility.yul\":8009:8080   */\n      tag_249\n        /* \"#utility.yul\":8077:8078   */\n      0x00\n        /* \"#utility.yul\":8066:8075   */\n      dup4\n        /* \"#utility.yul\":8062:8079   */\n      add\n        /* \"#utility.yul\":8053:8059   */\n      dup5\n        /* \"#utility.yul\":8009:8080   */\n      tag_135\n      jump\t// in\n    tag_249:\n        /* \"#utility.yul\":7865:8087   */\n      swap3\n      swap2\n      pop\n      pop\n      jump\t// out\n        /* \"#utility.yul\":8093:8210   */\n    tag_136:\n        /* \"#utility.yul\":8202:8203   */\n      0x00\n        /* \"#utility.yul\":8199:8200   */\n      dup1\n        /* \"#utility.yul\":8192:8204   */\n      revert\n        /* \"#utility.yul\":8216:8333   */\n    tag_137:\n        /* \"#utility.yul\":8325:8326   */\n      0x00\n        /* \"#utility.yul\":8322:8323   */\n      dup1\n        /* \"#utility.yul\":8315:8327   */\n      revert\n        /* \"#utility.yul\":8339:8519   */\n    tag_138:\n        /* \"#utility.yul\":8387:8464   */\n      0x4e487b7100000000000000000000000000000000000000000000000000000000\n        /* \"#utility.yul\":8384:8385   */\n      0x00\n        /* \"#utility.yul\":8377:8465   */\n      mstore\n        /* \"#utility.yul\":8484:8488   */\n      0x41\n        /* \"#utility.yul\":8481:8482   */\n      0x04\n        /* \"#utility.yul\":8474:8489   */\n      mstore\n        /* \"#utility.yul\":8508:8512   */\n      0x24\n        /* \"#utility.yul\":8505:8506   */\n      0x00\n        /* \"#utility.yul\":8498:8513   */\n      revert\n        /* \"#utility.yul\":8525:8806   */\n    tag_139:\n        /* \"#utility.yul\":8608:8635   */\n      tag_254\n        /* \"#utility.yul\":8630:8634   */\n      dup3\n        /* \"#utility.yul\":8608:8635   */\n      tag_124\n      jump\t// in\n    tag_254:\n        /* \"#utility.yul\":8600:8606   */\n      dup2\n        /* \"#utility.yul\":8596:8636   */\n      add\n        /* \"#utility.yul\":8738:8744   */\n      dup2\n        /* \"#utility.yul\":8726:8736   */\n      dup2\n        /* \"#utility.yul\":8723:8745   */\n      lt\n        /* \"#utility.yul\":8702:8720   */\n      0xffffffffffffffff\n        /* \"#utility.yul\":8690:8700   */\n      dup3\n        /* \"#utility.yul\":8687:8721   */\n      gt\n        /* \"#utility.yul\":8684:8746   */\n      or\n        /* \"#utility.yul\":8681:8769   */\n      iszero\n      tag_255\n      jumpi\n        /* \"#utility.yul\":8749:8767   */\n      tag_256\n      tag_138\n      jump\t// in\n    tag_256:\n        /* \"#utility.yul\":8681:8769   */\n    tag_255:\n        /* \"#utility.yul\":8789:8799   */\n      dup1\n        /* \"#utility.yul\":8785:8787   */\n      0x40\n        /* \"#utility.yul\":8778:8800   */\n      mstore\n        /* \"#utility.yul\":8568:8806   */\n      pop\n        /* \"#utility.yul\":8525:8806   */\n      pop\n      pop\n      jump\t// out\n        /* \"#utility.yul\":8812:8941   */\n    tag_140:\n        /* \"#utility.yul\":8846:8852   */\n      0x00\n        /* \"#utility.yul\":8873:8893   */\n      tag_258\n      tag_109\n      jump\t// in\n    tag_258:\n        /* \"#utility.yul\":8863:8893   */\n      swap1\n      pop\n        /* \"#utility.yul\":8902:8935   */\n      tag_259\n        /* \"#utility.yul\":8930:8934   */\n      dup3\n        /* \"#utility.yul\":8922:8928   */\n      dup3\n        /* \"#utility.yul\":8902:8935   */\n      tag_139\n      jump\t// in\n    tag_259:\n        /* \"#utility.yul\":8812:8941   */\n      swap2\n      swap1\n      pop\n      jump\t// out\n        /* \"#utility.yul\":8947:9255   */\n    tag_141:\n        /* \"#utility.yul\":9009:9013   */\n      0x00\n        /* \"#utility.yul\":9099:9117   */\n      0xffffffffffffffff\n        /* \"#utility.yul\":9091:9097   */\n      dup3\n        /* \"#utility.yul\":9088:9118   */\n      gt\n        /* \"#utility.yul\":9085:9141   */\n      iszero\n      tag_261\n      jumpi\n        /* \"#utility.yul\":9121:9139   */\n      tag_262\n      tag_138\n      jump\t// in\n    tag_262:\n        /* \"#utility.yul\":9085:9141   */\n    tag_261:\n        /* \"#utility.yul\":9159:9188   */\n      tag_263\n        /* \"#utility.yul\":9181:9187   */\n      dup3\n        /* \"#utility.yul\":9159:9188   */\n      tag_124\n      jump\t// in\n    tag_263:\n        /* \"#utility.yul\":9151:9188   */\n      swap1\n      pop\n        /* \"#utility.yul\":9243:9247   */\n      0x20\n        /* \"#utility.yul\":9237:9241   */\n      dup2\n        /* \"#utility.yul\":9233:9248   */\n      add\n        /* \"#utility.yul\":9225:9248   */\n      swap1\n      pop\n        /* \"#utility.yul\":8947:9255   */\n      swap2\n      swap1\n      pop\n      jump\t// out\n        /* \"#utility.yul\":9261:9409   */\n    tag_142:\n        /* \"#utility.yul\":9359:9365   */\n      dup3\n        /* \"#utility.yul\":9354:9357   */\n      dup2\n        /* \"#utility.yul\":9349:9352   */\n      dup4\n        /* \"#utility.yul\":9336:9366   */\n      calldatacopy\n        /* \"#utility.yul\":9400:9401   */\n      0x00\n        /* \"#utility.yul\":9391:9397   */\n      dup4\n        /* \"#utility.yul\":9386:9389   */\n      dup4\n        /* \"#utility.yul\":9382:9398   */\n      add\n        /* \"#utility.yul\":9375:9402   */\n      mstore\n        /* \"#utility.yul\":9261:9409   */\n      pop\n      pop\n      pop\n      jump\t// out\n        /* \"#utility.yul\":9415:9840   */\n    tag_143:\n        /* \"#utility.yul\":9493:9498   */\n      0x00\n        /* \"#utility.yul\":9518:9584   */\n      tag_266\n        /* \"#utility.yul\":9534:9583   */\n      tag_267\n        /* \"#utility.yul\":9576:9582   */\n      dup5\n        /* \"#utility.yul\":9534:9583   */\n      tag_141\n      jump\t// in\n    tag_267:\n        /* \"#utility.yul\":9518:9584   */\n      tag_140\n      jump\t// in\n    tag_266:\n        /* \"#utility.yul\":9509:9584   */\n      swap1\n      pop\n        /* \"#utility.yul\":9607:9613   */\n      dup3\n        /* \"#utility.yul\":9600:9605   */\n      dup2\n        /* \"#utility.yul\":9593:9614   */\n      mstore\n        /* \"#utility.yul\":9645:9649   */\n      0x20\n        /* \"#utility.yul\":9638:9643   */\n      dup2\n        /* \"#utility.yul\":9634:9650   */\n      add\n        /* \"#utility.yul\":9683:9686   */\n      dup5\n        /* \"#utility.yul\":9674:9680   */\n      dup5\n        /* \"#utility.yul\":9669:9672   */\n      dup5\n        /* \"#utility.yul\":9665:9681   */\n      add\n        /* \"#utility.yul\":9662:9687   */\n      gt\n        /* \"#utility.yul\":9659:9771   */\n      iszero\n      tag_268\n      jumpi\n        /* \"#utility.yul\":9690:9769   */\n      tag_269\n      tag_137\n      jump\t// in\n    tag_269:\n        /* \"#utility.yul\":9659:9771   */\n    tag_268:\n        /* \"#utility.yul\":9780:9834   */\n      tag_270\n        /* \"#utility.yul\":9827:9833   */\n      dup5\n        /* \"#utility.yul\":9822:9825   */\n      dup3\n        /* \"#utility.yul\":9817:9820   */\n      dup6\n        /* \"#utility.yul\":9780:9834   */\n      tag_142\n      jump\t// in\n    tag_270:\n        /* \"#utility.yul\":9499:9840   */\n      pop\n        /* \"#utility.yul\":9415:9840   */\n      swap4\n      swap3\n      pop\n      pop\n      pop\n      jump\t// out\n        /* \"#utility.yul\":9860:10200   */\n    tag_144:\n        /* \"#utility.yul\":9916:9921   */\n      0x00\n        /* \"#utility.yul\":9965:9968   */\n      dup3\n        /* \"#utility.yul\":9958:9962   */\n      0x1f\n        /* \"#utility.yul\":9950:9956   */\n      dup4\n        /* \"#utility.yul\":9946:9963   */\n      add\n        /* \"#utility.yul\":9942:9969   */\n      slt\n        /* \"#utility.yul\":9932:10054   */\n      tag_272\n      jumpi\n        /* \"#utility.yul\":9973:10052   */\n      tag_273\n      tag_136\n      jump\t// in\n    tag_273:\n        /* \"#utility.yul\":9932:10054   */\n    tag_272:\n        /* \"#utility.yul\":10090:10096   */\n      dup2\n        /* \"#utility.yul\":10077:10097   */\n      calldataload\n        /* \"#utility.yul\":10115:10194   */\n      tag_274\n        /* \"#utility.yul\":10190:10193   */\n      dup5\n        /* \"#utility.yul\":10182:10188   */\n      dup3\n        /* \"#utility.yul\":10175:10179   */\n      0x20\n        /* \"#utility.yul\":10167:10173   */\n      dup7\n        /* \"#utility.yul\":10163:10180   */\n      add\n        /* \"#utility.yul\":10115:10194   */\n      tag_143\n      jump\t// in\n    tag_274:\n        /* \"#utility.yul\":10106:10194   */\n      swap2\n      pop\n        /* \"#utility.yul\":9922:10200   */\n      pop\n        /* \"#utility.yul\":9860:10200   */\n      swap3\n      swap2\n      pop\n      pop\n      jump\t// out\n        /* \"#utility.yul\":10206:11511   */\n    tag_31:\n        /* \"#utility.yul\":10322:10328   */\n      0x00\n        /* \"#utility.yul\":10330:10336   */\n      dup1\n        /* \"#utility.yul\":10338:10344   */\n      0x00\n        /* \"#utility.yul\":10346:10352   */\n      dup1\n        /* \"#utility.yul\":10395:10398   */\n      0x80\n        /* \"#utility.yul\":10383:10392   */\n      dup6\n        /* \"#utility.yul\":10374:10381   */\n      dup8\n        /* \"#utility.yul\":10370:10393   */\n      sub\n        /* \"#utility.yul\":10366:10399   */\n      slt\n        /* \"#utility.yul\":10363:10483   */\n      iszero\n      tag_276\n      jumpi\n        /* \"#utility.yul\":10402:10481   */\n      tag_277\n      tag_110\n      jump\t// in\n    tag_277:\n        /* \"#utility.yul\":10363:10483   */\n    tag_276:\n        /* \"#utility.yul\":10522:10523   */\n      0x00\n        /* \"#utility.yul\":10547:10600   */\n      tag_278\n        /* \"#utility.yul\":10592:10599   */\n      dup8\n        /* \"#utility.yul\":10583:10589   */\n      dup3\n        /* \"#utility.yul\":10572:10581   */\n      dup9\n        /* \"#utility.yul\":10568:10590   */\n      add\n        /* \"#utility.yul\":10547:10600   */\n      tag_134\n      jump\t// in\n    tag_278:\n        /* \"#utility.yul\":10537:10600   */\n      swap5\n      pop\n        /* \"#utility.yul\":10493:10610   */\n      pop\n        /* \"#utility.yul\":10677:10679   */\n      0x20\n        /* \"#utility.yul\":10666:10675   */\n      dup6\n        /* \"#utility.yul\":10662:10680   */\n      add\n        /* \"#utility.yul\":10649:10681   */\n      calldataload\n        /* \"#utility.yul\":10708:10726   */\n      0xffffffffffffffff\n        /* \"#utility.yul\":10700:10706   */\n      dup2\n        /* \"#utility.yul\":10697:10727   */\n      gt\n        /* \"#utility.yul\":10694:10811   */\n      iszero\n      tag_279\n      jumpi\n        /* \"#utility.yul\":10730:10809   */\n      tag_280\n      tag_111\n      jump\t// in\n    tag_280:\n        /* \"#utility.yul\":10694:10811   */\n    tag_279:\n        /* \"#utility.yul\":10835:10898   */\n      tag_281\n        /* \"#utility.yul\":10890:10897   */\n      dup8\n        /* \"#utility.yul\":10881:10887   */\n      dup3\n        /* \"#utility.yul\":10870:10879   */\n      dup9\n        /* \"#utility.yul\":10866:10888   */\n      add\n        /* \"#utility.yul\":10835:10898   */\n      tag_144\n      jump\t// in\n    tag_281:\n        /* \"#utility.yul\":10825:10898   */\n      swap4\n      pop\n        /* \"#utility.yul\":10620:10908   */\n      pop\n        /* \"#utility.yul\":10975:10977   */\n      0x40\n        /* \"#utility.yul\":10964:10973   */\n      dup6\n        /* \"#utility.yul\":10960:10978   */\n      add\n        /* \"#utility.yul\":10947:10979   */\n      calldataload\n        /* \"#utility.yul\":11006:11024   */\n      0xffffffffffffffff\n        /* \"#utility.yul\":10998:11004   */\n      dup2\n        /* \"#utility.yul\":10995:11025   */\n      gt\n        /* \"#utility.yul\":10992:11109   */\n      iszero\n      tag_282\n      jumpi\n        /* \"#utility.yul\":11028:11107   */\n      tag_283\n      tag_111\n      jump\t// in\n    tag_283:\n        /* \"#utility.yul\":10992:11109   */\n    tag_282:\n        /* \"#utility.yul\":11133:11196   */\n      tag_284\n        /* \"#utility.yul\":11188:11195   */\n      dup8\n        /* \"#utility.yul\":11179:11185   */\n      dup3\n        /* \"#utility.yul\":11168:11177   */\n      dup9\n        /* \"#utility.yul\":11164:11186   */\n      add\n        /* \"#utility.yul\":11133:11196   */\n      tag_144\n      jump\t// in\n    tag_284:\n        /* \"#utility.yul\":11123:11196   */\n      swap3\n      pop\n        /* \"#utility.yul\":10918:11206   */\n      pop\n        /* \"#utility.yul\":11273:11275   */\n      0x60\n        /* \"#utility.yul\":11262:11271   */\n      dup6\n        /* \"#utility.yul\":11258:11276   */\n      add\n        /* \"#utility.yul\":11245:11277   */\n      calldataload\n        /* \"#utility.yul\":11304:11322   */\n      0xffffffffffffffff\n        /* \"#utility.yul\":11296:11302   */\n      dup2\n        /* \"#utility.yul\":11293:11323   */\n      gt\n        /* \"#utility.yul\":11290:11407   */\n      iszero\n      tag_285\n      jumpi\n        /* \"#utility.yul\":11326:11405   */\n      tag_286\n      tag_111\n      jump\t// in\n    tag_286:\n        /* \"#utility.yul\":11290:11407   */\n    tag_285:\n        /* \"#utility.yul\":11431:11494   */\n      tag_287\n        /* \"#utility.yul\":11486:11493   */\n      dup8\n        /* \"#utility.yul\":11477:11483   */\n      dup3\n        /* \"#utility.yul\":11466:11475   */\n      dup9\n        /* \"#utility.yul\":11462:11484   */\n      add\n        /* \"#utility.yul\":11431:11494   */\n      tag_144\n      jump\t// in\n    tag_287:\n        /* \"#utility.yul\":11421:11494   */\n      swap2\n      pop\n        /* \"#utility.yul\":11216:11504   */\n      pop\n        /* \"#utility.yul\":10206:11511   */\n      swap3\n      swap6\n      swap2\n      swap5\n      pop\n      swap3\n      pop\n      jump\t// out\n        /* \"#utility.yul\":11517:11577   */\n    tag_145:\n        /* \"#utility.yul\":11545:11548   */\n      0x00\n        /* \"#utility.yul\":11566:11571   */\n      dup2\n        /* \"#utility.yul\":11559:11571   */\n      swap1\n      pop\n        /* \"#utility.yul\":11517:11577   */\n      swap2\n      swap1\n      pop\n      jump\t// out\n        /* \"#utility.yul\":11583:11725   */\n    tag_146:\n        /* \"#utility.yul\":11633:11642   */\n      0x00\n        /* \"#utility.yul\":11666:11719   */\n      tag_290\n        /* \"#utility.yul\":11684:11718   */\n      tag_291\n        /* \"#utility.yul\":11693:11717   */\n      tag_292\n        /* \"#utility.yul\":11711:11716   */\n      dup5\n        /* \"#utility.yul\":11693:11717   */\n      tag_112\n      jump\t// in\n    tag_292:\n        /* \"#utility.yul\":11684:11718   */\n      tag_145\n      jump\t// in\n    tag_291:\n        /* \"#utility.yul\":11666:11719   */\n      tag_112\n      jump\t// in\n    tag_290:\n        /* \"#utility.yul\":11653:11719   */\n      swap1\n      pop\n        /* \"#utility.yul\":11583:11725   */\n      swap2\n      swap1\n      pop\n      jump\t// out\n        /* \"#utility.yul\":11731:11857   */\n    tag_147:\n        /* \"#utility.yul\":11781:11790   */\n      0x00\n        /* \"#utility.yul\":11814:11851   */\n      tag_294\n        /* \"#utility.yul\":11845:11850   */\n      dup3\n        /* \"#utility.yul\":11814:11851   */\n      tag_146\n      jump\t// in\n    tag_294:\n        /* \"#utility.yul\":11801:11851   */\n      swap1\n      pop\n        /* \"#utility.yul\":11731:11857   */\n      swap2\n      swap1\n      pop\n      jump\t// out\n        /* \"#utility.yul\":11863:12003   */\n    tag_148:\n        /* \"#utility.yul\":11927:11936   */\n      0x00\n        /* \"#utility.yul\":11960:11997   */\n      tag_296\n        /* \"#utility.yul\":11991:11996   */\n      dup3\n        /* \"#utility.yul\":11960:11997   */\n      tag_147\n      jump\t// in\n    tag_296:\n        /* \"#utility.yul\":11947:11997   */\n      swap1\n      pop\n        /* \"#utility.yul\":11863:12003   */\n      swap2\n      swap1\n      pop\n      jump\t// out\n        /* \"#utility.yul\":12009:12168   */\n    tag_149:\n        /* \"#utility.yul\":12110:12161   */\n      tag_298\n        /* \"#utility.yul\":12155:12160   */\n      dup2\n        /* \"#utility.yul\":12110:12161   */\n      tag_148\n      jump\t// in\n    tag_298:\n        /* \"#utility.yul\":12105:12108   */\n      dup3\n        /* \"#utility.yul\":12098:12162   */\n      mstore\n        /* \"#utility.yul\":12009:12168   */\n      pop\n      pop\n      jump\t// out\n        /* \"#utility.yul\":12174:12424   */\n    tag_39:\n        /* \"#utility.yul\":12281:12285   */\n      0x00\n        /* \"#utility.yul\":12319:12321   */\n      0x20\n        /* \"#utility.yul\":12308:12317   */\n      dup3\n        /* \"#utility.yul\":12304:12322   */\n      add\n        /* \"#utility.yul\":12296:12322   */\n      swap1\n      pop\n        /* \"#utility.yul\":12332:12417   */\n      tag_300\n        /* \"#utility.yul\":12414:12415   */\n      0x00\n        /* \"#utility.yul\":12403:12412   */\n      dup4\n        /* \"#utility.yul\":12399:12416   */\n      add\n        /* \"#utility.yul\":12390:12396   */\n      dup5\n        /* \"#utility.yul\":12332:12417   */\n      tag_149\n      jump\t// in\n    tag_300:\n        /* \"#utility.yul\":12174:12424   */\n      swap3\n      swap2\n      pop\n      pop\n      jump\t// out\n        /* \"#utility.yul\":12430:12599   */\n    tag_150:\n        /* \"#utility.yul\":12514:12525   */\n      0x00\n        /* \"#utility.yul\":12548:12554   */\n      dup3\n        /* \"#utility.yul\":12543:12546   */\n      dup3\n        /* \"#utility.yul\":12536:12555   */\n      mstore\n        /* \"#utility.yul\":12588:12592   */\n      0x20\n        /* \"#utility.yul\":12583:12586   */\n      dup3\n        /* \"#utility.yul\":12579:12593   */\n      add\n        /* \"#utility.yul\":12564:12593   */\n      swap1\n      pop\n        /* \"#utility.yul\":12430:12599   */\n      swap3\n      swap2\n      pop\n      pop\n      jump\t// out\n        /* \"#utility.yul\":12605:12776   */\n    tag_151:\n        /* \"#utility.yul\":12745:12768   */\n      0x416363657373206e6f7420617574686f72697a65640000000000000000000000\n        /* \"#utility.yul\":12741:12742   */\n      0x00\n        /* \"#utility.yul\":12733:12739   */\n      dup3\n        /* \"#utility.yul\":12729:12743   */\n      add\n        /* \"#utility.yul\":12722:12769   */\n      mstore\n        /* \"#utility.yul\":12605:12776   */\n      pop\n      jump\t// out\n        /* \"#utility.yul\":12782:13148   */\n    tag_152:\n        /* \"#utility.yul\":12924:12927   */\n      0x00\n        /* \"#utility.yul\":12945:13012   */\n      tag_304\n        /* \"#utility.yul\":13009:13011   */\n      0x15\n        /* \"#utility.yul\":13004:13007   */\n      dup4\n        /* \"#utility.yul\":12945:13012   */\n      tag_150\n      jump\t// in\n    tag_304:\n        /* \"#utility.yul\":12938:13012   */\n      swap2\n      pop\n        /* \"#utility.yul\":13021:13114   */\n      tag_305\n        /* \"#utility.yul\":13110:13113   */\n      dup3\n        /* \"#utility.yul\":13021:13114   */\n      tag_151\n      jump\t// in\n    tag_305:\n        /* \"#utility.yul\":13139:13141   */\n      0x20\n        /* \"#utility.yul\":13134:13137   */\n      dup3\n        /* \"#utility.yul\":13130:13142   */\n      add\n        /* \"#utility.yul\":13123:13142   */\n      swap1\n      pop\n        /* \"#utility.yul\":12782:13148   */\n      swap2\n      swap1\n      pop\n      jump\t// out\n        /* \"#utility.yul\":13154:13573   */\n    tag_44:\n        /* \"#utility.yul\":13320:13324   */\n      0x00\n        /* \"#utility.yul\":13358:13360   */\n      0x20\n        /* \"#utility.yul\":13347:13356   */\n      dup3\n        /* \"#utility.yul\":13343:13361   */\n      add\n        /* \"#utility.yul\":13335:13361   */\n      swap1\n      pop\n        /* \"#utility.yul\":13407:13416   */\n      dup2\n        /* \"#utility.yul\":13401:13405   */\n      dup2\n        /* \"#utility.yul\":13397:13417   */\n      sub\n        /* \"#utility.yul\":13393:13394   */\n      0x00\n        /* \"#utility.yul\":13382:13391   */\n      dup4\n        /* \"#utility.yul\":13378:13395   */\n      add\n        /* \"#utility.yul\":13371:13418   */\n      mstore\n        /* \"#utility.yul\":13435:13566   */\n      tag_307\n        /* \"#utility.yul\":13561:13565   */\n      dup2\n        /* \"#utility.yul\":13435:13566   */\n      tag_152\n      jump\t// in\n    tag_307:\n        /* \"#utility.yul\":13427:13566   */\n      swap1\n      pop\n        /* \"#utility.yul\":13154:13573   */\n      swap2\n      swap1\n      pop\n      jump\t// out\n        /* \"#utility.yul\":13579:13759   */\n    tag_153:\n        /* \"#utility.yul\":13627:13704   */\n      0x4e487b7100000000000000000000000000000000000000000000000000000000\n        /* \"#utility.yul\":13624:13625   */\n      0x00\n        /* \"#utility.yul\":13617:13705   */\n      mstore\n        /* \"#utility.yul\":13724:13728   */\n      0x22\n        /* \"#utility.yul\":13721:13722   */\n      0x04\n        /* \"#utility.yul\":13714:13729   */\n      mstore\n        /* \"#utility.yul\":13748:13752   */\n      0x24\n        /* \"#utility.yul\":13745:13746   */\n      0x00\n        /* \"#utility.yul\":13738:13753   */\n      revert\n        /* \"#utility.yul\":13765:14085   */\n    tag_49:\n        /* \"#utility.yul\":13809:13815   */\n      0x00\n        /* \"#utility.yul\":13846:13847   */\n      0x02\n        /* \"#utility.yul\":13840:13844   */\n      dup3\n        /* \"#utility.yul\":13836:13848   */\n      div\n        /* \"#utility.yul\":13826:13848   */\n      swap1\n      pop\n        /* \"#utility.yul\":13893:13894   */\n      0x01\n        /* \"#utility.yul\":13887:13891   */\n      dup3\n        /* \"#utility.yul\":13883:13895   */\n      and\n        /* \"#utility.yul\":13914:13932   */\n      dup1\n        /* \"#utility.yul\":13904:13985   */\n      tag_310\n      jumpi\n        /* \"#utility.yul\":13970:13974   */\n      0x7f\n        /* \"#utility.yul\":13962:13968   */\n      dup3\n        /* \"#utility.yul\":13958:13975   */\n      and\n        /* \"#utility.yul\":13948:13975   */\n      swap2\n      pop\n        /* \"#utility.yul\":13904:13985   */\n    tag_310:\n        /* \"#utility.yul\":14032:14034   */\n      0x20\n        /* \"#utility.yul\":14024:14030   */\n      dup3\n        /* \"#utility.yul\":14021:14035   */\n      lt\n        /* \"#utility.yul\":14001:14019   */\n      dup2\n        /* \"#utility.yul\":13998:14036   */\n      sub\n        /* \"#utility.yul\":13995:14079   */\n      tag_311\n      jumpi\n        /* \"#utility.yul\":14051:14069   */\n      tag_312\n      tag_153\n      jump\t// in\n    tag_312:\n        /* \"#utility.yul\":13995:14079   */\n    tag_311:\n        /* \"#utility.yul\":13816:14085   */\n      pop\n        /* \"#utility.yul\":13765:14085   */\n      swap2\n      swap1\n      pop\n      jump\t// out\n        /* \"#utility.yul\":14091:14200   */\n    tag_154:\n        /* \"#utility.yul\":14172:14193   */\n      tag_314\n        /* \"#utility.yul\":14187:14192   */\n      dup2\n        /* \"#utility.yul\":14172:14193   */\n      tag_130\n      jump\t// in\n    tag_314:\n        /* \"#utility.yul\":14167:14170   */\n      dup3\n        /* \"#utility.yul\":14160:14194   */\n      mstore\n        /* \"#utility.yul\":14091:14200   */\n      pop\n      pop\n      jump\t// out\n        /* \"#utility.yul\":14206:14526   */\n    tag_68:\n        /* \"#utility.yul\":14321:14325   */\n      0x00\n        /* \"#utility.yul\":14359:14361   */\n      0x40\n        /* \"#utility.yul\":14348:14357   */\n      dup3\n        /* \"#utility.yul\":14344:14362   */\n      add\n        /* \"#utility.yul\":14336:14362   */\n      swap1\n      pop\n        /* \"#utility.yul\":14372:14437   */\n      tag_316\n        /* \"#utility.yul\":14434:14435   */\n      0x00\n        /* \"#utility.yul\":14423:14432   */\n      dup4\n        /* \"#utility.yul\":14419:14436   */\n      add\n        /* \"#utility.yul\":14410:14416   */\n      dup6\n        /* \"#utility.yul\":14372:14437   */\n      tag_154\n      jump\t// in\n    tag_316:\n        /* \"#utility.yul\":14447:14519   */\n      tag_317\n        /* \"#utility.yul\":14515:14517   */\n      0x20\n        /* \"#utility.yul\":14504:14513   */\n      dup4\n        /* \"#utility.yul\":14500:14518   */\n      add\n        /* \"#utility.yul\":14491:14497   */\n      dup5\n        /* \"#utility.yul\":14447:14519   */\n      tag_135\n      jump\t// in\n    tag_317:\n        /* \"#utility.yul\":14206:14526   */\n      swap4\n      swap3\n      pop\n      pop\n      pop\n      jump\t// out\n        /* \"#utility.yul\":14532:14714   */\n    tag_155:\n        /* \"#utility.yul\":14672:14706   */\n      0x416d6f756e74206d7573742062652067726561746572207468616e207a65726f\n        /* \"#utility.yul\":14668:14669   */\n      0x00\n        /* \"#utility.yul\":14660:14666   */\n      dup3\n        /* \"#utility.yul\":14656:14670   */\n      add\n        /* \"#utility.yul\":14649:14707   */\n      mstore\n        /* \"#utility.yul\":14532:14714   */\n      pop\n      jump\t// out\n        /* \"#utility.yul\":14720:15086   */\n    tag_156:\n        /* \"#utility.yul\":14862:14865   */\n      0x00\n        /* \"#utility.yul\":14883:14950   */\n      tag_320\n        /* \"#utility.yul\":14947:14949   */\n      0x20\n        /* \"#utility.yul\":14942:14945   */\n      dup4\n        /* \"#utility.yul\":14883:14950   */\n      tag_150\n      jump\t// in\n    tag_320:\n        /* \"#utility.yul\":14876:14950   */\n      swap2\n      pop\n        /* \"#utility.yul\":14959:15052   */\n      tag_321\n        /* \"#utility.yul\":15048:15051   */\n      dup3\n        /* \"#utility.yul\":14959:15052   */\n      tag_155\n      jump\t// in\n    tag_321:\n        /* \"#utility.yul\":15077:15079   */\n      0x20\n        /* \"#utility.yul\":15072:15075   */\n      dup3\n        /* \"#utility.yul\":15068:15080   */\n      add\n        /* \"#utility.yul\":15061:15080   */\n      swap1\n      pop\n        /* \"#utility.yul\":14720:15086   */\n      swap2\n      swap1\n      pop\n      jump\t// out\n        /* \"#utility.yul\":15092:15511   */\n    tag_72:\n        /* \"#utility.yul\":15258:15262   */\n      0x00\n        /* \"#utility.yul\":15296:15298   */\n      0x20\n        /* \"#utility.yul\":15285:15294   */\n      dup3\n        /* \"#utility.yul\":15281:15299   */\n      add\n        /* \"#utility.yul\":15273:15299   */\n      swap1\n      pop\n        /* \"#utility.yul\":15345:15354   */\n      dup2\n        /* \"#utility.yul\":15339:15343   */\n      dup2\n        /* \"#utility.yul\":15335:15355   */\n      sub\n        /* \"#utility.yul\":15331:15332   */\n      0x00\n        /* \"#utility.yul\":15320:15329   */\n      dup4\n        /* \"#utility.yul\":15316:15333   */\n      add\n        /* \"#utility.yul\":15309:15356   */\n      mstore\n        /* \"#utility.yul\":15373:15504   */\n      tag_323\n        /* \"#utility.yul\":15499:15503   */\n      dup2\n        /* \"#utility.yul\":15373:15504   */\n      tag_156\n      jump\t// in\n    tag_323:\n        /* \"#utility.yul\":15365:15504   */\n      swap1\n      pop\n        /* \"#utility.yul\":15092:15511   */\n      swap2\n      swap1\n      pop\n      jump\t// out\n        /* \"#utility.yul\":15517:15635   */\n    tag_157:\n        /* \"#utility.yul\":15604:15628   */\n      tag_325\n        /* \"#utility.yul\":15622:15627   */\n      dup2\n        /* \"#utility.yul\":15604:15628   */\n      tag_113\n      jump\t// in\n    tag_325:\n        /* \"#utility.yul\":15599:15602   */\n      dup3\n        /* \"#utility.yul\":15592:15629   */\n      mstore\n        /* \"#utility.yul\":15517:15635   */\n      pop\n      pop\n      jump\t// out\n        /* \"#utility.yul\":15641:15863   */\n    tag_74:\n        /* \"#utility.yul\":15734:15738   */\n      0x00\n        /* \"#utility.yul\":15772:15774   */\n      0x20\n        /* \"#utility.yul\":15761:15770   */\n      dup3\n        /* \"#utility.yul\":15757:15775   */\n      add\n        /* \"#utility.yul\":15749:15775   */\n      swap1\n      pop\n        /* \"#utility.yul\":15785:15856   */\n      tag_327\n        /* \"#utility.yul\":15853:15854   */\n      0x00\n        /* \"#utility.yul\":15842:15851   */\n      dup4\n        /* \"#utility.yul\":15838:15855   */\n      add\n        /* \"#utility.yul\":15829:15835   */\n      dup5\n        /* \"#utility.yul\":15785:15856   */\n      tag_157\n      jump\t// in\n    tag_327:\n        /* \"#utility.yul\":15641:15863   */\n      swap3\n      swap2\n      pop\n      pop\n      jump\t// out\n        /* \"#utility.yul\":15869:16012   */\n    tag_158:\n        /* \"#utility.yul\":15926:15931   */\n      0x00\n        /* \"#utility.yul\":15957:15963   */\n      dup2\n        /* \"#utility.yul\":15951:15964   */\n      mload\n        /* \"#utility.yul\":15942:15964   */\n      swap1\n      pop\n        /* \"#utility.yul\":15973:16006   */\n      tag_329\n        /* \"#utility.yul\":16000:16005   */\n      dup2\n        /* \"#utility.yul\":15973:16006   */\n      tag_133\n      jump\t// in\n    tag_329:\n        /* \"#utility.yul\":15869:16012   */\n      swap3\n      swap2\n      pop\n      pop\n      jump\t// out\n        /* \"#utility.yul\":16018:16369   */\n    tag_78:\n        /* \"#utility.yul\":16088:16094   */\n      0x00\n        /* \"#utility.yul\":16137:16139   */\n      0x20\n        /* \"#utility.yul\":16125:16134   */\n      dup3\n        /* \"#utility.yul\":16116:16123   */\n      dup5\n        /* \"#utility.yul\":16112:16135   */\n      sub\n        /* \"#utility.yul\":16108:16140   */\n      slt\n        /* \"#utility.yul\":16105:16224   */\n      iszero\n      tag_331\n      jumpi\n        /* \"#utility.yul\":16143:16222   */\n      tag_332\n      tag_110\n      jump\t// in\n    tag_332:\n        /* \"#utility.yul\":16105:16224   */\n    tag_331:\n        /* \"#utility.yul\":16263:16264   */\n      0x00\n        /* \"#utility.yul\":16288:16352   */\n      tag_333\n        /* \"#utility.yul\":16344:16351   */\n      dup5\n        /* \"#utility.yul\":16335:16341   */\n      dup3\n        /* \"#utility.yul\":16324:16333   */\n      dup6\n        /* \"#utility.yul\":16320:16342   */\n      add\n        /* \"#utility.yul\":16288:16352   */\n      tag_158\n      jump\t// in\n    tag_333:\n        /* \"#utility.yul\":16278:16352   */\n      swap2\n      pop\n        /* \"#utility.yul\":16234:16362   */\n      pop\n        /* \"#utility.yul\":16018:16369   */\n      swap3\n      swap2\n      pop\n      pop\n      jump\t// out\n        /* \"#utility.yul\":16375:16554   */\n    tag_159:\n        /* \"#utility.yul\":16515:16546   */\n      0x496e73756666696369656e7420636f6e74726163742062616c616e6365000000\n        /* \"#utility.yul\":16511:16512   */\n      0x00\n        /* \"#utility.yul\":16503:16509   */\n      dup3\n        /* \"#utility.yul\":16499:16513   */\n      add\n        /* \"#utility.yul\":16492:16547   */\n      mstore\n        /* \"#utility.yul\":16375:16554   */\n      pop\n      jump\t// out\n        /* \"#utility.yul\":16560:16926   */\n    tag_160:\n        /* \"#utility.yul\":16702:16705   */\n      0x00\n        /* \"#utility.yul\":16723:16790   */\n      tag_336\n        /* \"#utility.yul\":16787:16789   */\n      0x1d\n        /* \"#utility.yul\":16782:16785   */\n      dup4\n        /* \"#utility.yul\":16723:16790   */\n      tag_150\n      jump\t// in\n    tag_336:\n        /* \"#utility.yul\":16716:16790   */\n      swap2\n      pop\n        /* \"#utility.yul\":16799:16892   */\n      tag_337\n        /* \"#utility.yul\":16888:16891   */\n      dup3\n        /* \"#utility.yul\":16799:16892   */\n      tag_159\n      jump\t// in\n    tag_337:\n        /* \"#utility.yul\":16917:16919   */\n      0x20\n        /* \"#utility.yul\":16912:16915   */\n      dup3\n        /* \"#utility.yul\":16908:16920   */\n      add\n        /* \"#utility.yul\":16901:16920   */\n      swap1\n      pop\n        /* \"#utility.yul\":16560:16926   */\n      swap2\n      swap1\n      pop\n      jump\t// out\n        /* \"#utility.yul\":16932:17351   */\n    tag_81:\n        /* \"#utility.yul\":17098:17102   */\n      0x00\n        /* \"#utility.yul\":17136:17138   */\n      0x20\n        /* \"#utility.yul\":17125:17134   */\n      dup3\n        /* \"#utility.yul\":17121:17139   */\n      add\n        /* \"#utility.yul\":17113:17139   */\n      swap1\n      pop\n        /* \"#utility.yul\":17185:17194   */\n      dup2\n        /* \"#utility.yul\":17179:17183   */\n      dup2\n        /* \"#utility.yul\":17175:17195   */\n      sub\n        /* \"#utility.yul\":17171:17172   */\n      0x00\n        /* \"#utility.yul\":17160:17169   */\n      dup4\n        /* \"#utility.yul\":17156:17173   */\n      add\n        /* \"#utility.yul\":17149:17196   */\n      mstore\n        /* \"#utility.yul\":17213:17344   */\n      tag_339\n        /* \"#utility.yul\":17339:17343   */\n      dup2\n        /* \"#utility.yul\":17213:17344   */\n      tag_160\n      jump\t// in\n    tag_339:\n        /* \"#utility.yul\":17205:17344   */\n      swap1\n      pop\n        /* \"#utility.yul\":16932:17351   */\n      swap2\n      swap1\n      pop\n      jump\t// out\n        /* \"#utility.yul\":17357:17498   */\n    tag_161:\n        /* \"#utility.yul\":17406:17410   */\n      0x00\n        /* \"#utility.yul\":17429:17432   */\n      dup2\n        /* \"#utility.yul\":17421:17432   */\n      swap1\n      pop\n        /* \"#utility.yul\":17452:17455   */\n      dup2\n        /* \"#utility.yul\":17449:17450   */\n      0x00\n        /* \"#utility.yul\":17442:17456   */\n      mstore\n        /* \"#utility.yul\":17486:17490   */\n      0x20\n        /* \"#utility.yul\":17483:17484   */\n      0x00\n        /* \"#utility.yul\":17473:17491   */\n      keccak256\n        /* \"#utility.yul\":17465:17491   */\n      swap1\n      pop\n        /* \"#utility.yul\":17357:17498   */\n      swap2\n      swap1\n      pop\n      jump\t// out\n        /* \"#utility.yul\":17504:17597   */\n    tag_162:\n        /* \"#utility.yul\":17541:17547   */\n      0x00\n        /* \"#utility.yul\":17588:17590   */\n      0x20\n        /* \"#utility.yul\":17583:17585   */\n      0x1f\n        /* \"#utility.yul\":17576:17581   */\n      dup4\n        /* \"#utility.yul\":17572:17586   */\n      add\n        /* \"#utility.yul\":17568:17591   */\n      div\n        /* \"#utility.yul\":17558:17591   */\n      swap1\n      pop\n        /* \"#utility.yul\":17504:17597   */\n      swap2\n      swap1\n      pop\n      jump\t// out\n        /* \"#utility.yul\":17603:17710   */\n    tag_163:\n        /* \"#utility.yul\":17647:17655   */\n      0x00\n        /* \"#utility.yul\":17697:17702   */\n      dup3\n        /* \"#utility.yul\":17691:17695   */\n      dup3\n        /* \"#utility.yul\":17687:17703   */\n      shl\n        /* \"#utility.yul\":17666:17703   */\n      swap1\n      pop\n        /* \"#utility.yul\":17603:17710   */\n      swap3\n      swap2\n      pop\n      pop\n      jump\t// out\n        /* \"#utility.yul\":17716:18109   */\n    tag_164:\n        /* \"#utility.yul\":17785:17791   */\n      0x00\n        /* \"#utility.yul\":17835:17836   */\n      0x08\n        /* \"#utility.yul\":17823:17833   */\n      dup4\n        /* \"#utility.yul\":17819:17837   */\n      mul\n        /* \"#utility.yul\":17858:17955   */\n      tag_344\n        /* \"#utility.yul\":17888:17954   */\n      0xffffffffffffffffffffffffffffffffffffffffffffffffffffffffffffffff\n        /* \"#utility.yul\":17877:17886   */\n      dup3\n        /* \"#utility.yul\":17858:17955   */\n      tag_163\n      jump\t// in\n    tag_344:\n        /* \"#utility.yul\":17976:18015   */\n      tag_345\n        /* \"#utility.yul\":18006:18014   */\n      dup7\n        /* \"#utility.yul\":17995:18004   */\n      dup4\n        /* \"#utility.yul\":17976:18015   */\n      tag_163\n      jump\t// in\n    tag_345:\n        /* \"#utility.yul\":17964:18015   */\n      swap6\n      pop\n        /* \"#utility.yul\":18048:18052   */\n      dup1\n        /* \"#utility.yul\":18044:18053   */\n      not\n        /* \"#utility.yul\":18037:18042   */\n      dup5\n        /* \"#utility.yul\":18033:18054   */\n      and\n        /* \"#utility.yul\":18024:18054   */\n      swap4\n      pop\n        /* \"#utility.yul\":18097:18101   */\n      dup1\n        /* \"#utility.yul\":18087:18095   */\n      dup7\n        /* \"#utility.yul\":18083:18102   */\n      and\n        /* \"#utility.yul\":18076:18081   */\n      dup5\n        /* \"#utility.yul\":18073:18103   */\n      or\n        /* \"#utility.yul\":18063:18103   */\n      swap3\n      pop\n        /* \"#utility.yul\":17792:18109   */\n      pop\n      pop\n        /* \"#utility.yul\":17716:18109   */\n      swap4\n      swap3\n      pop\n      pop\n      pop\n      jump\t// out\n        /* \"#utility.yul\":18115:18257   */\n    tag_165:\n        /* \"#utility.yul\":18165:18174   */\n      0x00\n        /* \"#utility.yul\":18198:18251   */\n      tag_347\n        /* \"#utility.yul\":18216:18250   */\n      tag_348\n        /* \"#utility.yul\":18225:18249   */\n      tag_349\n        /* \"#utility.yul\":18243:18248   */\n      dup5\n        /* \"#utility.yul\":18225:18249   */\n      tag_119\n      jump\t// in\n    tag_349:\n        /* \"#utility.yul\":18216:18250   */\n      tag_145\n      jump\t// in\n    tag_348:\n        /* \"#utility.yul\":18198:18251   */\n      tag_119\n      jump\t// in\n    tag_347:\n        /* \"#utility.yul\":18185:18251   */\n      swap1\n      pop\n        /* \"#utility.yul\":18115:18257   */\n      swap2\n      swap1\n      pop\n      jump\t// out\n        /* \"#utility.yul\":18263:18338   */\n    tag_166:\n        /* \"#utility.yul\":18306:18309   */\n      0x00\n        /* \"#utility.yul\":18327:18332   */\n      dup2\n        /* \"#utility.yul\":18320:18332   */\n      swap1\n      pop\n        /* \"#utility.yul\":18263:18338   */\n      swap2\n      swap1\n      pop\n      jump\t// out\n        /* \"#utility.yul\":18344:18613   */\n    tag_167:\n        /* \"#utility.yul\":18454:18493   */\n      tag_352\n        /* \"#utility.yul\":18485:18492   */\n      dup4\n        /* \"#utility.yul\":18454:18493   */\n      tag_165\n      jump\t// in\n    tag_352:\n        /* \"#utility.yul\":18515:18606   */\n      tag_353\n        /* \"#utility.yul\":18564:18605   */\n      tag_354\n        /* \"#utility.yul\":18588:18604   */\n      dup3\n        /* \"#utility.yul\":18564:18605   */\n      tag_166\n      jump\t// in\n    tag_354:\n        /* \"#utility.yul\":18556:18562   */\n      dup5\n        /* \"#utility.yul\":18549:18553   */\n      dup5\n        /* \"#utility.yul\":18543:18554   */\n      sload\n        /* \"#utility.yul\":18515:18606   */\n      tag_164\n      jump\t// in\n    tag_353:\n        /* \"#utility.yul\":18509:18513   */\n      dup3\n        /* \"#utility.yul\":18502:18607   */\n      sstore\n        /* \"#utility.yul\":18420:18613   */\n      pop\n        /* \"#utility.yul\":18344:18613   */\n      pop\n      pop\n      pop\n      jump\t// out\n        /* \"#utility.yul\":18619:18692   */\n    tag_168:\n        /* \"#utility.yul\":18664:18667   */\n      0x00\n        /* \"#utility.yul\":18619:18692   */\n      swap1\n      jump\t// out\n        /* \"#utility.yul\":18698:18887   */\n    tag_169:\n        /* \"#utility.yul\":18775:18807   */\n      tag_357\n      tag_168\n      jump\t// in\n    tag_357:\n        /* \"#utility.yul\":18816:18881   */\n      tag_358\n        /* \"#utility.yul\":18874:18880   */\n      dup2\n        /* \"#utility.yul\":18866:18872   */\n      dup5\n        /* \"#utility.yul\":18860:18864   */\n      dup5\n        /* \"#utility.yul\":18816:18881   */\n      tag_167\n      jump\t// in\n    tag_358:\n        /* \"#utility.yul\":18751:18887   */\n      pop\n        /* \"#utility.yul\":18698:18887   */\n      pop\n      pop\n      jump\t// out\n        /* \"#utility.yul\":18893:19079   */\n    tag_170:\n        /* \"#utility.yul\":18953:19073   */\n    tag_360:\n        /* \"#utility.yul\":18970:18973   */\n      dup2\n        /* \"#utility.yul\":18963:18968   */\n      dup2\n        /* \"#utility.yul\":18960:18974   */\n      lt\n        /* \"#utility.yul\":18953:19073   */\n      iszero\n      tag_362\n      jumpi\n        /* \"#utility.yul\":19024:19063   */\n      tag_363\n        /* \"#utility.yul\":19061:19062   */\n      0x00\n        /* \"#utility.yul\":19054:19059   */\n      dup3\n        /* \"#utility.yul\":19024:19063   */\n      tag_169\n      jump\t// in\n    tag_363:\n        /* \"#utility.yul\":18997:18998   */\n      0x01\n        /* \"#utility.yul\":18990:18995   */\n      dup2\n        /* \"#utility.yul\":18986:18999   */\n      add\n        /* \"#utility.yul\":18977:18999   */\n      swap1\n      pop\n        /* \"#utility.yul\":18953:19073   */\n      jump(tag_360)\n    tag_362:\n        /* \"#utility.yul\":18893:19079   */\n      pop\n      pop\n      jump\t// out\n        /* \"#utility.yul\":19085:19628   */\n    tag_171:\n        /* \"#utility.yul\":19186:19188   */\n      0x1f\n        /* \"#utility.yul\":19181:19184   */\n      dup3\n        /* \"#utility.yul\":19178:19189   */\n      gt\n        /* \"#utility.yul\":19175:19621   */\n      iszero\n      tag_365\n      jumpi\n        /* \"#utility.yul\":19220:19258   */\n      tag_366\n        /* \"#utility.yul\":19252:19257   */\n      dup2\n        /* \"#utility.yul\":19220:19258   */\n      tag_161\n      jump\t// in\n    tag_366:\n        /* \"#utility.yul\":19304:19333   */\n      tag_367\n        /* \"#utility.yul\":19322:19332   */\n      dup5\n        /* \"#utility.yul\":19304:19333   */\n      tag_162\n      jump\t// in\n    tag_367:\n        /* \"#utility.yul\":19294:19302   */\n      dup2\n        /* \"#utility.yul\":19290:19334   */\n      add\n        /* \"#utility.yul\":19487:19489   */\n      0x20\n        /* \"#utility.yul\":19475:19485   */\n      dup6\n        /* \"#utility.yul\":19472:19490   */\n      lt\n        /* \"#utility.yul\":19469:19518   */\n      iszero\n      tag_368\n      jumpi\n        /* \"#utility.yul\":19508:19516   */\n      dup2\n        /* \"#utility.yul\":19493:19516   */\n      swap1\n      pop\n        /* \"#utility.yul\":19469:19518   */\n    tag_368:\n        /* \"#utility.yul\":19531:19611   */\n      tag_369\n        /* \"#utility.yul\":19587:19609   */\n      tag_370\n        /* \"#utility.yul\":19605:19608   */\n      dup6\n        /* \"#utility.yul\":19587:19609   */\n      tag_162\n      jump\t// in\n    tag_370:\n        /* \"#utility.yul\":19577:19585   */\n      dup4\n        /* \"#utility.yul\":19573:19610   */\n      add\n        /* \"#utility.yul\":19560:19571   */\n      dup3\n        /* \"#utility.yul\":19531:19611   */\n      tag_170\n      jump\t// in\n    tag_369:\n        /* \"#utility.yul\":19190:19621   */\n      pop\n      pop\n        /* \"#utility.yul\":19175:19621   */\n    tag_365:\n        /* \"#utility.yul\":19085:19628   */\n      pop\n      pop\n      pop\n      jump\t// out\n        /* \"#utility.yul\":19634:19751   */\n    tag_172:\n        /* \"#utility.yul\":19688:19696   */\n      0x00\n        /* \"#utility.yul\":19738:19743   */\n      dup3\n        /* \"#utility.yul\":19732:19736   */\n      dup3\n        /* \"#utility.yul\":19728:19744   */\n      shr\n        /* \"#utility.yul\":19707:19744   */\n      swap1\n      pop\n        /* \"#utility.yul\":19634:19751   */\n      swap3\n      swap2\n      pop\n      pop\n      jump\t// out\n        /* \"#utility.yul\":19757:19926   */\n    tag_173:\n        /* \"#utility.yul\":19801:19807   */\n      0x00\n        /* \"#utility.yul\":19834:19885   */\n      tag_373\n        /* \"#utility.yul\":19882:19883   */\n      0x00\n        /* \"#utility.yul\":19878:19884   */\n      not\n        /* \"#utility.yul\":19870:19875   */\n      dup5\n        /* \"#utility.yul\":19867:19868   */\n      0x08\n        /* \"#utility.yul\":19863:19876   */\n      mul\n        /* \"#utility.yul\":19834:19885   */\n      tag_172\n      jump\t// in\n    tag_373:\n        /* \"#utility.yul\":19830:19886   */\n      not\n        /* \"#utility.yul\":19915:19919   */\n      dup1\n        /* \"#utility.yul\":19909:19913   */\n      dup4\n        /* \"#utility.yul\":19905:19920   */\n      and\n        /* \"#utility.yul\":19895:19920   */\n      swap2\n      pop\n        /* \"#utility.yul\":19808:19926   */\n      pop\n        /* \"#utility.yul\":19757:19926   */\n      swap3\n      swap2\n      pop\n      pop\n      jump\t// out\n        /* \"#utility.yul\":19931:20226   */\n    tag_174:\n        /* \"#utility.yul\":20007:20011   */\n      0x00\n        /* \"#utility.yul\":20153:20182   */\n      tag_375\n        /* \"#utility.yul\":20178:20181   */\n      dup4\n        /* \"#utility.yul\":20172:20176   */\n      dup4\n        /* \"#utility.yul\":20153:20182   */\n      tag_173\n      jump\t// in\n    tag_375:\n        /* \"#utility.yul\":20145:20182   */\n      swap2\n      pop\n        /* \"#utility.yul\":20215:20218   */\n      dup3\n        /* \"#utility.yul\":20212:20213   */\n      0x02\n        /* \"#utility.yul\":20208:20219   */\n      mul\n        /* \"#utility.yul\":20202:20206   */\n      dup3\n        /* \"#utility.yul\":20199:20220   */\n      or\n        /* \"#utility.yul\":20191:20220   */\n      swap1\n      pop\n        /* \"#utility.yul\":19931:20226   */\n      swap3\n      swap2\n      pop\n      pop\n      jump\t// out\n        /* \"#utility.yul\":20231:21626   */\n    tag_92:\n        /* \"#utility.yul\":20348:20385   */\n      tag_377\n        /* \"#utility.yul\":20381:20384   */\n      dup3\n        /* \"#utility.yul\":20348:20385   */\n      tag_121\n      jump\t// in\n    tag_377:\n        /* \"#utility.yul\":20450:20468   */\n      0xffffffffffffffff\n        /* \"#utility.yul\":20442:20448   */\n      dup2\n        /* \"#utility.yul\":20439:20469   */\n      gt\n        /* \"#utility.yul\":20436:20492   */\n      iszero\n      tag_378\n      jumpi\n        /* \"#utility.yul\":20472:20490   */\n      tag_379\n      tag_138\n      jump\t// in\n    tag_379:\n        /* \"#utility.yul\":20436:20492   */\n    tag_378:\n        /* \"#utility.yul\":20516:20554   */\n      tag_380\n        /* \"#utility.yul\":20548:20552   */\n      dup3\n        /* \"#utility.yul\":20542:20553   */\n      sload\n        /* \"#utility.yul\":20516:20554   */\n      tag_49\n      jump\t// in\n    tag_380:\n        /* \"#utility.yul\":20601:20668   */\n      tag_381\n        /* \"#utility.yul\":20661:20667   */\n      dup3\n        /* \"#utility.yul\":20653:20659   */\n      dup3\n        /* \"#utility.yul\":20647:20651   */\n      dup6\n        /* \"#utility.yul\":20601:20668   */\n      tag_171\n      jump\t// in\n    tag_381:\n        /* \"#utility.yul\":20695:20696   */\n      0x00\n        /* \"#utility.yul\":20719:20723   */\n      0x20\n        /* \"#utility.yul\":20706:20723   */\n      swap1\n      pop\n        /* \"#utility.yul\":20751:20753   */\n      0x1f\n        /* \"#utility.yul\":20743:20749   */\n      dup4\n        /* \"#utility.yul\":20740:20754   */\n      gt\n        /* \"#utility.yul\":20768:20769   */\n      0x01\n        /* \"#utility.yul\":20763:21381   */\n      dup2\n      eq\n      tag_383\n      jumpi\n        /* \"#utility.yul\":21425:21426   */\n      0x00\n        /* \"#utility.yul\":21442:21448   */\n      dup5\n        /* \"#utility.yul\":21439:21516   */\n      iszero\n      tag_384\n      jumpi\n        /* \"#utility.yul\":21491:21500   */\n      dup3\n        /* \"#utility.yul\":21486:21489   */\n      dup8\n        /* \"#utility.yul\":21482:21501   */\n      add\n        /* \"#utility.yul\":21476:21502   */\n      mload\n        /* \"#utility.yul\":21467:21502   */\n      swap1\n      pop\n        /* \"#utility.yul\":21439:21516   */\n    tag_384:\n        /* \"#utility.yul\":21542:21609   */\n      tag_385\n        /* \"#utility.yul\":21602:21608   */\n      dup6\n        /* \"#utility.yul\":21595:21600   */\n      dup3\n        /* \"#utility.yul\":21542:21609   */\n      tag_174\n      jump\t// in\n    tag_385:\n        /* \"#utility.yul\":21536:21540   */\n      dup7\n        /* \"#utility.yul\":21529:21610   */\n      sstore\n        /* \"#utility.yul\":21398:21620   */\n      pop\n        /* \"#utility.yul\":20733:21620   */\n      jump(tag_382)\n        /* \"#utility.yul\":20763:21381   */\n    tag_383:\n        /* \"#utility.yul\":20815:20819   */\n      0x1f\n        /* \"#utility.yul\":20811:20820   */\n      not\n        /* \"#utility.yul\":20803:20809   */\n      dup5\n        /* \"#utility.yul\":20799:20821   */\n      and\n        /* \"#utility.yul\":20849:20886   */\n      tag_386\n        /* \"#utility.yul\":20881:20885   */\n      dup7\n        /* \"#utility.yul\":20849:20886   */\n      tag_161\n      jump\t// in\n    tag_386:\n        /* \"#utility.yul\":20908:20909   */\n      0x00\n        /* \"#utility.yul\":20922:21130   */\n    tag_387:\n        /* \"#utility.yul\":20936:20943   */\n      dup3\n        /* \"#utility.yul\":20933:20934   */\n      dup2\n        /* \"#utility.yul\":20930:20944   */\n      lt\n        /* \"#utility.yul\":20922:21130   */\n      iszero\n      tag_389\n      jumpi\n        /* \"#utility.yul\":21015:21024   */\n      dup5\n        /* \"#utility.yul\":21010:21013   */\n      dup10\n        /* \"#utility.yul\":21006:21025   */\n      add\n        /* \"#utility.yul\":21000:21026   */\n      mload\n        /* \"#utility.yul\":20992:20998   */\n      dup3\n        /* \"#utility.yul\":20985:21027   */\n      sstore\n        /* \"#utility.yul\":21066:21067   */\n      0x01\n        /* \"#utility.yul\":21058:21064   */\n      dup3\n        /* \"#utility.yul\":21054:21068   */\n      add\n        /* \"#utility.yul\":21044:21068   */\n      swap2\n      pop\n        /* \"#utility.yul\":21113:21115   */\n      0x20\n        /* \"#utility.yul\":21102:21111   */\n      dup6\n        /* \"#utility.yul\":21098:21116   */\n      add\n        /* \"#utility.yul\":21085:21116   */\n      swap5\n      pop\n        /* \"#utility.yul\":20959:20963   */\n      0x20\n        /* \"#utility.yul\":20956:20957   */\n      dup2\n        /* \"#utility.yul\":20952:20964   */\n      add\n        /* \"#utility.yul\":20947:20964   */\n      swap1\n      pop\n        /* \"#utility.yul\":20922:21130   */\n      jump(tag_387)\n    tag_389:\n        /* \"#utility.yul\":21158:21164   */\n      dup7\n        /* \"#utility.yul\":21149:21156   */\n      dup4\n        /* \"#utility.yul\":21146:21165   */\n      lt\n        /* \"#utility.yul\":21143:21322   */\n      iszero\n      tag_390\n      jumpi\n        /* \"#utility.yul\":21216:21225   */\n      dup5\n        /* \"#utility.yul\":21211:21214   */\n      dup10\n        /* \"#utility.yul\":21207:21226   */\n      add\n        /* \"#utility.yul\":21201:21227   */\n      mload\n        /* \"#utility.yul\":21259:21307   */\n      tag_391\n        /* \"#utility.yul\":21301:21305   */\n      0x1f\n        /* \"#utility.yul\":21293:21299   */\n      dup10\n        /* \"#utility.yul\":21289:21306   */\n      and\n        /* \"#utility.yul\":21278:21287   */\n      dup3\n        /* \"#utility.yul\":21259:21307   */\n      tag_173\n      jump\t// in\n    tag_391:\n        /* \"#utility.yul\":21251:21257   */\n      dup4\n        /* \"#utility.yul\":21244:21308   */\n      sstore\n        /* \"#utility.yul\":21166:21322   */\n      pop\n        /* \"#utility.yul\":21143:21322   */\n    tag_390:\n        /* \"#utility.yul\":21368:21369   */\n      0x01\n        /* \"#utility.yul\":21364:21365   */\n      0x02\n        /* \"#utility.yul\":21356:21362   */\n      dup9\n        /* \"#utility.yul\":21352:21366   */\n      mul\n        /* \"#utility.yul\":21348:21370   */\n      add\n        /* \"#utility.yul\":21342:21346   */\n      dup9\n        /* \"#utility.yul\":21335:21371   */\n      sstore\n        /* \"#utility.yul\":20770:21381   */\n      pop\n      pop\n      pop\n        /* \"#utility.yul\":20733:21620   */\n    tag_382:\n      pop\n        /* \"#utility.yul\":20323:21626   */\n      pop\n      pop\n      pop\n        /* \"#utility.yul\":20231:21626   */\n      pop\n      pop\n      jump\t// out\n        /* \"#utility.yul\":21632:21964   */\n    tag_97:\n        /* \"#utility.yul\":21753:21757   */\n      0x00\n        /* \"#utility.yul\":21791:21793   */\n      0x40\n        /* \"#utility.yul\":21780:21789   */\n      dup3\n        /* \"#utility.yul\":21776:21794   */\n      add\n        /* \"#utility.yul\":21768:21794   */\n      swap1\n      pop\n        /* \"#utility.yul\":21804:21875   */\n      tag_393\n        /* \"#utility.yul\":21872:21873   */\n      0x00\n        /* \"#utility.yul\":21861:21870   */\n      dup4\n        /* \"#utility.yul\":21857:21874   */\n      add\n        /* \"#utility.yul\":21848:21854   */\n      dup6\n        /* \"#utility.yul\":21804:21875   */\n      tag_135\n      jump\t// in\n    tag_393:\n        /* \"#utility.yul\":21885:21957   */\n      tag_394\n        /* \"#utility.yul\":21953:21955   */\n      0x20\n        /* \"#utility.yul\":21942:21951   */\n      dup4\n        /* \"#utility.yul\":21938:21956   */\n      add\n        /* \"#utility.yul\":21929:21935   */\n      dup5\n        /* \"#utility.yul\":21885:21957   */\n      tag_135\n      jump\t// in\n    tag_394:\n        /* \"#utility.yul\":21632:21964   */\n      swap4\n      swap3\n      pop\n      pop\n      pop\n      jump\t// out\n        /* \"#utility.yul\":21970:22302   */\n    tag_101:\n        /* \"#utility.yul\":22091:22095   */\n      0x00\n        /* \"#utility.yul\":22129:22131   */\n      0x40\n        /* \"#utility.yul\":22118:22127   */\n      dup3\n        /* \"#utility.yul\":22114:22132   */\n      add\n        /* \"#utility.yul\":22106:22132   */\n      swap1\n      pop\n        /* \"#utility.yul\":22142:22213   */\n      tag_396\n        /* \"#utility.yul\":22210:22211   */\n      0x00\n        /* \"#utility.yul\":22199:22208   */\n      dup4\n        /* \"#utility.yul\":22195:22212   */\n      add\n        /* \"#utility.yul\":22186:22192   */\n      dup6\n        /* \"#utility.yul\":22142:22213   */\n      tag_157\n      jump\t// in\n    tag_396:\n        /* \"#utility.yul\":22223:22295   */\n      tag_397\n        /* \"#utility.yul\":22291:22293   */\n      0x20\n        /* \"#utility.yul\":22280:22289   */\n      dup4\n        /* \"#utility.yul\":22276:22294   */\n      add\n        /* \"#utility.yul\":22267:22273   */\n      dup5\n        /* \"#utility.yul\":22223:22295   */\n      tag_135\n      jump\t// in\n    tag_397:\n        /* \"#utility.yul\":21970:22302   */\n      swap4\n      swap3\n      pop\n      pop\n      pop\n      jump\t// out\n\n    auxdata: 0xa2646970667358221220dbcf81e28880a3c9e9483581aa3a0092fe98660df8e05b13b59c178ab6074a0764736f6c634300081a0033\n}\n",
				"bytecode": {
					"linkReferences": {},
					"object": "608060405234801561000f575f80fd5b5060405161181638038061181683398181016040528101906100319190610142565b5f73ffffffffffffffffffffffffffffffffffffffff168173ffffffffffffffffffffffffffffffffffffffff160361009f576040517f08c379a0000000000000000000000000000000000000000000000000000000008152600401610096906101c7565b60405180910390fd5b805f806101000a81548173ffffffffffffffffffffffffffffffffffffffff021916908373ffffffffffffffffffffffffffffffffffffffff160217905550506101e5565b5f80fd5b5f73ffffffffffffffffffffffffffffffffffffffff82169050919050565b5f610111826100e8565b9050919050565b61012181610107565b811461012b575f80fd5b50565b5f8151905061013c81610118565b92915050565b5f60208284031215610157576101566100e4565b5b5f6101648482850161012e565b91505092915050565b5f82825260208201905092915050565b7f496e76616c696420746f6b656e206164647265737300000000000000000000005f82015250565b5f6101b160158361016d565b91506101bc8261017d565b602082019050919050565b5f6020820190508181035f8301526101de816101a5565b9050919050565b611624806101f25f395ff3fe608060405234801561000f575f80fd5b506004361061007b575f3560e01c80639e9aed62116100595780639e9aed62146100e7578063a94f576614610105578063d4ba890214610121578063f7c618c11461013f5761007b565b806305c175211461007f5780630c66f928146100af57806346e04a2f146100cb575b5f80fd5b61009960048036038101906100949190610ba4565b61015d565b6040516100a69190610d93565b60405180910390f35b6100c960048036038101906100c49190610de8565b6104b3565b005b6100e560048036038101906100e09190610e50565b610607565b005b6100ef6107bd565b6040516100fc9190610e8a565b60405180910390f35b61011f600480360381019061011a9190610fcf565b61085b565b005b6101296109f0565b6040516101369190610e8a565b60405180910390f35b6101476109fc565b60405161015491906110e2565b60405180910390f35b60603373ffffffffffffffffffffffffffffffffffffffff168273ffffffffffffffffffffffffffffffffffffffff16148061021a575060025f8373ffffffffffffffffffffffffffffffffffffffff1673ffffffffffffffffffffffffffffffffffffffff1681526020019081526020015f205f3373ffffffffffffffffffffffffffffffffffffffff1673ffffffffffffffffffffffffffffffffffffffff1681526020019081526020015f205f9054906101000a900460ff165b610259576040517f08c379a000000000000000000000000000000000000000000000000000000000815260040161025090611155565b60405180910390fd5b60015f8373ffffffffffffffffffffffffffffffffffffffff1673ffffffffffffffffffffffffffffffffffffffff1681526020019081526020015f20805480602002602001604051908101604052809291908181526020015f905b828210156104a8578382905f5260205f2090600502016040518060a00160405290815f8201548152602001600182015481526020016002820180546102f9906111a0565b80601f0160208091040260200160405190810160405280929190818152602001828054610325906111a0565b80156103705780601f1061034757610100808354040283529160200191610370565b820191905f5260205f20905b81548152906001019060200180831161035357829003601f168201915b50505050508152602001600382018054610389906111a0565b80601f01602080910402602001604051908101604052809291908181526020018280546103b5906111a0565b80156104005780601f106103d757610100808354040283529160200191610400565b820191905f5260205f20905b8154815290600101906020018083116103e357829003601f168201915b50505050508152602001600482018054610419906111a0565b80601f0160208091040260200160405190810160405280929190818152602001828054610445906111a0565b80156104905780601f1061046757610100808354040283529160200191610490565b820191905f5260205f20905b81548152906001019060200180831161047357829003601f168201915b505050505081525050815260200190600101906102b5565b505050509050919050565b8060025f3373ffffffffffffffffffffffffffffffffffffffff1673ffffffffffffffffffffffffffffffffffffffff1681526020019081526020015f205f8473ffffffffffffffffffffffffffffffffffffffff1673ffffffffffffffffffffffffffffffffffffffff1681526020019081526020015f205f6101000a81548160ff02191690831515021790555061059433678ac7230489e800005f8054906101000a900473ffffffffffffffffffffffffffffffffffffffff1673ffffffffffffffffffffffffffffffffffffffff16610a1f9092919063ffffffff16565b8173ffffffffffffffffffffffffffffffffffffffff163373ffffffffffffffffffffffffffffffffffffffff167f09c705c294119a93fb8ea4861ef048d5884d9504575b35eb38c7ea7705cf28b083678ac7230489e800006040516105fb9291906111df565b60405180910390a35050565b5f8111610649576040517f08c379a000000000000000000000000000000000000000000000000000000000815260040161064090611250565b60405180910390fd5b805f8054906101000a900473ffffffffffffffffffffffffffffffffffffffff1673ffffffffffffffffffffffffffffffffffffffff166370a08231306040518263ffffffff1660e01b81526004016106a2919061127d565b602060405180830381865afa1580156106bd573d5f803e3d5ffd5b505050506040513d601f19601f820116820180604052508101906106e191906112aa565b1015610722576040517f08c379a00000000000000000000000000000000000000000000000000000000081526004016107199061131f565b60405180910390fd5b61076c33825f8054906101000a900473ffffffffffffffffffffffffffffffffffffffff1673ffffffffffffffffffffffffffffffffffffffff16610a1f9092919063ffffffff16565b3373ffffffffffffffffffffffffffffffffffffffff167f896e034966eaaf1adc54acc0f257056febbd300c9e47182cf761982cf1f5e430826040516107b29190610e8a565b60405180910390a250565b5f805f9054906101000a900473ffffffffffffffffffffffffffffffffffffffff1673ffffffffffffffffffffffffffffffffffffffff166370a08231306040518263ffffffff1660e01b8152600401610817919061127d565b602060405180830381865afa158015610832573d5f803e3d5ffd5b505050506040513d601f19601f8201168201806040525081019061085691906112aa565b905090565b5f6040518060a0016040528042815260200186815260200185815260200184815260200183815250905060015f3373ffffffffffffffffffffffffffffffffffffffff1673ffffffffffffffffffffffffffffffffffffffff1681526020019081526020015f2081908060018154018082558091505060019003905f5260205f2090600502015f909190919091505f820151815f015560208201518160010155604082015181600201908161091091906114d1565b50606082015181600301908161092691906114d1565b50608082015181600401908161093c91906114d1565b50505061099133678ac7230489e800005f8054906101000a900473ffffffffffffffffffffffffffffffffffffffff1673ffffffffffffffffffffffffffffffffffffffff16610a1f9092919063ffffffff16565b3373ffffffffffffffffffffffffffffffffffffffff167f46b8550ac8f5f68f14d6a3540963578c9733e4ff2a4e7ca11cccdeeb0b521d6742678ac7230489e800006040516109e19291906115a0565b60405180910390a25050505050565b678ac7230489e8000081565b5f8054906101000a900473ffffffffffffffffffffffffffffffffffffffff1681565b610a99838473ffffffffffffffffffffffffffffffffffffffff1663a9059cbb8585604051602401610a529291906115c7565b604051602081830303815290604052915060e01b6020820180517bffffffffffffffffffffffffffffffffffffffffffffffffffffffff8381831617835250505050610a9e565b505050565b5f8060205f8451602086015f885af180610abd576040513d5f823e3d81fd5b3d92505f519150505f8214610ad6576001811415610af1565b5f8473ffffffffffffffffffffffffffffffffffffffff163b145b15610b3357836040517f5274afe7000000000000000000000000000000000000000000000000000000008152600401610b2a919061127d565b60405180910390fd5b50505050565b5f604051905090565b5f80fd5b5f80fd5b5f73ffffffffffffffffffffffffffffffffffffffff82169050919050565b5f610b7382610b4a565b9050919050565b610b8381610b69565b8114610b8d575f80fd5b50565b5f81359050610b9e81610b7a565b92915050565b5f60208284031215610bb957610bb8610b42565b5b5f610bc684828501610b90565b91505092915050565b5f81519050919050565b5f82825260208201905092915050565b5f819050602082019050919050565b5f819050919050565b610c0a81610bf8565b82525050565b5f81519050919050565b5f82825260208201905092915050565b8281835e5f83830152505050565b5f601f19601f8301169050919050565b5f610c5282610c10565b610c5c8185610c1a565b9350610c6c818560208601610c2a565b610c7581610c38565b840191505092915050565b5f60a083015f830151610c955f860182610c01565b506020830151610ca86020860182610c01565b5060408301518482036040860152610cc08282610c48565b91505060608301518482036060860152610cda8282610c48565b91505060808301518482036080860152610cf48282610c48565b9150508091505092915050565b5f610d0c8383610c80565b905092915050565b5f602082019050919050565b5f610d2a82610bcf565b610d348185610bd9565b935083602082028501610d4685610be9565b805f5b85811015610d815784840389528151610d628582610d01565b9450610d6d83610d14565b925060208a01995050600181019050610d49565b50829750879550505050505092915050565b5f6020820190508181035f830152610dab8184610d20565b905092915050565b5f8115159050919050565b610dc781610db3565b8114610dd1575f80fd5b50565b5f81359050610de281610dbe565b92915050565b5f8060408385031215610dfe57610dfd610b42565b5b5f610e0b85828601610b90565b9250506020610e1c85828601610dd4565b9150509250929050565b610e2f81610bf8565b8114610e39575f80fd5b50565b5f81359050610e4a81610e26565b92915050565b5f60208284031215610e6557610e64610b42565b5b5f610e7284828501610e3c565b91505092915050565b610e8481610bf8565b82525050565b5f602082019050610e9d5f830184610e7b565b92915050565b5f80fd5b5f80fd5b7f4e487b71000000000000000000000000000000000000000000000000000000005f52604160045260245ffd5b610ee182610c38565b810181811067ffffffffffffffff82111715610f0057610eff610eab565b5b80604052505050565b5f610f12610b39565b9050610f1e8282610ed8565b919050565b5f67ffffffffffffffff821115610f3d57610f3c610eab565b5b610f4682610c38565b9050602081019050919050565b828183375f83830152505050565b5f610f73610f6e84610f23565b610f09565b905082815260208101848484011115610f8f57610f8e610ea7565b5b610f9a848285610f53565b509392505050565b5f82601f830112610fb657610fb5610ea3565b5b8135610fc6848260208601610f61565b91505092915050565b5f805f8060808587031215610fe757610fe6610b42565b5b5f610ff487828801610e3c565b945050602085013567ffffffffffffffff81111561101557611014610b46565b5b61102187828801610fa2565b935050604085013567ffffffffffffffff81111561104257611041610b46565b5b61104e87828801610fa2565b925050606085013567ffffffffffffffff81111561106f5761106e610b46565b5b61107b87828801610fa2565b91505092959194509250565b5f819050919050565b5f6110aa6110a56110a084610b4a565b611087565b610b4a565b9050919050565b5f6110bb82611090565b9050919050565b5f6110cc826110b1565b9050919050565b6110dc816110c2565b82525050565b5f6020820190506110f55f8301846110d3565b92915050565b5f82825260208201905092915050565b7f416363657373206e6f7420617574686f72697a656400000000000000000000005f82015250565b5f61113f6015836110fb565b915061114a8261110b565b602082019050919050565b5f6020820190508181035f83015261116c81611133565b9050919050565b7f4e487b71000000000000000000000000000000000000000000000000000000005f52602260045260245ffd5b5f60028204905060018216806111b757607f821691505b6020821081036111ca576111c9611173565b5b50919050565b6111d981610db3565b82525050565b5f6040820190506111f25f8301856111d0565b6111ff6020830184610e7b565b9392505050565b7f416d6f756e74206d7573742062652067726561746572207468616e207a65726f5f82015250565b5f61123a6020836110fb565b915061124582611206565b602082019050919050565b5f6020820190508181035f8301526112678161122e565b9050919050565b61127781610b69565b82525050565b5f6020820190506112905f83018461126e565b92915050565b5f815190506112a481610e26565b92915050565b5f602082840312156112bf576112be610b42565b5b5f6112cc84828501611296565b91505092915050565b7f496e73756666696369656e7420636f6e74726163742062616c616e63650000005f82015250565b5f611309601d836110fb565b9150611314826112d5565b602082019050919050565b5f6020820190508181035f830152611336816112fd565b9050919050565b5f819050815f5260205f209050919050565b5f6020601f8301049050919050565b5f82821b905092915050565b5f600883026113997fffffffffffffffffffffffffffffffffffffffffffffffffffffffffffffffff8261135e565b6113a3868361135e565b95508019841693508086168417925050509392505050565b5f6113d56113d06113cb84610bf8565b611087565b610bf8565b9050919050565b5f819050919050565b6113ee836113bb565b6114026113fa826113dc565b84845461136a565b825550505050565b5f90565b61141661140a565b6114218184846113e5565b505050565b5b81811015611444576114395f8261140e565b600181019050611427565b5050565b601f8211156114895761145a8161133d565b6114638461134f565b81016020851015611472578190505b61148661147e8561134f565b830182611426565b50505b505050565b5f82821c905092915050565b5f6114a95f198460080261148e565b1980831691505092915050565b5f6114c1838361149a565b9150826002028217905092915050565b6114da82610c10565b67ffffffffffffffff8111156114f3576114f2610eab565b5b6114fd82546111a0565b611508828285611448565b5f60209050601f831160018114611539575f8415611527578287015190505b61153185826114b6565b865550611598565b601f1984166115478661133d565b5f5b8281101561156e57848901518255600182019150602085019450602081019050611549565b8683101561158b5784890151611587601f89168261149a565b8355505b6001600288020188555050505b505050505050565b5f6040820190506115b35f830185610e7b565b6115c06020830184610e7b565b9392505050565b5f6040820190506115da5f83018561126e565b6115e76020830184610e7b565b939250505056fea2646970667358221220dbcf81e28880a3c9e9483581aa3a0092fe98660df8e05b13b59c178ab6074a0764736f6c634300081a0033",
					"opcodes": "PUSH1 0x80 PUSH1 0x40 MSTORE CALLVALUE DUP1 ISZERO PUSH2 0xF JUMPI PUSH0 DUP1 REVERT JUMPDEST POP PUSH1 0x40 MLOAD PUSH2 0x1816 CODESIZE SUB DUP1 PUSH2 0x1816 DUP4 CODECOPY DUP2 DUP2 ADD PUSH1 0x40 MSTORE DUP2 ADD SWAP1 PUSH2 0x31 SWAP2 SWAP1 PUSH2 0x142 JUMP JUMPDEST PUSH0 PUSH20 0xFFFFFFFFFFFFFFFFFFFFFFFFFFFFFFFFFFFFFFFF AND DUP2 PUSH20 0xFFFFFFFFFFFFFFFFFFFFFFFFFFFFFFFFFFFFFFFF AND SUB PUSH2 0x9F JUMPI PUSH1 0x40 MLOAD PUSH32 0x8C379A000000000000000000000000000000000000000000000000000000000 DUP2 MSTORE PUSH1 0x4 ADD PUSH2 0x96 SWAP1 PUSH2 0x1C7 JUMP JUMPDEST PUSH1 0x40 MLOAD DUP1 SWAP2 SUB SWAP1 REVERT JUMPDEST DUP1 PUSH0 DUP1 PUSH2 0x100 EXP DUP2 SLOAD DUP2 PUSH20 0xFFFFFFFFFFFFFFFFFFFFFFFFFFFFFFFFFFFFFFFF MUL NOT AND SWAP1 DUP4 PUSH20 0xFFFFFFFFFFFFFFFFFFFFFFFFFFFFFFFFFFFFFFFF AND MUL OR SWAP1 SSTORE POP POP PUSH2 0x1E5 JUMP JUMPDEST PUSH0 DUP1 REVERT JUMPDEST PUSH0 PUSH20 0xFFFFFFFFFFFFFFFFFFFFFFFFFFFFFFFFFFFFFFFF DUP3 AND SWAP1 POP SWAP2 SWAP1 POP JUMP JUMPDEST PUSH0 PUSH2 0x111 DUP3 PUSH2 0xE8 JUMP JUMPDEST SWAP1 POP SWAP2 SWAP1 POP JUMP JUMPDEST PUSH2 0x121 DUP2 PUSH2 0x107 JUMP JUMPDEST DUP2 EQ PUSH2 0x12B JUMPI PUSH0 DUP1 REVERT JUMPDEST POP JUMP JUMPDEST PUSH0 DUP2 MLOAD SWAP1 POP PUSH2 0x13C DUP2 PUSH2 0x118 JUMP JUMPDEST SWAP3 SWAP2 POP POP JUMP JUMPDEST PUSH0 PUSH1 0x20 DUP3 DUP5 SUB SLT ISZERO PUSH2 0x157 JUMPI PUSH2 0x156 PUSH2 0xE4 JUMP JUMPDEST JUMPDEST PUSH0 PUSH2 0x164 DUP5 DUP3 DUP6 ADD PUSH2 0x12E JUMP JUMPDEST SWAP2 POP POP SWAP3 SWAP2 POP POP JUMP JUMPDEST PUSH0 DUP3 DUP3 MSTORE PUSH1 0x20 DUP3 ADD SWAP1 POP SWAP3 SWAP2 POP POP JUMP JUMPDEST PUSH32 0x496E76616C696420746F6B656E20616464726573730000000000000000000000 PUSH0 DUP3 ADD MSTORE POP JUMP JUMPDEST PUSH0 PUSH2 0x1B1 PUSH1 0x15 DUP4 PUSH2 0x16D JUMP JUMPDEST SWAP2 POP PUSH2 0x1BC DUP3 PUSH2 0x17D JUMP JUMPDEST PUSH1 0x20 DUP3 ADD SWAP1 POP SWAP2 SWAP1 POP JUMP JUMPDEST PUSH0 PUSH1 0x20 DUP3 ADD SWAP1 POP DUP2 DUP2 SUB PUSH0 DUP4 ADD MSTORE PUSH2 0x1DE DUP2 PUSH2 0x1A5 JUMP JUMPDEST SWAP1 POP SWAP2 SWAP1 POP JUMP JUMPDEST PUSH2 0x1624 DUP1 PUSH2 0x1F2 PUSH0 CODECOPY PUSH0 RETURN INVALID PUSH1 0x80 PUSH1 0x40 MSTORE CALLVALUE DUP1 ISZERO PUSH2 0xF JUMPI PUSH0 DUP1 REVERT JUMPDEST POP PUSH1 0x4 CALLDATASIZE LT PUSH2 0x7B JUMPI PUSH0 CALLDATALOAD PUSH1 0xE0 SHR DUP1 PUSH4 0x9E9AED62 GT PUSH2 0x59 JUMPI DUP1 PUSH4 0x9E9AED62 EQ PUSH2 0xE7 JUMPI DUP1 PUSH4 0xA94F5766 EQ PUSH2 0x105 JUMPI DUP1 PUSH4 0xD4BA8902 EQ PUSH2 0x121 JUMPI DUP1 PUSH4 0xF7C618C1 EQ PUSH2 0x13F JUMPI PUSH2 0x7B JUMP JUMPDEST DUP1 PUSH4 0x5C17521 EQ PUSH2 0x7F JUMPI DUP1 PUSH4 0xC66F928 EQ PUSH2 0xAF JUMPI DUP1 PUSH4 0x46E04A2F EQ PUSH2 0xCB JUMPI JUMPDEST PUSH0 DUP1 REVERT JUMPDEST PUSH2 0x99 PUSH1 0x4 DUP1 CALLDATASIZE SUB DUP2 ADD SWAP1 PUSH2 0x94 SWAP2 SWAP1 PUSH2 0xBA4 JUMP JUMPDEST PUSH2 0x15D JUMP JUMPDEST PUSH1 0x40 MLOAD PUSH2 0xA6 SWAP2 SWAP1 PUSH2 0xD93 JUMP JUMPDEST PUSH1 0x40 MLOAD DUP1 SWAP2 SUB SWAP1 RETURN JUMPDEST PUSH2 0xC9 PUSH1 0x4 DUP1 CALLDATASIZE SUB DUP2 ADD SWAP1 PUSH2 0xC4 SWAP2 SWAP1 PUSH2 0xDE8 JUMP JUMPDEST PUSH2 0x4B3 JUMP JUMPDEST STOP JUMPDEST PUSH2 0xE5 PUSH1 0x4 DUP1 CALLDATASIZE SUB DUP2 ADD SWAP1 PUSH2 0xE0 SWAP2 SWAP1 PUSH2 0xE50 JUMP JUMPDEST PUSH2 0x607 JUMP JUMPDEST STOP JUMPDEST PUSH2 0xEF PUSH2 0x7BD JUMP JUMPDEST PUSH1 0x40 MLOAD PUSH2 0xFC SWAP2 SWAP1 PUSH2 0xE8A JUMP JUMPDEST PUSH1 0x40 MLOAD DUP1 SWAP2 SUB SWAP1 RETURN JUMPDEST PUSH2 0x11F PUSH1 0x4 DUP1 CALLDATASIZE SUB DUP2 ADD SWAP1 PUSH2 0x11A SWAP2 SWAP1 PUSH2 0xFCF JUMP JUMPDEST PUSH2 0x85B JUMP JUMPDEST STOP JUMPDEST PUSH2 0x129 PUSH2 0x9F0 JUMP JUMPDEST PUSH1 0x40 MLOAD PUSH2 0x136 SWAP2 SWAP1 PUSH2 0xE8A JUMP JUMPDEST PUSH1 0x40 MLOAD DUP1 SWAP2 SUB SWAP1 RETURN JUMPDEST PUSH2 0x147 PUSH2 0x9FC JUMP JUMPDEST PUSH1 0x40 MLOAD PUSH2 0x154 SWAP2 SWAP1 PUSH2 0x10E2 JUMP JUMPDEST PUSH1 0x40 MLOAD DUP1 SWAP2 SUB SWAP1 RETURN JUMPDEST PUSH1 0x60 CALLER PUSH20 0xFFFFFFFFFFFFFFFFFFFFFFFFFFFFFFFFFFFFFFFF AND DUP3 PUSH20 0xFFFFFFFFFFFFFFFFFFFFFFFFFFFFFFFFFFFFFFFF AND EQ DUP1 PUSH2 0x21A JUMPI POP PUSH1 0x2 PUSH0 DUP4 PUSH20 0xFFFFFFFFFFFFFFFFFFFFFFFFFFFFFFFFFFFFFFFF AND PUSH20 0xFFFFFFFFFFFFFFFFFFFFFFFFFFFFFFFFFFFFFFFF AND DUP2 MSTORE PUSH1 0x20 ADD SWAP1 DUP2 MSTORE PUSH1 0x20 ADD PUSH0 KECCAK256 PUSH0 CALLER PUSH20 0xFFFFFFFFFFFFFFFFFFFFFFFFFFFFFFFFFFFFFFFF AND PUSH20 0xFFFFFFFFFFFFFFFFFFFFFFFFFFFFFFFFFFFFFFFF AND DUP2 MSTORE PUSH1 0x20 ADD SWAP1 DUP2 MSTORE PUSH1 0x20 ADD PUSH0 KECCAK256 PUSH0 SWAP1 SLOAD SWAP1 PUSH2 0x100 EXP SWAP1 DIV PUSH1 0xFF AND JUMPDEST PUSH2 0x259 JUMPI PUSH1 0x40 MLOAD PUSH32 0x8C379A000000000000000000000000000000000000000000000000000000000 DUP2 MSTORE PUSH1 0x4 ADD PUSH2 0x250 SWAP1 PUSH2 0x1155 JUMP JUMPDEST PUSH1 0x40 MLOAD DUP1 SWAP2 SUB SWAP1 REVERT JUMPDEST PUSH1 0x1 PUSH0 DUP4 PUSH20 0xFFFFFFFFFFFFFFFFFFFFFFFFFFFFFFFFFFFFFFFF AND PUSH20 0xFFFFFFFFFFFFFFFFFFFFFFFFFFFFFFFFFFFFFFFF AND DUP2 MSTORE PUSH1 0x20 ADD SWAP1 DUP2 MSTORE PUSH1 0x20 ADD PUSH0 KECCAK256 DUP1 SLOAD DUP1 PUSH1 0x20 MUL PUSH1 0x20 ADD PUSH1 0x40 MLOAD SWAP1 DUP2 ADD PUSH1 0x40 MSTORE DUP1 SWAP3 SWAP2 SWAP1 DUP2 DUP2 MSTORE PUSH1 0x20 ADD PUSH0 SWAP1 JUMPDEST DUP3 DUP3 LT ISZERO PUSH2 0x4A8 JUMPI DUP4 DUP3 SWAP1 PUSH0 MSTORE PUSH1 0x20 PUSH0 KECCAK256 SWAP1 PUSH1 0x5 MUL ADD PUSH1 0x40 MLOAD DUP1 PUSH1 0xA0 ADD PUSH1 0x40 MSTORE SWAP1 DUP2 PUSH0 DUP3 ADD SLOAD DUP2 MSTORE PUSH1 0x20 ADD PUSH1 0x1 DUP3 ADD SLOAD DUP2 MSTORE PUSH1 0x20 ADD PUSH1 0x2 DUP3 ADD DUP1 SLOAD PUSH2 0x2F9 SWAP1 PUSH2 0x11A0 JUMP JUMPDEST DUP1 PUSH1 0x1F ADD PUSH1 0x20 DUP1 SWAP2 DIV MUL PUSH1 0x20 ADD PUSH1 0x40 MLOAD SWAP1 DUP2 ADD PUSH1 0x40 MSTORE DUP1 SWAP3 SWAP2 SWAP1 DUP2 DUP2 MSTORE PUSH1 0x20 ADD DUP3 DUP1 SLOAD PUSH2 0x325 SWAP1 PUSH2 0x11A0 JUMP JUMPDEST DUP1 ISZERO PUSH2 0x370 JUMPI DUP1 PUSH1 0x1F LT PUSH2 0x347 JUMPI PUSH2 0x100 DUP1 DUP4 SLOAD DIV MUL DUP4 MSTORE SWAP2 PUSH1 0x20 ADD SWAP2 PUSH2 0x370 JUMP JUMPDEST DUP3 ADD SWAP2 SWAP1 PUSH0 MSTORE PUSH1 0x20 PUSH0 KECCAK256 SWAP1 JUMPDEST DUP2 SLOAD DUP2 MSTORE SWAP1 PUSH1 0x1 ADD SWAP1 PUSH1 0x20 ADD DUP1 DUP4 GT PUSH2 0x353 JUMPI DUP3 SWAP1 SUB PUSH1 0x1F AND DUP3 ADD SWAP2 JUMPDEST POP POP POP POP POP DUP2 MSTORE PUSH1 0x20 ADD PUSH1 0x3 DUP3 ADD DUP1 SLOAD PUSH2 0x389 SWAP1 PUSH2 0x11A0 JUMP JUMPDEST DUP1 PUSH1 0x1F ADD PUSH1 0x20 DUP1 SWAP2 DIV MUL PUSH1 0x20 ADD PUSH1 0x40 MLOAD SWAP1 DUP2 ADD PUSH1 0x40 MSTORE DUP1 SWAP3 SWAP2 SWAP1 DUP2 DUP2 MSTORE PUSH1 0x20 ADD DUP3 DUP1 SLOAD PUSH2 0x3B5 SWAP1 PUSH2 0x11A0 JUMP JUMPDEST DUP1 ISZERO PUSH2 0x400 JUMPI DUP1 PUSH1 0x1F LT PUSH2 0x3D7 JUMPI PUSH2 0x100 DUP1 DUP4 SLOAD DIV MUL DUP4 MSTORE SWAP2 PUSH1 0x20 ADD SWAP2 PUSH2 0x400 JUMP JUMPDEST DUP3 ADD SWAP2 SWAP1 PUSH0 MSTORE PUSH1 0x20 PUSH0 KECCAK256 SWAP1 JUMPDEST DUP2 SLOAD DUP2 MSTORE SWAP1 PUSH1 0x1 ADD SWAP1 PUSH1 0x20 ADD DUP1 DUP4 GT PUSH2 0x3E3 JUMPI DUP3 SWAP1 SUB PUSH1 0x1F AND DUP3 ADD SWAP2 JUMPDEST POP POP POP POP POP DUP2 MSTORE PUSH1 0x20 ADD PUSH1 0x4 DUP3 ADD DUP1 SLOAD PUSH2 0x419 SWAP1 PUSH2 0x11A0 JUMP JUMPDEST DUP1 PUSH1 0x1F ADD PUSH1 0x20 DUP1 SWAP2 DIV MUL PUSH1 0x20 ADD PUSH1 0x40 MLOAD SWAP1 DUP2 ADD PUSH1 0x40 MSTORE DUP1 SWAP3 SWAP2 SWAP1 DUP2 DUP2 MSTORE PUSH1 0x20 ADD DUP3 DUP1 SLOAD PUSH2 0x445 SWAP1 PUSH2 0x11A0 JUMP JUMPDEST DUP1 ISZERO PUSH2 0x490 JUMPI DUP1 PUSH1 0x1F LT PUSH2 0x467 JUMPI PUSH2 0x100 DUP1 DUP4 SLOAD DIV MUL DUP4 MSTORE SWAP2 PUSH1 0x20 ADD SWAP2 PUSH2 0x490 JUMP JUMPDEST DUP3 ADD SWAP2 SWAP1 PUSH0 MSTORE PUSH1 0x20 PUSH0 KECCAK256 SWAP1 JUMPDEST DUP2 SLOAD DUP2 MSTORE SWAP1 PUSH1 0x1 ADD SWAP1 PUSH1 0x20 ADD DUP1 DUP4 GT PUSH2 0x473 JUMPI DUP3 SWAP1 SUB PUSH1 0x1F AND DUP3 ADD SWAP2 JUMPDEST POP POP POP POP POP DUP2 MSTORE POP POP DUP2 MSTORE PUSH1 0x20 ADD SWAP1 PUSH1 0x1 ADD SWAP1 PUSH2 0x2B5 JUMP JUMPDEST POP POP POP POP SWAP1 POP SWAP2 SWAP1 POP JUMP JUMPDEST DUP1 PUSH1 0x2 PUSH0 CALLER PUSH20 0xFFFFFFFFFFFFFFFFFFFFFFFFFFFFFFFFFFFFFFFF AND PUSH20 0xFFFFFFFFFFFFFFFFFFFFFFFFFFFFFFFFFFFFFFFF AND DUP2 MSTORE PUSH1 0x20 ADD SWAP1 DUP2 MSTORE PUSH1 0x20 ADD PUSH0 KECCAK256 PUSH0 DUP5 PUSH20 0xFFFFFFFFFFFFFFFFFFFFFFFFFFFFFFFFFFFFFFFF AND PUSH20 0xFFFFFFFFFFFFFFFFFFFFFFFFFFFFFFFFFFFFFFFF AND DUP2 MSTORE PUSH1 0x20 ADD SWAP1 DUP2 MSTORE PUSH1 0x20 ADD PUSH0 KECCAK256 PUSH0 PUSH2 0x100 EXP DUP2 SLOAD DUP2 PUSH1 0xFF MUL NOT AND SWAP1 DUP4 ISZERO ISZERO MUL OR SWAP1 SSTORE POP PUSH2 0x594 CALLER PUSH8 0x8AC7230489E80000 PUSH0 DUP1 SLOAD SWAP1 PUSH2 0x100 EXP SWAP1 DIV PUSH20 0xFFFFFFFFFFFFFFFFFFFFFFFFFFFFFFFFFFFFFFFF AND PUSH20 0xFFFFFFFFFFFFFFFFFFFFFFFFFFFFFFFFFFFFFFFF AND PUSH2 0xA1F SWAP1 SWAP3 SWAP2 SWAP1 PUSH4 0xFFFFFFFF AND JUMP JUMPDEST DUP2 PUSH20 0xFFFFFFFFFFFFFFFFFFFFFFFFFFFFFFFFFFFFFFFF AND CALLER PUSH20 0xFFFFFFFFFFFFFFFFFFFFFFFFFFFFFFFFFFFFFFFF AND PUSH32 0x9C705C294119A93FB8EA4861EF048D5884D9504575B35EB38C7EA7705CF28B0 DUP4 PUSH8 0x8AC7230489E80000 PUSH1 0x40 MLOAD PUSH2 0x5FB SWAP3 SWAP2 SWAP1 PUSH2 0x11DF JUMP JUMPDEST PUSH1 0x40 MLOAD DUP1 SWAP2 SUB SWAP1 LOG3 POP POP JUMP JUMPDEST PUSH0 DUP2 GT PUSH2 0x649 JUMPI PUSH1 0x40 MLOAD PUSH32 0x8C379A000000000000000000000000000000000000000000000000000000000 DUP2 MSTORE PUSH1 0x4 ADD PUSH2 0x640 SWAP1 PUSH2 0x1250 JUMP JUMPDEST PUSH1 0x40 MLOAD DUP1 SWAP2 SUB SWAP1 REVERT JUMPDEST DUP1 PUSH0 DUP1 SLOAD SWAP1 PUSH2 0x100 EXP SWAP1 DIV PUSH20 0xFFFFFFFFFFFFFFFFFFFFFFFFFFFFFFFFFFFFFFFF AND PUSH20 0xFFFFFFFFFFFFFFFFFFFFFFFFFFFFFFFFFFFFFFFF AND PUSH4 0x70A08231 ADDRESS PUSH1 0x40 MLOAD DUP3 PUSH4 0xFFFFFFFF AND PUSH1 0xE0 SHL DUP2 MSTORE PUSH1 0x4 ADD PUSH2 0x6A2 SWAP2 SWAP1 PUSH2 0x127D JUMP JUMPDEST PUSH1 0x20 PUSH1 0x40 MLOAD DUP1 DUP4 SUB DUP2 DUP7 GAS STATICCALL ISZERO DUP1 ISZERO PUSH2 0x6BD JUMPI RETURNDATASIZE PUSH0 DUP1 RETURNDATACOPY RETURNDATASIZE PUSH0 REVERT JUMPDEST POP POP POP POP PUSH1 0x40 MLOAD RETURNDATASIZE PUSH1 0x1F NOT PUSH1 0x1F DUP3 ADD AND DUP3 ADD DUP1 PUSH1 0x40 MSTORE POP DUP2 ADD SWAP1 PUSH2 0x6E1 SWAP2 SWAP1 PUSH2 0x12AA JUMP JUMPDEST LT ISZERO PUSH2 0x722 JUMPI PUSH1 0x40 MLOAD PUSH32 0x8C379A000000000000000000000000000000000000000000000000000000000 DUP2 MSTORE PUSH1 0x4 ADD PUSH2 0x719 SWAP1 PUSH2 0x131F JUMP JUMPDEST PUSH1 0x40 MLOAD DUP1 SWAP2 SUB SWAP1 REVERT JUMPDEST PUSH2 0x76C CALLER DUP3 PUSH0 DUP1 SLOAD SWAP1 PUSH2 0x100 EXP SWAP1 DIV PUSH20 0xFFFFFFFFFFFFFFFFFFFFFFFFFFFFFFFFFFFFFFFF AND PUSH20 0xFFFFFFFFFFFFFFFFFFFFFFFFFFFFFFFFFFFFFFFF AND PUSH2 0xA1F SWAP1 SWAP3 SWAP2 SWAP1 PUSH4 0xFFFFFFFF AND JUMP JUMPDEST CALLER PUSH20 0xFFFFFFFFFFFFFFFFFFFFFFFFFFFFFFFFFFFFFFFF AND PUSH32 0x896E034966EAAF1ADC54ACC0F257056FEBBD300C9E47182CF761982CF1F5E430 DUP3 PUSH1 0x40 MLOAD PUSH2 0x7B2 SWAP2 SWAP1 PUSH2 0xE8A JUMP JUMPDEST PUSH1 0x40 MLOAD DUP1 SWAP2 SUB SWAP1 LOG2 POP JUMP JUMPDEST PUSH0 DUP1 PUSH0 SWAP1 SLOAD SWAP1 PUSH2 0x100 EXP SWAP1 DIV PUSH20 0xFFFFFFFFFFFFFFFFFFFFFFFFFFFFFFFFFFFFFFFF AND PUSH20 0xFFFFFFFFFFFFFFFFFFFFFFFFFFFFFFFFFFFFFFFF AND PUSH4 0x70A08231 ADDRESS PUSH1 0x40 MLOAD DUP3 PUSH4 0xFFFFFFFF AND PUSH1 0xE0 SHL DUP2 MSTORE PUSH1 0x4 ADD PUSH2 0x817 SWAP2 SWAP1 PUSH2 0x127D JUMP JUMPDEST PUSH1 0x20 PUSH1 0x40 MLOAD DUP1 DUP4 SUB DUP2 DUP7 GAS STATICCALL ISZERO DUP1 ISZERO PUSH2 0x832 JUMPI RETURNDATASIZE PUSH0 DUP1 RETURNDATACOPY RETURNDATASIZE PUSH0 REVERT JUMPDEST POP POP POP POP PUSH1 0x40 MLOAD RETURNDATASIZE PUSH1 0x1F NOT PUSH1 0x1F DUP3 ADD AND DUP3 ADD DUP1 PUSH1 0x40 MSTORE POP DUP2 ADD SWAP1 PUSH2 0x856 SWAP2 SWAP1 PUSH2 0x12AA JUMP JUMPDEST SWAP1 POP SWAP1 JUMP JUMPDEST PUSH0 PUSH1 0x40 MLOAD DUP1 PUSH1 0xA0 ADD PUSH1 0x40 MSTORE DUP1 TIMESTAMP DUP2 MSTORE PUSH1 0x20 ADD DUP7 DUP2 MSTORE PUSH1 0x20 ADD DUP6 DUP2 MSTORE PUSH1 0x20 ADD DUP5 DUP2 MSTORE PUSH1 0x20 ADD DUP4 DUP2 MSTORE POP SWAP1 POP PUSH1 0x1 PUSH0 CALLER PUSH20 0xFFFFFFFFFFFFFFFFFFFFFFFFFFFFFFFFFFFFFFFF AND PUSH20 0xFFFFFFFFFFFFFFFFFFFFFFFFFFFFFFFFFFFFFFFF AND DUP2 MSTORE PUSH1 0x20 ADD SWAP1 DUP2 MSTORE PUSH1 0x20 ADD PUSH0 KECCAK256 DUP2 SWAP1 DUP1 PUSH1 0x1 DUP2 SLOAD ADD DUP1 DUP3 SSTORE DUP1 SWAP2 POP POP PUSH1 0x1 SWAP1 SUB SWAP1 PUSH0 MSTORE PUSH1 0x20 PUSH0 KECCAK256 SWAP1 PUSH1 0x5 MUL ADD PUSH0 SWAP1 SWAP2 SWAP1 SWAP2 SWAP1 SWAP2 POP PUSH0 DUP3 ADD MLOAD DUP2 PUSH0 ADD SSTORE PUSH1 0x20 DUP3 ADD MLOAD DUP2 PUSH1 0x1 ADD SSTORE PUSH1 0x40 DUP3 ADD MLOAD DUP2 PUSH1 0x2 ADD SWAP1 DUP2 PUSH2 0x910 SWAP2 SWAP1 PUSH2 0x14D1 JUMP JUMPDEST POP PUSH1 0x60 DUP3 ADD MLOAD DUP2 PUSH1 0x3 ADD SWAP1 DUP2 PUSH2 0x926 SWAP2 SWAP1 PUSH2 0x14D1 JUMP JUMPDEST POP PUSH1 0x80 DUP3 ADD MLOAD DUP2 PUSH1 0x4 ADD SWAP1 DUP2 PUSH2 0x93C SWAP2 SWAP1 PUSH2 0x14D1 JUMP JUMPDEST POP POP POP PUSH2 0x991 CALLER PUSH8 0x8AC7230489E80000 PUSH0 DUP1 SLOAD SWAP1 PUSH2 0x100 EXP SWAP1 DIV PUSH20 0xFFFFFFFFFFFFFFFFFFFFFFFFFFFFFFFFFFFFFFFF AND PUSH20 0xFFFFFFFFFFFFFFFFFFFFFFFFFFFFFFFFFFFFFFFF AND PUSH2 0xA1F SWAP1 SWAP3 SWAP2 SWAP1 PUSH4 0xFFFFFFFF AND JUMP JUMPDEST CALLER PUSH20 0xFFFFFFFFFFFFFFFFFFFFFFFFFFFFFFFFFFFFFFFF AND PUSH32 0x46B8550AC8F5F68F14D6A3540963578C9733E4FF2A4E7CA11CCCDEEB0B521D67 TIMESTAMP PUSH8 0x8AC7230489E80000 PUSH1 0x40 MLOAD PUSH2 0x9E1 SWAP3 SWAP2 SWAP1 PUSH2 0x15A0 JUMP JUMPDEST PUSH1 0x40 MLOAD DUP1 SWAP2 SUB SWAP1 LOG2 POP POP POP POP POP JUMP JUMPDEST PUSH8 0x8AC7230489E80000 DUP2 JUMP JUMPDEST PUSH0 DUP1 SLOAD SWAP1 PUSH2 0x100 EXP SWAP1 DIV PUSH20 0xFFFFFFFFFFFFFFFFFFFFFFFFFFFFFFFFFFFFFFFF AND DUP2 JUMP JUMPDEST PUSH2 0xA99 DUP4 DUP5 PUSH20 0xFFFFFFFFFFFFFFFFFFFFFFFFFFFFFFFFFFFFFFFF AND PUSH4 0xA9059CBB DUP6 DUP6 PUSH1 0x40 MLOAD PUSH1 0x24 ADD PUSH2 0xA52 SWAP3 SWAP2 SWAP1 PUSH2 0x15C7 JUMP JUMPDEST PUSH1 0x40 MLOAD PUSH1 0x20 DUP2 DUP4 SUB SUB DUP2 MSTORE SWAP1 PUSH1 0x40 MSTORE SWAP2 POP PUSH1 0xE0 SHL PUSH1 0x20 DUP3 ADD DUP1 MLOAD PUSH28 0xFFFFFFFFFFFFFFFFFFFFFFFFFFFFFFFFFFFFFFFFFFFFFFFFFFFFFFFF DUP4 DUP2 DUP4 AND OR DUP4 MSTORE POP POP POP POP PUSH2 0xA9E JUMP JUMPDEST POP POP POP JUMP JUMPDEST PUSH0 DUP1 PUSH1 0x20 PUSH0 DUP5 MLOAD PUSH1 0x20 DUP7 ADD PUSH0 DUP9 GAS CALL DUP1 PUSH2 0xABD JUMPI PUSH1 0x40 MLOAD RETURNDATASIZE PUSH0 DUP3 RETURNDATACOPY RETURNDATASIZE DUP2 REVERT JUMPDEST RETURNDATASIZE SWAP3 POP PUSH0 MLOAD SWAP2 POP POP PUSH0 DUP3 EQ PUSH2 0xAD6 JUMPI PUSH1 0x1 DUP2 EQ ISZERO PUSH2 0xAF1 JUMP JUMPDEST PUSH0 DUP5 PUSH20 0xFFFFFFFFFFFFFFFFFFFFFFFFFFFFFFFFFFFFFFFF AND EXTCODESIZE EQ JUMPDEST ISZERO PUSH2 0xB33 JUMPI DUP4 PUSH1 0x40 MLOAD PUSH32 0x5274AFE700000000000000000000000000000000000000000000000000000000 DUP2 MSTORE PUSH1 0x4 ADD PUSH2 0xB2A SWAP2 SWAP1 PUSH2 0x127D JUMP JUMPDEST PUSH1 0x40 MLOAD DUP1 SWAP2 SUB SWAP1 REVERT JUMPDEST POP POP POP POP JUMP JUMPDEST PUSH0 PUSH1 0x40 MLOAD SWAP1 POP SWAP1 JUMP JUMPDEST PUSH0 DUP1 REVERT JUMPDEST PUSH0 DUP1 REVERT JUMPDEST PUSH0 PUSH20 0xFFFFFFFFFFFFFFFFFFFFFFFFFFFFFFFFFFFFFFFF DUP3 AND SWAP1 POP SWAP2 SWAP1 POP JUMP JUMPDEST PUSH0 PUSH2 0xB73 DUP3 PUSH2 0xB4A JUMP JUMPDEST SWAP1 POP SWAP2 SWAP1 POP JUMP JUMPDEST PUSH2 0xB83 DUP2 PUSH2 0xB69 JUMP JUMPDEST DUP2 EQ PUSH2 0xB8D JUMPI PUSH0 DUP1 REVERT JUMPDEST POP JUMP JUMPDEST PUSH0 DUP2 CALLDATALOAD SWAP1 POP PUSH2 0xB9E DUP2 PUSH2 0xB7A JUMP JUMPDEST SWAP3 SWAP2 POP POP JUMP JUMPDEST PUSH0 PUSH1 0x20 DUP3 DUP5 SUB SLT ISZERO PUSH2 0xBB9 JUMPI PUSH2 0xBB8 PUSH2 0xB42 JUMP JUMPDEST JUMPDEST PUSH0 PUSH2 0xBC6 DUP5 DUP3 DUP6 ADD PUSH2 0xB90 JUMP JUMPDEST SWAP2 POP POP SWAP3 SWAP2 POP POP JUMP JUMPDEST PUSH0 DUP2 MLOAD SWAP1 POP SWAP2 SWAP1 POP JUMP JUMPDEST PUSH0 DUP3 DUP3 MSTORE PUSH1 0x20 DUP3 ADD SWAP1 POP SWAP3 SWAP2 POP POP JUMP JUMPDEST PUSH0 DUP2 SWAP1 POP PUSH1 0x20 DUP3 ADD SWAP1 POP SWAP2 SWAP1 POP JUMP JUMPDEST PUSH0 DUP2 SWAP1 POP SWAP2 SWAP1 POP JUMP JUMPDEST PUSH2 0xC0A DUP2 PUSH2 0xBF8 JUMP JUMPDEST DUP3 MSTORE POP POP JUMP JUMPDEST PUSH0 DUP2 MLOAD SWAP1 POP SWAP2 SWAP1 POP JUMP JUMPDEST PUSH0 DUP3 DUP3 MSTORE PUSH1 0x20 DUP3 ADD SWAP1 POP SWAP3 SWAP2 POP POP JUMP JUMPDEST DUP3 DUP2 DUP4 MCOPY PUSH0 DUP4 DUP4 ADD MSTORE POP POP POP JUMP JUMPDEST PUSH0 PUSH1 0x1F NOT PUSH1 0x1F DUP4 ADD AND SWAP1 POP SWAP2 SWAP1 POP JUMP JUMPDEST PUSH0 PUSH2 0xC52 DUP3 PUSH2 0xC10 JUMP JUMPDEST PUSH2 0xC5C DUP2 DUP6 PUSH2 0xC1A JUMP JUMPDEST SWAP4 POP PUSH2 0xC6C DUP2 DUP6 PUSH1 0x20 DUP7 ADD PUSH2 0xC2A JUMP JUMPDEST PUSH2 0xC75 DUP2 PUSH2 0xC38 JUMP JUMPDEST DUP5 ADD SWAP2 POP POP SWAP3 SWAP2 POP POP JUMP JUMPDEST PUSH0 PUSH1 0xA0 DUP4 ADD PUSH0 DUP4 ADD MLOAD PUSH2 0xC95 PUSH0 DUP7 ADD DUP3 PUSH2 0xC01 JUMP JUMPDEST POP PUSH1 0x20 DUP4 ADD MLOAD PUSH2 0xCA8 PUSH1 0x20 DUP7 ADD DUP3 PUSH2 0xC01 JUMP JUMPDEST POP PUSH1 0x40 DUP4 ADD MLOAD DUP5 DUP3 SUB PUSH1 0x40 DUP7 ADD MSTORE PUSH2 0xCC0 DUP3 DUP3 PUSH2 0xC48 JUMP JUMPDEST SWAP2 POP POP PUSH1 0x60 DUP4 ADD MLOAD DUP5 DUP3 SUB PUSH1 0x60 DUP7 ADD MSTORE PUSH2 0xCDA DUP3 DUP3 PUSH2 0xC48 JUMP JUMPDEST SWAP2 POP POP PUSH1 0x80 DUP4 ADD MLOAD DUP5 DUP3 SUB PUSH1 0x80 DUP7 ADD MSTORE PUSH2 0xCF4 DUP3 DUP3 PUSH2 0xC48 JUMP JUMPDEST SWAP2 POP POP DUP1 SWAP2 POP POP SWAP3 SWAP2 POP POP JUMP JUMPDEST PUSH0 PUSH2 0xD0C DUP4 DUP4 PUSH2 0xC80 JUMP JUMPDEST SWAP1 POP SWAP3 SWAP2 POP POP JUMP JUMPDEST PUSH0 PUSH1 0x20 DUP3 ADD SWAP1 POP SWAP2 SWAP1 POP JUMP JUMPDEST PUSH0 PUSH2 0xD2A DUP3 PUSH2 0xBCF JUMP JUMPDEST PUSH2 0xD34 DUP2 DUP6 PUSH2 0xBD9 JUMP JUMPDEST SWAP4 POP DUP4 PUSH1 0x20 DUP3 MUL DUP6 ADD PUSH2 0xD46 DUP6 PUSH2 0xBE9 JUMP JUMPDEST DUP1 PUSH0 JUMPDEST DUP6 DUP2 LT ISZERO PUSH2 0xD81 JUMPI DUP5 DUP5 SUB DUP10 MSTORE DUP2 MLOAD PUSH2 0xD62 DUP6 DUP3 PUSH2 0xD01 JUMP JUMPDEST SWAP5 POP PUSH2 0xD6D DUP4 PUSH2 0xD14 JUMP JUMPDEST SWAP3 POP PUSH1 0x20 DUP11 ADD SWAP10 POP POP PUSH1 0x1 DUP2 ADD SWAP1 POP PUSH2 0xD49 JUMP JUMPDEST POP DUP3 SWAP8 POP DUP8 SWAP6 POP POP POP POP POP POP SWAP3 SWAP2 POP POP JUMP JUMPDEST PUSH0 PUSH1 0x20 DUP3 ADD SWAP1 POP DUP2 DUP2 SUB PUSH0 DUP4 ADD MSTORE PUSH2 0xDAB DUP2 DUP5 PUSH2 0xD20 JUMP JUMPDEST SWAP1 POP SWAP3 SWAP2 POP POP JUMP JUMPDEST PUSH0 DUP2 ISZERO ISZERO SWAP1 POP SWAP2 SWAP1 POP JUMP JUMPDEST PUSH2 0xDC7 DUP2 PUSH2 0xDB3 JUMP JUMPDEST DUP2 EQ PUSH2 0xDD1 JUMPI PUSH0 DUP1 REVERT JUMPDEST POP JUMP JUMPDEST PUSH0 DUP2 CALLDATALOAD SWAP1 POP PUSH2 0xDE2 DUP2 PUSH2 0xDBE JUMP JUMPDEST SWAP3 SWAP2 POP POP JUMP JUMPDEST PUSH0 DUP1 PUSH1 0x40 DUP4 DUP6 SUB SLT ISZERO PUSH2 0xDFE JUMPI PUSH2 0xDFD PUSH2 0xB42 JUMP JUMPDEST JUMPDEST PUSH0 PUSH2 0xE0B DUP6 DUP3 DUP7 ADD PUSH2 0xB90 JUMP JUMPDEST SWAP3 POP POP PUSH1 0x20 PUSH2 0xE1C DUP6 DUP3 DUP7 ADD PUSH2 0xDD4 JUMP JUMPDEST SWAP2 POP POP SWAP3 POP SWAP3 SWAP1 POP JUMP JUMPDEST PUSH2 0xE2F DUP2 PUSH2 0xBF8 JUMP JUMPDEST DUP2 EQ PUSH2 0xE39 JUMPI PUSH0 DUP1 REVERT JUMPDEST POP JUMP JUMPDEST PUSH0 DUP2 CALLDATALOAD SWAP1 POP PUSH2 0xE4A DUP2 PUSH2 0xE26 JUMP JUMPDEST SWAP3 SWAP2 POP POP JUMP JUMPDEST PUSH0 PUSH1 0x20 DUP3 DUP5 SUB SLT ISZERO PUSH2 0xE65 JUMPI PUSH2 0xE64 PUSH2 0xB42 JUMP JUMPDEST JUMPDEST PUSH0 PUSH2 0xE72 DUP5 DUP3 DUP6 ADD PUSH2 0xE3C JUMP JUMPDEST SWAP2 POP POP SWAP3 SWAP2 POP POP JUMP JUMPDEST PUSH2 0xE84 DUP2 PUSH2 0xBF8 JUMP JUMPDEST DUP3 MSTORE POP POP JUMP JUMPDEST PUSH0 PUSH1 0x20 DUP3 ADD SWAP1 POP PUSH2 0xE9D PUSH0 DUP4 ADD DUP5 PUSH2 0xE7B JUMP JUMPDEST SWAP3 SWAP2 POP POP JUMP JUMPDEST PUSH0 DUP1 REVERT JUMPDEST PUSH0 DUP1 REVERT JUMPDEST PUSH32 0x4E487B7100000000000000000000000000000000000000000000000000000000 PUSH0 MSTORE PUSH1 0x41 PUSH1 0x4 MSTORE PUSH1 0x24 PUSH0 REVERT JUMPDEST PUSH2 0xEE1 DUP3 PUSH2 0xC38 JUMP JUMPDEST DUP2 ADD DUP2 DUP2 LT PUSH8 0xFFFFFFFFFFFFFFFF DUP3 GT OR ISZERO PUSH2 0xF00 JUMPI PUSH2 0xEFF PUSH2 0xEAB JUMP JUMPDEST JUMPDEST DUP1 PUSH1 0x40 MSTORE POP POP POP JUMP JUMPDEST PUSH0 PUSH2 0xF12 PUSH2 0xB39 JUMP JUMPDEST SWAP1 POP PUSH2 0xF1E DUP3 DUP3 PUSH2 0xED8 JUMP JUMPDEST SWAP2 SWAP1 POP JUMP JUMPDEST PUSH0 PUSH8 0xFFFFFFFFFFFFFFFF DUP3 GT ISZERO PUSH2 0xF3D JUMPI PUSH2 0xF3C PUSH2 0xEAB JUMP JUMPDEST JUMPDEST PUSH2 0xF46 DUP3 PUSH2 0xC38 JUMP JUMPDEST SWAP1 POP PUSH1 0x20 DUP2 ADD SWAP1 POP SWAP2 SWAP1 POP JUMP JUMPDEST DUP3 DUP2 DUP4 CALLDATACOPY PUSH0 DUP4 DUP4 ADD MSTORE POP POP POP JUMP JUMPDEST PUSH0 PUSH2 0xF73 PUSH2 0xF6E DUP5 PUSH2 0xF23 JUMP JUMPDEST PUSH2 0xF09 JUMP JUMPDEST SWAP1 POP DUP3 DUP2 MSTORE PUSH1 0x20 DUP2 ADD DUP5 DUP5 DUP5 ADD GT ISZERO PUSH2 0xF8F JUMPI PUSH2 0xF8E PUSH2 0xEA7 JUMP JUMPDEST JUMPDEST PUSH2 0xF9A DUP5 DUP3 DUP6 PUSH2 0xF53 JUMP JUMPDEST POP SWAP4 SWAP3 POP POP POP JUMP JUMPDEST PUSH0 DUP3 PUSH1 0x1F DUP4 ADD SLT PUSH2 0xFB6 JUMPI PUSH2 0xFB5 PUSH2 0xEA3 JUMP JUMPDEST JUMPDEST DUP2 CALLDATALOAD PUSH2 0xFC6 DUP5 DUP3 PUSH1 0x20 DUP7 ADD PUSH2 0xF61 JUMP JUMPDEST SWAP2 POP POP SWAP3 SWAP2 POP POP JUMP JUMPDEST PUSH0 DUP1 PUSH0 DUP1 PUSH1 0x80 DUP6 DUP8 SUB SLT ISZERO PUSH2 0xFE7 JUMPI PUSH2 0xFE6 PUSH2 0xB42 JUMP JUMPDEST JUMPDEST PUSH0 PUSH2 0xFF4 DUP8 DUP3 DUP9 ADD PUSH2 0xE3C JUMP JUMPDEST SWAP5 POP POP PUSH1 0x20 DUP6 ADD CALLDATALOAD PUSH8 0xFFFFFFFFFFFFFFFF DUP2 GT ISZERO PUSH2 0x1015 JUMPI PUSH2 0x1014 PUSH2 0xB46 JUMP JUMPDEST JUMPDEST PUSH2 0x1021 DUP8 DUP3 DUP9 ADD PUSH2 0xFA2 JUMP JUMPDEST SWAP4 POP POP PUSH1 0x40 DUP6 ADD CALLDATALOAD PUSH8 0xFFFFFFFFFFFFFFFF DUP2 GT ISZERO PUSH2 0x1042 JUMPI PUSH2 0x1041 PUSH2 0xB46 JUMP JUMPDEST JUMPDEST PUSH2 0x104E DUP8 DUP3 DUP9 ADD PUSH2 0xFA2 JUMP JUMPDEST SWAP3 POP POP PUSH1 0x60 DUP6 ADD CALLDATALOAD PUSH8 0xFFFFFFFFFFFFFFFF DUP2 GT ISZERO PUSH2 0x106F JUMPI PUSH2 0x106E PUSH2 0xB46 JUMP JUMPDEST JUMPDEST PUSH2 0x107B DUP8 DUP3 DUP9 ADD PUSH2 0xFA2 JUMP JUMPDEST SWAP2 POP POP SWAP3 SWAP6 SWAP2 SWAP5 POP SWAP3 POP JUMP JUMPDEST PUSH0 DUP2 SWAP1 POP SWAP2 SWAP1 POP JUMP JUMPDEST PUSH0 PUSH2 0x10AA PUSH2 0x10A5 PUSH2 0x10A0 DUP5 PUSH2 0xB4A JUMP JUMPDEST PUSH2 0x1087 JUMP JUMPDEST PUSH2 0xB4A JUMP JUMPDEST SWAP1 POP SWAP2 SWAP1 POP JUMP JUMPDEST PUSH0 PUSH2 0x10BB DUP3 PUSH2 0x1090 JUMP JUMPDEST SWAP1 POP SWAP2 SWAP1 POP JUMP JUMPDEST PUSH0 PUSH2 0x10CC DUP3 PUSH2 0x10B1 JUMP JUMPDEST SWAP1 POP SWAP2 SWAP1 POP JUMP JUMPDEST PUSH2 0x10DC DUP2 PUSH2 0x10C2 JUMP JUMPDEST DUP3 MSTORE POP POP JUMP JUMPDEST PUSH0 PUSH1 0x20 DUP3 ADD SWAP1 POP PUSH2 0x10F5 PUSH0 DUP4 ADD DUP5 PUSH2 0x10D3 JUMP JUMPDEST SWAP3 SWAP2 POP POP JUMP JUMPDEST PUSH0 DUP3 DUP3 MSTORE PUSH1 0x20 DUP3 ADD SWAP1 POP SWAP3 SWAP2 POP POP JUMP JUMPDEST PUSH32 0x416363657373206E6F7420617574686F72697A65640000000000000000000000 PUSH0 DUP3 ADD MSTORE POP JUMP JUMPDEST PUSH0 PUSH2 0x113F PUSH1 0x15 DUP4 PUSH2 0x10FB JUMP JUMPDEST SWAP2 POP PUSH2 0x114A DUP3 PUSH2 0x110B JUMP JUMPDEST PUSH1 0x20 DUP3 ADD SWAP1 POP SWAP2 SWAP1 POP JUMP JUMPDEST PUSH0 PUSH1 0x20 DUP3 ADD SWAP1 POP DUP2 DUP2 SUB PUSH0 DUP4 ADD MSTORE PUSH2 0x116C DUP2 PUSH2 0x1133 JUMP JUMPDEST SWAP1 POP SWAP2 SWAP1 POP JUMP JUMPDEST PUSH32 0x4E487B7100000000000000000000000000000000000000000000000000000000 PUSH0 MSTORE PUSH1 0x22 PUSH1 0x4 MSTORE PUSH1 0x24 PUSH0 REVERT JUMPDEST PUSH0 PUSH1 0x2 DUP3 DIV SWAP1 POP PUSH1 0x1 DUP3 AND DUP1 PUSH2 0x11B7 JUMPI PUSH1 0x7F DUP3 AND SWAP2 POP JUMPDEST PUSH1 0x20 DUP3 LT DUP2 SUB PUSH2 0x11CA JUMPI PUSH2 0x11C9 PUSH2 0x1173 JUMP JUMPDEST JUMPDEST POP SWAP2 SWAP1 POP JUMP JUMPDEST PUSH2 0x11D9 DUP2 PUSH2 0xDB3 JUMP JUMPDEST DUP3 MSTORE POP POP JUMP JUMPDEST PUSH0 PUSH1 0x40 DUP3 ADD SWAP1 POP PUSH2 0x11F2 PUSH0 DUP4 ADD DUP6 PUSH2 0x11D0 JUMP JUMPDEST PUSH2 0x11FF PUSH1 0x20 DUP4 ADD DUP5 PUSH2 0xE7B JUMP JUMPDEST SWAP4 SWAP3 POP POP POP JUMP JUMPDEST PUSH32 0x416D6F756E74206D7573742062652067726561746572207468616E207A65726F PUSH0 DUP3 ADD MSTORE POP JUMP JUMPDEST PUSH0 PUSH2 0x123A PUSH1 0x20 DUP4 PUSH2 0x10FB JUMP JUMPDEST SWAP2 POP PUSH2 0x1245 DUP3 PUSH2 0x1206 JUMP JUMPDEST PUSH1 0x20 DUP3 ADD SWAP1 POP SWAP2 SWAP1 POP JUMP JUMPDEST PUSH0 PUSH1 0x20 DUP3 ADD SWAP1 POP DUP2 DUP2 SUB PUSH0 DUP4 ADD MSTORE PUSH2 0x1267 DUP2 PUSH2 0x122E JUMP JUMPDEST SWAP1 POP SWAP2 SWAP1 POP JUMP JUMPDEST PUSH2 0x1277 DUP2 PUSH2 0xB69 JUMP JUMPDEST DUP3 MSTORE POP POP JUMP JUMPDEST PUSH0 PUSH1 0x20 DUP3 ADD SWAP1 POP PUSH2 0x1290 PUSH0 DUP4 ADD DUP5 PUSH2 0x126E JUMP JUMPDEST SWAP3 SWAP2 POP POP JUMP JUMPDEST PUSH0 DUP2 MLOAD SWAP1 POP PUSH2 0x12A4 DUP2 PUSH2 0xE26 JUMP JUMPDEST SWAP3 SWAP2 POP POP JUMP JUMPDEST PUSH0 PUSH1 0x20 DUP3 DUP5 SUB SLT ISZERO PUSH2 0x12BF JUMPI PUSH2 0x12BE PUSH2 0xB42 JUMP JUMPDEST JUMPDEST PUSH0 PUSH2 0x12CC DUP5 DUP3 DUP6 ADD PUSH2 0x1296 JUMP JUMPDEST SWAP2 POP POP SWAP3 SWAP2 POP POP JUMP JUMPDEST PUSH32 0x496E73756666696369656E7420636F6E74726163742062616C616E6365000000 PUSH0 DUP3 ADD MSTORE POP JUMP JUMPDEST PUSH0 PUSH2 0x1309 PUSH1 0x1D DUP4 PUSH2 0x10FB JUMP JUMPDEST SWAP2 POP PUSH2 0x1314 DUP3 PUSH2 0x12D5 JUMP JUMPDEST PUSH1 0x20 DUP3 ADD SWAP1 POP SWAP2 SWAP1 POP JUMP JUMPDEST PUSH0 PUSH1 0x20 DUP3 ADD SWAP1 POP DUP2 DUP2 SUB PUSH0 DUP4 ADD MSTORE PUSH2 0x1336 DUP2 PUSH2 0x12FD JUMP JUMPDEST SWAP1 POP SWAP2 SWAP1 POP JUMP JUMPDEST PUSH0 DUP2 SWAP1 POP DUP2 PUSH0 MSTORE PUSH1 0x20 PUSH0 KECCAK256 SWAP1 POP SWAP2 SWAP1 POP JUMP JUMPDEST PUSH0 PUSH1 0x20 PUSH1 0x1F DUP4 ADD DIV SWAP1 POP SWAP2 SWAP1 POP JUMP JUMPDEST PUSH0 DUP3 DUP3 SHL SWAP1 POP SWAP3 SWAP2 POP POP JUMP JUMPDEST PUSH0 PUSH1 0x8 DUP4 MUL PUSH2 0x1399 PUSH32 0xFFFFFFFFFFFFFFFFFFFFFFFFFFFFFFFFFFFFFFFFFFFFFFFFFFFFFFFFFFFFFFFF DUP3 PUSH2 0x135E JUMP JUMPDEST PUSH2 0x13A3 DUP7 DUP4 PUSH2 0x135E JUMP JUMPDEST SWAP6 POP DUP1 NOT DUP5 AND SWAP4 POP DUP1 DUP7 AND DUP5 OR SWAP3 POP POP POP SWAP4 SWAP3 POP POP POP JUMP JUMPDEST PUSH0 PUSH2 0x13D5 PUSH2 0x13D0 PUSH2 0x13CB DUP5 PUSH2 0xBF8 JUMP JUMPDEST PUSH2 0x1087 JUMP JUMPDEST PUSH2 0xBF8 JUMP JUMPDEST SWAP1 POP SWAP2 SWAP1 POP JUMP JUMPDEST PUSH0 DUP2 SWAP1 POP SWAP2 SWAP1 POP JUMP JUMPDEST PUSH2 0x13EE DUP4 PUSH2 0x13BB JUMP JUMPDEST PUSH2 0x1402 PUSH2 0x13FA DUP3 PUSH2 0x13DC JUMP JUMPDEST DUP5 DUP5 SLOAD PUSH2 0x136A JUMP JUMPDEST DUP3 SSTORE POP POP POP POP JUMP JUMPDEST PUSH0 SWAP1 JUMP JUMPDEST PUSH2 0x1416 PUSH2 0x140A JUMP JUMPDEST PUSH2 0x1421 DUP2 DUP5 DUP5 PUSH2 0x13E5 JUMP JUMPDEST POP POP POP JUMP JUMPDEST JUMPDEST DUP2 DUP2 LT ISZERO PUSH2 0x1444 JUMPI PUSH2 0x1439 PUSH0 DUP3 PUSH2 0x140E JUMP JUMPDEST PUSH1 0x1 DUP2 ADD SWAP1 POP PUSH2 0x1427 JUMP JUMPDEST POP POP JUMP JUMPDEST PUSH1 0x1F DUP3 GT ISZERO PUSH2 0x1489 JUMPI PUSH2 0x145A DUP2 PUSH2 0x133D JUMP JUMPDEST PUSH2 0x1463 DUP5 PUSH2 0x134F JUMP JUMPDEST DUP2 ADD PUSH1 0x20 DUP6 LT ISZERO PUSH2 0x1472 JUMPI DUP2 SWAP1 POP JUMPDEST PUSH2 0x1486 PUSH2 0x147E DUP6 PUSH2 0x134F JUMP JUMPDEST DUP4 ADD DUP3 PUSH2 0x1426 JUMP JUMPDEST POP POP JUMPDEST POP POP POP JUMP JUMPDEST PUSH0 DUP3 DUP3 SHR SWAP1 POP SWAP3 SWAP2 POP POP JUMP JUMPDEST PUSH0 PUSH2 0x14A9 PUSH0 NOT DUP5 PUSH1 0x8 MUL PUSH2 0x148E JUMP JUMPDEST NOT DUP1 DUP4 AND SWAP2 POP POP SWAP3 SWAP2 POP POP JUMP JUMPDEST PUSH0 PUSH2 0x14C1 DUP4 DUP4 PUSH2 0x149A JUMP JUMPDEST SWAP2 POP DUP3 PUSH1 0x2 MUL DUP3 OR SWAP1 POP SWAP3 SWAP2 POP POP JUMP JUMPDEST PUSH2 0x14DA DUP3 PUSH2 0xC10 JUMP JUMPDEST PUSH8 0xFFFFFFFFFFFFFFFF DUP2 GT ISZERO PUSH2 0x14F3 JUMPI PUSH2 0x14F2 PUSH2 0xEAB JUMP JUMPDEST JUMPDEST PUSH2 0x14FD DUP3 SLOAD PUSH2 0x11A0 JUMP JUMPDEST PUSH2 0x1508 DUP3 DUP3 DUP6 PUSH2 0x1448 JUMP JUMPDEST PUSH0 PUSH1 0x20 SWAP1 POP PUSH1 0x1F DUP4 GT PUSH1 0x1 DUP2 EQ PUSH2 0x1539 JUMPI PUSH0 DUP5 ISZERO PUSH2 0x1527 JUMPI DUP3 DUP8 ADD MLOAD SWAP1 POP JUMPDEST PUSH2 0x1531 DUP6 DUP3 PUSH2 0x14B6 JUMP JUMPDEST DUP7 SSTORE POP PUSH2 0x1598 JUMP JUMPDEST PUSH1 0x1F NOT DUP5 AND PUSH2 0x1547 DUP7 PUSH2 0x133D JUMP JUMPDEST PUSH0 JUMPDEST DUP3 DUP2 LT ISZERO PUSH2 0x156E JUMPI DUP5 DUP10 ADD MLOAD DUP3 SSTORE PUSH1 0x1 DUP3 ADD SWAP2 POP PUSH1 0x20 DUP6 ADD SWAP5 POP PUSH1 0x20 DUP2 ADD SWAP1 POP PUSH2 0x1549 JUMP JUMPDEST DUP7 DUP4 LT ISZERO PUSH2 0x158B JUMPI DUP5 DUP10 ADD MLOAD PUSH2 0x1587 PUSH1 0x1F DUP10 AND DUP3 PUSH2 0x149A JUMP JUMPDEST DUP4 SSTORE POP JUMPDEST PUSH1 0x1 PUSH1 0x2 DUP9 MUL ADD DUP9 SSTORE POP POP POP JUMPDEST POP POP POP POP POP POP JUMP JUMPDEST PUSH0 PUSH1 0x40 DUP3 ADD SWAP1 POP PUSH2 0x15B3 PUSH0 DUP4 ADD DUP6 PUSH2 0xE7B JUMP JUMPDEST PUSH2 0x15C0 PUSH1 0x20 DUP4 ADD DUP5 PUSH2 0xE7B JUMP JUMPDEST SWAP4 SWAP3 POP POP POP JUMP JUMPDEST PUSH0 PUSH1 0x40 DUP3 ADD SWAP1 POP PUSH2 0x15DA PUSH0 DUP4 ADD DUP6 PUSH2 0x126E JUMP JUMPDEST PUSH2 0x15E7 PUSH1 0x20 DUP4 ADD DUP5 PUSH2 0xE7B JUMP JUMPDEST SWAP4 SWAP3 POP POP POP JUMP INVALID LOG2 PUSH5 0x6970667358 0x22 SLT KECCAK256 0xDB 0xCF DUP2 0xE2 DUP9 DUP1 LOG3 0xC9 0xE9 BASEFEE CALLDATALOAD DUP2 0xAA GASPRICE STOP SWAP3 INVALID SWAP9 PUSH7 0xDF8E05B13B59C OR DUP11 0xB6 SMOD BLOBBASEFEE SMOD PUSH5 0x736F6C6343 STOP ADDMOD BYTE STOP CALLER "
				},
				"gasEstimates": {
					"creation": {
						"codeDepositCost": "1133600",
						"executionCost": "infinite",
						"totalCost": "infinite"
					},
					"external": {
						"TOKEN_REWARD()": "369",
						"claimTokens(uint256)": "infinite",
						"contractTokenBalance()": "infinite",
						"logHealthData(uint256,string,string,string)": "infinite",
						"rewardToken()": "infinite",
						"updateAccess(address,bool)": "infinite",
						"viewHealthData(address)": "infinite"
					}
				},
				"methodIdentifiers": {
					"TOKEN_REWARD()": "d4ba8902",
					"claimTokens(uint256)": "46e04a2f",
					"contractTokenBalance()": "9e9aed62",
					"logHealthData(uint256,string,string,string)": "a94f5766",
					"rewardToken()": "f7c618c1",
					"updateAccess(address,bool)": "0c66f928",
					"viewHealthData(address)": "05c17521"
				}
			},
			"storageLayout": {
				"storage": [
					{
						"astId": 599,
						"contract": "contracts/PatientDataRevised.sol:PatientDataManagement",
						"label": "rewardToken",
						"offset": 0,
						"slot": "0",
						"type": "t_contract(IERC20)167"
					},
					{
						"astId": 624,
						"contract": "contracts/PatientDataRevised.sol:PatientDataManagement",
						"label": "patientData",
						"offset": 0,
						"slot": "1",
						"type": "t_mapping(t_address,t_array(t_struct(HealthData)618_storage)dyn_storage)"
					},
					{
						"astId": 630,
						"contract": "contracts/PatientDataRevised.sol:PatientDataManagement",
						"label": "accessPermissions",
						"offset": 0,
						"slot": "2",
						"type": "t_mapping(t_address,t_mapping(t_address,t_bool))"
					}
				],
				"types": {
					"t_address": {
						"encoding": "inplace",
						"label": "address",
						"numberOfBytes": "20"
					},
					"t_array(t_struct(HealthData)618_storage)dyn_storage": {
						"base": "t_struct(HealthData)618_storage",
						"encoding": "dynamic_array",
						"label": "struct PatientDataManagement.HealthData[]",
						"numberOfBytes": "32"
					},
					"t_bool": {
						"encoding": "inplace",
						"label": "bool",
						"numberOfBytes": "1"
					},
					"t_contract(IERC20)167": {
						"encoding": "inplace",
						"label": "contract IERC20",
						"numberOfBytes": "20"
					},
					"t_mapping(t_address,t_array(t_struct(HealthData)618_storage)dyn_storage)": {
						"encoding": "mapping",
						"key": "t_address",
						"label": "mapping(address => struct PatientDataManagement.HealthData[])",
						"numberOfBytes": "32",
						"value": "t_array(t_struct(HealthData)618_storage)dyn_storage"
					},
					"t_mapping(t_address,t_bool)": {
						"encoding": "mapping",
						"key": "t_address",
						"label": "mapping(address => bool)",
						"numberOfBytes": "32",
						"value": "t_bool"
					},
					"t_mapping(t_address,t_mapping(t_address,t_bool))": {
						"encoding": "mapping",
						"key": "t_address",
						"label": "mapping(address => mapping(address => bool))",
						"numberOfBytes": "32",
						"value": "t_mapping(t_address,t_bool)"
					},
					"t_string_storage": {
						"encoding": "bytes",
						"label": "string",
						"numberOfBytes": "32"
					},
					"t_struct(HealthData)618_storage": {
						"encoding": "inplace",
						"label": "struct PatientDataManagement.HealthData",
						"members": [
							{
								"astId": 609,
								"contract": "contracts/PatientDataRevised.sol:PatientDataManagement",
								"label": "timestamp",
								"offset": 0,
								"slot": "0",
								"type": "t_uint256"
							},
							{
								"astId": 611,
								"contract": "contracts/PatientDataRevised.sol:PatientDataManagement",
								"label": "glucoseLevel",
								"offset": 0,
								"slot": "1",
								"type": "t_uint256"
							},
							{
								"astId": 613,
								"contract": "contracts/PatientDataRevised.sol:PatientDataManagement",
								"label": "medication",
								"offset": 0,
								"slot": "2",
								"type": "t_string_storage"
							},
							{
								"astId": 615,
								"contract": "contracts/PatientDataRevised.sol:PatientDataManagement",
								"label": "meals",
								"offset": 0,
								"slot": "3",
								"type": "t_string_storage"
							},
							{
								"astId": 617,
								"contract": "contracts/PatientDataRevised.sol:PatientDataManagement",
								"label": "exercise",
								"offset": 0,
								"slot": "4",
								"type": "t_string_storage"
							}
						],
						"numberOfBytes": "160"
					},
					"t_uint256": {
						"encoding": "inplace",
						"label": "uint256",
						"numberOfBytes": "32"
					}
				}
			},
			"userdoc": {
				"kind": "user",
				"methods": {},
				"version": 1
			}
		}
	}
}