{
	"contracts/PatientDataRevised.sol": {
		"PatientDataManagement": {
			"abi": [
				{
					"anonymous": false,
					"inputs": [
						{
							"indexed": true,
							"internalType": "address",
							"name": "patient",
							"type": "address"
						},
						{
							"indexed": true,
							"internalType": "address",
							"name": "accessor",
							"type": "address"
						},
						{
							"indexed": false,
							"internalType": "bool",
							"name": "isGranted",
							"type": "bool"
						},
						{
							"indexed": false,
							"internalType": "uint256",
							"name": "reward",
							"type": "uint256"
						}
					],
					"name": "AccessUpdated",
					"type": "event"
				},
				{
					"anonymous": false,
					"inputs": [
						{
							"indexed": true,
							"internalType": "address",
							"name": "patient",
							"type": "address"
						},
						{
							"indexed": false,
							"internalType": "uint256",
							"name": "timestamp",
							"type": "uint256"
						},
						{
							"indexed": false,
							"internalType": "uint256",
							"name": "reward",
							"type": "uint256"
						}
					],
					"name": "DataLogged",
					"type": "event"
				},
				{
					"anonymous": false,
					"inputs": [
						{
							"indexed": true,
							"internalType": "address",
							"name": "user",
							"type": "address"
						},
						{
							"indexed": false,
							"internalType": "uint256",
							"name": "amount",
							"type": "uint256"
						}
					],
					"name": "TokensClaimed",
					"type": "event"
				},
				{
					"inputs": [],
					"name": "TOKEN_REWARD",
					"outputs": [
						{
							"internalType": "uint256",
							"name": "",
							"type": "uint256"
						}
					],
					"stateMutability": "view",
					"type": "function"
				},
				{
					"inputs": [],
					"name": "claimTokens",
					"outputs": [],
					"stateMutability": "nonpayable",
					"type": "function"
				},
				{
					"inputs": [
						{
							"internalType": "uint256",
							"name": "_glucoseLevel",
							"type": "uint256"
						},
						{
							"internalType": "string",
							"name": "_medication",
							"type": "string"
						},
						{
							"internalType": "string",
							"name": "_meals",
							"type": "string"
						},
						{
							"internalType": "string",
							"name": "_exercise",
							"type": "string"
						}
					],
					"name": "logHealthData",
					"outputs": [],
					"stateMutability": "nonpayable",
					"type": "function"
				},
				{
					"inputs": [
						{
							"internalType": "address",
							"name": "",
							"type": "address"
						}
					],
					"name": "tokenBalances",
					"outputs": [
						{
							"internalType": "uint256",
							"name": "",
							"type": "uint256"
						}
					],
					"stateMutability": "view",
					"type": "function"
				},
				{
					"inputs": [
						{
							"internalType": "address",
							"name": "_accessor",
							"type": "address"
						},
						{
							"internalType": "bool",
							"name": "_isGranted",
							"type": "bool"
						}
					],
					"name": "updateAccess",
					"outputs": [],
					"stateMutability": "nonpayable",
					"type": "function"
				},
				{
					"inputs": [
						{
							"internalType": "address",
							"name": "_patient",
							"type": "address"
						}
					],
					"name": "viewHealthData",
					"outputs": [
						{
							"components": [
								{
									"internalType": "uint256",
									"name": "timestamp",
									"type": "uint256"
								},
								{
									"internalType": "uint256",
									"name": "glucoseLevel",
									"type": "uint256"
								},
								{
									"internalType": "string",
									"name": "medication",
									"type": "string"
								},
								{
									"internalType": "string",
									"name": "meals",
									"type": "string"
								},
								{
									"internalType": "string",
									"name": "exercise",
									"type": "string"
								}
							],
							"internalType": "struct PatientDataManagement.HealthData[]",
							"name": "",
							"type": "tuple[]"
						}
					],
					"stateMutability": "view",
					"type": "function"
				}
			],
			"devdoc": {
				"kind": "dev",
				"methods": {},
				"version": 1
			},
			"evm": {
				"assembly": "    /* \"contracts/PatientDataRevised.sol\":60:2987  contract PatientDataManagement {... */\n  mstore(0x40, 0x80)\n  callvalue\n  dup1\n  iszero\n  tag_1\n  jumpi\n  0x00\n  dup1\n  revert\ntag_1:\n  pop\n  dataSize(sub_0)\n  dup1\n  dataOffset(sub_0)\n  0x00\n  codecopy\n  0x00\n  return\nstop\n\nsub_0: assembly {\n        /* \"contracts/PatientDataRevised.sol\":60:2987  contract PatientDataManagement {... */\n      mstore(0x40, 0x80)\n      callvalue\n      dup1\n      iszero\n      tag_1\n      jumpi\n      0x00\n      dup1\n      revert\n    tag_1:\n      pop\n      jumpi(tag_2, lt(calldatasize, 0x04))\n      shr(0xe0, calldataload(0x00))\n      dup1\n      0x05c17521\n      eq\n      tag_3\n      jumpi\n      dup1\n      0x0c66f928\n      eq\n      tag_4\n      jumpi\n      dup1\n      0x48c54b9d\n      eq\n      tag_5\n      jumpi\n      dup1\n      0x523fba7f\n      eq\n      tag_6\n      jumpi\n      dup1\n      0xa94f5766\n      eq\n      tag_7\n      jumpi\n      dup1\n      0xd4ba8902\n      eq\n      tag_8\n      jumpi\n    tag_2:\n      0x00\n      dup1\n      revert\n        /* \"contracts/PatientDataRevised.sol\":2374:2652  function viewHealthData(address _patient) public view returns (HealthData[] memory) {... */\n    tag_3:\n      tag_9\n      0x04\n      dup1\n      calldatasize\n      sub\n      dup2\n      add\n      swap1\n      tag_10\n      swap2\n      swap1\n      tag_11\n      jump\t// in\n    tag_10:\n      tag_12\n      jump\t// in\n    tag_9:\n      mload(0x40)\n      tag_13\n      swap2\n      swap1\n      tag_14\n      jump\t// in\n    tag_13:\n      mload(0x40)\n      dup1\n      swap2\n      sub\n      swap1\n      return\n        /* \"contracts/PatientDataRevised.sol\":1957:2296  function updateAccess(address _accessor, bool _isGranted) public {... */\n    tag_4:\n      tag_15\n      0x04\n      dup1\n      calldatasize\n      sub\n      dup2\n      add\n      swap1\n      tag_16\n      swap2\n      swap1\n      tag_17\n      jump\t// in\n    tag_16:\n      tag_18\n      jump\t// in\n    tag_15:\n      stop\n        /* \"contracts/PatientDataRevised.sol\":2693:2984  function claimTokens() public {... */\n    tag_5:\n      tag_19\n      tag_20\n      jump\t// in\n    tag_19:\n      stop\n        /* \"contracts/PatientDataRevised.sol\":437:485  mapping(address => uint256) public tokenBalances */\n    tag_6:\n      tag_21\n      0x04\n      dup1\n      calldatasize\n      sub\n      dup2\n      add\n      swap1\n      tag_22\n      swap2\n      swap1\n      tag_11\n      jump\t// in\n    tag_22:\n      tag_23\n      jump\t// in\n    tag_21:\n      mload(0x40)\n      tag_24\n      swap2\n      swap1\n      tag_25\n      jump\t// in\n    tag_24:\n      mload(0x40)\n      dup1\n      swap2\n      sub\n      swap1\n      return\n        /* \"contracts/PatientDataRevised.sol\":1240:1879  function logHealthData(... */\n    tag_7:\n      tag_26\n      0x04\n      dup1\n      calldatasize\n      sub\n      dup2\n      add\n      swap1\n      tag_27\n      swap2\n      swap1\n      tag_28\n      jump\t// in\n    tag_27:\n      tag_29\n      jump\t// in\n    tag_26:\n      stop\n        /* \"contracts/PatientDataRevised.sol\":131:172  uint256 public constant TOKEN_REWARD = 10 */\n    tag_8:\n      tag_30\n      tag_31\n      jump\t// in\n    tag_30:\n      mload(0x40)\n      tag_32\n      swap2\n      swap1\n      tag_25\n      jump\t// in\n    tag_32:\n      mload(0x40)\n      dup1\n      swap2\n      sub\n      swap1\n      return\n        /* \"contracts/PatientDataRevised.sol\":2374:2652  function viewHealthData(address _patient) public view returns (HealthData[] memory) {... */\n    tag_12:\n        /* \"contracts/PatientDataRevised.sol\":2437:2456  HealthData[] memory */\n      0x60\n        /* \"contracts/PatientDataRevised.sol\":2503:2513  msg.sender */\n      caller\n        /* \"contracts/PatientDataRevised.sol\":2491:2513  _patient == msg.sender */\n      0xffffffffffffffffffffffffffffffffffffffff\n      and\n        /* \"contracts/PatientDataRevised.sol\":2491:2499  _patient */\n      dup3\n        /* \"contracts/PatientDataRevised.sol\":2491:2513  _patient == msg.sender */\n      0xffffffffffffffffffffffffffffffffffffffff\n      and\n      eq\n        /* \"contracts/PatientDataRevised.sol\":2491:2556  _patient == msg.sender || accessPermissions[_patient][msg.sender] */\n      dup1\n      tag_34\n      jumpi\n      pop\n        /* \"contracts/PatientDataRevised.sol\":2517:2534  accessPermissions */\n      0x02\n        /* \"contracts/PatientDataRevised.sol\":2517:2544  accessPermissions[_patient] */\n      0x00\n        /* \"contracts/PatientDataRevised.sol\":2535:2543  _patient */\n      dup4\n        /* \"contracts/PatientDataRevised.sol\":2517:2544  accessPermissions[_patient] */\n      0xffffffffffffffffffffffffffffffffffffffff\n      and\n      0xffffffffffffffffffffffffffffffffffffffff\n      and\n      dup2\n      mstore\n      0x20\n      add\n      swap1\n      dup2\n      mstore\n      0x20\n      add\n      0x00\n      keccak256\n        /* \"contracts/PatientDataRevised.sol\":2517:2556  accessPermissions[_patient][msg.sender] */\n      0x00\n        /* \"contracts/PatientDataRevised.sol\":2545:2555  msg.sender */\n      caller\n        /* \"contracts/PatientDataRevised.sol\":2517:2556  accessPermissions[_patient][msg.sender] */\n      0xffffffffffffffffffffffffffffffffffffffff\n      and\n      0xffffffffffffffffffffffffffffffffffffffff\n      and\n      dup2\n      mstore\n      0x20\n      add\n      swap1\n      dup2\n      mstore\n      0x20\n      add\n      0x00\n      keccak256\n      0x00\n      swap1\n      sload\n      swap1\n      0x0100\n      exp\n      swap1\n      div\n      0xff\n      and\n        /* \"contracts/PatientDataRevised.sol\":2491:2556  _patient == msg.sender || accessPermissions[_patient][msg.sender] */\n    tag_34:\n        /* \"contracts/PatientDataRevised.sol\":2469:2605  require(... */\n      tag_35\n      jumpi\n      mload(0x40)\n      0x08c379a000000000000000000000000000000000000000000000000000000000\n      dup2\n      mstore\n      0x04\n      add\n      tag_36\n      swap1\n      tag_37\n      jump\t// in\n    tag_36:\n      mload(0x40)\n      dup1\n      swap2\n      sub\n      swap1\n      revert\n    tag_35:\n        /* \"contracts/PatientDataRevised.sol\":2623:2634  patientData */\n      0x01\n        /* \"contracts/PatientDataRevised.sol\":2623:2644  patientData[_patient] */\n      0x00\n        /* \"contracts/PatientDataRevised.sol\":2635:2643  _patient */\n      dup4\n        /* \"contracts/PatientDataRevised.sol\":2623:2644  patientData[_patient] */\n      0xffffffffffffffffffffffffffffffffffffffff\n      and\n      0xffffffffffffffffffffffffffffffffffffffff\n      and\n      dup2\n      mstore\n      0x20\n      add\n      swap1\n      dup2\n      mstore\n      0x20\n      add\n      0x00\n      keccak256\n        /* \"contracts/PatientDataRevised.sol\":2616:2644  return patientData[_patient] */\n      dup1\n      sload\n      dup1\n      0x20\n      mul\n      0x20\n      add\n      mload(0x40)\n      swap1\n      dup2\n      add\n      0x40\n      mstore\n      dup1\n      swap3\n      swap2\n      swap1\n      dup2\n      dup2\n      mstore\n      0x20\n      add\n      0x00\n      swap1\n    tag_38:\n      dup3\n      dup3\n      lt\n      iszero\n      tag_39\n      jumpi\n      dup4\n      dup3\n      swap1\n      0x00\n      mstore\n      keccak256(0x00, 0x20)\n      swap1\n      0x05\n      mul\n      add\n      mload(0x40)\n      dup1\n      0xa0\n      add\n      0x40\n      mstore\n      swap1\n      dup2\n      0x00\n      dup3\n      add\n      sload\n      dup2\n      mstore\n      0x20\n      add\n      0x01\n      dup3\n      add\n      sload\n      dup2\n      mstore\n      0x20\n      add\n      0x02\n      dup3\n      add\n      dup1\n      sload\n      tag_41\n      swap1\n      tag_42\n      jump\t// in\n    tag_41:\n      dup1\n      0x1f\n      add\n      0x20\n      dup1\n      swap2\n      div\n      mul\n      0x20\n      add\n      mload(0x40)\n      swap1\n      dup2\n      add\n      0x40\n      mstore\n      dup1\n      swap3\n      swap2\n      swap1\n      dup2\n      dup2\n      mstore\n      0x20\n      add\n      dup3\n      dup1\n      sload\n      tag_43\n      swap1\n      tag_42\n      jump\t// in\n    tag_43:\n      dup1\n      iszero\n      tag_44\n      jumpi\n      dup1\n      0x1f\n      lt\n      tag_45\n      jumpi\n      0x0100\n      dup1\n      dup4\n      sload\n      div\n      mul\n      dup4\n      mstore\n      swap2\n      0x20\n      add\n      swap2\n      jump(tag_44)\n    tag_45:\n      dup3\n      add\n      swap2\n      swap1\n      0x00\n      mstore\n      keccak256(0x00, 0x20)\n      swap1\n    tag_46:\n      dup2\n      sload\n      dup2\n      mstore\n      swap1\n      0x01\n      add\n      swap1\n      0x20\n      add\n      dup1\n      dup4\n      gt\n      tag_46\n      jumpi\n      dup3\n      swap1\n      sub\n      0x1f\n      and\n      dup3\n      add\n      swap2\n    tag_44:\n      pop\n      pop\n      pop\n      pop\n      pop\n      dup2\n      mstore\n      0x20\n      add\n      0x03\n      dup3\n      add\n      dup1\n      sload\n      tag_47\n      swap1\n      tag_42\n      jump\t// in\n    tag_47:\n      dup1\n      0x1f\n      add\n      0x20\n      dup1\n      swap2\n      div\n      mul\n      0x20\n      add\n      mload(0x40)\n      swap1\n      dup2\n      add\n      0x40\n      mstore\n      dup1\n      swap3\n      swap2\n      swap1\n      dup2\n      dup2\n      mstore\n      0x20\n      add\n      dup3\n      dup1\n      sload\n      tag_48\n      swap1\n      tag_42\n      jump\t// in\n    tag_48:\n      dup1\n      iszero\n      tag_49\n      jumpi\n      dup1\n      0x1f\n      lt\n      tag_50\n      jumpi\n      0x0100\n      dup1\n      dup4\n      sload\n      div\n      mul\n      dup4\n      mstore\n      swap2\n      0x20\n      add\n      swap2\n      jump(tag_49)\n    tag_50:\n      dup3\n      add\n      swap2\n      swap1\n      0x00\n      mstore\n      keccak256(0x00, 0x20)\n      swap1\n    tag_51:\n      dup2\n      sload\n      dup2\n      mstore\n      swap1\n      0x01\n      add\n      swap1\n      0x20\n      add\n      dup1\n      dup4\n      gt\n      tag_51\n      jumpi\n      dup3\n      swap1\n      sub\n      0x1f\n      and\n      dup3\n      add\n      swap2\n    tag_49:\n      pop\n      pop\n      pop\n      pop\n      pop\n      dup2\n      mstore\n      0x20\n      add\n      0x04\n      dup3\n      add\n      dup1\n      sload\n      tag_52\n      swap1\n      tag_42\n      jump\t// in\n    tag_52:\n      dup1\n      0x1f\n      add\n      0x20\n      dup1\n      swap2\n      div\n      mul\n      0x20\n      add\n      mload(0x40)\n      swap1\n      dup2\n      add\n      0x40\n      mstore\n      dup1\n      swap3\n      swap2\n      swap1\n      dup2\n      dup2\n      mstore\n      0x20\n      add\n      dup3\n      dup1\n      sload\n      tag_53\n      swap1\n      tag_42\n      jump\t// in\n    tag_53:\n      dup1\n      iszero\n      tag_54\n      jumpi\n      dup1\n      0x1f\n      lt\n      tag_55\n      jumpi\n      0x0100\n      dup1\n      dup4\n      sload\n      div\n      mul\n      dup4\n      mstore\n      swap2\n      0x20\n      add\n      swap2\n      jump(tag_54)\n    tag_55:\n      dup3\n      add\n      swap2\n      swap1\n      0x00\n      mstore\n      keccak256(0x00, 0x20)\n      swap1\n    tag_56:\n      dup2\n      sload\n      dup2\n      mstore\n      swap1\n      0x01\n      add\n      swap1\n      0x20\n      add\n      dup1\n      dup4\n      gt\n      tag_56\n      jumpi\n      dup3\n      swap1\n      sub\n      0x1f\n      and\n      dup3\n      add\n      swap2\n    tag_54:\n      pop\n      pop\n      pop\n      pop\n      pop\n      dup2\n      mstore\n      pop\n      pop\n      dup2\n      mstore\n      0x20\n      add\n      swap1\n      0x01\n      add\n      swap1\n      jump(tag_38)\n    tag_39:\n      pop\n      pop\n      pop\n      pop\n      swap1\n      pop\n        /* \"contracts/PatientDataRevised.sol\":2374:2652  function viewHealthData(address _patient) public view returns (HealthData[] memory) {... */\n      swap2\n      swap1\n      pop\n      jump\t// out\n        /* \"contracts/PatientDataRevised.sol\":1957:2296  function updateAccess(address _accessor, bool _isGranted) public {... */\n    tag_18:\n        /* \"contracts/PatientDataRevised.sol\":2076:2086  _isGranted */\n      dup1\n        /* \"contracts/PatientDataRevised.sol\":2033:2050  accessPermissions */\n      0x02\n        /* \"contracts/PatientDataRevised.sol\":2033:2062  accessPermissions[msg.sender] */\n      0x00\n        /* \"contracts/PatientDataRevised.sol\":2051:2061  msg.sender */\n      caller\n        /* \"contracts/PatientDataRevised.sol\":2033:2062  accessPermissions[msg.sender] */\n      0xffffffffffffffffffffffffffffffffffffffff\n      and\n      0xffffffffffffffffffffffffffffffffffffffff\n      and\n      dup2\n      mstore\n      0x20\n      add\n      swap1\n      dup2\n      mstore\n      0x20\n      add\n      0x00\n      keccak256\n        /* \"contracts/PatientDataRevised.sol\":2033:2073  accessPermissions[msg.sender][_accessor] */\n      0x00\n        /* \"contracts/PatientDataRevised.sol\":2063:2072  _accessor */\n      dup5\n        /* \"contracts/PatientDataRevised.sol\":2033:2073  accessPermissions[msg.sender][_accessor] */\n      0xffffffffffffffffffffffffffffffffffffffff\n      and\n      0xffffffffffffffffffffffffffffffffffffffff\n      and\n      dup2\n      mstore\n      0x20\n      add\n      swap1\n      dup2\n      mstore\n      0x20\n      add\n      0x00\n      keccak256\n      0x00\n        /* \"contracts/PatientDataRevised.sol\":2033:2086  accessPermissions[msg.sender][_accessor] = _isGranted */\n      0x0100\n      exp\n      dup2\n      sload\n      dup2\n      0xff\n      mul\n      not\n      and\n      swap1\n      dup4\n      iszero\n      iszero\n      mul\n      or\n      swap1\n      sstore\n      pop\n        /* \"contracts/PatientDataRevised.sol\":170:172  10 */\n      0x0a\n        /* \"contracts/PatientDataRevised.sol\":2167:2180  tokenBalances */\n      0x00\n        /* \"contracts/PatientDataRevised.sol\":2167:2192  tokenBalances[msg.sender] */\n      dup1\n        /* \"contracts/PatientDataRevised.sol\":2181:2191  msg.sender */\n      caller\n        /* \"contracts/PatientDataRevised.sol\":2167:2192  tokenBalances[msg.sender] */\n      0xffffffffffffffffffffffffffffffffffffffff\n      and\n      0xffffffffffffffffffffffffffffffffffffffff\n      and\n      dup2\n      mstore\n      0x20\n      add\n      swap1\n      dup2\n      mstore\n      0x20\n      add\n      0x00\n      keccak256\n      0x00\n        /* \"contracts/PatientDataRevised.sol\":2167:2208  tokenBalances[msg.sender] += TOKEN_REWARD */\n      dup3\n      dup3\n      sload\n      tag_58\n      swap2\n      swap1\n      tag_59\n      jump\t// in\n    tag_58:\n      swap3\n      pop\n      pop\n      dup2\n      swap1\n      sstore\n      pop\n        /* \"contracts/PatientDataRevised.sol\":2252:2261  _accessor */\n      dup2\n        /* \"contracts/PatientDataRevised.sol\":2226:2288  AccessUpdated(msg.sender, _accessor, _isGranted, TOKEN_REWARD) */\n      0xffffffffffffffffffffffffffffffffffffffff\n      and\n        /* \"contracts/PatientDataRevised.sol\":2240:2250  msg.sender */\n      caller\n        /* \"contracts/PatientDataRevised.sol\":2226:2288  AccessUpdated(msg.sender, _accessor, _isGranted, TOKEN_REWARD) */\n      0xffffffffffffffffffffffffffffffffffffffff\n      and\n      0x09c705c294119a93fb8ea4861ef048d5884d9504575b35eb38c7ea7705cf28b0\n        /* \"contracts/PatientDataRevised.sol\":2263:2273  _isGranted */\n      dup4\n        /* \"contracts/PatientDataRevised.sol\":170:172  10 */\n      0x0a\n        /* \"contracts/PatientDataRevised.sol\":2226:2288  AccessUpdated(msg.sender, _accessor, _isGranted, TOKEN_REWARD) */\n      mload(0x40)\n      tag_60\n      swap3\n      swap2\n      swap1\n      tag_61\n      jump\t// in\n    tag_60:\n      mload(0x40)\n      dup1\n      swap2\n      sub\n      swap1\n      log3\n        /* \"contracts/PatientDataRevised.sol\":1957:2296  function updateAccess(address _accessor, bool _isGranted) public {... */\n      pop\n      pop\n      jump\t// out\n        /* \"contracts/PatientDataRevised.sol\":2693:2984  function claimTokens() public {... */\n    tag_20:\n        /* \"contracts/PatientDataRevised.sol\":2734:2748  uint256 amount */\n      0x00\n        /* \"contracts/PatientDataRevised.sol\":2751:2764  tokenBalances */\n      dup1\n        /* \"contracts/PatientDataRevised.sol\":2751:2776  tokenBalances[msg.sender] */\n      0x00\n        /* \"contracts/PatientDataRevised.sol\":2765:2775  msg.sender */\n      caller\n        /* \"contracts/PatientDataRevised.sol\":2751:2776  tokenBalances[msg.sender] */\n      0xffffffffffffffffffffffffffffffffffffffff\n      and\n      0xffffffffffffffffffffffffffffffffffffffff\n      and\n      dup2\n      mstore\n      0x20\n      add\n      swap1\n      dup2\n      mstore\n      0x20\n      add\n      0x00\n      keccak256\n      sload\n        /* \"contracts/PatientDataRevised.sol\":2734:2776  uint256 amount = tokenBalances[msg.sender] */\n      swap1\n      pop\n        /* \"contracts/PatientDataRevised.sol\":2804:2805  0 */\n      0x00\n        /* \"contracts/PatientDataRevised.sol\":2795:2801  amount */\n      dup2\n        /* \"contracts/PatientDataRevised.sol\":2795:2805  amount > 0 */\n      gt\n        /* \"contracts/PatientDataRevised.sol\":2787:2828  require(amount > 0, \"No tokens to claim\") */\n      tag_63\n      jumpi\n      mload(0x40)\n      0x08c379a000000000000000000000000000000000000000000000000000000000\n      dup2\n      mstore\n      0x04\n      add\n      tag_64\n      swap1\n      tag_65\n      jump\t// in\n    tag_64:\n      mload(0x40)\n      dup1\n      swap2\n      sub\n      swap1\n      revert\n    tag_63:\n        /* \"contracts/PatientDataRevised.sol\":2869:2870  0 */\n      0x00\n        /* \"contracts/PatientDataRevised.sol\":2841:2854  tokenBalances */\n      dup1\n        /* \"contracts/PatientDataRevised.sol\":2841:2866  tokenBalances[msg.sender] */\n      0x00\n        /* \"contracts/PatientDataRevised.sol\":2855:2865  msg.sender */\n      caller\n        /* \"contracts/PatientDataRevised.sol\":2841:2866  tokenBalances[msg.sender] */\n      0xffffffffffffffffffffffffffffffffffffffff\n      and\n      0xffffffffffffffffffffffffffffffffffffffff\n      and\n      dup2\n      mstore\n      0x20\n      add\n      swap1\n      dup2\n      mstore\n      0x20\n      add\n      0x00\n      keccak256\n        /* \"contracts/PatientDataRevised.sol\":2841:2870  tokenBalances[msg.sender] = 0 */\n      dup2\n      swap1\n      sstore\n      pop\n        /* \"contracts/PatientDataRevised.sol\":2957:2967  msg.sender */\n      caller\n        /* \"contracts/PatientDataRevised.sol\":2943:2976  TokensClaimed(msg.sender, amount) */\n      0xffffffffffffffffffffffffffffffffffffffff\n      and\n      0x896e034966eaaf1adc54acc0f257056febbd300c9e47182cf761982cf1f5e430\n        /* \"contracts/PatientDataRevised.sol\":2969:2975  amount */\n      dup3\n        /* \"contracts/PatientDataRevised.sol\":2943:2976  TokensClaimed(msg.sender, amount) */\n      mload(0x40)\n      tag_66\n      swap2\n      swap1\n      tag_25\n      jump\t// in\n    tag_66:\n      mload(0x40)\n      dup1\n      swap2\n      sub\n      swap1\n      log2\n        /* \"contracts/PatientDataRevised.sol\":2723:2984  {... */\n      pop\n        /* \"contracts/PatientDataRevised.sol\":2693:2984  function claimTokens() public {... */\n      jump\t// out\n        /* \"contracts/PatientDataRevised.sol\":437:485  mapping(address => uint256) public tokenBalances */\n    tag_23:\n      mstore(0x20, 0x00)\n      dup1\n      0x00\n      mstore\n      keccak256(0x00, 0x40)\n      0x00\n      swap2\n      pop\n      swap1\n      pop\n      sload\n      dup2\n      jump\t// out\n        /* \"contracts/PatientDataRevised.sol\":1240:1879  function logHealthData(... */\n    tag_29:\n        /* \"contracts/PatientDataRevised.sol\":1421:1446  HealthData memory newData */\n      0x00\n        /* \"contracts/PatientDataRevised.sol\":1449:1655  HealthData({... */\n      mload(0x40)\n      dup1\n      0xa0\n      add\n      0x40\n      mstore\n      dup1\n        /* \"contracts/PatientDataRevised.sol\":1486:1501  block.timestamp */\n      timestamp\n        /* \"contracts/PatientDataRevised.sol\":1449:1655  HealthData({... */\n      dup2\n      mstore\n      0x20\n      add\n        /* \"contracts/PatientDataRevised.sol\":1530:1543  _glucoseLevel */\n      dup7\n        /* \"contracts/PatientDataRevised.sol\":1449:1655  HealthData({... */\n      dup2\n      mstore\n      0x20\n      add\n        /* \"contracts/PatientDataRevised.sol\":1570:1581  _medication */\n      dup6\n        /* \"contracts/PatientDataRevised.sol\":1449:1655  HealthData({... */\n      dup2\n      mstore\n      0x20\n      add\n        /* \"contracts/PatientDataRevised.sol\":1603:1609  _meals */\n      dup5\n        /* \"contracts/PatientDataRevised.sol\":1449:1655  HealthData({... */\n      dup2\n      mstore\n      0x20\n      add\n        /* \"contracts/PatientDataRevised.sol\":1634:1643  _exercise */\n      dup4\n        /* \"contracts/PatientDataRevised.sol\":1449:1655  HealthData({... */\n      dup2\n      mstore\n      pop\n        /* \"contracts/PatientDataRevised.sol\":1421:1655  HealthData memory newData = HealthData({... */\n      swap1\n      pop\n        /* \"contracts/PatientDataRevised.sol\":1666:1677  patientData */\n      0x01\n        /* \"contracts/PatientDataRevised.sol\":1666:1689  patientData[msg.sender] */\n      0x00\n        /* \"contracts/PatientDataRevised.sol\":1678:1688  msg.sender */\n      caller\n        /* \"contracts/PatientDataRevised.sol\":1666:1689  patientData[msg.sender] */\n      0xffffffffffffffffffffffffffffffffffffffff\n      and\n      0xffffffffffffffffffffffffffffffffffffffff\n      and\n      dup2\n      mstore\n      0x20\n      add\n      swap1\n      dup2\n      mstore\n      0x20\n      add\n      0x00\n      keccak256\n        /* \"contracts/PatientDataRevised.sol\":1695:1702  newData */\n      dup2\n        /* \"contracts/PatientDataRevised.sol\":1666:1703  patientData[msg.sender].push(newData) */\n      swap1\n      dup1\n      0x01\n      dup2\n      sload\n      add\n      dup1\n      dup3\n      sstore\n      dup1\n      swap2\n      pop\n      pop\n      0x01\n      swap1\n      sub\n      swap1\n      0x00\n      mstore\n      keccak256(0x00, 0x20)\n      swap1\n      0x05\n      mul\n      add\n      0x00\n      swap1\n      swap2\n      swap1\n      swap2\n      swap1\n      swap2\n      pop\n      0x00\n      dup3\n      add\n      mload\n      dup2\n      0x00\n      add\n      sstore\n      0x20\n      dup3\n      add\n      mload\n      dup2\n      0x01\n      add\n      sstore\n      0x40\n      dup3\n      add\n      mload\n      dup2\n      0x02\n      add\n      swap1\n      dup2\n      tag_69\n      swap2\n      swap1\n      tag_70\n      jump\t// in\n    tag_69:\n      pop\n      0x60\n      dup3\n      add\n      mload\n      dup2\n      0x03\n      add\n      swap1\n      dup2\n      tag_71\n      swap2\n      swap1\n      tag_70\n      jump\t// in\n    tag_71:\n      pop\n      0x80\n      dup3\n      add\n      mload\n      dup2\n      0x04\n      add\n      swap1\n      dup2\n      tag_72\n      swap2\n      swap1\n      tag_70\n      jump\t// in\n    tag_72:\n      pop\n      pop\n      pop\n        /* \"contracts/PatientDataRevised.sol\":170:172  10 */\n      0x0a\n        /* \"contracts/PatientDataRevised.sol\":1759:1772  tokenBalances */\n      0x00\n        /* \"contracts/PatientDataRevised.sol\":1759:1784  tokenBalances[msg.sender] */\n      dup1\n        /* \"contracts/PatientDataRevised.sol\":1773:1783  msg.sender */\n      caller\n        /* \"contracts/PatientDataRevised.sol\":1759:1784  tokenBalances[msg.sender] */\n      0xffffffffffffffffffffffffffffffffffffffff\n      and\n      0xffffffffffffffffffffffffffffffffffffffff\n      and\n      dup2\n      mstore\n      0x20\n      add\n      swap1\n      dup2\n      mstore\n      0x20\n      add\n      0x00\n      keccak256\n      0x00\n        /* \"contracts/PatientDataRevised.sol\":1759:1800  tokenBalances[msg.sender] += TOKEN_REWARD */\n      dup3\n      dup3\n      sload\n      tag_73\n      swap2\n      swap1\n      tag_59\n      jump\t// in\n    tag_73:\n      swap3\n      pop\n      pop\n      dup2\n      swap1\n      sstore\n      pop\n        /* \"contracts/PatientDataRevised.sol\":1829:1839  msg.sender */\n      caller\n        /* \"contracts/PatientDataRevised.sol\":1818:1871  DataLogged(msg.sender, block.timestamp, TOKEN_REWARD) */\n      0xffffffffffffffffffffffffffffffffffffffff\n      and\n      0x46b8550ac8f5f68f14d6a3540963578c9733e4ff2a4e7ca11cccdeeb0b521d67\n        /* \"contracts/PatientDataRevised.sol\":1841:1856  block.timestamp */\n      timestamp\n        /* \"contracts/PatientDataRevised.sol\":170:172  10 */\n      0x0a\n        /* \"contracts/PatientDataRevised.sol\":1818:1871  DataLogged(msg.sender, block.timestamp, TOKEN_REWARD) */\n      mload(0x40)\n      tag_74\n      swap3\n      swap2\n      swap1\n      tag_75\n      jump\t// in\n    tag_74:\n      mload(0x40)\n      dup1\n      swap2\n      sub\n      swap1\n      log2\n        /* \"contracts/PatientDataRevised.sol\":1410:1879  {... */\n      pop\n        /* \"contracts/PatientDataRevised.sol\":1240:1879  function logHealthData(... */\n      pop\n      pop\n      pop\n      pop\n      jump\t// out\n        /* \"contracts/PatientDataRevised.sol\":131:172  uint256 public constant TOKEN_REWARD = 10 */\n    tag_31:\n        /* \"contracts/PatientDataRevised.sol\":170:172  10 */\n      0x0a\n        /* \"contracts/PatientDataRevised.sol\":131:172  uint256 public constant TOKEN_REWARD = 10 */\n      dup2\n      jump\t// out\n        /* \"#utility.yul\":7:82   */\n    tag_76:\n        /* \"#utility.yul\":40:46   */\n      0x00\n        /* \"#utility.yul\":73:75   */\n      0x40\n        /* \"#utility.yul\":67:76   */\n      mload\n        /* \"#utility.yul\":57:76   */\n      swap1\n      pop\n        /* \"#utility.yul\":7:82   */\n      swap1\n      jump\t// out\n        /* \"#utility.yul\":88:205   */\n    tag_77:\n        /* \"#utility.yul\":197:198   */\n      0x00\n        /* \"#utility.yul\":194:195   */\n      dup1\n        /* \"#utility.yul\":187:199   */\n      revert\n        /* \"#utility.yul\":211:328   */\n    tag_78:\n        /* \"#utility.yul\":320:321   */\n      0x00\n        /* \"#utility.yul\":317:318   */\n      dup1\n        /* \"#utility.yul\":310:322   */\n      revert\n        /* \"#utility.yul\":334:460   */\n    tag_79:\n        /* \"#utility.yul\":371:378   */\n      0x00\n        /* \"#utility.yul\":411:453   */\n      0xffffffffffffffffffffffffffffffffffffffff\n        /* \"#utility.yul\":404:409   */\n      dup3\n        /* \"#utility.yul\":400:454   */\n      and\n        /* \"#utility.yul\":389:454   */\n      swap1\n      pop\n        /* \"#utility.yul\":334:460   */\n      swap2\n      swap1\n      pop\n      jump\t// out\n        /* \"#utility.yul\":466:562   */\n    tag_80:\n        /* \"#utility.yul\":503:510   */\n      0x00\n        /* \"#utility.yul\":532:556   */\n      tag_141\n        /* \"#utility.yul\":550:555   */\n      dup3\n        /* \"#utility.yul\":532:556   */\n      tag_79\n      jump\t// in\n    tag_141:\n        /* \"#utility.yul\":521:556   */\n      swap1\n      pop\n        /* \"#utility.yul\":466:562   */\n      swap2\n      swap1\n      pop\n      jump\t// out\n        /* \"#utility.yul\":568:690   */\n    tag_81:\n        /* \"#utility.yul\":641:665   */\n      tag_143\n        /* \"#utility.yul\":659:664   */\n      dup2\n        /* \"#utility.yul\":641:665   */\n      tag_80\n      jump\t// in\n    tag_143:\n        /* \"#utility.yul\":634:639   */\n      dup2\n        /* \"#utility.yul\":631:666   */\n      eq\n        /* \"#utility.yul\":621:684   */\n      tag_144\n      jumpi\n        /* \"#utility.yul\":680:681   */\n      0x00\n        /* \"#utility.yul\":677:678   */\n      dup1\n        /* \"#utility.yul\":670:682   */\n      revert\n        /* \"#utility.yul\":621:684   */\n    tag_144:\n        /* \"#utility.yul\":568:690   */\n      pop\n      jump\t// out\n        /* \"#utility.yul\":696:835   */\n    tag_82:\n        /* \"#utility.yul\":742:747   */\n      0x00\n        /* \"#utility.yul\":780:786   */\n      dup2\n        /* \"#utility.yul\":767:787   */\n      calldataload\n        /* \"#utility.yul\":758:787   */\n      swap1\n      pop\n        /* \"#utility.yul\":796:829   */\n      tag_146\n        /* \"#utility.yul\":823:828   */\n      dup2\n        /* \"#utility.yul\":796:829   */\n      tag_81\n      jump\t// in\n    tag_146:\n        /* \"#utility.yul\":696:835   */\n      swap3\n      swap2\n      pop\n      pop\n      jump\t// out\n        /* \"#utility.yul\":841:1170   */\n    tag_11:\n        /* \"#utility.yul\":900:906   */\n      0x00\n        /* \"#utility.yul\":949:951   */\n      0x20\n        /* \"#utility.yul\":937:946   */\n      dup3\n        /* \"#utility.yul\":928:935   */\n      dup5\n        /* \"#utility.yul\":924:947   */\n      sub\n        /* \"#utility.yul\":920:952   */\n      slt\n        /* \"#utility.yul\":917:1036   */\n      iszero\n      tag_148\n      jumpi\n        /* \"#utility.yul\":955:1034   */\n      tag_149\n      tag_77\n      jump\t// in\n    tag_149:\n        /* \"#utility.yul\":917:1036   */\n    tag_148:\n        /* \"#utility.yul\":1075:1076   */\n      0x00\n        /* \"#utility.yul\":1100:1153   */\n      tag_150\n        /* \"#utility.yul\":1145:1152   */\n      dup5\n        /* \"#utility.yul\":1136:1142   */\n      dup3\n        /* \"#utility.yul\":1125:1134   */\n      dup6\n        /* \"#utility.yul\":1121:1143   */\n      add\n        /* \"#utility.yul\":1100:1153   */\n      tag_82\n      jump\t// in\n    tag_150:\n        /* \"#utility.yul\":1090:1153   */\n      swap2\n      pop\n        /* \"#utility.yul\":1046:1163   */\n      pop\n        /* \"#utility.yul\":841:1170   */\n      swap3\n      swap2\n      pop\n      pop\n      jump\t// out\n        /* \"#utility.yul\":1176:1316   */\n    tag_83:\n        /* \"#utility.yul\":1269:1275   */\n      0x00\n        /* \"#utility.yul\":1303:1308   */\n      dup2\n        /* \"#utility.yul\":1297:1309   */\n      mload\n        /* \"#utility.yul\":1287:1309   */\n      swap1\n      pop\n        /* \"#utility.yul\":1176:1316   */\n      swap2\n      swap1\n      pop\n      jump\t// out\n        /* \"#utility.yul\":1322:1532   */\n    tag_84:\n        /* \"#utility.yul\":1447:1458   */\n      0x00\n        /* \"#utility.yul\":1481:1487   */\n      dup3\n        /* \"#utility.yul\":1476:1479   */\n      dup3\n        /* \"#utility.yul\":1469:1488   */\n      mstore\n        /* \"#utility.yul\":1521:1525   */\n      0x20\n        /* \"#utility.yul\":1516:1519   */\n      dup3\n        /* \"#utility.yul\":1512:1526   */\n      add\n        /* \"#utility.yul\":1497:1526   */\n      swap1\n      pop\n        /* \"#utility.yul\":1322:1532   */\n      swap3\n      swap2\n      pop\n      pop\n      jump\t// out\n        /* \"#utility.yul\":1538:1696   */\n    tag_85:\n        /* \"#utility.yul\":1631:1635   */\n      0x00\n        /* \"#utility.yul\":1654:1657   */\n      dup2\n        /* \"#utility.yul\":1646:1657   */\n      swap1\n      pop\n        /* \"#utility.yul\":1684:1688   */\n      0x20\n        /* \"#utility.yul\":1679:1682   */\n      dup3\n        /* \"#utility.yul\":1675:1689   */\n      add\n        /* \"#utility.yul\":1667:1689   */\n      swap1\n      pop\n        /* \"#utility.yul\":1538:1696   */\n      swap2\n      swap1\n      pop\n      jump\t// out\n        /* \"#utility.yul\":1702:1779   */\n    tag_86:\n        /* \"#utility.yul\":1739:1746   */\n      0x00\n        /* \"#utility.yul\":1768:1773   */\n      dup2\n        /* \"#utility.yul\":1757:1773   */\n      swap1\n      pop\n        /* \"#utility.yul\":1702:1779   */\n      swap2\n      swap1\n      pop\n      jump\t// out\n        /* \"#utility.yul\":1785:1893   */\n    tag_87:\n        /* \"#utility.yul\":1862:1886   */\n      tag_156\n        /* \"#utility.yul\":1880:1885   */\n      dup2\n        /* \"#utility.yul\":1862:1886   */\n      tag_86\n      jump\t// in\n    tag_156:\n        /* \"#utility.yul\":1857:1860   */\n      dup3\n        /* \"#utility.yul\":1850:1887   */\n      mstore\n        /* \"#utility.yul\":1785:1893   */\n      pop\n      pop\n      jump\t// out\n        /* \"#utility.yul\":1899:1998   */\n    tag_88:\n        /* \"#utility.yul\":1951:1957   */\n      0x00\n        /* \"#utility.yul\":1985:1990   */\n      dup2\n        /* \"#utility.yul\":1979:1991   */\n      mload\n        /* \"#utility.yul\":1969:1991   */\n      swap1\n      pop\n        /* \"#utility.yul\":1899:1998   */\n      swap2\n      swap1\n      pop\n      jump\t// out\n        /* \"#utility.yul\":2004:2163   */\n    tag_89:\n        /* \"#utility.yul\":2078:2089   */\n      0x00\n        /* \"#utility.yul\":2112:2118   */\n      dup3\n        /* \"#utility.yul\":2107:2110   */\n      dup3\n        /* \"#utility.yul\":2100:2119   */\n      mstore\n        /* \"#utility.yul\":2152:2156   */\n      0x20\n        /* \"#utility.yul\":2147:2150   */\n      dup3\n        /* \"#utility.yul\":2143:2157   */\n      add\n        /* \"#utility.yul\":2128:2157   */\n      swap1\n      pop\n        /* \"#utility.yul\":2004:2163   */\n      swap3\n      swap2\n      pop\n      pop\n      jump\t// out\n        /* \"#utility.yul\":2169:2308   */\n    tag_90:\n        /* \"#utility.yul\":2258:2264   */\n      dup3\n        /* \"#utility.yul\":2253:2256   */\n      dup2\n        /* \"#utility.yul\":2248:2251   */\n      dup4\n        /* \"#utility.yul\":2242:2265   */\n      mcopy\n        /* \"#utility.yul\":2299:2300   */\n      0x00\n        /* \"#utility.yul\":2290:2296   */\n      dup4\n        /* \"#utility.yul\":2285:2288   */\n      dup4\n        /* \"#utility.yul\":2281:2297   */\n      add\n        /* \"#utility.yul\":2274:2301   */\n      mstore\n        /* \"#utility.yul\":2169:2308   */\n      pop\n      pop\n      pop\n      jump\t// out\n        /* \"#utility.yul\":2314:2416   */\n    tag_91:\n        /* \"#utility.yul\":2355:2361   */\n      0x00\n        /* \"#utility.yul\":2406:2408   */\n      0x1f\n        /* \"#utility.yul\":2402:2409   */\n      not\n        /* \"#utility.yul\":2397:2399   */\n      0x1f\n        /* \"#utility.yul\":2390:2395   */\n      dup4\n        /* \"#utility.yul\":2386:2400   */\n      add\n        /* \"#utility.yul\":2382:2410   */\n      and\n        /* \"#utility.yul\":2372:2410   */\n      swap1\n      pop\n        /* \"#utility.yul\":2314:2416   */\n      swap2\n      swap1\n      pop\n      jump\t// out\n        /* \"#utility.yul\":2422:2779   */\n    tag_92:\n        /* \"#utility.yul\":2500:2503   */\n      0x00\n        /* \"#utility.yul\":2528:2567   */\n      tag_162\n        /* \"#utility.yul\":2561:2566   */\n      dup3\n        /* \"#utility.yul\":2528:2567   */\n      tag_88\n      jump\t// in\n    tag_162:\n        /* \"#utility.yul\":2583:2644   */\n      tag_163\n        /* \"#utility.yul\":2637:2643   */\n      dup2\n        /* \"#utility.yul\":2632:2635   */\n      dup6\n        /* \"#utility.yul\":2583:2644   */\n      tag_89\n      jump\t// in\n    tag_163:\n        /* \"#utility.yul\":2576:2644   */\n      swap4\n      pop\n        /* \"#utility.yul\":2653:2718   */\n      tag_164\n        /* \"#utility.yul\":2711:2717   */\n      dup2\n        /* \"#utility.yul\":2706:2709   */\n      dup6\n        /* \"#utility.yul\":2699:2703   */\n      0x20\n        /* \"#utility.yul\":2692:2697   */\n      dup7\n        /* \"#utility.yul\":2688:2704   */\n      add\n        /* \"#utility.yul\":2653:2718   */\n      tag_90\n      jump\t// in\n    tag_164:\n        /* \"#utility.yul\":2743:2772   */\n      tag_165\n        /* \"#utility.yul\":2765:2771   */\n      dup2\n        /* \"#utility.yul\":2743:2772   */\n      tag_91\n      jump\t// in\n    tag_165:\n        /* \"#utility.yul\":2738:2741   */\n      dup5\n        /* \"#utility.yul\":2734:2773   */\n      add\n        /* \"#utility.yul\":2727:2773   */\n      swap2\n      pop\n        /* \"#utility.yul\":2504:2779   */\n      pop\n        /* \"#utility.yul\":2422:2779   */\n      swap3\n      swap2\n      pop\n      pop\n      jump\t// out\n        /* \"#utility.yul\":2875:4161   */\n    tag_93:\n        /* \"#utility.yul\":2986:2989   */\n      0x00\n        /* \"#utility.yul\":3022:3026   */\n      0xa0\n        /* \"#utility.yul\":3017:3020   */\n      dup4\n        /* \"#utility.yul\":3013:3027   */\n      add\n        /* \"#utility.yul\":3114:3118   */\n      0x00\n        /* \"#utility.yul\":3107:3112   */\n      dup4\n        /* \"#utility.yul\":3103:3119   */\n      add\n        /* \"#utility.yul\":3097:3120   */\n      mload\n        /* \"#utility.yul\":3133:3196   */\n      tag_167\n        /* \"#utility.yul\":3190:3194   */\n      0x00\n        /* \"#utility.yul\":3185:3188   */\n      dup7\n        /* \"#utility.yul\":3181:3195   */\n      add\n        /* \"#utility.yul\":3167:3179   */\n      dup3\n        /* \"#utility.yul\":3133:3196   */\n      tag_87\n      jump\t// in\n    tag_167:\n        /* \"#utility.yul\":3037:3206   */\n      pop\n        /* \"#utility.yul\":3296:3300   */\n      0x20\n        /* \"#utility.yul\":3289:3294   */\n      dup4\n        /* \"#utility.yul\":3285:3301   */\n      add\n        /* \"#utility.yul\":3279:3302   */\n      mload\n        /* \"#utility.yul\":3315:3378   */\n      tag_168\n        /* \"#utility.yul\":3372:3376   */\n      0x20\n        /* \"#utility.yul\":3367:3370   */\n      dup7\n        /* \"#utility.yul\":3363:3377   */\n      add\n        /* \"#utility.yul\":3349:3361   */\n      dup3\n        /* \"#utility.yul\":3315:3378   */\n      tag_87\n      jump\t// in\n    tag_168:\n        /* \"#utility.yul\":3216:3388   */\n      pop\n        /* \"#utility.yul\":3476:3480   */\n      0x40\n        /* \"#utility.yul\":3469:3474   */\n      dup4\n        /* \"#utility.yul\":3465:3481   */\n      add\n        /* \"#utility.yul\":3459:3482   */\n      mload\n        /* \"#utility.yul\":3529:3532   */\n      dup5\n        /* \"#utility.yul\":3523:3527   */\n      dup3\n        /* \"#utility.yul\":3519:3533   */\n      sub\n        /* \"#utility.yul\":3512:3516   */\n      0x40\n        /* \"#utility.yul\":3507:3510   */\n      dup7\n        /* \"#utility.yul\":3503:3517   */\n      add\n        /* \"#utility.yul\":3496:3534   */\n      mstore\n        /* \"#utility.yul\":3555:3628   */\n      tag_169\n        /* \"#utility.yul\":3623:3627   */\n      dup3\n        /* \"#utility.yul\":3609:3621   */\n      dup3\n        /* \"#utility.yul\":3555:3628   */\n      tag_92\n      jump\t// in\n    tag_169:\n        /* \"#utility.yul\":3547:3628   */\n      swap2\n      pop\n        /* \"#utility.yul\":3398:3639   */\n      pop\n        /* \"#utility.yul\":3722:3726   */\n      0x60\n        /* \"#utility.yul\":3715:3720   */\n      dup4\n        /* \"#utility.yul\":3711:3727   */\n      add\n        /* \"#utility.yul\":3705:3728   */\n      mload\n        /* \"#utility.yul\":3775:3778   */\n      dup5\n        /* \"#utility.yul\":3769:3773   */\n      dup3\n        /* \"#utility.yul\":3765:3779   */\n      sub\n        /* \"#utility.yul\":3758:3762   */\n      0x60\n        /* \"#utility.yul\":3753:3756   */\n      dup7\n        /* \"#utility.yul\":3749:3763   */\n      add\n        /* \"#utility.yul\":3742:3780   */\n      mstore\n        /* \"#utility.yul\":3801:3874   */\n      tag_170\n        /* \"#utility.yul\":3869:3873   */\n      dup3\n        /* \"#utility.yul\":3855:3867   */\n      dup3\n        /* \"#utility.yul\":3801:3874   */\n      tag_92\n      jump\t// in\n    tag_170:\n        /* \"#utility.yul\":3793:3874   */\n      swap2\n      pop\n        /* \"#utility.yul\":3649:3885   */\n      pop\n        /* \"#utility.yul\":3971:3975   */\n      0x80\n        /* \"#utility.yul\":3964:3969   */\n      dup4\n        /* \"#utility.yul\":3960:3976   */\n      add\n        /* \"#utility.yul\":3954:3977   */\n      mload\n        /* \"#utility.yul\":4024:4027   */\n      dup5\n        /* \"#utility.yul\":4018:4022   */\n      dup3\n        /* \"#utility.yul\":4014:4028   */\n      sub\n        /* \"#utility.yul\":4007:4011   */\n      0x80\n        /* \"#utility.yul\":4002:4005   */\n      dup7\n        /* \"#utility.yul\":3998:4012   */\n      add\n        /* \"#utility.yul\":3991:4029   */\n      mstore\n        /* \"#utility.yul\":4050:4123   */\n      tag_171\n        /* \"#utility.yul\":4118:4122   */\n      dup3\n        /* \"#utility.yul\":4104:4116   */\n      dup3\n        /* \"#utility.yul\":4050:4123   */\n      tag_92\n      jump\t// in\n    tag_171:\n        /* \"#utility.yul\":4042:4123   */\n      swap2\n      pop\n        /* \"#utility.yul\":3895:4134   */\n      pop\n        /* \"#utility.yul\":4151:4155   */\n      dup1\n        /* \"#utility.yul\":4144:4155   */\n      swap2\n      pop\n        /* \"#utility.yul\":2991:4161   */\n      pop\n        /* \"#utility.yul\":2875:4161   */\n      swap3\n      swap2\n      pop\n      pop\n      jump\t// out\n        /* \"#utility.yul\":4167:4427   */\n    tag_94:\n        /* \"#utility.yul\":4288:4298   */\n      0x00\n        /* \"#utility.yul\":4323:4421   */\n      tag_173\n        /* \"#utility.yul\":4417:4420   */\n      dup4\n        /* \"#utility.yul\":4409:4415   */\n      dup4\n        /* \"#utility.yul\":4323:4421   */\n      tag_93\n      jump\t// in\n    tag_173:\n        /* \"#utility.yul\":4309:4421   */\n      swap1\n      pop\n        /* \"#utility.yul\":4167:4427   */\n      swap3\n      swap2\n      pop\n      pop\n      jump\t// out\n        /* \"#utility.yul\":4433:4572   */\n    tag_95:\n        /* \"#utility.yul\":4529:4533   */\n      0x00\n        /* \"#utility.yul\":4561:4565   */\n      0x20\n        /* \"#utility.yul\":4556:4559   */\n      dup3\n        /* \"#utility.yul\":4552:4566   */\n      add\n        /* \"#utility.yul\":4544:4566   */\n      swap1\n      pop\n        /* \"#utility.yul\":4433:4572   */\n      swap2\n      swap1\n      pop\n      jump\t// out\n        /* \"#utility.yul\":4672:5791   */\n    tag_96:\n        /* \"#utility.yul\":4843:4846   */\n      0x00\n        /* \"#utility.yul\":4872:4952   */\n      tag_176\n        /* \"#utility.yul\":4946:4951   */\n      dup3\n        /* \"#utility.yul\":4872:4952   */\n      tag_83\n      jump\t// in\n    tag_176:\n        /* \"#utility.yul\":4968:5080   */\n      tag_177\n        /* \"#utility.yul\":5073:5079   */\n      dup2\n        /* \"#utility.yul\":5068:5071   */\n      dup6\n        /* \"#utility.yul\":4968:5080   */\n      tag_84\n      jump\t// in\n    tag_177:\n        /* \"#utility.yul\":4961:5080   */\n      swap4\n      pop\n        /* \"#utility.yul\":5106:5109   */\n      dup4\n        /* \"#utility.yul\":5151:5155   */\n      0x20\n        /* \"#utility.yul\":5143:5149   */\n      dup3\n        /* \"#utility.yul\":5139:5156   */\n      mul\n        /* \"#utility.yul\":5134:5137   */\n      dup6\n        /* \"#utility.yul\":5130:5157   */\n      add\n        /* \"#utility.yul\":5181:5263   */\n      tag_178\n        /* \"#utility.yul\":5257:5262   */\n      dup6\n        /* \"#utility.yul\":5181:5263   */\n      tag_85\n      jump\t// in\n    tag_178:\n        /* \"#utility.yul\":5286:5293   */\n      dup1\n        /* \"#utility.yul\":5317:5318   */\n      0x00\n        /* \"#utility.yul\":5302:5746   */\n    tag_179:\n        /* \"#utility.yul\":5327:5333   */\n      dup6\n        /* \"#utility.yul\":5324:5325   */\n      dup2\n        /* \"#utility.yul\":5321:5334   */\n      lt\n        /* \"#utility.yul\":5302:5746   */\n      iszero\n      tag_181\n      jumpi\n        /* \"#utility.yul\":5398:5407   */\n      dup5\n        /* \"#utility.yul\":5392:5396   */\n      dup5\n        /* \"#utility.yul\":5388:5408   */\n      sub\n        /* \"#utility.yul\":5383:5386   */\n      dup10\n        /* \"#utility.yul\":5376:5409   */\n      mstore\n        /* \"#utility.yul\":5449:5455   */\n      dup2\n        /* \"#utility.yul\":5443:5456   */\n      mload\n        /* \"#utility.yul\":5477:5593   */\n      tag_182\n        /* \"#utility.yul\":5588:5592   */\n      dup6\n        /* \"#utility.yul\":5573:5586   */\n      dup3\n        /* \"#utility.yul\":5477:5593   */\n      tag_94\n      jump\t// in\n    tag_182:\n        /* \"#utility.yul\":5469:5593   */\n      swap5\n      pop\n        /* \"#utility.yul\":5616:5702   */\n      tag_183\n        /* \"#utility.yul\":5695:5701   */\n      dup4\n        /* \"#utility.yul\":5616:5702   */\n      tag_95\n      jump\t// in\n    tag_183:\n        /* \"#utility.yul\":5606:5702   */\n      swap3\n      pop\n        /* \"#utility.yul\":5731:5735   */\n      0x20\n        /* \"#utility.yul\":5726:5729   */\n      dup11\n        /* \"#utility.yul\":5722:5736   */\n      add\n        /* \"#utility.yul\":5715:5736   */\n      swap10\n      pop\n        /* \"#utility.yul\":5362:5746   */\n      pop\n        /* \"#utility.yul\":5349:5350   */\n      0x01\n        /* \"#utility.yul\":5346:5347   */\n      dup2\n        /* \"#utility.yul\":5342:5351   */\n      add\n        /* \"#utility.yul\":5337:5351   */\n      swap1\n      pop\n        /* \"#utility.yul\":5302:5746   */\n      jump(tag_179)\n    tag_181:\n        /* \"#utility.yul\":5306:5320   */\n      pop\n        /* \"#utility.yul\":5762:5766   */\n      dup3\n        /* \"#utility.yul\":5755:5766   */\n      swap8\n      pop\n        /* \"#utility.yul\":5782:5785   */\n      dup8\n        /* \"#utility.yul\":5775:5785   */\n      swap6\n      pop\n        /* \"#utility.yul\":4848:5791   */\n      pop\n      pop\n      pop\n      pop\n      pop\n        /* \"#utility.yul\":4672:5791   */\n      swap3\n      swap2\n      pop\n      pop\n      jump\t// out\n        /* \"#utility.yul\":5797:6274   */\n    tag_14:\n        /* \"#utility.yul\":5992:5996   */\n      0x00\n        /* \"#utility.yul\":6030:6032   */\n      0x20\n        /* \"#utility.yul\":6019:6028   */\n      dup3\n        /* \"#utility.yul\":6015:6033   */\n      add\n        /* \"#utility.yul\":6007:6033   */\n      swap1\n      pop\n        /* \"#utility.yul\":6079:6088   */\n      dup2\n        /* \"#utility.yul\":6073:6077   */\n      dup2\n        /* \"#utility.yul\":6069:6089   */\n      sub\n        /* \"#utility.yul\":6065:6066   */\n      0x00\n        /* \"#utility.yul\":6054:6063   */\n      dup4\n        /* \"#utility.yul\":6050:6067   */\n      add\n        /* \"#utility.yul\":6043:6090   */\n      mstore\n        /* \"#utility.yul\":6107:6267   */\n      tag_185\n        /* \"#utility.yul\":6262:6266   */\n      dup2\n        /* \"#utility.yul\":6253:6259   */\n      dup5\n        /* \"#utility.yul\":6107:6267   */\n      tag_96\n      jump\t// in\n    tag_185:\n        /* \"#utility.yul\":6099:6267   */\n      swap1\n      pop\n        /* \"#utility.yul\":5797:6274   */\n      swap3\n      swap2\n      pop\n      pop\n      jump\t// out\n        /* \"#utility.yul\":6280:6370   */\n    tag_97:\n        /* \"#utility.yul\":6314:6321   */\n      0x00\n        /* \"#utility.yul\":6357:6362   */\n      dup2\n        /* \"#utility.yul\":6350:6363   */\n      iszero\n        /* \"#utility.yul\":6343:6364   */\n      iszero\n        /* \"#utility.yul\":6332:6364   */\n      swap1\n      pop\n        /* \"#utility.yul\":6280:6370   */\n      swap2\n      swap1\n      pop\n      jump\t// out\n        /* \"#utility.yul\":6376:6492   */\n    tag_98:\n        /* \"#utility.yul\":6446:6467   */\n      tag_188\n        /* \"#utility.yul\":6461:6466   */\n      dup2\n        /* \"#utility.yul\":6446:6467   */\n      tag_97\n      jump\t// in\n    tag_188:\n        /* \"#utility.yul\":6439:6444   */\n      dup2\n        /* \"#utility.yul\":6436:6468   */\n      eq\n        /* \"#utility.yul\":6426:6486   */\n      tag_189\n      jumpi\n        /* \"#utility.yul\":6482:6483   */\n      0x00\n        /* \"#utility.yul\":6479:6480   */\n      dup1\n        /* \"#utility.yul\":6472:6484   */\n      revert\n        /* \"#utility.yul\":6426:6486   */\n    tag_189:\n        /* \"#utility.yul\":6376:6492   */\n      pop\n      jump\t// out\n        /* \"#utility.yul\":6498:6631   */\n    tag_99:\n        /* \"#utility.yul\":6541:6546   */\n      0x00\n        /* \"#utility.yul\":6579:6585   */\n      dup2\n        /* \"#utility.yul\":6566:6586   */\n      calldataload\n        /* \"#utility.yul\":6557:6586   */\n      swap1\n      pop\n        /* \"#utility.yul\":6595:6625   */\n      tag_191\n        /* \"#utility.yul\":6619:6624   */\n      dup2\n        /* \"#utility.yul\":6595:6625   */\n      tag_98\n      jump\t// in\n    tag_191:\n        /* \"#utility.yul\":6498:6631   */\n      swap3\n      swap2\n      pop\n      pop\n      jump\t// out\n        /* \"#utility.yul\":6637:7105   */\n    tag_17:\n        /* \"#utility.yul\":6702:6708   */\n      0x00\n        /* \"#utility.yul\":6710:6716   */\n      dup1\n        /* \"#utility.yul\":6759:6761   */\n      0x40\n        /* \"#utility.yul\":6747:6756   */\n      dup4\n        /* \"#utility.yul\":6738:6745   */\n      dup6\n        /* \"#utility.yul\":6734:6757   */\n      sub\n        /* \"#utility.yul\":6730:6762   */\n      slt\n        /* \"#utility.yul\":6727:6846   */\n      iszero\n      tag_193\n      jumpi\n        /* \"#utility.yul\":6765:6844   */\n      tag_194\n      tag_77\n      jump\t// in\n    tag_194:\n        /* \"#utility.yul\":6727:6846   */\n    tag_193:\n        /* \"#utility.yul\":6885:6886   */\n      0x00\n        /* \"#utility.yul\":6910:6963   */\n      tag_195\n        /* \"#utility.yul\":6955:6962   */\n      dup6\n        /* \"#utility.yul\":6946:6952   */\n      dup3\n        /* \"#utility.yul\":6935:6944   */\n      dup7\n        /* \"#utility.yul\":6931:6953   */\n      add\n        /* \"#utility.yul\":6910:6963   */\n      tag_82\n      jump\t// in\n    tag_195:\n        /* \"#utility.yul\":6900:6963   */\n      swap3\n      pop\n        /* \"#utility.yul\":6856:6973   */\n      pop\n        /* \"#utility.yul\":7012:7014   */\n      0x20\n        /* \"#utility.yul\":7038:7088   */\n      tag_196\n        /* \"#utility.yul\":7080:7087   */\n      dup6\n        /* \"#utility.yul\":7071:7077   */\n      dup3\n        /* \"#utility.yul\":7060:7069   */\n      dup7\n        /* \"#utility.yul\":7056:7078   */\n      add\n        /* \"#utility.yul\":7038:7088   */\n      tag_99\n      jump\t// in\n    tag_196:\n        /* \"#utility.yul\":7028:7088   */\n      swap2\n      pop\n        /* \"#utility.yul\":6983:7098   */\n      pop\n        /* \"#utility.yul\":6637:7105   */\n      swap3\n      pop\n      swap3\n      swap1\n      pop\n      jump\t// out\n        /* \"#utility.yul\":7111:7229   */\n    tag_100:\n        /* \"#utility.yul\":7198:7222   */\n      tag_198\n        /* \"#utility.yul\":7216:7221   */\n      dup2\n        /* \"#utility.yul\":7198:7222   */\n      tag_86\n      jump\t// in\n    tag_198:\n        /* \"#utility.yul\":7193:7196   */\n      dup3\n        /* \"#utility.yul\":7186:7223   */\n      mstore\n        /* \"#utility.yul\":7111:7229   */\n      pop\n      pop\n      jump\t// out\n        /* \"#utility.yul\":7235:7457   */\n    tag_25:\n        /* \"#utility.yul\":7328:7332   */\n      0x00\n        /* \"#utility.yul\":7366:7368   */\n      0x20\n        /* \"#utility.yul\":7355:7364   */\n      dup3\n        /* \"#utility.yul\":7351:7369   */\n      add\n        /* \"#utility.yul\":7343:7369   */\n      swap1\n      pop\n        /* \"#utility.yul\":7379:7450   */\n      tag_200\n        /* \"#utility.yul\":7447:7448   */\n      0x00\n        /* \"#utility.yul\":7436:7445   */\n      dup4\n        /* \"#utility.yul\":7432:7449   */\n      add\n        /* \"#utility.yul\":7423:7429   */\n      dup5\n        /* \"#utility.yul\":7379:7450   */\n      tag_100\n      jump\t// in\n    tag_200:\n        /* \"#utility.yul\":7235:7457   */\n      swap3\n      swap2\n      pop\n      pop\n      jump\t// out\n        /* \"#utility.yul\":7463:7585   */\n    tag_101:\n        /* \"#utility.yul\":7536:7560   */\n      tag_202\n        /* \"#utility.yul\":7554:7559   */\n      dup2\n        /* \"#utility.yul\":7536:7560   */\n      tag_86\n      jump\t// in\n    tag_202:\n        /* \"#utility.yul\":7529:7534   */\n      dup2\n        /* \"#utility.yul\":7526:7561   */\n      eq\n        /* \"#utility.yul\":7516:7579   */\n      tag_203\n      jumpi\n        /* \"#utility.yul\":7575:7576   */\n      0x00\n        /* \"#utility.yul\":7572:7573   */\n      dup1\n        /* \"#utility.yul\":7565:7577   */\n      revert\n        /* \"#utility.yul\":7516:7579   */\n    tag_203:\n        /* \"#utility.yul\":7463:7585   */\n      pop\n      jump\t// out\n        /* \"#utility.yul\":7591:7730   */\n    tag_102:\n        /* \"#utility.yul\":7637:7642   */\n      0x00\n        /* \"#utility.yul\":7675:7681   */\n      dup2\n        /* \"#utility.yul\":7662:7682   */\n      calldataload\n        /* \"#utility.yul\":7653:7682   */\n      swap1\n      pop\n        /* \"#utility.yul\":7691:7724   */\n      tag_205\n        /* \"#utility.yul\":7718:7723   */\n      dup2\n        /* \"#utility.yul\":7691:7724   */\n      tag_101\n      jump\t// in\n    tag_205:\n        /* \"#utility.yul\":7591:7730   */\n      swap3\n      swap2\n      pop\n      pop\n      jump\t// out\n        /* \"#utility.yul\":7736:7853   */\n    tag_103:\n        /* \"#utility.yul\":7845:7846   */\n      0x00\n        /* \"#utility.yul\":7842:7843   */\n      dup1\n        /* \"#utility.yul\":7835:7847   */\n      revert\n        /* \"#utility.yul\":7859:7976   */\n    tag_104:\n        /* \"#utility.yul\":7968:7969   */\n      0x00\n        /* \"#utility.yul\":7965:7966   */\n      dup1\n        /* \"#utility.yul\":7958:7970   */\n      revert\n        /* \"#utility.yul\":7982:8162   */\n    tag_105:\n        /* \"#utility.yul\":8030:8107   */\n      0x4e487b7100000000000000000000000000000000000000000000000000000000\n        /* \"#utility.yul\":8027:8028   */\n      0x00\n        /* \"#utility.yul\":8020:8108   */\n      mstore\n        /* \"#utility.yul\":8127:8131   */\n      0x41\n        /* \"#utility.yul\":8124:8125   */\n      0x04\n        /* \"#utility.yul\":8117:8132   */\n      mstore\n        /* \"#utility.yul\":8151:8155   */\n      0x24\n        /* \"#utility.yul\":8148:8149   */\n      0x00\n        /* \"#utility.yul\":8141:8156   */\n      revert\n        /* \"#utility.yul\":8168:8449   */\n    tag_106:\n        /* \"#utility.yul\":8251:8278   */\n      tag_210\n        /* \"#utility.yul\":8273:8277   */\n      dup3\n        /* \"#utility.yul\":8251:8278   */\n      tag_91\n      jump\t// in\n    tag_210:\n        /* \"#utility.yul\":8243:8249   */\n      dup2\n        /* \"#utility.yul\":8239:8279   */\n      add\n        /* \"#utility.yul\":8381:8387   */\n      dup2\n        /* \"#utility.yul\":8369:8379   */\n      dup2\n        /* \"#utility.yul\":8366:8388   */\n      lt\n        /* \"#utility.yul\":8345:8363   */\n      0xffffffffffffffff\n        /* \"#utility.yul\":8333:8343   */\n      dup3\n        /* \"#utility.yul\":8330:8364   */\n      gt\n        /* \"#utility.yul\":8327:8389   */\n      or\n        /* \"#utility.yul\":8324:8412   */\n      iszero\n      tag_211\n      jumpi\n        /* \"#utility.yul\":8392:8410   */\n      tag_212\n      tag_105\n      jump\t// in\n    tag_212:\n        /* \"#utility.yul\":8324:8412   */\n    tag_211:\n        /* \"#utility.yul\":8432:8442   */\n      dup1\n        /* \"#utility.yul\":8428:8430   */\n      0x40\n        /* \"#utility.yul\":8421:8443   */\n      mstore\n        /* \"#utility.yul\":8211:8449   */\n      pop\n        /* \"#utility.yul\":8168:8449   */\n      pop\n      pop\n      jump\t// out\n        /* \"#utility.yul\":8455:8584   */\n    tag_107:\n        /* \"#utility.yul\":8489:8495   */\n      0x00\n        /* \"#utility.yul\":8516:8536   */\n      tag_214\n      tag_76\n      jump\t// in\n    tag_214:\n        /* \"#utility.yul\":8506:8536   */\n      swap1\n      pop\n        /* \"#utility.yul\":8545:8578   */\n      tag_215\n        /* \"#utility.yul\":8573:8577   */\n      dup3\n        /* \"#utility.yul\":8565:8571   */\n      dup3\n        /* \"#utility.yul\":8545:8578   */\n      tag_106\n      jump\t// in\n    tag_215:\n        /* \"#utility.yul\":8455:8584   */\n      swap2\n      swap1\n      pop\n      jump\t// out\n        /* \"#utility.yul\":8590:8898   */\n    tag_108:\n        /* \"#utility.yul\":8652:8656   */\n      0x00\n        /* \"#utility.yul\":8742:8760   */\n      0xffffffffffffffff\n        /* \"#utility.yul\":8734:8740   */\n      dup3\n        /* \"#utility.yul\":8731:8761   */\n      gt\n        /* \"#utility.yul\":8728:8784   */\n      iszero\n      tag_217\n      jumpi\n        /* \"#utility.yul\":8764:8782   */\n      tag_218\n      tag_105\n      jump\t// in\n    tag_218:\n        /* \"#utility.yul\":8728:8784   */\n    tag_217:\n        /* \"#utility.yul\":8802:8831   */\n      tag_219\n        /* \"#utility.yul\":8824:8830   */\n      dup3\n        /* \"#utility.yul\":8802:8831   */\n      tag_91\n      jump\t// in\n    tag_219:\n        /* \"#utility.yul\":8794:8831   */\n      swap1\n      pop\n        /* \"#utility.yul\":8886:8890   */\n      0x20\n        /* \"#utility.yul\":8880:8884   */\n      dup2\n        /* \"#utility.yul\":8876:8891   */\n      add\n        /* \"#utility.yul\":8868:8891   */\n      swap1\n      pop\n        /* \"#utility.yul\":8590:8898   */\n      swap2\n      swap1\n      pop\n      jump\t// out\n        /* \"#utility.yul\":8904:9052   */\n    tag_109:\n        /* \"#utility.yul\":9002:9008   */\n      dup3\n        /* \"#utility.yul\":8997:9000   */\n      dup2\n        /* \"#utility.yul\":8992:8995   */\n      dup4\n        /* \"#utility.yul\":8979:9009   */\n      calldatacopy\n        /* \"#utility.yul\":9043:9044   */\n      0x00\n        /* \"#utility.yul\":9034:9040   */\n      dup4\n        /* \"#utility.yul\":9029:9032   */\n      dup4\n        /* \"#utility.yul\":9025:9041   */\n      add\n        /* \"#utility.yul\":9018:9045   */\n      mstore\n        /* \"#utility.yul\":8904:9052   */\n      pop\n      pop\n      pop\n      jump\t// out\n        /* \"#utility.yul\":9058:9483   */\n    tag_110:\n        /* \"#utility.yul\":9136:9141   */\n      0x00\n        /* \"#utility.yul\":9161:9227   */\n      tag_222\n        /* \"#utility.yul\":9177:9226   */\n      tag_223\n        /* \"#utility.yul\":9219:9225   */\n      dup5\n        /* \"#utility.yul\":9177:9226   */\n      tag_108\n      jump\t// in\n    tag_223:\n        /* \"#utility.yul\":9161:9227   */\n      tag_107\n      jump\t// in\n    tag_222:\n        /* \"#utility.yul\":9152:9227   */\n      swap1\n      pop\n        /* \"#utility.yul\":9250:9256   */\n      dup3\n        /* \"#utility.yul\":9243:9248   */\n      dup2\n        /* \"#utility.yul\":9236:9257   */\n      mstore\n        /* \"#utility.yul\":9288:9292   */\n      0x20\n        /* \"#utility.yul\":9281:9286   */\n      dup2\n        /* \"#utility.yul\":9277:9293   */\n      add\n        /* \"#utility.yul\":9326:9329   */\n      dup5\n        /* \"#utility.yul\":9317:9323   */\n      dup5\n        /* \"#utility.yul\":9312:9315   */\n      dup5\n        /* \"#utility.yul\":9308:9324   */\n      add\n        /* \"#utility.yul\":9305:9330   */\n      gt\n        /* \"#utility.yul\":9302:9414   */\n      iszero\n      tag_224\n      jumpi\n        /* \"#utility.yul\":9333:9412   */\n      tag_225\n      tag_104\n      jump\t// in\n    tag_225:\n        /* \"#utility.yul\":9302:9414   */\n    tag_224:\n        /* \"#utility.yul\":9423:9477   */\n      tag_226\n        /* \"#utility.yul\":9470:9476   */\n      dup5\n        /* \"#utility.yul\":9465:9468   */\n      dup3\n        /* \"#utility.yul\":9460:9463   */\n      dup6\n        /* \"#utility.yul\":9423:9477   */\n      tag_109\n      jump\t// in\n    tag_226:\n        /* \"#utility.yul\":9142:9483   */\n      pop\n        /* \"#utility.yul\":9058:9483   */\n      swap4\n      swap3\n      pop\n      pop\n      pop\n      jump\t// out\n        /* \"#utility.yul\":9503:9843   */\n    tag_111:\n        /* \"#utility.yul\":9559:9564   */\n      0x00\n        /* \"#utility.yul\":9608:9611   */\n      dup3\n        /* \"#utility.yul\":9601:9605   */\n      0x1f\n        /* \"#utility.yul\":9593:9599   */\n      dup4\n        /* \"#utility.yul\":9589:9606   */\n      add\n        /* \"#utility.yul\":9585:9612   */\n      slt\n        /* \"#utility.yul\":9575:9697   */\n      tag_228\n      jumpi\n        /* \"#utility.yul\":9616:9695   */\n      tag_229\n      tag_103\n      jump\t// in\n    tag_229:\n        /* \"#utility.yul\":9575:9697   */\n    tag_228:\n        /* \"#utility.yul\":9733:9739   */\n      dup2\n        /* \"#utility.yul\":9720:9740   */\n      calldataload\n        /* \"#utility.yul\":9758:9837   */\n      tag_230\n        /* \"#utility.yul\":9833:9836   */\n      dup5\n        /* \"#utility.yul\":9825:9831   */\n      dup3\n        /* \"#utility.yul\":9818:9822   */\n      0x20\n        /* \"#utility.yul\":9810:9816   */\n      dup7\n        /* \"#utility.yul\":9806:9823   */\n      add\n        /* \"#utility.yul\":9758:9837   */\n      tag_110\n      jump\t// in\n    tag_230:\n        /* \"#utility.yul\":9749:9837   */\n      swap2\n      pop\n        /* \"#utility.yul\":9565:9843   */\n      pop\n        /* \"#utility.yul\":9503:9843   */\n      swap3\n      swap2\n      pop\n      pop\n      jump\t// out\n        /* \"#utility.yul\":9849:11154   */\n    tag_28:\n        /* \"#utility.yul\":9965:9971   */\n      0x00\n        /* \"#utility.yul\":9973:9979   */\n      dup1\n        /* \"#utility.yul\":9981:9987   */\n      0x00\n        /* \"#utility.yul\":9989:9995   */\n      dup1\n        /* \"#utility.yul\":10038:10041   */\n      0x80\n        /* \"#utility.yul\":10026:10035   */\n      dup6\n        /* \"#utility.yul\":10017:10024   */\n      dup8\n        /* \"#utility.yul\":10013:10036   */\n      sub\n        /* \"#utility.yul\":10009:10042   */\n      slt\n        /* \"#utility.yul\":10006:10126   */\n      iszero\n      tag_232\n      jumpi\n        /* \"#utility.yul\":10045:10124   */\n      tag_233\n      tag_77\n      jump\t// in\n    tag_233:\n        /* \"#utility.yul\":10006:10126   */\n    tag_232:\n        /* \"#utility.yul\":10165:10166   */\n      0x00\n        /* \"#utility.yul\":10190:10243   */\n      tag_234\n        /* \"#utility.yul\":10235:10242   */\n      dup8\n        /* \"#utility.yul\":10226:10232   */\n      dup3\n        /* \"#utility.yul\":10215:10224   */\n      dup9\n        /* \"#utility.yul\":10211:10233   */\n      add\n        /* \"#utility.yul\":10190:10243   */\n      tag_102\n      jump\t// in\n    tag_234:\n        /* \"#utility.yul\":10180:10243   */\n      swap5\n      pop\n        /* \"#utility.yul\":10136:10253   */\n      pop\n        /* \"#utility.yul\":10320:10322   */\n      0x20\n        /* \"#utility.yul\":10309:10318   */\n      dup6\n        /* \"#utility.yul\":10305:10323   */\n      add\n        /* \"#utility.yul\":10292:10324   */\n      calldataload\n        /* \"#utility.yul\":10351:10369   */\n      0xffffffffffffffff\n        /* \"#utility.yul\":10343:10349   */\n      dup2\n        /* \"#utility.yul\":10340:10370   */\n      gt\n        /* \"#utility.yul\":10337:10454   */\n      iszero\n      tag_235\n      jumpi\n        /* \"#utility.yul\":10373:10452   */\n      tag_236\n      tag_78\n      jump\t// in\n    tag_236:\n        /* \"#utility.yul\":10337:10454   */\n    tag_235:\n        /* \"#utility.yul\":10478:10541   */\n      tag_237\n        /* \"#utility.yul\":10533:10540   */\n      dup8\n        /* \"#utility.yul\":10524:10530   */\n      dup3\n        /* \"#utility.yul\":10513:10522   */\n      dup9\n        /* \"#utility.yul\":10509:10531   */\n      add\n        /* \"#utility.yul\":10478:10541   */\n      tag_111\n      jump\t// in\n    tag_237:\n        /* \"#utility.yul\":10468:10541   */\n      swap4\n      pop\n        /* \"#utility.yul\":10263:10551   */\n      pop\n        /* \"#utility.yul\":10618:10620   */\n      0x40\n        /* \"#utility.yul\":10607:10616   */\n      dup6\n        /* \"#utility.yul\":10603:10621   */\n      add\n        /* \"#utility.yul\":10590:10622   */\n      calldataload\n        /* \"#utility.yul\":10649:10667   */\n      0xffffffffffffffff\n        /* \"#utility.yul\":10641:10647   */\n      dup2\n        /* \"#utility.yul\":10638:10668   */\n      gt\n        /* \"#utility.yul\":10635:10752   */\n      iszero\n      tag_238\n      jumpi\n        /* \"#utility.yul\":10671:10750   */\n      tag_239\n      tag_78\n      jump\t// in\n    tag_239:\n        /* \"#utility.yul\":10635:10752   */\n    tag_238:\n        /* \"#utility.yul\":10776:10839   */\n      tag_240\n        /* \"#utility.yul\":10831:10838   */\n      dup8\n        /* \"#utility.yul\":10822:10828   */\n      dup3\n        /* \"#utility.yul\":10811:10820   */\n      dup9\n        /* \"#utility.yul\":10807:10829   */\n      add\n        /* \"#utility.yul\":10776:10839   */\n      tag_111\n      jump\t// in\n    tag_240:\n        /* \"#utility.yul\":10766:10839   */\n      swap3\n      pop\n        /* \"#utility.yul\":10561:10849   */\n      pop\n        /* \"#utility.yul\":10916:10918   */\n      0x60\n        /* \"#utility.yul\":10905:10914   */\n      dup6\n        /* \"#utility.yul\":10901:10919   */\n      add\n        /* \"#utility.yul\":10888:10920   */\n      calldataload\n        /* \"#utility.yul\":10947:10965   */\n      0xffffffffffffffff\n        /* \"#utility.yul\":10939:10945   */\n      dup2\n        /* \"#utility.yul\":10936:10966   */\n      gt\n        /* \"#utility.yul\":10933:11050   */\n      iszero\n      tag_241\n      jumpi\n        /* \"#utility.yul\":10969:11048   */\n      tag_242\n      tag_78\n      jump\t// in\n    tag_242:\n        /* \"#utility.yul\":10933:11050   */\n    tag_241:\n        /* \"#utility.yul\":11074:11137   */\n      tag_243\n        /* \"#utility.yul\":11129:11136   */\n      dup8\n        /* \"#utility.yul\":11120:11126   */\n      dup3\n        /* \"#utility.yul\":11109:11118   */\n      dup9\n        /* \"#utility.yul\":11105:11127   */\n      add\n        /* \"#utility.yul\":11074:11137   */\n      tag_111\n      jump\t// in\n    tag_243:\n        /* \"#utility.yul\":11064:11137   */\n      swap2\n      pop\n        /* \"#utility.yul\":10859:11147   */\n      pop\n        /* \"#utility.yul\":9849:11154   */\n      swap3\n      swap6\n      swap2\n      swap5\n      pop\n      swap3\n      pop\n      jump\t// out\n        /* \"#utility.yul\":11160:11329   */\n    tag_112:\n        /* \"#utility.yul\":11244:11255   */\n      0x00\n        /* \"#utility.yul\":11278:11284   */\n      dup3\n        /* \"#utility.yul\":11273:11276   */\n      dup3\n        /* \"#utility.yul\":11266:11285   */\n      mstore\n        /* \"#utility.yul\":11318:11322   */\n      0x20\n        /* \"#utility.yul\":11313:11316   */\n      dup3\n        /* \"#utility.yul\":11309:11323   */\n      add\n        /* \"#utility.yul\":11294:11323   */\n      swap1\n      pop\n        /* \"#utility.yul\":11160:11329   */\n      swap3\n      swap2\n      pop\n      pop\n      jump\t// out\n        /* \"#utility.yul\":11335:11506   */\n    tag_113:\n        /* \"#utility.yul\":11475:11498   */\n      0x416363657373206e6f7420617574686f72697a65640000000000000000000000\n        /* \"#utility.yul\":11471:11472   */\n      0x00\n        /* \"#utility.yul\":11463:11469   */\n      dup3\n        /* \"#utility.yul\":11459:11473   */\n      add\n        /* \"#utility.yul\":11452:11499   */\n      mstore\n        /* \"#utility.yul\":11335:11506   */\n      pop\n      jump\t// out\n        /* \"#utility.yul\":11512:11878   */\n    tag_114:\n        /* \"#utility.yul\":11654:11657   */\n      0x00\n        /* \"#utility.yul\":11675:11742   */\n      tag_247\n        /* \"#utility.yul\":11739:11741   */\n      0x15\n        /* \"#utility.yul\":11734:11737   */\n      dup4\n        /* \"#utility.yul\":11675:11742   */\n      tag_112\n      jump\t// in\n    tag_247:\n        /* \"#utility.yul\":11668:11742   */\n      swap2\n      pop\n        /* \"#utility.yul\":11751:11844   */\n      tag_248\n        /* \"#utility.yul\":11840:11843   */\n      dup3\n        /* \"#utility.yul\":11751:11844   */\n      tag_113\n      jump\t// in\n    tag_248:\n        /* \"#utility.yul\":11869:11871   */\n      0x20\n        /* \"#utility.yul\":11864:11867   */\n      dup3\n        /* \"#utility.yul\":11860:11872   */\n      add\n        /* \"#utility.yul\":11853:11872   */\n      swap1\n      pop\n        /* \"#utility.yul\":11512:11878   */\n      swap2\n      swap1\n      pop\n      jump\t// out\n        /* \"#utility.yul\":11884:12303   */\n    tag_37:\n        /* \"#utility.yul\":12050:12054   */\n      0x00\n        /* \"#utility.yul\":12088:12090   */\n      0x20\n        /* \"#utility.yul\":12077:12086   */\n      dup3\n        /* \"#utility.yul\":12073:12091   */\n      add\n        /* \"#utility.yul\":12065:12091   */\n      swap1\n      pop\n        /* \"#utility.yul\":12137:12146   */\n      dup2\n        /* \"#utility.yul\":12131:12135   */\n      dup2\n        /* \"#utility.yul\":12127:12147   */\n      sub\n        /* \"#utility.yul\":12123:12124   */\n      0x00\n        /* \"#utility.yul\":12112:12121   */\n      dup4\n        /* \"#utility.yul\":12108:12125   */\n      add\n        /* \"#utility.yul\":12101:12148   */\n      mstore\n        /* \"#utility.yul\":12165:12296   */\n      tag_250\n        /* \"#utility.yul\":12291:12295   */\n      dup2\n        /* \"#utility.yul\":12165:12296   */\n      tag_114\n      jump\t// in\n    tag_250:\n        /* \"#utility.yul\":12157:12296   */\n      swap1\n      pop\n        /* \"#utility.yul\":11884:12303   */\n      swap2\n      swap1\n      pop\n      jump\t// out\n        /* \"#utility.yul\":12309:12489   */\n    tag_115:\n        /* \"#utility.yul\":12357:12434   */\n      0x4e487b7100000000000000000000000000000000000000000000000000000000\n        /* \"#utility.yul\":12354:12355   */\n      0x00\n        /* \"#utility.yul\":12347:12435   */\n      mstore\n        /* \"#utility.yul\":12454:12458   */\n      0x22\n        /* \"#utility.yul\":12451:12452   */\n      0x04\n        /* \"#utility.yul\":12444:12459   */\n      mstore\n        /* \"#utility.yul\":12478:12482   */\n      0x24\n        /* \"#utility.yul\":12475:12476   */\n      0x00\n        /* \"#utility.yul\":12468:12483   */\n      revert\n        /* \"#utility.yul\":12495:12815   */\n    tag_42:\n        /* \"#utility.yul\":12539:12545   */\n      0x00\n        /* \"#utility.yul\":12576:12577   */\n      0x02\n        /* \"#utility.yul\":12570:12574   */\n      dup3\n        /* \"#utility.yul\":12566:12578   */\n      div\n        /* \"#utility.yul\":12556:12578   */\n      swap1\n      pop\n        /* \"#utility.yul\":12623:12624   */\n      0x01\n        /* \"#utility.yul\":12617:12621   */\n      dup3\n        /* \"#utility.yul\":12613:12625   */\n      and\n        /* \"#utility.yul\":12644:12662   */\n      dup1\n        /* \"#utility.yul\":12634:12715   */\n      tag_253\n      jumpi\n        /* \"#utility.yul\":12700:12704   */\n      0x7f\n        /* \"#utility.yul\":12692:12698   */\n      dup3\n        /* \"#utility.yul\":12688:12705   */\n      and\n        /* \"#utility.yul\":12678:12705   */\n      swap2\n      pop\n        /* \"#utility.yul\":12634:12715   */\n    tag_253:\n        /* \"#utility.yul\":12762:12764   */\n      0x20\n        /* \"#utility.yul\":12754:12760   */\n      dup3\n        /* \"#utility.yul\":12751:12765   */\n      lt\n        /* \"#utility.yul\":12731:12749   */\n      dup2\n        /* \"#utility.yul\":12728:12766   */\n      sub\n        /* \"#utility.yul\":12725:12809   */\n      tag_254\n      jumpi\n        /* \"#utility.yul\":12781:12799   */\n      tag_255\n      tag_115\n      jump\t// in\n    tag_255:\n        /* \"#utility.yul\":12725:12809   */\n    tag_254:\n        /* \"#utility.yul\":12546:12815   */\n      pop\n        /* \"#utility.yul\":12495:12815   */\n      swap2\n      swap1\n      pop\n      jump\t// out\n        /* \"#utility.yul\":12821:13001   */\n    tag_116:\n        /* \"#utility.yul\":12869:12946   */\n      0x4e487b7100000000000000000000000000000000000000000000000000000000\n        /* \"#utility.yul\":12866:12867   */\n      0x00\n        /* \"#utility.yul\":12859:12947   */\n      mstore\n        /* \"#utility.yul\":12966:12970   */\n      0x11\n        /* \"#utility.yul\":12963:12964   */\n      0x04\n        /* \"#utility.yul\":12956:12971   */\n      mstore\n        /* \"#utility.yul\":12990:12994   */\n      0x24\n        /* \"#utility.yul\":12987:12988   */\n      0x00\n        /* \"#utility.yul\":12980:12995   */\n      revert\n        /* \"#utility.yul\":13007:13198   */\n    tag_59:\n        /* \"#utility.yul\":13047:13050   */\n      0x00\n        /* \"#utility.yul\":13066:13086   */\n      tag_258\n        /* \"#utility.yul\":13084:13085   */\n      dup3\n        /* \"#utility.yul\":13066:13086   */\n      tag_86\n      jump\t// in\n    tag_258:\n        /* \"#utility.yul\":13061:13086   */\n      swap2\n      pop\n        /* \"#utility.yul\":13100:13120   */\n      tag_259\n        /* \"#utility.yul\":13118:13119   */\n      dup4\n        /* \"#utility.yul\":13100:13120   */\n      tag_86\n      jump\t// in\n    tag_259:\n        /* \"#utility.yul\":13095:13120   */\n      swap3\n      pop\n        /* \"#utility.yul\":13143:13144   */\n      dup3\n        /* \"#utility.yul\":13140:13141   */\n      dup3\n        /* \"#utility.yul\":13136:13145   */\n      add\n        /* \"#utility.yul\":13129:13145   */\n      swap1\n      pop\n        /* \"#utility.yul\":13164:13167   */\n      dup1\n        /* \"#utility.yul\":13161:13162   */\n      dup3\n        /* \"#utility.yul\":13158:13168   */\n      gt\n        /* \"#utility.yul\":13155:13191   */\n      iszero\n      tag_260\n      jumpi\n        /* \"#utility.yul\":13171:13189   */\n      tag_261\n      tag_116\n      jump\t// in\n    tag_261:\n        /* \"#utility.yul\":13155:13191   */\n    tag_260:\n        /* \"#utility.yul\":13007:13198   */\n      swap3\n      swap2\n      pop\n      pop\n      jump\t// out\n        /* \"#utility.yul\":13204:13313   */\n    tag_117:\n        /* \"#utility.yul\":13285:13306   */\n      tag_263\n        /* \"#utility.yul\":13300:13305   */\n      dup2\n        /* \"#utility.yul\":13285:13306   */\n      tag_97\n      jump\t// in\n    tag_263:\n        /* \"#utility.yul\":13280:13283   */\n      dup3\n        /* \"#utility.yul\":13273:13307   */\n      mstore\n        /* \"#utility.yul\":13204:13313   */\n      pop\n      pop\n      jump\t// out\n        /* \"#utility.yul\":13319:13639   */\n    tag_61:\n        /* \"#utility.yul\":13434:13438   */\n      0x00\n        /* \"#utility.yul\":13472:13474   */\n      0x40\n        /* \"#utility.yul\":13461:13470   */\n      dup3\n        /* \"#utility.yul\":13457:13475   */\n      add\n        /* \"#utility.yul\":13449:13475   */\n      swap1\n      pop\n        /* \"#utility.yul\":13485:13550   */\n      tag_265\n        /* \"#utility.yul\":13547:13548   */\n      0x00\n        /* \"#utility.yul\":13536:13545   */\n      dup4\n        /* \"#utility.yul\":13532:13549   */\n      add\n        /* \"#utility.yul\":13523:13529   */\n      dup6\n        /* \"#utility.yul\":13485:13550   */\n      tag_117\n      jump\t// in\n    tag_265:\n        /* \"#utility.yul\":13560:13632   */\n      tag_266\n        /* \"#utility.yul\":13628:13630   */\n      0x20\n        /* \"#utility.yul\":13617:13626   */\n      dup4\n        /* \"#utility.yul\":13613:13631   */\n      add\n        /* \"#utility.yul\":13604:13610   */\n      dup5\n        /* \"#utility.yul\":13560:13632   */\n      tag_100\n      jump\t// in\n    tag_266:\n        /* \"#utility.yul\":13319:13639   */\n      swap4\n      swap3\n      pop\n      pop\n      pop\n      jump\t// out\n        /* \"#utility.yul\":13645:13813   */\n    tag_118:\n        /* \"#utility.yul\":13785:13805   */\n      0x4e6f20746f6b656e7320746f20636c61696d0000000000000000000000000000\n        /* \"#utility.yul\":13781:13782   */\n      0x00\n        /* \"#utility.yul\":13773:13779   */\n      dup3\n        /* \"#utility.yul\":13769:13783   */\n      add\n        /* \"#utility.yul\":13762:13806   */\n      mstore\n        /* \"#utility.yul\":13645:13813   */\n      pop\n      jump\t// out\n        /* \"#utility.yul\":13819:14185   */\n    tag_119:\n        /* \"#utility.yul\":13961:13964   */\n      0x00\n        /* \"#utility.yul\":13982:14049   */\n      tag_269\n        /* \"#utility.yul\":14046:14048   */\n      0x12\n        /* \"#utility.yul\":14041:14044   */\n      dup4\n        /* \"#utility.yul\":13982:14049   */\n      tag_112\n      jump\t// in\n    tag_269:\n        /* \"#utility.yul\":13975:14049   */\n      swap2\n      pop\n        /* \"#utility.yul\":14058:14151   */\n      tag_270\n        /* \"#utility.yul\":14147:14150   */\n      dup3\n        /* \"#utility.yul\":14058:14151   */\n      tag_118\n      jump\t// in\n    tag_270:\n        /* \"#utility.yul\":14176:14178   */\n      0x20\n        /* \"#utility.yul\":14171:14174   */\n      dup3\n        /* \"#utility.yul\":14167:14179   */\n      add\n        /* \"#utility.yul\":14160:14179   */\n      swap1\n      pop\n        /* \"#utility.yul\":13819:14185   */\n      swap2\n      swap1\n      pop\n      jump\t// out\n        /* \"#utility.yul\":14191:14610   */\n    tag_65:\n        /* \"#utility.yul\":14357:14361   */\n      0x00\n        /* \"#utility.yul\":14395:14397   */\n      0x20\n        /* \"#utility.yul\":14384:14393   */\n      dup3\n        /* \"#utility.yul\":14380:14398   */\n      add\n        /* \"#utility.yul\":14372:14398   */\n      swap1\n      pop\n        /* \"#utility.yul\":14444:14453   */\n      dup2\n        /* \"#utility.yul\":14438:14442   */\n      dup2\n        /* \"#utility.yul\":14434:14454   */\n      sub\n        /* \"#utility.yul\":14430:14431   */\n      0x00\n        /* \"#utility.yul\":14419:14428   */\n      dup4\n        /* \"#utility.yul\":14415:14432   */\n      add\n        /* \"#utility.yul\":14408:14455   */\n      mstore\n        /* \"#utility.yul\":14472:14603   */\n      tag_272\n        /* \"#utility.yul\":14598:14602   */\n      dup2\n        /* \"#utility.yul\":14472:14603   */\n      tag_119\n      jump\t// in\n    tag_272:\n        /* \"#utility.yul\":14464:14603   */\n      swap1\n      pop\n        /* \"#utility.yul\":14191:14610   */\n      swap2\n      swap1\n      pop\n      jump\t// out\n        /* \"#utility.yul\":14616:14757   */\n    tag_120:\n        /* \"#utility.yul\":14665:14669   */\n      0x00\n        /* \"#utility.yul\":14688:14691   */\n      dup2\n        /* \"#utility.yul\":14680:14691   */\n      swap1\n      pop\n        /* \"#utility.yul\":14711:14714   */\n      dup2\n        /* \"#utility.yul\":14708:14709   */\n      0x00\n        /* \"#utility.yul\":14701:14715   */\n      mstore\n        /* \"#utility.yul\":14745:14749   */\n      0x20\n        /* \"#utility.yul\":14742:14743   */\n      0x00\n        /* \"#utility.yul\":14732:14750   */\n      keccak256\n        /* \"#utility.yul\":14724:14750   */\n      swap1\n      pop\n        /* \"#utility.yul\":14616:14757   */\n      swap2\n      swap1\n      pop\n      jump\t// out\n        /* \"#utility.yul\":14763:14856   */\n    tag_121:\n        /* \"#utility.yul\":14800:14806   */\n      0x00\n        /* \"#utility.yul\":14847:14849   */\n      0x20\n        /* \"#utility.yul\":14842:14844   */\n      0x1f\n        /* \"#utility.yul\":14835:14840   */\n      dup4\n        /* \"#utility.yul\":14831:14845   */\n      add\n        /* \"#utility.yul\":14827:14850   */\n      div\n        /* \"#utility.yul\":14817:14850   */\n      swap1\n      pop\n        /* \"#utility.yul\":14763:14856   */\n      swap2\n      swap1\n      pop\n      jump\t// out\n        /* \"#utility.yul\":14862:14969   */\n    tag_122:\n        /* \"#utility.yul\":14906:14914   */\n      0x00\n        /* \"#utility.yul\":14956:14961   */\n      dup3\n        /* \"#utility.yul\":14950:14954   */\n      dup3\n        /* \"#utility.yul\":14946:14962   */\n      shl\n        /* \"#utility.yul\":14925:14962   */\n      swap1\n      pop\n        /* \"#utility.yul\":14862:14969   */\n      swap3\n      swap2\n      pop\n      pop\n      jump\t// out\n        /* \"#utility.yul\":14975:15368   */\n    tag_123:\n        /* \"#utility.yul\":15044:15050   */\n      0x00\n        /* \"#utility.yul\":15094:15095   */\n      0x08\n        /* \"#utility.yul\":15082:15092   */\n      dup4\n        /* \"#utility.yul\":15078:15096   */\n      mul\n        /* \"#utility.yul\":15117:15214   */\n      tag_277\n        /* \"#utility.yul\":15147:15213   */\n      0xffffffffffffffffffffffffffffffffffffffffffffffffffffffffffffffff\n        /* \"#utility.yul\":15136:15145   */\n      dup3\n        /* \"#utility.yul\":15117:15214   */\n      tag_122\n      jump\t// in\n    tag_277:\n        /* \"#utility.yul\":15235:15274   */\n      tag_278\n        /* \"#utility.yul\":15265:15273   */\n      dup7\n        /* \"#utility.yul\":15254:15263   */\n      dup4\n        /* \"#utility.yul\":15235:15274   */\n      tag_122\n      jump\t// in\n    tag_278:\n        /* \"#utility.yul\":15223:15274   */\n      swap6\n      pop\n        /* \"#utility.yul\":15307:15311   */\n      dup1\n        /* \"#utility.yul\":15303:15312   */\n      not\n        /* \"#utility.yul\":15296:15301   */\n      dup5\n        /* \"#utility.yul\":15292:15313   */\n      and\n        /* \"#utility.yul\":15283:15313   */\n      swap4\n      pop\n        /* \"#utility.yul\":15356:15360   */\n      dup1\n        /* \"#utility.yul\":15346:15354   */\n      dup7\n        /* \"#utility.yul\":15342:15361   */\n      and\n        /* \"#utility.yul\":15335:15340   */\n      dup5\n        /* \"#utility.yul\":15332:15362   */\n      or\n        /* \"#utility.yul\":15322:15362   */\n      swap3\n      pop\n        /* \"#utility.yul\":15051:15368   */\n      pop\n      pop\n        /* \"#utility.yul\":14975:15368   */\n      swap4\n      swap3\n      pop\n      pop\n      pop\n      jump\t// out\n        /* \"#utility.yul\":15374:15434   */\n    tag_124:\n        /* \"#utility.yul\":15402:15405   */\n      0x00\n        /* \"#utility.yul\":15423:15428   */\n      dup2\n        /* \"#utility.yul\":15416:15428   */\n      swap1\n      pop\n        /* \"#utility.yul\":15374:15434   */\n      swap2\n      swap1\n      pop\n      jump\t// out\n        /* \"#utility.yul\":15440:15582   */\n    tag_125:\n        /* \"#utility.yul\":15490:15499   */\n      0x00\n        /* \"#utility.yul\":15523:15576   */\n      tag_281\n        /* \"#utility.yul\":15541:15575   */\n      tag_282\n        /* \"#utility.yul\":15550:15574   */\n      tag_283\n        /* \"#utility.yul\":15568:15573   */\n      dup5\n        /* \"#utility.yul\":15550:15574   */\n      tag_86\n      jump\t// in\n    tag_283:\n        /* \"#utility.yul\":15541:15575   */\n      tag_124\n      jump\t// in\n    tag_282:\n        /* \"#utility.yul\":15523:15576   */\n      tag_86\n      jump\t// in\n    tag_281:\n        /* \"#utility.yul\":15510:15576   */\n      swap1\n      pop\n        /* \"#utility.yul\":15440:15582   */\n      swap2\n      swap1\n      pop\n      jump\t// out\n        /* \"#utility.yul\":15588:15663   */\n    tag_126:\n        /* \"#utility.yul\":15631:15634   */\n      0x00\n        /* \"#utility.yul\":15652:15657   */\n      dup2\n        /* \"#utility.yul\":15645:15657   */\n      swap1\n      pop\n        /* \"#utility.yul\":15588:15663   */\n      swap2\n      swap1\n      pop\n      jump\t// out\n        /* \"#utility.yul\":15669:15938   */\n    tag_127:\n        /* \"#utility.yul\":15779:15818   */\n      tag_286\n        /* \"#utility.yul\":15810:15817   */\n      dup4\n        /* \"#utility.yul\":15779:15818   */\n      tag_125\n      jump\t// in\n    tag_286:\n        /* \"#utility.yul\":15840:15931   */\n      tag_287\n        /* \"#utility.yul\":15889:15930   */\n      tag_288\n        /* \"#utility.yul\":15913:15929   */\n      dup3\n        /* \"#utility.yul\":15889:15930   */\n      tag_126\n      jump\t// in\n    tag_288:\n        /* \"#utility.yul\":15881:15887   */\n      dup5\n        /* \"#utility.yul\":15874:15878   */\n      dup5\n        /* \"#utility.yul\":15868:15879   */\n      sload\n        /* \"#utility.yul\":15840:15931   */\n      tag_123\n      jump\t// in\n    tag_287:\n        /* \"#utility.yul\":15834:15838   */\n      dup3\n        /* \"#utility.yul\":15827:15932   */\n      sstore\n        /* \"#utility.yul\":15745:15938   */\n      pop\n        /* \"#utility.yul\":15669:15938   */\n      pop\n      pop\n      pop\n      jump\t// out\n        /* \"#utility.yul\":15944:16017   */\n    tag_128:\n        /* \"#utility.yul\":15989:15992   */\n      0x00\n        /* \"#utility.yul\":15944:16017   */\n      swap1\n      jump\t// out\n        /* \"#utility.yul\":16023:16212   */\n    tag_129:\n        /* \"#utility.yul\":16100:16132   */\n      tag_291\n      tag_128\n      jump\t// in\n    tag_291:\n        /* \"#utility.yul\":16141:16206   */\n      tag_292\n        /* \"#utility.yul\":16199:16205   */\n      dup2\n        /* \"#utility.yul\":16191:16197   */\n      dup5\n        /* \"#utility.yul\":16185:16189   */\n      dup5\n        /* \"#utility.yul\":16141:16206   */\n      tag_127\n      jump\t// in\n    tag_292:\n        /* \"#utility.yul\":16076:16212   */\n      pop\n        /* \"#utility.yul\":16023:16212   */\n      pop\n      pop\n      jump\t// out\n        /* \"#utility.yul\":16218:16404   */\n    tag_130:\n        /* \"#utility.yul\":16278:16398   */\n    tag_294:\n        /* \"#utility.yul\":16295:16298   */\n      dup2\n        /* \"#utility.yul\":16288:16293   */\n      dup2\n        /* \"#utility.yul\":16285:16299   */\n      lt\n        /* \"#utility.yul\":16278:16398   */\n      iszero\n      tag_296\n      jumpi\n        /* \"#utility.yul\":16349:16388   */\n      tag_297\n        /* \"#utility.yul\":16386:16387   */\n      0x00\n        /* \"#utility.yul\":16379:16384   */\n      dup3\n        /* \"#utility.yul\":16349:16388   */\n      tag_129\n      jump\t// in\n    tag_297:\n        /* \"#utility.yul\":16322:16323   */\n      0x01\n        /* \"#utility.yul\":16315:16320   */\n      dup2\n        /* \"#utility.yul\":16311:16324   */\n      add\n        /* \"#utility.yul\":16302:16324   */\n      swap1\n      pop\n        /* \"#utility.yul\":16278:16398   */\n      jump(tag_294)\n    tag_296:\n        /* \"#utility.yul\":16218:16404   */\n      pop\n      pop\n      jump\t// out\n        /* \"#utility.yul\":16410:16953   */\n    tag_131:\n        /* \"#utility.yul\":16511:16513   */\n      0x1f\n        /* \"#utility.yul\":16506:16509   */\n      dup3\n        /* \"#utility.yul\":16503:16514   */\n      gt\n        /* \"#utility.yul\":16500:16946   */\n      iszero\n      tag_299\n      jumpi\n        /* \"#utility.yul\":16545:16583   */\n      tag_300\n        /* \"#utility.yul\":16577:16582   */\n      dup2\n        /* \"#utility.yul\":16545:16583   */\n      tag_120\n      jump\t// in\n    tag_300:\n        /* \"#utility.yul\":16629:16658   */\n      tag_301\n        /* \"#utility.yul\":16647:16657   */\n      dup5\n        /* \"#utility.yul\":16629:16658   */\n      tag_121\n      jump\t// in\n    tag_301:\n        /* \"#utility.yul\":16619:16627   */\n      dup2\n        /* \"#utility.yul\":16615:16659   */\n      add\n        /* \"#utility.yul\":16812:16814   */\n      0x20\n        /* \"#utility.yul\":16800:16810   */\n      dup6\n        /* \"#utility.yul\":16797:16815   */\n      lt\n        /* \"#utility.yul\":16794:16843   */\n      iszero\n      tag_302\n      jumpi\n        /* \"#utility.yul\":16833:16841   */\n      dup2\n        /* \"#utility.yul\":16818:16841   */\n      swap1\n      pop\n        /* \"#utility.yul\":16794:16843   */\n    tag_302:\n        /* \"#utility.yul\":16856:16936   */\n      tag_303\n        /* \"#utility.yul\":16912:16934   */\n      tag_304\n        /* \"#utility.yul\":16930:16933   */\n      dup6\n        /* \"#utility.yul\":16912:16934   */\n      tag_121\n      jump\t// in\n    tag_304:\n        /* \"#utility.yul\":16902:16910   */\n      dup4\n        /* \"#utility.yul\":16898:16935   */\n      add\n        /* \"#utility.yul\":16885:16896   */\n      dup3\n        /* \"#utility.yul\":16856:16936   */\n      tag_130\n      jump\t// in\n    tag_303:\n        /* \"#utility.yul\":16515:16946   */\n      pop\n      pop\n        /* \"#utility.yul\":16500:16946   */\n    tag_299:\n        /* \"#utility.yul\":16410:16953   */\n      pop\n      pop\n      pop\n      jump\t// out\n        /* \"#utility.yul\":16959:17076   */\n    tag_132:\n        /* \"#utility.yul\":17013:17021   */\n      0x00\n        /* \"#utility.yul\":17063:17068   */\n      dup3\n        /* \"#utility.yul\":17057:17061   */\n      dup3\n        /* \"#utility.yul\":17053:17069   */\n      shr\n        /* \"#utility.yul\":17032:17069   */\n      swap1\n      pop\n        /* \"#utility.yul\":16959:17076   */\n      swap3\n      swap2\n      pop\n      pop\n      jump\t// out\n        /* \"#utility.yul\":17082:17251   */\n    tag_133:\n        /* \"#utility.yul\":17126:17132   */\n      0x00\n        /* \"#utility.yul\":17159:17210   */\n      tag_307\n        /* \"#utility.yul\":17207:17208   */\n      0x00\n        /* \"#utility.yul\":17203:17209   */\n      not\n        /* \"#utility.yul\":17195:17200   */\n      dup5\n        /* \"#utility.yul\":17192:17193   */\n      0x08\n        /* \"#utility.yul\":17188:17201   */\n      mul\n        /* \"#utility.yul\":17159:17210   */\n      tag_132\n      jump\t// in\n    tag_307:\n        /* \"#utility.yul\":17155:17211   */\n      not\n        /* \"#utility.yul\":17240:17244   */\n      dup1\n        /* \"#utility.yul\":17234:17238   */\n      dup4\n        /* \"#utility.yul\":17230:17245   */\n      and\n        /* \"#utility.yul\":17220:17245   */\n      swap2\n      pop\n        /* \"#utility.yul\":17133:17251   */\n      pop\n        /* \"#utility.yul\":17082:17251   */\n      swap3\n      swap2\n      pop\n      pop\n      jump\t// out\n        /* \"#utility.yul\":17256:17551   */\n    tag_134:\n        /* \"#utility.yul\":17332:17336   */\n      0x00\n        /* \"#utility.yul\":17478:17507   */\n      tag_309\n        /* \"#utility.yul\":17503:17506   */\n      dup4\n        /* \"#utility.yul\":17497:17501   */\n      dup4\n        /* \"#utility.yul\":17478:17507   */\n      tag_133\n      jump\t// in\n    tag_309:\n        /* \"#utility.yul\":17470:17507   */\n      swap2\n      pop\n        /* \"#utility.yul\":17540:17543   */\n      dup3\n        /* \"#utility.yul\":17537:17538   */\n      0x02\n        /* \"#utility.yul\":17533:17544   */\n      mul\n        /* \"#utility.yul\":17527:17531   */\n      dup3\n        /* \"#utility.yul\":17524:17545   */\n      or\n        /* \"#utility.yul\":17516:17545   */\n      swap1\n      pop\n        /* \"#utility.yul\":17256:17551   */\n      swap3\n      swap2\n      pop\n      pop\n      jump\t// out\n        /* \"#utility.yul\":17556:18951   */\n    tag_70:\n        /* \"#utility.yul\":17673:17710   */\n      tag_311\n        /* \"#utility.yul\":17706:17709   */\n      dup3\n        /* \"#utility.yul\":17673:17710   */\n      tag_88\n      jump\t// in\n    tag_311:\n        /* \"#utility.yul\":17775:17793   */\n      0xffffffffffffffff\n        /* \"#utility.yul\":17767:17773   */\n      dup2\n        /* \"#utility.yul\":17764:17794   */\n      gt\n        /* \"#utility.yul\":17761:17817   */\n      iszero\n      tag_312\n      jumpi\n        /* \"#utility.yul\":17797:17815   */\n      tag_313\n      tag_105\n      jump\t// in\n    tag_313:\n        /* \"#utility.yul\":17761:17817   */\n    tag_312:\n        /* \"#utility.yul\":17841:17879   */\n      tag_314\n        /* \"#utility.yul\":17873:17877   */\n      dup3\n        /* \"#utility.yul\":17867:17878   */\n      sload\n        /* \"#utility.yul\":17841:17879   */\n      tag_42\n      jump\t// in\n    tag_314:\n        /* \"#utility.yul\":17926:17993   */\n      tag_315\n        /* \"#utility.yul\":17986:17992   */\n      dup3\n        /* \"#utility.yul\":17978:17984   */\n      dup3\n        /* \"#utility.yul\":17972:17976   */\n      dup6\n        /* \"#utility.yul\":17926:17993   */\n      tag_131\n      jump\t// in\n    tag_315:\n        /* \"#utility.yul\":18020:18021   */\n      0x00\n        /* \"#utility.yul\":18044:18048   */\n      0x20\n        /* \"#utility.yul\":18031:18048   */\n      swap1\n      pop\n        /* \"#utility.yul\":18076:18078   */\n      0x1f\n        /* \"#utility.yul\":18068:18074   */\n      dup4\n        /* \"#utility.yul\":18065:18079   */\n      gt\n        /* \"#utility.yul\":18093:18094   */\n      0x01\n        /* \"#utility.yul\":18088:18706   */\n      dup2\n      eq\n      tag_317\n      jumpi\n        /* \"#utility.yul\":18750:18751   */\n      0x00\n        /* \"#utility.yul\":18767:18773   */\n      dup5\n        /* \"#utility.yul\":18764:18841   */\n      iszero\n      tag_318\n      jumpi\n        /* \"#utility.yul\":18816:18825   */\n      dup3\n        /* \"#utility.yul\":18811:18814   */\n      dup8\n        /* \"#utility.yul\":18807:18826   */\n      add\n        /* \"#utility.yul\":18801:18827   */\n      mload\n        /* \"#utility.yul\":18792:18827   */\n      swap1\n      pop\n        /* \"#utility.yul\":18764:18841   */\n    tag_318:\n        /* \"#utility.yul\":18867:18934   */\n      tag_319\n        /* \"#utility.yul\":18927:18933   */\n      dup6\n        /* \"#utility.yul\":18920:18925   */\n      dup3\n        /* \"#utility.yul\":18867:18934   */\n      tag_134\n      jump\t// in\n    tag_319:\n        /* \"#utility.yul\":18861:18865   */\n      dup7\n        /* \"#utility.yul\":18854:18935   */\n      sstore\n        /* \"#utility.yul\":18723:18945   */\n      pop\n        /* \"#utility.yul\":18058:18945   */\n      jump(tag_316)\n        /* \"#utility.yul\":18088:18706   */\n    tag_317:\n        /* \"#utility.yul\":18140:18144   */\n      0x1f\n        /* \"#utility.yul\":18136:18145   */\n      not\n        /* \"#utility.yul\":18128:18134   */\n      dup5\n        /* \"#utility.yul\":18124:18146   */\n      and\n        /* \"#utility.yul\":18174:18211   */\n      tag_320\n        /* \"#utility.yul\":18206:18210   */\n      dup7\n        /* \"#utility.yul\":18174:18211   */\n      tag_120\n      jump\t// in\n    tag_320:\n        /* \"#utility.yul\":18233:18234   */\n      0x00\n        /* \"#utility.yul\":18247:18455   */\n    tag_321:\n        /* \"#utility.yul\":18261:18268   */\n      dup3\n        /* \"#utility.yul\":18258:18259   */\n      dup2\n        /* \"#utility.yul\":18255:18269   */\n      lt\n        /* \"#utility.yul\":18247:18455   */\n      iszero\n      tag_323\n      jumpi\n        /* \"#utility.yul\":18340:18349   */\n      dup5\n        /* \"#utility.yul\":18335:18338   */\n      dup10\n        /* \"#utility.yul\":18331:18350   */\n      add\n        /* \"#utility.yul\":18325:18351   */\n      mload\n        /* \"#utility.yul\":18317:18323   */\n      dup3\n        /* \"#utility.yul\":18310:18352   */\n      sstore\n        /* \"#utility.yul\":18391:18392   */\n      0x01\n        /* \"#utility.yul\":18383:18389   */\n      dup3\n        /* \"#utility.yul\":18379:18393   */\n      add\n        /* \"#utility.yul\":18369:18393   */\n      swap2\n      pop\n        /* \"#utility.yul\":18438:18440   */\n      0x20\n        /* \"#utility.yul\":18427:18436   */\n      dup6\n        /* \"#utility.yul\":18423:18441   */\n      add\n        /* \"#utility.yul\":18410:18441   */\n      swap5\n      pop\n        /* \"#utility.yul\":18284:18288   */\n      0x20\n        /* \"#utility.yul\":18281:18282   */\n      dup2\n        /* \"#utility.yul\":18277:18289   */\n      add\n        /* \"#utility.yul\":18272:18289   */\n      swap1\n      pop\n        /* \"#utility.yul\":18247:18455   */\n      jump(tag_321)\n    tag_323:\n        /* \"#utility.yul\":18483:18489   */\n      dup7\n        /* \"#utility.yul\":18474:18481   */\n      dup4\n        /* \"#utility.yul\":18471:18490   */\n      lt\n        /* \"#utility.yul\":18468:18647   */\n      iszero\n      tag_324\n      jumpi\n        /* \"#utility.yul\":18541:18550   */\n      dup5\n        /* \"#utility.yul\":18536:18539   */\n      dup10\n        /* \"#utility.yul\":18532:18551   */\n      add\n        /* \"#utility.yul\":18526:18552   */\n      mload\n        /* \"#utility.yul\":18584:18632   */\n      tag_325\n        /* \"#utility.yul\":18626:18630   */\n      0x1f\n        /* \"#utility.yul\":18618:18624   */\n      dup10\n        /* \"#utility.yul\":18614:18631   */\n      and\n        /* \"#utility.yul\":18603:18612   */\n      dup3\n        /* \"#utility.yul\":18584:18632   */\n      tag_133\n      jump\t// in\n    tag_325:\n        /* \"#utility.yul\":18576:18582   */\n      dup4\n        /* \"#utility.yul\":18569:18633   */\n      sstore\n        /* \"#utility.yul\":18491:18647   */\n      pop\n        /* \"#utility.yul\":18468:18647   */\n    tag_324:\n        /* \"#utility.yul\":18693:18694   */\n      0x01\n        /* \"#utility.yul\":18689:18690   */\n      0x02\n        /* \"#utility.yul\":18681:18687   */\n      dup9\n        /* \"#utility.yul\":18677:18691   */\n      mul\n        /* \"#utility.yul\":18673:18695   */\n      add\n        /* \"#utility.yul\":18667:18671   */\n      dup9\n        /* \"#utility.yul\":18660:18696   */\n      sstore\n        /* \"#utility.yul\":18095:18706   */\n      pop\n      pop\n      pop\n        /* \"#utility.yul\":18058:18945   */\n    tag_316:\n      pop\n        /* \"#utility.yul\":17648:18951   */\n      pop\n      pop\n      pop\n        /* \"#utility.yul\":17556:18951   */\n      pop\n      pop\n      jump\t// out\n        /* \"#utility.yul\":18957:19289   */\n    tag_75:\n        /* \"#utility.yul\":19078:19082   */\n      0x00\n        /* \"#utility.yul\":19116:19118   */\n      0x40\n        /* \"#utility.yul\":19105:19114   */\n      dup3\n        /* \"#utility.yul\":19101:19119   */\n      add\n        /* \"#utility.yul\":19093:19119   */\n      swap1\n      pop\n        /* \"#utility.yul\":19129:19200   */\n      tag_327\n        /* \"#utility.yul\":19197:19198   */\n      0x00\n        /* \"#utility.yul\":19186:19195   */\n      dup4\n        /* \"#utility.yul\":19182:19199   */\n      add\n        /* \"#utility.yul\":19173:19179   */\n      dup6\n        /* \"#utility.yul\":19129:19200   */\n      tag_100\n      jump\t// in\n    tag_327:\n        /* \"#utility.yul\":19210:19282   */\n      tag_328\n        /* \"#utility.yul\":19278:19280   */\n      0x20\n        /* \"#utility.yul\":19267:19276   */\n      dup4\n        /* \"#utility.yul\":19263:19281   */\n      add\n        /* \"#utility.yul\":19254:19260   */\n      dup5\n        /* \"#utility.yul\":19210:19282   */\n      tag_100\n      jump\t// in\n    tag_328:\n        /* \"#utility.yul\":18957:19289   */\n      swap4\n      swap3\n      pop\n      pop\n      pop\n      jump\t// out\n\n    auxdata: 0xa2646970667358221220ba5846b0eb3041ec16331e27010296d715d6f8a6115f5768a327920ddd75c91264736f6c634300081a0033\n}\n",
				"bytecode": {
					"linkReferences": {},
					"object": "6080604052348015600e575f80fd5b506112438061001c5f395ff3fe608060405234801561000f575f80fd5b5060043610610060575f3560e01c806305c17521146100645780630c66f9281461009457806348c54b9d146100b0578063523fba7f146100ba578063a94f5766146100ea578063d4ba890214610106575b5f80fd5b61007e600480360381019061007991906108ef565b610124565b60405161008b9190610ade565b60405180910390f35b6100ae60048036038101906100a99190610b33565b61047a565b005b6100b86105c8565b005b6100d460048036038101906100cf91906108ef565b6106dc565b6040516100e19190610b80565b60405180910390f35b61010460048036038101906100ff9190610cef565b6106f0565b005b61010e61087f565b60405161011b9190610b80565b60405180910390f35b60603373ffffffffffffffffffffffffffffffffffffffff168273ffffffffffffffffffffffffffffffffffffffff1614806101e1575060025f8373ffffffffffffffffffffffffffffffffffffffff1673ffffffffffffffffffffffffffffffffffffffff1681526020019081526020015f205f3373ffffffffffffffffffffffffffffffffffffffff1673ffffffffffffffffffffffffffffffffffffffff1681526020019081526020015f205f9054906101000a900460ff165b610220576040517f08c379a000000000000000000000000000000000000000000000000000000000815260040161021790610e01565b60405180910390fd5b60015f8373ffffffffffffffffffffffffffffffffffffffff1673ffffffffffffffffffffffffffffffffffffffff1681526020019081526020015f20805480602002602001604051908101604052809291908181526020015f905b8282101561046f578382905f5260205f2090600502016040518060a00160405290815f8201548152602001600182015481526020016002820180546102c090610e4c565b80601f01602080910402602001604051908101604052809291908181526020018280546102ec90610e4c565b80156103375780601f1061030e57610100808354040283529160200191610337565b820191905f5260205f20905b81548152906001019060200180831161031a57829003601f168201915b5050505050815260200160038201805461035090610e4c565b80601f016020809104026020016040519081016040528092919081815260200182805461037c90610e4c565b80156103c75780601f1061039e576101008083540402835291602001916103c7565b820191905f5260205f20905b8154815290600101906020018083116103aa57829003601f168201915b505050505081526020016004820180546103e090610e4c565b80601f016020809104026020016040519081016040528092919081815260200182805461040c90610e4c565b80156104575780601f1061042e57610100808354040283529160200191610457565b820191905f5260205f20905b81548152906001019060200180831161043a57829003601f168201915b5050505050815250508152602001906001019061027c565b505050509050919050565b8060025f3373ffffffffffffffffffffffffffffffffffffffff1673ffffffffffffffffffffffffffffffffffffffff1681526020019081526020015f205f8473ffffffffffffffffffffffffffffffffffffffff1673ffffffffffffffffffffffffffffffffffffffff1681526020019081526020015f205f6101000a81548160ff021916908315150217905550600a5f803373ffffffffffffffffffffffffffffffffffffffff1673ffffffffffffffffffffffffffffffffffffffff1681526020019081526020015f205f8282546105559190610ea9565b925050819055508173ffffffffffffffffffffffffffffffffffffffff163373ffffffffffffffffffffffffffffffffffffffff167f09c705c294119a93fb8ea4861ef048d5884d9504575b35eb38c7ea7705cf28b083600a6040516105bc929190610eeb565b60405180910390a35050565b5f805f3373ffffffffffffffffffffffffffffffffffffffff1673ffffffffffffffffffffffffffffffffffffffff1681526020019081526020015f205490505f811161064a576040517f08c379a000000000000000000000000000000000000000000000000000000000815260040161064190610f5c565b60405180910390fd5b5f805f3373ffffffffffffffffffffffffffffffffffffffff1673ffffffffffffffffffffffffffffffffffffffff1681526020019081526020015f20819055503373ffffffffffffffffffffffffffffffffffffffff167f896e034966eaaf1adc54acc0f257056febbd300c9e47182cf761982cf1f5e430826040516106d19190610b80565b60405180910390a250565b5f602052805f5260405f205f915090505481565b5f6040518060a0016040528042815260200186815260200185815260200184815260200183815250905060015f3373ffffffffffffffffffffffffffffffffffffffff1673ffffffffffffffffffffffffffffffffffffffff1681526020019081526020015f2081908060018154018082558091505060019003905f5260205f2090600502015f909190919091505f820151815f01556020820151816001015560408201518160020190816107a59190611117565b5060608201518160030190816107bb9190611117565b5060808201518160040190816107d19190611117565b505050600a5f803373ffffffffffffffffffffffffffffffffffffffff1673ffffffffffffffffffffffffffffffffffffffff1681526020019081526020015f205f8282546108209190610ea9565b925050819055503373ffffffffffffffffffffffffffffffffffffffff167f46b8550ac8f5f68f14d6a3540963578c9733e4ff2a4e7ca11cccdeeb0b521d6742600a6040516108709291906111e6565b60405180910390a25050505050565b600a81565b5f604051905090565b5f80fd5b5f80fd5b5f73ffffffffffffffffffffffffffffffffffffffff82169050919050565b5f6108be82610895565b9050919050565b6108ce816108b4565b81146108d8575f80fd5b50565b5f813590506108e9816108c5565b92915050565b5f602082840312156109045761090361088d565b5b5f610911848285016108db565b91505092915050565b5f81519050919050565b5f82825260208201905092915050565b5f819050602082019050919050565b5f819050919050565b61095581610943565b82525050565b5f81519050919050565b5f82825260208201905092915050565b8281835e5f83830152505050565b5f601f19601f8301169050919050565b5f61099d8261095b565b6109a78185610965565b93506109b7818560208601610975565b6109c081610983565b840191505092915050565b5f60a083015f8301516109e05f86018261094c565b5060208301516109f3602086018261094c565b5060408301518482036040860152610a0b8282610993565b91505060608301518482036060860152610a258282610993565b91505060808301518482036080860152610a3f8282610993565b9150508091505092915050565b5f610a5783836109cb565b905092915050565b5f602082019050919050565b5f610a758261091a565b610a7f8185610924565b935083602082028501610a9185610934565b805f5b85811015610acc5784840389528151610aad8582610a4c565b9450610ab883610a5f565b925060208a01995050600181019050610a94565b50829750879550505050505092915050565b5f6020820190508181035f830152610af68184610a6b565b905092915050565b5f8115159050919050565b610b1281610afe565b8114610b1c575f80fd5b50565b5f81359050610b2d81610b09565b92915050565b5f8060408385031215610b4957610b4861088d565b5b5f610b56858286016108db565b9250506020610b6785828601610b1f565b9150509250929050565b610b7a81610943565b82525050565b5f602082019050610b935f830184610b71565b92915050565b610ba281610943565b8114610bac575f80fd5b50565b5f81359050610bbd81610b99565b92915050565b5f80fd5b5f80fd5b7f4e487b71000000000000000000000000000000000000000000000000000000005f52604160045260245ffd5b610c0182610983565b810181811067ffffffffffffffff82111715610c2057610c1f610bcb565b5b80604052505050565b5f610c32610884565b9050610c3e8282610bf8565b919050565b5f67ffffffffffffffff821115610c5d57610c5c610bcb565b5b610c6682610983565b9050602081019050919050565b828183375f83830152505050565b5f610c93610c8e84610c43565b610c29565b905082815260208101848484011115610caf57610cae610bc7565b5b610cba848285610c73565b509392505050565b5f82601f830112610cd657610cd5610bc3565b5b8135610ce6848260208601610c81565b91505092915050565b5f805f8060808587031215610d0757610d0661088d565b5b5f610d1487828801610baf565b945050602085013567ffffffffffffffff811115610d3557610d34610891565b5b610d4187828801610cc2565b935050604085013567ffffffffffffffff811115610d6257610d61610891565b5b610d6e87828801610cc2565b925050606085013567ffffffffffffffff811115610d8f57610d8e610891565b5b610d9b87828801610cc2565b91505092959194509250565b5f82825260208201905092915050565b7f416363657373206e6f7420617574686f72697a656400000000000000000000005f82015250565b5f610deb601583610da7565b9150610df682610db7565b602082019050919050565b5f6020820190508181035f830152610e1881610ddf565b9050919050565b7f4e487b71000000000000000000000000000000000000000000000000000000005f52602260045260245ffd5b5f6002820490506001821680610e6357607f821691505b602082108103610e7657610e75610e1f565b5b50919050565b7f4e487b71000000000000000000000000000000000000000000000000000000005f52601160045260245ffd5b5f610eb382610943565b9150610ebe83610943565b9250828201905080821115610ed657610ed5610e7c565b5b92915050565b610ee581610afe565b82525050565b5f604082019050610efe5f830185610edc565b610f0b6020830184610b71565b9392505050565b7f4e6f20746f6b656e7320746f20636c61696d00000000000000000000000000005f82015250565b5f610f46601283610da7565b9150610f5182610f12565b602082019050919050565b5f6020820190508181035f830152610f7381610f3a565b9050919050565b5f819050815f5260205f209050919050565b5f6020601f8301049050919050565b5f82821b905092915050565b5f60088302610fd67fffffffffffffffffffffffffffffffffffffffffffffffffffffffffffffffff82610f9b565b610fe08683610f9b565b95508019841693508086168417925050509392505050565b5f819050919050565b5f61101b61101661101184610943565b610ff8565b610943565b9050919050565b5f819050919050565b61103483611001565b61104861104082611022565b848454610fa7565b825550505050565b5f90565b61105c611050565b61106781848461102b565b505050565b5b8181101561108a5761107f5f82611054565b60018101905061106d565b5050565b601f8211156110cf576110a081610f7a565b6110a984610f8c565b810160208510156110b8578190505b6110cc6110c485610f8c565b83018261106c565b50505b505050565b5f82821c905092915050565b5f6110ef5f19846008026110d4565b1980831691505092915050565b5f61110783836110e0565b9150826002028217905092915050565b6111208261095b565b67ffffffffffffffff81111561113957611138610bcb565b5b6111438254610e4c565b61114e82828561108e565b5f60209050601f83116001811461117f575f841561116d578287015190505b61117785826110fc565b8655506111de565b601f19841661118d86610f7a565b5f5b828110156111b45784890151825560018201915060208501945060208101905061118f565b868310156111d157848901516111cd601f8916826110e0565b8355505b6001600288020188555050505b505050505050565b5f6040820190506111f95f830185610b71565b6112066020830184610b71565b939250505056fea2646970667358221220ba5846b0eb3041ec16331e27010296d715d6f8a6115f5768a327920ddd75c91264736f6c634300081a0033",
					"opcodes": "PUSH1 0x80 PUSH1 0x40 MSTORE CALLVALUE DUP1 ISZERO PUSH1 0xE JUMPI PUSH0 DUP1 REVERT JUMPDEST POP PUSH2 0x1243 DUP1 PUSH2 0x1C PUSH0 CODECOPY PUSH0 RETURN INVALID PUSH1 0x80 PUSH1 0x40 MSTORE CALLVALUE DUP1 ISZERO PUSH2 0xF JUMPI PUSH0 DUP1 REVERT JUMPDEST POP PUSH1 0x4 CALLDATASIZE LT PUSH2 0x60 JUMPI PUSH0 CALLDATALOAD PUSH1 0xE0 SHR DUP1 PUSH4 0x5C17521 EQ PUSH2 0x64 JUMPI DUP1 PUSH4 0xC66F928 EQ PUSH2 0x94 JUMPI DUP1 PUSH4 0x48C54B9D EQ PUSH2 0xB0 JUMPI DUP1 PUSH4 0x523FBA7F EQ PUSH2 0xBA JUMPI DUP1 PUSH4 0xA94F5766 EQ PUSH2 0xEA JUMPI DUP1 PUSH4 0xD4BA8902 EQ PUSH2 0x106 JUMPI JUMPDEST PUSH0 DUP1 REVERT JUMPDEST PUSH2 0x7E PUSH1 0x4 DUP1 CALLDATASIZE SUB DUP2 ADD SWAP1 PUSH2 0x79 SWAP2 SWAP1 PUSH2 0x8EF JUMP JUMPDEST PUSH2 0x124 JUMP JUMPDEST PUSH1 0x40 MLOAD PUSH2 0x8B SWAP2 SWAP1 PUSH2 0xADE JUMP JUMPDEST PUSH1 0x40 MLOAD DUP1 SWAP2 SUB SWAP1 RETURN JUMPDEST PUSH2 0xAE PUSH1 0x4 DUP1 CALLDATASIZE SUB DUP2 ADD SWAP1 PUSH2 0xA9 SWAP2 SWAP1 PUSH2 0xB33 JUMP JUMPDEST PUSH2 0x47A JUMP JUMPDEST STOP JUMPDEST PUSH2 0xB8 PUSH2 0x5C8 JUMP JUMPDEST STOP JUMPDEST PUSH2 0xD4 PUSH1 0x4 DUP1 CALLDATASIZE SUB DUP2 ADD SWAP1 PUSH2 0xCF SWAP2 SWAP1 PUSH2 0x8EF JUMP JUMPDEST PUSH2 0x6DC JUMP JUMPDEST PUSH1 0x40 MLOAD PUSH2 0xE1 SWAP2 SWAP1 PUSH2 0xB80 JUMP JUMPDEST PUSH1 0x40 MLOAD DUP1 SWAP2 SUB SWAP1 RETURN JUMPDEST PUSH2 0x104 PUSH1 0x4 DUP1 CALLDATASIZE SUB DUP2 ADD SWAP1 PUSH2 0xFF SWAP2 SWAP1 PUSH2 0xCEF JUMP JUMPDEST PUSH2 0x6F0 JUMP JUMPDEST STOP JUMPDEST PUSH2 0x10E PUSH2 0x87F JUMP JUMPDEST PUSH1 0x40 MLOAD PUSH2 0x11B SWAP2 SWAP1 PUSH2 0xB80 JUMP JUMPDEST PUSH1 0x40 MLOAD DUP1 SWAP2 SUB SWAP1 RETURN JUMPDEST PUSH1 0x60 CALLER PUSH20 0xFFFFFFFFFFFFFFFFFFFFFFFFFFFFFFFFFFFFFFFF AND DUP3 PUSH20 0xFFFFFFFFFFFFFFFFFFFFFFFFFFFFFFFFFFFFFFFF AND EQ DUP1 PUSH2 0x1E1 JUMPI POP PUSH1 0x2 PUSH0 DUP4 PUSH20 0xFFFFFFFFFFFFFFFFFFFFFFFFFFFFFFFFFFFFFFFF AND PUSH20 0xFFFFFFFFFFFFFFFFFFFFFFFFFFFFFFFFFFFFFFFF AND DUP2 MSTORE PUSH1 0x20 ADD SWAP1 DUP2 MSTORE PUSH1 0x20 ADD PUSH0 KECCAK256 PUSH0 CALLER PUSH20 0xFFFFFFFFFFFFFFFFFFFFFFFFFFFFFFFFFFFFFFFF AND PUSH20 0xFFFFFFFFFFFFFFFFFFFFFFFFFFFFFFFFFFFFFFFF AND DUP2 MSTORE PUSH1 0x20 ADD SWAP1 DUP2 MSTORE PUSH1 0x20 ADD PUSH0 KECCAK256 PUSH0 SWAP1 SLOAD SWAP1 PUSH2 0x100 EXP SWAP1 DIV PUSH1 0xFF AND JUMPDEST PUSH2 0x220 JUMPI PUSH1 0x40 MLOAD PUSH32 0x8C379A000000000000000000000000000000000000000000000000000000000 DUP2 MSTORE PUSH1 0x4 ADD PUSH2 0x217 SWAP1 PUSH2 0xE01 JUMP JUMPDEST PUSH1 0x40 MLOAD DUP1 SWAP2 SUB SWAP1 REVERT JUMPDEST PUSH1 0x1 PUSH0 DUP4 PUSH20 0xFFFFFFFFFFFFFFFFFFFFFFFFFFFFFFFFFFFFFFFF AND PUSH20 0xFFFFFFFFFFFFFFFFFFFFFFFFFFFFFFFFFFFFFFFF AND DUP2 MSTORE PUSH1 0x20 ADD SWAP1 DUP2 MSTORE PUSH1 0x20 ADD PUSH0 KECCAK256 DUP1 SLOAD DUP1 PUSH1 0x20 MUL PUSH1 0x20 ADD PUSH1 0x40 MLOAD SWAP1 DUP2 ADD PUSH1 0x40 MSTORE DUP1 SWAP3 SWAP2 SWAP1 DUP2 DUP2 MSTORE PUSH1 0x20 ADD PUSH0 SWAP1 JUMPDEST DUP3 DUP3 LT ISZERO PUSH2 0x46F JUMPI DUP4 DUP3 SWAP1 PUSH0 MSTORE PUSH1 0x20 PUSH0 KECCAK256 SWAP1 PUSH1 0x5 MUL ADD PUSH1 0x40 MLOAD DUP1 PUSH1 0xA0 ADD PUSH1 0x40 MSTORE SWAP1 DUP2 PUSH0 DUP3 ADD SLOAD DUP2 MSTORE PUSH1 0x20 ADD PUSH1 0x1 DUP3 ADD SLOAD DUP2 MSTORE PUSH1 0x20 ADD PUSH1 0x2 DUP3 ADD DUP1 SLOAD PUSH2 0x2C0 SWAP1 PUSH2 0xE4C JUMP JUMPDEST DUP1 PUSH1 0x1F ADD PUSH1 0x20 DUP1 SWAP2 DIV MUL PUSH1 0x20 ADD PUSH1 0x40 MLOAD SWAP1 DUP2 ADD PUSH1 0x40 MSTORE DUP1 SWAP3 SWAP2 SWAP1 DUP2 DUP2 MSTORE PUSH1 0x20 ADD DUP3 DUP1 SLOAD PUSH2 0x2EC SWAP1 PUSH2 0xE4C JUMP JUMPDEST DUP1 ISZERO PUSH2 0x337 JUMPI DUP1 PUSH1 0x1F LT PUSH2 0x30E JUMPI PUSH2 0x100 DUP1 DUP4 SLOAD DIV MUL DUP4 MSTORE SWAP2 PUSH1 0x20 ADD SWAP2 PUSH2 0x337 JUMP JUMPDEST DUP3 ADD SWAP2 SWAP1 PUSH0 MSTORE PUSH1 0x20 PUSH0 KECCAK256 SWAP1 JUMPDEST DUP2 SLOAD DUP2 MSTORE SWAP1 PUSH1 0x1 ADD SWAP1 PUSH1 0x20 ADD DUP1 DUP4 GT PUSH2 0x31A JUMPI DUP3 SWAP1 SUB PUSH1 0x1F AND DUP3 ADD SWAP2 JUMPDEST POP POP POP POP POP DUP2 MSTORE PUSH1 0x20 ADD PUSH1 0x3 DUP3 ADD DUP1 SLOAD PUSH2 0x350 SWAP1 PUSH2 0xE4C JUMP JUMPDEST DUP1 PUSH1 0x1F ADD PUSH1 0x20 DUP1 SWAP2 DIV MUL PUSH1 0x20 ADD PUSH1 0x40 MLOAD SWAP1 DUP2 ADD PUSH1 0x40 MSTORE DUP1 SWAP3 SWAP2 SWAP1 DUP2 DUP2 MSTORE PUSH1 0x20 ADD DUP3 DUP1 SLOAD PUSH2 0x37C SWAP1 PUSH2 0xE4C JUMP JUMPDEST DUP1 ISZERO PUSH2 0x3C7 JUMPI DUP1 PUSH1 0x1F LT PUSH2 0x39E JUMPI PUSH2 0x100 DUP1 DUP4 SLOAD DIV MUL DUP4 MSTORE SWAP2 PUSH1 0x20 ADD SWAP2 PUSH2 0x3C7 JUMP JUMPDEST DUP3 ADD SWAP2 SWAP1 PUSH0 MSTORE PUSH1 0x20 PUSH0 KECCAK256 SWAP1 JUMPDEST DUP2 SLOAD DUP2 MSTORE SWAP1 PUSH1 0x1 ADD SWAP1 PUSH1 0x20 ADD DUP1 DUP4 GT PUSH2 0x3AA JUMPI DUP3 SWAP1 SUB PUSH1 0x1F AND DUP3 ADD SWAP2 JUMPDEST POP POP POP POP POP DUP2 MSTORE PUSH1 0x20 ADD PUSH1 0x4 DUP3 ADD DUP1 SLOAD PUSH2 0x3E0 SWAP1 PUSH2 0xE4C JUMP JUMPDEST DUP1 PUSH1 0x1F ADD PUSH1 0x20 DUP1 SWAP2 DIV MUL PUSH1 0x20 ADD PUSH1 0x40 MLOAD SWAP1 DUP2 ADD PUSH1 0x40 MSTORE DUP1 SWAP3 SWAP2 SWAP1 DUP2 DUP2 MSTORE PUSH1 0x20 ADD DUP3 DUP1 SLOAD PUSH2 0x40C SWAP1 PUSH2 0xE4C JUMP JUMPDEST DUP1 ISZERO PUSH2 0x457 JUMPI DUP1 PUSH1 0x1F LT PUSH2 0x42E JUMPI PUSH2 0x100 DUP1 DUP4 SLOAD DIV MUL DUP4 MSTORE SWAP2 PUSH1 0x20 ADD SWAP2 PUSH2 0x457 JUMP JUMPDEST DUP3 ADD SWAP2 SWAP1 PUSH0 MSTORE PUSH1 0x20 PUSH0 KECCAK256 SWAP1 JUMPDEST DUP2 SLOAD DUP2 MSTORE SWAP1 PUSH1 0x1 ADD SWAP1 PUSH1 0x20 ADD DUP1 DUP4 GT PUSH2 0x43A JUMPI DUP3 SWAP1 SUB PUSH1 0x1F AND DUP3 ADD SWAP2 JUMPDEST POP POP POP POP POP DUP2 MSTORE POP POP DUP2 MSTORE PUSH1 0x20 ADD SWAP1 PUSH1 0x1 ADD SWAP1 PUSH2 0x27C JUMP JUMPDEST POP POP POP POP SWAP1 POP SWAP2 SWAP1 POP JUMP JUMPDEST DUP1 PUSH1 0x2 PUSH0 CALLER PUSH20 0xFFFFFFFFFFFFFFFFFFFFFFFFFFFFFFFFFFFFFFFF AND PUSH20 0xFFFFFFFFFFFFFFFFFFFFFFFFFFFFFFFFFFFFFFFF AND DUP2 MSTORE PUSH1 0x20 ADD SWAP1 DUP2 MSTORE PUSH1 0x20 ADD PUSH0 KECCAK256 PUSH0 DUP5 PUSH20 0xFFFFFFFFFFFFFFFFFFFFFFFFFFFFFFFFFFFFFFFF AND PUSH20 0xFFFFFFFFFFFFFFFFFFFFFFFFFFFFFFFFFFFFFFFF AND DUP2 MSTORE PUSH1 0x20 ADD SWAP1 DUP2 MSTORE PUSH1 0x20 ADD PUSH0 KECCAK256 PUSH0 PUSH2 0x100 EXP DUP2 SLOAD DUP2 PUSH1 0xFF MUL NOT AND SWAP1 DUP4 ISZERO ISZERO MUL OR SWAP1 SSTORE POP PUSH1 0xA PUSH0 DUP1 CALLER PUSH20 0xFFFFFFFFFFFFFFFFFFFFFFFFFFFFFFFFFFFFFFFF AND PUSH20 0xFFFFFFFFFFFFFFFFFFFFFFFFFFFFFFFFFFFFFFFF AND DUP2 MSTORE PUSH1 0x20 ADD SWAP1 DUP2 MSTORE PUSH1 0x20 ADD PUSH0 KECCAK256 PUSH0 DUP3 DUP3 SLOAD PUSH2 0x555 SWAP2 SWAP1 PUSH2 0xEA9 JUMP JUMPDEST SWAP3 POP POP DUP2 SWAP1 SSTORE POP DUP2 PUSH20 0xFFFFFFFFFFFFFFFFFFFFFFFFFFFFFFFFFFFFFFFF AND CALLER PUSH20 0xFFFFFFFFFFFFFFFFFFFFFFFFFFFFFFFFFFFFFFFF AND PUSH32 0x9C705C294119A93FB8EA4861EF048D5884D9504575B35EB38C7EA7705CF28B0 DUP4 PUSH1 0xA PUSH1 0x40 MLOAD PUSH2 0x5BC SWAP3 SWAP2 SWAP1 PUSH2 0xEEB JUMP JUMPDEST PUSH1 0x40 MLOAD DUP1 SWAP2 SUB SWAP1 LOG3 POP POP JUMP JUMPDEST PUSH0 DUP1 PUSH0 CALLER PUSH20 0xFFFFFFFFFFFFFFFFFFFFFFFFFFFFFFFFFFFFFFFF AND PUSH20 0xFFFFFFFFFFFFFFFFFFFFFFFFFFFFFFFFFFFFFFFF AND DUP2 MSTORE PUSH1 0x20 ADD SWAP1 DUP2 MSTORE PUSH1 0x20 ADD PUSH0 KECCAK256 SLOAD SWAP1 POP PUSH0 DUP2 GT PUSH2 0x64A JUMPI PUSH1 0x40 MLOAD PUSH32 0x8C379A000000000000000000000000000000000000000000000000000000000 DUP2 MSTORE PUSH1 0x4 ADD PUSH2 0x641 SWAP1 PUSH2 0xF5C JUMP JUMPDEST PUSH1 0x40 MLOAD DUP1 SWAP2 SUB SWAP1 REVERT JUMPDEST PUSH0 DUP1 PUSH0 CALLER PUSH20 0xFFFFFFFFFFFFFFFFFFFFFFFFFFFFFFFFFFFFFFFF AND PUSH20 0xFFFFFFFFFFFFFFFFFFFFFFFFFFFFFFFFFFFFFFFF AND DUP2 MSTORE PUSH1 0x20 ADD SWAP1 DUP2 MSTORE PUSH1 0x20 ADD PUSH0 KECCAK256 DUP2 SWAP1 SSTORE POP CALLER PUSH20 0xFFFFFFFFFFFFFFFFFFFFFFFFFFFFFFFFFFFFFFFF AND PUSH32 0x896E034966EAAF1ADC54ACC0F257056FEBBD300C9E47182CF761982CF1F5E430 DUP3 PUSH1 0x40 MLOAD PUSH2 0x6D1 SWAP2 SWAP1 PUSH2 0xB80 JUMP JUMPDEST PUSH1 0x40 MLOAD DUP1 SWAP2 SUB SWAP1 LOG2 POP JUMP JUMPDEST PUSH0 PUSH1 0x20 MSTORE DUP1 PUSH0 MSTORE PUSH1 0x40 PUSH0 KECCAK256 PUSH0 SWAP2 POP SWAP1 POP SLOAD DUP2 JUMP JUMPDEST PUSH0 PUSH1 0x40 MLOAD DUP1 PUSH1 0xA0 ADD PUSH1 0x40 MSTORE DUP1 TIMESTAMP DUP2 MSTORE PUSH1 0x20 ADD DUP7 DUP2 MSTORE PUSH1 0x20 ADD DUP6 DUP2 MSTORE PUSH1 0x20 ADD DUP5 DUP2 MSTORE PUSH1 0x20 ADD DUP4 DUP2 MSTORE POP SWAP1 POP PUSH1 0x1 PUSH0 CALLER PUSH20 0xFFFFFFFFFFFFFFFFFFFFFFFFFFFFFFFFFFFFFFFF AND PUSH20 0xFFFFFFFFFFFFFFFFFFFFFFFFFFFFFFFFFFFFFFFF AND DUP2 MSTORE PUSH1 0x20 ADD SWAP1 DUP2 MSTORE PUSH1 0x20 ADD PUSH0 KECCAK256 DUP2 SWAP1 DUP1 PUSH1 0x1 DUP2 SLOAD ADD DUP1 DUP3 SSTORE DUP1 SWAP2 POP POP PUSH1 0x1 SWAP1 SUB SWAP1 PUSH0 MSTORE PUSH1 0x20 PUSH0 KECCAK256 SWAP1 PUSH1 0x5 MUL ADD PUSH0 SWAP1 SWAP2 SWAP1 SWAP2 SWAP1 SWAP2 POP PUSH0 DUP3 ADD MLOAD DUP2 PUSH0 ADD SSTORE PUSH1 0x20 DUP3 ADD MLOAD DUP2 PUSH1 0x1 ADD SSTORE PUSH1 0x40 DUP3 ADD MLOAD DUP2 PUSH1 0x2 ADD SWAP1 DUP2 PUSH2 0x7A5 SWAP2 SWAP1 PUSH2 0x1117 JUMP JUMPDEST POP PUSH1 0x60 DUP3 ADD MLOAD DUP2 PUSH1 0x3 ADD SWAP1 DUP2 PUSH2 0x7BB SWAP2 SWAP1 PUSH2 0x1117 JUMP JUMPDEST POP PUSH1 0x80 DUP3 ADD MLOAD DUP2 PUSH1 0x4 ADD SWAP1 DUP2 PUSH2 0x7D1 SWAP2 SWAP1 PUSH2 0x1117 JUMP JUMPDEST POP POP POP PUSH1 0xA PUSH0 DUP1 CALLER PUSH20 0xFFFFFFFFFFFFFFFFFFFFFFFFFFFFFFFFFFFFFFFF AND PUSH20 0xFFFFFFFFFFFFFFFFFFFFFFFFFFFFFFFFFFFFFFFF AND DUP2 MSTORE PUSH1 0x20 ADD SWAP1 DUP2 MSTORE PUSH1 0x20 ADD PUSH0 KECCAK256 PUSH0 DUP3 DUP3 SLOAD PUSH2 0x820 SWAP2 SWAP1 PUSH2 0xEA9 JUMP JUMPDEST SWAP3 POP POP DUP2 SWAP1 SSTORE POP CALLER PUSH20 0xFFFFFFFFFFFFFFFFFFFFFFFFFFFFFFFFFFFFFFFF AND PUSH32 0x46B8550AC8F5F68F14D6A3540963578C9733E4FF2A4E7CA11CCCDEEB0B521D67 TIMESTAMP PUSH1 0xA PUSH1 0x40 MLOAD PUSH2 0x870 SWAP3 SWAP2 SWAP1 PUSH2 0x11E6 JUMP JUMPDEST PUSH1 0x40 MLOAD DUP1 SWAP2 SUB SWAP1 LOG2 POP POP POP POP POP JUMP JUMPDEST PUSH1 0xA DUP2 JUMP JUMPDEST PUSH0 PUSH1 0x40 MLOAD SWAP1 POP SWAP1 JUMP JUMPDEST PUSH0 DUP1 REVERT JUMPDEST PUSH0 DUP1 REVERT JUMPDEST PUSH0 PUSH20 0xFFFFFFFFFFFFFFFFFFFFFFFFFFFFFFFFFFFFFFFF DUP3 AND SWAP1 POP SWAP2 SWAP1 POP JUMP JUMPDEST PUSH0 PUSH2 0x8BE DUP3 PUSH2 0x895 JUMP JUMPDEST SWAP1 POP SWAP2 SWAP1 POP JUMP JUMPDEST PUSH2 0x8CE DUP2 PUSH2 0x8B4 JUMP JUMPDEST DUP2 EQ PUSH2 0x8D8 JUMPI PUSH0 DUP1 REVERT JUMPDEST POP JUMP JUMPDEST PUSH0 DUP2 CALLDATALOAD SWAP1 POP PUSH2 0x8E9 DUP2 PUSH2 0x8C5 JUMP JUMPDEST SWAP3 SWAP2 POP POP JUMP JUMPDEST PUSH0 PUSH1 0x20 DUP3 DUP5 SUB SLT ISZERO PUSH2 0x904 JUMPI PUSH2 0x903 PUSH2 0x88D JUMP JUMPDEST JUMPDEST PUSH0 PUSH2 0x911 DUP5 DUP3 DUP6 ADD PUSH2 0x8DB JUMP JUMPDEST SWAP2 POP POP SWAP3 SWAP2 POP POP JUMP JUMPDEST PUSH0 DUP2 MLOAD SWAP1 POP SWAP2 SWAP1 POP JUMP JUMPDEST PUSH0 DUP3 DUP3 MSTORE PUSH1 0x20 DUP3 ADD SWAP1 POP SWAP3 SWAP2 POP POP JUMP JUMPDEST PUSH0 DUP2 SWAP1 POP PUSH1 0x20 DUP3 ADD SWAP1 POP SWAP2 SWAP1 POP JUMP JUMPDEST PUSH0 DUP2 SWAP1 POP SWAP2 SWAP1 POP JUMP JUMPDEST PUSH2 0x955 DUP2 PUSH2 0x943 JUMP JUMPDEST DUP3 MSTORE POP POP JUMP JUMPDEST PUSH0 DUP2 MLOAD SWAP1 POP SWAP2 SWAP1 POP JUMP JUMPDEST PUSH0 DUP3 DUP3 MSTORE PUSH1 0x20 DUP3 ADD SWAP1 POP SWAP3 SWAP2 POP POP JUMP JUMPDEST DUP3 DUP2 DUP4 MCOPY PUSH0 DUP4 DUP4 ADD MSTORE POP POP POP JUMP JUMPDEST PUSH0 PUSH1 0x1F NOT PUSH1 0x1F DUP4 ADD AND SWAP1 POP SWAP2 SWAP1 POP JUMP JUMPDEST PUSH0 PUSH2 0x99D DUP3 PUSH2 0x95B JUMP JUMPDEST PUSH2 0x9A7 DUP2 DUP6 PUSH2 0x965 JUMP JUMPDEST SWAP4 POP PUSH2 0x9B7 DUP2 DUP6 PUSH1 0x20 DUP7 ADD PUSH2 0x975 JUMP JUMPDEST PUSH2 0x9C0 DUP2 PUSH2 0x983 JUMP JUMPDEST DUP5 ADD SWAP2 POP POP SWAP3 SWAP2 POP POP JUMP JUMPDEST PUSH0 PUSH1 0xA0 DUP4 ADD PUSH0 DUP4 ADD MLOAD PUSH2 0x9E0 PUSH0 DUP7 ADD DUP3 PUSH2 0x94C JUMP JUMPDEST POP PUSH1 0x20 DUP4 ADD MLOAD PUSH2 0x9F3 PUSH1 0x20 DUP7 ADD DUP3 PUSH2 0x94C JUMP JUMPDEST POP PUSH1 0x40 DUP4 ADD MLOAD DUP5 DUP3 SUB PUSH1 0x40 DUP7 ADD MSTORE PUSH2 0xA0B DUP3 DUP3 PUSH2 0x993 JUMP JUMPDEST SWAP2 POP POP PUSH1 0x60 DUP4 ADD MLOAD DUP5 DUP3 SUB PUSH1 0x60 DUP7 ADD MSTORE PUSH2 0xA25 DUP3 DUP3 PUSH2 0x993 JUMP JUMPDEST SWAP2 POP POP PUSH1 0x80 DUP4 ADD MLOAD DUP5 DUP3 SUB PUSH1 0x80 DUP7 ADD MSTORE PUSH2 0xA3F DUP3 DUP3 PUSH2 0x993 JUMP JUMPDEST SWAP2 POP POP DUP1 SWAP2 POP POP SWAP3 SWAP2 POP POP JUMP JUMPDEST PUSH0 PUSH2 0xA57 DUP4 DUP4 PUSH2 0x9CB JUMP JUMPDEST SWAP1 POP SWAP3 SWAP2 POP POP JUMP JUMPDEST PUSH0 PUSH1 0x20 DUP3 ADD SWAP1 POP SWAP2 SWAP1 POP JUMP JUMPDEST PUSH0 PUSH2 0xA75 DUP3 PUSH2 0x91A JUMP JUMPDEST PUSH2 0xA7F DUP2 DUP6 PUSH2 0x924 JUMP JUMPDEST SWAP4 POP DUP4 PUSH1 0x20 DUP3 MUL DUP6 ADD PUSH2 0xA91 DUP6 PUSH2 0x934 JUMP JUMPDEST DUP1 PUSH0 JUMPDEST DUP6 DUP2 LT ISZERO PUSH2 0xACC JUMPI DUP5 DUP5 SUB DUP10 MSTORE DUP2 MLOAD PUSH2 0xAAD DUP6 DUP3 PUSH2 0xA4C JUMP JUMPDEST SWAP5 POP PUSH2 0xAB8 DUP4 PUSH2 0xA5F JUMP JUMPDEST SWAP3 POP PUSH1 0x20 DUP11 ADD SWAP10 POP POP PUSH1 0x1 DUP2 ADD SWAP1 POP PUSH2 0xA94 JUMP JUMPDEST POP DUP3 SWAP8 POP DUP8 SWAP6 POP POP POP POP POP POP SWAP3 SWAP2 POP POP JUMP JUMPDEST PUSH0 PUSH1 0x20 DUP3 ADD SWAP1 POP DUP2 DUP2 SUB PUSH0 DUP4 ADD MSTORE PUSH2 0xAF6 DUP2 DUP5 PUSH2 0xA6B JUMP JUMPDEST SWAP1 POP SWAP3 SWAP2 POP POP JUMP JUMPDEST PUSH0 DUP2 ISZERO ISZERO SWAP1 POP SWAP2 SWAP1 POP JUMP JUMPDEST PUSH2 0xB12 DUP2 PUSH2 0xAFE JUMP JUMPDEST DUP2 EQ PUSH2 0xB1C JUMPI PUSH0 DUP1 REVERT JUMPDEST POP JUMP JUMPDEST PUSH0 DUP2 CALLDATALOAD SWAP1 POP PUSH2 0xB2D DUP2 PUSH2 0xB09 JUMP JUMPDEST SWAP3 SWAP2 POP POP JUMP JUMPDEST PUSH0 DUP1 PUSH1 0x40 DUP4 DUP6 SUB SLT ISZERO PUSH2 0xB49 JUMPI PUSH2 0xB48 PUSH2 0x88D JUMP JUMPDEST JUMPDEST PUSH0 PUSH2 0xB56 DUP6 DUP3 DUP7 ADD PUSH2 0x8DB JUMP JUMPDEST SWAP3 POP POP PUSH1 0x20 PUSH2 0xB67 DUP6 DUP3 DUP7 ADD PUSH2 0xB1F JUMP JUMPDEST SWAP2 POP POP SWAP3 POP SWAP3 SWAP1 POP JUMP JUMPDEST PUSH2 0xB7A DUP2 PUSH2 0x943 JUMP JUMPDEST DUP3 MSTORE POP POP JUMP JUMPDEST PUSH0 PUSH1 0x20 DUP3 ADD SWAP1 POP PUSH2 0xB93 PUSH0 DUP4 ADD DUP5 PUSH2 0xB71 JUMP JUMPDEST SWAP3 SWAP2 POP POP JUMP JUMPDEST PUSH2 0xBA2 DUP2 PUSH2 0x943 JUMP JUMPDEST DUP2 EQ PUSH2 0xBAC JUMPI PUSH0 DUP1 REVERT JUMPDEST POP JUMP JUMPDEST PUSH0 DUP2 CALLDATALOAD SWAP1 POP PUSH2 0xBBD DUP2 PUSH2 0xB99 JUMP JUMPDEST SWAP3 SWAP2 POP POP JUMP JUMPDEST PUSH0 DUP1 REVERT JUMPDEST PUSH0 DUP1 REVERT JUMPDEST PUSH32 0x4E487B7100000000000000000000000000000000000000000000000000000000 PUSH0 MSTORE PUSH1 0x41 PUSH1 0x4 MSTORE PUSH1 0x24 PUSH0 REVERT JUMPDEST PUSH2 0xC01 DUP3 PUSH2 0x983 JUMP JUMPDEST DUP2 ADD DUP2 DUP2 LT PUSH8 0xFFFFFFFFFFFFFFFF DUP3 GT OR ISZERO PUSH2 0xC20 JUMPI PUSH2 0xC1F PUSH2 0xBCB JUMP JUMPDEST JUMPDEST DUP1 PUSH1 0x40 MSTORE POP POP POP JUMP JUMPDEST PUSH0 PUSH2 0xC32 PUSH2 0x884 JUMP JUMPDEST SWAP1 POP PUSH2 0xC3E DUP3 DUP3 PUSH2 0xBF8 JUMP JUMPDEST SWAP2 SWAP1 POP JUMP JUMPDEST PUSH0 PUSH8 0xFFFFFFFFFFFFFFFF DUP3 GT ISZERO PUSH2 0xC5D JUMPI PUSH2 0xC5C PUSH2 0xBCB JUMP JUMPDEST JUMPDEST PUSH2 0xC66 DUP3 PUSH2 0x983 JUMP JUMPDEST SWAP1 POP PUSH1 0x20 DUP2 ADD SWAP1 POP SWAP2 SWAP1 POP JUMP JUMPDEST DUP3 DUP2 DUP4 CALLDATACOPY PUSH0 DUP4 DUP4 ADD MSTORE POP POP POP JUMP JUMPDEST PUSH0 PUSH2 0xC93 PUSH2 0xC8E DUP5 PUSH2 0xC43 JUMP JUMPDEST PUSH2 0xC29 JUMP JUMPDEST SWAP1 POP DUP3 DUP2 MSTORE PUSH1 0x20 DUP2 ADD DUP5 DUP5 DUP5 ADD GT ISZERO PUSH2 0xCAF JUMPI PUSH2 0xCAE PUSH2 0xBC7 JUMP JUMPDEST JUMPDEST PUSH2 0xCBA DUP5 DUP3 DUP6 PUSH2 0xC73 JUMP JUMPDEST POP SWAP4 SWAP3 POP POP POP JUMP JUMPDEST PUSH0 DUP3 PUSH1 0x1F DUP4 ADD SLT PUSH2 0xCD6 JUMPI PUSH2 0xCD5 PUSH2 0xBC3 JUMP JUMPDEST JUMPDEST DUP2 CALLDATALOAD PUSH2 0xCE6 DUP5 DUP3 PUSH1 0x20 DUP7 ADD PUSH2 0xC81 JUMP JUMPDEST SWAP2 POP POP SWAP3 SWAP2 POP POP JUMP JUMPDEST PUSH0 DUP1 PUSH0 DUP1 PUSH1 0x80 DUP6 DUP8 SUB SLT ISZERO PUSH2 0xD07 JUMPI PUSH2 0xD06 PUSH2 0x88D JUMP JUMPDEST JUMPDEST PUSH0 PUSH2 0xD14 DUP8 DUP3 DUP9 ADD PUSH2 0xBAF JUMP JUMPDEST SWAP5 POP POP PUSH1 0x20 DUP6 ADD CALLDATALOAD PUSH8 0xFFFFFFFFFFFFFFFF DUP2 GT ISZERO PUSH2 0xD35 JUMPI PUSH2 0xD34 PUSH2 0x891 JUMP JUMPDEST JUMPDEST PUSH2 0xD41 DUP8 DUP3 DUP9 ADD PUSH2 0xCC2 JUMP JUMPDEST SWAP4 POP POP PUSH1 0x40 DUP6 ADD CALLDATALOAD PUSH8 0xFFFFFFFFFFFFFFFF DUP2 GT ISZERO PUSH2 0xD62 JUMPI PUSH2 0xD61 PUSH2 0x891 JUMP JUMPDEST JUMPDEST PUSH2 0xD6E DUP8 DUP3 DUP9 ADD PUSH2 0xCC2 JUMP JUMPDEST SWAP3 POP POP PUSH1 0x60 DUP6 ADD CALLDATALOAD PUSH8 0xFFFFFFFFFFFFFFFF DUP2 GT ISZERO PUSH2 0xD8F JUMPI PUSH2 0xD8E PUSH2 0x891 JUMP JUMPDEST JUMPDEST PUSH2 0xD9B DUP8 DUP3 DUP9 ADD PUSH2 0xCC2 JUMP JUMPDEST SWAP2 POP POP SWAP3 SWAP6 SWAP2 SWAP5 POP SWAP3 POP JUMP JUMPDEST PUSH0 DUP3 DUP3 MSTORE PUSH1 0x20 DUP3 ADD SWAP1 POP SWAP3 SWAP2 POP POP JUMP JUMPDEST PUSH32 0x416363657373206E6F7420617574686F72697A65640000000000000000000000 PUSH0 DUP3 ADD MSTORE POP JUMP JUMPDEST PUSH0 PUSH2 0xDEB PUSH1 0x15 DUP4 PUSH2 0xDA7 JUMP JUMPDEST SWAP2 POP PUSH2 0xDF6 DUP3 PUSH2 0xDB7 JUMP JUMPDEST PUSH1 0x20 DUP3 ADD SWAP1 POP SWAP2 SWAP1 POP JUMP JUMPDEST PUSH0 PUSH1 0x20 DUP3 ADD SWAP1 POP DUP2 DUP2 SUB PUSH0 DUP4 ADD MSTORE PUSH2 0xE18 DUP2 PUSH2 0xDDF JUMP JUMPDEST SWAP1 POP SWAP2 SWAP1 POP JUMP JUMPDEST PUSH32 0x4E487B7100000000000000000000000000000000000000000000000000000000 PUSH0 MSTORE PUSH1 0x22 PUSH1 0x4 MSTORE PUSH1 0x24 PUSH0 REVERT JUMPDEST PUSH0 PUSH1 0x2 DUP3 DIV SWAP1 POP PUSH1 0x1 DUP3 AND DUP1 PUSH2 0xE63 JUMPI PUSH1 0x7F DUP3 AND SWAP2 POP JUMPDEST PUSH1 0x20 DUP3 LT DUP2 SUB PUSH2 0xE76 JUMPI PUSH2 0xE75 PUSH2 0xE1F JUMP JUMPDEST JUMPDEST POP SWAP2 SWAP1 POP JUMP JUMPDEST PUSH32 0x4E487B7100000000000000000000000000000000000000000000000000000000 PUSH0 MSTORE PUSH1 0x11 PUSH1 0x4 MSTORE PUSH1 0x24 PUSH0 REVERT JUMPDEST PUSH0 PUSH2 0xEB3 DUP3 PUSH2 0x943 JUMP JUMPDEST SWAP2 POP PUSH2 0xEBE DUP4 PUSH2 0x943 JUMP JUMPDEST SWAP3 POP DUP3 DUP3 ADD SWAP1 POP DUP1 DUP3 GT ISZERO PUSH2 0xED6 JUMPI PUSH2 0xED5 PUSH2 0xE7C JUMP JUMPDEST JUMPDEST SWAP3 SWAP2 POP POP JUMP JUMPDEST PUSH2 0xEE5 DUP2 PUSH2 0xAFE JUMP JUMPDEST DUP3 MSTORE POP POP JUMP JUMPDEST PUSH0 PUSH1 0x40 DUP3 ADD SWAP1 POP PUSH2 0xEFE PUSH0 DUP4 ADD DUP6 PUSH2 0xEDC JUMP JUMPDEST PUSH2 0xF0B PUSH1 0x20 DUP4 ADD DUP5 PUSH2 0xB71 JUMP JUMPDEST SWAP4 SWAP3 POP POP POP JUMP JUMPDEST PUSH32 0x4E6F20746F6B656E7320746F20636C61696D0000000000000000000000000000 PUSH0 DUP3 ADD MSTORE POP JUMP JUMPDEST PUSH0 PUSH2 0xF46 PUSH1 0x12 DUP4 PUSH2 0xDA7 JUMP JUMPDEST SWAP2 POP PUSH2 0xF51 DUP3 PUSH2 0xF12 JUMP JUMPDEST PUSH1 0x20 DUP3 ADD SWAP1 POP SWAP2 SWAP1 POP JUMP JUMPDEST PUSH0 PUSH1 0x20 DUP3 ADD SWAP1 POP DUP2 DUP2 SUB PUSH0 DUP4 ADD MSTORE PUSH2 0xF73 DUP2 PUSH2 0xF3A JUMP JUMPDEST SWAP1 POP SWAP2 SWAP1 POP JUMP JUMPDEST PUSH0 DUP2 SWAP1 POP DUP2 PUSH0 MSTORE PUSH1 0x20 PUSH0 KECCAK256 SWAP1 POP SWAP2 SWAP1 POP JUMP JUMPDEST PUSH0 PUSH1 0x20 PUSH1 0x1F DUP4 ADD DIV SWAP1 POP SWAP2 SWAP1 POP JUMP JUMPDEST PUSH0 DUP3 DUP3 SHL SWAP1 POP SWAP3 SWAP2 POP POP JUMP JUMPDEST PUSH0 PUSH1 0x8 DUP4 MUL PUSH2 0xFD6 PUSH32 0xFFFFFFFFFFFFFFFFFFFFFFFFFFFFFFFFFFFFFFFFFFFFFFFFFFFFFFFFFFFFFFFF DUP3 PUSH2 0xF9B JUMP JUMPDEST PUSH2 0xFE0 DUP7 DUP4 PUSH2 0xF9B JUMP JUMPDEST SWAP6 POP DUP1 NOT DUP5 AND SWAP4 POP DUP1 DUP7 AND DUP5 OR SWAP3 POP POP POP SWAP4 SWAP3 POP POP POP JUMP JUMPDEST PUSH0 DUP2 SWAP1 POP SWAP2 SWAP1 POP JUMP JUMPDEST PUSH0 PUSH2 0x101B PUSH2 0x1016 PUSH2 0x1011 DUP5 PUSH2 0x943 JUMP JUMPDEST PUSH2 0xFF8 JUMP JUMPDEST PUSH2 0x943 JUMP JUMPDEST SWAP1 POP SWAP2 SWAP1 POP JUMP JUMPDEST PUSH0 DUP2 SWAP1 POP SWAP2 SWAP1 POP JUMP JUMPDEST PUSH2 0x1034 DUP4 PUSH2 0x1001 JUMP JUMPDEST PUSH2 0x1048 PUSH2 0x1040 DUP3 PUSH2 0x1022 JUMP JUMPDEST DUP5 DUP5 SLOAD PUSH2 0xFA7 JUMP JUMPDEST DUP3 SSTORE POP POP POP POP JUMP JUMPDEST PUSH0 SWAP1 JUMP JUMPDEST PUSH2 0x105C PUSH2 0x1050 JUMP JUMPDEST PUSH2 0x1067 DUP2 DUP5 DUP5 PUSH2 0x102B JUMP JUMPDEST POP POP POP JUMP JUMPDEST JUMPDEST DUP2 DUP2 LT ISZERO PUSH2 0x108A JUMPI PUSH2 0x107F PUSH0 DUP3 PUSH2 0x1054 JUMP JUMPDEST PUSH1 0x1 DUP2 ADD SWAP1 POP PUSH2 0x106D JUMP JUMPDEST POP POP JUMP JUMPDEST PUSH1 0x1F DUP3 GT ISZERO PUSH2 0x10CF JUMPI PUSH2 0x10A0 DUP2 PUSH2 0xF7A JUMP JUMPDEST PUSH2 0x10A9 DUP5 PUSH2 0xF8C JUMP JUMPDEST DUP2 ADD PUSH1 0x20 DUP6 LT ISZERO PUSH2 0x10B8 JUMPI DUP2 SWAP1 POP JUMPDEST PUSH2 0x10CC PUSH2 0x10C4 DUP6 PUSH2 0xF8C JUMP JUMPDEST DUP4 ADD DUP3 PUSH2 0x106C JUMP JUMPDEST POP POP JUMPDEST POP POP POP JUMP JUMPDEST PUSH0 DUP3 DUP3 SHR SWAP1 POP SWAP3 SWAP2 POP POP JUMP JUMPDEST PUSH0 PUSH2 0x10EF PUSH0 NOT DUP5 PUSH1 0x8 MUL PUSH2 0x10D4 JUMP JUMPDEST NOT DUP1 DUP4 AND SWAP2 POP POP SWAP3 SWAP2 POP POP JUMP JUMPDEST PUSH0 PUSH2 0x1107 DUP4 DUP4 PUSH2 0x10E0 JUMP JUMPDEST SWAP2 POP DUP3 PUSH1 0x2 MUL DUP3 OR SWAP1 POP SWAP3 SWAP2 POP POP JUMP JUMPDEST PUSH2 0x1120 DUP3 PUSH2 0x95B JUMP JUMPDEST PUSH8 0xFFFFFFFFFFFFFFFF DUP2 GT ISZERO PUSH2 0x1139 JUMPI PUSH2 0x1138 PUSH2 0xBCB JUMP JUMPDEST JUMPDEST PUSH2 0x1143 DUP3 SLOAD PUSH2 0xE4C JUMP JUMPDEST PUSH2 0x114E DUP3 DUP3 DUP6 PUSH2 0x108E JUMP JUMPDEST PUSH0 PUSH1 0x20 SWAP1 POP PUSH1 0x1F DUP4 GT PUSH1 0x1 DUP2 EQ PUSH2 0x117F JUMPI PUSH0 DUP5 ISZERO PUSH2 0x116D JUMPI DUP3 DUP8 ADD MLOAD SWAP1 POP JUMPDEST PUSH2 0x1177 DUP6 DUP3 PUSH2 0x10FC JUMP JUMPDEST DUP7 SSTORE POP PUSH2 0x11DE JUMP JUMPDEST PUSH1 0x1F NOT DUP5 AND PUSH2 0x118D DUP7 PUSH2 0xF7A JUMP JUMPDEST PUSH0 JUMPDEST DUP3 DUP2 LT ISZERO PUSH2 0x11B4 JUMPI DUP5 DUP10 ADD MLOAD DUP3 SSTORE PUSH1 0x1 DUP3 ADD SWAP2 POP PUSH1 0x20 DUP6 ADD SWAP5 POP PUSH1 0x20 DUP2 ADD SWAP1 POP PUSH2 0x118F JUMP JUMPDEST DUP7 DUP4 LT ISZERO PUSH2 0x11D1 JUMPI DUP5 DUP10 ADD MLOAD PUSH2 0x11CD PUSH1 0x1F DUP10 AND DUP3 PUSH2 0x10E0 JUMP JUMPDEST DUP4 SSTORE POP JUMPDEST PUSH1 0x1 PUSH1 0x2 DUP9 MUL ADD DUP9 SSTORE POP POP POP JUMPDEST POP POP POP POP POP POP JUMP JUMPDEST PUSH0 PUSH1 0x40 DUP3 ADD SWAP1 POP PUSH2 0x11F9 PUSH0 DUP4 ADD DUP6 PUSH2 0xB71 JUMP JUMPDEST PUSH2 0x1206 PUSH1 0x20 DUP4 ADD DUP5 PUSH2 0xB71 JUMP JUMPDEST SWAP4 SWAP3 POP POP POP JUMP INVALID LOG2 PUSH5 0x6970667358 0x22 SLT KECCAK256 0xBA PC CHAINID 0xB0 0xEB ADDRESS COINBASE 0xEC AND CALLER 0x1E 0x27 ADD MUL SWAP7 0xD7 ISZERO 0xD6 0xF8 0xA6 GT PUSH0 JUMPI PUSH9 0xA327920DDD75C91264 PUSH20 0x6F6C634300081A00330000000000000000000000 "
				},
				"gasEstimates": {
					"creation": {
						"codeDepositCost": "935000",
						"executionCost": "973",
						"totalCost": "935973"
					},
					"external": {
						"TOKEN_REWARD()": "413",
						"claimTokens()": "9057",
						"logHealthData(uint256,string,string,string)": "infinite",
						"tokenBalances(address)": "2845",
						"updateAccess(address,bool)": "infinite",
						"viewHealthData(address)": "infinite"
					}
				},
				"methodIdentifiers": {
					"TOKEN_REWARD()": "d4ba8902",
					"claimTokens()": "48c54b9d",
					"logHealthData(uint256,string,string,string)": "a94f5766",
					"tokenBalances(address)": "523fba7f",
					"updateAccess(address,bool)": "0c66f928",
					"viewHealthData(address)": "05c17521"
				}
			},
			"storageLayout": {
				"storage": [
					{
						"astId": 19,
						"contract": "contracts/PatientDataRevised.sol:PatientDataManagement",
						"label": "tokenBalances",
						"offset": 0,
						"slot": "0",
						"type": "t_mapping(t_address,t_uint256)"
					},
					{
						"astId": 25,
						"contract": "contracts/PatientDataRevised.sol:PatientDataManagement",
						"label": "patientData",
						"offset": 0,
						"slot": "1",
						"type": "t_mapping(t_address,t_array(t_struct(HealthData)15_storage)dyn_storage)"
					},
					{
						"astId": 31,
						"contract": "contracts/PatientDataRevised.sol:PatientDataManagement",
						"label": "accessPermissions",
						"offset": 0,
						"slot": "2",
						"type": "t_mapping(t_address,t_mapping(t_address,t_bool))"
					}
				],
				"types": {
					"t_address": {
						"encoding": "inplace",
						"label": "address",
						"numberOfBytes": "20"
					},
					"t_array(t_struct(HealthData)15_storage)dyn_storage": {
						"base": "t_struct(HealthData)15_storage",
						"encoding": "dynamic_array",
						"label": "struct PatientDataManagement.HealthData[]",
						"numberOfBytes": "32"
					},
					"t_bool": {
						"encoding": "inplace",
						"label": "bool",
						"numberOfBytes": "1"
					},
					"t_mapping(t_address,t_array(t_struct(HealthData)15_storage)dyn_storage)": {
						"encoding": "mapping",
						"key": "t_address",
						"label": "mapping(address => struct PatientDataManagement.HealthData[])",
						"numberOfBytes": "32",
						"value": "t_array(t_struct(HealthData)15_storage)dyn_storage"
					},
					"t_mapping(t_address,t_bool)": {
						"encoding": "mapping",
						"key": "t_address",
						"label": "mapping(address => bool)",
						"numberOfBytes": "32",
						"value": "t_bool"
					},
					"t_mapping(t_address,t_mapping(t_address,t_bool))": {
						"encoding": "mapping",
						"key": "t_address",
						"label": "mapping(address => mapping(address => bool))",
						"numberOfBytes": "32",
						"value": "t_mapping(t_address,t_bool)"
					},
					"t_mapping(t_address,t_uint256)": {
						"encoding": "mapping",
						"key": "t_address",
						"label": "mapping(address => uint256)",
						"numberOfBytes": "32",
						"value": "t_uint256"
					},
					"t_string_storage": {
						"encoding": "bytes",
						"label": "string",
						"numberOfBytes": "32"
					},
					"t_struct(HealthData)15_storage": {
						"encoding": "inplace",
						"label": "struct PatientDataManagement.HealthData",
						"members": [
							{
								"astId": 6,
								"contract": "contracts/PatientDataRevised.sol:PatientDataManagement",
								"label": "timestamp",
								"offset": 0,
								"slot": "0",
								"type": "t_uint256"
							},
							{
								"astId": 8,
								"contract": "contracts/PatientDataRevised.sol:PatientDataManagement",
								"label": "glucoseLevel",
								"offset": 0,
								"slot": "1",
								"type": "t_uint256"
							},
							{
								"astId": 10,
								"contract": "contracts/PatientDataRevised.sol:PatientDataManagement",
								"label": "medication",
								"offset": 0,
								"slot": "2",
								"type": "t_string_storage"
							},
							{
								"astId": 12,
								"contract": "contracts/PatientDataRevised.sol:PatientDataManagement",
								"label": "meals",
								"offset": 0,
								"slot": "3",
								"type": "t_string_storage"
							},
							{
								"astId": 14,
								"contract": "contracts/PatientDataRevised.sol:PatientDataManagement",
								"label": "exercise",
								"offset": 0,
								"slot": "4",
								"type": "t_string_storage"
							}
						],
						"numberOfBytes": "160"
					},
					"t_uint256": {
						"encoding": "inplace",
						"label": "uint256",
						"numberOfBytes": "32"
					}
				}
			},
			"userdoc": {
				"kind": "user",
				"methods": {},
				"version": 1
			}
		}
	}
}