{
	"data": {
		"bytecode": {
			"linkReferences": {},
			"object": "60806040525f60f81b5f806101000a81548160ff021916908360f81c02179055505f60f01b5f60016101000a81548161ffff021916908360f01c02179055503480156048575f80fd5b50610386806100565f395ff3fe608060405234801561000f575f80fd5b506004361061004a575f3560e01c80633d0211d31461004e5780633da0ac791461006c578063bcb639381461008a578063d59912de146100ba575b5f80fd5b6100566100d8565b6040516100639190610222565b60405180910390f35b610074610111565b6040516100819190610255565b60405180910390f35b6100a4600480360381019061009f91906102a5565b610177565b6040516100b19190610222565b60405180910390f35b6100c26101a3565b6040516100cf919061030a565b60405180910390f35b5f60015f8054906101000a900460f81b7effffffffffffffffffffffffffffffffffffffffffffffffffffffffffffff1916901b905090565b5f8060019054906101000a900460f01b7dffffffffffffffffffffffffffffffffffffffffffffffffffffffffffff19165f8054906101000a900460f81b7effffffffffffffffffffffffffffffffffffffffffffffffffffffffffffff191614905090565b5f805f9054906101000a900460f81b826001811061019857610197610323565b5b1a60f81b9050919050565b5f8060019054906101000a900460f01b5f8054906101000a900460f81b7effffffffffffffffffffffffffffffffffffffffffffffffffffffffffffff191616905090565b5f7fff0000000000000000000000000000000000000000000000000000000000000082169050919050565b61021c816101e8565b82525050565b5f6020820190506102355f830184610213565b92915050565b5f8115159050919050565b61024f8161023b565b82525050565b5f6020820190506102685f830184610246565b92915050565b5f80fd5b5f819050919050565b61028481610272565b811461028e575f80fd5b50565b5f8135905061029f8161027b565b92915050565b5f602082840312156102ba576102b961026e565b5b5f6102c784828501610291565b91505092915050565b5f7fffff00000000000000000000000000000000000000000000000000000000000082169050919050565b610304816102d0565b82525050565b5f60208201905061031d5f8301846102fb565b92915050565b7f4e487b71000000000000000000000000000000000000000000000000000000005f52603260045260245ffdfea2646970667358221220d54f49ba9abdd5606fb7d8148228fbfdc89046be694de96251ce4758003d46c364736f6c634300081a0033",
			"opcodes": "PUSH1 0x80 PUSH1 0x40 MSTORE PUSH0 PUSH1 0xF8 SHL PUSH0 DUP1 PUSH2 0x100 EXP DUP2 SLOAD DUP2 PUSH1 0xFF MUL NOT AND SWAP1 DUP4 PUSH1 0xF8 SHR MUL OR SWAP1 SSTORE POP PUSH0 PUSH1 0xF0 SHL PUSH0 PUSH1 0x1 PUSH2 0x100 EXP DUP2 SLOAD DUP2 PUSH2 0xFFFF MUL NOT AND SWAP1 DUP4 PUSH1 0xF0 SHR MUL OR SWAP1 SSTORE POP CALLVALUE DUP1 ISZERO PUSH1 0x48 JUMPI PUSH0 DUP1 REVERT JUMPDEST POP PUSH2 0x386 DUP1 PUSH2 0x56 PUSH0 CODECOPY PUSH0 RETURN INVALID PUSH1 0x80 PUSH1 0x40 MSTORE CALLVALUE DUP1 ISZERO PUSH2 0xF JUMPI PUSH0 DUP1 REVERT JUMPDEST POP PUSH1 0x4 CALLDATASIZE LT PUSH2 0x4A JUMPI PUSH0 CALLDATALOAD PUSH1 0xE0 SHR DUP1 PUSH4 0x3D0211D3 EQ PUSH2 0x4E JUMPI DUP1 PUSH4 0x3DA0AC79 EQ PUSH2 0x6C JUMPI DUP1 PUSH4 0xBCB63938 EQ PUSH2 0x8A JUMPI DUP1 PUSH4 0xD59912DE EQ PUSH2 0xBA JUMPI JUMPDEST PUSH0 DUP1 REVERT JUMPDEST PUSH2 0x56 PUSH2 0xD8 JUMP JUMPDEST PUSH1 0x40 MLOAD PUSH2 0x63 SWAP2 SWAP1 PUSH2 0x222 JUMP JUMPDEST PUSH1 0x40 MLOAD DUP1 SWAP2 SUB SWAP1 RETURN JUMPDEST PUSH2 0x74 PUSH2 0x111 JUMP JUMPDEST PUSH1 0x40 MLOAD PUSH2 0x81 SWAP2 SWAP1 PUSH2 0x255 JUMP JUMPDEST PUSH1 0x40 MLOAD DUP1 SWAP2 SUB SWAP1 RETURN JUMPDEST PUSH2 0xA4 PUSH1 0x4 DUP1 CALLDATASIZE SUB DUP2 ADD SWAP1 PUSH2 0x9F SWAP2 SWAP1 PUSH2 0x2A5 JUMP JUMPDEST PUSH2 0x177 JUMP JUMPDEST PUSH1 0x40 MLOAD PUSH2 0xB1 SWAP2 SWAP1 PUSH2 0x222 JUMP JUMPDEST PUSH1 0x40 MLOAD DUP1 SWAP2 SUB SWAP1 RETURN JUMPDEST PUSH2 0xC2 PUSH2 0x1A3 JUMP JUMPDEST PUSH1 0x40 MLOAD PUSH2 0xCF SWAP2 SWAP1 PUSH2 0x30A JUMP JUMPDEST PUSH1 0x40 MLOAD DUP1 SWAP2 SUB SWAP1 RETURN JUMPDEST PUSH0 PUSH1 0x1 PUSH0 DUP1 SLOAD SWAP1 PUSH2 0x100 EXP SWAP1 DIV PUSH1 0xF8 SHL PUSH31 0xFFFFFFFFFFFFFFFFFFFFFFFFFFFFFFFFFFFFFFFFFFFFFFFFFFFFFFFFFFFFFF NOT AND SWAP1 SHL SWAP1 POP SWAP1 JUMP JUMPDEST PUSH0 DUP1 PUSH1 0x1 SWAP1 SLOAD SWAP1 PUSH2 0x100 EXP SWAP1 DIV PUSH1 0xF0 SHL PUSH30 0xFFFFFFFFFFFFFFFFFFFFFFFFFFFFFFFFFFFFFFFFFFFFFFFFFFFFFFFFFFFF NOT AND PUSH0 DUP1 SLOAD SWAP1 PUSH2 0x100 EXP SWAP1 DIV PUSH1 0xF8 SHL PUSH31 0xFFFFFFFFFFFFFFFFFFFFFFFFFFFFFFFFFFFFFFFFFFFFFFFFFFFFFFFFFFFFFF NOT AND EQ SWAP1 POP SWAP1 JUMP JUMPDEST PUSH0 DUP1 PUSH0 SWAP1 SLOAD SWAP1 PUSH2 0x100 EXP SWAP1 DIV PUSH1 0xF8 SHL DUP3 PUSH1 0x1 DUP2 LT PUSH2 0x198 JUMPI PUSH2 0x197 PUSH2 0x323 JUMP JUMPDEST JUMPDEST BYTE PUSH1 0xF8 SHL SWAP1 POP SWAP2 SWAP1 POP JUMP JUMPDEST PUSH0 DUP1 PUSH1 0x1 SWAP1 SLOAD SWAP1 PUSH2 0x100 EXP SWAP1 DIV PUSH1 0xF0 SHL PUSH0 DUP1 SLOAD SWAP1 PUSH2 0x100 EXP SWAP1 DIV PUSH1 0xF8 SHL PUSH31 0xFFFFFFFFFFFFFFFFFFFFFFFFFFFFFFFFFFFFFFFFFFFFFFFFFFFFFFFFFFFFFF NOT AND AND SWAP1 POP SWAP1 JUMP JUMPDEST PUSH0 PUSH32 0xFF00000000000000000000000000000000000000000000000000000000000000 DUP3 AND SWAP1 POP SWAP2 SWAP1 POP JUMP JUMPDEST PUSH2 0x21C DUP2 PUSH2 0x1E8 JUMP JUMPDEST DUP3 MSTORE POP POP JUMP JUMPDEST PUSH0 PUSH1 0x20 DUP3 ADD SWAP1 POP PUSH2 0x235 PUSH0 DUP4 ADD DUP5 PUSH2 0x213 JUMP JUMPDEST SWAP3 SWAP2 POP POP JUMP JUMPDEST PUSH0 DUP2 ISZERO ISZERO SWAP1 POP SWAP2 SWAP1 POP JUMP JUMPDEST PUSH2 0x24F DUP2 PUSH2 0x23B JUMP JUMPDEST DUP3 MSTORE POP POP JUMP JUMPDEST PUSH0 PUSH1 0x20 DUP3 ADD SWAP1 POP PUSH2 0x268 PUSH0 DUP4 ADD DUP5 PUSH2 0x246 JUMP JUMPDEST SWAP3 SWAP2 POP POP JUMP JUMPDEST PUSH0 DUP1 REVERT JUMPDEST PUSH0 DUP2 SWAP1 POP SWAP2 SWAP1 POP JUMP JUMPDEST PUSH2 0x284 DUP2 PUSH2 0x272 JUMP JUMPDEST DUP2 EQ PUSH2 0x28E JUMPI PUSH0 DUP1 REVERT JUMPDEST POP JUMP JUMPDEST PUSH0 DUP2 CALLDATALOAD SWAP1 POP PUSH2 0x29F DUP2 PUSH2 0x27B JUMP JUMPDEST SWAP3 SWAP2 POP POP JUMP JUMPDEST PUSH0 PUSH1 0x20 DUP3 DUP5 SUB SLT ISZERO PUSH2 0x2BA JUMPI PUSH2 0x2B9 PUSH2 0x26E JUMP JUMPDEST JUMPDEST PUSH0 PUSH2 0x2C7 DUP5 DUP3 DUP6 ADD PUSH2 0x291 JUMP JUMPDEST SWAP2 POP POP SWAP3 SWAP2 POP POP JUMP JUMPDEST PUSH0 PUSH32 0xFFFF000000000000000000000000000000000000000000000000000000000000 DUP3 AND SWAP1 POP SWAP2 SWAP1 POP JUMP JUMPDEST PUSH2 0x304 DUP2 PUSH2 0x2D0 JUMP JUMPDEST DUP3 MSTORE POP POP JUMP JUMPDEST PUSH0 PUSH1 0x20 DUP3 ADD SWAP1 POP PUSH2 0x31D PUSH0 DUP4 ADD DUP5 PUSH2 0x2FB JUMP JUMPDEST SWAP3 SWAP2 POP POP JUMP JUMPDEST PUSH32 0x4E487B7100000000000000000000000000000000000000000000000000000000 PUSH0 MSTORE PUSH1 0x32 PUSH1 0x4 MSTORE PUSH1 0x24 PUSH0 REVERT INVALID LOG2 PUSH5 0x6970667358 0x22 SLT KECCAK256 0xD5 0x4F BLOBHASH 0xBA SWAP11 0xBD 0xD5 PUSH1 0x6F 0xB7 0xD8 EQ DUP3 0x28 0xFB REVERT 0xC8 SWAP1 CHAINID 0xBE PUSH10 0x4DE96251CE4758003D46 0xC3 PUSH5 0x736F6C6343 STOP ADDMOD BYTE STOP CALLER "
		},
		"gasEstimates": {
			"creation": {
				"codeDepositCost": "180400",
				"executionCost": "48816",
				"totalCost": "229216"
			},
			"external": {
				"bitOperations()": "4715",
				"compare()": "4680",
				"leftShit()": "2466",
				"returnAtIndex(uint256)": "2791"
			}
		},
		"methodIdentifiers": {
			"bitOperations()": "d59912de",
			"compare()": "3da0ac79",
			"leftShit()": "3d0211d3",
			"returnAtIndex(uint256)": "bcb63938"
		}
	},
	"abi": [
		{
			"inputs": [],
			"name": "bitOperations",
			"outputs": [
				{
					"internalType": "bytes2",
					"name": "",
					"type": "bytes2"
				}
			],
			"stateMutability": "view",
			"type": "function"
		},
		{
			"inputs": [],
			"name": "compare",
			"outputs": [
				{
					"internalType": "bool",
					"name": "",
					"type": "bool"
				}
			],
			"stateMutability": "view",
			"type": "function"
		},
		{
			"inputs": [],
			"name": "leftShit",
			"outputs": [
				{
					"internalType": "bytes1",
					"name": "",
					"type": "bytes1"
				}
			],
			"stateMutability": "view",
			"type": "function"
		},
		{
			"inputs": [
				{
					"internalType": "uint256",
					"name": "_index",
					"type": "uint256"
				}
			],
			"name": "returnAtIndex",
			"outputs": [
				{
					"internalType": "bytes1",
					"name": "",
					"type": "bytes1"
				}
			],
			"stateMutability": "view",
			"type": "function"
		}
	]
}