{
	"data": {
		"bytecode": {
			"linkReferences": {},
			"object": "6080604052735b4cba0bdaffb8c8a24ceef4e86af88bc594225560015f6101000a81548173ffffffffffffffffffffffffffffffffffffffff021916908373ffffffffffffffffffffffffffffffffffffffff16021790555060016002556004600355348015606c575f80fd5b506102878061007a5f395ff3fe608060405234801561000f575f80fd5b5060043610610034575f3560e01c80631ec771e914610038578063a15dd80314610042575b5f80fd5b61004061004c565b005b61004a61011c565b005b335f806101000a81548173ffffffffffffffffffffffffffffffffffffffff021916908373ffffffffffffffffffffffffffffffffffffffff16021790555060015f9054906101000a900473ffffffffffffffffffffffffffffffffffffffff1673ffffffffffffffffffffffffffffffffffffffff163373ffffffffffffffffffffffffffffffffffffffff161461011a576040517f08c379a00000000000000000000000000000000000000000000000000000000081526004016101119061019d565b60405180910390fd5b565b5f60035460025461012d91906101f1565b9050600581146101405761013f610224565b5b50565b5f82825260208201905092915050565b7f596f757265206e6f7420746865206f776e6572000000000000000000000000005f82015250565b5f610187601383610143565b915061019282610153565b602082019050919050565b5f6020820190508181035f8301526101b48161017b565b9050919050565b5f819050919050565b7f4e487b71000000000000000000000000000000000000000000000000000000005f52601160045260245ffd5b5f6101fb826101bb565b9150610206836101bb565b925082820190508082111561021e5761021d6101c4565b5b92915050565b7f4e487b71000000000000000000000000000000000000000000000000000000005f52600160045260245ffdfea264697066735822122024964f0f0984602bc46c76077ed8243ade8c95b04f017966060d7f9536664a4d64736f6c634300081a0033",
			"opcodes": "PUSH1 0x80 PUSH1 0x40 MSTORE PUSH20 0x5B4CBA0BDAFFB8C8A24CEEF4E86AF88BC5942255 PUSH1 0x1 PUSH0 PUSH2 0x100 EXP DUP2 SLOAD DUP2 PUSH20 0xFFFFFFFFFFFFFFFFFFFFFFFFFFFFFFFFFFFFFFFF MUL NOT AND SWAP1 DUP4 PUSH20 0xFFFFFFFFFFFFFFFFFFFFFFFFFFFFFFFFFFFFFFFF AND MUL OR SWAP1 SSTORE POP PUSH1 0x1 PUSH1 0x2 SSTORE PUSH1 0x4 PUSH1 0x3 SSTORE CALLVALUE DUP1 ISZERO PUSH1 0x6C JUMPI PUSH0 DUP1 REVERT JUMPDEST POP PUSH2 0x287 DUP1 PUSH2 0x7A PUSH0 CODECOPY PUSH0 RETURN INVALID PUSH1 0x80 PUSH1 0x40 MSTORE CALLVALUE DUP1 ISZERO PUSH2 0xF JUMPI PUSH0 DUP1 REVERT JUMPDEST POP PUSH1 0x4 CALLDATASIZE LT PUSH2 0x34 JUMPI PUSH0 CALLDATALOAD PUSH1 0xE0 SHR DUP1 PUSH4 0x1EC771E9 EQ PUSH2 0x38 JUMPI DUP1 PUSH4 0xA15DD803 EQ PUSH2 0x42 JUMPI JUMPDEST PUSH0 DUP1 REVERT JUMPDEST PUSH2 0x40 PUSH2 0x4C JUMP JUMPDEST STOP JUMPDEST PUSH2 0x4A PUSH2 0x11C JUMP JUMPDEST STOP JUMPDEST CALLER PUSH0 DUP1 PUSH2 0x100 EXP DUP2 SLOAD DUP2 PUSH20 0xFFFFFFFFFFFFFFFFFFFFFFFFFFFFFFFFFFFFFFFF MUL NOT AND SWAP1 DUP4 PUSH20 0xFFFFFFFFFFFFFFFFFFFFFFFFFFFFFFFFFFFFFFFF AND MUL OR SWAP1 SSTORE POP PUSH1 0x1 PUSH0 SWAP1 SLOAD SWAP1 PUSH2 0x100 EXP SWAP1 DIV PUSH20 0xFFFFFFFFFFFFFFFFFFFFFFFFFFFFFFFFFFFFFFFF AND PUSH20 0xFFFFFFFFFFFFFFFFFFFFFFFFFFFFFFFFFFFFFFFF AND CALLER PUSH20 0xFFFFFFFFFFFFFFFFFFFFFFFFFFFFFFFFFFFFFFFF AND EQ PUSH2 0x11A JUMPI PUSH1 0x40 MLOAD PUSH32 0x8C379A000000000000000000000000000000000000000000000000000000000 DUP2 MSTORE PUSH1 0x4 ADD PUSH2 0x111 SWAP1 PUSH2 0x19D JUMP JUMPDEST PUSH1 0x40 MLOAD DUP1 SWAP2 SUB SWAP1 REVERT JUMPDEST JUMP JUMPDEST PUSH0 PUSH1 0x3 SLOAD PUSH1 0x2 SLOAD PUSH2 0x12D SWAP2 SWAP1 PUSH2 0x1F1 JUMP JUMPDEST SWAP1 POP PUSH1 0x5 DUP2 EQ PUSH2 0x140 JUMPI PUSH2 0x13F PUSH2 0x224 JUMP JUMPDEST JUMPDEST POP JUMP JUMPDEST PUSH0 DUP3 DUP3 MSTORE PUSH1 0x20 DUP3 ADD SWAP1 POP SWAP3 SWAP2 POP POP JUMP JUMPDEST PUSH32 0x596F757265206E6F7420746865206F776E657200000000000000000000000000 PUSH0 DUP3 ADD MSTORE POP JUMP JUMPDEST PUSH0 PUSH2 0x187 PUSH1 0x13 DUP4 PUSH2 0x143 JUMP JUMPDEST SWAP2 POP PUSH2 0x192 DUP3 PUSH2 0x153 JUMP JUMPDEST PUSH1 0x20 DUP3 ADD SWAP1 POP SWAP2 SWAP1 POP JUMP JUMPDEST PUSH0 PUSH1 0x20 DUP3 ADD SWAP1 POP DUP2 DUP2 SUB PUSH0 DUP4 ADD MSTORE PUSH2 0x1B4 DUP2 PUSH2 0x17B JUMP JUMPDEST SWAP1 POP SWAP2 SWAP1 POP JUMP JUMPDEST PUSH0 DUP2 SWAP1 POP SWAP2 SWAP1 POP JUMP JUMPDEST PUSH32 0x4E487B7100000000000000000000000000000000000000000000000000000000 PUSH0 MSTORE PUSH1 0x11 PUSH1 0x4 MSTORE PUSH1 0x24 PUSH0 REVERT JUMPDEST PUSH0 PUSH2 0x1FB DUP3 PUSH2 0x1BB JUMP JUMPDEST SWAP2 POP PUSH2 0x206 DUP4 PUSH2 0x1BB JUMP JUMPDEST SWAP3 POP DUP3 DUP3 ADD SWAP1 POP DUP1 DUP3 GT ISZERO PUSH2 0x21E JUMPI PUSH2 0x21D PUSH2 0x1C4 JUMP JUMPDEST JUMPDEST SWAP3 SWAP2 POP POP JUMP JUMPDEST PUSH32 0x4E487B7100000000000000000000000000000000000000000000000000000000 PUSH0 MSTORE PUSH1 0x1 PUSH1 0x4 MSTORE PUSH1 0x24 PUSH0 REVERT INVALID LOG2 PUSH5 0x6970667358 0x22 SLT KECCAK256 0x24 SWAP7 0x4F 0xF MULMOD DUP5 PUSH1 0x2B 0xC4 PUSH13 0x76077ED8243ADE8C95B04F0179 PUSH7 0x60D7F9536664A 0x4D PUSH5 0x736F6C6343 STOP ADDMOD BYTE STOP CALLER "
		},
		"gasEstimates": {
			"creation": {
				"codeDepositCost": "129400",
				"executionCost": "68653",
				"totalCost": "198053"
			},
			"external": {
				"assertNum()": "infinite",
				"example1()": "26839"
			}
		},
		"methodIdentifiers": {
			"assertNum()": "a15dd803",
			"example1()": "1ec771e9"
		}
	},
	"abi": [
		{
			"inputs": [],
			"name": "assertNum",
			"outputs": [],
			"stateMutability": "view",
			"type": "function"
		},
		{
			"inputs": [],
			"name": "example1",
			"outputs": [],
			"stateMutability": "nonpayable",
			"type": "function"
		}
	]
}