{
	"data": {
		"bytecode": {
			"linkReferences": {},
			"object": "6080604052348015600e575f80fd5b5060f68061001b5f395ff3fe6080604052348015600e575f80fd5b5060043610603a575f3560e01c80630592a65a14603e578063506ef65c146046578063efcfe81a146060575b5f80fd5b6044607a565b005b604c6083565b6040516057919060a9565b60405180910390f35b6066608b565b6040516071919060a9565b60405180910390f35b60645f81905550565b5f8054905090565b5f6003905090565b5f819050919050565b60a3816093565b82525050565b5f60208201905060ba5f830184609c565b9291505056fea26469706673582212202622584103ea502da1b0130319254a41cf688657e8bbc55505c1aabb79a0438864736f6c634300081a0033",
			"opcodes": "PUSH1 0x80 PUSH1 0x40 MSTORE CALLVALUE DUP1 ISZERO PUSH1 0xE JUMPI PUSH0 DUP1 REVERT JUMPDEST POP PUSH1 0xF6 DUP1 PUSH2 0x1B PUSH0 CODECOPY PUSH0 RETURN INVALID PUSH1 0x80 PUSH1 0x40 MSTORE CALLVALUE DUP1 ISZERO PUSH1 0xE JUMPI PUSH0 DUP1 REVERT JUMPDEST POP PUSH1 0x4 CALLDATASIZE LT PUSH1 0x3A JUMPI PUSH0 CALLDATALOAD PUSH1 0xE0 SHR DUP1 PUSH4 0x592A65A EQ PUSH1 0x3E JUMPI DUP1 PUSH4 0x506EF65C EQ PUSH1 0x46 JUMPI DUP1 PUSH4 0xEFCFE81A EQ PUSH1 0x60 JUMPI JUMPDEST PUSH0 DUP1 REVERT JUMPDEST PUSH1 0x44 PUSH1 0x7A JUMP JUMPDEST STOP JUMPDEST PUSH1 0x4C PUSH1 0x83 JUMP JUMPDEST PUSH1 0x40 MLOAD PUSH1 0x57 SWAP2 SWAP1 PUSH1 0xA9 JUMP JUMPDEST PUSH1 0x40 MLOAD DUP1 SWAP2 SUB SWAP1 RETURN JUMPDEST PUSH1 0x66 PUSH1 0x8B JUMP JUMPDEST PUSH1 0x40 MLOAD PUSH1 0x71 SWAP2 SWAP1 PUSH1 0xA9 JUMP JUMPDEST PUSH1 0x40 MLOAD DUP1 SWAP2 SUB SWAP1 RETURN JUMPDEST PUSH1 0x64 PUSH0 DUP2 SWAP1 SSTORE POP JUMP JUMPDEST PUSH0 DUP1 SLOAD SWAP1 POP SWAP1 JUMP JUMPDEST PUSH0 PUSH1 0x3 SWAP1 POP SWAP1 JUMP JUMPDEST PUSH0 DUP2 SWAP1 POP SWAP2 SWAP1 POP JUMP JUMPDEST PUSH1 0xA3 DUP2 PUSH1 0x93 JUMP JUMPDEST DUP3 MSTORE POP POP JUMP JUMPDEST PUSH0 PUSH1 0x20 DUP3 ADD SWAP1 POP PUSH1 0xBA PUSH0 DUP4 ADD DUP5 PUSH1 0x9C JUMP JUMPDEST SWAP3 SWAP2 POP POP JUMP INVALID LOG2 PUSH5 0x6970667358 0x22 SLT KECCAK256 0x26 0x22 PC COINBASE SUB 0xEA POP 0x2D LOG1 0xB0 SGT SUB NOT 0x25 BLOBBASEFEE COINBASE 0xCF PUSH9 0x8657E8BBC55505C1AA 0xBB PUSH26 0xA0438864736F6C634300081A0033000000000000000000000000 "
		},
		"gasEstimates": {
			"creation": {
				"codeDepositCost": "49200",
				"executionCost": "97",
				"totalCost": "49297"
			},
			"external": {
				"addNum()": "354",
				"changeVariable()": "22234",
				"getVariable()": "2432"
			}
		},
		"methodIdentifiers": {
			"addNum()": "efcfe81a",
			"changeVariable()": "0592a65a",
			"getVariable()": "506ef65c"
		}
	},
	"abi": [
		{
			"inputs": [],
			"name": "addNum",
			"outputs": [
				{
					"internalType": "uint256",
					"name": "",
					"type": "uint256"
				}
			],
			"stateMutability": "pure",
			"type": "function"
		},
		{
			"inputs": [],
			"name": "changeVariable",
			"outputs": [],
			"stateMutability": "nonpayable",
			"type": "function"
		},
		{
			"inputs": [],
			"name": "getVariable",
			"outputs": [
				{
					"internalType": "uint256",
					"name": "",
					"type": "uint256"
				}
			],
			"stateMutability": "view",
			"type": "function"
		}
	]
}